{
	"chapter2/Ex2_10.sol": {
		"Alice": {
			"abi": [
				{
					"inputs": [],
					"name": "time",
					"outputs": [
						{
							"internalType": "uint256",
							"name": "",
							"type": "uint256"
						}
					],
					"stateMutability": "nonpayable",
					"type": "function"
				},
				{
					"inputs": [],
					"name": "workingHours",
					"outputs": [
						{
							"internalType": "uint256",
							"name": "",
							"type": "uint256"
						}
					],
					"stateMutability": "view",
					"type": "function"
				}
			],
			"devdoc": {
				"kind": "dev",
				"methods": {},
				"version": 1
			},
			"evm": {
				"assembly": "    /* \"chapter2/Ex2_10.sol\":511:670  contract Alice is ArtStudent(5), PartTimer(6) {... */\n  mstore(0x40, 0x80)\n  callvalue\n  dup1\n  iszero\n  tag_1\n  jumpi\n  0x00\n  dup1\n  revert\ntag_1:\n  pop\n    /* \"chapter2/Ex2_10.sol\":554:555  6 */\n  0x06\n    /* \"chapter2/Ex2_10.sol\":540:541  5 */\n  0x05\n    /* \"chapter2/Ex2_10.sol\":181:193  _schoolHours */\n  dup1\n    /* \"chapter2/Ex2_10.sol\":167:178  schoolHours */\n  0x00\n    /* \"chapter2/Ex2_10.sol\":167:193  schoolHours = _schoolHours */\n  dup2\n  swap1\n  sstore\n  pop\n    /* \"chapter2/Ex2_10.sol\":126:200  constructor(uint _schoolHours) {... */\n  pop\n    /* \"chapter2/Ex2_10.sol\":401:414  _workingHours */\n  dup1\n    /* \"chapter2/Ex2_10.sol\":386:398  workingHours */\n  0x01\n    /* \"chapter2/Ex2_10.sol\":386:414  workingHours = _workingHours */\n  dup2\n  swap1\n  sstore\n  pop\n    /* \"chapter2/Ex2_10.sol\":344:421  constructor(uint _workingHours) {... */\n  pop\n    /* \"chapter2/Ex2_10.sol\":511:670  contract Alice is ArtStudent(5), PartTimer(6) {... */\n  dataSize(sub_0)\n  dup1\n  dataOffset(sub_0)\n  0x00\n  codecopy\n  0x00\n  return\nstop\n\nsub_0: assembly {\n        /* \"chapter2/Ex2_10.sol\":511:670  contract Alice is ArtStudent(5), PartTimer(6) {... */\n      mstore(0x40, 0x80)\n      callvalue\n      dup1\n      iszero\n      tag_1\n      jumpi\n      0x00\n      dup1\n      revert\n    tag_1:\n      pop\n      jumpi(tag_2, lt(calldatasize, 0x04))\n      shr(0xe0, calldataload(0x00))\n      dup1\n      0x16ada547\n      eq\n      tag_3\n      jumpi\n      dup1\n      0xbc65793e\n      eq\n      tag_4\n      jumpi\n    tag_2:\n      0x00\n      dup1\n      revert\n        /* \"chapter2/Ex2_10.sol\":563:668  function time() public override(ArtStudent, PartTimer) returns(uint) {... */\n    tag_3:\n      tag_5\n      tag_6\n      jump\t// in\n    tag_5:\n      mload(0x40)\n      tag_7\n      swap2\n      swap1\n      tag_8\n      jump\t// in\n    tag_7:\n      mload(0x40)\n      dup1\n      swap2\n      sub\n      swap1\n      return\n        /* \"chapter2/Ex2_10.sol\":314:338  uint public workingHours */\n    tag_4:\n      tag_9\n      tag_10\n      jump\t// in\n    tag_9:\n      mload(0x40)\n      tag_11\n      swap2\n      swap1\n      tag_8\n      jump\t// in\n    tag_11:\n      mload(0x40)\n      dup1\n      swap2\n      sub\n      swap1\n      return\n        /* \"chapter2/Ex2_10.sol\":563:668  function time() public override(ArtStudent, PartTimer) returns(uint) {... */\n    tag_6:\n        /* \"chapter2/Ex2_10.sol\":626:630  uint */\n      0x00\n        /* \"chapter2/Ex2_10.sol\":649:661  super.time() */\n      tag_13\n        /* \"chapter2/Ex2_10.sol\":649:659  super.time */\n      tag_14\n        /* \"chapter2/Ex2_10.sol\":649:661  super.time() */\n      jump\t// in\n    tag_13:\n        /* \"chapter2/Ex2_10.sol\":642:661  return super.time() */\n      swap1\n      pop\n        /* \"chapter2/Ex2_10.sol\":563:668  function time() public override(ArtStudent, PartTimer) returns(uint) {... */\n      swap1\n      jump\t// out\n        /* \"chapter2/Ex2_10.sol\":314:338  uint public workingHours */\n    tag_10:\n      sload(0x01)\n      dup2\n      jump\t// out\n        /* \"chapter2/Ex2_10.sol\":426:507  function time() public virtual returns(uint) {... */\n    tag_14:\n        /* \"chapter2/Ex2_10.sol\":465:469  uint */\n      0x00\n        /* \"chapter2/Ex2_10.sol\":488:500  workingHours */\n      sload(0x01)\n        /* \"chapter2/Ex2_10.sol\":481:500  return workingHours */\n      swap1\n      pop\n        /* \"chapter2/Ex2_10.sol\":426:507  function time() public virtual returns(uint) {... */\n      swap1\n      jump\t// out\n        /* \"#utility.yul\":7:84   */\n    tag_16:\n        /* \"#utility.yul\":44:51   */\n      0x00\n        /* \"#utility.yul\":73:78   */\n      dup2\n        /* \"#utility.yul\":62:78   */\n      swap1\n      pop\n        /* \"#utility.yul\":7:84   */\n      swap2\n      swap1\n      pop\n      jump\t// out\n        /* \"#utility.yul\":90:208   */\n    tag_17:\n        /* \"#utility.yul\":177:201   */\n      tag_21\n        /* \"#utility.yul\":195:200   */\n      dup2\n        /* \"#utility.yul\":177:201   */\n      tag_16\n      jump\t// in\n    tag_21:\n        /* \"#utility.yul\":172:175   */\n      dup3\n        /* \"#utility.yul\":165:202   */\n      mstore\n        /* \"#utility.yul\":90:208   */\n      pop\n      pop\n      jump\t// out\n        /* \"#utility.yul\":214:436   */\n    tag_8:\n        /* \"#utility.yul\":307:311   */\n      0x00\n        /* \"#utility.yul\":345:347   */\n      0x20\n        /* \"#utility.yul\":334:343   */\n      dup3\n        /* \"#utility.yul\":330:348   */\n      add\n        /* \"#utility.yul\":322:348   */\n      swap1\n      pop\n        /* \"#utility.yul\":358:429   */\n      tag_23\n        /* \"#utility.yul\":426:427   */\n      0x00\n        /* \"#utility.yul\":415:424   */\n      dup4\n        /* \"#utility.yul\":411:428   */\n      add\n        /* \"#utility.yul\":402:408   */\n      dup5\n        /* \"#utility.yul\":358:429   */\n      tag_17\n      jump\t// in\n    tag_23:\n        /* \"#utility.yul\":214:436   */\n      swap3\n      swap2\n      pop\n      pop\n      jump\t// out\n\n    auxdata: 0xa2646970667358221220fa0a1d440eeea609e0a42af2732d62bab79cc572444a51cbd1edf6ffb2ee154564736f6c63430008110033\n}\n",
				"bytecode": {
					"linkReferences": {},
					"object": "608060405234801561001057600080fd5b50600660058060008190555050806001819055505060ee806100336000396000f3fe6080604052348015600f57600080fd5b506004361060325760003560e01c806316ada547146037578063bc65793e146051575b600080fd5b603d606b565b60405160489190609f565b60405180910390f35b60576078565b60405160629190609f565b60405180910390f35b60006073607e565b905090565b60015481565b6000600154905090565b6000819050919050565b6099816088565b82525050565b600060208201905060b260008301846092565b9291505056fea2646970667358221220fa0a1d440eeea609e0a42af2732d62bab79cc572444a51cbd1edf6ffb2ee154564736f6c63430008110033",
					"opcodes": "PUSH1 0x80 PUSH1 0x40 MSTORE CALLVALUE DUP1 ISZERO PUSH2 0x10 JUMPI PUSH1 0x0 DUP1 REVERT JUMPDEST POP PUSH1 0x6 PUSH1 0x5 DUP1 PUSH1 0x0 DUP2 SWAP1 SSTORE POP POP DUP1 PUSH1 0x1 DUP2 SWAP1 SSTORE POP POP PUSH1 0xEE DUP1 PUSH2 0x33 PUSH1 0x0 CODECOPY PUSH1 0x0 RETURN INVALID PUSH1 0x80 PUSH1 0x40 MSTORE CALLVALUE DUP1 ISZERO PUSH1 0xF JUMPI PUSH1 0x0 DUP1 REVERT JUMPDEST POP PUSH1 0x4 CALLDATASIZE LT PUSH1 0x32 JUMPI PUSH1 0x0 CALLDATALOAD PUSH1 0xE0 SHR DUP1 PUSH4 0x16ADA547 EQ PUSH1 0x37 JUMPI DUP1 PUSH4 0xBC65793E EQ PUSH1 0x51 JUMPI JUMPDEST PUSH1 0x0 DUP1 REVERT JUMPDEST PUSH1 0x3D PUSH1 0x6B JUMP JUMPDEST PUSH1 0x40 MLOAD PUSH1 0x48 SWAP2 SWAP1 PUSH1 0x9F JUMP JUMPDEST PUSH1 0x40 MLOAD DUP1 SWAP2 SUB SWAP1 RETURN JUMPDEST PUSH1 0x57 PUSH1 0x78 JUMP JUMPDEST PUSH1 0x40 MLOAD PUSH1 0x62 SWAP2 SWAP1 PUSH1 0x9F JUMP JUMPDEST PUSH1 0x40 MLOAD DUP1 SWAP2 SUB SWAP1 RETURN JUMPDEST PUSH1 0x0 PUSH1 0x73 PUSH1 0x7E JUMP JUMPDEST SWAP1 POP SWAP1 JUMP JUMPDEST PUSH1 0x1 SLOAD DUP2 JUMP JUMPDEST PUSH1 0x0 PUSH1 0x1 SLOAD SWAP1 POP SWAP1 JUMP JUMPDEST PUSH1 0x0 DUP2 SWAP1 POP SWAP2 SWAP1 POP JUMP JUMPDEST PUSH1 0x99 DUP2 PUSH1 0x88 JUMP JUMPDEST DUP3 MSTORE POP POP JUMP JUMPDEST PUSH1 0x0 PUSH1 0x20 DUP3 ADD SWAP1 POP PUSH1 0xB2 PUSH1 0x0 DUP4 ADD DUP5 PUSH1 0x92 JUMP JUMPDEST SWAP3 SWAP2 POP POP JUMP INVALID LOG2 PUSH5 0x6970667358 0x22 SLT KECCAK256 STATICCALL EXP SAR DIFFICULTY 0xE 0xEE 0xA6 MULMOD 0xE0 LOG4 0x2A CALLCODE PUSH20 0x2D62BAB79CC572444A51CBD1EDF6FFB2EE154564 PUSH20 0x6F6C634300081100330000000000000000000000 "
				},
				"gasEstimates": {
					"creation": {
						"codeDepositCost": "47600",
						"executionCost": "44337",
						"totalCost": "91937"
					},
					"external": {
						"time()": "2450",
						"workingHours()": "2429"
					}
				},
				"methodIdentifiers": {
					"time()": "16ada547",
					"workingHours()": "bc65793e"
				}
			},
			"storageLayout": {
				"storage": [
					{
						"astId": 3,
						"contract": "chapter2/Ex2_10.sol:Alice",
						"label": "schoolHours",
						"offset": 0,
						"slot": "0",
						"type": "t_uint256"
					},
					{
						"astId": 24,
						"contract": "chapter2/Ex2_10.sol:Alice",
						"label": "workingHours",
						"offset": 0,
						"slot": "1",
						"type": "t_uint256"
					}
				],
				"types": {
					"t_uint256": {
						"encoding": "inplace",
						"label": "uint256",
						"numberOfBytes": "32"
					}
				}
			},
			"userdoc": {
				"kind": "user",
				"methods": {},
				"version": 1
			}
		}
	}
}