{
	"chapter2/Ex2_6.sol": {
		"quiz3": {
			"abi": [
				{
					"inputs": [
						{
							"internalType": "address",
							"name": "_address",
							"type": "address"
						},
						{
							"internalType": "uint256",
							"name": "_num1",
							"type": "uint256"
						},
						{
							"internalType": "uint256",
							"name": "_num2",
							"type": "uint256"
						}
					],
					"name": "callMath",
					"outputs": [
						{
							"internalType": "bytes",
							"name": "",
							"type": "bytes"
						}
					],
					"stateMutability": "nonpayable",
					"type": "function"
				}
			],
			"devdoc": {
				"kind": "dev",
				"methods": {},
				"version": 1
			},
			"evm": {
				"assembly": "    /* \"chapter2/Ex2_6.sol\":637:963  contract quiz3 {... */\n  mstore(0x40, 0x80)\n  callvalue\n  dup1\n  iszero\n  tag_1\n  jumpi\n  0x00\n  dup1\n  revert\ntag_1:\n  pop\n  dataSize(sub_0)\n  dup1\n  dataOffset(sub_0)\n  0x00\n  codecopy\n  0x00\n  return\nstop\n\nsub_0: assembly {\n        /* \"chapter2/Ex2_6.sol\":637:963  contract quiz3 {... */\n      mstore(0x40, 0x80)\n      callvalue\n      dup1\n      iszero\n      tag_1\n      jumpi\n      0x00\n      dup1\n      revert\n    tag_1:\n      pop\n      jumpi(tag_2, lt(calldatasize, 0x04))\n      shr(0xe0, calldataload(0x00))\n      dup1\n      0xdcfcafee\n      eq\n      tag_3\n      jumpi\n    tag_2:\n      0x00\n      dup1\n      revert\n        /* \"chapter2/Ex2_6.sol\":658:961  function callMath(address _address, uint _num1, uint _num2) public returns(bytes memory) {... */\n    tag_3:\n      tag_4\n      0x04\n      dup1\n      calldatasize\n      sub\n      dup2\n      add\n      swap1\n      tag_5\n      swap2\n      swap1\n      tag_6\n      jump\t// in\n    tag_5:\n      tag_7\n      jump\t// in\n    tag_4:\n      mload(0x40)\n      tag_8\n      swap2\n      swap1\n      tag_9\n      jump\t// in\n    tag_8:\n      mload(0x40)\n      dup1\n      swap2\n      sub\n      swap1\n      return\n    tag_7:\n        /* \"chapter2/Ex2_6.sol\":733:745  bytes memory */\n      0x60\n        /* \"chapter2/Ex2_6.sol\":759:771  bool success */\n      0x00\n        /* \"chapter2/Ex2_6.sol\":773:792  bytes memory output */\n      dup1\n        /* \"chapter2/Ex2_6.sol\":796:804  _address */\n      dup6\n        /* \"chapter2/Ex2_6.sol\":796:809  _address.call */\n      0xffffffffffffffffffffffffffffffffffffffff\n      and\n        /* \"chapter2/Ex2_6.sol\":871:876  _num1 */\n      dup6\n        /* \"chapter2/Ex2_6.sol\":878:883  _num2 */\n      dup6\n        /* \"chapter2/Ex2_6.sol\":823:884  abi.encodeWithSignature(\"mul(uint256,uint256)\", _num1, _num2) */\n      add(0x24, mload(0x40))\n      tag_11\n      swap3\n      swap2\n      swap1\n      tag_12\n      jump\t// in\n    tag_11:\n      mload(0x40)\n      0x20\n      dup2\n      dup4\n      sub\n      sub\n      dup2\n      mstore\n      swap1\n      0x40\n      mstore\n      and(not(0xffffffffffffffffffffffffffffffffffffffffffffffffffffffff), 0xc8a4ac9c00000000000000000000000000000000000000000000000000000000)\n      0x20\n      dup3\n      add\n      dup1\n      mload\n      0xffffffffffffffffffffffffffffffffffffffffffffffffffffffff\n      dup4\n      dup2\n      dup4\n      and\n      or\n      dup4\n      mstore\n      pop\n      pop\n      pop\n      pop\n        /* \"chapter2/Ex2_6.sol\":796:894  _address.call(... */\n      mload(0x40)\n      tag_13\n      swap2\n      swap1\n      tag_14\n      jump\t// in\n    tag_13:\n      0x00\n      mload(0x40)\n      dup1\n      dup4\n      sub\n      dup2\n      0x00\n      dup7\n      gas\n      call\n      swap2\n      pop\n      pop\n      returndatasize\n      dup1\n      0x00\n      dup2\n      eq\n      tag_17\n      jumpi\n      mload(0x40)\n      swap2\n      pop\n      and(add(returndatasize, 0x3f), not(0x1f))\n      dup3\n      add\n      0x40\n      mstore\n      returndatasize\n      dup3\n      mstore\n      returndatasize\n      0x00\n      0x20\n      dup5\n      add\n      returndatacopy\n      jump(tag_16)\n    tag_17:\n      0x60\n      swap2\n      pop\n    tag_16:\n      pop\n        /* \"chapter2/Ex2_6.sol\":758:894  (bool success, bytes memory output) = _address.call(... */\n      swap2\n      pop\n      swap2\n      pop\n        /* \"chapter2/Ex2_6.sol\":913:920  success */\n      dup2\n        /* \"chapter2/Ex2_6.sol\":905:931  require(success, \"Failed\") */\n      tag_18\n      jumpi\n      mload(0x40)\n      0x08c379a000000000000000000000000000000000000000000000000000000000\n      dup2\n      mstore\n      0x04\n      add\n      tag_19\n      swap1\n      tag_20\n      jump\t// in\n    tag_19:\n      mload(0x40)\n      dup1\n      swap2\n      sub\n      swap1\n      revert\n    tag_18:\n        /* \"chapter2/Ex2_6.sol\":948:954  output */\n      dup1\n        /* \"chapter2/Ex2_6.sol\":941:954  return output */\n      swap3\n      pop\n      pop\n      pop\n        /* \"chapter2/Ex2_6.sol\":658:961  function callMath(address _address, uint _num1, uint _num2) public returns(bytes memory) {... */\n      swap4\n      swap3\n      pop\n      pop\n      pop\n      jump\t// out\n        /* \"#utility.yul\":88:205   */\n    tag_22:\n        /* \"#utility.yul\":197:198   */\n      0x00\n        /* \"#utility.yul\":194:195   */\n      dup1\n        /* \"#utility.yul\":187:199   */\n      revert\n        /* \"#utility.yul\":334:460   */\n    tag_24:\n        /* \"#utility.yul\":371:378   */\n      0x00\n        /* \"#utility.yul\":411:453   */\n      0xffffffffffffffffffffffffffffffffffffffff\n        /* \"#utility.yul\":404:409   */\n      dup3\n        /* \"#utility.yul\":400:454   */\n      and\n        /* \"#utility.yul\":389:454   */\n      swap1\n      pop\n        /* \"#utility.yul\":334:460   */\n      swap2\n      swap1\n      pop\n      jump\t// out\n        /* \"#utility.yul\":466:562   */\n    tag_25:\n        /* \"#utility.yul\":503:510   */\n      0x00\n        /* \"#utility.yul\":532:556   */\n      tag_48\n        /* \"#utility.yul\":550:555   */\n      dup3\n        /* \"#utility.yul\":532:556   */\n      tag_24\n      jump\t// in\n    tag_48:\n        /* \"#utility.yul\":521:556   */\n      swap1\n      pop\n        /* \"#utility.yul\":466:562   */\n      swap2\n      swap1\n      pop\n      jump\t// out\n        /* \"#utility.yul\":568:690   */\n    tag_26:\n        /* \"#utility.yul\":641:665   */\n      tag_50\n        /* \"#utility.yul\":659:664   */\n      dup2\n        /* \"#utility.yul\":641:665   */\n      tag_25\n      jump\t// in\n    tag_50:\n        /* \"#utility.yul\":634:639   */\n      dup2\n        /* \"#utility.yul\":631:666   */\n      eq\n        /* \"#utility.yul\":621:684   */\n      tag_51\n      jumpi\n        /* \"#utility.yul\":680:681   */\n      0x00\n        /* \"#utility.yul\":677:678   */\n      dup1\n        /* \"#utility.yul\":670:682   */\n      revert\n        /* \"#utility.yul\":621:684   */\n    tag_51:\n        /* \"#utility.yul\":568:690   */\n      pop\n      jump\t// out\n        /* \"#utility.yul\":696:835   */\n    tag_27:\n        /* \"#utility.yul\":742:747   */\n      0x00\n        /* \"#utility.yul\":780:786   */\n      dup2\n        /* \"#utility.yul\":767:787   */\n      calldataload\n        /* \"#utility.yul\":758:787   */\n      swap1\n      pop\n        /* \"#utility.yul\":796:829   */\n      tag_53\n        /* \"#utility.yul\":823:828   */\n      dup2\n        /* \"#utility.yul\":796:829   */\n      tag_26\n      jump\t// in\n    tag_53:\n        /* \"#utility.yul\":696:835   */\n      swap3\n      swap2\n      pop\n      pop\n      jump\t// out\n        /* \"#utility.yul\":841:918   */\n    tag_28:\n        /* \"#utility.yul\":878:885   */\n      0x00\n        /* \"#utility.yul\":907:912   */\n      dup2\n        /* \"#utility.yul\":896:912   */\n      swap1\n      pop\n        /* \"#utility.yul\":841:918   */\n      swap2\n      swap1\n      pop\n      jump\t// out\n        /* \"#utility.yul\":924:1046   */\n    tag_29:\n        /* \"#utility.yul\":997:1021   */\n      tag_56\n        /* \"#utility.yul\":1015:1020   */\n      dup2\n        /* \"#utility.yul\":997:1021   */\n      tag_28\n      jump\t// in\n    tag_56:\n        /* \"#utility.yul\":990:995   */\n      dup2\n        /* \"#utility.yul\":987:1022   */\n      eq\n        /* \"#utility.yul\":977:1040   */\n      tag_57\n      jumpi\n        /* \"#utility.yul\":1036:1037   */\n      0x00\n        /* \"#utility.yul\":1033:1034   */\n      dup1\n        /* \"#utility.yul\":1026:1038   */\n      revert\n        /* \"#utility.yul\":977:1040   */\n    tag_57:\n        /* \"#utility.yul\":924:1046   */\n      pop\n      jump\t// out\n        /* \"#utility.yul\":1052:1191   */\n    tag_30:\n        /* \"#utility.yul\":1098:1103   */\n      0x00\n        /* \"#utility.yul\":1136:1142   */\n      dup2\n        /* \"#utility.yul\":1123:1143   */\n      calldataload\n        /* \"#utility.yul\":1114:1143   */\n      swap1\n      pop\n        /* \"#utility.yul\":1152:1185   */\n      tag_59\n        /* \"#utility.yul\":1179:1184   */\n      dup2\n        /* \"#utility.yul\":1152:1185   */\n      tag_29\n      jump\t// in\n    tag_59:\n        /* \"#utility.yul\":1052:1191   */\n      swap3\n      swap2\n      pop\n      pop\n      jump\t// out\n        /* \"#utility.yul\":1197:1816   */\n    tag_6:\n        /* \"#utility.yul\":1274:1280   */\n      0x00\n        /* \"#utility.yul\":1282:1288   */\n      dup1\n        /* \"#utility.yul\":1290:1296   */\n      0x00\n        /* \"#utility.yul\":1339:1341   */\n      0x60\n        /* \"#utility.yul\":1327:1336   */\n      dup5\n        /* \"#utility.yul\":1318:1325   */\n      dup7\n        /* \"#utility.yul\":1314:1337   */\n      sub\n        /* \"#utility.yul\":1310:1342   */\n      slt\n        /* \"#utility.yul\":1307:1426   */\n      iszero\n      tag_61\n      jumpi\n        /* \"#utility.yul\":1345:1424   */\n      tag_62\n      tag_22\n      jump\t// in\n    tag_62:\n        /* \"#utility.yul\":1307:1426   */\n    tag_61:\n        /* \"#utility.yul\":1465:1466   */\n      0x00\n        /* \"#utility.yul\":1490:1543   */\n      tag_63\n        /* \"#utility.yul\":1535:1542   */\n      dup7\n        /* \"#utility.yul\":1526:1532   */\n      dup3\n        /* \"#utility.yul\":1515:1524   */\n      dup8\n        /* \"#utility.yul\":1511:1533   */\n      add\n        /* \"#utility.yul\":1490:1543   */\n      tag_27\n      jump\t// in\n    tag_63:\n        /* \"#utility.yul\":1480:1543   */\n      swap4\n      pop\n        /* \"#utility.yul\":1436:1553   */\n      pop\n        /* \"#utility.yul\":1592:1594   */\n      0x20\n        /* \"#utility.yul\":1618:1671   */\n      tag_64\n        /* \"#utility.yul\":1663:1670   */\n      dup7\n        /* \"#utility.yul\":1654:1660   */\n      dup3\n        /* \"#utility.yul\":1643:1652   */\n      dup8\n        /* \"#utility.yul\":1639:1661   */\n      add\n        /* \"#utility.yul\":1618:1671   */\n      tag_30\n      jump\t// in\n    tag_64:\n        /* \"#utility.yul\":1608:1671   */\n      swap3\n      pop\n        /* \"#utility.yul\":1563:1681   */\n      pop\n        /* \"#utility.yul\":1720:1722   */\n      0x40\n        /* \"#utility.yul\":1746:1799   */\n      tag_65\n        /* \"#utility.yul\":1791:1798   */\n      dup7\n        /* \"#utility.yul\":1782:1788   */\n      dup3\n        /* \"#utility.yul\":1771:1780   */\n      dup8\n        /* \"#utility.yul\":1767:1789   */\n      add\n        /* \"#utility.yul\":1746:1799   */\n      tag_30\n      jump\t// in\n    tag_65:\n        /* \"#utility.yul\":1736:1799   */\n      swap2\n      pop\n        /* \"#utility.yul\":1691:1809   */\n      pop\n        /* \"#utility.yul\":1197:1816   */\n      swap3\n      pop\n      swap3\n      pop\n      swap3\n      jump\t// out\n        /* \"#utility.yul\":1822:1920   */\n    tag_31:\n        /* \"#utility.yul\":1873:1879   */\n      0x00\n        /* \"#utility.yul\":1907:1912   */\n      dup2\n        /* \"#utility.yul\":1901:1913   */\n      mload\n        /* \"#utility.yul\":1891:1913   */\n      swap1\n      pop\n        /* \"#utility.yul\":1822:1920   */\n      swap2\n      swap1\n      pop\n      jump\t// out\n        /* \"#utility.yul\":1926:2094   */\n    tag_32:\n        /* \"#utility.yul\":2009:2020   */\n      0x00\n        /* \"#utility.yul\":2043:2049   */\n      dup3\n        /* \"#utility.yul\":2038:2041   */\n      dup3\n        /* \"#utility.yul\":2031:2050   */\n      mstore\n        /* \"#utility.yul\":2083:2087   */\n      0x20\n        /* \"#utility.yul\":2078:2081   */\n      dup3\n        /* \"#utility.yul\":2074:2088   */\n      add\n        /* \"#utility.yul\":2059:2088   */\n      swap1\n      pop\n        /* \"#utility.yul\":1926:2094   */\n      swap3\n      swap2\n      pop\n      pop\n      jump\t// out\n        /* \"#utility.yul\":2100:2346   */\n    tag_33:\n        /* \"#utility.yul\":2181:2182   */\n      0x00\n        /* \"#utility.yul\":2191:2304   */\n    tag_69:\n        /* \"#utility.yul\":2205:2211   */\n      dup4\n        /* \"#utility.yul\":2202:2203   */\n      dup2\n        /* \"#utility.yul\":2199:2212   */\n      lt\n        /* \"#utility.yul\":2191:2304   */\n      iszero\n      tag_71\n      jumpi\n        /* \"#utility.yul\":2290:2291   */\n      dup1\n        /* \"#utility.yul\":2285:2288   */\n      dup3\n        /* \"#utility.yul\":2281:2292   */\n      add\n        /* \"#utility.yul\":2275:2293   */\n      mload\n        /* \"#utility.yul\":2271:2272   */\n      dup2\n        /* \"#utility.yul\":2266:2269   */\n      dup5\n        /* \"#utility.yul\":2262:2273   */\n      add\n        /* \"#utility.yul\":2255:2294   */\n      mstore\n        /* \"#utility.yul\":2227:2229   */\n      0x20\n        /* \"#utility.yul\":2224:2225   */\n      dup2\n        /* \"#utility.yul\":2220:2230   */\n      add\n        /* \"#utility.yul\":2215:2230   */\n      swap1\n      pop\n        /* \"#utility.yul\":2191:2304   */\n      jump(tag_69)\n    tag_71:\n        /* \"#utility.yul\":2338:2339   */\n      0x00\n        /* \"#utility.yul\":2329:2335   */\n      dup5\n        /* \"#utility.yul\":2324:2327   */\n      dup5\n        /* \"#utility.yul\":2320:2336   */\n      add\n        /* \"#utility.yul\":2313:2340   */\n      mstore\n        /* \"#utility.yul\":2162:2346   */\n      pop\n        /* \"#utility.yul\":2100:2346   */\n      pop\n      pop\n      pop\n      jump\t// out\n        /* \"#utility.yul\":2352:2454   */\n    tag_34:\n        /* \"#utility.yul\":2393:2399   */\n      0x00\n        /* \"#utility.yul\":2444:2446   */\n      0x1f\n        /* \"#utility.yul\":2440:2447   */\n      not\n        /* \"#utility.yul\":2435:2437   */\n      0x1f\n        /* \"#utility.yul\":2428:2433   */\n      dup4\n        /* \"#utility.yul\":2424:2438   */\n      add\n        /* \"#utility.yul\":2420:2448   */\n      and\n        /* \"#utility.yul\":2410:2448   */\n      swap1\n      pop\n        /* \"#utility.yul\":2352:2454   */\n      swap2\n      swap1\n      pop\n      jump\t// out\n        /* \"#utility.yul\":2460:2833   */\n    tag_35:\n        /* \"#utility.yul\":2546:2549   */\n      0x00\n        /* \"#utility.yul\":2574:2612   */\n      tag_74\n        /* \"#utility.yul\":2606:2611   */\n      dup3\n        /* \"#utility.yul\":2574:2612   */\n      tag_31\n      jump\t// in\n    tag_74:\n        /* \"#utility.yul\":2628:2698   */\n      tag_75\n        /* \"#utility.yul\":2691:2697   */\n      dup2\n        /* \"#utility.yul\":2686:2689   */\n      dup6\n        /* \"#utility.yul\":2628:2698   */\n      tag_32\n      jump\t// in\n    tag_75:\n        /* \"#utility.yul\":2621:2698   */\n      swap4\n      pop\n        /* \"#utility.yul\":2707:2772   */\n      tag_76\n        /* \"#utility.yul\":2765:2771   */\n      dup2\n        /* \"#utility.yul\":2760:2763   */\n      dup6\n        /* \"#utility.yul\":2753:2757   */\n      0x20\n        /* \"#utility.yul\":2746:2751   */\n      dup7\n        /* \"#utility.yul\":2742:2758   */\n      add\n        /* \"#utility.yul\":2707:2772   */\n      tag_33\n      jump\t// in\n    tag_76:\n        /* \"#utility.yul\":2797:2826   */\n      tag_77\n        /* \"#utility.yul\":2819:2825   */\n      dup2\n        /* \"#utility.yul\":2797:2826   */\n      tag_34\n      jump\t// in\n    tag_77:\n        /* \"#utility.yul\":2792:2795   */\n      dup5\n        /* \"#utility.yul\":2788:2827   */\n      add\n        /* \"#utility.yul\":2781:2827   */\n      swap2\n      pop\n        /* \"#utility.yul\":2550:2833   */\n      pop\n        /* \"#utility.yul\":2460:2833   */\n      swap3\n      swap2\n      pop\n      pop\n      jump\t// out\n        /* \"#utility.yul\":2839:3148   */\n    tag_9:\n        /* \"#utility.yul\":2950:2954   */\n      0x00\n        /* \"#utility.yul\":2988:2990   */\n      0x20\n        /* \"#utility.yul\":2977:2986   */\n      dup3\n        /* \"#utility.yul\":2973:2991   */\n      add\n        /* \"#utility.yul\":2965:2991   */\n      swap1\n      pop\n        /* \"#utility.yul\":3037:3046   */\n      dup2\n        /* \"#utility.yul\":3031:3035   */\n      dup2\n        /* \"#utility.yul\":3027:3047   */\n      sub\n        /* \"#utility.yul\":3023:3024   */\n      0x00\n        /* \"#utility.yul\":3012:3021   */\n      dup4\n        /* \"#utility.yul\":3008:3025   */\n      add\n        /* \"#utility.yul\":3001:3048   */\n      mstore\n        /* \"#utility.yul\":3065:3141   */\n      tag_79\n        /* \"#utility.yul\":3136:3140   */\n      dup2\n        /* \"#utility.yul\":3127:3133   */\n      dup5\n        /* \"#utility.yul\":3065:3141   */\n      tag_35\n      jump\t// in\n    tag_79:\n        /* \"#utility.yul\":3057:3141   */\n      swap1\n      pop\n        /* \"#utility.yul\":2839:3148   */\n      swap3\n      swap2\n      pop\n      pop\n      jump\t// out\n        /* \"#utility.yul\":3154:3272   */\n    tag_36:\n        /* \"#utility.yul\":3241:3265   */\n      tag_81\n        /* \"#utility.yul\":3259:3264   */\n      dup2\n        /* \"#utility.yul\":3241:3265   */\n      tag_28\n      jump\t// in\n    tag_81:\n        /* \"#utility.yul\":3236:3239   */\n      dup3\n        /* \"#utility.yul\":3229:3266   */\n      mstore\n        /* \"#utility.yul\":3154:3272   */\n      pop\n      pop\n      jump\t// out\n        /* \"#utility.yul\":3278:3610   */\n    tag_12:\n        /* \"#utility.yul\":3399:3403   */\n      0x00\n        /* \"#utility.yul\":3437:3439   */\n      0x40\n        /* \"#utility.yul\":3426:3435   */\n      dup3\n        /* \"#utility.yul\":3422:3440   */\n      add\n        /* \"#utility.yul\":3414:3440   */\n      swap1\n      pop\n        /* \"#utility.yul\":3450:3521   */\n      tag_83\n        /* \"#utility.yul\":3518:3519   */\n      0x00\n        /* \"#utility.yul\":3507:3516   */\n      dup4\n        /* \"#utility.yul\":3503:3520   */\n      add\n        /* \"#utility.yul\":3494:3500   */\n      dup6\n        /* \"#utility.yul\":3450:3521   */\n      tag_36\n      jump\t// in\n    tag_83:\n        /* \"#utility.yul\":3531:3603   */\n      tag_84\n        /* \"#utility.yul\":3599:3601   */\n      0x20\n        /* \"#utility.yul\":3588:3597   */\n      dup4\n        /* \"#utility.yul\":3584:3602   */\n      add\n        /* \"#utility.yul\":3575:3581   */\n      dup5\n        /* \"#utility.yul\":3531:3603   */\n      tag_36\n      jump\t// in\n    tag_84:\n        /* \"#utility.yul\":3278:3610   */\n      swap4\n      swap3\n      pop\n      pop\n      pop\n      jump\t// out\n        /* \"#utility.yul\":3616:3763   */\n    tag_37:\n        /* \"#utility.yul\":3717:3728   */\n      0x00\n        /* \"#utility.yul\":3754:3757   */\n      dup2\n        /* \"#utility.yul\":3739:3757   */\n      swap1\n      pop\n        /* \"#utility.yul\":3616:3763   */\n      swap3\n      swap2\n      pop\n      pop\n      jump\t// out\n        /* \"#utility.yul\":3769:4155   */\n    tag_38:\n        /* \"#utility.yul\":3873:3876   */\n      0x00\n        /* \"#utility.yul\":3901:3939   */\n      tag_87\n        /* \"#utility.yul\":3933:3938   */\n      dup3\n        /* \"#utility.yul\":3901:3939   */\n      tag_31\n      jump\t// in\n    tag_87:\n        /* \"#utility.yul\":3955:4043   */\n      tag_88\n        /* \"#utility.yul\":4036:4042   */\n      dup2\n        /* \"#utility.yul\":4031:4034   */\n      dup6\n        /* \"#utility.yul\":3955:4043   */\n      tag_37\n      jump\t// in\n    tag_88:\n        /* \"#utility.yul\":3948:4043   */\n      swap4\n      pop\n        /* \"#utility.yul\":4052:4117   */\n      tag_89\n        /* \"#utility.yul\":4110:4116   */\n      dup2\n        /* \"#utility.yul\":4105:4108   */\n      dup6\n        /* \"#utility.yul\":4098:4102   */\n      0x20\n        /* \"#utility.yul\":4091:4096   */\n      dup7\n        /* \"#utility.yul\":4087:4103   */\n      add\n        /* \"#utility.yul\":4052:4117   */\n      tag_33\n      jump\t// in\n    tag_89:\n        /* \"#utility.yul\":4142:4148   */\n      dup1\n        /* \"#utility.yul\":4137:4140   */\n      dup5\n        /* \"#utility.yul\":4133:4149   */\n      add\n        /* \"#utility.yul\":4126:4149   */\n      swap2\n      pop\n        /* \"#utility.yul\":3877:4155   */\n      pop\n        /* \"#utility.yul\":3769:4155   */\n      swap3\n      swap2\n      pop\n      pop\n      jump\t// out\n        /* \"#utility.yul\":4161:4432   */\n    tag_14:\n        /* \"#utility.yul\":4291:4294   */\n      0x00\n        /* \"#utility.yul\":4313:4406   */\n      tag_91\n        /* \"#utility.yul\":4402:4405   */\n      dup3\n        /* \"#utility.yul\":4393:4399   */\n      dup5\n        /* \"#utility.yul\":4313:4406   */\n      tag_38\n      jump\t// in\n    tag_91:\n        /* \"#utility.yul\":4306:4406   */\n      swap2\n      pop\n        /* \"#utility.yul\":4423:4426   */\n      dup2\n        /* \"#utility.yul\":4416:4426   */\n      swap1\n      pop\n        /* \"#utility.yul\":4161:4432   */\n      swap3\n      swap2\n      pop\n      pop\n      jump\t// out\n        /* \"#utility.yul\":4438:4607   */\n    tag_39:\n        /* \"#utility.yul\":4522:4533   */\n      0x00\n        /* \"#utility.yul\":4556:4562   */\n      dup3\n        /* \"#utility.yul\":4551:4554   */\n      dup3\n        /* \"#utility.yul\":4544:4563   */\n      mstore\n        /* \"#utility.yul\":4596:4600   */\n      0x20\n        /* \"#utility.yul\":4591:4594   */\n      dup3\n        /* \"#utility.yul\":4587:4601   */\n      add\n        /* \"#utility.yul\":4572:4601   */\n      swap1\n      pop\n        /* \"#utility.yul\":4438:4607   */\n      swap3\n      swap2\n      pop\n      pop\n      jump\t// out\n        /* \"#utility.yul\":4613:4769   */\n    tag_40:\n        /* \"#utility.yul\":4753:4761   */\n      0x4661696c65640000000000000000000000000000000000000000000000000000\n        /* \"#utility.yul\":4749:4750   */\n      0x00\n        /* \"#utility.yul\":4741:4747   */\n      dup3\n        /* \"#utility.yul\":4737:4751   */\n      add\n        /* \"#utility.yul\":4730:4762   */\n      mstore\n        /* \"#utility.yul\":4613:4769   */\n      pop\n      jump\t// out\n        /* \"#utility.yul\":4775:5140   */\n    tag_41:\n        /* \"#utility.yul\":4917:4920   */\n      0x00\n        /* \"#utility.yul\":4938:5004   */\n      tag_95\n        /* \"#utility.yul\":5002:5003   */\n      0x06\n        /* \"#utility.yul\":4997:5000   */\n      dup4\n        /* \"#utility.yul\":4938:5004   */\n      tag_39\n      jump\t// in\n    tag_95:\n        /* \"#utility.yul\":4931:5004   */\n      swap2\n      pop\n        /* \"#utility.yul\":5013:5106   */\n      tag_96\n        /* \"#utility.yul\":5102:5105   */\n      dup3\n        /* \"#utility.yul\":5013:5106   */\n      tag_40\n      jump\t// in\n    tag_96:\n        /* \"#utility.yul\":5131:5133   */\n      0x20\n        /* \"#utility.yul\":5126:5129   */\n      dup3\n        /* \"#utility.yul\":5122:5134   */\n      add\n        /* \"#utility.yul\":5115:5134   */\n      swap1\n      pop\n        /* \"#utility.yul\":4775:5140   */\n      swap2\n      swap1\n      pop\n      jump\t// out\n        /* \"#utility.yul\":5146:5565   */\n    tag_20:\n        /* \"#utility.yul\":5312:5316   */\n      0x00\n        /* \"#utility.yul\":5350:5352   */\n      0x20\n        /* \"#utility.yul\":5339:5348   */\n      dup3\n        /* \"#utility.yul\":5335:5353   */\n      add\n        /* \"#utility.yul\":5327:5353   */\n      swap1\n      pop\n        /* \"#utility.yul\":5399:5408   */\n      dup2\n        /* \"#utility.yul\":5393:5397   */\n      dup2\n        /* \"#utility.yul\":5389:5409   */\n      sub\n        /* \"#utility.yul\":5385:5386   */\n      0x00\n        /* \"#utility.yul\":5374:5383   */\n      dup4\n        /* \"#utility.yul\":5370:5387   */\n      add\n        /* \"#utility.yul\":5363:5410   */\n      mstore\n        /* \"#utility.yul\":5427:5558   */\n      tag_98\n        /* \"#utility.yul\":5553:5557   */\n      dup2\n        /* \"#utility.yul\":5427:5558   */\n      tag_41\n      jump\t// in\n    tag_98:\n        /* \"#utility.yul\":5419:5558   */\n      swap1\n      pop\n        /* \"#utility.yul\":5146:5565   */\n      swap2\n      swap1\n      pop\n      jump\t// out\n\n    auxdata: 0xa26469706673582212205afa01e385c61eff81a9816370306c60fa1b4ebd091d4250063a4cfc92922eff64736f6c63430008110033\n}\n",
				"bytecode": {
					"linkReferences": {},
					"object": "608060405234801561001057600080fd5b50610488806100206000396000f3fe608060405234801561001057600080fd5b506004361061002b5760003560e01c8063dcfcafee14610030575b600080fd5b61004a60048036038101906100459190610245565b610060565b6040516100579190610328565b60405180910390f35b60606000808573ffffffffffffffffffffffffffffffffffffffff16858560405160240161008f929190610359565b6040516020818303038152906040527fc8a4ac9c000000000000000000000000000000000000000000000000000000007bffffffffffffffffffffffffffffffffffffffffffffffffffffffff19166020820180517bffffffffffffffffffffffffffffffffffffffffffffffffffffffff838183161783525050505060405161011991906103be565b6000604051808303816000865af19150503d8060008114610156576040519150601f19603f3d011682016040523d82523d6000602084013e61015b565b606091505b5091509150816101a0576040517f08c379a000000000000000000000000000000000000000000000000000000000815260040161019790610432565b60405180910390fd5b80925050509392505050565b600080fd5b600073ffffffffffffffffffffffffffffffffffffffff82169050919050565b60006101dc826101b1565b9050919050565b6101ec816101d1565b81146101f757600080fd5b50565b600081359050610209816101e3565b92915050565b6000819050919050565b6102228161020f565b811461022d57600080fd5b50565b60008135905061023f81610219565b92915050565b60008060006060848603121561025e5761025d6101ac565b5b600061026c868287016101fa565b935050602061027d86828701610230565b925050604061028e86828701610230565b9150509250925092565b600081519050919050565b600082825260208201905092915050565b60005b838110156102d25780820151818401526020810190506102b7565b60008484015250505050565b6000601f19601f8301169050919050565b60006102fa82610298565b61030481856102a3565b93506103148185602086016102b4565b61031d816102de565b840191505092915050565b6000602082019050818103600083015261034281846102ef565b905092915050565b6103538161020f565b82525050565b600060408201905061036e600083018561034a565b61037b602083018461034a565b9392505050565b600081905092915050565b600061039882610298565b6103a28185610382565b93506103b28185602086016102b4565b80840191505092915050565b60006103ca828461038d565b915081905092915050565b600082825260208201905092915050565b7f4661696c65640000000000000000000000000000000000000000000000000000600082015250565b600061041c6006836103d5565b9150610427826103e6565b602082019050919050565b6000602082019050818103600083015261044b8161040f565b905091905056fea26469706673582212205afa01e385c61eff81a9816370306c60fa1b4ebd091d4250063a4cfc92922eff64736f6c63430008110033",
					"opcodes": "PUSH1 0x80 PUSH1 0x40 MSTORE CALLVALUE DUP1 ISZERO PUSH2 0x10 JUMPI PUSH1 0x0 DUP1 REVERT JUMPDEST POP PUSH2 0x488 DUP1 PUSH2 0x20 PUSH1 0x0 CODECOPY PUSH1 0x0 RETURN INVALID PUSH1 0x80 PUSH1 0x40 MSTORE CALLVALUE DUP1 ISZERO PUSH2 0x10 JUMPI PUSH1 0x0 DUP1 REVERT JUMPDEST POP PUSH1 0x4 CALLDATASIZE LT PUSH2 0x2B JUMPI PUSH1 0x0 CALLDATALOAD PUSH1 0xE0 SHR DUP1 PUSH4 0xDCFCAFEE EQ PUSH2 0x30 JUMPI JUMPDEST PUSH1 0x0 DUP1 REVERT JUMPDEST PUSH2 0x4A PUSH1 0x4 DUP1 CALLDATASIZE SUB DUP2 ADD SWAP1 PUSH2 0x45 SWAP2 SWAP1 PUSH2 0x245 JUMP JUMPDEST PUSH2 0x60 JUMP JUMPDEST PUSH1 0x40 MLOAD PUSH2 0x57 SWAP2 SWAP1 PUSH2 0x328 JUMP JUMPDEST PUSH1 0x40 MLOAD DUP1 SWAP2 SUB SWAP1 RETURN JUMPDEST PUSH1 0x60 PUSH1 0x0 DUP1 DUP6 PUSH20 0xFFFFFFFFFFFFFFFFFFFFFFFFFFFFFFFFFFFFFFFF AND DUP6 DUP6 PUSH1 0x40 MLOAD PUSH1 0x24 ADD PUSH2 0x8F SWAP3 SWAP2 SWAP1 PUSH2 0x359 JUMP JUMPDEST PUSH1 0x40 MLOAD PUSH1 0x20 DUP2 DUP4 SUB SUB DUP2 MSTORE SWAP1 PUSH1 0x40 MSTORE PUSH32 0xC8A4AC9C00000000000000000000000000000000000000000000000000000000 PUSH28 0xFFFFFFFFFFFFFFFFFFFFFFFFFFFFFFFFFFFFFFFFFFFFFFFFFFFFFFFF NOT AND PUSH1 0x20 DUP3 ADD DUP1 MLOAD PUSH28 0xFFFFFFFFFFFFFFFFFFFFFFFFFFFFFFFFFFFFFFFFFFFFFFFFFFFFFFFF DUP4 DUP2 DUP4 AND OR DUP4 MSTORE POP POP POP POP PUSH1 0x40 MLOAD PUSH2 0x119 SWAP2 SWAP1 PUSH2 0x3BE JUMP JUMPDEST PUSH1 0x0 PUSH1 0x40 MLOAD DUP1 DUP4 SUB DUP2 PUSH1 0x0 DUP7 GAS CALL SWAP2 POP POP RETURNDATASIZE DUP1 PUSH1 0x0 DUP2 EQ PUSH2 0x156 JUMPI PUSH1 0x40 MLOAD SWAP2 POP PUSH1 0x1F NOT PUSH1 0x3F RETURNDATASIZE ADD AND DUP3 ADD PUSH1 0x40 MSTORE RETURNDATASIZE DUP3 MSTORE RETURNDATASIZE PUSH1 0x0 PUSH1 0x20 DUP5 ADD RETURNDATACOPY PUSH2 0x15B JUMP JUMPDEST PUSH1 0x60 SWAP2 POP JUMPDEST POP SWAP2 POP SWAP2 POP DUP2 PUSH2 0x1A0 JUMPI PUSH1 0x40 MLOAD PUSH32 0x8C379A000000000000000000000000000000000000000000000000000000000 DUP2 MSTORE PUSH1 0x4 ADD PUSH2 0x197 SWAP1 PUSH2 0x432 JUMP JUMPDEST PUSH1 0x40 MLOAD DUP1 SWAP2 SUB SWAP1 REVERT JUMPDEST DUP1 SWAP3 POP POP POP SWAP4 SWAP3 POP POP POP JUMP JUMPDEST PUSH1 0x0 DUP1 REVERT JUMPDEST PUSH1 0x0 PUSH20 0xFFFFFFFFFFFFFFFFFFFFFFFFFFFFFFFFFFFFFFFF DUP3 AND SWAP1 POP SWAP2 SWAP1 POP JUMP JUMPDEST PUSH1 0x0 PUSH2 0x1DC DUP3 PUSH2 0x1B1 JUMP JUMPDEST SWAP1 POP SWAP2 SWAP1 POP JUMP JUMPDEST PUSH2 0x1EC DUP2 PUSH2 0x1D1 JUMP JUMPDEST DUP2 EQ PUSH2 0x1F7 JUMPI PUSH1 0x0 DUP1 REVERT JUMPDEST POP JUMP JUMPDEST PUSH1 0x0 DUP2 CALLDATALOAD SWAP1 POP PUSH2 0x209 DUP2 PUSH2 0x1E3 JUMP JUMPDEST SWAP3 SWAP2 POP POP JUMP JUMPDEST PUSH1 0x0 DUP2 SWAP1 POP SWAP2 SWAP1 POP JUMP JUMPDEST PUSH2 0x222 DUP2 PUSH2 0x20F JUMP JUMPDEST DUP2 EQ PUSH2 0x22D JUMPI PUSH1 0x0 DUP1 REVERT JUMPDEST POP JUMP JUMPDEST PUSH1 0x0 DUP2 CALLDATALOAD SWAP1 POP PUSH2 0x23F DUP2 PUSH2 0x219 JUMP JUMPDEST SWAP3 SWAP2 POP POP JUMP JUMPDEST PUSH1 0x0 DUP1 PUSH1 0x0 PUSH1 0x60 DUP5 DUP7 SUB SLT ISZERO PUSH2 0x25E JUMPI PUSH2 0x25D PUSH2 0x1AC JUMP JUMPDEST JUMPDEST PUSH1 0x0 PUSH2 0x26C DUP7 DUP3 DUP8 ADD PUSH2 0x1FA JUMP JUMPDEST SWAP4 POP POP PUSH1 0x20 PUSH2 0x27D DUP7 DUP3 DUP8 ADD PUSH2 0x230 JUMP JUMPDEST SWAP3 POP POP PUSH1 0x40 PUSH2 0x28E DUP7 DUP3 DUP8 ADD PUSH2 0x230 JUMP JUMPDEST SWAP2 POP POP SWAP3 POP SWAP3 POP SWAP3 JUMP JUMPDEST PUSH1 0x0 DUP2 MLOAD SWAP1 POP SWAP2 SWAP1 POP JUMP JUMPDEST PUSH1 0x0 DUP3 DUP3 MSTORE PUSH1 0x20 DUP3 ADD SWAP1 POP SWAP3 SWAP2 POP POP JUMP JUMPDEST PUSH1 0x0 JUMPDEST DUP4 DUP2 LT ISZERO PUSH2 0x2D2 JUMPI DUP1 DUP3 ADD MLOAD DUP2 DUP5 ADD MSTORE PUSH1 0x20 DUP2 ADD SWAP1 POP PUSH2 0x2B7 JUMP JUMPDEST PUSH1 0x0 DUP5 DUP5 ADD MSTORE POP POP POP POP JUMP JUMPDEST PUSH1 0x0 PUSH1 0x1F NOT PUSH1 0x1F DUP4 ADD AND SWAP1 POP SWAP2 SWAP1 POP JUMP JUMPDEST PUSH1 0x0 PUSH2 0x2FA DUP3 PUSH2 0x298 JUMP JUMPDEST PUSH2 0x304 DUP2 DUP6 PUSH2 0x2A3 JUMP JUMPDEST SWAP4 POP PUSH2 0x314 DUP2 DUP6 PUSH1 0x20 DUP7 ADD PUSH2 0x2B4 JUMP JUMPDEST PUSH2 0x31D DUP2 PUSH2 0x2DE JUMP JUMPDEST DUP5 ADD SWAP2 POP POP SWAP3 SWAP2 POP POP JUMP JUMPDEST PUSH1 0x0 PUSH1 0x20 DUP3 ADD SWAP1 POP DUP2 DUP2 SUB PUSH1 0x0 DUP4 ADD MSTORE PUSH2 0x342 DUP2 DUP5 PUSH2 0x2EF JUMP JUMPDEST SWAP1 POP SWAP3 SWAP2 POP POP JUMP JUMPDEST PUSH2 0x353 DUP2 PUSH2 0x20F JUMP JUMPDEST DUP3 MSTORE POP POP JUMP JUMPDEST PUSH1 0x0 PUSH1 0x40 DUP3 ADD SWAP1 POP PUSH2 0x36E PUSH1 0x0 DUP4 ADD DUP6 PUSH2 0x34A JUMP JUMPDEST PUSH2 0x37B PUSH1 0x20 DUP4 ADD DUP5 PUSH2 0x34A JUMP JUMPDEST SWAP4 SWAP3 POP POP POP JUMP JUMPDEST PUSH1 0x0 DUP2 SWAP1 POP SWAP3 SWAP2 POP POP JUMP JUMPDEST PUSH1 0x0 PUSH2 0x398 DUP3 PUSH2 0x298 JUMP JUMPDEST PUSH2 0x3A2 DUP2 DUP6 PUSH2 0x382 JUMP JUMPDEST SWAP4 POP PUSH2 0x3B2 DUP2 DUP6 PUSH1 0x20 DUP7 ADD PUSH2 0x2B4 JUMP JUMPDEST DUP1 DUP5 ADD SWAP2 POP POP SWAP3 SWAP2 POP POP JUMP JUMPDEST PUSH1 0x0 PUSH2 0x3CA DUP3 DUP5 PUSH2 0x38D JUMP JUMPDEST SWAP2 POP DUP2 SWAP1 POP SWAP3 SWAP2 POP POP JUMP JUMPDEST PUSH1 0x0 DUP3 DUP3 MSTORE PUSH1 0x20 DUP3 ADD SWAP1 POP SWAP3 SWAP2 POP POP JUMP JUMPDEST PUSH32 0x4661696C65640000000000000000000000000000000000000000000000000000 PUSH1 0x0 DUP3 ADD MSTORE POP JUMP JUMPDEST PUSH1 0x0 PUSH2 0x41C PUSH1 0x6 DUP4 PUSH2 0x3D5 JUMP JUMPDEST SWAP2 POP PUSH2 0x427 DUP3 PUSH2 0x3E6 JUMP JUMPDEST PUSH1 0x20 DUP3 ADD SWAP1 POP SWAP2 SWAP1 POP JUMP JUMPDEST PUSH1 0x0 PUSH1 0x20 DUP3 ADD SWAP1 POP DUP2 DUP2 SUB PUSH1 0x0 DUP4 ADD MSTORE PUSH2 0x44B DUP2 PUSH2 0x40F JUMP JUMPDEST SWAP1 POP SWAP2 SWAP1 POP JUMP INVALID LOG2 PUSH5 0x6970667358 0x22 SLT KECCAK256 GAS STATICCALL ADD 0xE3 DUP6 0xC6 0x1E SELFDESTRUCT DUP2 0xA9 DUP2 PUSH4 0x70306C60 STATICCALL SHL 0x4E 0xBD MULMOD SAR TIMESTAMP POP MOD GASPRICE 0x4C 0xFC SWAP3 SWAP3 0x2E SELFDESTRUCT PUSH5 0x736F6C6343 STOP ADDMOD GT STOP CALLER "
				},
				"gasEstimates": {
					"creation": {
						"codeDepositCost": "232000",
						"executionCost": "275",
						"totalCost": "232275"
					},
					"external": {
						"callMath(address,uint256,uint256)": "infinite"
					}
				},
				"methodIdentifiers": {
					"callMath(address,uint256,uint256)": "dcfcafee"
				}
			},
			"storageLayout": {
				"storage": [],
				"types": null
			},
			"userdoc": {
				"kind": "user",
				"methods": {},
				"version": 1
			}
		}
	}
}