{
	"chapter2/Ex2_10.sol": {
		"Ex2_10": {
			"abi": [
				{
					"inputs": [],
					"name": "left",
					"outputs": [
						{
							"internalType": "bytes1",
							"name": "",
							"type": "bytes1"
						}
					],
					"stateMutability": "view",
					"type": "function"
				},
				{
					"inputs": [],
					"name": "right",
					"outputs": [
						{
							"internalType": "bytes1",
							"name": "",
							"type": "bytes1"
						}
					],
					"stateMutability": "view",
					"type": "function"
				}
			],
			"devdoc": {
				"kind": "dev",
				"methods": {},
				"version": 1
			},
			"evm": {
				"assembly": "    /* \"chapter2/Ex2_10.sol\":70:288  contract Ex2_10 {... */\n  mstore(0x40, 0x80)\n    /* \"chapter2/Ex2_10.sol\":103:107  0x01 */\n  0x01\n    /* \"chapter2/Ex2_10.sol\":92:107  bytes1 a = 0x01 */\n  0xf8\n  shl\n  0x00\n  dup1\n  0x0100\n  exp\n  dup2\n  sload\n  dup2\n  0xff\n  mul\n  not\n  and\n  swap1\n  dup4\n  0xf8\n  shr\n  mul\n  or\n  swap1\n  sstore\n  pop\n    /* \"chapter2/Ex2_10.sol\":124:128  0x03 */\n  0x03\n    /* \"chapter2/Ex2_10.sol\":113:128  bytes1 b = 0x03 */\n  0xf8\n  shl\n  0x00\n  exp(0x0100, 0x01)\n  dup2\n  sload\n  dup2\n  0xff\n  mul\n  not\n  and\n  swap1\n  dup4\n  0xf8\n  shr\n  mul\n  or\n  swap1\n  sstore\n  pop\n    /* \"chapter2/Ex2_10.sol\":70:288  contract Ex2_10 {... */\n  callvalue\n  dup1\n  iszero\n  tag_1\n  jumpi\n  0x00\n  dup1\n  revert\ntag_1:\n  pop\n  dataSize(sub_0)\n  dup1\n  dataOffset(sub_0)\n  0x00\n  codecopy\n  0x00\n  return\nstop\n\nsub_0: assembly {\n        /* \"chapter2/Ex2_10.sol\":70:288  contract Ex2_10 {... */\n      mstore(0x40, 0x80)\n      callvalue\n      dup1\n      iszero\n      tag_1\n      jumpi\n      0x00\n      dup1\n      revert\n    tag_1:\n      pop\n      jumpi(tag_2, lt(calldatasize, 0x04))\n      shr(0xe0, calldataload(0x00))\n      dup1\n      0x16e64048\n      eq\n      tag_3\n      jumpi\n      dup1\n      0x1f2a63c0\n      eq\n      tag_4\n      jumpi\n    tag_2:\n      0x00\n      dup1\n      revert\n        /* \"chapter2/Ex2_10.sol\":135:207  function left() public view returns(bytes1) {... */\n    tag_3:\n      tag_5\n      tag_6\n      jump\t// in\n    tag_5:\n      mload(0x40)\n      tag_7\n      swap2\n      swap1\n      tag_8\n      jump\t// in\n    tag_7:\n      mload(0x40)\n      dup1\n      swap2\n      sub\n      swap1\n      return\n        /* \"chapter2/Ex2_10.sol\":213:286  function right() public view returns(bytes1) {... */\n    tag_4:\n      tag_9\n      tag_10\n      jump\t// in\n    tag_9:\n      mload(0x40)\n      tag_11\n      swap2\n      swap1\n      tag_8\n      jump\t// in\n    tag_11:\n      mload(0x40)\n      dup1\n      swap2\n      sub\n      swap1\n      return\n        /* \"chapter2/Ex2_10.sol\":135:207  function left() public view returns(bytes1) {... */\n    tag_6:\n        /* \"chapter2/Ex2_10.sol\":171:177  bytes1 */\n      0x00\n        /* \"chapter2/Ex2_10.sol\":199:200  1 */\n      0x01\n        /* \"chapter2/Ex2_10.sol\":196:197  a */\n      0x00\n      dup1\n      sload\n      swap1\n      0x0100\n      exp\n      swap1\n      div\n      0xf8\n      shl\n        /* \"chapter2/Ex2_10.sol\":196:200  a<<1 */\n      not(0xffffffffffffffffffffffffffffffffffffffffffffffffffffffffffffff)\n      and\n      swap1\n      shl\n        /* \"chapter2/Ex2_10.sol\":189:200  return a<<1 */\n      swap1\n      pop\n        /* \"chapter2/Ex2_10.sol\":135:207  function left() public view returns(bytes1) {... */\n      swap1\n      jump\t// out\n        /* \"chapter2/Ex2_10.sol\":213:286  function right() public view returns(bytes1) {... */\n    tag_10:\n        /* \"chapter2/Ex2_10.sol\":250:256  bytes1 */\n      0x00\n        /* \"chapter2/Ex2_10.sol\":278:279  1 */\n      0x01\n        /* \"chapter2/Ex2_10.sol\":275:276  a */\n      0x00\n      dup1\n      sload\n      swap1\n      0x0100\n      exp\n      swap1\n      div\n      0xf8\n      shl\n        /* \"chapter2/Ex2_10.sol\":275:279  a>>1 */\n      not(0xffffffffffffffffffffffffffffffffffffffffffffffffffffffffffffff)\n      and\n      swap1\n      shr\n        /* \"chapter2/Ex2_10.sol\":268:279  return a>>1 */\n      swap1\n      pop\n        /* \"chapter2/Ex2_10.sol\":213:286  function right() public view returns(bytes1) {... */\n      swap1\n      jump\t// out\n        /* \"#utility.yul\":7:122   */\n    tag_15:\n        /* \"#utility.yul\":92:115   */\n      tag_17\n        /* \"#utility.yul\":109:114   */\n      dup2\n        /* \"#utility.yul\":92:115   */\n      tag_18\n      jump\t// in\n    tag_17:\n        /* \"#utility.yul\":87:90   */\n      dup3\n        /* \"#utility.yul\":80:116   */\n      mstore\n        /* \"#utility.yul\":7:122   */\n      pop\n      pop\n      jump\t// out\n        /* \"#utility.yul\":128:346   */\n    tag_8:\n        /* \"#utility.yul\":219:223   */\n      0x00\n        /* \"#utility.yul\":257:259   */\n      0x20\n        /* \"#utility.yul\":246:255   */\n      dup3\n        /* \"#utility.yul\":242:260   */\n      add\n        /* \"#utility.yul\":234:260   */\n      swap1\n      pop\n        /* \"#utility.yul\":270:339   */\n      tag_20\n        /* \"#utility.yul\":336:337   */\n      0x00\n        /* \"#utility.yul\":325:334   */\n      dup4\n        /* \"#utility.yul\":321:338   */\n      add\n        /* \"#utility.yul\":312:318   */\n      dup5\n        /* \"#utility.yul\":270:339   */\n      tag_15\n      jump\t// in\n    tag_20:\n        /* \"#utility.yul\":128:346   */\n      swap3\n      swap2\n      pop\n      pop\n      jump\t// out\n        /* \"#utility.yul\":352:501   */\n    tag_18:\n        /* \"#utility.yul\":388:395   */\n      0x00\n        /* \"#utility.yul\":428:494   */\n      0xff00000000000000000000000000000000000000000000000000000000000000\n        /* \"#utility.yul\":421:426   */\n      dup3\n        /* \"#utility.yul\":417:495   */\n      and\n        /* \"#utility.yul\":406:495   */\n      swap1\n      pop\n        /* \"#utility.yul\":352:501   */\n      swap2\n      swap1\n      pop\n      jump\t// out\n\n    auxdata: 0xa26469706673582212206eb5d69c8ff3657aa95f8ce0717a7a2ec813b4a3bcab096c03444ce547cfcf2964736f6c63430008070033\n}\n",
				"bytecode": {
					"linkReferences": {},
					"object": "6080604052600160f81b6000806101000a81548160ff021916908360f81c0217905550600360f81b600060016101000a81548160ff021916908360f81c021790555034801561004d57600080fd5b506101798061005d6000396000f3fe608060405234801561001057600080fd5b50600436106100365760003560e01c806316e640481461003b5780631f2a63c014610059575b600080fd5b610043610077565b60405161005091906100fc565b60405180910390f35b6100616100b2565b60405161006e91906100fc565b60405180910390f35b6000600160008054906101000a900460f81b7effffffffffffffffffffffffffffffffffffffffffffffffffffffffffffff1916901b905090565b6000600160008054906101000a900460f81b7effffffffffffffffffffffffffffffffffffffffffffffffffffffffffffff1916901c905090565b6100f681610117565b82525050565b600060208201905061011160008301846100ed565b92915050565b60007fff000000000000000000000000000000000000000000000000000000000000008216905091905056fea26469706673582212206eb5d69c8ff3657aa95f8ce0717a7a2ec813b4a3bcab096c03444ce547cfcf2964736f6c63430008070033",
					"opcodes": "PUSH1 0x80 PUSH1 0x40 MSTORE PUSH1 0x1 PUSH1 0xF8 SHL PUSH1 0x0 DUP1 PUSH2 0x100 EXP DUP2 SLOAD DUP2 PUSH1 0xFF MUL NOT AND SWAP1 DUP4 PUSH1 0xF8 SHR MUL OR SWAP1 SSTORE POP PUSH1 0x3 PUSH1 0xF8 SHL PUSH1 0x0 PUSH1 0x1 PUSH2 0x100 EXP DUP2 SLOAD DUP2 PUSH1 0xFF MUL NOT AND SWAP1 DUP4 PUSH1 0xF8 SHR MUL OR SWAP1 SSTORE POP CALLVALUE DUP1 ISZERO PUSH2 0x4D JUMPI PUSH1 0x0 DUP1 REVERT JUMPDEST POP PUSH2 0x179 DUP1 PUSH2 0x5D PUSH1 0x0 CODECOPY PUSH1 0x0 RETURN INVALID PUSH1 0x80 PUSH1 0x40 MSTORE CALLVALUE DUP1 ISZERO PUSH2 0x10 JUMPI PUSH1 0x0 DUP1 REVERT JUMPDEST POP PUSH1 0x4 CALLDATASIZE LT PUSH2 0x36 JUMPI PUSH1 0x0 CALLDATALOAD PUSH1 0xE0 SHR DUP1 PUSH4 0x16E64048 EQ PUSH2 0x3B JUMPI DUP1 PUSH4 0x1F2A63C0 EQ PUSH2 0x59 JUMPI JUMPDEST PUSH1 0x0 DUP1 REVERT JUMPDEST PUSH2 0x43 PUSH2 0x77 JUMP JUMPDEST PUSH1 0x40 MLOAD PUSH2 0x50 SWAP2 SWAP1 PUSH2 0xFC JUMP JUMPDEST PUSH1 0x40 MLOAD DUP1 SWAP2 SUB SWAP1 RETURN JUMPDEST PUSH2 0x61 PUSH2 0xB2 JUMP JUMPDEST PUSH1 0x40 MLOAD PUSH2 0x6E SWAP2 SWAP1 PUSH2 0xFC JUMP JUMPDEST PUSH1 0x40 MLOAD DUP1 SWAP2 SUB SWAP1 RETURN JUMPDEST PUSH1 0x0 PUSH1 0x1 PUSH1 0x0 DUP1 SLOAD SWAP1 PUSH2 0x100 EXP SWAP1 DIV PUSH1 0xF8 SHL PUSH31 0xFFFFFFFFFFFFFFFFFFFFFFFFFFFFFFFFFFFFFFFFFFFFFFFFFFFFFFFFFFFFFF NOT AND SWAP1 SHL SWAP1 POP SWAP1 JUMP JUMPDEST PUSH1 0x0 PUSH1 0x1 PUSH1 0x0 DUP1 SLOAD SWAP1 PUSH2 0x100 EXP SWAP1 DIV PUSH1 0xF8 SHL PUSH31 0xFFFFFFFFFFFFFFFFFFFFFFFFFFFFFFFFFFFFFFFFFFFFFFFFFFFFFFFFFFFFFF NOT AND SWAP1 SHR SWAP1 POP SWAP1 JUMP JUMPDEST PUSH2 0xF6 DUP2 PUSH2 0x117 JUMP JUMPDEST DUP3 MSTORE POP POP JUMP JUMPDEST PUSH1 0x0 PUSH1 0x20 DUP3 ADD SWAP1 POP PUSH2 0x111 PUSH1 0x0 DUP4 ADD DUP5 PUSH2 0xED JUMP JUMPDEST SWAP3 SWAP2 POP POP JUMP JUMPDEST PUSH1 0x0 PUSH32 0xFF00000000000000000000000000000000000000000000000000000000000000 DUP3 AND SWAP1 POP SWAP2 SWAP1 POP JUMP INVALID LOG2 PUSH5 0x6970667358 0x22 SLT KECCAK256 PUSH15 0xB5D69C8FF3657AA95F8CE0717A7A2E 0xC8 SGT 0xB4 LOG3 0xBC 0xAB MULMOD PUSH13 0x3444CE547CFCF2964736F6C63 NUMBER STOP ADDMOD SMOD STOP CALLER "
				},
				"gasEstimates": {
					"creation": {
						"codeDepositCost": "75400",
						"executionCost": "48719",
						"totalCost": "124119"
					},
					"external": {
						"left()": "2472",
						"right()": "2494"
					}
				},
				"methodIdentifiers": {
					"left()": "16e64048",
					"right()": "1f2a63c0"
				}
			},
			"storageLayout": {
				"storage": [
					{
						"astId": 4,
						"contract": "chapter2/Ex2_10.sol:Ex2_10",
						"label": "a",
						"offset": 0,
						"slot": "0",
						"type": "t_bytes1"
					},
					{
						"astId": 7,
						"contract": "chapter2/Ex2_10.sol:Ex2_10",
						"label": "b",
						"offset": 1,
						"slot": "0",
						"type": "t_bytes1"
					}
				],
				"types": {
					"t_bytes1": {
						"encoding": "inplace",
						"label": "bytes1",
						"numberOfBytes": "1"
					}
				}
			},
			"userdoc": {
				"kind": "user",
				"methods": {},
				"version": 1
			}
		}
	}
}