{
	"chapter2/Ex2_6.sol": {
		"quiz3": {
			"abi": [
				{
					"inputs": [],
					"name": "lightStatus",
					"outputs": [
						{
							"internalType": "enum quiz3.Switch",
							"name": "",
							"type": "uint8"
						}
					],
					"stateMutability": "view",
					"type": "function"
				},
				{
					"inputs": [],
					"name": "turnOnTheLight",
					"outputs": [],
					"stateMutability": "nonpayable",
					"type": "function"
				}
			],
			"devdoc": {
				"kind": "dev",
				"methods": {},
				"version": 1
			},
			"evm": {
				"assembly": "    /* \"chapter2/Ex2_6.sol\":616:874  contract quiz3 {... */\n  mstore(0x40, 0x80)\n    /* \"chapter2/Ex2_6.sol\":722:735  Switch.TurnOn */\n  0x01\n    /* \"chapter2/Ex2_6.sol\":694:735  Switch public lightStatus = Switch.TurnOn */\n  0x00\n  dup1\n  0x0100\n  exp\n  dup2\n  sload\n  dup2\n  0xff\n  mul\n  not\n  and\n  swap1\n  dup4\n  0x01\n  dup2\n  gt\n  iszero\n  tag_1\n  jumpi\n  tag_2\n  tag_3\n  jump\t// in\ntag_2:\ntag_1:\n  mul\n  or\n  swap1\n  sstore\n  pop\n    /* \"chapter2/Ex2_6.sol\":616:874  contract quiz3 {... */\n  callvalue\n  dup1\n  iszero\n  tag_4\n  jumpi\n  0x00\n  dup1\n  revert\ntag_4:\n  pop\n  jump(tag_5)\n    /* \"#utility.yul\":7:187   */\ntag_3:\n    /* \"#utility.yul\":55:132   */\n  0x4e487b7100000000000000000000000000000000000000000000000000000000\n    /* \"#utility.yul\":52:53   */\n  0x00\n    /* \"#utility.yul\":45:133   */\n  mstore\n    /* \"#utility.yul\":152:156   */\n  0x21\n    /* \"#utility.yul\":149:150   */\n  0x04\n    /* \"#utility.yul\":142:157   */\n  mstore\n    /* \"#utility.yul\":176:180   */\n  0x24\n    /* \"#utility.yul\":173:174   */\n  0x00\n    /* \"#utility.yul\":166:181   */\n  revert\n    /* \"chapter2/Ex2_6.sol\":616:874  contract quiz3 {... */\ntag_5:\n  dataSize(sub_0)\n  dup1\n  dataOffset(sub_0)\n  0x00\n  codecopy\n  0x00\n  return\nstop\n\nsub_0: assembly {\n        /* \"chapter2/Ex2_6.sol\":616:874  contract quiz3 {... */\n      mstore(0x40, 0x80)\n      callvalue\n      dup1\n      iszero\n      tag_1\n      jumpi\n      0x00\n      dup1\n      revert\n    tag_1:\n      pop\n      jumpi(tag_2, lt(calldatasize, 0x04))\n      shr(0xe0, calldataload(0x00))\n      dup1\n      0x1bb4362b\n      eq\n      tag_3\n      jumpi\n      dup1\n      0xdd6fde70\n      eq\n      tag_4\n      jumpi\n    tag_2:\n      0x00\n      dup1\n      revert\n        /* \"chapter2/Ex2_6.sol\":742:872  function turnOnTheLight() public {... */\n    tag_3:\n      tag_5\n      tag_6\n      jump\t// in\n    tag_5:\n      stop\n        /* \"chapter2/Ex2_6.sol\":694:735  Switch public lightStatus = Switch.TurnOn */\n    tag_4:\n      tag_7\n      tag_8\n      jump\t// in\n    tag_7:\n      mload(0x40)\n      tag_9\n      swap2\n      swap1\n      tag_10\n      jump\t// in\n    tag_9:\n      mload(0x40)\n      dup1\n      swap2\n      sub\n      swap1\n      return\n        /* \"chapter2/Ex2_6.sol\":742:872  function turnOnTheLight() public {... */\n    tag_6:\n        /* \"chapter2/Ex2_6.sol\":808:822  Switch.TurnOff */\n      0x00\n        /* \"chapter2/Ex2_6.sol\":793:822  lightStatus == Switch.TurnOff */\n      0x01\n      dup2\n      gt\n      iszero\n      tag_12\n      jumpi\n      tag_13\n      tag_14\n      jump\t// in\n    tag_13:\n    tag_12:\n        /* \"chapter2/Ex2_6.sol\":793:804  lightStatus */\n      0x00\n      dup1\n      sload\n      swap1\n      0x0100\n      exp\n      swap1\n      div\n      0xff\n      and\n        /* \"chapter2/Ex2_6.sol\":793:822  lightStatus == Switch.TurnOff */\n      0x01\n      dup2\n      gt\n      iszero\n      tag_15\n      jumpi\n      tag_16\n      tag_14\n      jump\t// in\n    tag_16:\n    tag_15:\n      eq\n        /* \"chapter2/Ex2_6.sol\":785:827  require(lightStatus == Switch.TurnOff, \"\") */\n      tag_17\n      jumpi\n      mload(0x40)\n      0x08c379a000000000000000000000000000000000000000000000000000000000\n      dup2\n      mstore\n      0x04\n      add\n      tag_18\n      swap1\n      tag_19\n      jump\t// in\n    tag_18:\n      mload(0x40)\n      dup1\n      swap2\n      sub\n      swap1\n      revert\n    tag_17:\n        /* \"chapter2/Ex2_6.sol\":851:865  Switch.TurnOff */\n      0x00\n        /* \"chapter2/Ex2_6.sol\":837:848  lightStatus */\n      dup1\n      0x00\n        /* \"chapter2/Ex2_6.sol\":837:865  lightStatus = Switch.TurnOff */\n      0x0100\n      exp\n      dup2\n      sload\n      dup2\n      0xff\n      mul\n      not\n      and\n      swap1\n      dup4\n      0x01\n      dup2\n      gt\n      iszero\n      tag_20\n      jumpi\n      tag_21\n      tag_14\n      jump\t// in\n    tag_21:\n    tag_20:\n      mul\n      or\n      swap1\n      sstore\n      pop\n        /* \"chapter2/Ex2_6.sol\":742:872  function turnOnTheLight() public {... */\n      jump\t// out\n        /* \"chapter2/Ex2_6.sol\":694:735  Switch public lightStatus = Switch.TurnOn */\n    tag_8:\n      0x00\n      dup1\n      sload\n      swap1\n      0x0100\n      exp\n      swap1\n      div\n      0xff\n      and\n      dup2\n      jump\t// out\n        /* \"#utility.yul\":7:187   */\n    tag_14:\n        /* \"#utility.yul\":55:132   */\n      0x4e487b7100000000000000000000000000000000000000000000000000000000\n        /* \"#utility.yul\":52:53   */\n      0x00\n        /* \"#utility.yul\":45:133   */\n      mstore\n        /* \"#utility.yul\":152:156   */\n      0x21\n        /* \"#utility.yul\":149:150   */\n      0x04\n        /* \"#utility.yul\":142:157   */\n      mstore\n        /* \"#utility.yul\":176:180   */\n      0x24\n        /* \"#utility.yul\":173:174   */\n      0x00\n        /* \"#utility.yul\":166:181   */\n      revert\n        /* \"#utility.yul\":193:307   */\n    tag_22:\n        /* \"#utility.yul\":275:276   */\n      0x02\n        /* \"#utility.yul\":268:273   */\n      dup2\n        /* \"#utility.yul\":265:277   */\n      lt\n        /* \"#utility.yul\":255:301   */\n      tag_32\n      jumpi\n        /* \"#utility.yul\":281:299   */\n      tag_33\n      tag_14\n      jump\t// in\n    tag_33:\n        /* \"#utility.yul\":255:301   */\n    tag_32:\n        /* \"#utility.yul\":193:307   */\n      pop\n      jump\t// out\n        /* \"#utility.yul\":313:442   */\n    tag_23:\n        /* \"#utility.yul\":359:366   */\n      0x00\n        /* \"#utility.yul\":388:393   */\n      dup2\n        /* \"#utility.yul\":377:393   */\n      swap1\n      pop\n        /* \"#utility.yul\":394:436   */\n      tag_35\n        /* \"#utility.yul\":430:435   */\n      dup3\n        /* \"#utility.yul\":394:436   */\n      tag_22\n      jump\t// in\n    tag_35:\n        /* \"#utility.yul\":313:442   */\n      swap2\n      swap1\n      pop\n      jump\t// out\n        /* \"#utility.yul\":448:577   */\n    tag_24:\n        /* \"#utility.yul\":505:514   */\n      0x00\n        /* \"#utility.yul\":538:571   */\n      tag_37\n        /* \"#utility.yul\":565:570   */\n      dup3\n        /* \"#utility.yul\":538:571   */\n      tag_23\n      jump\t// in\n    tag_37:\n        /* \"#utility.yul\":525:571   */\n      swap1\n      pop\n        /* \"#utility.yul\":448:577   */\n      swap2\n      swap1\n      pop\n      jump\t// out\n        /* \"#utility.yul\":583:728   */\n    tag_25:\n        /* \"#utility.yul\":677:721   */\n      tag_39\n        /* \"#utility.yul\":715:720   */\n      dup2\n        /* \"#utility.yul\":677:721   */\n      tag_24\n      jump\t// in\n    tag_39:\n        /* \"#utility.yul\":672:675   */\n      dup3\n        /* \"#utility.yul\":665:722   */\n      mstore\n        /* \"#utility.yul\":583:728   */\n      pop\n      pop\n      jump\t// out\n        /* \"#utility.yul\":734:970   */\n    tag_10:\n        /* \"#utility.yul\":834:838   */\n      0x00\n        /* \"#utility.yul\":872:874   */\n      0x20\n        /* \"#utility.yul\":861:870   */\n      dup3\n        /* \"#utility.yul\":857:875   */\n      add\n        /* \"#utility.yul\":849:875   */\n      swap1\n      pop\n        /* \"#utility.yul\":885:963   */\n      tag_41\n        /* \"#utility.yul\":960:961   */\n      0x00\n        /* \"#utility.yul\":949:958   */\n      dup4\n        /* \"#utility.yul\":945:962   */\n      add\n        /* \"#utility.yul\":936:942   */\n      dup5\n        /* \"#utility.yul\":885:963   */\n      tag_25\n      jump\t// in\n    tag_41:\n        /* \"#utility.yul\":734:970   */\n      swap3\n      swap2\n      pop\n      pop\n      jump\t// out\n        /* \"#utility.yul\":976:1145   */\n    tag_26:\n        /* \"#utility.yul\":1060:1071   */\n      0x00\n        /* \"#utility.yul\":1094:1100   */\n      dup3\n        /* \"#utility.yul\":1089:1092   */\n      dup3\n        /* \"#utility.yul\":1082:1101   */\n      mstore\n        /* \"#utility.yul\":1134:1138   */\n      0x20\n        /* \"#utility.yul\":1129:1132   */\n      dup3\n        /* \"#utility.yul\":1125:1139   */\n      add\n        /* \"#utility.yul\":1110:1139   */\n      swap1\n      pop\n        /* \"#utility.yul\":976:1145   */\n      swap3\n      swap2\n      pop\n      pop\n      jump\t// out\n        /* \"#utility.yul\":1151:1265   */\n    tag_27:\n      pop\n      jump\t// out\n        /* \"#utility.yul\":1271:1635   */\n    tag_28:\n        /* \"#utility.yul\":1413:1416   */\n      0x00\n        /* \"#utility.yul\":1434:1500   */\n      tag_45\n        /* \"#utility.yul\":1498:1499   */\n      0x00\n        /* \"#utility.yul\":1493:1496   */\n      dup4\n        /* \"#utility.yul\":1434:1500   */\n      tag_26\n      jump\t// in\n    tag_45:\n        /* \"#utility.yul\":1427:1500   */\n      swap2\n      pop\n        /* \"#utility.yul\":1509:1602   */\n      tag_46\n        /* \"#utility.yul\":1598:1601   */\n      dup3\n        /* \"#utility.yul\":1509:1602   */\n      tag_27\n      jump\t// in\n    tag_46:\n        /* \"#utility.yul\":1627:1628   */\n      0x00\n        /* \"#utility.yul\":1622:1625   */\n      dup3\n        /* \"#utility.yul\":1618:1629   */\n      add\n        /* \"#utility.yul\":1611:1629   */\n      swap1\n      pop\n        /* \"#utility.yul\":1271:1635   */\n      swap2\n      swap1\n      pop\n      jump\t// out\n        /* \"#utility.yul\":1641:2060   */\n    tag_19:\n        /* \"#utility.yul\":1807:1811   */\n      0x00\n        /* \"#utility.yul\":1845:1847   */\n      0x20\n        /* \"#utility.yul\":1834:1843   */\n      dup3\n        /* \"#utility.yul\":1830:1848   */\n      add\n        /* \"#utility.yul\":1822:1848   */\n      swap1\n      pop\n        /* \"#utility.yul\":1894:1903   */\n      dup2\n        /* \"#utility.yul\":1888:1892   */\n      dup2\n        /* \"#utility.yul\":1884:1904   */\n      sub\n        /* \"#utility.yul\":1880:1881   */\n      0x00\n        /* \"#utility.yul\":1869:1878   */\n      dup4\n        /* \"#utility.yul\":1865:1882   */\n      add\n        /* \"#utility.yul\":1858:1905   */\n      mstore\n        /* \"#utility.yul\":1922:2053   */\n      tag_48\n        /* \"#utility.yul\":2048:2052   */\n      dup2\n        /* \"#utility.yul\":1922:2053   */\n      tag_28\n      jump\t// in\n    tag_48:\n        /* \"#utility.yul\":1914:2053   */\n      swap1\n      pop\n        /* \"#utility.yul\":1641:2060   */\n      swap2\n      swap1\n      pop\n      jump\t// out\n\n    auxdata: 0xa264697066735822122026c67ad45706cf7695c87ae6f52ea1533b50aa07a1c1b8645abf367032111d6a64736f6c63430008110033\n}\n",
				"bytecode": {
					"linkReferences": {},
					"object": "608060405260016000806101000a81548160ff0219169083600181111561002957610028610040565b5b021790555034801561003a57600080fd5b5061006f565b7f4e487b7100000000000000000000000000000000000000000000000000000000600052602160045260246000fd5b6102338061007e6000396000f3fe608060405234801561001057600080fd5b50600436106100365760003560e01c80631bb4362b1461003b578063dd6fde7014610045575b600080fd5b610043610063565b005b61004d610103565b60405161005a919061018b565b60405180910390f35b6000600181111561007757610076610114565b5b60008054906101000a900460ff16600181111561009757610096610114565b5b146100d7576040517f08c379a00000000000000000000000000000000000000000000000000000000081526004016100ce906101dd565b60405180910390fd5b60008060006101000a81548160ff021916908360018111156100fc576100fb610114565b5b0217905550565b60008054906101000a900460ff1681565b7f4e487b7100000000000000000000000000000000000000000000000000000000600052602160045260246000fd5b6002811061015457610153610114565b5b50565b600081905061016582610143565b919050565b600061017582610157565b9050919050565b6101858161016a565b82525050565b60006020820190506101a0600083018461017c565b92915050565b600082825260208201905092915050565b50565b60006101c76000836101a6565b91506101d2826101b7565b600082019050919050565b600060208201905081810360008301526101f6816101ba565b905091905056fea264697066735822122026c67ad45706cf7695c87ae6f52ea1533b50aa07a1c1b8645abf367032111d6a64736f6c63430008110033",
					"opcodes": "PUSH1 0x80 PUSH1 0x40 MSTORE PUSH1 0x1 PUSH1 0x0 DUP1 PUSH2 0x100 EXP DUP2 SLOAD DUP2 PUSH1 0xFF MUL NOT AND SWAP1 DUP4 PUSH1 0x1 DUP2 GT ISZERO PUSH2 0x29 JUMPI PUSH2 0x28 PUSH2 0x40 JUMP JUMPDEST JUMPDEST MUL OR SWAP1 SSTORE POP CALLVALUE DUP1 ISZERO PUSH2 0x3A JUMPI PUSH1 0x0 DUP1 REVERT JUMPDEST POP PUSH2 0x6F JUMP JUMPDEST PUSH32 0x4E487B7100000000000000000000000000000000000000000000000000000000 PUSH1 0x0 MSTORE PUSH1 0x21 PUSH1 0x4 MSTORE PUSH1 0x24 PUSH1 0x0 REVERT JUMPDEST PUSH2 0x233 DUP1 PUSH2 0x7E PUSH1 0x0 CODECOPY PUSH1 0x0 RETURN INVALID PUSH1 0x80 PUSH1 0x40 MSTORE CALLVALUE DUP1 ISZERO PUSH2 0x10 JUMPI PUSH1 0x0 DUP1 REVERT JUMPDEST POP PUSH1 0x4 CALLDATASIZE LT PUSH2 0x36 JUMPI PUSH1 0x0 CALLDATALOAD PUSH1 0xE0 SHR DUP1 PUSH4 0x1BB4362B EQ PUSH2 0x3B JUMPI DUP1 PUSH4 0xDD6FDE70 EQ PUSH2 0x45 JUMPI JUMPDEST PUSH1 0x0 DUP1 REVERT JUMPDEST PUSH2 0x43 PUSH2 0x63 JUMP JUMPDEST STOP JUMPDEST PUSH2 0x4D PUSH2 0x103 JUMP JUMPDEST PUSH1 0x40 MLOAD PUSH2 0x5A SWAP2 SWAP1 PUSH2 0x18B JUMP JUMPDEST PUSH1 0x40 MLOAD DUP1 SWAP2 SUB SWAP1 RETURN JUMPDEST PUSH1 0x0 PUSH1 0x1 DUP2 GT ISZERO PUSH2 0x77 JUMPI PUSH2 0x76 PUSH2 0x114 JUMP JUMPDEST JUMPDEST PUSH1 0x0 DUP1 SLOAD SWAP1 PUSH2 0x100 EXP SWAP1 DIV PUSH1 0xFF AND PUSH1 0x1 DUP2 GT ISZERO PUSH2 0x97 JUMPI PUSH2 0x96 PUSH2 0x114 JUMP JUMPDEST JUMPDEST EQ PUSH2 0xD7 JUMPI PUSH1 0x40 MLOAD PUSH32 0x8C379A000000000000000000000000000000000000000000000000000000000 DUP2 MSTORE PUSH1 0x4 ADD PUSH2 0xCE SWAP1 PUSH2 0x1DD JUMP JUMPDEST PUSH1 0x40 MLOAD DUP1 SWAP2 SUB SWAP1 REVERT JUMPDEST PUSH1 0x0 DUP1 PUSH1 0x0 PUSH2 0x100 EXP DUP2 SLOAD DUP2 PUSH1 0xFF MUL NOT AND SWAP1 DUP4 PUSH1 0x1 DUP2 GT ISZERO PUSH2 0xFC JUMPI PUSH2 0xFB PUSH2 0x114 JUMP JUMPDEST JUMPDEST MUL OR SWAP1 SSTORE POP JUMP JUMPDEST PUSH1 0x0 DUP1 SLOAD SWAP1 PUSH2 0x100 EXP SWAP1 DIV PUSH1 0xFF AND DUP2 JUMP JUMPDEST PUSH32 0x4E487B7100000000000000000000000000000000000000000000000000000000 PUSH1 0x0 MSTORE PUSH1 0x21 PUSH1 0x4 MSTORE PUSH1 0x24 PUSH1 0x0 REVERT JUMPDEST PUSH1 0x2 DUP2 LT PUSH2 0x154 JUMPI PUSH2 0x153 PUSH2 0x114 JUMP JUMPDEST JUMPDEST POP JUMP JUMPDEST PUSH1 0x0 DUP2 SWAP1 POP PUSH2 0x165 DUP3 PUSH2 0x143 JUMP JUMPDEST SWAP2 SWAP1 POP JUMP JUMPDEST PUSH1 0x0 PUSH2 0x175 DUP3 PUSH2 0x157 JUMP JUMPDEST SWAP1 POP SWAP2 SWAP1 POP JUMP JUMPDEST PUSH2 0x185 DUP2 PUSH2 0x16A JUMP JUMPDEST DUP3 MSTORE POP POP JUMP JUMPDEST PUSH1 0x0 PUSH1 0x20 DUP3 ADD SWAP1 POP PUSH2 0x1A0 PUSH1 0x0 DUP4 ADD DUP5 PUSH2 0x17C JUMP JUMPDEST SWAP3 SWAP2 POP POP JUMP JUMPDEST PUSH1 0x0 DUP3 DUP3 MSTORE PUSH1 0x20 DUP3 ADD SWAP1 POP SWAP3 SWAP2 POP POP JUMP JUMPDEST POP JUMP JUMPDEST PUSH1 0x0 PUSH2 0x1C7 PUSH1 0x0 DUP4 PUSH2 0x1A6 JUMP JUMPDEST SWAP2 POP PUSH2 0x1D2 DUP3 PUSH2 0x1B7 JUMP JUMPDEST PUSH1 0x0 DUP3 ADD SWAP1 POP SWAP2 SWAP1 POP JUMP JUMPDEST PUSH1 0x0 PUSH1 0x20 DUP3 ADD SWAP1 POP DUP2 DUP2 SUB PUSH1 0x0 DUP4 ADD MSTORE PUSH2 0x1F6 DUP2 PUSH2 0x1BA JUMP JUMPDEST SWAP1 POP SWAP2 SWAP1 POP JUMP INVALID LOG2 PUSH5 0x6970667358 0x22 SLT KECCAK256 0x26 0xC6 PUSH27 0xD45706CF7695C87AE6F52EA1533B50AA07A1C1B8645ABF36703211 SAR PUSH11 0x64736F6C63430008110033 "
				},
				"gasEstimates": {
					"creation": {
						"codeDepositCost": "112600",
						"executionCost": "24458",
						"totalCost": "137058"
					},
					"external": {
						"lightStatus()": "2557",
						"turnOnTheLight()": "26617"
					}
				},
				"methodIdentifiers": {
					"lightStatus()": "dd6fde70",
					"turnOnTheLight()": "1bb4362b"
				}
			},
			"storageLayout": {
				"storage": [
					{
						"astId": 77,
						"contract": "chapter2/Ex2_6.sol:quiz3",
						"label": "lightStatus",
						"offset": 0,
						"slot": "0",
						"type": "t_enum(Switch)72"
					}
				],
				"types": {
					"t_enum(Switch)72": {
						"encoding": "inplace",
						"label": "enum quiz3.Switch",
						"numberOfBytes": "1"
					}
				}
			},
			"userdoc": {
				"kind": "user",
				"methods": {},
				"version": 1
			}
		}
	}
}