{
	"chapter2/Ex2_6.sol": {
		"quiz2": {
			"abi": [
				{
					"inputs": [
						{
							"internalType": "uint256",
							"name": "_num",
							"type": "uint256"
						}
					],
					"name": "minus10",
					"outputs": [
						{
							"internalType": "uint256",
							"name": "",
							"type": "uint256"
						}
					],
					"stateMutability": "pure",
					"type": "function"
				},
				{
					"inputs": [
						{
							"internalType": "uint256",
							"name": "_num",
							"type": "uint256"
						}
					],
					"name": "plus10",
					"outputs": [
						{
							"internalType": "uint256",
							"name": "",
							"type": "uint256"
						}
					],
					"stateMutability": "pure",
					"type": "function"
				}
			],
			"devdoc": {
				"kind": "dev",
				"methods": {},
				"version": 1
			},
			"evm": {
				"assembly": "    /* \"chapter2/Ex2_6.sol\":308:675  contract quiz2 {... */\n  mstore(0x40, 0x80)\n  callvalue\n  dup1\n  iszero\n  tag_1\n  jumpi\n  0x00\n  dup1\n  revert\ntag_1:\n  pop\n  dataSize(sub_0)\n  dup1\n  dataOffset(sub_0)\n  0x00\n  codecopy\n  0x00\n  return\nstop\n\nsub_0: assembly {\n        /* \"chapter2/Ex2_6.sol\":308:675  contract quiz2 {... */\n      mstore(0x40, 0x80)\n      callvalue\n      dup1\n      iszero\n      tag_1\n      jumpi\n      0x00\n      dup1\n      revert\n    tag_1:\n      pop\n      jumpi(tag_2, lt(calldatasize, 0x04))\n      shr(0xe0, calldataload(0x00))\n      dup1\n      0x1fc42eda\n      eq\n      tag_3\n      jumpi\n      dup1\n      0xd5d79e60\n      eq\n      tag_4\n      jumpi\n    tag_2:\n      0x00\n      dup1\n      revert\n        /* \"chapter2/Ex2_6.sol\":557:671  function plus10(uint _num) public pure returns(uint) {... */\n    tag_3:\n      tag_5\n      0x04\n      dup1\n      calldatasize\n      sub\n      dup2\n      add\n      swap1\n      tag_6\n      swap2\n      swap1\n      tag_7\n      jump\t// in\n    tag_6:\n      tag_8\n      jump\t// in\n    tag_5:\n      mload(0x40)\n      tag_9\n      swap2\n      swap1\n      tag_10\n      jump\t// in\n    tag_9:\n      mload(0x40)\n      dup1\n      swap2\n      sub\n      swap1\n      return\n        /* \"chapter2/Ex2_6.sol\":418:551  function minus10(uint _num) public pure numMoreThan9(_num)returns(uint) {... */\n    tag_4:\n      tag_11\n      0x04\n      dup1\n      calldatasize\n      sub\n      dup2\n      add\n      swap1\n      tag_12\n      swap2\n      swap1\n      tag_7\n      jump\t// in\n    tag_12:\n      tag_13\n      jump\t// in\n    tag_11:\n      mload(0x40)\n      tag_14\n      swap2\n      swap1\n      tag_10\n      jump\t// in\n    tag_14:\n      mload(0x40)\n      dup1\n      swap2\n      sub\n      swap1\n      return\n        /* \"chapter2/Ex2_6.sol\":557:671  function plus10(uint _num) public pure returns(uint) {... */\n    tag_8:\n        /* \"chapter2/Ex2_6.sol\":604:608  uint */\n      0x00\n        /* \"chapter2/Ex2_6.sol\":633:635  10 */\n      0x0a\n        /* \"chapter2/Ex2_6.sol\":628:632  _num */\n      dup3\n        /* \"chapter2/Ex2_6.sol\":628:635  _num>10 */\n      gt\n        /* \"chapter2/Ex2_6.sol\":620:640  require(_num>10, \"\") */\n      tag_16\n      jumpi\n      mload(0x40)\n      0x08c379a000000000000000000000000000000000000000000000000000000000\n      dup2\n      mstore\n      0x04\n      add\n      tag_17\n      swap1\n      tag_18\n      jump\t// in\n    tag_17:\n      mload(0x40)\n      dup1\n      swap2\n      sub\n      swap1\n      revert\n    tag_16:\n        /* \"chapter2/Ex2_6.sol\":662:664  10 */\n      0x0a\n        /* \"chapter2/Ex2_6.sol\":657:661  _num */\n      dup3\n        /* \"chapter2/Ex2_6.sol\":657:664  _num+10 */\n      tag_19\n      swap2\n      swap1\n      tag_20\n      jump\t// in\n    tag_19:\n        /* \"chapter2/Ex2_6.sol\":650:664  return _num+10 */\n      swap1\n      pop\n        /* \"chapter2/Ex2_6.sol\":557:671  function plus10(uint _num) public pure returns(uint) {... */\n      swap2\n      swap1\n      pop\n      jump\t// out\n        /* \"chapter2/Ex2_6.sol\":418:551  function minus10(uint _num) public pure numMoreThan9(_num)returns(uint) {... */\n    tag_13:\n        /* \"chapter2/Ex2_6.sol\":484:488  uint */\n      0x00\n        /* \"chapter2/Ex2_6.sol\":471:475  _num */\n      dup2\n        /* \"chapter2/Ex2_6.sol\":385:387  10 */\n      0x0a\n        /* \"chapter2/Ex2_6.sol\":380:384  _num */\n      dup2\n        /* \"chapter2/Ex2_6.sol\":380:387  _num>10 */\n      gt\n        /* \"chapter2/Ex2_6.sol\":372:392  require(_num>10, \"\") */\n      tag_22\n      jumpi\n      mload(0x40)\n      0x08c379a000000000000000000000000000000000000000000000000000000000\n      dup2\n      mstore\n      0x04\n      add\n      tag_23\n      swap1\n      tag_18\n      jump\t// in\n    tag_23:\n      mload(0x40)\n      dup1\n      swap2\n      sub\n      swap1\n      revert\n    tag_22:\n        /* \"chapter2/Ex2_6.sol\":513:515  10 */\n      0x0a\n        /* \"chapter2/Ex2_6.sol\":508:512  _num */\n      dup4\n        /* \"chapter2/Ex2_6.sol\":508:515  _num>10 */\n      gt\n        /* \"chapter2/Ex2_6.sol\":500:520  require(_num>10, \"\") */\n      tag_25\n      jumpi\n      mload(0x40)\n      0x08c379a000000000000000000000000000000000000000000000000000000000\n      dup2\n      mstore\n      0x04\n      add\n      tag_26\n      swap1\n      tag_18\n      jump\t// in\n    tag_26:\n      mload(0x40)\n      dup1\n      swap2\n      sub\n      swap1\n      revert\n    tag_25:\n        /* \"chapter2/Ex2_6.sol\":542:544  10 */\n      0x0a\n        /* \"chapter2/Ex2_6.sol\":537:541  _num */\n      dup4\n        /* \"chapter2/Ex2_6.sol\":537:544  _num-10 */\n      tag_27\n      swap2\n      swap1\n      tag_28\n      jump\t// in\n    tag_27:\n        /* \"chapter2/Ex2_6.sol\":530:544  return _num-10 */\n      swap2\n      pop\n        /* \"chapter2/Ex2_6.sol\":418:551  function minus10(uint _num) public pure numMoreThan9(_num)returns(uint) {... */\n      pop\n      swap2\n      swap1\n      pop\n      jump\t// out\n        /* \"#utility.yul\":88:205   */\n    tag_30:\n        /* \"#utility.yul\":197:198   */\n      0x00\n        /* \"#utility.yul\":194:195   */\n      dup1\n        /* \"#utility.yul\":187:199   */\n      revert\n        /* \"#utility.yul\":334:411   */\n    tag_32:\n        /* \"#utility.yul\":371:378   */\n      0x00\n        /* \"#utility.yul\":400:405   */\n      dup2\n        /* \"#utility.yul\":389:405   */\n      swap1\n      pop\n        /* \"#utility.yul\":334:411   */\n      swap2\n      swap1\n      pop\n      jump\t// out\n        /* \"#utility.yul\":417:539   */\n    tag_33:\n        /* \"#utility.yul\":490:514   */\n      tag_46\n        /* \"#utility.yul\":508:513   */\n      dup2\n        /* \"#utility.yul\":490:514   */\n      tag_32\n      jump\t// in\n    tag_46:\n        /* \"#utility.yul\":483:488   */\n      dup2\n        /* \"#utility.yul\":480:515   */\n      eq\n        /* \"#utility.yul\":470:533   */\n      tag_47\n      jumpi\n        /* \"#utility.yul\":529:530   */\n      0x00\n        /* \"#utility.yul\":526:527   */\n      dup1\n        /* \"#utility.yul\":519:531   */\n      revert\n        /* \"#utility.yul\":470:533   */\n    tag_47:\n        /* \"#utility.yul\":417:539   */\n      pop\n      jump\t// out\n        /* \"#utility.yul\":545:684   */\n    tag_34:\n        /* \"#utility.yul\":591:596   */\n      0x00\n        /* \"#utility.yul\":629:635   */\n      dup2\n        /* \"#utility.yul\":616:636   */\n      calldataload\n        /* \"#utility.yul\":607:636   */\n      swap1\n      pop\n        /* \"#utility.yul\":645:678   */\n      tag_49\n        /* \"#utility.yul\":672:677   */\n      dup2\n        /* \"#utility.yul\":645:678   */\n      tag_33\n      jump\t// in\n    tag_49:\n        /* \"#utility.yul\":545:684   */\n      swap3\n      swap2\n      pop\n      pop\n      jump\t// out\n        /* \"#utility.yul\":690:1019   */\n    tag_7:\n        /* \"#utility.yul\":749:755   */\n      0x00\n        /* \"#utility.yul\":798:800   */\n      0x20\n        /* \"#utility.yul\":786:795   */\n      dup3\n        /* \"#utility.yul\":777:784   */\n      dup5\n        /* \"#utility.yul\":773:796   */\n      sub\n        /* \"#utility.yul\":769:801   */\n      slt\n        /* \"#utility.yul\":766:885   */\n      iszero\n      tag_51\n      jumpi\n        /* \"#utility.yul\":804:883   */\n      tag_52\n      tag_30\n      jump\t// in\n    tag_52:\n        /* \"#utility.yul\":766:885   */\n    tag_51:\n        /* \"#utility.yul\":924:925   */\n      0x00\n        /* \"#utility.yul\":949:1002   */\n      tag_53\n        /* \"#utility.yul\":994:1001   */\n      dup5\n        /* \"#utility.yul\":985:991   */\n      dup3\n        /* \"#utility.yul\":974:983   */\n      dup6\n        /* \"#utility.yul\":970:992   */\n      add\n        /* \"#utility.yul\":949:1002   */\n      tag_34\n      jump\t// in\n    tag_53:\n        /* \"#utility.yul\":939:1002   */\n      swap2\n      pop\n        /* \"#utility.yul\":895:1012   */\n      pop\n        /* \"#utility.yul\":690:1019   */\n      swap3\n      swap2\n      pop\n      pop\n      jump\t// out\n        /* \"#utility.yul\":1025:1143   */\n    tag_35:\n        /* \"#utility.yul\":1112:1136   */\n      tag_55\n        /* \"#utility.yul\":1130:1135   */\n      dup2\n        /* \"#utility.yul\":1112:1136   */\n      tag_32\n      jump\t// in\n    tag_55:\n        /* \"#utility.yul\":1107:1110   */\n      dup3\n        /* \"#utility.yul\":1100:1137   */\n      mstore\n        /* \"#utility.yul\":1025:1143   */\n      pop\n      pop\n      jump\t// out\n        /* \"#utility.yul\":1149:1371   */\n    tag_10:\n        /* \"#utility.yul\":1242:1246   */\n      0x00\n        /* \"#utility.yul\":1280:1282   */\n      0x20\n        /* \"#utility.yul\":1269:1278   */\n      dup3\n        /* \"#utility.yul\":1265:1283   */\n      add\n        /* \"#utility.yul\":1257:1283   */\n      swap1\n      pop\n        /* \"#utility.yul\":1293:1364   */\n      tag_57\n        /* \"#utility.yul\":1361:1362   */\n      0x00\n        /* \"#utility.yul\":1350:1359   */\n      dup4\n        /* \"#utility.yul\":1346:1363   */\n      add\n        /* \"#utility.yul\":1337:1343   */\n      dup5\n        /* \"#utility.yul\":1293:1364   */\n      tag_35\n      jump\t// in\n    tag_57:\n        /* \"#utility.yul\":1149:1371   */\n      swap3\n      swap2\n      pop\n      pop\n      jump\t// out\n        /* \"#utility.yul\":1377:1546   */\n    tag_36:\n        /* \"#utility.yul\":1461:1472   */\n      0x00\n        /* \"#utility.yul\":1495:1501   */\n      dup3\n        /* \"#utility.yul\":1490:1493   */\n      dup3\n        /* \"#utility.yul\":1483:1502   */\n      mstore\n        /* \"#utility.yul\":1535:1539   */\n      0x20\n        /* \"#utility.yul\":1530:1533   */\n      dup3\n        /* \"#utility.yul\":1526:1540   */\n      add\n        /* \"#utility.yul\":1511:1540   */\n      swap1\n      pop\n        /* \"#utility.yul\":1377:1546   */\n      swap3\n      swap2\n      pop\n      pop\n      jump\t// out\n        /* \"#utility.yul\":1552:1666   */\n    tag_37:\n      pop\n      jump\t// out\n        /* \"#utility.yul\":1672:2036   */\n    tag_38:\n        /* \"#utility.yul\":1814:1817   */\n      0x00\n        /* \"#utility.yul\":1835:1901   */\n      tag_61\n        /* \"#utility.yul\":1899:1900   */\n      0x00\n        /* \"#utility.yul\":1894:1897   */\n      dup4\n        /* \"#utility.yul\":1835:1901   */\n      tag_36\n      jump\t// in\n    tag_61:\n        /* \"#utility.yul\":1828:1901   */\n      swap2\n      pop\n        /* \"#utility.yul\":1910:2003   */\n      tag_62\n        /* \"#utility.yul\":1999:2002   */\n      dup3\n        /* \"#utility.yul\":1910:2003   */\n      tag_37\n      jump\t// in\n    tag_62:\n        /* \"#utility.yul\":2028:2029   */\n      0x00\n        /* \"#utility.yul\":2023:2026   */\n      dup3\n        /* \"#utility.yul\":2019:2030   */\n      add\n        /* \"#utility.yul\":2012:2030   */\n      swap1\n      pop\n        /* \"#utility.yul\":1672:2036   */\n      swap2\n      swap1\n      pop\n      jump\t// out\n        /* \"#utility.yul\":2042:2461   */\n    tag_18:\n        /* \"#utility.yul\":2208:2212   */\n      0x00\n        /* \"#utility.yul\":2246:2248   */\n      0x20\n        /* \"#utility.yul\":2235:2244   */\n      dup3\n        /* \"#utility.yul\":2231:2249   */\n      add\n        /* \"#utility.yul\":2223:2249   */\n      swap1\n      pop\n        /* \"#utility.yul\":2295:2304   */\n      dup2\n        /* \"#utility.yul\":2289:2293   */\n      dup2\n        /* \"#utility.yul\":2285:2305   */\n      sub\n        /* \"#utility.yul\":2281:2282   */\n      0x00\n        /* \"#utility.yul\":2270:2279   */\n      dup4\n        /* \"#utility.yul\":2266:2283   */\n      add\n        /* \"#utility.yul\":2259:2306   */\n      mstore\n        /* \"#utility.yul\":2323:2454   */\n      tag_64\n        /* \"#utility.yul\":2449:2453   */\n      dup2\n        /* \"#utility.yul\":2323:2454   */\n      tag_38\n      jump\t// in\n    tag_64:\n        /* \"#utility.yul\":2315:2454   */\n      swap1\n      pop\n        /* \"#utility.yul\":2042:2461   */\n      swap2\n      swap1\n      pop\n      jump\t// out\n        /* \"#utility.yul\":2467:2647   */\n    tag_39:\n        /* \"#utility.yul\":2515:2592   */\n      0x4e487b7100000000000000000000000000000000000000000000000000000000\n        /* \"#utility.yul\":2512:2513   */\n      0x00\n        /* \"#utility.yul\":2505:2593   */\n      mstore\n        /* \"#utility.yul\":2612:2616   */\n      0x11\n        /* \"#utility.yul\":2609:2610   */\n      0x04\n        /* \"#utility.yul\":2602:2617   */\n      mstore\n        /* \"#utility.yul\":2636:2640   */\n      0x24\n        /* \"#utility.yul\":2633:2634   */\n      0x00\n        /* \"#utility.yul\":2626:2641   */\n      revert\n        /* \"#utility.yul\":2653:2844   */\n    tag_20:\n        /* \"#utility.yul\":2693:2696   */\n      0x00\n        /* \"#utility.yul\":2712:2732   */\n      tag_67\n        /* \"#utility.yul\":2730:2731   */\n      dup3\n        /* \"#utility.yul\":2712:2732   */\n      tag_32\n      jump\t// in\n    tag_67:\n        /* \"#utility.yul\":2707:2732   */\n      swap2\n      pop\n        /* \"#utility.yul\":2746:2766   */\n      tag_68\n        /* \"#utility.yul\":2764:2765   */\n      dup4\n        /* \"#utility.yul\":2746:2766   */\n      tag_32\n      jump\t// in\n    tag_68:\n        /* \"#utility.yul\":2741:2766   */\n      swap3\n      pop\n        /* \"#utility.yul\":2789:2790   */\n      dup3\n        /* \"#utility.yul\":2786:2787   */\n      dup3\n        /* \"#utility.yul\":2782:2791   */\n      add\n        /* \"#utility.yul\":2775:2791   */\n      swap1\n      pop\n        /* \"#utility.yul\":2810:2813   */\n      dup1\n        /* \"#utility.yul\":2807:2808   */\n      dup3\n        /* \"#utility.yul\":2804:2814   */\n      gt\n        /* \"#utility.yul\":2801:2837   */\n      iszero\n      tag_69\n      jumpi\n        /* \"#utility.yul\":2817:2835   */\n      tag_70\n      tag_39\n      jump\t// in\n    tag_70:\n        /* \"#utility.yul\":2801:2837   */\n    tag_69:\n        /* \"#utility.yul\":2653:2844   */\n      swap3\n      swap2\n      pop\n      pop\n      jump\t// out\n        /* \"#utility.yul\":2850:3044   */\n    tag_28:\n        /* \"#utility.yul\":2890:2894   */\n      0x00\n        /* \"#utility.yul\":2910:2930   */\n      tag_72\n        /* \"#utility.yul\":2928:2929   */\n      dup3\n        /* \"#utility.yul\":2910:2930   */\n      tag_32\n      jump\t// in\n    tag_72:\n        /* \"#utility.yul\":2905:2930   */\n      swap2\n      pop\n        /* \"#utility.yul\":2944:2964   */\n      tag_73\n        /* \"#utility.yul\":2962:2963   */\n      dup4\n        /* \"#utility.yul\":2944:2964   */\n      tag_32\n      jump\t// in\n    tag_73:\n        /* \"#utility.yul\":2939:2964   */\n      swap3\n      pop\n        /* \"#utility.yul\":2988:2989   */\n      dup3\n        /* \"#utility.yul\":2985:2986   */\n      dup3\n        /* \"#utility.yul\":2981:2990   */\n      sub\n        /* \"#utility.yul\":2973:2990   */\n      swap1\n      pop\n        /* \"#utility.yul\":3012:3013   */\n      dup2\n        /* \"#utility.yul\":3006:3010   */\n      dup2\n        /* \"#utility.yul\":3003:3014   */\n      gt\n        /* \"#utility.yul\":3000:3037   */\n      iszero\n      tag_74\n      jumpi\n        /* \"#utility.yul\":3017:3035   */\n      tag_75\n      tag_39\n      jump\t// in\n    tag_75:\n        /* \"#utility.yul\":3000:3037   */\n    tag_74:\n        /* \"#utility.yul\":2850:3044   */\n      swap3\n      swap2\n      pop\n      pop\n      jump\t// out\n\n    auxdata: 0xa26469706673582212203c8b97103a576a8d6e2c71022049a37af8a29251528bed15162cf7630638cc7864736f6c63430008110033\n}\n",
				"bytecode": {
					"linkReferences": {},
					"object": "608060405234801561001057600080fd5b50610348806100206000396000f3fe608060405234801561001057600080fd5b50600436106100365760003560e01c80631fc42eda1461003b578063d5d79e601461006b575b600080fd5b610055600480360381019061005091906101cd565b61009b565b6040516100629190610209565b60405180910390f35b610085600480360381019061008091906101cd565b6100f4565b6040516100929190610209565b60405180910390f35b6000600a82116100e0576040517f08c379a00000000000000000000000000000000000000000000000000000000081526004016100d79061025b565b60405180910390fd5b600a826100ed91906102aa565b9050919050565b600081600a811161013a576040517f08c379a00000000000000000000000000000000000000000000000000000000081526004016101319061025b565b60405180910390fd5b600a831161017d576040517f08c379a00000000000000000000000000000000000000000000000000000000081526004016101749061025b565b60405180910390fd5b600a8361018a91906102de565b915050919050565b600080fd5b6000819050919050565b6101aa81610197565b81146101b557600080fd5b50565b6000813590506101c7816101a1565b92915050565b6000602082840312156101e3576101e2610192565b5b60006101f1848285016101b8565b91505092915050565b61020381610197565b82525050565b600060208201905061021e60008301846101fa565b92915050565b600082825260208201905092915050565b50565b6000610245600083610224565b915061025082610235565b600082019050919050565b6000602082019050818103600083015261027481610238565b9050919050565b7f4e487b7100000000000000000000000000000000000000000000000000000000600052601160045260246000fd5b60006102b582610197565b91506102c083610197565b92508282019050808211156102d8576102d761027b565b5b92915050565b60006102e982610197565b91506102f483610197565b925082820390508181111561030c5761030b61027b565b5b9291505056fea26469706673582212203c8b97103a576a8d6e2c71022049a37af8a29251528bed15162cf7630638cc7864736f6c63430008110033",
					"opcodes": "PUSH1 0x80 PUSH1 0x40 MSTORE CALLVALUE DUP1 ISZERO PUSH2 0x10 JUMPI PUSH1 0x0 DUP1 REVERT JUMPDEST POP PUSH2 0x348 DUP1 PUSH2 0x20 PUSH1 0x0 CODECOPY PUSH1 0x0 RETURN INVALID PUSH1 0x80 PUSH1 0x40 MSTORE CALLVALUE DUP1 ISZERO PUSH2 0x10 JUMPI PUSH1 0x0 DUP1 REVERT JUMPDEST POP PUSH1 0x4 CALLDATASIZE LT PUSH2 0x36 JUMPI PUSH1 0x0 CALLDATALOAD PUSH1 0xE0 SHR DUP1 PUSH4 0x1FC42EDA EQ PUSH2 0x3B JUMPI DUP1 PUSH4 0xD5D79E60 EQ PUSH2 0x6B JUMPI JUMPDEST PUSH1 0x0 DUP1 REVERT JUMPDEST PUSH2 0x55 PUSH1 0x4 DUP1 CALLDATASIZE SUB DUP2 ADD SWAP1 PUSH2 0x50 SWAP2 SWAP1 PUSH2 0x1CD JUMP JUMPDEST PUSH2 0x9B JUMP JUMPDEST PUSH1 0x40 MLOAD PUSH2 0x62 SWAP2 SWAP1 PUSH2 0x209 JUMP JUMPDEST PUSH1 0x40 MLOAD DUP1 SWAP2 SUB SWAP1 RETURN JUMPDEST PUSH2 0x85 PUSH1 0x4 DUP1 CALLDATASIZE SUB DUP2 ADD SWAP1 PUSH2 0x80 SWAP2 SWAP1 PUSH2 0x1CD JUMP JUMPDEST PUSH2 0xF4 JUMP JUMPDEST PUSH1 0x40 MLOAD PUSH2 0x92 SWAP2 SWAP1 PUSH2 0x209 JUMP JUMPDEST PUSH1 0x40 MLOAD DUP1 SWAP2 SUB SWAP1 RETURN JUMPDEST PUSH1 0x0 PUSH1 0xA DUP3 GT PUSH2 0xE0 JUMPI PUSH1 0x40 MLOAD PUSH32 0x8C379A000000000000000000000000000000000000000000000000000000000 DUP2 MSTORE PUSH1 0x4 ADD PUSH2 0xD7 SWAP1 PUSH2 0x25B JUMP JUMPDEST PUSH1 0x40 MLOAD DUP1 SWAP2 SUB SWAP1 REVERT JUMPDEST PUSH1 0xA DUP3 PUSH2 0xED SWAP2 SWAP1 PUSH2 0x2AA JUMP JUMPDEST SWAP1 POP SWAP2 SWAP1 POP JUMP JUMPDEST PUSH1 0x0 DUP2 PUSH1 0xA DUP2 GT PUSH2 0x13A JUMPI PUSH1 0x40 MLOAD PUSH32 0x8C379A000000000000000000000000000000000000000000000000000000000 DUP2 MSTORE PUSH1 0x4 ADD PUSH2 0x131 SWAP1 PUSH2 0x25B JUMP JUMPDEST PUSH1 0x40 MLOAD DUP1 SWAP2 SUB SWAP1 REVERT JUMPDEST PUSH1 0xA DUP4 GT PUSH2 0x17D JUMPI PUSH1 0x40 MLOAD PUSH32 0x8C379A000000000000000000000000000000000000000000000000000000000 DUP2 MSTORE PUSH1 0x4 ADD PUSH2 0x174 SWAP1 PUSH2 0x25B JUMP JUMPDEST PUSH1 0x40 MLOAD DUP1 SWAP2 SUB SWAP1 REVERT JUMPDEST PUSH1 0xA DUP4 PUSH2 0x18A SWAP2 SWAP1 PUSH2 0x2DE JUMP JUMPDEST SWAP2 POP POP SWAP2 SWAP1 POP JUMP JUMPDEST PUSH1 0x0 DUP1 REVERT JUMPDEST PUSH1 0x0 DUP2 SWAP1 POP SWAP2 SWAP1 POP JUMP JUMPDEST PUSH2 0x1AA DUP2 PUSH2 0x197 JUMP JUMPDEST DUP2 EQ PUSH2 0x1B5 JUMPI PUSH1 0x0 DUP1 REVERT JUMPDEST POP JUMP JUMPDEST PUSH1 0x0 DUP2 CALLDATALOAD SWAP1 POP PUSH2 0x1C7 DUP2 PUSH2 0x1A1 JUMP JUMPDEST SWAP3 SWAP2 POP POP JUMP JUMPDEST PUSH1 0x0 PUSH1 0x20 DUP3 DUP5 SUB SLT ISZERO PUSH2 0x1E3 JUMPI PUSH2 0x1E2 PUSH2 0x192 JUMP JUMPDEST JUMPDEST PUSH1 0x0 PUSH2 0x1F1 DUP5 DUP3 DUP6 ADD PUSH2 0x1B8 JUMP JUMPDEST SWAP2 POP POP SWAP3 SWAP2 POP POP JUMP JUMPDEST PUSH2 0x203 DUP2 PUSH2 0x197 JUMP JUMPDEST DUP3 MSTORE POP POP JUMP JUMPDEST PUSH1 0x0 PUSH1 0x20 DUP3 ADD SWAP1 POP PUSH2 0x21E PUSH1 0x0 DUP4 ADD DUP5 PUSH2 0x1FA JUMP JUMPDEST SWAP3 SWAP2 POP POP JUMP JUMPDEST PUSH1 0x0 DUP3 DUP3 MSTORE PUSH1 0x20 DUP3 ADD SWAP1 POP SWAP3 SWAP2 POP POP JUMP JUMPDEST POP JUMP JUMPDEST PUSH1 0x0 PUSH2 0x245 PUSH1 0x0 DUP4 PUSH2 0x224 JUMP JUMPDEST SWAP2 POP PUSH2 0x250 DUP3 PUSH2 0x235 JUMP JUMPDEST PUSH1 0x0 DUP3 ADD SWAP1 POP SWAP2 SWAP1 POP JUMP JUMPDEST PUSH1 0x0 PUSH1 0x20 DUP3 ADD SWAP1 POP DUP2 DUP2 SUB PUSH1 0x0 DUP4 ADD MSTORE PUSH2 0x274 DUP2 PUSH2 0x238 JUMP JUMPDEST SWAP1 POP SWAP2 SWAP1 POP JUMP JUMPDEST PUSH32 0x4E487B7100000000000000000000000000000000000000000000000000000000 PUSH1 0x0 MSTORE PUSH1 0x11 PUSH1 0x4 MSTORE PUSH1 0x24 PUSH1 0x0 REVERT JUMPDEST PUSH1 0x0 PUSH2 0x2B5 DUP3 PUSH2 0x197 JUMP JUMPDEST SWAP2 POP PUSH2 0x2C0 DUP4 PUSH2 0x197 JUMP JUMPDEST SWAP3 POP DUP3 DUP3 ADD SWAP1 POP DUP1 DUP3 GT ISZERO PUSH2 0x2D8 JUMPI PUSH2 0x2D7 PUSH2 0x27B JUMP JUMPDEST JUMPDEST SWAP3 SWAP2 POP POP JUMP JUMPDEST PUSH1 0x0 PUSH2 0x2E9 DUP3 PUSH2 0x197 JUMP JUMPDEST SWAP2 POP PUSH2 0x2F4 DUP4 PUSH2 0x197 JUMP JUMPDEST SWAP3 POP DUP3 DUP3 SUB SWAP1 POP DUP2 DUP2 GT ISZERO PUSH2 0x30C JUMPI PUSH2 0x30B PUSH2 0x27B JUMP JUMPDEST JUMPDEST SWAP3 SWAP2 POP POP JUMP INVALID LOG2 PUSH5 0x6970667358 0x22 SLT KECCAK256 EXTCODECOPY DUP12 SWAP8 LT GASPRICE JUMPI PUSH11 0x8D6E2C71022049A37AF8A2 SWAP3 MLOAD MSTORE DUP12 0xED ISZERO AND 0x2C 0xF7 PUSH4 0x638CC78 PUSH5 0x736F6C6343 STOP ADDMOD GT STOP CALLER "
				},
				"gasEstimates": {
					"creation": {
						"codeDepositCost": "168000",
						"executionCost": "214",
						"totalCost": "168214"
					},
					"external": {
						"minus10(uint256)": "infinite",
						"plus10(uint256)": "infinite"
					}
				},
				"methodIdentifiers": {
					"minus10(uint256)": "d5d79e60",
					"plus10(uint256)": "1fc42eda"
				}
			},
			"storageLayout": {
				"storage": [],
				"types": null
			},
			"userdoc": {
				"kind": "user",
				"methods": {},
				"version": 1
			}
		}
	}
}