{
	"chapter2/Ex2_6.sol": {
		"Ex2_6": {
			"abi": [
				{
					"inputs": [],
					"name": "justA",
					"outputs": [
						{
							"internalType": "uint256",
							"name": "",
							"type": "uint256"
						}
					],
					"stateMutability": "view",
					"type": "function"
				},
				{
					"inputs": [],
					"name": "postPlust",
					"outputs": [
						{
							"internalType": "uint256",
							"name": "",
							"type": "uint256"
						}
					],
					"stateMutability": "nonpayable",
					"type": "function"
				},
				{
					"inputs": [],
					"name": "prePlus",
					"outputs": [
						{
							"internalType": "uint256",
							"name": "",
							"type": "uint256"
						}
					],
					"stateMutability": "nonpayable",
					"type": "function"
				}
			],
			"devdoc": {
				"kind": "dev",
				"methods": {},
				"version": 1
			},
			"evm": {
				"assembly": "    /* \"chapter2/Ex2_6.sol\":70:327  contract Ex2_6 {... */\n  mstore(0x40, 0x80)\n    /* \"chapter2/Ex2_6.sol\":101:102  5 */\n  0x05\n    /* \"chapter2/Ex2_6.sol\":92:102  uint a = 5 */\n  0x00\n  sstore\n    /* \"chapter2/Ex2_6.sol\":70:327  contract Ex2_6 {... */\n  callvalue\n  dup1\n  iszero\n  tag_1\n  jumpi\n  0x00\n  dup1\n  revert\ntag_1:\n  pop\n  dataSize(sub_0)\n  dup1\n  dataOffset(sub_0)\n  0x00\n  codecopy\n  0x00\n  return\nstop\n\nsub_0: assembly {\n        /* \"chapter2/Ex2_6.sol\":70:327  contract Ex2_6 {... */\n      mstore(0x40, 0x80)\n      callvalue\n      dup1\n      iszero\n      tag_1\n      jumpi\n      0x00\n      dup1\n      revert\n    tag_1:\n      pop\n      jumpi(tag_2, lt(calldatasize, 0x04))\n      shr(0xe0, calldataload(0x00))\n      dup1\n      0x1407b80d\n      eq\n      tag_3\n      jumpi\n      dup1\n      0x1631777b\n      eq\n      tag_4\n      jumpi\n      dup1\n      0xd7cf1533\n      eq\n      tag_5\n      jumpi\n    tag_2:\n      0x00\n      dup1\n      revert\n        /* \"chapter2/Ex2_6.sol\":109:177  function justA() public view returns(uint) {... */\n    tag_3:\n      tag_6\n      tag_7\n      jump\t// in\n    tag_6:\n      mload(0x40)\n      tag_8\n      swap2\n      swap1\n      tag_9\n      jump\t// in\n    tag_8:\n      mload(0x40)\n      dup1\n      swap2\n      sub\n      swap1\n      return\n        /* \"chapter2/Ex2_6.sol\":256:325  function postPlust() public returns(uint) {... */\n    tag_4:\n      tag_10\n      tag_11\n      jump\t// in\n    tag_10:\n      mload(0x40)\n      tag_12\n      swap2\n      swap1\n      tag_9\n      jump\t// in\n    tag_12:\n      mload(0x40)\n      dup1\n      swap2\n      sub\n      swap1\n      return\n        /* \"chapter2/Ex2_6.sol\":183:250  function prePlus() public returns(uint) {... */\n    tag_5:\n      tag_13\n      tag_14\n      jump\t// in\n    tag_13:\n      mload(0x40)\n      tag_15\n      swap2\n      swap1\n      tag_9\n      jump\t// in\n    tag_15:\n      mload(0x40)\n      dup1\n      swap2\n      sub\n      swap1\n      return\n        /* \"chapter2/Ex2_6.sol\":109:177  function justA() public view returns(uint) {... */\n    tag_7:\n        /* \"chapter2/Ex2_6.sol\":146:150  uint */\n      0x00\n        /* \"chapter2/Ex2_6.sol\":169:170  a */\n      dup1\n      sload\n        /* \"chapter2/Ex2_6.sol\":162:170  return a */\n      swap1\n      pop\n        /* \"chapter2/Ex2_6.sol\":109:177  function justA() public view returns(uint) {... */\n      swap1\n      jump\t// out\n        /* \"chapter2/Ex2_6.sol\":256:325  function postPlust() public returns(uint) {... */\n    tag_11:\n        /* \"chapter2/Ex2_6.sol\":292:296  uint */\n      0x00\n        /* \"chapter2/Ex2_6.sol\":315:316  a */\n      dup1\n      0x00\n        /* \"chapter2/Ex2_6.sol\":315:318  a++ */\n      dup2\n      sload\n      dup1\n      swap3\n      swap2\n      swap1\n      tag_18\n      swap1\n      tag_19\n      jump\t// in\n    tag_18:\n      swap2\n      swap1\n      pop\n      sstore\n        /* \"chapter2/Ex2_6.sol\":308:318  return a++ */\n      swap1\n      pop\n        /* \"chapter2/Ex2_6.sol\":256:325  function postPlust() public returns(uint) {... */\n      swap1\n      jump\t// out\n        /* \"chapter2/Ex2_6.sol\":183:250  function prePlus() public returns(uint) {... */\n    tag_14:\n        /* \"chapter2/Ex2_6.sol\":217:221  uint */\n      0x00\n        /* \"chapter2/Ex2_6.sol\":242:243  a */\n      dup1\n      0x00\n        /* \"chapter2/Ex2_6.sol\":240:243  ++a */\n      dup2\n      sload\n      tag_21\n      swap1\n      tag_19\n      jump\t// in\n    tag_21:\n      swap2\n      swap1\n      pop\n      dup2\n      swap1\n      sstore\n        /* \"chapter2/Ex2_6.sol\":233:243  return ++a */\n      swap1\n      pop\n        /* \"chapter2/Ex2_6.sol\":183:250  function prePlus() public returns(uint) {... */\n      swap1\n      jump\t// out\n        /* \"#utility.yul\":7:84   */\n    tag_22:\n        /* \"#utility.yul\":44:51   */\n      0x00\n        /* \"#utility.yul\":73:78   */\n      dup2\n        /* \"#utility.yul\":62:78   */\n      swap1\n      pop\n        /* \"#utility.yul\":7:84   */\n      swap2\n      swap1\n      pop\n      jump\t// out\n        /* \"#utility.yul\":90:208   */\n    tag_23:\n        /* \"#utility.yul\":177:201   */\n      tag_28\n        /* \"#utility.yul\":195:200   */\n      dup2\n        /* \"#utility.yul\":177:201   */\n      tag_22\n      jump\t// in\n    tag_28:\n        /* \"#utility.yul\":172:175   */\n      dup3\n        /* \"#utility.yul\":165:202   */\n      mstore\n        /* \"#utility.yul\":90:208   */\n      pop\n      pop\n      jump\t// out\n        /* \"#utility.yul\":214:436   */\n    tag_9:\n        /* \"#utility.yul\":307:311   */\n      0x00\n        /* \"#utility.yul\":345:347   */\n      0x20\n        /* \"#utility.yul\":334:343   */\n      dup3\n        /* \"#utility.yul\":330:348   */\n      add\n        /* \"#utility.yul\":322:348   */\n      swap1\n      pop\n        /* \"#utility.yul\":358:429   */\n      tag_30\n        /* \"#utility.yul\":426:427   */\n      0x00\n        /* \"#utility.yul\":415:424   */\n      dup4\n        /* \"#utility.yul\":411:428   */\n      add\n        /* \"#utility.yul\":402:408   */\n      dup5\n        /* \"#utility.yul\":358:429   */\n      tag_23\n      jump\t// in\n    tag_30:\n        /* \"#utility.yul\":214:436   */\n      swap3\n      swap2\n      pop\n      pop\n      jump\t// out\n        /* \"#utility.yul\":442:622   */\n    tag_24:\n        /* \"#utility.yul\":490:567   */\n      0x4e487b7100000000000000000000000000000000000000000000000000000000\n        /* \"#utility.yul\":487:488   */\n      0x00\n        /* \"#utility.yul\":480:568   */\n      mstore\n        /* \"#utility.yul\":587:591   */\n      0x11\n        /* \"#utility.yul\":584:585   */\n      0x04\n        /* \"#utility.yul\":577:592   */\n      mstore\n        /* \"#utility.yul\":611:615   */\n      0x24\n        /* \"#utility.yul\":608:609   */\n      0x00\n        /* \"#utility.yul\":601:616   */\n      revert\n        /* \"#utility.yul\":628:861   */\n    tag_19:\n        /* \"#utility.yul\":667:670   */\n      0x00\n        /* \"#utility.yul\":690:714   */\n      tag_33\n        /* \"#utility.yul\":708:713   */\n      dup3\n        /* \"#utility.yul\":690:714   */\n      tag_22\n      jump\t// in\n    tag_33:\n        /* \"#utility.yul\":681:714   */\n      swap2\n      pop\n        /* \"#utility.yul\":736:802   */\n      0xffffffffffffffffffffffffffffffffffffffffffffffffffffffffffffffff\n        /* \"#utility.yul\":729:734   */\n      dup3\n        /* \"#utility.yul\":726:803   */\n      sub\n        /* \"#utility.yul\":723:826   */\n      tag_34\n      jumpi\n        /* \"#utility.yul\":806:824   */\n      tag_35\n      tag_24\n      jump\t// in\n    tag_35:\n        /* \"#utility.yul\":723:826   */\n    tag_34:\n        /* \"#utility.yul\":853:854   */\n      0x01\n        /* \"#utility.yul\":846:851   */\n      dup3\n        /* \"#utility.yul\":842:855   */\n      add\n        /* \"#utility.yul\":835:855   */\n      swap1\n      pop\n        /* \"#utility.yul\":628:861   */\n      swap2\n      swap1\n      pop\n      jump\t// out\n\n    auxdata: 0xa2646970667358221220edd1a59b63bda49f332e1167e7e8f945bcf95dcb44f25840fdc70d4f7feedcf664736f6c63430008110033\n}\n",
				"bytecode": {
					"linkReferences": {},
					"object": "6080604052600560005534801561001557600080fd5b506101c2806100256000396000f3fe608060405234801561001057600080fd5b50600436106100415760003560e01c80631407b80d146100465780631631777b14610064578063d7cf153314610082575b600080fd5b61004e6100a0565b60405161005b91906100fa565b60405180910390f35b61006c6100a9565b60405161007991906100fa565b60405180910390f35b61008a6100c6565b60405161009791906100fa565b60405180910390f35b60008054905090565b60008060008154809291906100bd90610144565b91905055905090565b600080600081546100d690610144565b919050819055905090565b6000819050919050565b6100f4816100e1565b82525050565b600060208201905061010f60008301846100eb565b92915050565b7f4e487b7100000000000000000000000000000000000000000000000000000000600052601160045260246000fd5b600061014f826100e1565b91507fffffffffffffffffffffffffffffffffffffffffffffffffffffffffffffffff820361018157610180610115565b5b60018201905091905056fea2646970667358221220edd1a59b63bda49f332e1167e7e8f945bcf95dcb44f25840fdc70d4f7feedcf664736f6c63430008110033",
					"opcodes": "PUSH1 0x80 PUSH1 0x40 MSTORE PUSH1 0x5 PUSH1 0x0 SSTORE CALLVALUE DUP1 ISZERO PUSH2 0x15 JUMPI PUSH1 0x0 DUP1 REVERT JUMPDEST POP PUSH2 0x1C2 DUP1 PUSH2 0x25 PUSH1 0x0 CODECOPY PUSH1 0x0 RETURN INVALID PUSH1 0x80 PUSH1 0x40 MSTORE CALLVALUE DUP1 ISZERO PUSH2 0x10 JUMPI PUSH1 0x0 DUP1 REVERT JUMPDEST POP PUSH1 0x4 CALLDATASIZE LT PUSH2 0x41 JUMPI PUSH1 0x0 CALLDATALOAD PUSH1 0xE0 SHR DUP1 PUSH4 0x1407B80D EQ PUSH2 0x46 JUMPI DUP1 PUSH4 0x1631777B EQ PUSH2 0x64 JUMPI DUP1 PUSH4 0xD7CF1533 EQ PUSH2 0x82 JUMPI JUMPDEST PUSH1 0x0 DUP1 REVERT JUMPDEST PUSH2 0x4E PUSH2 0xA0 JUMP JUMPDEST PUSH1 0x40 MLOAD PUSH2 0x5B SWAP2 SWAP1 PUSH2 0xFA JUMP JUMPDEST PUSH1 0x40 MLOAD DUP1 SWAP2 SUB SWAP1 RETURN JUMPDEST PUSH2 0x6C PUSH2 0xA9 JUMP JUMPDEST PUSH1 0x40 MLOAD PUSH2 0x79 SWAP2 SWAP1 PUSH2 0xFA JUMP JUMPDEST PUSH1 0x40 MLOAD DUP1 SWAP2 SUB SWAP1 RETURN JUMPDEST PUSH2 0x8A PUSH2 0xC6 JUMP JUMPDEST PUSH1 0x40 MLOAD PUSH2 0x97 SWAP2 SWAP1 PUSH2 0xFA JUMP JUMPDEST PUSH1 0x40 MLOAD DUP1 SWAP2 SUB SWAP1 RETURN JUMPDEST PUSH1 0x0 DUP1 SLOAD SWAP1 POP SWAP1 JUMP JUMPDEST PUSH1 0x0 DUP1 PUSH1 0x0 DUP2 SLOAD DUP1 SWAP3 SWAP2 SWAP1 PUSH2 0xBD SWAP1 PUSH2 0x144 JUMP JUMPDEST SWAP2 SWAP1 POP SSTORE SWAP1 POP SWAP1 JUMP JUMPDEST PUSH1 0x0 DUP1 PUSH1 0x0 DUP2 SLOAD PUSH2 0xD6 SWAP1 PUSH2 0x144 JUMP JUMPDEST SWAP2 SWAP1 POP DUP2 SWAP1 SSTORE SWAP1 POP SWAP1 JUMP JUMPDEST PUSH1 0x0 DUP2 SWAP1 POP SWAP2 SWAP1 POP JUMP JUMPDEST PUSH2 0xF4 DUP2 PUSH2 0xE1 JUMP JUMPDEST DUP3 MSTORE POP POP JUMP JUMPDEST PUSH1 0x0 PUSH1 0x20 DUP3 ADD SWAP1 POP PUSH2 0x10F PUSH1 0x0 DUP4 ADD DUP5 PUSH2 0xEB JUMP JUMPDEST SWAP3 SWAP2 POP POP JUMP JUMPDEST PUSH32 0x4E487B7100000000000000000000000000000000000000000000000000000000 PUSH1 0x0 MSTORE PUSH1 0x11 PUSH1 0x4 MSTORE PUSH1 0x24 PUSH1 0x0 REVERT JUMPDEST PUSH1 0x0 PUSH2 0x14F DUP3 PUSH2 0xE1 JUMP JUMPDEST SWAP2 POP PUSH32 0xFFFFFFFFFFFFFFFFFFFFFFFFFFFFFFFFFFFFFFFFFFFFFFFFFFFFFFFFFFFFFFFF DUP3 SUB PUSH2 0x181 JUMPI PUSH2 0x180 PUSH2 0x115 JUMP JUMPDEST JUMPDEST PUSH1 0x1 DUP3 ADD SWAP1 POP SWAP2 SWAP1 POP JUMP INVALID LOG2 PUSH5 0x6970667358 0x22 SLT KECCAK256 0xED 0xD1 0xA5 SWAP12 PUSH4 0xBDA49F33 0x2E GT PUSH8 0xE7E8F945BCF95DCB DIFFICULTY CALLCODE PC BLOCKHASH REVERT 0xC7 0xD 0x4F PUSH32 0xEEDCF664736F6C63430008110033000000000000000000000000000000000000 "
				},
				"gasEstimates": {
					"creation": {
						"codeDepositCost": "90000",
						"executionCost": "22247",
						"totalCost": "112247"
					},
					"external": {
						"justA()": "2415",
						"postPlust()": "infinite",
						"prePlus()": "infinite"
					}
				},
				"methodIdentifiers": {
					"justA()": "1407b80d",
					"postPlust()": "1631777b",
					"prePlus()": "d7cf1533"
				}
			},
			"storageLayout": {
				"storage": [
					{
						"astId": 4,
						"contract": "chapter2/Ex2_6.sol:Ex2_6",
						"label": "a",
						"offset": 0,
						"slot": "0",
						"type": "t_uint256"
					}
				],
				"types": {
					"t_uint256": {
						"encoding": "inplace",
						"label": "uint256",
						"numberOfBytes": "32"
					}
				}
			},
			"userdoc": {
				"kind": "user",
				"methods": {},
				"version": 1
			}
		}
	}
}