{
	"chapter2/Ex2_10.sol": {
		"AnimalSet": {
			"abi": [
				{
					"inputs": [],
					"name": "getAllNames",
					"outputs": [
						{
							"internalType": "string",
							"name": "",
							"type": "string"
						},
						{
							"internalType": "string",
							"name": "",
							"type": "string"
						}
					],
					"stateMutability": "view",
					"type": "function"
				},
				{
					"inputs": [],
					"name": "tiger",
					"outputs": [
						{
							"internalType": "contract Animal",
							"name": "",
							"type": "address"
						}
					],
					"stateMutability": "view",
					"type": "function"
				},
				{
					"inputs": [],
					"name": "turtle",
					"outputs": [
						{
							"internalType": "contract Animal",
							"name": "",
							"type": "address"
						}
					],
					"stateMutability": "view",
					"type": "function"
				},
				{
					"inputs": [
						{
							"internalType": "contract Animal",
							"name": "_animal",
							"type": "address"
						}
					],
					"name": "whatIsTheName",
					"outputs": [
						{
							"internalType": "string",
							"name": "",
							"type": "string"
						}
					],
					"stateMutability": "pure",
					"type": "function"
				}
			],
			"devdoc": {
				"kind": "dev",
				"methods": {},
				"version": 1
			},
			"evm": {
				"assembly": "    /* \"chapter2/Ex2_10.sol\":450:778  contract AnimalSet {... */\n  mstore(0x40, 0x80)\n    /* \"chapter2/Ex2_10.sol\":497:508  new Tiger() */\n  mload(0x40)\n  tag_1\n  swap1\n  tag_2\n  jump\t// in\ntag_1:\n  mload(0x40)\n  dup1\n  swap2\n  sub\n  swap1\n  0x00\n  create\n  dup1\n  iszero\n  dup1\n  iszero\n  tag_3\n  jumpi\n  returndatasize\n  0x00\n  dup1\n  returndatacopy\n  revert(0x00, returndatasize)\ntag_3:\n  pop\n    /* \"chapter2/Ex2_10.sol\":475:508  Animal public tiger = new Tiger() */\n  0x00\n  dup1\n  0x0100\n  exp\n  dup2\n  sload\n  dup2\n  0xffffffffffffffffffffffffffffffffffffffff\n  mul\n  not\n  and\n  swap1\n  dup4\n  0xffffffffffffffffffffffffffffffffffffffff\n  and\n  mul\n  or\n  swap1\n  sstore\n  pop\n    /* \"chapter2/Ex2_10.sol\":537:549  new Turtle() */\n  mload(0x40)\n  tag_4\n  swap1\n  tag_5\n  jump\t// in\ntag_4:\n  mload(0x40)\n  dup1\n  swap2\n  sub\n  swap1\n  0x00\n  create\n  dup1\n  iszero\n  dup1\n  iszero\n  tag_6\n  jumpi\n  returndatasize\n  0x00\n  dup1\n  returndatacopy\n  revert(0x00, returndatasize)\ntag_6:\n  pop\n    /* \"chapter2/Ex2_10.sol\":514:549  Animal public turtle = new Turtle() */\n  0x01\n  exp(0x0100, 0x00)\n  dup2\n  sload\n  dup2\n  0xffffffffffffffffffffffffffffffffffffffff\n  mul\n  not\n  and\n  swap1\n  dup4\n  0xffffffffffffffffffffffffffffffffffffffff\n  and\n  mul\n  or\n  swap1\n  sstore\n  pop\n    /* \"chapter2/Ex2_10.sol\":450:778  contract AnimalSet {... */\n  callvalue\n  dup1\n  iszero\n  tag_7\n  jumpi\n  0x00\n  dup1\n  revert\ntag_7:\n  pop\n  jump(tag_8)\ntag_2:\n  dataSize(sub_1)\n  dup1\n  dataOffset(sub_1)\n  dup4\n  codecopy\n  add\n  swap1\n  jump\t// out\ntag_5:\n  dataSize(sub_2)\n  dup1\n  dataOffset(sub_2)\n  dup4\n  codecopy\n  add\n  swap1\n  jump\t// out\ntag_8:\n  dataSize(sub_0)\n  dup1\n  dataOffset(sub_0)\n  0x00\n  codecopy\n  0x00\n  return\nstop\n\nsub_0: assembly {\n        /* \"chapter2/Ex2_10.sol\":450:778  contract AnimalSet {... */\n      mstore(0x40, 0x80)\n      callvalue\n      dup1\n      iszero\n      tag_1\n      jumpi\n      0x00\n      dup1\n      revert\n    tag_1:\n      pop\n      jumpi(tag_2, lt(calldatasize, 0x04))\n      shr(0xe0, calldataload(0x00))\n      dup1\n      0x44d333ff\n      eq\n      tag_3\n      jumpi\n      dup1\n      0x5d422032\n      eq\n      tag_4\n      jumpi\n      dup1\n      0x9266ad16\n      eq\n      tag_5\n      jumpi\n      dup1\n      0xfb825e5f\n      eq\n      tag_6\n      jumpi\n    tag_2:\n      0x00\n      dup1\n      revert\n        /* \"chapter2/Ex2_10.sol\":475:508  Animal public tiger = new Tiger() */\n    tag_3:\n      tag_7\n      tag_8\n      jump\t// in\n    tag_7:\n      mload(0x40)\n      tag_9\n      swap2\n      swap1\n      tag_10\n      jump\t// in\n    tag_9:\n      mload(0x40)\n      dup1\n      swap2\n      sub\n      swap1\n      return\n        /* \"chapter2/Ex2_10.sol\":514:549  Animal public turtle = new Turtle() */\n    tag_4:\n      tag_11\n      tag_12\n      jump\t// in\n    tag_11:\n      mload(0x40)\n      tag_13\n      swap2\n      swap1\n      tag_10\n      jump\t// in\n    tag_13:\n      mload(0x40)\n      dup1\n      swap2\n      sub\n      swap1\n      return\n        /* \"chapter2/Ex2_10.sol\":694:776  function whatIsTheName(Animal _animal) public pure returns(string memory) {... */\n    tag_5:\n      tag_14\n      0x04\n      dup1\n      calldatasize\n      sub\n      dup2\n      add\n      swap1\n      tag_15\n      swap2\n      swap1\n      tag_16\n      jump\t// in\n    tag_15:\n      tag_17\n      jump\t// in\n    tag_14:\n      mload(0x40)\n      tag_18\n      swap2\n      swap1\n      tag_19\n      jump\t// in\n    tag_18:\n      mload(0x40)\n      dup1\n      swap2\n      sub\n      swap1\n      return\n        /* \"chapter2/Ex2_10.sol\":556:688  function getAllNames() public view returns(string memory, string memory) {... */\n    tag_6:\n      tag_20\n      tag_21\n      jump\t// in\n    tag_20:\n      mload(0x40)\n      tag_22\n      swap3\n      swap2\n      swap1\n      tag_23\n      jump\t// in\n    tag_22:\n      mload(0x40)\n      dup1\n      swap2\n      sub\n      swap1\n      return\n        /* \"chapter2/Ex2_10.sol\":475:508  Animal public tiger = new Tiger() */\n    tag_8:\n      0x00\n      dup1\n      sload\n      swap1\n      0x0100\n      exp\n      swap1\n      div\n      0xffffffffffffffffffffffffffffffffffffffff\n      and\n      dup2\n      jump\t// out\n        /* \"chapter2/Ex2_10.sol\":514:549  Animal public turtle = new Turtle() */\n    tag_12:\n      0x01\n      0x00\n      swap1\n      sload\n      swap1\n      0x0100\n      exp\n      swap1\n      div\n      0xffffffffffffffffffffffffffffffffffffffff\n      and\n      dup2\n      jump\t// out\n        /* \"chapter2/Ex2_10.sol\":694:776  function whatIsTheName(Animal _animal) public pure returns(string memory) {... */\n    tag_17:\n        /* \"chapter2/Ex2_10.sol\":753:766  string memory */\n      0x60\n        /* \"chapter2/Ex2_10.sol\":694:776  function whatIsTheName(Animal _animal) public pure returns(string memory) {... */\n      swap2\n      swap1\n      pop\n      jump\t// out\n        /* \"chapter2/Ex2_10.sol\":556:688  function getAllNames() public view returns(string memory, string memory) {... */\n    tag_21:\n        /* \"chapter2/Ex2_10.sol\":599:612  string memory */\n      0x60\n        /* \"chapter2/Ex2_10.sol\":614:627  string memory */\n      dup1\n        /* \"chapter2/Ex2_10.sol\":647:652  tiger */\n      0x00\n      dup1\n      sload\n      swap1\n      0x0100\n      exp\n      swap1\n      div\n      0xffffffffffffffffffffffffffffffffffffffff\n      and\n        /* \"chapter2/Ex2_10.sol\":647:660  tiger.getName */\n      0xffffffffffffffffffffffffffffffffffffffff\n      and\n      0x17d7de7c\n        /* \"chapter2/Ex2_10.sol\":647:662  tiger.getName() */\n      mload(0x40)\n      dup2\n      0xffffffff\n      and\n      0xe0\n      shl\n      dup2\n      mstore\n      0x04\n      add\n      0x00\n      mload(0x40)\n      dup1\n      dup4\n      sub\n      dup2\n      dup7\n      gas\n      staticcall\n      iszero\n      dup1\n      iszero\n      tag_27\n      jumpi\n      returndatasize\n      0x00\n      dup1\n      returndatacopy\n      revert(0x00, returndatasize)\n    tag_27:\n      pop\n      pop\n      pop\n      pop\n      mload(0x40)\n      returndatasize\n      0x00\n      dup3\n      returndatacopy\n      returndatasize\n      not(0x1f)\n      0x1f\n      dup3\n      add\n      and\n      dup3\n      add\n      dup1\n      0x40\n      mstore\n      pop\n      dup2\n      add\n      swap1\n      tag_28\n      swap2\n      swap1\n      tag_29\n      jump\t// in\n    tag_28:\n        /* \"chapter2/Ex2_10.sol\":664:670  turtle */\n      0x01\n      0x00\n      swap1\n      sload\n      swap1\n      0x0100\n      exp\n      swap1\n      div\n      0xffffffffffffffffffffffffffffffffffffffff\n      and\n        /* \"chapter2/Ex2_10.sol\":664:678  turtle.getName */\n      0xffffffffffffffffffffffffffffffffffffffff\n      and\n      0x17d7de7c\n        /* \"chapter2/Ex2_10.sol\":664:680  turtle.getName() */\n      mload(0x40)\n      dup2\n      0xffffffff\n      and\n      0xe0\n      shl\n      dup2\n      mstore\n      0x04\n      add\n      0x00\n      mload(0x40)\n      dup1\n      dup4\n      sub\n      dup2\n      dup7\n      gas\n      staticcall\n      iszero\n      dup1\n      iszero\n      tag_31\n      jumpi\n      returndatasize\n      0x00\n      dup1\n      returndatacopy\n      revert(0x00, returndatasize)\n    tag_31:\n      pop\n      pop\n      pop\n      pop\n      mload(0x40)\n      returndatasize\n      0x00\n      dup3\n      returndatacopy\n      returndatasize\n      not(0x1f)\n      0x1f\n      dup3\n      add\n      and\n      dup3\n      add\n      dup1\n      0x40\n      mstore\n      pop\n      dup2\n      add\n      swap1\n      tag_32\n      swap2\n      swap1\n      tag_29\n      jump\t// in\n    tag_32:\n        /* \"chapter2/Ex2_10.sol\":639:681  return (tiger.getName(), turtle.getName()) */\n      swap2\n      pop\n      swap2\n      pop\n        /* \"chapter2/Ex2_10.sol\":556:688  function getAllNames() public view returns(string memory, string memory) {... */\n      swap1\n      swap2\n      jump\t// out\n        /* \"#utility.yul\":7:133   */\n    tag_33:\n        /* \"#utility.yul\":44:51   */\n      0x00\n        /* \"#utility.yul\":84:126   */\n      0xffffffffffffffffffffffffffffffffffffffff\n        /* \"#utility.yul\":77:82   */\n      dup3\n        /* \"#utility.yul\":73:127   */\n      and\n        /* \"#utility.yul\":62:127   */\n      swap1\n      pop\n        /* \"#utility.yul\":7:133   */\n      swap2\n      swap1\n      pop\n      jump\t// out\n        /* \"#utility.yul\":139:199   */\n    tag_34:\n        /* \"#utility.yul\":167:170   */\n      0x00\n        /* \"#utility.yul\":188:193   */\n      dup2\n        /* \"#utility.yul\":181:193   */\n      swap1\n      pop\n        /* \"#utility.yul\":139:199   */\n      swap2\n      swap1\n      pop\n      jump\t// out\n        /* \"#utility.yul\":205:347   */\n    tag_35:\n        /* \"#utility.yul\":255:264   */\n      0x00\n        /* \"#utility.yul\":288:341   */\n      tag_63\n        /* \"#utility.yul\":306:340   */\n      tag_64\n        /* \"#utility.yul\":315:339   */\n      tag_65\n        /* \"#utility.yul\":333:338   */\n      dup5\n        /* \"#utility.yul\":315:339   */\n      tag_33\n      jump\t// in\n    tag_65:\n        /* \"#utility.yul\":306:340   */\n      tag_34\n      jump\t// in\n    tag_64:\n        /* \"#utility.yul\":288:341   */\n      tag_33\n      jump\t// in\n    tag_63:\n        /* \"#utility.yul\":275:341   */\n      swap1\n      pop\n        /* \"#utility.yul\":205:347   */\n      swap2\n      swap1\n      pop\n      jump\t// out\n        /* \"#utility.yul\":353:479   */\n    tag_36:\n        /* \"#utility.yul\":403:412   */\n      0x00\n        /* \"#utility.yul\":436:473   */\n      tag_67\n        /* \"#utility.yul\":467:472   */\n      dup3\n        /* \"#utility.yul\":436:473   */\n      tag_35\n      jump\t// in\n    tag_67:\n        /* \"#utility.yul\":423:473   */\n      swap1\n      pop\n        /* \"#utility.yul\":353:479   */\n      swap2\n      swap1\n      pop\n      jump\t// out\n        /* \"#utility.yul\":485:624   */\n    tag_37:\n        /* \"#utility.yul\":548:557   */\n      0x00\n        /* \"#utility.yul\":581:618   */\n      tag_69\n        /* \"#utility.yul\":612:617   */\n      dup3\n        /* \"#utility.yul\":581:618   */\n      tag_36\n      jump\t// in\n    tag_69:\n        /* \"#utility.yul\":568:618   */\n      swap1\n      pop\n        /* \"#utility.yul\":485:624   */\n      swap2\n      swap1\n      pop\n      jump\t// out\n        /* \"#utility.yul\":630:787   */\n    tag_38:\n        /* \"#utility.yul\":730:780   */\n      tag_71\n        /* \"#utility.yul\":774:779   */\n      dup2\n        /* \"#utility.yul\":730:780   */\n      tag_37\n      jump\t// in\n    tag_71:\n        /* \"#utility.yul\":725:728   */\n      dup3\n        /* \"#utility.yul\":718:781   */\n      mstore\n        /* \"#utility.yul\":630:787   */\n      pop\n      pop\n      jump\t// out\n        /* \"#utility.yul\":793:1041   */\n    tag_10:\n        /* \"#utility.yul\":899:903   */\n      0x00\n        /* \"#utility.yul\":937:939   */\n      0x20\n        /* \"#utility.yul\":926:935   */\n      dup3\n        /* \"#utility.yul\":922:940   */\n      add\n        /* \"#utility.yul\":914:940   */\n      swap1\n      pop\n        /* \"#utility.yul\":950:1034   */\n      tag_73\n        /* \"#utility.yul\":1031:1032   */\n      0x00\n        /* \"#utility.yul\":1020:1029   */\n      dup4\n        /* \"#utility.yul\":1016:1033   */\n      add\n        /* \"#utility.yul\":1007:1013   */\n      dup5\n        /* \"#utility.yul\":950:1034   */\n      tag_38\n      jump\t// in\n    tag_73:\n        /* \"#utility.yul\":793:1041   */\n      swap3\n      swap2\n      pop\n      pop\n      jump\t// out\n        /* \"#utility.yul\":1047:1122   */\n    tag_39:\n        /* \"#utility.yul\":1080:1086   */\n      0x00\n        /* \"#utility.yul\":1113:1115   */\n      0x40\n        /* \"#utility.yul\":1107:1116   */\n      mload\n        /* \"#utility.yul\":1097:1116   */\n      swap1\n      pop\n        /* \"#utility.yul\":1047:1122   */\n      swap1\n      jump\t// out\n        /* \"#utility.yul\":1128:1245   */\n    tag_40:\n        /* \"#utility.yul\":1237:1238   */\n      0x00\n        /* \"#utility.yul\":1234:1235   */\n      dup1\n        /* \"#utility.yul\":1227:1239   */\n      revert\n        /* \"#utility.yul\":1251:1368   */\n    tag_41:\n        /* \"#utility.yul\":1360:1361   */\n      0x00\n        /* \"#utility.yul\":1357:1358   */\n      dup1\n        /* \"#utility.yul\":1350:1362   */\n      revert\n        /* \"#utility.yul\":1374:1470   */\n    tag_42:\n        /* \"#utility.yul\":1411:1418   */\n      0x00\n        /* \"#utility.yul\":1440:1464   */\n      tag_78\n        /* \"#utility.yul\":1458:1463   */\n      dup3\n        /* \"#utility.yul\":1440:1464   */\n      tag_33\n      jump\t// in\n    tag_78:\n        /* \"#utility.yul\":1429:1464   */\n      swap1\n      pop\n        /* \"#utility.yul\":1374:1470   */\n      swap2\n      swap1\n      pop\n      jump\t// out\n        /* \"#utility.yul\":1476:1585   */\n    tag_43:\n        /* \"#utility.yul\":1526:1533   */\n      0x00\n        /* \"#utility.yul\":1555:1579   */\n      tag_80\n        /* \"#utility.yul\":1573:1578   */\n      dup3\n        /* \"#utility.yul\":1555:1579   */\n      tag_42\n      jump\t// in\n    tag_80:\n        /* \"#utility.yul\":1544:1579   */\n      swap1\n      pop\n        /* \"#utility.yul\":1476:1585   */\n      swap2\n      swap1\n      pop\n      jump\t// out\n        /* \"#utility.yul\":1591:1739   */\n    tag_44:\n        /* \"#utility.yul\":1677:1714   */\n      tag_82\n        /* \"#utility.yul\":1708:1713   */\n      dup2\n        /* \"#utility.yul\":1677:1714   */\n      tag_43\n      jump\t// in\n    tag_82:\n        /* \"#utility.yul\":1670:1675   */\n      dup2\n        /* \"#utility.yul\":1667:1715   */\n      eq\n        /* \"#utility.yul\":1657:1733   */\n      tag_83\n      jumpi\n        /* \"#utility.yul\":1729:1730   */\n      0x00\n        /* \"#utility.yul\":1726:1727   */\n      dup1\n        /* \"#utility.yul\":1719:1731   */\n      revert\n        /* \"#utility.yul\":1657:1733   */\n    tag_83:\n        /* \"#utility.yul\":1591:1739   */\n      pop\n      jump\t// out\n        /* \"#utility.yul\":1745:1910   */\n    tag_45:\n        /* \"#utility.yul\":1804:1809   */\n      0x00\n        /* \"#utility.yul\":1842:1848   */\n      dup2\n        /* \"#utility.yul\":1829:1849   */\n      calldataload\n        /* \"#utility.yul\":1820:1849   */\n      swap1\n      pop\n        /* \"#utility.yul\":1858:1904   */\n      tag_85\n        /* \"#utility.yul\":1898:1903   */\n      dup2\n        /* \"#utility.yul\":1858:1904   */\n      tag_44\n      jump\t// in\n    tag_85:\n        /* \"#utility.yul\":1745:1910   */\n      swap3\n      swap2\n      pop\n      pop\n      jump\t// out\n        /* \"#utility.yul\":1916:2271   */\n    tag_16:\n        /* \"#utility.yul\":1988:1994   */\n      0x00\n        /* \"#utility.yul\":2037:2039   */\n      0x20\n        /* \"#utility.yul\":2025:2034   */\n      dup3\n        /* \"#utility.yul\":2016:2023   */\n      dup5\n        /* \"#utility.yul\":2012:2035   */\n      sub\n        /* \"#utility.yul\":2008:2040   */\n      slt\n        /* \"#utility.yul\":2005:2124   */\n      iszero\n      tag_87\n      jumpi\n        /* \"#utility.yul\":2043:2122   */\n      tag_88\n      tag_40\n      jump\t// in\n    tag_88:\n        /* \"#utility.yul\":2005:2124   */\n    tag_87:\n        /* \"#utility.yul\":2163:2164   */\n      0x00\n        /* \"#utility.yul\":2188:2254   */\n      tag_89\n        /* \"#utility.yul\":2246:2253   */\n      dup5\n        /* \"#utility.yul\":2237:2243   */\n      dup3\n        /* \"#utility.yul\":2226:2235   */\n      dup6\n        /* \"#utility.yul\":2222:2244   */\n      add\n        /* \"#utility.yul\":2188:2254   */\n      tag_45\n      jump\t// in\n    tag_89:\n        /* \"#utility.yul\":2178:2254   */\n      swap2\n      pop\n        /* \"#utility.yul\":2134:2264   */\n      pop\n        /* \"#utility.yul\":1916:2271   */\n      swap3\n      swap2\n      pop\n      pop\n      jump\t// out\n        /* \"#utility.yul\":2277:2376   */\n    tag_46:\n        /* \"#utility.yul\":2329:2335   */\n      0x00\n        /* \"#utility.yul\":2363:2368   */\n      dup2\n        /* \"#utility.yul\":2357:2369   */\n      mload\n        /* \"#utility.yul\":2347:2369   */\n      swap1\n      pop\n        /* \"#utility.yul\":2277:2376   */\n      swap2\n      swap1\n      pop\n      jump\t// out\n        /* \"#utility.yul\":2382:2551   */\n    tag_47:\n        /* \"#utility.yul\":2466:2477   */\n      0x00\n        /* \"#utility.yul\":2500:2506   */\n      dup3\n        /* \"#utility.yul\":2495:2498   */\n      dup3\n        /* \"#utility.yul\":2488:2507   */\n      mstore\n        /* \"#utility.yul\":2540:2544   */\n      0x20\n        /* \"#utility.yul\":2535:2538   */\n      dup3\n        /* \"#utility.yul\":2531:2545   */\n      add\n        /* \"#utility.yul\":2516:2545   */\n      swap1\n      pop\n        /* \"#utility.yul\":2382:2551   */\n      swap3\n      swap2\n      pop\n      pop\n      jump\t// out\n        /* \"#utility.yul\":2557:2803   */\n    tag_48:\n        /* \"#utility.yul\":2638:2639   */\n      0x00\n        /* \"#utility.yul\":2648:2761   */\n    tag_93:\n        /* \"#utility.yul\":2662:2668   */\n      dup4\n        /* \"#utility.yul\":2659:2660   */\n      dup2\n        /* \"#utility.yul\":2656:2669   */\n      lt\n        /* \"#utility.yul\":2648:2761   */\n      iszero\n      tag_95\n      jumpi\n        /* \"#utility.yul\":2747:2748   */\n      dup1\n        /* \"#utility.yul\":2742:2745   */\n      dup3\n        /* \"#utility.yul\":2738:2749   */\n      add\n        /* \"#utility.yul\":2732:2750   */\n      mload\n        /* \"#utility.yul\":2728:2729   */\n      dup2\n        /* \"#utility.yul\":2723:2726   */\n      dup5\n        /* \"#utility.yul\":2719:2730   */\n      add\n        /* \"#utility.yul\":2712:2751   */\n      mstore\n        /* \"#utility.yul\":2684:2686   */\n      0x20\n        /* \"#utility.yul\":2681:2682   */\n      dup2\n        /* \"#utility.yul\":2677:2687   */\n      add\n        /* \"#utility.yul\":2672:2687   */\n      swap1\n      pop\n        /* \"#utility.yul\":2648:2761   */\n      jump(tag_93)\n    tag_95:\n        /* \"#utility.yul\":2795:2796   */\n      0x00\n        /* \"#utility.yul\":2786:2792   */\n      dup5\n        /* \"#utility.yul\":2781:2784   */\n      dup5\n        /* \"#utility.yul\":2777:2793   */\n      add\n        /* \"#utility.yul\":2770:2797   */\n      mstore\n        /* \"#utility.yul\":2619:2803   */\n      pop\n        /* \"#utility.yul\":2557:2803   */\n      pop\n      pop\n      pop\n      jump\t// out\n        /* \"#utility.yul\":2809:2911   */\n    tag_49:\n        /* \"#utility.yul\":2850:2856   */\n      0x00\n        /* \"#utility.yul\":2901:2903   */\n      0x1f\n        /* \"#utility.yul\":2897:2904   */\n      not\n        /* \"#utility.yul\":2892:2894   */\n      0x1f\n        /* \"#utility.yul\":2885:2890   */\n      dup4\n        /* \"#utility.yul\":2881:2895   */\n      add\n        /* \"#utility.yul\":2877:2905   */\n      and\n        /* \"#utility.yul\":2867:2905   */\n      swap1\n      pop\n        /* \"#utility.yul\":2809:2911   */\n      swap2\n      swap1\n      pop\n      jump\t// out\n        /* \"#utility.yul\":2917:3294   */\n    tag_50:\n        /* \"#utility.yul\":3005:3008   */\n      0x00\n        /* \"#utility.yul\":3033:3072   */\n      tag_98\n        /* \"#utility.yul\":3066:3071   */\n      dup3\n        /* \"#utility.yul\":3033:3072   */\n      tag_46\n      jump\t// in\n    tag_98:\n        /* \"#utility.yul\":3088:3159   */\n      tag_99\n        /* \"#utility.yul\":3152:3158   */\n      dup2\n        /* \"#utility.yul\":3147:3150   */\n      dup6\n        /* \"#utility.yul\":3088:3159   */\n      tag_47\n      jump\t// in\n    tag_99:\n        /* \"#utility.yul\":3081:3159   */\n      swap4\n      pop\n        /* \"#utility.yul\":3168:3233   */\n      tag_100\n        /* \"#utility.yul\":3226:3232   */\n      dup2\n        /* \"#utility.yul\":3221:3224   */\n      dup6\n        /* \"#utility.yul\":3214:3218   */\n      0x20\n        /* \"#utility.yul\":3207:3212   */\n      dup7\n        /* \"#utility.yul\":3203:3219   */\n      add\n        /* \"#utility.yul\":3168:3233   */\n      tag_48\n      jump\t// in\n    tag_100:\n        /* \"#utility.yul\":3258:3287   */\n      tag_101\n        /* \"#utility.yul\":3280:3286   */\n      dup2\n        /* \"#utility.yul\":3258:3287   */\n      tag_49\n      jump\t// in\n    tag_101:\n        /* \"#utility.yul\":3253:3256   */\n      dup5\n        /* \"#utility.yul\":3249:3288   */\n      add\n        /* \"#utility.yul\":3242:3288   */\n      swap2\n      pop\n        /* \"#utility.yul\":3009:3294   */\n      pop\n        /* \"#utility.yul\":2917:3294   */\n      swap3\n      swap2\n      pop\n      pop\n      jump\t// out\n        /* \"#utility.yul\":3300:3613   */\n    tag_19:\n        /* \"#utility.yul\":3413:3417   */\n      0x00\n        /* \"#utility.yul\":3451:3453   */\n      0x20\n        /* \"#utility.yul\":3440:3449   */\n      dup3\n        /* \"#utility.yul\":3436:3454   */\n      add\n        /* \"#utility.yul\":3428:3454   */\n      swap1\n      pop\n        /* \"#utility.yul\":3500:3509   */\n      dup2\n        /* \"#utility.yul\":3494:3498   */\n      dup2\n        /* \"#utility.yul\":3490:3510   */\n      sub\n        /* \"#utility.yul\":3486:3487   */\n      0x00\n        /* \"#utility.yul\":3475:3484   */\n      dup4\n        /* \"#utility.yul\":3471:3488   */\n      add\n        /* \"#utility.yul\":3464:3511   */\n      mstore\n        /* \"#utility.yul\":3528:3606   */\n      tag_103\n        /* \"#utility.yul\":3601:3605   */\n      dup2\n        /* \"#utility.yul\":3592:3598   */\n      dup5\n        /* \"#utility.yul\":3528:3606   */\n      tag_50\n      jump\t// in\n    tag_103:\n        /* \"#utility.yul\":3520:3606   */\n      swap1\n      pop\n        /* \"#utility.yul\":3300:3613   */\n      swap3\n      swap2\n      pop\n      pop\n      jump\t// out\n        /* \"#utility.yul\":3619:4133   */\n    tag_23:\n        /* \"#utility.yul\":3780:3784   */\n      0x00\n        /* \"#utility.yul\":3818:3820   */\n      0x40\n        /* \"#utility.yul\":3807:3816   */\n      dup3\n        /* \"#utility.yul\":3803:3821   */\n      add\n        /* \"#utility.yul\":3795:3821   */\n      swap1\n      pop\n        /* \"#utility.yul\":3867:3876   */\n      dup2\n        /* \"#utility.yul\":3861:3865   */\n      dup2\n        /* \"#utility.yul\":3857:3877   */\n      sub\n        /* \"#utility.yul\":3853:3854   */\n      0x00\n        /* \"#utility.yul\":3842:3851   */\n      dup4\n        /* \"#utility.yul\":3838:3855   */\n      add\n        /* \"#utility.yul\":3831:3878   */\n      mstore\n        /* \"#utility.yul\":3895:3973   */\n      tag_105\n        /* \"#utility.yul\":3968:3972   */\n      dup2\n        /* \"#utility.yul\":3959:3965   */\n      dup6\n        /* \"#utility.yul\":3895:3973   */\n      tag_50\n      jump\t// in\n    tag_105:\n        /* \"#utility.yul\":3887:3973   */\n      swap1\n      pop\n        /* \"#utility.yul\":4020:4029   */\n      dup2\n        /* \"#utility.yul\":4014:4018   */\n      dup2\n        /* \"#utility.yul\":4010:4030   */\n      sub\n        /* \"#utility.yul\":4005:4007   */\n      0x20\n        /* \"#utility.yul\":3994:4003   */\n      dup4\n        /* \"#utility.yul\":3990:4008   */\n      add\n        /* \"#utility.yul\":3983:4031   */\n      mstore\n        /* \"#utility.yul\":4048:4126   */\n      tag_106\n        /* \"#utility.yul\":4121:4125   */\n      dup2\n        /* \"#utility.yul\":4112:4118   */\n      dup5\n        /* \"#utility.yul\":4048:4126   */\n      tag_50\n      jump\t// in\n    tag_106:\n        /* \"#utility.yul\":4040:4126   */\n      swap1\n      pop\n        /* \"#utility.yul\":3619:4133   */\n      swap4\n      swap3\n      pop\n      pop\n      pop\n      jump\t// out\n        /* \"#utility.yul\":4139:4256   */\n    tag_51:\n        /* \"#utility.yul\":4248:4249   */\n      0x00\n        /* \"#utility.yul\":4245:4246   */\n      dup1\n        /* \"#utility.yul\":4238:4250   */\n      revert\n        /* \"#utility.yul\":4262:4379   */\n    tag_52:\n        /* \"#utility.yul\":4371:4372   */\n      0x00\n        /* \"#utility.yul\":4368:4369   */\n      dup1\n        /* \"#utility.yul\":4361:4373   */\n      revert\n        /* \"#utility.yul\":4385:4565   */\n    tag_53:\n        /* \"#utility.yul\":4433:4510   */\n      0x4e487b7100000000000000000000000000000000000000000000000000000000\n        /* \"#utility.yul\":4430:4431   */\n      0x00\n        /* \"#utility.yul\":4423:4511   */\n      mstore\n        /* \"#utility.yul\":4530:4534   */\n      0x41\n        /* \"#utility.yul\":4527:4528   */\n      0x04\n        /* \"#utility.yul\":4520:4535   */\n      mstore\n        /* \"#utility.yul\":4554:4558   */\n      0x24\n        /* \"#utility.yul\":4551:4552   */\n      0x00\n        /* \"#utility.yul\":4544:4559   */\n      revert\n        /* \"#utility.yul\":4571:4852   */\n    tag_54:\n        /* \"#utility.yul\":4654:4681   */\n      tag_111\n        /* \"#utility.yul\":4676:4680   */\n      dup3\n        /* \"#utility.yul\":4654:4681   */\n      tag_49\n      jump\t// in\n    tag_111:\n        /* \"#utility.yul\":4646:4652   */\n      dup2\n        /* \"#utility.yul\":4642:4682   */\n      add\n        /* \"#utility.yul\":4784:4790   */\n      dup2\n        /* \"#utility.yul\":4772:4782   */\n      dup2\n        /* \"#utility.yul\":4769:4791   */\n      lt\n        /* \"#utility.yul\":4748:4766   */\n      0xffffffffffffffff\n        /* \"#utility.yul\":4736:4746   */\n      dup3\n        /* \"#utility.yul\":4733:4767   */\n      gt\n        /* \"#utility.yul\":4730:4792   */\n      or\n        /* \"#utility.yul\":4727:4815   */\n      iszero\n      tag_112\n      jumpi\n        /* \"#utility.yul\":4795:4813   */\n      tag_113\n      tag_53\n      jump\t// in\n    tag_113:\n        /* \"#utility.yul\":4727:4815   */\n    tag_112:\n        /* \"#utility.yul\":4835:4845   */\n      dup1\n        /* \"#utility.yul\":4831:4833   */\n      0x40\n        /* \"#utility.yul\":4824:4846   */\n      mstore\n        /* \"#utility.yul\":4614:4852   */\n      pop\n        /* \"#utility.yul\":4571:4852   */\n      pop\n      pop\n      jump\t// out\n        /* \"#utility.yul\":4858:4987   */\n    tag_55:\n        /* \"#utility.yul\":4892:4898   */\n      0x00\n        /* \"#utility.yul\":4919:4939   */\n      tag_115\n      tag_39\n      jump\t// in\n    tag_115:\n        /* \"#utility.yul\":4909:4939   */\n      swap1\n      pop\n        /* \"#utility.yul\":4948:4981   */\n      tag_116\n        /* \"#utility.yul\":4976:4980   */\n      dup3\n        /* \"#utility.yul\":4968:4974   */\n      dup3\n        /* \"#utility.yul\":4948:4981   */\n      tag_54\n      jump\t// in\n    tag_116:\n        /* \"#utility.yul\":4858:4987   */\n      swap2\n      swap1\n      pop\n      jump\t// out\n        /* \"#utility.yul\":4993:5301   */\n    tag_56:\n        /* \"#utility.yul\":5055:5059   */\n      0x00\n        /* \"#utility.yul\":5145:5163   */\n      0xffffffffffffffff\n        /* \"#utility.yul\":5137:5143   */\n      dup3\n        /* \"#utility.yul\":5134:5164   */\n      gt\n        /* \"#utility.yul\":5131:5187   */\n      iszero\n      tag_118\n      jumpi\n        /* \"#utility.yul\":5167:5185   */\n      tag_119\n      tag_53\n      jump\t// in\n    tag_119:\n        /* \"#utility.yul\":5131:5187   */\n    tag_118:\n        /* \"#utility.yul\":5205:5234   */\n      tag_120\n        /* \"#utility.yul\":5227:5233   */\n      dup3\n        /* \"#utility.yul\":5205:5234   */\n      tag_49\n      jump\t// in\n    tag_120:\n        /* \"#utility.yul\":5197:5234   */\n      swap1\n      pop\n        /* \"#utility.yul\":5289:5293   */\n      0x20\n        /* \"#utility.yul\":5283:5287   */\n      dup2\n        /* \"#utility.yul\":5279:5294   */\n      add\n        /* \"#utility.yul\":5271:5294   */\n      swap1\n      pop\n        /* \"#utility.yul\":4993:5301   */\n      swap2\n      swap1\n      pop\n      jump\t// out\n        /* \"#utility.yul\":5307:5741   */\n    tag_57:\n        /* \"#utility.yul\":5396:5401   */\n      0x00\n        /* \"#utility.yul\":5421:5487   */\n      tag_122\n        /* \"#utility.yul\":5437:5486   */\n      tag_123\n        /* \"#utility.yul\":5479:5485   */\n      dup5\n        /* \"#utility.yul\":5437:5486   */\n      tag_56\n      jump\t// in\n    tag_123:\n        /* \"#utility.yul\":5421:5487   */\n      tag_55\n      jump\t// in\n    tag_122:\n        /* \"#utility.yul\":5412:5487   */\n      swap1\n      pop\n        /* \"#utility.yul\":5510:5516   */\n      dup3\n        /* \"#utility.yul\":5503:5508   */\n      dup2\n        /* \"#utility.yul\":5496:5517   */\n      mstore\n        /* \"#utility.yul\":5548:5552   */\n      0x20\n        /* \"#utility.yul\":5541:5546   */\n      dup2\n        /* \"#utility.yul\":5537:5553   */\n      add\n        /* \"#utility.yul\":5586:5589   */\n      dup5\n        /* \"#utility.yul\":5577:5583   */\n      dup5\n        /* \"#utility.yul\":5572:5575   */\n      dup5\n        /* \"#utility.yul\":5568:5584   */\n      add\n        /* \"#utility.yul\":5565:5590   */\n      gt\n        /* \"#utility.yul\":5562:5674   */\n      iszero\n      tag_124\n      jumpi\n        /* \"#utility.yul\":5593:5672   */\n      tag_125\n      tag_52\n      jump\t// in\n    tag_125:\n        /* \"#utility.yul\":5562:5674   */\n    tag_124:\n        /* \"#utility.yul\":5683:5735   */\n      tag_126\n        /* \"#utility.yul\":5728:5734   */\n      dup5\n        /* \"#utility.yul\":5723:5726   */\n      dup3\n        /* \"#utility.yul\":5718:5721   */\n      dup6\n        /* \"#utility.yul\":5683:5735   */\n      tag_48\n      jump\t// in\n    tag_126:\n        /* \"#utility.yul\":5402:5741   */\n      pop\n        /* \"#utility.yul\":5307:5741   */\n      swap4\n      swap3\n      pop\n      pop\n      pop\n      jump\t// out\n        /* \"#utility.yul\":5761:6116   */\n    tag_58:\n        /* \"#utility.yul\":5828:5833   */\n      0x00\n        /* \"#utility.yul\":5877:5880   */\n      dup3\n        /* \"#utility.yul\":5870:5874   */\n      0x1f\n        /* \"#utility.yul\":5862:5868   */\n      dup4\n        /* \"#utility.yul\":5858:5875   */\n      add\n        /* \"#utility.yul\":5854:5881   */\n      slt\n        /* \"#utility.yul\":5844:5966   */\n      tag_128\n      jumpi\n        /* \"#utility.yul\":5885:5964   */\n      tag_129\n      tag_51\n      jump\t// in\n    tag_129:\n        /* \"#utility.yul\":5844:5966   */\n    tag_128:\n        /* \"#utility.yul\":5995:6001   */\n      dup2\n        /* \"#utility.yul\":5989:6002   */\n      mload\n        /* \"#utility.yul\":6020:6110   */\n      tag_130\n        /* \"#utility.yul\":6106:6109   */\n      dup5\n        /* \"#utility.yul\":6098:6104   */\n      dup3\n        /* \"#utility.yul\":6091:6095   */\n      0x20\n        /* \"#utility.yul\":6083:6089   */\n      dup7\n        /* \"#utility.yul\":6079:6096   */\n      add\n        /* \"#utility.yul\":6020:6110   */\n      tag_57\n      jump\t// in\n    tag_130:\n        /* \"#utility.yul\":6011:6110   */\n      swap2\n      pop\n        /* \"#utility.yul\":5834:6116   */\n      pop\n        /* \"#utility.yul\":5761:6116   */\n      swap3\n      swap2\n      pop\n      pop\n      jump\t// out\n        /* \"#utility.yul\":6122:6646   */\n    tag_29:\n        /* \"#utility.yul\":6202:6208   */\n      0x00\n        /* \"#utility.yul\":6251:6253   */\n      0x20\n        /* \"#utility.yul\":6239:6248   */\n      dup3\n        /* \"#utility.yul\":6230:6237   */\n      dup5\n        /* \"#utility.yul\":6226:6249   */\n      sub\n        /* \"#utility.yul\":6222:6254   */\n      slt\n        /* \"#utility.yul\":6219:6338   */\n      iszero\n      tag_132\n      jumpi\n        /* \"#utility.yul\":6257:6336   */\n      tag_133\n      tag_40\n      jump\t// in\n    tag_133:\n        /* \"#utility.yul\":6219:6338   */\n    tag_132:\n        /* \"#utility.yul\":6398:6399   */\n      0x00\n        /* \"#utility.yul\":6387:6396   */\n      dup3\n        /* \"#utility.yul\":6383:6400   */\n      add\n        /* \"#utility.yul\":6377:6401   */\n      mload\n        /* \"#utility.yul\":6428:6446   */\n      0xffffffffffffffff\n        /* \"#utility.yul\":6420:6426   */\n      dup2\n        /* \"#utility.yul\":6417:6447   */\n      gt\n        /* \"#utility.yul\":6414:6531   */\n      iszero\n      tag_134\n      jumpi\n        /* \"#utility.yul\":6450:6529   */\n      tag_135\n      tag_41\n      jump\t// in\n    tag_135:\n        /* \"#utility.yul\":6414:6531   */\n    tag_134:\n        /* \"#utility.yul\":6555:6629   */\n      tag_136\n        /* \"#utility.yul\":6621:6628   */\n      dup5\n        /* \"#utility.yul\":6612:6618   */\n      dup3\n        /* \"#utility.yul\":6601:6610   */\n      dup6\n        /* \"#utility.yul\":6597:6619   */\n      add\n        /* \"#utility.yul\":6555:6629   */\n      tag_58\n      jump\t// in\n    tag_136:\n        /* \"#utility.yul\":6545:6629   */\n      swap2\n      pop\n        /* \"#utility.yul\":6348:6639   */\n      pop\n        /* \"#utility.yul\":6122:6646   */\n      swap3\n      swap2\n      pop\n      pop\n      jump\t// out\n\n    auxdata: 0xa2646970667358221220a320b483ad8ab849e033446bc57b5a945b8c7be0c1ba424ed55013173292412764736f6c63430008110033\n}\n\nsub_1: assembly {\n        /* \"chapter2/Ex2_10.sol\":190:317  contract Tiger is Animal {... */\n      mstore(0x40, 0x80)\n      callvalue\n      dup1\n      iszero\n      tag_1\n      jumpi\n      0x00\n      dup1\n      revert\n    tag_1:\n      pop\n      dataSize(sub_0)\n      dup1\n      dataOffset(sub_0)\n      0x00\n      codecopy\n      0x00\n      return\n    stop\n\n    sub_0: assembly {\n            /* \"chapter2/Ex2_10.sol\":190:317  contract Tiger is Animal {... */\n          mstore(0x40, 0x80)\n          callvalue\n          dup1\n          iszero\n          tag_1\n          jumpi\n          0x00\n          dup1\n          revert\n        tag_1:\n          pop\n          jumpi(tag_2, lt(calldatasize, 0x04))\n          shr(0xe0, calldataload(0x00))\n          dup1\n          0x17d7de7c\n          eq\n          tag_3\n          jumpi\n        tag_2:\n          0x00\n          dup1\n          revert\n            /* \"chapter2/Ex2_10.sol\":221:315  function getName() public pure override returns(string memory) {... */\n        tag_3:\n          tag_4\n          tag_5\n          jump\t// in\n        tag_4:\n          mload(0x40)\n          tag_6\n          swap2\n          swap1\n          tag_7\n          jump\t// in\n        tag_6:\n          mload(0x40)\n          dup1\n          swap2\n          sub\n          swap1\n          return\n        tag_5:\n            /* \"chapter2/Ex2_10.sol\":269:282  string memory */\n          0x60\n            /* \"chapter2/Ex2_10.sol\":294:308  return \"Tiger\" */\n          mload(0x40)\n          dup1\n          0x40\n          add\n          0x40\n          mstore\n          dup1\n          0x05\n          dup2\n          mstore\n          0x20\n          add\n          0x5469676572000000000000000000000000000000000000000000000000000000\n          dup2\n          mstore\n          pop\n          swap1\n          pop\n            /* \"chapter2/Ex2_10.sol\":221:315  function getName() public pure override returns(string memory) {... */\n          swap1\n          jump\t// out\n            /* \"#utility.yul\":7:106   */\n        tag_9:\n            /* \"#utility.yul\":59:65   */\n          0x00\n            /* \"#utility.yul\":93:98   */\n          dup2\n            /* \"#utility.yul\":87:99   */\n          mload\n            /* \"#utility.yul\":77:99   */\n          swap1\n          pop\n            /* \"#utility.yul\":7:106   */\n          swap2\n          swap1\n          pop\n          jump\t// out\n            /* \"#utility.yul\":112:281   */\n        tag_10:\n            /* \"#utility.yul\":196:207   */\n          0x00\n            /* \"#utility.yul\":230:236   */\n          dup3\n            /* \"#utility.yul\":225:228   */\n          dup3\n            /* \"#utility.yul\":218:237   */\n          mstore\n            /* \"#utility.yul\":270:274   */\n          0x20\n            /* \"#utility.yul\":265:268   */\n          dup3\n            /* \"#utility.yul\":261:275   */\n          add\n            /* \"#utility.yul\":246:275   */\n          swap1\n          pop\n            /* \"#utility.yul\":112:281   */\n          swap3\n          swap2\n          pop\n          pop\n          jump\t// out\n            /* \"#utility.yul\":287:533   */\n        tag_11:\n            /* \"#utility.yul\":368:369   */\n          0x00\n            /* \"#utility.yul\":378:491   */\n        tag_18:\n            /* \"#utility.yul\":392:398   */\n          dup4\n            /* \"#utility.yul\":389:390   */\n          dup2\n            /* \"#utility.yul\":386:399   */\n          lt\n            /* \"#utility.yul\":378:491   */\n          iszero\n          tag_20\n          jumpi\n            /* \"#utility.yul\":477:478   */\n          dup1\n            /* \"#utility.yul\":472:475   */\n          dup3\n            /* \"#utility.yul\":468:479   */\n          add\n            /* \"#utility.yul\":462:480   */\n          mload\n            /* \"#utility.yul\":458:459   */\n          dup2\n            /* \"#utility.yul\":453:456   */\n          dup5\n            /* \"#utility.yul\":449:460   */\n          add\n            /* \"#utility.yul\":442:481   */\n          mstore\n            /* \"#utility.yul\":414:416   */\n          0x20\n            /* \"#utility.yul\":411:412   */\n          dup2\n            /* \"#utility.yul\":407:417   */\n          add\n            /* \"#utility.yul\":402:417   */\n          swap1\n          pop\n            /* \"#utility.yul\":378:491   */\n          jump(tag_18)\n        tag_20:\n            /* \"#utility.yul\":525:526   */\n          0x00\n            /* \"#utility.yul\":516:522   */\n          dup5\n            /* \"#utility.yul\":511:514   */\n          dup5\n            /* \"#utility.yul\":507:523   */\n          add\n            /* \"#utility.yul\":500:527   */\n          mstore\n            /* \"#utility.yul\":349:533   */\n          pop\n            /* \"#utility.yul\":287:533   */\n          pop\n          pop\n          pop\n          jump\t// out\n            /* \"#utility.yul\":539:641   */\n        tag_12:\n            /* \"#utility.yul\":580:586   */\n          0x00\n            /* \"#utility.yul\":631:633   */\n          0x1f\n            /* \"#utility.yul\":627:634   */\n          not\n            /* \"#utility.yul\":622:624   */\n          0x1f\n            /* \"#utility.yul\":615:620   */\n          dup4\n            /* \"#utility.yul\":611:625   */\n          add\n            /* \"#utility.yul\":607:635   */\n          and\n            /* \"#utility.yul\":597:635   */\n          swap1\n          pop\n            /* \"#utility.yul\":539:641   */\n          swap2\n          swap1\n          pop\n          jump\t// out\n            /* \"#utility.yul\":647:1024   */\n        tag_13:\n            /* \"#utility.yul\":735:738   */\n          0x00\n            /* \"#utility.yul\":763:802   */\n          tag_23\n            /* \"#utility.yul\":796:801   */\n          dup3\n            /* \"#utility.yul\":763:802   */\n          tag_9\n          jump\t// in\n        tag_23:\n            /* \"#utility.yul\":818:889   */\n          tag_24\n            /* \"#utility.yul\":882:888   */\n          dup2\n            /* \"#utility.yul\":877:880   */\n          dup6\n            /* \"#utility.yul\":818:889   */\n          tag_10\n          jump\t// in\n        tag_24:\n            /* \"#utility.yul\":811:889   */\n          swap4\n          pop\n            /* \"#utility.yul\":898:963   */\n          tag_25\n            /* \"#utility.yul\":956:962   */\n          dup2\n            /* \"#utility.yul\":951:954   */\n          dup6\n            /* \"#utility.yul\":944:948   */\n          0x20\n            /* \"#utility.yul\":937:942   */\n          dup7\n            /* \"#utility.yul\":933:949   */\n          add\n            /* \"#utility.yul\":898:963   */\n          tag_11\n          jump\t// in\n        tag_25:\n            /* \"#utility.yul\":988:1017   */\n          tag_26\n            /* \"#utility.yul\":1010:1016   */\n          dup2\n            /* \"#utility.yul\":988:1017   */\n          tag_12\n          jump\t// in\n        tag_26:\n            /* \"#utility.yul\":983:986   */\n          dup5\n            /* \"#utility.yul\":979:1018   */\n          add\n            /* \"#utility.yul\":972:1018   */\n          swap2\n          pop\n            /* \"#utility.yul\":739:1024   */\n          pop\n            /* \"#utility.yul\":647:1024   */\n          swap3\n          swap2\n          pop\n          pop\n          jump\t// out\n            /* \"#utility.yul\":1030:1343   */\n        tag_7:\n            /* \"#utility.yul\":1143:1147   */\n          0x00\n            /* \"#utility.yul\":1181:1183   */\n          0x20\n            /* \"#utility.yul\":1170:1179   */\n          dup3\n            /* \"#utility.yul\":1166:1184   */\n          add\n            /* \"#utility.yul\":1158:1184   */\n          swap1\n          pop\n            /* \"#utility.yul\":1230:1239   */\n          dup2\n            /* \"#utility.yul\":1224:1228   */\n          dup2\n            /* \"#utility.yul\":1220:1240   */\n          sub\n            /* \"#utility.yul\":1216:1217   */\n          0x00\n            /* \"#utility.yul\":1205:1214   */\n          dup4\n            /* \"#utility.yul\":1201:1218   */\n          add\n            /* \"#utility.yul\":1194:1241   */\n          mstore\n            /* \"#utility.yul\":1258:1336   */\n          tag_28\n            /* \"#utility.yul\":1331:1335   */\n          dup2\n            /* \"#utility.yul\":1322:1328   */\n          dup5\n            /* \"#utility.yul\":1258:1336   */\n          tag_13\n          jump\t// in\n        tag_28:\n            /* \"#utility.yul\":1250:1336   */\n          swap1\n          pop\n            /* \"#utility.yul\":1030:1343   */\n          swap3\n          swap2\n          pop\n          pop\n          jump\t// out\n\n        auxdata: 0xa2646970667358221220e63fbb73d2ef35599839260eaa94edc727842170a35cbde20f83e383948dda0564736f6c63430008110033\n    }\n}\n\nsub_2: assembly {\n        /* \"chapter2/Ex2_10.sol\":319:448  contract Turtle is Animal {... */\n      mstore(0x40, 0x80)\n      callvalue\n      dup1\n      iszero\n      tag_1\n      jumpi\n      0x00\n      dup1\n      revert\n    tag_1:\n      pop\n      dataSize(sub_0)\n      dup1\n      dataOffset(sub_0)\n      0x00\n      codecopy\n      0x00\n      return\n    stop\n\n    sub_0: assembly {\n            /* \"chapter2/Ex2_10.sol\":319:448  contract Turtle is Animal {... */\n          mstore(0x40, 0x80)\n          callvalue\n          dup1\n          iszero\n          tag_1\n          jumpi\n          0x00\n          dup1\n          revert\n        tag_1:\n          pop\n          jumpi(tag_2, lt(calldatasize, 0x04))\n          shr(0xe0, calldataload(0x00))\n          dup1\n          0x17d7de7c\n          eq\n          tag_3\n          jumpi\n        tag_2:\n          0x00\n          dup1\n          revert\n            /* \"chapter2/Ex2_10.sol\":351:446  function getName() public pure override returns(string memory) {... */\n        tag_3:\n          tag_4\n          tag_5\n          jump\t// in\n        tag_4:\n          mload(0x40)\n          tag_6\n          swap2\n          swap1\n          tag_7\n          jump\t// in\n        tag_6:\n          mload(0x40)\n          dup1\n          swap2\n          sub\n          swap1\n          return\n        tag_5:\n            /* \"chapter2/Ex2_10.sol\":399:412  string memory */\n          0x60\n            /* \"chapter2/Ex2_10.sol\":424:439  return \"Turtle\" */\n          mload(0x40)\n          dup1\n          0x40\n          add\n          0x40\n          mstore\n          dup1\n          0x06\n          dup2\n          mstore\n          0x20\n          add\n          0x547572746c650000000000000000000000000000000000000000000000000000\n          dup2\n          mstore\n          pop\n          swap1\n          pop\n            /* \"chapter2/Ex2_10.sol\":351:446  function getName() public pure override returns(string memory) {... */\n          swap1\n          jump\t// out\n            /* \"#utility.yul\":7:106   */\n        tag_9:\n            /* \"#utility.yul\":59:65   */\n          0x00\n            /* \"#utility.yul\":93:98   */\n          dup2\n            /* \"#utility.yul\":87:99   */\n          mload\n            /* \"#utility.yul\":77:99   */\n          swap1\n          pop\n            /* \"#utility.yul\":7:106   */\n          swap2\n          swap1\n          pop\n          jump\t// out\n            /* \"#utility.yul\":112:281   */\n        tag_10:\n            /* \"#utility.yul\":196:207   */\n          0x00\n            /* \"#utility.yul\":230:236   */\n          dup3\n            /* \"#utility.yul\":225:228   */\n          dup3\n            /* \"#utility.yul\":218:237   */\n          mstore\n            /* \"#utility.yul\":270:274   */\n          0x20\n            /* \"#utility.yul\":265:268   */\n          dup3\n            /* \"#utility.yul\":261:275   */\n          add\n            /* \"#utility.yul\":246:275   */\n          swap1\n          pop\n            /* \"#utility.yul\":112:281   */\n          swap3\n          swap2\n          pop\n          pop\n          jump\t// out\n            /* \"#utility.yul\":287:533   */\n        tag_11:\n            /* \"#utility.yul\":368:369   */\n          0x00\n            /* \"#utility.yul\":378:491   */\n        tag_18:\n            /* \"#utility.yul\":392:398   */\n          dup4\n            /* \"#utility.yul\":389:390   */\n          dup2\n            /* \"#utility.yul\":386:399   */\n          lt\n            /* \"#utility.yul\":378:491   */\n          iszero\n          tag_20\n          jumpi\n            /* \"#utility.yul\":477:478   */\n          dup1\n            /* \"#utility.yul\":472:475   */\n          dup3\n            /* \"#utility.yul\":468:479   */\n          add\n            /* \"#utility.yul\":462:480   */\n          mload\n            /* \"#utility.yul\":458:459   */\n          dup2\n            /* \"#utility.yul\":453:456   */\n          dup5\n            /* \"#utility.yul\":449:460   */\n          add\n            /* \"#utility.yul\":442:481   */\n          mstore\n            /* \"#utility.yul\":414:416   */\n          0x20\n            /* \"#utility.yul\":411:412   */\n          dup2\n            /* \"#utility.yul\":407:417   */\n          add\n            /* \"#utility.yul\":402:417   */\n          swap1\n          pop\n            /* \"#utility.yul\":378:491   */\n          jump(tag_18)\n        tag_20:\n            /* \"#utility.yul\":525:526   */\n          0x00\n            /* \"#utility.yul\":516:522   */\n          dup5\n            /* \"#utility.yul\":511:514   */\n          dup5\n            /* \"#utility.yul\":507:523   */\n          add\n            /* \"#utility.yul\":500:527   */\n          mstore\n            /* \"#utility.yul\":349:533   */\n          pop\n            /* \"#utility.yul\":287:533   */\n          pop\n          pop\n          pop\n          jump\t// out\n            /* \"#utility.yul\":539:641   */\n        tag_12:\n            /* \"#utility.yul\":580:586   */\n          0x00\n            /* \"#utility.yul\":631:633   */\n          0x1f\n            /* \"#utility.yul\":627:634   */\n          not\n            /* \"#utility.yul\":622:624   */\n          0x1f\n            /* \"#utility.yul\":615:620   */\n          dup4\n            /* \"#utility.yul\":611:625   */\n          add\n            /* \"#utility.yul\":607:635   */\n          and\n            /* \"#utility.yul\":597:635   */\n          swap1\n          pop\n            /* \"#utility.yul\":539:641   */\n          swap2\n          swap1\n          pop\n          jump\t// out\n            /* \"#utility.yul\":647:1024   */\n        tag_13:\n            /* \"#utility.yul\":735:738   */\n          0x00\n            /* \"#utility.yul\":763:802   */\n          tag_23\n            /* \"#utility.yul\":796:801   */\n          dup3\n            /* \"#utility.yul\":763:802   */\n          tag_9\n          jump\t// in\n        tag_23:\n            /* \"#utility.yul\":818:889   */\n          tag_24\n            /* \"#utility.yul\":882:888   */\n          dup2\n            /* \"#utility.yul\":877:880   */\n          dup6\n            /* \"#utility.yul\":818:889   */\n          tag_10\n          jump\t// in\n        tag_24:\n            /* \"#utility.yul\":811:889   */\n          swap4\n          pop\n            /* \"#utility.yul\":898:963   */\n          tag_25\n            /* \"#utility.yul\":956:962   */\n          dup2\n            /* \"#utility.yul\":951:954   */\n          dup6\n            /* \"#utility.yul\":944:948   */\n          0x20\n            /* \"#utility.yul\":937:942   */\n          dup7\n            /* \"#utility.yul\":933:949   */\n          add\n            /* \"#utility.yul\":898:963   */\n          tag_11\n          jump\t// in\n        tag_25:\n            /* \"#utility.yul\":988:1017   */\n          tag_26\n            /* \"#utility.yul\":1010:1016   */\n          dup2\n            /* \"#utility.yul\":988:1017   */\n          tag_12\n          jump\t// in\n        tag_26:\n            /* \"#utility.yul\":983:986   */\n          dup5\n            /* \"#utility.yul\":979:1018   */\n          add\n            /* \"#utility.yul\":972:1018   */\n          swap2\n          pop\n            /* \"#utility.yul\":739:1024   */\n          pop\n            /* \"#utility.yul\":647:1024   */\n          swap3\n          swap2\n          pop\n          pop\n          jump\t// out\n            /* \"#utility.yul\":1030:1343   */\n        tag_7:\n            /* \"#utility.yul\":1143:1147   */\n          0x00\n            /* \"#utility.yul\":1181:1183   */\n          0x20\n            /* \"#utility.yul\":1170:1179   */\n          dup3\n            /* \"#utility.yul\":1166:1184   */\n          add\n            /* \"#utility.yul\":1158:1184   */\n          swap1\n          pop\n            /* \"#utility.yul\":1230:1239   */\n          dup2\n            /* \"#utility.yul\":1224:1228   */\n          dup2\n            /* \"#utility.yul\":1220:1240   */\n          sub\n            /* \"#utility.yul\":1216:1217   */\n          0x00\n            /* \"#utility.yul\":1205:1214   */\n          dup4\n            /* \"#utility.yul\":1201:1218   */\n          add\n            /* \"#utility.yul\":1194:1241   */\n          mstore\n            /* \"#utility.yul\":1258:1336   */\n          tag_28\n            /* \"#utility.yul\":1331:1335   */\n          dup2\n            /* \"#utility.yul\":1322:1328   */\n          dup5\n            /* \"#utility.yul\":1258:1336   */\n          tag_13\n          jump\t// in\n        tag_28:\n            /* \"#utility.yul\":1250:1336   */\n          swap1\n          pop\n            /* \"#utility.yul\":1030:1343   */\n          swap3\n          swap2\n          pop\n          pop\n          jump\t// out\n\n        auxdata: 0xa264697066735822122028afeb3d4fb672420e825efa51c87bd6952fa4932c65d6aa5342a915a7989ffa64736f6c63430008110033\n    }\n}\n",
				"bytecode": {
					"linkReferences": {},
					"object": "6080604052604051610010906100e7565b604051809103906000f08015801561002c573d6000803e3d6000fd5b506000806101000a81548173ffffffffffffffffffffffffffffffffffffffff021916908373ffffffffffffffffffffffffffffffffffffffff160217905550604051610078906100f4565b604051809103906000f080158015610094573d6000803e3d6000fd5b50600160006101000a81548173ffffffffffffffffffffffffffffffffffffffff021916908373ffffffffffffffffffffffffffffffffffffffff1602179055503480156100e157600080fd5b50610101565b6101938061072b83390190565b610193806108be83390190565b61061b806101106000396000f3fe608060405234801561001057600080fd5b506004361061004c5760003560e01c806344d333ff146100515780635d4220321461006f5780639266ad161461008d578063fb825e5f146100bd575b600080fd5b6100596100dc565b60405161006691906102e1565b60405180910390f35b610077610100565b60405161008491906102e1565b60405180910390f35b6100a760048036038101906100a29190610360565b610126565b6040516100b4919061041d565b60405180910390f35b6100c561012d565b6040516100d392919061043f565b60405180910390f35b60008054906101000a900473ffffffffffffffffffffffffffffffffffffffff1681565b600160009054906101000a900473ffffffffffffffffffffffffffffffffffffffff1681565b6060919050565b60608060008054906101000a900473ffffffffffffffffffffffffffffffffffffffff1673ffffffffffffffffffffffffffffffffffffffff166317d7de7c6040518163ffffffff1660e01b8152600401600060405180830381865afa15801561019b573d6000803e3d6000fd5b505050506040513d6000823e3d601f19601f820116820180604052508101906101c4919061059c565b600160009054906101000a900473ffffffffffffffffffffffffffffffffffffffff1673ffffffffffffffffffffffffffffffffffffffff166317d7de7c6040518163ffffffff1660e01b8152600401600060405180830381865afa158015610231573d6000803e3d6000fd5b505050506040513d6000823e3d601f19601f8201168201806040525081019061025a919061059c565b915091509091565b600073ffffffffffffffffffffffffffffffffffffffff82169050919050565b6000819050919050565b60006102a76102a261029d84610262565b610282565b610262565b9050919050565b60006102b98261028c565b9050919050565b60006102cb826102ae565b9050919050565b6102db816102c0565b82525050565b60006020820190506102f660008301846102d2565b92915050565b6000604051905090565b600080fd5b600080fd5b600061031b82610262565b9050919050565b600061032d82610310565b9050919050565b61033d81610322565b811461034857600080fd5b50565b60008135905061035a81610334565b92915050565b60006020828403121561037657610375610306565b5b60006103848482850161034b565b91505092915050565b600081519050919050565b600082825260208201905092915050565b60005b838110156103c75780820151818401526020810190506103ac565b60008484015250505050565b6000601f19601f8301169050919050565b60006103ef8261038d565b6103f98185610398565b93506104098185602086016103a9565b610412816103d3565b840191505092915050565b6000602082019050818103600083015261043781846103e4565b905092915050565b6000604082019050818103600083015261045981856103e4565b9050818103602083015261046d81846103e4565b90509392505050565b600080fd5b600080fd5b7f4e487b7100000000000000000000000000000000000000000000000000000000600052604160045260246000fd5b6104b8826103d3565b810181811067ffffffffffffffff821117156104d7576104d6610480565b5b80604052505050565b60006104ea6102fc565b90506104f682826104af565b919050565b600067ffffffffffffffff82111561051657610515610480565b5b61051f826103d3565b9050602081019050919050565b600061053f61053a846104fb565b6104e0565b90508281526020810184848401111561055b5761055a61047b565b5b6105668482856103a9565b509392505050565b600082601f83011261058357610582610476565b5b815161059384826020860161052c565b91505092915050565b6000602082840312156105b2576105b1610306565b5b600082015167ffffffffffffffff8111156105d0576105cf61030b565b5b6105dc8482850161056e565b9150509291505056fea2646970667358221220a320b483ad8ab849e033446bc57b5a945b8c7be0c1ba424ed55013173292412764736f6c63430008110033608060405234801561001057600080fd5b50610173806100206000396000f3fe608060405234801561001057600080fd5b506004361061002b5760003560e01c806317d7de7c14610030575b600080fd5b61003861004e565b604051610045919061011b565b60405180910390f35b60606040518060400160405280600581526020017f5469676572000000000000000000000000000000000000000000000000000000815250905090565b600081519050919050565b600082825260208201905092915050565b60005b838110156100c55780820151818401526020810190506100aa565b60008484015250505050565b6000601f19601f8301169050919050565b60006100ed8261008b565b6100f78185610096565b93506101078185602086016100a7565b610110816100d1565b840191505092915050565b6000602082019050818103600083015261013581846100e2565b90509291505056fea2646970667358221220e63fbb73d2ef35599839260eaa94edc727842170a35cbde20f83e383948dda0564736f6c63430008110033608060405234801561001057600080fd5b50610173806100206000396000f3fe608060405234801561001057600080fd5b506004361061002b5760003560e01c806317d7de7c14610030575b600080fd5b61003861004e565b604051610045919061011b565b60405180910390f35b60606040518060400160405280600681526020017f547572746c650000000000000000000000000000000000000000000000000000815250905090565b600081519050919050565b600082825260208201905092915050565b60005b838110156100c55780820151818401526020810190506100aa565b60008484015250505050565b6000601f19601f8301169050919050565b60006100ed8261008b565b6100f78185610096565b93506101078185602086016100a7565b610110816100d1565b840191505092915050565b6000602082019050818103600083015261013581846100e2565b90509291505056fea264697066735822122028afeb3d4fb672420e825efa51c87bd6952fa4932c65d6aa5342a915a7989ffa64736f6c63430008110033",
					"opcodes": "PUSH1 0x80 PUSH1 0x40 MSTORE PUSH1 0x40 MLOAD PUSH2 0x10 SWAP1 PUSH2 0xE7 JUMP JUMPDEST PUSH1 0x40 MLOAD DUP1 SWAP2 SUB SWAP1 PUSH1 0x0 CREATE DUP1 ISZERO DUP1 ISZERO PUSH2 0x2C JUMPI RETURNDATASIZE PUSH1 0x0 DUP1 RETURNDATACOPY RETURNDATASIZE PUSH1 0x0 REVERT JUMPDEST POP PUSH1 0x0 DUP1 PUSH2 0x100 EXP DUP2 SLOAD DUP2 PUSH20 0xFFFFFFFFFFFFFFFFFFFFFFFFFFFFFFFFFFFFFFFF MUL NOT AND SWAP1 DUP4 PUSH20 0xFFFFFFFFFFFFFFFFFFFFFFFFFFFFFFFFFFFFFFFF AND MUL OR SWAP1 SSTORE POP PUSH1 0x40 MLOAD PUSH2 0x78 SWAP1 PUSH2 0xF4 JUMP JUMPDEST PUSH1 0x40 MLOAD DUP1 SWAP2 SUB SWAP1 PUSH1 0x0 CREATE DUP1 ISZERO DUP1 ISZERO PUSH2 0x94 JUMPI RETURNDATASIZE PUSH1 0x0 DUP1 RETURNDATACOPY RETURNDATASIZE PUSH1 0x0 REVERT JUMPDEST POP PUSH1 0x1 PUSH1 0x0 PUSH2 0x100 EXP DUP2 SLOAD DUP2 PUSH20 0xFFFFFFFFFFFFFFFFFFFFFFFFFFFFFFFFFFFFFFFF MUL NOT AND SWAP1 DUP4 PUSH20 0xFFFFFFFFFFFFFFFFFFFFFFFFFFFFFFFFFFFFFFFF AND MUL OR SWAP1 SSTORE POP CALLVALUE DUP1 ISZERO PUSH2 0xE1 JUMPI PUSH1 0x0 DUP1 REVERT JUMPDEST POP PUSH2 0x101 JUMP JUMPDEST PUSH2 0x193 DUP1 PUSH2 0x72B DUP4 CODECOPY ADD SWAP1 JUMP JUMPDEST PUSH2 0x193 DUP1 PUSH2 0x8BE DUP4 CODECOPY ADD SWAP1 JUMP JUMPDEST PUSH2 0x61B DUP1 PUSH2 0x110 PUSH1 0x0 CODECOPY PUSH1 0x0 RETURN INVALID PUSH1 0x80 PUSH1 0x40 MSTORE CALLVALUE DUP1 ISZERO PUSH2 0x10 JUMPI PUSH1 0x0 DUP1 REVERT JUMPDEST POP PUSH1 0x4 CALLDATASIZE LT PUSH2 0x4C JUMPI PUSH1 0x0 CALLDATALOAD PUSH1 0xE0 SHR DUP1 PUSH4 0x44D333FF EQ PUSH2 0x51 JUMPI DUP1 PUSH4 0x5D422032 EQ PUSH2 0x6F JUMPI DUP1 PUSH4 0x9266AD16 EQ PUSH2 0x8D JUMPI DUP1 PUSH4 0xFB825E5F EQ PUSH2 0xBD JUMPI JUMPDEST PUSH1 0x0 DUP1 REVERT JUMPDEST PUSH2 0x59 PUSH2 0xDC JUMP JUMPDEST PUSH1 0x40 MLOAD PUSH2 0x66 SWAP2 SWAP1 PUSH2 0x2E1 JUMP JUMPDEST PUSH1 0x40 MLOAD DUP1 SWAP2 SUB SWAP1 RETURN JUMPDEST PUSH2 0x77 PUSH2 0x100 JUMP JUMPDEST PUSH1 0x40 MLOAD PUSH2 0x84 SWAP2 SWAP1 PUSH2 0x2E1 JUMP JUMPDEST PUSH1 0x40 MLOAD DUP1 SWAP2 SUB SWAP1 RETURN JUMPDEST PUSH2 0xA7 PUSH1 0x4 DUP1 CALLDATASIZE SUB DUP2 ADD SWAP1 PUSH2 0xA2 SWAP2 SWAP1 PUSH2 0x360 JUMP JUMPDEST PUSH2 0x126 JUMP JUMPDEST PUSH1 0x40 MLOAD PUSH2 0xB4 SWAP2 SWAP1 PUSH2 0x41D JUMP JUMPDEST PUSH1 0x40 MLOAD DUP1 SWAP2 SUB SWAP1 RETURN JUMPDEST PUSH2 0xC5 PUSH2 0x12D JUMP JUMPDEST PUSH1 0x40 MLOAD PUSH2 0xD3 SWAP3 SWAP2 SWAP1 PUSH2 0x43F JUMP JUMPDEST PUSH1 0x40 MLOAD DUP1 SWAP2 SUB SWAP1 RETURN JUMPDEST PUSH1 0x0 DUP1 SLOAD SWAP1 PUSH2 0x100 EXP SWAP1 DIV PUSH20 0xFFFFFFFFFFFFFFFFFFFFFFFFFFFFFFFFFFFFFFFF AND DUP2 JUMP JUMPDEST PUSH1 0x1 PUSH1 0x0 SWAP1 SLOAD SWAP1 PUSH2 0x100 EXP SWAP1 DIV PUSH20 0xFFFFFFFFFFFFFFFFFFFFFFFFFFFFFFFFFFFFFFFF AND DUP2 JUMP JUMPDEST PUSH1 0x60 SWAP2 SWAP1 POP JUMP JUMPDEST PUSH1 0x60 DUP1 PUSH1 0x0 DUP1 SLOAD SWAP1 PUSH2 0x100 EXP SWAP1 DIV PUSH20 0xFFFFFFFFFFFFFFFFFFFFFFFFFFFFFFFFFFFFFFFF AND PUSH20 0xFFFFFFFFFFFFFFFFFFFFFFFFFFFFFFFFFFFFFFFF AND PUSH4 0x17D7DE7C PUSH1 0x40 MLOAD DUP2 PUSH4 0xFFFFFFFF AND PUSH1 0xE0 SHL DUP2 MSTORE PUSH1 0x4 ADD PUSH1 0x0 PUSH1 0x40 MLOAD DUP1 DUP4 SUB DUP2 DUP7 GAS STATICCALL ISZERO DUP1 ISZERO PUSH2 0x19B JUMPI RETURNDATASIZE PUSH1 0x0 DUP1 RETURNDATACOPY RETURNDATASIZE PUSH1 0x0 REVERT JUMPDEST POP POP POP POP PUSH1 0x40 MLOAD RETURNDATASIZE PUSH1 0x0 DUP3 RETURNDATACOPY RETURNDATASIZE PUSH1 0x1F NOT PUSH1 0x1F DUP3 ADD AND DUP3 ADD DUP1 PUSH1 0x40 MSTORE POP DUP2 ADD SWAP1 PUSH2 0x1C4 SWAP2 SWAP1 PUSH2 0x59C JUMP JUMPDEST PUSH1 0x1 PUSH1 0x0 SWAP1 SLOAD SWAP1 PUSH2 0x100 EXP SWAP1 DIV PUSH20 0xFFFFFFFFFFFFFFFFFFFFFFFFFFFFFFFFFFFFFFFF AND PUSH20 0xFFFFFFFFFFFFFFFFFFFFFFFFFFFFFFFFFFFFFFFF AND PUSH4 0x17D7DE7C PUSH1 0x40 MLOAD DUP2 PUSH4 0xFFFFFFFF AND PUSH1 0xE0 SHL DUP2 MSTORE PUSH1 0x4 ADD PUSH1 0x0 PUSH1 0x40 MLOAD DUP1 DUP4 SUB DUP2 DUP7 GAS STATICCALL ISZERO DUP1 ISZERO PUSH2 0x231 JUMPI RETURNDATASIZE PUSH1 0x0 DUP1 RETURNDATACOPY RETURNDATASIZE PUSH1 0x0 REVERT JUMPDEST POP POP POP POP PUSH1 0x40 MLOAD RETURNDATASIZE PUSH1 0x0 DUP3 RETURNDATACOPY RETURNDATASIZE PUSH1 0x1F NOT PUSH1 0x1F DUP3 ADD AND DUP3 ADD DUP1 PUSH1 0x40 MSTORE POP DUP2 ADD SWAP1 PUSH2 0x25A SWAP2 SWAP1 PUSH2 0x59C JUMP JUMPDEST SWAP2 POP SWAP2 POP SWAP1 SWAP2 JUMP JUMPDEST PUSH1 0x0 PUSH20 0xFFFFFFFFFFFFFFFFFFFFFFFFFFFFFFFFFFFFFFFF DUP3 AND SWAP1 POP SWAP2 SWAP1 POP JUMP JUMPDEST PUSH1 0x0 DUP2 SWAP1 POP SWAP2 SWAP1 POP JUMP JUMPDEST PUSH1 0x0 PUSH2 0x2A7 PUSH2 0x2A2 PUSH2 0x29D DUP5 PUSH2 0x262 JUMP JUMPDEST PUSH2 0x282 JUMP JUMPDEST PUSH2 0x262 JUMP JUMPDEST SWAP1 POP SWAP2 SWAP1 POP JUMP JUMPDEST PUSH1 0x0 PUSH2 0x2B9 DUP3 PUSH2 0x28C JUMP JUMPDEST SWAP1 POP SWAP2 SWAP1 POP JUMP JUMPDEST PUSH1 0x0 PUSH2 0x2CB DUP3 PUSH2 0x2AE JUMP JUMPDEST SWAP1 POP SWAP2 SWAP1 POP JUMP JUMPDEST PUSH2 0x2DB DUP2 PUSH2 0x2C0 JUMP JUMPDEST DUP3 MSTORE POP POP JUMP JUMPDEST PUSH1 0x0 PUSH1 0x20 DUP3 ADD SWAP1 POP PUSH2 0x2F6 PUSH1 0x0 DUP4 ADD DUP5 PUSH2 0x2D2 JUMP JUMPDEST SWAP3 SWAP2 POP POP JUMP JUMPDEST PUSH1 0x0 PUSH1 0x40 MLOAD SWAP1 POP SWAP1 JUMP JUMPDEST PUSH1 0x0 DUP1 REVERT JUMPDEST PUSH1 0x0 DUP1 REVERT JUMPDEST PUSH1 0x0 PUSH2 0x31B DUP3 PUSH2 0x262 JUMP JUMPDEST SWAP1 POP SWAP2 SWAP1 POP JUMP JUMPDEST PUSH1 0x0 PUSH2 0x32D DUP3 PUSH2 0x310 JUMP JUMPDEST SWAP1 POP SWAP2 SWAP1 POP JUMP JUMPDEST PUSH2 0x33D DUP2 PUSH2 0x322 JUMP JUMPDEST DUP2 EQ PUSH2 0x348 JUMPI PUSH1 0x0 DUP1 REVERT JUMPDEST POP JUMP JUMPDEST PUSH1 0x0 DUP2 CALLDATALOAD SWAP1 POP PUSH2 0x35A DUP2 PUSH2 0x334 JUMP JUMPDEST SWAP3 SWAP2 POP POP JUMP JUMPDEST PUSH1 0x0 PUSH1 0x20 DUP3 DUP5 SUB SLT ISZERO PUSH2 0x376 JUMPI PUSH2 0x375 PUSH2 0x306 JUMP JUMPDEST JUMPDEST PUSH1 0x0 PUSH2 0x384 DUP5 DUP3 DUP6 ADD PUSH2 0x34B JUMP JUMPDEST SWAP2 POP POP SWAP3 SWAP2 POP POP JUMP JUMPDEST PUSH1 0x0 DUP2 MLOAD SWAP1 POP SWAP2 SWAP1 POP JUMP JUMPDEST PUSH1 0x0 DUP3 DUP3 MSTORE PUSH1 0x20 DUP3 ADD SWAP1 POP SWAP3 SWAP2 POP POP JUMP JUMPDEST PUSH1 0x0 JUMPDEST DUP4 DUP2 LT ISZERO PUSH2 0x3C7 JUMPI DUP1 DUP3 ADD MLOAD DUP2 DUP5 ADD MSTORE PUSH1 0x20 DUP2 ADD SWAP1 POP PUSH2 0x3AC JUMP JUMPDEST PUSH1 0x0 DUP5 DUP5 ADD MSTORE POP POP POP POP JUMP JUMPDEST PUSH1 0x0 PUSH1 0x1F NOT PUSH1 0x1F DUP4 ADD AND SWAP1 POP SWAP2 SWAP1 POP JUMP JUMPDEST PUSH1 0x0 PUSH2 0x3EF DUP3 PUSH2 0x38D JUMP JUMPDEST PUSH2 0x3F9 DUP2 DUP6 PUSH2 0x398 JUMP JUMPDEST SWAP4 POP PUSH2 0x409 DUP2 DUP6 PUSH1 0x20 DUP7 ADD PUSH2 0x3A9 JUMP JUMPDEST PUSH2 0x412 DUP2 PUSH2 0x3D3 JUMP JUMPDEST DUP5 ADD SWAP2 POP POP SWAP3 SWAP2 POP POP JUMP JUMPDEST PUSH1 0x0 PUSH1 0x20 DUP3 ADD SWAP1 POP DUP2 DUP2 SUB PUSH1 0x0 DUP4 ADD MSTORE PUSH2 0x437 DUP2 DUP5 PUSH2 0x3E4 JUMP JUMPDEST SWAP1 POP SWAP3 SWAP2 POP POP JUMP JUMPDEST PUSH1 0x0 PUSH1 0x40 DUP3 ADD SWAP1 POP DUP2 DUP2 SUB PUSH1 0x0 DUP4 ADD MSTORE PUSH2 0x459 DUP2 DUP6 PUSH2 0x3E4 JUMP JUMPDEST SWAP1 POP DUP2 DUP2 SUB PUSH1 0x20 DUP4 ADD MSTORE PUSH2 0x46D DUP2 DUP5 PUSH2 0x3E4 JUMP JUMPDEST SWAP1 POP SWAP4 SWAP3 POP POP POP JUMP JUMPDEST PUSH1 0x0 DUP1 REVERT JUMPDEST PUSH1 0x0 DUP1 REVERT JUMPDEST PUSH32 0x4E487B7100000000000000000000000000000000000000000000000000000000 PUSH1 0x0 MSTORE PUSH1 0x41 PUSH1 0x4 MSTORE PUSH1 0x24 PUSH1 0x0 REVERT JUMPDEST PUSH2 0x4B8 DUP3 PUSH2 0x3D3 JUMP JUMPDEST DUP2 ADD DUP2 DUP2 LT PUSH8 0xFFFFFFFFFFFFFFFF DUP3 GT OR ISZERO PUSH2 0x4D7 JUMPI PUSH2 0x4D6 PUSH2 0x480 JUMP JUMPDEST JUMPDEST DUP1 PUSH1 0x40 MSTORE POP POP POP JUMP JUMPDEST PUSH1 0x0 PUSH2 0x4EA PUSH2 0x2FC JUMP JUMPDEST SWAP1 POP PUSH2 0x4F6 DUP3 DUP3 PUSH2 0x4AF JUMP JUMPDEST SWAP2 SWAP1 POP JUMP JUMPDEST PUSH1 0x0 PUSH8 0xFFFFFFFFFFFFFFFF DUP3 GT ISZERO PUSH2 0x516 JUMPI PUSH2 0x515 PUSH2 0x480 JUMP JUMPDEST JUMPDEST PUSH2 0x51F DUP3 PUSH2 0x3D3 JUMP JUMPDEST SWAP1 POP PUSH1 0x20 DUP2 ADD SWAP1 POP SWAP2 SWAP1 POP JUMP JUMPDEST PUSH1 0x0 PUSH2 0x53F PUSH2 0x53A DUP5 PUSH2 0x4FB JUMP JUMPDEST PUSH2 0x4E0 JUMP JUMPDEST SWAP1 POP DUP3 DUP2 MSTORE PUSH1 0x20 DUP2 ADD DUP5 DUP5 DUP5 ADD GT ISZERO PUSH2 0x55B JUMPI PUSH2 0x55A PUSH2 0x47B JUMP JUMPDEST JUMPDEST PUSH2 0x566 DUP5 DUP3 DUP6 PUSH2 0x3A9 JUMP JUMPDEST POP SWAP4 SWAP3 POP POP POP JUMP JUMPDEST PUSH1 0x0 DUP3 PUSH1 0x1F DUP4 ADD SLT PUSH2 0x583 JUMPI PUSH2 0x582 PUSH2 0x476 JUMP JUMPDEST JUMPDEST DUP2 MLOAD PUSH2 0x593 DUP5 DUP3 PUSH1 0x20 DUP7 ADD PUSH2 0x52C JUMP JUMPDEST SWAP2 POP POP SWAP3 SWAP2 POP POP JUMP JUMPDEST PUSH1 0x0 PUSH1 0x20 DUP3 DUP5 SUB SLT ISZERO PUSH2 0x5B2 JUMPI PUSH2 0x5B1 PUSH2 0x306 JUMP JUMPDEST JUMPDEST PUSH1 0x0 DUP3 ADD MLOAD PUSH8 0xFFFFFFFFFFFFFFFF DUP2 GT ISZERO PUSH2 0x5D0 JUMPI PUSH2 0x5CF PUSH2 0x30B JUMP JUMPDEST JUMPDEST PUSH2 0x5DC DUP5 DUP3 DUP6 ADD PUSH2 0x56E JUMP JUMPDEST SWAP2 POP POP SWAP3 SWAP2 POP POP JUMP INVALID LOG2 PUSH5 0x6970667358 0x22 SLT KECCAK256 LOG3 KECCAK256 0xB4 DUP4 0xAD DUP11 0xB8 0x49 0xE0 CALLER DIFFICULTY PUSH12 0xC57B5A945B8C7BE0C1BA424E 0xD5 POP SGT OR ORIGIN SWAP3 COINBASE 0x27 PUSH5 0x736F6C6343 STOP ADDMOD GT STOP CALLER PUSH1 0x80 PUSH1 0x40 MSTORE CALLVALUE DUP1 ISZERO PUSH2 0x10 JUMPI PUSH1 0x0 DUP1 REVERT JUMPDEST POP PUSH2 0x173 DUP1 PUSH2 0x20 PUSH1 0x0 CODECOPY PUSH1 0x0 RETURN INVALID PUSH1 0x80 PUSH1 0x40 MSTORE CALLVALUE DUP1 ISZERO PUSH2 0x10 JUMPI PUSH1 0x0 DUP1 REVERT JUMPDEST POP PUSH1 0x4 CALLDATASIZE LT PUSH2 0x2B JUMPI PUSH1 0x0 CALLDATALOAD PUSH1 0xE0 SHR DUP1 PUSH4 0x17D7DE7C EQ PUSH2 0x30 JUMPI JUMPDEST PUSH1 0x0 DUP1 REVERT JUMPDEST PUSH2 0x38 PUSH2 0x4E JUMP JUMPDEST PUSH1 0x40 MLOAD PUSH2 0x45 SWAP2 SWAP1 PUSH2 0x11B JUMP JUMPDEST PUSH1 0x40 MLOAD DUP1 SWAP2 SUB SWAP1 RETURN JUMPDEST PUSH1 0x60 PUSH1 0x40 MLOAD DUP1 PUSH1 0x40 ADD PUSH1 0x40 MSTORE DUP1 PUSH1 0x5 DUP2 MSTORE PUSH1 0x20 ADD PUSH32 0x5469676572000000000000000000000000000000000000000000000000000000 DUP2 MSTORE POP SWAP1 POP SWAP1 JUMP JUMPDEST PUSH1 0x0 DUP2 MLOAD SWAP1 POP SWAP2 SWAP1 POP JUMP JUMPDEST PUSH1 0x0 DUP3 DUP3 MSTORE PUSH1 0x20 DUP3 ADD SWAP1 POP SWAP3 SWAP2 POP POP JUMP JUMPDEST PUSH1 0x0 JUMPDEST DUP4 DUP2 LT ISZERO PUSH2 0xC5 JUMPI DUP1 DUP3 ADD MLOAD DUP2 DUP5 ADD MSTORE PUSH1 0x20 DUP2 ADD SWAP1 POP PUSH2 0xAA JUMP JUMPDEST PUSH1 0x0 DUP5 DUP5 ADD MSTORE POP POP POP POP JUMP JUMPDEST PUSH1 0x0 PUSH1 0x1F NOT PUSH1 0x1F DUP4 ADD AND SWAP1 POP SWAP2 SWAP1 POP JUMP JUMPDEST PUSH1 0x0 PUSH2 0xED DUP3 PUSH2 0x8B JUMP JUMPDEST PUSH2 0xF7 DUP2 DUP6 PUSH2 0x96 JUMP JUMPDEST SWAP4 POP PUSH2 0x107 DUP2 DUP6 PUSH1 0x20 DUP7 ADD PUSH2 0xA7 JUMP JUMPDEST PUSH2 0x110 DUP2 PUSH2 0xD1 JUMP JUMPDEST DUP5 ADD SWAP2 POP POP SWAP3 SWAP2 POP POP JUMP JUMPDEST PUSH1 0x0 PUSH1 0x20 DUP3 ADD SWAP1 POP DUP2 DUP2 SUB PUSH1 0x0 DUP4 ADD MSTORE PUSH2 0x135 DUP2 DUP5 PUSH2 0xE2 JUMP JUMPDEST SWAP1 POP SWAP3 SWAP2 POP POP JUMP INVALID LOG2 PUSH5 0x6970667358 0x22 SLT KECCAK256 0xE6 EXTCODEHASH 0xBB PUSH20 0xD2EF35599839260EAA94EDC727842170A35CBDE2 0xF DUP4 0xE3 DUP4 SWAP5 DUP14 0xDA SDIV PUSH5 0x736F6C6343 STOP ADDMOD GT STOP CALLER PUSH1 0x80 PUSH1 0x40 MSTORE CALLVALUE DUP1 ISZERO PUSH2 0x10 JUMPI PUSH1 0x0 DUP1 REVERT JUMPDEST POP PUSH2 0x173 DUP1 PUSH2 0x20 PUSH1 0x0 CODECOPY PUSH1 0x0 RETURN INVALID PUSH1 0x80 PUSH1 0x40 MSTORE CALLVALUE DUP1 ISZERO PUSH2 0x10 JUMPI PUSH1 0x0 DUP1 REVERT JUMPDEST POP PUSH1 0x4 CALLDATASIZE LT PUSH2 0x2B JUMPI PUSH1 0x0 CALLDATALOAD PUSH1 0xE0 SHR DUP1 PUSH4 0x17D7DE7C EQ PUSH2 0x30 JUMPI JUMPDEST PUSH1 0x0 DUP1 REVERT JUMPDEST PUSH2 0x38 PUSH2 0x4E JUMP JUMPDEST PUSH1 0x40 MLOAD PUSH2 0x45 SWAP2 SWAP1 PUSH2 0x11B JUMP JUMPDEST PUSH1 0x40 MLOAD DUP1 SWAP2 SUB SWAP1 RETURN JUMPDEST PUSH1 0x60 PUSH1 0x40 MLOAD DUP1 PUSH1 0x40 ADD PUSH1 0x40 MSTORE DUP1 PUSH1 0x6 DUP2 MSTORE PUSH1 0x20 ADD PUSH32 0x547572746C650000000000000000000000000000000000000000000000000000 DUP2 MSTORE POP SWAP1 POP SWAP1 JUMP JUMPDEST PUSH1 0x0 DUP2 MLOAD SWAP1 POP SWAP2 SWAP1 POP JUMP JUMPDEST PUSH1 0x0 DUP3 DUP3 MSTORE PUSH1 0x20 DUP3 ADD SWAP1 POP SWAP3 SWAP2 POP POP JUMP JUMPDEST PUSH1 0x0 JUMPDEST DUP4 DUP2 LT ISZERO PUSH2 0xC5 JUMPI DUP1 DUP3 ADD MLOAD DUP2 DUP5 ADD MSTORE PUSH1 0x20 DUP2 ADD SWAP1 POP PUSH2 0xAA JUMP JUMPDEST PUSH1 0x0 DUP5 DUP5 ADD MSTORE POP POP POP POP JUMP JUMPDEST PUSH1 0x0 PUSH1 0x1F NOT PUSH1 0x1F DUP4 ADD AND SWAP1 POP SWAP2 SWAP1 POP JUMP JUMPDEST PUSH1 0x0 PUSH2 0xED DUP3 PUSH2 0x8B JUMP JUMPDEST PUSH2 0xF7 DUP2 DUP6 PUSH2 0x96 JUMP JUMPDEST SWAP4 POP PUSH2 0x107 DUP2 DUP6 PUSH1 0x20 DUP7 ADD PUSH2 0xA7 JUMP JUMPDEST PUSH2 0x110 DUP2 PUSH2 0xD1 JUMP JUMPDEST DUP5 ADD SWAP2 POP POP SWAP3 SWAP2 POP POP JUMP JUMPDEST PUSH1 0x0 PUSH1 0x20 DUP3 ADD SWAP1 POP DUP2 DUP2 SUB PUSH1 0x0 DUP4 ADD MSTORE PUSH2 0x135 DUP2 DUP5 PUSH2 0xE2 JUMP JUMPDEST SWAP1 POP SWAP3 SWAP2 POP POP JUMP INVALID LOG2 PUSH5 0x6970667358 0x22 SLT KECCAK256 0x28 0xAF 0xEB RETURNDATASIZE 0x4F 0xB6 PUSH19 0x420E825EFA51C87BD6952FA4932C65D6AA5342 0xA9 ISZERO 0xA7 SWAP9 SWAP16 STATICCALL PUSH5 0x736F6C6343 STOP ADDMOD GT STOP CALLER "
				},
				"gasEstimates": {
					"creation": {
						"codeDepositCost": "312600",
						"executionCost": "infinite",
						"totalCost": "infinite"
					},
					"external": {
						"getAllNames()": "infinite",
						"tiger()": "infinite",
						"turtle()": "infinite",
						"whatIsTheName(address)": "infinite"
					}
				},
				"methodIdentifiers": {
					"getAllNames()": "fb825e5f",
					"tiger()": "44d333ff",
					"turtle()": "5d422032",
					"whatIsTheName(address)": "9266ad16"
				}
			},
			"storageLayout": {
				"storage": [
					{
						"astId": 41,
						"contract": "chapter2/Ex2_10.sol:AnimalSet",
						"label": "tiger",
						"offset": 0,
						"slot": "0",
						"type": "t_contract(Animal)10"
					},
					{
						"astId": 48,
						"contract": "chapter2/Ex2_10.sol:AnimalSet",
						"label": "turtle",
						"offset": 0,
						"slot": "1",
						"type": "t_contract(Animal)10"
					}
				],
				"types": {
					"t_contract(Animal)10": {
						"encoding": "inplace",
						"label": "contract Animal",
						"numberOfBytes": "20"
					}
				}
			},
			"userdoc": {
				"kind": "user",
				"methods": {},
				"version": 1
			}
		}
	}
}