{
	"chapter2/Ex2_6.sol": {
		"Ex": {
			"abi": [
				{
					"anonymous": false,
					"inputs": [
						{
							"indexed": false,
							"internalType": "string",
							"name": "reason",
							"type": "string"
						}
					],
					"name": "ErrorReason1",
					"type": "event"
				},
				{
					"anonymous": false,
					"inputs": [
						{
							"indexed": false,
							"internalType": "uint256",
							"name": "errorCode",
							"type": "uint256"
						}
					],
					"name": "ErrorReason2",
					"type": "event"
				},
				{
					"anonymous": false,
					"inputs": [
						{
							"indexed": false,
							"internalType": "bytes",
							"name": "lowLevelData",
							"type": "bytes"
						}
					],
					"name": "ErrorReason3",
					"type": "event"
				},
				{
					"inputs": [
						{
							"internalType": "uint256",
							"name": "_num",
							"type": "uint256"
						}
					],
					"name": "output5",
					"outputs": [
						{
							"internalType": "uint256",
							"name": "",
							"type": "uint256"
						}
					],
					"stateMutability": "pure",
					"type": "function"
				},
				{
					"inputs": [
						{
							"internalType": "uint256",
							"name": "_num",
							"type": "uint256"
						}
					],
					"name": "output5WithTryCatch",
					"outputs": [
						{
							"internalType": "uint256",
							"name": "",
							"type": "uint256"
						},
						{
							"internalType": "bool",
							"name": "",
							"type": "bool"
						}
					],
					"stateMutability": "nonpayable",
					"type": "function"
				}
			],
			"devdoc": {
				"kind": "dev",
				"methods": {},
				"version": 1
			},
			"evm": {
				"assembly": "    /* \"chapter2/Ex2_6.sol\":70:663  contract Ex {... */\n  mstore(0x40, 0x80)\n  callvalue\n  dup1\n  iszero\n  tag_1\n  jumpi\n  0x00\n  dup1\n  revert\ntag_1:\n  pop\n  dataSize(sub_0)\n  dup1\n  dataOffset(sub_0)\n  0x00\n  codecopy\n  0x00\n  return\nstop\n\nsub_0: assembly {\n        /* \"chapter2/Ex2_6.sol\":70:663  contract Ex {... */\n      mstore(0x40, 0x80)\n      callvalue\n      dup1\n      iszero\n      tag_1\n      jumpi\n      0x00\n      dup1\n      revert\n    tag_1:\n      pop\n      jumpi(tag_2, lt(calldatasize, 0x04))\n      shr(0xe0, calldataload(0x00))\n      dup1\n      0x68e90a9e\n      eq\n      tag_3\n      jumpi\n      dup1\n      0x8475016b\n      eq\n      tag_4\n      jumpi\n    tag_2:\n      0x00\n      dup1\n      revert\n        /* \"chapter2/Ex2_6.sol\":428:661  function output5WithTryCatch(uint _num) public returns(uint256, bool) {... */\n    tag_3:\n      tag_5\n      0x04\n      dup1\n      calldatasize\n      sub\n      dup2\n      add\n      swap1\n      tag_6\n      swap2\n      swap1\n      tag_7\n      jump\t// in\n    tag_6:\n      tag_8\n      jump\t// in\n    tag_5:\n      mload(0x40)\n      tag_9\n      swap3\n      swap2\n      swap1\n      tag_10\n      jump\t// in\n    tag_9:\n      mload(0x40)\n      dup1\n      swap2\n      sub\n      swap1\n      return\n        /* \"chapter2/Ex2_6.sol\":212:422  function output5(uint _num) public pure returns(uint) {... */\n    tag_4:\n      tag_11\n      0x04\n      dup1\n      calldatasize\n      sub\n      dup2\n      add\n      swap1\n      tag_12\n      swap2\n      swap1\n      tag_7\n      jump\t// in\n    tag_12:\n      tag_13\n      jump\t// in\n    tag_11:\n      mload(0x40)\n      tag_14\n      swap2\n      swap1\n      tag_15\n      jump\t// in\n    tag_14:\n      mload(0x40)\n      dup1\n      swap2\n      sub\n      swap1\n      return\n        /* \"chapter2/Ex2_6.sol\":428:661  function output5WithTryCatch(uint _num) public returns(uint256, bool) {... */\n    tag_8:\n        /* \"chapter2/Ex2_6.sol\":483:490  uint256 */\n      0x00\n        /* \"chapter2/Ex2_6.sol\":492:496  bool */\n      dup1\n        /* \"chapter2/Ex2_6.sol\":512:516  this */\n      address\n        /* \"chapter2/Ex2_6.sol\":512:524  this.output5 */\n      0xffffffffffffffffffffffffffffffffffffffff\n      and\n      0x8475016b\n        /* \"chapter2/Ex2_6.sol\":525:529  _num */\n      dup5\n        /* \"chapter2/Ex2_6.sol\":512:530  this.output5(_num) */\n      mload(0x40)\n      dup3\n      0xffffffff\n      and\n      0xe0\n      shl\n      dup2\n      mstore\n      0x04\n      add\n      tag_17\n      swap2\n      swap1\n      tag_15\n      jump\t// in\n    tag_17:\n      0x20\n      mload(0x40)\n      dup1\n      dup4\n      sub\n      dup2\n      dup7\n      gas\n      staticcall\n      swap3\n      pop\n      pop\n      pop\n      dup1\n      iszero\n      tag_18\n      jumpi\n      pop\n      mload(0x40)\n      returndatasize\n      not(0x1f)\n      0x1f\n      dup3\n      add\n      and\n      dup3\n      add\n      dup1\n      0x40\n      mstore\n      pop\n      dup2\n      add\n      swap1\n      tag_19\n      swap2\n      swap1\n      tag_20\n      jump\t// in\n    tag_19:\n      0x01\n    tag_18:\n        /* \"chapter2/Ex2_6.sol\":508:655  try this.output5(_num) returns (uint value) {... */\n      tag_21\n      jumpi\n      tag_25\n      tag_26\n      jump\t// in\n    tag_25:\n      dup1\n      0x08c379a0\n      sub\n      tag_24\n      jumpi\n      pop\n      tag_27\n      tag_28\n      jump\t// in\n    tag_27:\n      dup1\n      tag_29\n      jumpi\n      pop\n      jump(tag_23)\n    tag_29:\n        /* \"chapter2/Ex2_6.sol\":597:655  catch Error(string memory reason) {... */\n      pop\n        /* \"chapter2/Ex2_6.sol\":508:655  try this.output5(_num) returns (uint value) {... */\n      jump(tag_22)\n    tag_24:\n      pop\n    tag_23:\n      returndatasize\n      0x00\n      dup1\n      returndatacopy\n      revert(0x00, returndatasize)\n    tag_22:\n      jump(tag_30)\n    tag_21:\n        /* \"chapter2/Ex2_6.sol\":573:578  value */\n      dup1\n        /* \"chapter2/Ex2_6.sol\":580:584  true */\n      0x01\n        /* \"chapter2/Ex2_6.sol\":566:585  return(value, true) */\n      swap3\n      pop\n      swap3\n      pop\n      pop\n      jump(tag_16)\n        /* \"chapter2/Ex2_6.sol\":508:655  try this.output5(_num) returns (uint value) {... */\n    tag_30:\n        /* \"chapter2/Ex2_6.sol\":428:661  function output5WithTryCatch(uint _num) public returns(uint256, bool) {... */\n    tag_16:\n      swap2\n      pop\n      swap2\n      jump\t// out\n        /* \"chapter2/Ex2_6.sol\":212:422  function output5(uint _num) public pure returns(uint) {... */\n    tag_13:\n        /* \"chapter2/Ex2_6.sol\":260:264  uint */\n      0x00\n        /* \"chapter2/Ex2_6.sol\":285:286  6 */\n      0x06\n        /* \"chapter2/Ex2_6.sol\":279:283  _num */\n      dup3\n        /* \"chapter2/Ex2_6.sol\":279:286  _num>=6 */\n      lt\n        /* \"chapter2/Ex2_6.sol\":276:339  if(_num>=6) {... */\n      tag_32\n      jumpi\n        /* \"chapter2/Ex2_6.sol\":302:328  revert(\"_num should be 5\") */\n      mload(0x40)\n      0x08c379a000000000000000000000000000000000000000000000000000000000\n      dup2\n      mstore\n      0x04\n      add\n      tag_33\n      swap1\n      tag_34\n      jump\t// in\n    tag_33:\n      mload(0x40)\n      dup1\n      swap2\n      sub\n      swap1\n      revert\n        /* \"chapter2/Ex2_6.sol\":276:339  if(_num>=6) {... */\n    tag_32:\n        /* \"chapter2/Ex2_6.sol\":357:358  4 */\n      0x04\n        /* \"chapter2/Ex2_6.sol\":351:355  _num */\n      dup3\n        /* \"chapter2/Ex2_6.sol\":351:358  _num<=4 */\n      gt\n        /* \"chapter2/Ex2_6.sol\":348:398  if(_num<=4) {... */\n      tag_35\n      jumpi\n        /* \"chapter2/Ex2_6.sol\":381:386  false */\n      0x00\n        /* \"chapter2/Ex2_6.sol\":374:387  assert(false) */\n      tag_36\n      jumpi\n      tag_37\n      tag_38\n      jump\t// in\n    tag_37:\n    tag_36:\n        /* \"chapter2/Ex2_6.sol\":348:398  if(_num<=4) {... */\n    tag_35:\n        /* \"chapter2/Ex2_6.sol\":414:415  5 */\n      0x05\n        /* \"chapter2/Ex2_6.sol\":407:415  return 5 */\n      swap1\n      pop\n        /* \"chapter2/Ex2_6.sol\":212:422  function output5(uint _num) public pure returns(uint) {... */\n      swap2\n      swap1\n      pop\n      jump\t// out\n        /* \"#utility.yul\":7:82   */\n    tag_39:\n        /* \"#utility.yul\":40:46   */\n      0x00\n        /* \"#utility.yul\":73:75   */\n      0x40\n        /* \"#utility.yul\":67:76   */\n      mload\n        /* \"#utility.yul\":57:76   */\n      swap1\n      pop\n        /* \"#utility.yul\":7:82   */\n      swap1\n      jump\t// out\n        /* \"#utility.yul\":88:205   */\n    tag_40:\n        /* \"#utility.yul\":197:198   */\n      0x00\n        /* \"#utility.yul\":194:195   */\n      dup1\n        /* \"#utility.yul\":187:199   */\n      revert\n        /* \"#utility.yul\":334:411   */\n    tag_42:\n        /* \"#utility.yul\":371:378   */\n      0x00\n        /* \"#utility.yul\":400:405   */\n      dup2\n        /* \"#utility.yul\":389:405   */\n      swap1\n      pop\n        /* \"#utility.yul\":334:411   */\n      swap2\n      swap1\n      pop\n      jump\t// out\n        /* \"#utility.yul\":417:539   */\n    tag_43:\n        /* \"#utility.yul\":490:514   */\n      tag_62\n        /* \"#utility.yul\":508:513   */\n      dup2\n        /* \"#utility.yul\":490:514   */\n      tag_42\n      jump\t// in\n    tag_62:\n        /* \"#utility.yul\":483:488   */\n      dup2\n        /* \"#utility.yul\":480:515   */\n      eq\n        /* \"#utility.yul\":470:533   */\n      tag_63\n      jumpi\n        /* \"#utility.yul\":529:530   */\n      0x00\n        /* \"#utility.yul\":526:527   */\n      dup1\n        /* \"#utility.yul\":519:531   */\n      revert\n        /* \"#utility.yul\":470:533   */\n    tag_63:\n        /* \"#utility.yul\":417:539   */\n      pop\n      jump\t// out\n        /* \"#utility.yul\":545:684   */\n    tag_44:\n        /* \"#utility.yul\":591:596   */\n      0x00\n        /* \"#utility.yul\":629:635   */\n      dup2\n        /* \"#utility.yul\":616:636   */\n      calldataload\n        /* \"#utility.yul\":607:636   */\n      swap1\n      pop\n        /* \"#utility.yul\":645:678   */\n      tag_65\n        /* \"#utility.yul\":672:677   */\n      dup2\n        /* \"#utility.yul\":645:678   */\n      tag_43\n      jump\t// in\n    tag_65:\n        /* \"#utility.yul\":545:684   */\n      swap3\n      swap2\n      pop\n      pop\n      jump\t// out\n        /* \"#utility.yul\":690:1019   */\n    tag_7:\n        /* \"#utility.yul\":749:755   */\n      0x00\n        /* \"#utility.yul\":798:800   */\n      0x20\n        /* \"#utility.yul\":786:795   */\n      dup3\n        /* \"#utility.yul\":777:784   */\n      dup5\n        /* \"#utility.yul\":773:796   */\n      sub\n        /* \"#utility.yul\":769:801   */\n      slt\n        /* \"#utility.yul\":766:885   */\n      iszero\n      tag_67\n      jumpi\n        /* \"#utility.yul\":804:883   */\n      tag_68\n      tag_40\n      jump\t// in\n    tag_68:\n        /* \"#utility.yul\":766:885   */\n    tag_67:\n        /* \"#utility.yul\":924:925   */\n      0x00\n        /* \"#utility.yul\":949:1002   */\n      tag_69\n        /* \"#utility.yul\":994:1001   */\n      dup5\n        /* \"#utility.yul\":985:991   */\n      dup3\n        /* \"#utility.yul\":974:983   */\n      dup6\n        /* \"#utility.yul\":970:992   */\n      add\n        /* \"#utility.yul\":949:1002   */\n      tag_44\n      jump\t// in\n    tag_69:\n        /* \"#utility.yul\":939:1002   */\n      swap2\n      pop\n        /* \"#utility.yul\":895:1012   */\n      pop\n        /* \"#utility.yul\":690:1019   */\n      swap3\n      swap2\n      pop\n      pop\n      jump\t// out\n        /* \"#utility.yul\":1025:1143   */\n    tag_45:\n        /* \"#utility.yul\":1112:1136   */\n      tag_71\n        /* \"#utility.yul\":1130:1135   */\n      dup2\n        /* \"#utility.yul\":1112:1136   */\n      tag_42\n      jump\t// in\n    tag_71:\n        /* \"#utility.yul\":1107:1110   */\n      dup3\n        /* \"#utility.yul\":1100:1137   */\n      mstore\n        /* \"#utility.yul\":1025:1143   */\n      pop\n      pop\n      jump\t// out\n        /* \"#utility.yul\":1149:1239   */\n    tag_46:\n        /* \"#utility.yul\":1183:1190   */\n      0x00\n        /* \"#utility.yul\":1226:1231   */\n      dup2\n        /* \"#utility.yul\":1219:1232   */\n      iszero\n        /* \"#utility.yul\":1212:1233   */\n      iszero\n        /* \"#utility.yul\":1201:1233   */\n      swap1\n      pop\n        /* \"#utility.yul\":1149:1239   */\n      swap2\n      swap1\n      pop\n      jump\t// out\n        /* \"#utility.yul\":1245:1354   */\n    tag_47:\n        /* \"#utility.yul\":1326:1347   */\n      tag_74\n        /* \"#utility.yul\":1341:1346   */\n      dup2\n        /* \"#utility.yul\":1326:1347   */\n      tag_46\n      jump\t// in\n    tag_74:\n        /* \"#utility.yul\":1321:1324   */\n      dup3\n        /* \"#utility.yul\":1314:1348   */\n      mstore\n        /* \"#utility.yul\":1245:1354   */\n      pop\n      pop\n      jump\t// out\n        /* \"#utility.yul\":1360:1680   */\n    tag_10:\n        /* \"#utility.yul\":1475:1479   */\n      0x00\n        /* \"#utility.yul\":1513:1515   */\n      0x40\n        /* \"#utility.yul\":1502:1511   */\n      dup3\n        /* \"#utility.yul\":1498:1516   */\n      add\n        /* \"#utility.yul\":1490:1516   */\n      swap1\n      pop\n        /* \"#utility.yul\":1526:1597   */\n      tag_76\n        /* \"#utility.yul\":1594:1595   */\n      0x00\n        /* \"#utility.yul\":1583:1592   */\n      dup4\n        /* \"#utility.yul\":1579:1596   */\n      add\n        /* \"#utility.yul\":1570:1576   */\n      dup6\n        /* \"#utility.yul\":1526:1597   */\n      tag_45\n      jump\t// in\n    tag_76:\n        /* \"#utility.yul\":1607:1673   */\n      tag_77\n        /* \"#utility.yul\":1669:1671   */\n      0x20\n        /* \"#utility.yul\":1658:1667   */\n      dup4\n        /* \"#utility.yul\":1654:1672   */\n      add\n        /* \"#utility.yul\":1645:1651   */\n      dup5\n        /* \"#utility.yul\":1607:1673   */\n      tag_47\n      jump\t// in\n    tag_77:\n        /* \"#utility.yul\":1360:1680   */\n      swap4\n      swap3\n      pop\n      pop\n      pop\n      jump\t// out\n        /* \"#utility.yul\":1686:1908   */\n    tag_15:\n        /* \"#utility.yul\":1779:1783   */\n      0x00\n        /* \"#utility.yul\":1817:1819   */\n      0x20\n        /* \"#utility.yul\":1806:1815   */\n      dup3\n        /* \"#utility.yul\":1802:1820   */\n      add\n        /* \"#utility.yul\":1794:1820   */\n      swap1\n      pop\n        /* \"#utility.yul\":1830:1901   */\n      tag_79\n        /* \"#utility.yul\":1898:1899   */\n      0x00\n        /* \"#utility.yul\":1887:1896   */\n      dup4\n        /* \"#utility.yul\":1883:1900   */\n      add\n        /* \"#utility.yul\":1874:1880   */\n      dup5\n        /* \"#utility.yul\":1830:1901   */\n      tag_45\n      jump\t// in\n    tag_79:\n        /* \"#utility.yul\":1686:1908   */\n      swap3\n      swap2\n      pop\n      pop\n      jump\t// out\n        /* \"#utility.yul\":1914:2057   */\n    tag_48:\n        /* \"#utility.yul\":1971:1976   */\n      0x00\n        /* \"#utility.yul\":2002:2008   */\n      dup2\n        /* \"#utility.yul\":1996:2009   */\n      mload\n        /* \"#utility.yul\":1987:2009   */\n      swap1\n      pop\n        /* \"#utility.yul\":2018:2051   */\n      tag_81\n        /* \"#utility.yul\":2045:2050   */\n      dup2\n        /* \"#utility.yul\":2018:2051   */\n      tag_43\n      jump\t// in\n    tag_81:\n        /* \"#utility.yul\":1914:2057   */\n      swap3\n      swap2\n      pop\n      pop\n      jump\t// out\n        /* \"#utility.yul\":2063:2414   */\n    tag_20:\n        /* \"#utility.yul\":2133:2139   */\n      0x00\n        /* \"#utility.yul\":2182:2184   */\n      0x20\n        /* \"#utility.yul\":2170:2179   */\n      dup3\n        /* \"#utility.yul\":2161:2168   */\n      dup5\n        /* \"#utility.yul\":2157:2180   */\n      sub\n        /* \"#utility.yul\":2153:2185   */\n      slt\n        /* \"#utility.yul\":2150:2269   */\n      iszero\n      tag_83\n      jumpi\n        /* \"#utility.yul\":2188:2267   */\n      tag_84\n      tag_40\n      jump\t// in\n    tag_84:\n        /* \"#utility.yul\":2150:2269   */\n    tag_83:\n        /* \"#utility.yul\":2308:2309   */\n      0x00\n        /* \"#utility.yul\":2333:2397   */\n      tag_85\n        /* \"#utility.yul\":2389:2396   */\n      dup5\n        /* \"#utility.yul\":2380:2386   */\n      dup3\n        /* \"#utility.yul\":2369:2378   */\n      dup6\n        /* \"#utility.yul\":2365:2387   */\n      add\n        /* \"#utility.yul\":2333:2397   */\n      tag_48\n      jump\t// in\n    tag_85:\n        /* \"#utility.yul\":2323:2397   */\n      swap2\n      pop\n        /* \"#utility.yul\":2279:2407   */\n      pop\n        /* \"#utility.yul\":2063:2414   */\n      swap3\n      swap2\n      pop\n      pop\n      jump\t// out\n        /* \"#utility.yul\":2420:2526   */\n    tag_49:\n        /* \"#utility.yul\":2464:2472   */\n      0x00\n        /* \"#utility.yul\":2513:2518   */\n      dup2\n        /* \"#utility.yul\":2508:2511   */\n      0xe0\n        /* \"#utility.yul\":2504:2519   */\n      shr\n        /* \"#utility.yul\":2483:2519   */\n      swap1\n      pop\n        /* \"#utility.yul\":2420:2526   */\n      swap2\n      swap1\n      pop\n      jump\t// out\n        /* \"#utility.yul\":2532:2715   */\n    tag_26:\n        /* \"#utility.yul\":2567:2570   */\n      0x00\n        /* \"#utility.yul\":2605:2606   */\n      0x03\n        /* \"#utility.yul\":2587:2603   */\n      returndatasize\n        /* \"#utility.yul\":2584:2607   */\n      gt\n        /* \"#utility.yul\":2581:2709   */\n      iszero\n      tag_88\n      jumpi\n        /* \"#utility.yul\":2643:2644   */\n      0x04\n        /* \"#utility.yul\":2640:2641   */\n      0x00\n        /* \"#utility.yul\":2637:2638   */\n      dup1\n        /* \"#utility.yul\":2622:2645   */\n      returndatacopy\n        /* \"#utility.yul\":2665:2699   */\n      tag_89\n        /* \"#utility.yul\":2696:2697   */\n      0x00\n        /* \"#utility.yul\":2690:2698   */\n      mload\n        /* \"#utility.yul\":2665:2699   */\n      tag_49\n      jump\t// in\n    tag_89:\n        /* \"#utility.yul\":2658:2699   */\n      swap1\n      pop\n        /* \"#utility.yul\":2581:2709   */\n    tag_88:\n        /* \"#utility.yul\":2532:2715   */\n      swap1\n      jump\t// out\n        /* \"#utility.yul\":2721:2823   */\n    tag_50:\n        /* \"#utility.yul\":2762:2768   */\n      0x00\n        /* \"#utility.yul\":2813:2815   */\n      0x1f\n        /* \"#utility.yul\":2809:2816   */\n      not\n        /* \"#utility.yul\":2804:2806   */\n      0x1f\n        /* \"#utility.yul\":2797:2802   */\n      dup4\n        /* \"#utility.yul\":2793:2807   */\n      add\n        /* \"#utility.yul\":2789:2817   */\n      and\n        /* \"#utility.yul\":2779:2817   */\n      swap1\n      pop\n        /* \"#utility.yul\":2721:2823   */\n      swap2\n      swap1\n      pop\n      jump\t// out\n        /* \"#utility.yul\":2829:3009   */\n    tag_51:\n        /* \"#utility.yul\":2877:2954   */\n      0x4e487b7100000000000000000000000000000000000000000000000000000000\n        /* \"#utility.yul\":2874:2875   */\n      0x00\n        /* \"#utility.yul\":2867:2955   */\n      mstore\n        /* \"#utility.yul\":2974:2978   */\n      0x41\n        /* \"#utility.yul\":2971:2972   */\n      0x04\n        /* \"#utility.yul\":2964:2979   */\n      mstore\n        /* \"#utility.yul\":2998:3002   */\n      0x24\n        /* \"#utility.yul\":2995:2996   */\n      0x00\n        /* \"#utility.yul\":2988:3003   */\n      revert\n        /* \"#utility.yul\":3015:3296   */\n    tag_52:\n        /* \"#utility.yul\":3098:3125   */\n      tag_93\n        /* \"#utility.yul\":3120:3124   */\n      dup3\n        /* \"#utility.yul\":3098:3125   */\n      tag_50\n      jump\t// in\n    tag_93:\n        /* \"#utility.yul\":3090:3096   */\n      dup2\n        /* \"#utility.yul\":3086:3126   */\n      add\n        /* \"#utility.yul\":3228:3234   */\n      dup2\n        /* \"#utility.yul\":3216:3226   */\n      dup2\n        /* \"#utility.yul\":3213:3235   */\n      lt\n        /* \"#utility.yul\":3192:3210   */\n      0xffffffffffffffff\n        /* \"#utility.yul\":3180:3190   */\n      dup3\n        /* \"#utility.yul\":3177:3211   */\n      gt\n        /* \"#utility.yul\":3174:3236   */\n      or\n        /* \"#utility.yul\":3171:3259   */\n      iszero\n      tag_94\n      jumpi\n        /* \"#utility.yul\":3239:3257   */\n      tag_95\n      tag_51\n      jump\t// in\n    tag_95:\n        /* \"#utility.yul\":3171:3259   */\n    tag_94:\n        /* \"#utility.yul\":3279:3289   */\n      dup1\n        /* \"#utility.yul\":3275:3277   */\n      0x40\n        /* \"#utility.yul\":3268:3290   */\n      mstore\n        /* \"#utility.yul\":3058:3296   */\n      pop\n        /* \"#utility.yul\":3015:3296   */\n      pop\n      pop\n      jump\t// out\n        /* \"#utility.yul\":3302:4013   */\n    tag_28:\n        /* \"#utility.yul\":3341:3344   */\n      0x00\n        /* \"#utility.yul\":3379:3383   */\n      0x44\n        /* \"#utility.yul\":3361:3377   */\n      returndatasize\n        /* \"#utility.yul\":3358:3384   */\n      lt\n        /* \"#utility.yul\":3387:3392   */\n      tag_96\n        /* \"#utility.yul\":3355:3394   */\n      jumpi\n        /* \"#utility.yul\":3416:3436   */\n      tag_98\n      tag_39\n      jump\t// in\n    tag_98:\n        /* \"#utility.yul\":3491:3492   */\n      0x04\n        /* \"#utility.yul\":3473:3489   */\n      returndatasize\n        /* \"#utility.yul\":3469:3493   */\n      sub\n        /* \"#utility.yul\":3466:3467   */\n      0x04\n        /* \"#utility.yul\":3460:3464   */\n      dup3\n        /* \"#utility.yul\":3445:3494   */\n      returndatacopy\n        /* \"#utility.yul\":3524:3528   */\n      dup1\n        /* \"#utility.yul\":3518:3529   */\n      mload\n        /* \"#utility.yul\":3623:3639   */\n      returndatasize\n        /* \"#utility.yul\":3616:3620   */\n      0x24\n        /* \"#utility.yul\":3608:3614   */\n      dup3\n        /* \"#utility.yul\":3604:3621   */\n      add\n        /* \"#utility.yul\":3601:3640   */\n      gt\n        /* \"#utility.yul\":3568:3586   */\n      0xffffffffffffffff\n        /* \"#utility.yul\":3560:3566   */\n      dup3\n        /* \"#utility.yul\":3557:3587   */\n      gt\n        /* \"#utility.yul\":3541:3654   */\n      or\n        /* \"#utility.yul\":3538:3684   */\n      iszero\n      tag_99\n      jumpi\n        /* \"#utility.yul\":3669:3674   */\n      pop\n      pop\n      jump(tag_96)\n        /* \"#utility.yul\":3538:3684   */\n    tag_99:\n        /* \"#utility.yul\":3715:3721   */\n      dup1\n        /* \"#utility.yul\":3709:3713   */\n      dup3\n        /* \"#utility.yul\":3705:3722   */\n      add\n        /* \"#utility.yul\":3751:3754   */\n      dup1\n        /* \"#utility.yul\":3745:3755   */\n      mload\n        /* \"#utility.yul\":3778:3796   */\n      0xffffffffffffffff\n        /* \"#utility.yul\":3770:3776   */\n      dup2\n        /* \"#utility.yul\":3767:3797   */\n      gt\n        /* \"#utility.yul\":3764:3807   */\n      iszero\n      tag_100\n      jumpi\n        /* \"#utility.yul\":3800:3805   */\n      pop\n      pop\n      pop\n      pop\n      jump(tag_96)\n        /* \"#utility.yul\":3764:3807   */\n    tag_100:\n        /* \"#utility.yul\":3848:3854   */\n      dup1\n        /* \"#utility.yul\":3841:3845   */\n      0x20\n        /* \"#utility.yul\":3836:3839   */\n      dup4\n        /* \"#utility.yul\":3832:3846   */\n      add\n        /* \"#utility.yul\":3828:3855   */\n      add\n        /* \"#utility.yul\":3907:3908   */\n      0x04\n        /* \"#utility.yul\":3889:3905   */\n      returndatasize\n        /* \"#utility.yul\":3885:3909   */\n      sub\n        /* \"#utility.yul\":3879:3883   */\n      dup6\n        /* \"#utility.yul\":3875:3910   */\n      add\n        /* \"#utility.yul\":3870:3873   */\n      dup2\n        /* \"#utility.yul\":3867:3911   */\n      gt\n        /* \"#utility.yul\":3864:3921   */\n      iszero\n      tag_101\n      jumpi\n        /* \"#utility.yul\":3914:3919   */\n      pop\n      pop\n      pop\n      pop\n      pop\n      jump(tag_96)\n        /* \"#utility.yul\":3864:3921   */\n    tag_101:\n        /* \"#utility.yul\":3931:3988   */\n      tag_102\n        /* \"#utility.yul\":3979:3985   */\n      dup3\n        /* \"#utility.yul\":3973:3977   */\n      0x20\n        /* \"#utility.yul\":3969:3986   */\n      add\n        /* \"#utility.yul\":3961:3967   */\n      dup6\n        /* \"#utility.yul\":3957:3987   */\n      add\n        /* \"#utility.yul\":3951:3955   */\n      dup7\n        /* \"#utility.yul\":3931:3988   */\n      tag_52\n      jump\t// in\n    tag_102:\n        /* \"#utility.yul\":4004:4007   */\n      dup3\n        /* \"#utility.yul\":3997:4007   */\n      swap6\n      pop\n        /* \"#utility.yul\":3345:4013   */\n      pop\n      pop\n      pop\n      pop\n      pop\n        /* \"#utility.yul\":3302:4013   */\n    tag_96:\n      swap1\n      jump\t// out\n        /* \"#utility.yul\":4019:4188   */\n    tag_53:\n        /* \"#utility.yul\":4103:4114   */\n      0x00\n        /* \"#utility.yul\":4137:4143   */\n      dup3\n        /* \"#utility.yul\":4132:4135   */\n      dup3\n        /* \"#utility.yul\":4125:4144   */\n      mstore\n        /* \"#utility.yul\":4177:4181   */\n      0x20\n        /* \"#utility.yul\":4172:4175   */\n      dup3\n        /* \"#utility.yul\":4168:4182   */\n      add\n        /* \"#utility.yul\":4153:4182   */\n      swap1\n      pop\n        /* \"#utility.yul\":4019:4188   */\n      swap3\n      swap2\n      pop\n      pop\n      jump\t// out\n        /* \"#utility.yul\":4194:4360   */\n    tag_54:\n        /* \"#utility.yul\":4334:4352   */\n      0x5f6e756d2073686f756c64206265203500000000000000000000000000000000\n        /* \"#utility.yul\":4330:4331   */\n      0x00\n        /* \"#utility.yul\":4322:4328   */\n      dup3\n        /* \"#utility.yul\":4318:4332   */\n      add\n        /* \"#utility.yul\":4311:4353   */\n      mstore\n        /* \"#utility.yul\":4194:4360   */\n      pop\n      jump\t// out\n        /* \"#utility.yul\":4366:4732   */\n    tag_55:\n        /* \"#utility.yul\":4508:4511   */\n      0x00\n        /* \"#utility.yul\":4529:4596   */\n      tag_106\n        /* \"#utility.yul\":4593:4595   */\n      0x10\n        /* \"#utility.yul\":4588:4591   */\n      dup4\n        /* \"#utility.yul\":4529:4596   */\n      tag_53\n      jump\t// in\n    tag_106:\n        /* \"#utility.yul\":4522:4596   */\n      swap2\n      pop\n        /* \"#utility.yul\":4605:4698   */\n      tag_107\n        /* \"#utility.yul\":4694:4697   */\n      dup3\n        /* \"#utility.yul\":4605:4698   */\n      tag_54\n      jump\t// in\n    tag_107:\n        /* \"#utility.yul\":4723:4725   */\n      0x20\n        /* \"#utility.yul\":4718:4721   */\n      dup3\n        /* \"#utility.yul\":4714:4726   */\n      add\n        /* \"#utility.yul\":4707:4726   */\n      swap1\n      pop\n        /* \"#utility.yul\":4366:4732   */\n      swap2\n      swap1\n      pop\n      jump\t// out\n        /* \"#utility.yul\":4738:5157   */\n    tag_34:\n        /* \"#utility.yul\":4904:4908   */\n      0x00\n        /* \"#utility.yul\":4942:4944   */\n      0x20\n        /* \"#utility.yul\":4931:4940   */\n      dup3\n        /* \"#utility.yul\":4927:4945   */\n      add\n        /* \"#utility.yul\":4919:4945   */\n      swap1\n      pop\n        /* \"#utility.yul\":4991:5000   */\n      dup2\n        /* \"#utility.yul\":4985:4989   */\n      dup2\n        /* \"#utility.yul\":4981:5001   */\n      sub\n        /* \"#utility.yul\":4977:4978   */\n      0x00\n        /* \"#utility.yul\":4966:4975   */\n      dup4\n        /* \"#utility.yul\":4962:4979   */\n      add\n        /* \"#utility.yul\":4955:5002   */\n      mstore\n        /* \"#utility.yul\":5019:5150   */\n      tag_109\n        /* \"#utility.yul\":5145:5149   */\n      dup2\n        /* \"#utility.yul\":5019:5150   */\n      tag_55\n      jump\t// in\n    tag_109:\n        /* \"#utility.yul\":5011:5150   */\n      swap1\n      pop\n        /* \"#utility.yul\":4738:5157   */\n      swap2\n      swap1\n      pop\n      jump\t// out\n        /* \"#utility.yul\":5163:5343   */\n    tag_38:\n        /* \"#utility.yul\":5211:5288   */\n      0x4e487b7100000000000000000000000000000000000000000000000000000000\n        /* \"#utility.yul\":5208:5209   */\n      0x00\n        /* \"#utility.yul\":5201:5289   */\n      mstore\n        /* \"#utility.yul\":5308:5312   */\n      0x01\n        /* \"#utility.yul\":5305:5306   */\n      0x04\n        /* \"#utility.yul\":5298:5313   */\n      mstore\n        /* \"#utility.yul\":5332:5336   */\n      0x24\n        /* \"#utility.yul\":5329:5330   */\n      0x00\n        /* \"#utility.yul\":5322:5337   */\n      revert\n\n    auxdata: 0xa264697066735822122058ac96b44dd36ebd44e8132499968969f06978c8188fb0095a5efb89de04a0d064736f6c63430008110033\n}\n",
				"bytecode": {
					"linkReferences": {},
					"object": "608060405234801561001057600080fd5b50610501806100206000396000f3fe608060405234801561001057600080fd5b50600436106100365760003560e01c806368e90a9e1461003b5780638475016b1461006c575b600080fd5b61005560048036038101906100509190610212565b61009c565b604051610063929190610269565b60405180910390f35b61008660048036038101906100819190610212565b610167565b6040516100939190610292565b60405180910390f35b6000803073ffffffffffffffffffffffffffffffffffffffff16638475016b846040518263ffffffff1660e01b81526004016100d89190610292565b602060405180830381865afa92505050801561011257506040513d601f19601f8201168201806040525081019061010f91906102c2565b60015b6101545761011e6102fc565b806308c379a003610143575061013261038f565b8061013d5750610145565b5061014f565b505b3d6000803e3d6000fd5b610161565b8060019250925050610162565b5b915091565b6000600682106101ac576040517f08c379a00000000000000000000000000000000000000000000000000000000081526004016101a39061047c565b60405180910390fd5b600482116101c45760006101c3576101c261049c565b5b5b60059050919050565b6000604051905090565b600080fd5b6000819050919050565b6101ef816101dc565b81146101fa57600080fd5b50565b60008135905061020c816101e6565b92915050565b600060208284031215610228576102276101d7565b5b6000610236848285016101fd565b91505092915050565b610248816101dc565b82525050565b60008115159050919050565b6102638161024e565b82525050565b600060408201905061027e600083018561023f565b61028b602083018461025a565b9392505050565b60006020820190506102a7600083018461023f565b92915050565b6000815190506102bc816101e6565b92915050565b6000602082840312156102d8576102d76101d7565b5b60006102e6848285016102ad565b91505092915050565b60008160e01c9050919050565b600060033d111561031b5760046000803e6103186000516102ef565b90505b90565b6000601f19601f8301169050919050565b7f4e487b7100000000000000000000000000000000000000000000000000000000600052604160045260246000fd5b6103678261031e565b810181811067ffffffffffffffff821117156103865761038561032f565b5b80604052505050565b600060443d1061041c576103a16101cd565b60043d036004823e80513d602482011167ffffffffffffffff821117156103c957505061041c565b808201805167ffffffffffffffff8111156103e7575050505061041c565b80602083010160043d03850181111561040457505050505061041c565b6104138260200185018661035e565b82955050505050505b90565b600082825260208201905092915050565b7f5f6e756d2073686f756c64206265203500000000000000000000000000000000600082015250565b600061046660108361041f565b915061047182610430565b602082019050919050565b6000602082019050818103600083015261049581610459565b9050919050565b7f4e487b7100000000000000000000000000000000000000000000000000000000600052600160045260246000fdfea264697066735822122058ac96b44dd36ebd44e8132499968969f06978c8188fb0095a5efb89de04a0d064736f6c63430008110033",
					"opcodes": "PUSH1 0x80 PUSH1 0x40 MSTORE CALLVALUE DUP1 ISZERO PUSH2 0x10 JUMPI PUSH1 0x0 DUP1 REVERT JUMPDEST POP PUSH2 0x501 DUP1 PUSH2 0x20 PUSH1 0x0 CODECOPY PUSH1 0x0 RETURN INVALID PUSH1 0x80 PUSH1 0x40 MSTORE CALLVALUE DUP1 ISZERO PUSH2 0x10 JUMPI PUSH1 0x0 DUP1 REVERT JUMPDEST POP PUSH1 0x4 CALLDATASIZE LT PUSH2 0x36 JUMPI PUSH1 0x0 CALLDATALOAD PUSH1 0xE0 SHR DUP1 PUSH4 0x68E90A9E EQ PUSH2 0x3B JUMPI DUP1 PUSH4 0x8475016B EQ PUSH2 0x6C JUMPI JUMPDEST PUSH1 0x0 DUP1 REVERT JUMPDEST PUSH2 0x55 PUSH1 0x4 DUP1 CALLDATASIZE SUB DUP2 ADD SWAP1 PUSH2 0x50 SWAP2 SWAP1 PUSH2 0x212 JUMP JUMPDEST PUSH2 0x9C JUMP JUMPDEST PUSH1 0x40 MLOAD PUSH2 0x63 SWAP3 SWAP2 SWAP1 PUSH2 0x269 JUMP JUMPDEST PUSH1 0x40 MLOAD DUP1 SWAP2 SUB SWAP1 RETURN JUMPDEST PUSH2 0x86 PUSH1 0x4 DUP1 CALLDATASIZE SUB DUP2 ADD SWAP1 PUSH2 0x81 SWAP2 SWAP1 PUSH2 0x212 JUMP JUMPDEST PUSH2 0x167 JUMP JUMPDEST PUSH1 0x40 MLOAD PUSH2 0x93 SWAP2 SWAP1 PUSH2 0x292 JUMP JUMPDEST PUSH1 0x40 MLOAD DUP1 SWAP2 SUB SWAP1 RETURN JUMPDEST PUSH1 0x0 DUP1 ADDRESS PUSH20 0xFFFFFFFFFFFFFFFFFFFFFFFFFFFFFFFFFFFFFFFF AND PUSH4 0x8475016B DUP5 PUSH1 0x40 MLOAD DUP3 PUSH4 0xFFFFFFFF AND PUSH1 0xE0 SHL DUP2 MSTORE PUSH1 0x4 ADD PUSH2 0xD8 SWAP2 SWAP1 PUSH2 0x292 JUMP JUMPDEST PUSH1 0x20 PUSH1 0x40 MLOAD DUP1 DUP4 SUB DUP2 DUP7 GAS STATICCALL SWAP3 POP POP POP DUP1 ISZERO PUSH2 0x112 JUMPI POP PUSH1 0x40 MLOAD RETURNDATASIZE PUSH1 0x1F NOT PUSH1 0x1F DUP3 ADD AND DUP3 ADD DUP1 PUSH1 0x40 MSTORE POP DUP2 ADD SWAP1 PUSH2 0x10F SWAP2 SWAP1 PUSH2 0x2C2 JUMP JUMPDEST PUSH1 0x1 JUMPDEST PUSH2 0x154 JUMPI PUSH2 0x11E PUSH2 0x2FC JUMP JUMPDEST DUP1 PUSH4 0x8C379A0 SUB PUSH2 0x143 JUMPI POP PUSH2 0x132 PUSH2 0x38F JUMP JUMPDEST DUP1 PUSH2 0x13D JUMPI POP PUSH2 0x145 JUMP JUMPDEST POP PUSH2 0x14F JUMP JUMPDEST POP JUMPDEST RETURNDATASIZE PUSH1 0x0 DUP1 RETURNDATACOPY RETURNDATASIZE PUSH1 0x0 REVERT JUMPDEST PUSH2 0x161 JUMP JUMPDEST DUP1 PUSH1 0x1 SWAP3 POP SWAP3 POP POP PUSH2 0x162 JUMP JUMPDEST JUMPDEST SWAP2 POP SWAP2 JUMP JUMPDEST PUSH1 0x0 PUSH1 0x6 DUP3 LT PUSH2 0x1AC JUMPI PUSH1 0x40 MLOAD PUSH32 0x8C379A000000000000000000000000000000000000000000000000000000000 DUP2 MSTORE PUSH1 0x4 ADD PUSH2 0x1A3 SWAP1 PUSH2 0x47C JUMP JUMPDEST PUSH1 0x40 MLOAD DUP1 SWAP2 SUB SWAP1 REVERT JUMPDEST PUSH1 0x4 DUP3 GT PUSH2 0x1C4 JUMPI PUSH1 0x0 PUSH2 0x1C3 JUMPI PUSH2 0x1C2 PUSH2 0x49C JUMP JUMPDEST JUMPDEST JUMPDEST PUSH1 0x5 SWAP1 POP SWAP2 SWAP1 POP JUMP JUMPDEST PUSH1 0x0 PUSH1 0x40 MLOAD SWAP1 POP SWAP1 JUMP JUMPDEST PUSH1 0x0 DUP1 REVERT JUMPDEST PUSH1 0x0 DUP2 SWAP1 POP SWAP2 SWAP1 POP JUMP JUMPDEST PUSH2 0x1EF DUP2 PUSH2 0x1DC JUMP JUMPDEST DUP2 EQ PUSH2 0x1FA JUMPI PUSH1 0x0 DUP1 REVERT JUMPDEST POP JUMP JUMPDEST PUSH1 0x0 DUP2 CALLDATALOAD SWAP1 POP PUSH2 0x20C DUP2 PUSH2 0x1E6 JUMP JUMPDEST SWAP3 SWAP2 POP POP JUMP JUMPDEST PUSH1 0x0 PUSH1 0x20 DUP3 DUP5 SUB SLT ISZERO PUSH2 0x228 JUMPI PUSH2 0x227 PUSH2 0x1D7 JUMP JUMPDEST JUMPDEST PUSH1 0x0 PUSH2 0x236 DUP5 DUP3 DUP6 ADD PUSH2 0x1FD JUMP JUMPDEST SWAP2 POP POP SWAP3 SWAP2 POP POP JUMP JUMPDEST PUSH2 0x248 DUP2 PUSH2 0x1DC JUMP JUMPDEST DUP3 MSTORE POP POP JUMP JUMPDEST PUSH1 0x0 DUP2 ISZERO ISZERO SWAP1 POP SWAP2 SWAP1 POP JUMP JUMPDEST PUSH2 0x263 DUP2 PUSH2 0x24E JUMP JUMPDEST DUP3 MSTORE POP POP JUMP JUMPDEST PUSH1 0x0 PUSH1 0x40 DUP3 ADD SWAP1 POP PUSH2 0x27E PUSH1 0x0 DUP4 ADD DUP6 PUSH2 0x23F JUMP JUMPDEST PUSH2 0x28B PUSH1 0x20 DUP4 ADD DUP5 PUSH2 0x25A JUMP JUMPDEST SWAP4 SWAP3 POP POP POP JUMP JUMPDEST PUSH1 0x0 PUSH1 0x20 DUP3 ADD SWAP1 POP PUSH2 0x2A7 PUSH1 0x0 DUP4 ADD DUP5 PUSH2 0x23F JUMP JUMPDEST SWAP3 SWAP2 POP POP JUMP JUMPDEST PUSH1 0x0 DUP2 MLOAD SWAP1 POP PUSH2 0x2BC DUP2 PUSH2 0x1E6 JUMP JUMPDEST SWAP3 SWAP2 POP POP JUMP JUMPDEST PUSH1 0x0 PUSH1 0x20 DUP3 DUP5 SUB SLT ISZERO PUSH2 0x2D8 JUMPI PUSH2 0x2D7 PUSH2 0x1D7 JUMP JUMPDEST JUMPDEST PUSH1 0x0 PUSH2 0x2E6 DUP5 DUP3 DUP6 ADD PUSH2 0x2AD JUMP JUMPDEST SWAP2 POP POP SWAP3 SWAP2 POP POP JUMP JUMPDEST PUSH1 0x0 DUP2 PUSH1 0xE0 SHR SWAP1 POP SWAP2 SWAP1 POP JUMP JUMPDEST PUSH1 0x0 PUSH1 0x3 RETURNDATASIZE GT ISZERO PUSH2 0x31B JUMPI PUSH1 0x4 PUSH1 0x0 DUP1 RETURNDATACOPY PUSH2 0x318 PUSH1 0x0 MLOAD PUSH2 0x2EF JUMP JUMPDEST SWAP1 POP JUMPDEST SWAP1 JUMP JUMPDEST PUSH1 0x0 PUSH1 0x1F NOT PUSH1 0x1F DUP4 ADD AND SWAP1 POP SWAP2 SWAP1 POP JUMP JUMPDEST PUSH32 0x4E487B7100000000000000000000000000000000000000000000000000000000 PUSH1 0x0 MSTORE PUSH1 0x41 PUSH1 0x4 MSTORE PUSH1 0x24 PUSH1 0x0 REVERT JUMPDEST PUSH2 0x367 DUP3 PUSH2 0x31E JUMP JUMPDEST DUP2 ADD DUP2 DUP2 LT PUSH8 0xFFFFFFFFFFFFFFFF DUP3 GT OR ISZERO PUSH2 0x386 JUMPI PUSH2 0x385 PUSH2 0x32F JUMP JUMPDEST JUMPDEST DUP1 PUSH1 0x40 MSTORE POP POP POP JUMP JUMPDEST PUSH1 0x0 PUSH1 0x44 RETURNDATASIZE LT PUSH2 0x41C JUMPI PUSH2 0x3A1 PUSH2 0x1CD JUMP JUMPDEST PUSH1 0x4 RETURNDATASIZE SUB PUSH1 0x4 DUP3 RETURNDATACOPY DUP1 MLOAD RETURNDATASIZE PUSH1 0x24 DUP3 ADD GT PUSH8 0xFFFFFFFFFFFFFFFF DUP3 GT OR ISZERO PUSH2 0x3C9 JUMPI POP POP PUSH2 0x41C JUMP JUMPDEST DUP1 DUP3 ADD DUP1 MLOAD PUSH8 0xFFFFFFFFFFFFFFFF DUP2 GT ISZERO PUSH2 0x3E7 JUMPI POP POP POP POP PUSH2 0x41C JUMP JUMPDEST DUP1 PUSH1 0x20 DUP4 ADD ADD PUSH1 0x4 RETURNDATASIZE SUB DUP6 ADD DUP2 GT ISZERO PUSH2 0x404 JUMPI POP POP POP POP POP PUSH2 0x41C JUMP JUMPDEST PUSH2 0x413 DUP3 PUSH1 0x20 ADD DUP6 ADD DUP7 PUSH2 0x35E JUMP JUMPDEST DUP3 SWAP6 POP POP POP POP POP POP JUMPDEST SWAP1 JUMP JUMPDEST PUSH1 0x0 DUP3 DUP3 MSTORE PUSH1 0x20 DUP3 ADD SWAP1 POP SWAP3 SWAP2 POP POP JUMP JUMPDEST PUSH32 0x5F6E756D2073686F756C64206265203500000000000000000000000000000000 PUSH1 0x0 DUP3 ADD MSTORE POP JUMP JUMPDEST PUSH1 0x0 PUSH2 0x466 PUSH1 0x10 DUP4 PUSH2 0x41F JUMP JUMPDEST SWAP2 POP PUSH2 0x471 DUP3 PUSH2 0x430 JUMP JUMPDEST PUSH1 0x20 DUP3 ADD SWAP1 POP SWAP2 SWAP1 POP JUMP JUMPDEST PUSH1 0x0 PUSH1 0x20 DUP3 ADD SWAP1 POP DUP2 DUP2 SUB PUSH1 0x0 DUP4 ADD MSTORE PUSH2 0x495 DUP2 PUSH2 0x459 JUMP JUMPDEST SWAP1 POP SWAP2 SWAP1 POP JUMP JUMPDEST PUSH32 0x4E487B7100000000000000000000000000000000000000000000000000000000 PUSH1 0x0 MSTORE PUSH1 0x1 PUSH1 0x4 MSTORE PUSH1 0x24 PUSH1 0x0 REVERT INVALID LOG2 PUSH5 0x6970667358 0x22 SLT KECCAK256 PC 0xAC SWAP7 0xB4 0x4D 0xD3 PUSH15 0xBD44E8132499968969F06978C8188F 0xB0 MULMOD GAS 0x5E 0xFB DUP10 0xDE DIV LOG0 0xD0 PUSH5 0x736F6C6343 STOP ADDMOD GT STOP CALLER "
				},
				"gasEstimates": {
					"creation": {
						"codeDepositCost": "256200",
						"executionCost": "300",
						"totalCost": "256500"
					},
					"external": {
						"output5(uint256)": "infinite",
						"output5WithTryCatch(uint256)": "infinite"
					}
				},
				"methodIdentifiers": {
					"output5(uint256)": "8475016b",
					"output5WithTryCatch(uint256)": "68e90a9e"
				}
			},
			"storageLayout": {
				"storage": [],
				"types": null
			},
			"userdoc": {
				"kind": "user",
				"methods": {},
				"version": 1
			}
		}
	}
}