{
	"chapter2/Ex2_10.sol": {
		"Ex2_10": {
			"abi": [
				{
					"inputs": [
						{
							"internalType": "string",
							"name": "_itemName",
							"type": "string"
						}
					],
					"name": "search",
					"outputs": [
						{
							"internalType": "uint256",
							"name": "",
							"type": "uint256"
						}
					],
					"stateMutability": "view",
					"type": "function"
				},
				{
					"inputs": [
						{
							"internalType": "string",
							"name": "_itemName",
							"type": "string"
						},
						{
							"internalType": "uint256",
							"name": "_price",
							"type": "uint256"
						}
					],
					"name": "sell",
					"outputs": [],
					"stateMutability": "nonpayable",
					"type": "function"
				}
			],
			"devdoc": {
				"kind": "dev",
				"methods": {},
				"version": 1
			},
			"evm": {
				"assembly": "    /* \"chapter2/Ex2_10.sol\":70:402  contract Ex2_10 {... */\n  mstore(0x40, 0x80)\n  callvalue\n  dup1\n  iszero\n  tag_1\n  jumpi\n  0x00\n  dup1\n  revert\ntag_1:\n  pop\n  dataSize(sub_0)\n  dup1\n  dataOffset(sub_0)\n  0x00\n  codecopy\n  0x00\n  return\nstop\n\nsub_0: assembly {\n        /* \"chapter2/Ex2_10.sol\":70:402  contract Ex2_10 {... */\n      mstore(0x40, 0x80)\n      callvalue\n      dup1\n      iszero\n      tag_1\n      jumpi\n      0x00\n      dup1\n      revert\n    tag_1:\n      pop\n      jumpi(tag_2, lt(calldatasize, 0x04))\n      shr(0xe0, calldataload(0x00))\n      dup1\n      0x820ed086\n      eq\n      tag_3\n      jumpi\n      dup1\n      0x9f656321\n      eq\n      tag_4\n      jumpi\n    tag_2:\n      0x00\n      dup1\n      revert\n        /* \"chapter2/Ex2_10.sol\":315:398  function search(string memory _itemName) public view returns(uint) {... */\n    tag_3:\n      tag_5\n      0x04\n      dup1\n      calldatasize\n      sub\n      dup2\n      add\n      swap1\n      tag_6\n      swap2\n      swap1\n      tag_7\n      jump\t// in\n    tag_6:\n      tag_8\n      jump\t// in\n    tag_5:\n      mload(0x40)\n      tag_9\n      swap2\n      swap1\n      tag_10\n      jump\t// in\n    tag_9:\n      mload(0x40)\n      dup1\n      swap2\n      sub\n      swap1\n      return\n        /* \"chapter2/Ex2_10.sol\":191:309  function sell(string memory _itemName, uint _price) public {... */\n    tag_4:\n      tag_11\n      0x04\n      dup1\n      calldatasize\n      sub\n      dup2\n      add\n      swap1\n      tag_12\n      swap2\n      swap1\n      tag_13\n      jump\t// in\n    tag_12:\n      tag_14\n      jump\t// in\n    tag_11:\n      stop\n        /* \"chapter2/Ex2_10.sol\":315:398  function search(string memory _itemName) public view returns(uint) {... */\n    tag_8:\n        /* \"chapter2/Ex2_10.sol\":376:380  uint */\n      0x00\n        /* \"chapter2/Ex2_10.sol\":315:398  function search(string memory _itemName) public view returns(uint) {... */\n      swap2\n      swap1\n      pop\n      jump\t// out\n        /* \"chapter2/Ex2_10.sol\":191:309  function sell(string memory _itemName, uint _price) public {... */\n    tag_14:\n        /* \"chapter2/Ex2_10.sol\":260:270  openMarket */\n      0x00\n        /* \"chapter2/Ex2_10.sol\":276:301  Market(_itemName, _price) */\n      mload(0x40)\n      dup1\n      0x40\n      add\n      0x40\n      mstore\n      dup1\n        /* \"chapter2/Ex2_10.sol\":283:292  _itemName */\n      dup5\n        /* \"chapter2/Ex2_10.sol\":276:301  Market(_itemName, _price) */\n      dup2\n      mstore\n      0x20\n      add\n        /* \"chapter2/Ex2_10.sol\":294:300  _price */\n      dup4\n        /* \"chapter2/Ex2_10.sol\":276:301  Market(_itemName, _price) */\n      dup2\n      mstore\n      pop\n        /* \"chapter2/Ex2_10.sol\":260:302  openMarket.push(Market(_itemName, _price)) */\n      swap1\n      dup1\n      0x01\n      dup2\n      sload\n      add\n      dup1\n      dup3\n      sstore\n      dup1\n      swap2\n      pop\n      pop\n      0x01\n      swap1\n      sub\n      swap1\n      0x00\n      mstore\n      keccak256(0x00, 0x20)\n      swap1\n      0x02\n      mul\n      add\n      0x00\n      swap1\n      swap2\n      swap1\n      swap2\n      swap1\n      swap2\n      pop\n      0x00\n      dup3\n      add\n      mload\n      dup2\n      0x00\n      add\n      swap1\n      dup2\n      tag_18\n      swap2\n      swap1\n      tag_19\n      jump\t// in\n    tag_18:\n      pop\n      0x20\n      dup3\n      add\n      mload\n      dup2\n      0x01\n      add\n      sstore\n      pop\n      pop\n        /* \"chapter2/Ex2_10.sol\":191:309  function sell(string memory _itemName, uint _price) public {... */\n      pop\n      pop\n      jump\t// out\n        /* \"#utility.yul\":7:82   */\n    tag_20:\n        /* \"#utility.yul\":40:46   */\n      0x00\n        /* \"#utility.yul\":73:75   */\n      0x40\n        /* \"#utility.yul\":67:76   */\n      mload\n        /* \"#utility.yul\":57:76   */\n      swap1\n      pop\n        /* \"#utility.yul\":7:82   */\n      swap1\n      jump\t// out\n        /* \"#utility.yul\":88:205   */\n    tag_21:\n        /* \"#utility.yul\":197:198   */\n      0x00\n        /* \"#utility.yul\":194:195   */\n      dup1\n        /* \"#utility.yul\":187:199   */\n      revert\n        /* \"#utility.yul\":211:328   */\n    tag_22:\n        /* \"#utility.yul\":320:321   */\n      0x00\n        /* \"#utility.yul\":317:318   */\n      dup1\n        /* \"#utility.yul\":310:322   */\n      revert\n        /* \"#utility.yul\":334:451   */\n    tag_23:\n        /* \"#utility.yul\":443:444   */\n      0x00\n        /* \"#utility.yul\":440:441   */\n      dup1\n        /* \"#utility.yul\":433:445   */\n      revert\n        /* \"#utility.yul\":457:574   */\n    tag_24:\n        /* \"#utility.yul\":566:567   */\n      0x00\n        /* \"#utility.yul\":563:564   */\n      dup1\n        /* \"#utility.yul\":556:568   */\n      revert\n        /* \"#utility.yul\":580:682   */\n    tag_25:\n        /* \"#utility.yul\":621:627   */\n      0x00\n        /* \"#utility.yul\":672:674   */\n      0x1f\n        /* \"#utility.yul\":668:675   */\n      not\n        /* \"#utility.yul\":663:665   */\n      0x1f\n        /* \"#utility.yul\":656:661   */\n      dup4\n        /* \"#utility.yul\":652:666   */\n      add\n        /* \"#utility.yul\":648:676   */\n      and\n        /* \"#utility.yul\":638:676   */\n      swap1\n      pop\n        /* \"#utility.yul\":580:682   */\n      swap2\n      swap1\n      pop\n      jump\t// out\n        /* \"#utility.yul\":688:868   */\n    tag_26:\n        /* \"#utility.yul\":736:813   */\n      0x4e487b7100000000000000000000000000000000000000000000000000000000\n        /* \"#utility.yul\":733:734   */\n      0x00\n        /* \"#utility.yul\":726:814   */\n      mstore\n        /* \"#utility.yul\":833:837   */\n      0x41\n        /* \"#utility.yul\":830:831   */\n      0x04\n        /* \"#utility.yul\":823:838   */\n      mstore\n        /* \"#utility.yul\":857:861   */\n      0x24\n        /* \"#utility.yul\":854:855   */\n      0x00\n        /* \"#utility.yul\":847:862   */\n      revert\n        /* \"#utility.yul\":874:1155   */\n    tag_27:\n        /* \"#utility.yul\":957:984   */\n      tag_64\n        /* \"#utility.yul\":979:983   */\n      dup3\n        /* \"#utility.yul\":957:984   */\n      tag_25\n      jump\t// in\n    tag_64:\n        /* \"#utility.yul\":949:955   */\n      dup2\n        /* \"#utility.yul\":945:985   */\n      add\n        /* \"#utility.yul\":1087:1093   */\n      dup2\n        /* \"#utility.yul\":1075:1085   */\n      dup2\n        /* \"#utility.yul\":1072:1094   */\n      lt\n        /* \"#utility.yul\":1051:1069   */\n      0xffffffffffffffff\n        /* \"#utility.yul\":1039:1049   */\n      dup3\n        /* \"#utility.yul\":1036:1070   */\n      gt\n        /* \"#utility.yul\":1033:1095   */\n      or\n        /* \"#utility.yul\":1030:1118   */\n      iszero\n      tag_65\n      jumpi\n        /* \"#utility.yul\":1098:1116   */\n      tag_66\n      tag_26\n      jump\t// in\n    tag_66:\n        /* \"#utility.yul\":1030:1118   */\n    tag_65:\n        /* \"#utility.yul\":1138:1148   */\n      dup1\n        /* \"#utility.yul\":1134:1136   */\n      0x40\n        /* \"#utility.yul\":1127:1149   */\n      mstore\n        /* \"#utility.yul\":917:1155   */\n      pop\n        /* \"#utility.yul\":874:1155   */\n      pop\n      pop\n      jump\t// out\n        /* \"#utility.yul\":1161:1290   */\n    tag_28:\n        /* \"#utility.yul\":1195:1201   */\n      0x00\n        /* \"#utility.yul\":1222:1242   */\n      tag_68\n      tag_20\n      jump\t// in\n    tag_68:\n        /* \"#utility.yul\":1212:1242   */\n      swap1\n      pop\n        /* \"#utility.yul\":1251:1284   */\n      tag_69\n        /* \"#utility.yul\":1279:1283   */\n      dup3\n        /* \"#utility.yul\":1271:1277   */\n      dup3\n        /* \"#utility.yul\":1251:1284   */\n      tag_27\n      jump\t// in\n    tag_69:\n        /* \"#utility.yul\":1161:1290   */\n      swap2\n      swap1\n      pop\n      jump\t// out\n        /* \"#utility.yul\":1296:1604   */\n    tag_29:\n        /* \"#utility.yul\":1358:1362   */\n      0x00\n        /* \"#utility.yul\":1448:1466   */\n      0xffffffffffffffff\n        /* \"#utility.yul\":1440:1446   */\n      dup3\n        /* \"#utility.yul\":1437:1467   */\n      gt\n        /* \"#utility.yul\":1434:1490   */\n      iszero\n      tag_71\n      jumpi\n        /* \"#utility.yul\":1470:1488   */\n      tag_72\n      tag_26\n      jump\t// in\n    tag_72:\n        /* \"#utility.yul\":1434:1490   */\n    tag_71:\n        /* \"#utility.yul\":1508:1537   */\n      tag_73\n        /* \"#utility.yul\":1530:1536   */\n      dup3\n        /* \"#utility.yul\":1508:1537   */\n      tag_25\n      jump\t// in\n    tag_73:\n        /* \"#utility.yul\":1500:1537   */\n      swap1\n      pop\n        /* \"#utility.yul\":1592:1596   */\n      0x20\n        /* \"#utility.yul\":1586:1590   */\n      dup2\n        /* \"#utility.yul\":1582:1597   */\n      add\n        /* \"#utility.yul\":1574:1597   */\n      swap1\n      pop\n        /* \"#utility.yul\":1296:1604   */\n      swap2\n      swap1\n      pop\n      jump\t// out\n        /* \"#utility.yul\":1610:1756   */\n    tag_30:\n        /* \"#utility.yul\":1707:1713   */\n      dup3\n        /* \"#utility.yul\":1702:1705   */\n      dup2\n        /* \"#utility.yul\":1697:1700   */\n      dup4\n        /* \"#utility.yul\":1684:1714   */\n      calldatacopy\n        /* \"#utility.yul\":1748:1749   */\n      0x00\n        /* \"#utility.yul\":1739:1745   */\n      dup4\n        /* \"#utility.yul\":1734:1737   */\n      dup4\n        /* \"#utility.yul\":1730:1746   */\n      add\n        /* \"#utility.yul\":1723:1750   */\n      mstore\n        /* \"#utility.yul\":1610:1756   */\n      pop\n      pop\n      pop\n      jump\t// out\n        /* \"#utility.yul\":1762:2187   */\n    tag_31:\n        /* \"#utility.yul\":1840:1845   */\n      0x00\n        /* \"#utility.yul\":1865:1931   */\n      tag_76\n        /* \"#utility.yul\":1881:1930   */\n      tag_77\n        /* \"#utility.yul\":1923:1929   */\n      dup5\n        /* \"#utility.yul\":1881:1930   */\n      tag_29\n      jump\t// in\n    tag_77:\n        /* \"#utility.yul\":1865:1931   */\n      tag_28\n      jump\t// in\n    tag_76:\n        /* \"#utility.yul\":1856:1931   */\n      swap1\n      pop\n        /* \"#utility.yul\":1954:1960   */\n      dup3\n        /* \"#utility.yul\":1947:1952   */\n      dup2\n        /* \"#utility.yul\":1940:1961   */\n      mstore\n        /* \"#utility.yul\":1992:1996   */\n      0x20\n        /* \"#utility.yul\":1985:1990   */\n      dup2\n        /* \"#utility.yul\":1981:1997   */\n      add\n        /* \"#utility.yul\":2030:2033   */\n      dup5\n        /* \"#utility.yul\":2021:2027   */\n      dup5\n        /* \"#utility.yul\":2016:2019   */\n      dup5\n        /* \"#utility.yul\":2012:2028   */\n      add\n        /* \"#utility.yul\":2009:2034   */\n      gt\n        /* \"#utility.yul\":2006:2118   */\n      iszero\n      tag_78\n      jumpi\n        /* \"#utility.yul\":2037:2116   */\n      tag_79\n      tag_24\n      jump\t// in\n    tag_79:\n        /* \"#utility.yul\":2006:2118   */\n    tag_78:\n        /* \"#utility.yul\":2127:2181   */\n      tag_80\n        /* \"#utility.yul\":2174:2180   */\n      dup5\n        /* \"#utility.yul\":2169:2172   */\n      dup3\n        /* \"#utility.yul\":2164:2167   */\n      dup6\n        /* \"#utility.yul\":2127:2181   */\n      tag_30\n      jump\t// in\n    tag_80:\n        /* \"#utility.yul\":1846:2187   */\n      pop\n        /* \"#utility.yul\":1762:2187   */\n      swap4\n      swap3\n      pop\n      pop\n      pop\n      jump\t// out\n        /* \"#utility.yul\":2207:2547   */\n    tag_32:\n        /* \"#utility.yul\":2263:2268   */\n      0x00\n        /* \"#utility.yul\":2312:2315   */\n      dup3\n        /* \"#utility.yul\":2305:2309   */\n      0x1f\n        /* \"#utility.yul\":2297:2303   */\n      dup4\n        /* \"#utility.yul\":2293:2310   */\n      add\n        /* \"#utility.yul\":2289:2316   */\n      slt\n        /* \"#utility.yul\":2279:2401   */\n      tag_82\n      jumpi\n        /* \"#utility.yul\":2320:2399   */\n      tag_83\n      tag_23\n      jump\t// in\n    tag_83:\n        /* \"#utility.yul\":2279:2401   */\n    tag_82:\n        /* \"#utility.yul\":2437:2443   */\n      dup2\n        /* \"#utility.yul\":2424:2444   */\n      calldataload\n        /* \"#utility.yul\":2462:2541   */\n      tag_84\n        /* \"#utility.yul\":2537:2540   */\n      dup5\n        /* \"#utility.yul\":2529:2535   */\n      dup3\n        /* \"#utility.yul\":2522:2526   */\n      0x20\n        /* \"#utility.yul\":2514:2520   */\n      dup7\n        /* \"#utility.yul\":2510:2527   */\n      add\n        /* \"#utility.yul\":2462:2541   */\n      tag_31\n      jump\t// in\n    tag_84:\n        /* \"#utility.yul\":2453:2541   */\n      swap2\n      pop\n        /* \"#utility.yul\":2269:2547   */\n      pop\n        /* \"#utility.yul\":2207:2547   */\n      swap3\n      swap2\n      pop\n      pop\n      jump\t// out\n        /* \"#utility.yul\":2553:3062   */\n    tag_7:\n        /* \"#utility.yul\":2622:2628   */\n      0x00\n        /* \"#utility.yul\":2671:2673   */\n      0x20\n        /* \"#utility.yul\":2659:2668   */\n      dup3\n        /* \"#utility.yul\":2650:2657   */\n      dup5\n        /* \"#utility.yul\":2646:2669   */\n      sub\n        /* \"#utility.yul\":2642:2674   */\n      slt\n        /* \"#utility.yul\":2639:2758   */\n      iszero\n      tag_86\n      jumpi\n        /* \"#utility.yul\":2677:2756   */\n      tag_87\n      tag_21\n      jump\t// in\n    tag_87:\n        /* \"#utility.yul\":2639:2758   */\n    tag_86:\n        /* \"#utility.yul\":2825:2826   */\n      0x00\n        /* \"#utility.yul\":2814:2823   */\n      dup3\n        /* \"#utility.yul\":2810:2827   */\n      add\n        /* \"#utility.yul\":2797:2828   */\n      calldataload\n        /* \"#utility.yul\":2855:2873   */\n      0xffffffffffffffff\n        /* \"#utility.yul\":2847:2853   */\n      dup2\n        /* \"#utility.yul\":2844:2874   */\n      gt\n        /* \"#utility.yul\":2841:2958   */\n      iszero\n      tag_88\n      jumpi\n        /* \"#utility.yul\":2877:2956   */\n      tag_89\n      tag_22\n      jump\t// in\n    tag_89:\n        /* \"#utility.yul\":2841:2958   */\n    tag_88:\n        /* \"#utility.yul\":2982:3045   */\n      tag_90\n        /* \"#utility.yul\":3037:3044   */\n      dup5\n        /* \"#utility.yul\":3028:3034   */\n      dup3\n        /* \"#utility.yul\":3017:3026   */\n      dup6\n        /* \"#utility.yul\":3013:3035   */\n      add\n        /* \"#utility.yul\":2982:3045   */\n      tag_32\n      jump\t// in\n    tag_90:\n        /* \"#utility.yul\":2972:3045   */\n      swap2\n      pop\n        /* \"#utility.yul\":2768:3055   */\n      pop\n        /* \"#utility.yul\":2553:3062   */\n      swap3\n      swap2\n      pop\n      pop\n      jump\t// out\n        /* \"#utility.yul\":3068:3145   */\n    tag_33:\n        /* \"#utility.yul\":3105:3112   */\n      0x00\n        /* \"#utility.yul\":3134:3139   */\n      dup2\n        /* \"#utility.yul\":3123:3139   */\n      swap1\n      pop\n        /* \"#utility.yul\":3068:3145   */\n      swap2\n      swap1\n      pop\n      jump\t// out\n        /* \"#utility.yul\":3151:3269   */\n    tag_34:\n        /* \"#utility.yul\":3238:3262   */\n      tag_93\n        /* \"#utility.yul\":3256:3261   */\n      dup2\n        /* \"#utility.yul\":3238:3262   */\n      tag_33\n      jump\t// in\n    tag_93:\n        /* \"#utility.yul\":3233:3236   */\n      dup3\n        /* \"#utility.yul\":3226:3263   */\n      mstore\n        /* \"#utility.yul\":3151:3269   */\n      pop\n      pop\n      jump\t// out\n        /* \"#utility.yul\":3275:3497   */\n    tag_10:\n        /* \"#utility.yul\":3368:3372   */\n      0x00\n        /* \"#utility.yul\":3406:3408   */\n      0x20\n        /* \"#utility.yul\":3395:3404   */\n      dup3\n        /* \"#utility.yul\":3391:3409   */\n      add\n        /* \"#utility.yul\":3383:3409   */\n      swap1\n      pop\n        /* \"#utility.yul\":3419:3490   */\n      tag_95\n        /* \"#utility.yul\":3487:3488   */\n      0x00\n        /* \"#utility.yul\":3476:3485   */\n      dup4\n        /* \"#utility.yul\":3472:3489   */\n      add\n        /* \"#utility.yul\":3463:3469   */\n      dup5\n        /* \"#utility.yul\":3419:3490   */\n      tag_34\n      jump\t// in\n    tag_95:\n        /* \"#utility.yul\":3275:3497   */\n      swap3\n      swap2\n      pop\n      pop\n      jump\t// out\n        /* \"#utility.yul\":3503:3625   */\n    tag_35:\n        /* \"#utility.yul\":3576:3600   */\n      tag_97\n        /* \"#utility.yul\":3594:3599   */\n      dup2\n        /* \"#utility.yul\":3576:3600   */\n      tag_33\n      jump\t// in\n    tag_97:\n        /* \"#utility.yul\":3569:3574   */\n      dup2\n        /* \"#utility.yul\":3566:3601   */\n      eq\n        /* \"#utility.yul\":3556:3619   */\n      tag_98\n      jumpi\n        /* \"#utility.yul\":3615:3616   */\n      0x00\n        /* \"#utility.yul\":3612:3613   */\n      dup1\n        /* \"#utility.yul\":3605:3617   */\n      revert\n        /* \"#utility.yul\":3556:3619   */\n    tag_98:\n        /* \"#utility.yul\":3503:3625   */\n      pop\n      jump\t// out\n        /* \"#utility.yul\":3631:3770   */\n    tag_36:\n        /* \"#utility.yul\":3677:3682   */\n      0x00\n        /* \"#utility.yul\":3715:3721   */\n      dup2\n        /* \"#utility.yul\":3702:3722   */\n      calldataload\n        /* \"#utility.yul\":3693:3722   */\n      swap1\n      pop\n        /* \"#utility.yul\":3731:3764   */\n      tag_100\n        /* \"#utility.yul\":3758:3763   */\n      dup2\n        /* \"#utility.yul\":3731:3764   */\n      tag_35\n      jump\t// in\n    tag_100:\n        /* \"#utility.yul\":3631:3770   */\n      swap3\n      swap2\n      pop\n      pop\n      jump\t// out\n        /* \"#utility.yul\":3776:4430   */\n    tag_13:\n        /* \"#utility.yul\":3854:3860   */\n      0x00\n        /* \"#utility.yul\":3862:3868   */\n      dup1\n        /* \"#utility.yul\":3911:3913   */\n      0x40\n        /* \"#utility.yul\":3899:3908   */\n      dup4\n        /* \"#utility.yul\":3890:3897   */\n      dup6\n        /* \"#utility.yul\":3886:3909   */\n      sub\n        /* \"#utility.yul\":3882:3914   */\n      slt\n        /* \"#utility.yul\":3879:3998   */\n      iszero\n      tag_102\n      jumpi\n        /* \"#utility.yul\":3917:3996   */\n      tag_103\n      tag_21\n      jump\t// in\n    tag_103:\n        /* \"#utility.yul\":3879:3998   */\n    tag_102:\n        /* \"#utility.yul\":4065:4066   */\n      0x00\n        /* \"#utility.yul\":4054:4063   */\n      dup4\n        /* \"#utility.yul\":4050:4067   */\n      add\n        /* \"#utility.yul\":4037:4068   */\n      calldataload\n        /* \"#utility.yul\":4095:4113   */\n      0xffffffffffffffff\n        /* \"#utility.yul\":4087:4093   */\n      dup2\n        /* \"#utility.yul\":4084:4114   */\n      gt\n        /* \"#utility.yul\":4081:4198   */\n      iszero\n      tag_104\n      jumpi\n        /* \"#utility.yul\":4117:4196   */\n      tag_105\n      tag_22\n      jump\t// in\n    tag_105:\n        /* \"#utility.yul\":4081:4198   */\n    tag_104:\n        /* \"#utility.yul\":4222:4285   */\n      tag_106\n        /* \"#utility.yul\":4277:4284   */\n      dup6\n        /* \"#utility.yul\":4268:4274   */\n      dup3\n        /* \"#utility.yul\":4257:4266   */\n      dup7\n        /* \"#utility.yul\":4253:4275   */\n      add\n        /* \"#utility.yul\":4222:4285   */\n      tag_32\n      jump\t// in\n    tag_106:\n        /* \"#utility.yul\":4212:4285   */\n      swap3\n      pop\n        /* \"#utility.yul\":4008:4295   */\n      pop\n        /* \"#utility.yul\":4334:4336   */\n      0x20\n        /* \"#utility.yul\":4360:4413   */\n      tag_107\n        /* \"#utility.yul\":4405:4412   */\n      dup6\n        /* \"#utility.yul\":4396:4402   */\n      dup3\n        /* \"#utility.yul\":4385:4394   */\n      dup7\n        /* \"#utility.yul\":4381:4403   */\n      add\n        /* \"#utility.yul\":4360:4413   */\n      tag_36\n      jump\t// in\n    tag_107:\n        /* \"#utility.yul\":4350:4413   */\n      swap2\n      pop\n        /* \"#utility.yul\":4305:4423   */\n      pop\n        /* \"#utility.yul\":3776:4430   */\n      swap3\n      pop\n      swap3\n      swap1\n      pop\n      jump\t// out\n        /* \"#utility.yul\":4436:4535   */\n    tag_37:\n        /* \"#utility.yul\":4488:4494   */\n      0x00\n        /* \"#utility.yul\":4522:4527   */\n      dup2\n        /* \"#utility.yul\":4516:4528   */\n      mload\n        /* \"#utility.yul\":4506:4528   */\n      swap1\n      pop\n        /* \"#utility.yul\":4436:4535   */\n      swap2\n      swap1\n      pop\n      jump\t// out\n        /* \"#utility.yul\":4541:4721   */\n    tag_38:\n        /* \"#utility.yul\":4589:4666   */\n      0x4e487b7100000000000000000000000000000000000000000000000000000000\n        /* \"#utility.yul\":4586:4587   */\n      0x00\n        /* \"#utility.yul\":4579:4667   */\n      mstore\n        /* \"#utility.yul\":4686:4690   */\n      0x22\n        /* \"#utility.yul\":4683:4684   */\n      0x04\n        /* \"#utility.yul\":4676:4691   */\n      mstore\n        /* \"#utility.yul\":4710:4714   */\n      0x24\n        /* \"#utility.yul\":4707:4708   */\n      0x00\n        /* \"#utility.yul\":4700:4715   */\n      revert\n        /* \"#utility.yul\":4727:5047   */\n    tag_39:\n        /* \"#utility.yul\":4771:4777   */\n      0x00\n        /* \"#utility.yul\":4808:4809   */\n      0x02\n        /* \"#utility.yul\":4802:4806   */\n      dup3\n        /* \"#utility.yul\":4798:4810   */\n      div\n        /* \"#utility.yul\":4788:4810   */\n      swap1\n      pop\n        /* \"#utility.yul\":4855:4856   */\n      0x01\n        /* \"#utility.yul\":4849:4853   */\n      dup3\n        /* \"#utility.yul\":4845:4857   */\n      and\n        /* \"#utility.yul\":4876:4894   */\n      dup1\n        /* \"#utility.yul\":4866:4947   */\n      tag_111\n      jumpi\n        /* \"#utility.yul\":4932:4936   */\n      0x7f\n        /* \"#utility.yul\":4924:4930   */\n      dup3\n        /* \"#utility.yul\":4920:4937   */\n      and\n        /* \"#utility.yul\":4910:4937   */\n      swap2\n      pop\n        /* \"#utility.yul\":4866:4947   */\n    tag_111:\n        /* \"#utility.yul\":4994:4996   */\n      0x20\n        /* \"#utility.yul\":4986:4992   */\n      dup3\n        /* \"#utility.yul\":4983:4997   */\n      lt\n        /* \"#utility.yul\":4963:4981   */\n      dup2\n        /* \"#utility.yul\":4960:4998   */\n      sub\n        /* \"#utility.yul\":4957:5041   */\n      tag_112\n      jumpi\n        /* \"#utility.yul\":5013:5031   */\n      tag_113\n      tag_38\n      jump\t// in\n    tag_113:\n        /* \"#utility.yul\":4957:5041   */\n    tag_112:\n        /* \"#utility.yul\":4778:5047   */\n      pop\n        /* \"#utility.yul\":4727:5047   */\n      swap2\n      swap1\n      pop\n      jump\t// out\n        /* \"#utility.yul\":5053:5194   */\n    tag_40:\n        /* \"#utility.yul\":5102:5106   */\n      0x00\n        /* \"#utility.yul\":5125:5128   */\n      dup2\n        /* \"#utility.yul\":5117:5128   */\n      swap1\n      pop\n        /* \"#utility.yul\":5148:5151   */\n      dup2\n        /* \"#utility.yul\":5145:5146   */\n      0x00\n        /* \"#utility.yul\":5138:5152   */\n      mstore\n        /* \"#utility.yul\":5182:5186   */\n      0x20\n        /* \"#utility.yul\":5179:5180   */\n      0x00\n        /* \"#utility.yul\":5169:5187   */\n      keccak256\n        /* \"#utility.yul\":5161:5187   */\n      swap1\n      pop\n        /* \"#utility.yul\":5053:5194   */\n      swap2\n      swap1\n      pop\n      jump\t// out\n        /* \"#utility.yul\":5200:5293   */\n    tag_41:\n        /* \"#utility.yul\":5237:5243   */\n      0x00\n        /* \"#utility.yul\":5284:5286   */\n      0x20\n        /* \"#utility.yul\":5279:5281   */\n      0x1f\n        /* \"#utility.yul\":5272:5277   */\n      dup4\n        /* \"#utility.yul\":5268:5282   */\n      add\n        /* \"#utility.yul\":5264:5287   */\n      div\n        /* \"#utility.yul\":5254:5287   */\n      swap1\n      pop\n        /* \"#utility.yul\":5200:5293   */\n      swap2\n      swap1\n      pop\n      jump\t// out\n        /* \"#utility.yul\":5299:5406   */\n    tag_42:\n        /* \"#utility.yul\":5343:5351   */\n      0x00\n        /* \"#utility.yul\":5393:5398   */\n      dup3\n        /* \"#utility.yul\":5387:5391   */\n      dup3\n        /* \"#utility.yul\":5383:5399   */\n      shl\n        /* \"#utility.yul\":5362:5399   */\n      swap1\n      pop\n        /* \"#utility.yul\":5299:5406   */\n      swap3\n      swap2\n      pop\n      pop\n      jump\t// out\n        /* \"#utility.yul\":5412:5805   */\n    tag_43:\n        /* \"#utility.yul\":5481:5487   */\n      0x00\n        /* \"#utility.yul\":5531:5532   */\n      0x08\n        /* \"#utility.yul\":5519:5529   */\n      dup4\n        /* \"#utility.yul\":5515:5533   */\n      mul\n        /* \"#utility.yul\":5554:5651   */\n      tag_118\n        /* \"#utility.yul\":5584:5650   */\n      0xffffffffffffffffffffffffffffffffffffffffffffffffffffffffffffffff\n        /* \"#utility.yul\":5573:5582   */\n      dup3\n        /* \"#utility.yul\":5554:5651   */\n      tag_42\n      jump\t// in\n    tag_118:\n        /* \"#utility.yul\":5672:5711   */\n      tag_119\n        /* \"#utility.yul\":5702:5710   */\n      dup7\n        /* \"#utility.yul\":5691:5700   */\n      dup4\n        /* \"#utility.yul\":5672:5711   */\n      tag_42\n      jump\t// in\n    tag_119:\n        /* \"#utility.yul\":5660:5711   */\n      swap6\n      pop\n        /* \"#utility.yul\":5744:5748   */\n      dup1\n        /* \"#utility.yul\":5740:5749   */\n      not\n        /* \"#utility.yul\":5733:5738   */\n      dup5\n        /* \"#utility.yul\":5729:5750   */\n      and\n        /* \"#utility.yul\":5720:5750   */\n      swap4\n      pop\n        /* \"#utility.yul\":5793:5797   */\n      dup1\n        /* \"#utility.yul\":5783:5791   */\n      dup7\n        /* \"#utility.yul\":5779:5798   */\n      and\n        /* \"#utility.yul\":5772:5777   */\n      dup5\n        /* \"#utility.yul\":5769:5799   */\n      or\n        /* \"#utility.yul\":5759:5799   */\n      swap3\n      pop\n        /* \"#utility.yul\":5488:5805   */\n      pop\n      pop\n        /* \"#utility.yul\":5412:5805   */\n      swap4\n      swap3\n      pop\n      pop\n      pop\n      jump\t// out\n        /* \"#utility.yul\":5811:5871   */\n    tag_44:\n        /* \"#utility.yul\":5839:5842   */\n      0x00\n        /* \"#utility.yul\":5860:5865   */\n      dup2\n        /* \"#utility.yul\":5853:5865   */\n      swap1\n      pop\n        /* \"#utility.yul\":5811:5871   */\n      swap2\n      swap1\n      pop\n      jump\t// out\n        /* \"#utility.yul\":5877:6019   */\n    tag_45:\n        /* \"#utility.yul\":5927:5936   */\n      0x00\n        /* \"#utility.yul\":5960:6013   */\n      tag_122\n        /* \"#utility.yul\":5978:6012   */\n      tag_123\n        /* \"#utility.yul\":5987:6011   */\n      tag_124\n        /* \"#utility.yul\":6005:6010   */\n      dup5\n        /* \"#utility.yul\":5987:6011   */\n      tag_33\n      jump\t// in\n    tag_124:\n        /* \"#utility.yul\":5978:6012   */\n      tag_44\n      jump\t// in\n    tag_123:\n        /* \"#utility.yul\":5960:6013   */\n      tag_33\n      jump\t// in\n    tag_122:\n        /* \"#utility.yul\":5947:6013   */\n      swap1\n      pop\n        /* \"#utility.yul\":5877:6019   */\n      swap2\n      swap1\n      pop\n      jump\t// out\n        /* \"#utility.yul\":6025:6100   */\n    tag_46:\n        /* \"#utility.yul\":6068:6071   */\n      0x00\n        /* \"#utility.yul\":6089:6094   */\n      dup2\n        /* \"#utility.yul\":6082:6094   */\n      swap1\n      pop\n        /* \"#utility.yul\":6025:6100   */\n      swap2\n      swap1\n      pop\n      jump\t// out\n        /* \"#utility.yul\":6106:6375   */\n    tag_47:\n        /* \"#utility.yul\":6216:6255   */\n      tag_127\n        /* \"#utility.yul\":6247:6254   */\n      dup4\n        /* \"#utility.yul\":6216:6255   */\n      tag_45\n      jump\t// in\n    tag_127:\n        /* \"#utility.yul\":6277:6368   */\n      tag_128\n        /* \"#utility.yul\":6326:6367   */\n      tag_129\n        /* \"#utility.yul\":6350:6366   */\n      dup3\n        /* \"#utility.yul\":6326:6367   */\n      tag_46\n      jump\t// in\n    tag_129:\n        /* \"#utility.yul\":6318:6324   */\n      dup5\n        /* \"#utility.yul\":6311:6315   */\n      dup5\n        /* \"#utility.yul\":6305:6316   */\n      sload\n        /* \"#utility.yul\":6277:6368   */\n      tag_43\n      jump\t// in\n    tag_128:\n        /* \"#utility.yul\":6271:6275   */\n      dup3\n        /* \"#utility.yul\":6264:6369   */\n      sstore\n        /* \"#utility.yul\":6182:6375   */\n      pop\n        /* \"#utility.yul\":6106:6375   */\n      pop\n      pop\n      pop\n      jump\t// out\n        /* \"#utility.yul\":6381:6454   */\n    tag_48:\n        /* \"#utility.yul\":6426:6429   */\n      0x00\n        /* \"#utility.yul\":6381:6454   */\n      swap1\n      jump\t// out\n        /* \"#utility.yul\":6460:6649   */\n    tag_49:\n        /* \"#utility.yul\":6537:6569   */\n      tag_132\n      tag_48\n      jump\t// in\n    tag_132:\n        /* \"#utility.yul\":6578:6643   */\n      tag_133\n        /* \"#utility.yul\":6636:6642   */\n      dup2\n        /* \"#utility.yul\":6628:6634   */\n      dup5\n        /* \"#utility.yul\":6622:6626   */\n      dup5\n        /* \"#utility.yul\":6578:6643   */\n      tag_47\n      jump\t// in\n    tag_133:\n        /* \"#utility.yul\":6513:6649   */\n      pop\n        /* \"#utility.yul\":6460:6649   */\n      pop\n      pop\n      jump\t// out\n        /* \"#utility.yul\":6655:6841   */\n    tag_50:\n        /* \"#utility.yul\":6715:6835   */\n    tag_135:\n        /* \"#utility.yul\":6732:6735   */\n      dup2\n        /* \"#utility.yul\":6725:6730   */\n      dup2\n        /* \"#utility.yul\":6722:6736   */\n      lt\n        /* \"#utility.yul\":6715:6835   */\n      iszero\n      tag_137\n      jumpi\n        /* \"#utility.yul\":6786:6825   */\n      tag_138\n        /* \"#utility.yul\":6823:6824   */\n      0x00\n        /* \"#utility.yul\":6816:6821   */\n      dup3\n        /* \"#utility.yul\":6786:6825   */\n      tag_49\n      jump\t// in\n    tag_138:\n        /* \"#utility.yul\":6759:6760   */\n      0x01\n        /* \"#utility.yul\":6752:6757   */\n      dup2\n        /* \"#utility.yul\":6748:6761   */\n      add\n        /* \"#utility.yul\":6739:6761   */\n      swap1\n      pop\n        /* \"#utility.yul\":6715:6835   */\n      jump(tag_135)\n    tag_137:\n        /* \"#utility.yul\":6655:6841   */\n      pop\n      pop\n      jump\t// out\n        /* \"#utility.yul\":6847:7390   */\n    tag_51:\n        /* \"#utility.yul\":6948:6950   */\n      0x1f\n        /* \"#utility.yul\":6943:6946   */\n      dup3\n        /* \"#utility.yul\":6940:6951   */\n      gt\n        /* \"#utility.yul\":6937:7383   */\n      iszero\n      tag_140\n      jumpi\n        /* \"#utility.yul\":6982:7020   */\n      tag_141\n        /* \"#utility.yul\":7014:7019   */\n      dup2\n        /* \"#utility.yul\":6982:7020   */\n      tag_40\n      jump\t// in\n    tag_141:\n        /* \"#utility.yul\":7066:7095   */\n      tag_142\n        /* \"#utility.yul\":7084:7094   */\n      dup5\n        /* \"#utility.yul\":7066:7095   */\n      tag_41\n      jump\t// in\n    tag_142:\n        /* \"#utility.yul\":7056:7064   */\n      dup2\n        /* \"#utility.yul\":7052:7096   */\n      add\n        /* \"#utility.yul\":7249:7251   */\n      0x20\n        /* \"#utility.yul\":7237:7247   */\n      dup6\n        /* \"#utility.yul\":7234:7252   */\n      lt\n        /* \"#utility.yul\":7231:7280   */\n      iszero\n      tag_143\n      jumpi\n        /* \"#utility.yul\":7270:7278   */\n      dup2\n        /* \"#utility.yul\":7255:7278   */\n      swap1\n      pop\n        /* \"#utility.yul\":7231:7280   */\n    tag_143:\n        /* \"#utility.yul\":7293:7373   */\n      tag_144\n        /* \"#utility.yul\":7349:7371   */\n      tag_145\n        /* \"#utility.yul\":7367:7370   */\n      dup6\n        /* \"#utility.yul\":7349:7371   */\n      tag_41\n      jump\t// in\n    tag_145:\n        /* \"#utility.yul\":7339:7347   */\n      dup4\n        /* \"#utility.yul\":7335:7372   */\n      add\n        /* \"#utility.yul\":7322:7333   */\n      dup3\n        /* \"#utility.yul\":7293:7373   */\n      tag_50\n      jump\t// in\n    tag_144:\n        /* \"#utility.yul\":6952:7383   */\n      pop\n      pop\n        /* \"#utility.yul\":6937:7383   */\n    tag_140:\n        /* \"#utility.yul\":6847:7390   */\n      pop\n      pop\n      pop\n      jump\t// out\n        /* \"#utility.yul\":7396:7513   */\n    tag_52:\n        /* \"#utility.yul\":7450:7458   */\n      0x00\n        /* \"#utility.yul\":7500:7505   */\n      dup3\n        /* \"#utility.yul\":7494:7498   */\n      dup3\n        /* \"#utility.yul\":7490:7506   */\n      shr\n        /* \"#utility.yul\":7469:7506   */\n      swap1\n      pop\n        /* \"#utility.yul\":7396:7513   */\n      swap3\n      swap2\n      pop\n      pop\n      jump\t// out\n        /* \"#utility.yul\":7519:7688   */\n    tag_53:\n        /* \"#utility.yul\":7563:7569   */\n      0x00\n        /* \"#utility.yul\":7596:7647   */\n      tag_148\n        /* \"#utility.yul\":7644:7645   */\n      0x00\n        /* \"#utility.yul\":7640:7646   */\n      not\n        /* \"#utility.yul\":7632:7637   */\n      dup5\n        /* \"#utility.yul\":7629:7630   */\n      0x08\n        /* \"#utility.yul\":7625:7638   */\n      mul\n        /* \"#utility.yul\":7596:7647   */\n      tag_52\n      jump\t// in\n    tag_148:\n        /* \"#utility.yul\":7592:7648   */\n      not\n        /* \"#utility.yul\":7677:7681   */\n      dup1\n        /* \"#utility.yul\":7671:7675   */\n      dup4\n        /* \"#utility.yul\":7667:7682   */\n      and\n        /* \"#utility.yul\":7657:7682   */\n      swap2\n      pop\n        /* \"#utility.yul\":7570:7688   */\n      pop\n        /* \"#utility.yul\":7519:7688   */\n      swap3\n      swap2\n      pop\n      pop\n      jump\t// out\n        /* \"#utility.yul\":7693:7988   */\n    tag_54:\n        /* \"#utility.yul\":7769:7773   */\n      0x00\n        /* \"#utility.yul\":7915:7944   */\n      tag_150\n        /* \"#utility.yul\":7940:7943   */\n      dup4\n        /* \"#utility.yul\":7934:7938   */\n      dup4\n        /* \"#utility.yul\":7915:7944   */\n      tag_53\n      jump\t// in\n    tag_150:\n        /* \"#utility.yul\":7907:7944   */\n      swap2\n      pop\n        /* \"#utility.yul\":7977:7980   */\n      dup3\n        /* \"#utility.yul\":7974:7975   */\n      0x02\n        /* \"#utility.yul\":7970:7981   */\n      mul\n        /* \"#utility.yul\":7964:7968   */\n      dup3\n        /* \"#utility.yul\":7961:7982   */\n      or\n        /* \"#utility.yul\":7953:7982   */\n      swap1\n      pop\n        /* \"#utility.yul\":7693:7988   */\n      swap3\n      swap2\n      pop\n      pop\n      jump\t// out\n        /* \"#utility.yul\":7993:9388   */\n    tag_19:\n        /* \"#utility.yul\":8110:8147   */\n      tag_152\n        /* \"#utility.yul\":8143:8146   */\n      dup3\n        /* \"#utility.yul\":8110:8147   */\n      tag_37\n      jump\t// in\n    tag_152:\n        /* \"#utility.yul\":8212:8230   */\n      0xffffffffffffffff\n        /* \"#utility.yul\":8204:8210   */\n      dup2\n        /* \"#utility.yul\":8201:8231   */\n      gt\n        /* \"#utility.yul\":8198:8254   */\n      iszero\n      tag_153\n      jumpi\n        /* \"#utility.yul\":8234:8252   */\n      tag_154\n      tag_26\n      jump\t// in\n    tag_154:\n        /* \"#utility.yul\":8198:8254   */\n    tag_153:\n        /* \"#utility.yul\":8278:8316   */\n      tag_155\n        /* \"#utility.yul\":8310:8314   */\n      dup3\n        /* \"#utility.yul\":8304:8315   */\n      sload\n        /* \"#utility.yul\":8278:8316   */\n      tag_39\n      jump\t// in\n    tag_155:\n        /* \"#utility.yul\":8363:8430   */\n      tag_156\n        /* \"#utility.yul\":8423:8429   */\n      dup3\n        /* \"#utility.yul\":8415:8421   */\n      dup3\n        /* \"#utility.yul\":8409:8413   */\n      dup6\n        /* \"#utility.yul\":8363:8430   */\n      tag_51\n      jump\t// in\n    tag_156:\n        /* \"#utility.yul\":8457:8458   */\n      0x00\n        /* \"#utility.yul\":8481:8485   */\n      0x20\n        /* \"#utility.yul\":8468:8485   */\n      swap1\n      pop\n        /* \"#utility.yul\":8513:8515   */\n      0x1f\n        /* \"#utility.yul\":8505:8511   */\n      dup4\n        /* \"#utility.yul\":8502:8516   */\n      gt\n        /* \"#utility.yul\":8530:8531   */\n      0x01\n        /* \"#utility.yul\":8525:9143   */\n      dup2\n      eq\n      tag_158\n      jumpi\n        /* \"#utility.yul\":9187:9188   */\n      0x00\n        /* \"#utility.yul\":9204:9210   */\n      dup5\n        /* \"#utility.yul\":9201:9278   */\n      iszero\n      tag_159\n      jumpi\n        /* \"#utility.yul\":9253:9262   */\n      dup3\n        /* \"#utility.yul\":9248:9251   */\n      dup8\n        /* \"#utility.yul\":9244:9263   */\n      add\n        /* \"#utility.yul\":9238:9264   */\n      mload\n        /* \"#utility.yul\":9229:9264   */\n      swap1\n      pop\n        /* \"#utility.yul\":9201:9278   */\n    tag_159:\n        /* \"#utility.yul\":9304:9371   */\n      tag_160\n        /* \"#utility.yul\":9364:9370   */\n      dup6\n        /* \"#utility.yul\":9357:9362   */\n      dup3\n        /* \"#utility.yul\":9304:9371   */\n      tag_54\n      jump\t// in\n    tag_160:\n        /* \"#utility.yul\":9298:9302   */\n      dup7\n        /* \"#utility.yul\":9291:9372   */\n      sstore\n        /* \"#utility.yul\":9160:9382   */\n      pop\n        /* \"#utility.yul\":8495:9382   */\n      jump(tag_157)\n        /* \"#utility.yul\":8525:9143   */\n    tag_158:\n        /* \"#utility.yul\":8577:8581   */\n      0x1f\n        /* \"#utility.yul\":8573:8582   */\n      not\n        /* \"#utility.yul\":8565:8571   */\n      dup5\n        /* \"#utility.yul\":8561:8583   */\n      and\n        /* \"#utility.yul\":8611:8648   */\n      tag_161\n        /* \"#utility.yul\":8643:8647   */\n      dup7\n        /* \"#utility.yul\":8611:8648   */\n      tag_40\n      jump\t// in\n    tag_161:\n        /* \"#utility.yul\":8670:8671   */\n      0x00\n        /* \"#utility.yul\":8684:8892   */\n    tag_162:\n        /* \"#utility.yul\":8698:8705   */\n      dup3\n        /* \"#utility.yul\":8695:8696   */\n      dup2\n        /* \"#utility.yul\":8692:8706   */\n      lt\n        /* \"#utility.yul\":8684:8892   */\n      iszero\n      tag_164\n      jumpi\n        /* \"#utility.yul\":8777:8786   */\n      dup5\n        /* \"#utility.yul\":8772:8775   */\n      dup10\n        /* \"#utility.yul\":8768:8787   */\n      add\n        /* \"#utility.yul\":8762:8788   */\n      mload\n        /* \"#utility.yul\":8754:8760   */\n      dup3\n        /* \"#utility.yul\":8747:8789   */\n      sstore\n        /* \"#utility.yul\":8828:8829   */\n      0x01\n        /* \"#utility.yul\":8820:8826   */\n      dup3\n        /* \"#utility.yul\":8816:8830   */\n      add\n        /* \"#utility.yul\":8806:8830   */\n      swap2\n      pop\n        /* \"#utility.yul\":8875:8877   */\n      0x20\n        /* \"#utility.yul\":8864:8873   */\n      dup6\n        /* \"#utility.yul\":8860:8878   */\n      add\n        /* \"#utility.yul\":8847:8878   */\n      swap5\n      pop\n        /* \"#utility.yul\":8721:8725   */\n      0x20\n        /* \"#utility.yul\":8718:8719   */\n      dup2\n        /* \"#utility.yul\":8714:8726   */\n      add\n        /* \"#utility.yul\":8709:8726   */\n      swap1\n      pop\n        /* \"#utility.yul\":8684:8892   */\n      jump(tag_162)\n    tag_164:\n        /* \"#utility.yul\":8920:8926   */\n      dup7\n        /* \"#utility.yul\":8911:8918   */\n      dup4\n        /* \"#utility.yul\":8908:8927   */\n      lt\n        /* \"#utility.yul\":8905:9084   */\n      iszero\n      tag_165\n      jumpi\n        /* \"#utility.yul\":8978:8987   */\n      dup5\n        /* \"#utility.yul\":8973:8976   */\n      dup10\n        /* \"#utility.yul\":8969:8988   */\n      add\n        /* \"#utility.yul\":8963:8989   */\n      mload\n        /* \"#utility.yul\":9021:9069   */\n      tag_166\n        /* \"#utility.yul\":9063:9067   */\n      0x1f\n        /* \"#utility.yul\":9055:9061   */\n      dup10\n        /* \"#utility.yul\":9051:9068   */\n      and\n        /* \"#utility.yul\":9040:9049   */\n      dup3\n        /* \"#utility.yul\":9021:9069   */\n      tag_53\n      jump\t// in\n    tag_166:\n        /* \"#utility.yul\":9013:9019   */\n      dup4\n        /* \"#utility.yul\":9006:9070   */\n      sstore\n        /* \"#utility.yul\":8928:9084   */\n      pop\n        /* \"#utility.yul\":8905:9084   */\n    tag_165:\n        /* \"#utility.yul\":9130:9131   */\n      0x01\n        /* \"#utility.yul\":9126:9127   */\n      0x02\n        /* \"#utility.yul\":9118:9124   */\n      dup9\n        /* \"#utility.yul\":9114:9128   */\n      mul\n        /* \"#utility.yul\":9110:9132   */\n      add\n        /* \"#utility.yul\":9104:9108   */\n      dup9\n        /* \"#utility.yul\":9097:9133   */\n      sstore\n        /* \"#utility.yul\":8532:9143   */\n      pop\n      pop\n      pop\n        /* \"#utility.yul\":8495:9382   */\n    tag_157:\n      pop\n        /* \"#utility.yul\":8085:9388   */\n      pop\n      pop\n      pop\n        /* \"#utility.yul\":7993:9388   */\n      pop\n      pop\n      jump\t// out\n\n    auxdata: 0xa264697066735822122026ebca98039e897472556dc5d26a38fd69b8e295b953d4f2a029d61babac4b2f64736f6c63430008110033\n}\n",
				"bytecode": {
					"linkReferences": {},
					"object": "608060405234801561001057600080fd5b50610672806100206000396000f3fe608060405234801561001057600080fd5b50600436106100365760003560e01c8063820ed0861461003b5780639f6563211461006b575b600080fd5b6100556004803603810190610050919061024e565b610087565b60405161006291906102b0565b60405180910390f35b610085600480360381019061008091906102f7565b61008e565b005b6000919050565b6000604051806040016040528084815260200183815250908060018154018082558091505060019003906000526020600020906002020160009091909190915060008201518160000190816100e3919061056a565b506020820151816001015550505050565b6000604051905090565b600080fd5b600080fd5b600080fd5b600080fd5b6000601f19601f8301169050919050565b7f4e487b7100000000000000000000000000000000000000000000000000000000600052604160045260246000fd5b61015b82610112565b810181811067ffffffffffffffff8211171561017a57610179610123565b5b80604052505050565b600061018d6100f4565b90506101998282610152565b919050565b600067ffffffffffffffff8211156101b9576101b8610123565b5b6101c282610112565b9050602081019050919050565b82818337600083830152505050565b60006101f16101ec8461019e565b610183565b90508281526020810184848401111561020d5761020c61010d565b5b6102188482856101cf565b509392505050565b600082601f83011261023557610234610108565b5b81356102458482602086016101de565b91505092915050565b600060208284031215610264576102636100fe565b5b600082013567ffffffffffffffff81111561028257610281610103565b5b61028e84828501610220565b91505092915050565b6000819050919050565b6102aa81610297565b82525050565b60006020820190506102c560008301846102a1565b92915050565b6102d481610297565b81146102df57600080fd5b50565b6000813590506102f1816102cb565b92915050565b6000806040838503121561030e5761030d6100fe565b5b600083013567ffffffffffffffff81111561032c5761032b610103565b5b61033885828601610220565b9250506020610349858286016102e2565b9150509250929050565b600081519050919050565b7f4e487b7100000000000000000000000000000000000000000000000000000000600052602260045260246000fd5b600060028204905060018216806103a557607f821691505b6020821081036103b8576103b761035e565b5b50919050565b60008190508160005260206000209050919050565b60006020601f8301049050919050565b600082821b905092915050565b6000600883026104207fffffffffffffffffffffffffffffffffffffffffffffffffffffffffffffffff826103e3565b61042a86836103e3565b95508019841693508086168417925050509392505050565b6000819050919050565b600061046761046261045d84610297565b610442565b610297565b9050919050565b6000819050919050565b6104818361044c565b61049561048d8261046e565b8484546103f0565b825550505050565b600090565b6104aa61049d565b6104b5818484610478565b505050565b5b818110156104d9576104ce6000826104a2565b6001810190506104bb565b5050565b601f82111561051e576104ef816103be565b6104f8846103d3565b81016020851015610507578190505b61051b610513856103d3565b8301826104ba565b50505b505050565b600082821c905092915050565b600061054160001984600802610523565b1980831691505092915050565b600061055a8383610530565b9150826002028217905092915050565b61057382610353565b67ffffffffffffffff81111561058c5761058b610123565b5b610596825461038d565b6105a18282856104dd565b600060209050601f8311600181146105d457600084156105c2578287015190505b6105cc858261054e565b865550610634565b601f1984166105e2866103be565b60005b8281101561060a578489015182556001820191506020850194506020810190506105e5565b868310156106275784890151610623601f891682610530565b8355505b6001600288020188555050505b50505050505056fea264697066735822122026ebca98039e897472556dc5d26a38fd69b8e295b953d4f2a029d61babac4b2f64736f6c63430008110033",
					"opcodes": "PUSH1 0x80 PUSH1 0x40 MSTORE CALLVALUE DUP1 ISZERO PUSH2 0x10 JUMPI PUSH1 0x0 DUP1 REVERT JUMPDEST POP PUSH2 0x672 DUP1 PUSH2 0x20 PUSH1 0x0 CODECOPY PUSH1 0x0 RETURN INVALID PUSH1 0x80 PUSH1 0x40 MSTORE CALLVALUE DUP1 ISZERO PUSH2 0x10 JUMPI PUSH1 0x0 DUP1 REVERT JUMPDEST POP PUSH1 0x4 CALLDATASIZE LT PUSH2 0x36 JUMPI PUSH1 0x0 CALLDATALOAD PUSH1 0xE0 SHR DUP1 PUSH4 0x820ED086 EQ PUSH2 0x3B JUMPI DUP1 PUSH4 0x9F656321 EQ PUSH2 0x6B JUMPI JUMPDEST PUSH1 0x0 DUP1 REVERT JUMPDEST PUSH2 0x55 PUSH1 0x4 DUP1 CALLDATASIZE SUB DUP2 ADD SWAP1 PUSH2 0x50 SWAP2 SWAP1 PUSH2 0x24E JUMP JUMPDEST PUSH2 0x87 JUMP JUMPDEST PUSH1 0x40 MLOAD PUSH2 0x62 SWAP2 SWAP1 PUSH2 0x2B0 JUMP JUMPDEST PUSH1 0x40 MLOAD DUP1 SWAP2 SUB SWAP1 RETURN JUMPDEST PUSH2 0x85 PUSH1 0x4 DUP1 CALLDATASIZE SUB DUP2 ADD SWAP1 PUSH2 0x80 SWAP2 SWAP1 PUSH2 0x2F7 JUMP JUMPDEST PUSH2 0x8E JUMP JUMPDEST STOP JUMPDEST PUSH1 0x0 SWAP2 SWAP1 POP JUMP JUMPDEST PUSH1 0x0 PUSH1 0x40 MLOAD DUP1 PUSH1 0x40 ADD PUSH1 0x40 MSTORE DUP1 DUP5 DUP2 MSTORE PUSH1 0x20 ADD DUP4 DUP2 MSTORE POP SWAP1 DUP1 PUSH1 0x1 DUP2 SLOAD ADD DUP1 DUP3 SSTORE DUP1 SWAP2 POP POP PUSH1 0x1 SWAP1 SUB SWAP1 PUSH1 0x0 MSTORE PUSH1 0x20 PUSH1 0x0 KECCAK256 SWAP1 PUSH1 0x2 MUL ADD PUSH1 0x0 SWAP1 SWAP2 SWAP1 SWAP2 SWAP1 SWAP2 POP PUSH1 0x0 DUP3 ADD MLOAD DUP2 PUSH1 0x0 ADD SWAP1 DUP2 PUSH2 0xE3 SWAP2 SWAP1 PUSH2 0x56A JUMP JUMPDEST POP PUSH1 0x20 DUP3 ADD MLOAD DUP2 PUSH1 0x1 ADD SSTORE POP POP POP POP JUMP JUMPDEST PUSH1 0x0 PUSH1 0x40 MLOAD SWAP1 POP SWAP1 JUMP JUMPDEST PUSH1 0x0 DUP1 REVERT JUMPDEST PUSH1 0x0 DUP1 REVERT JUMPDEST PUSH1 0x0 DUP1 REVERT JUMPDEST PUSH1 0x0 DUP1 REVERT JUMPDEST PUSH1 0x0 PUSH1 0x1F NOT PUSH1 0x1F DUP4 ADD AND SWAP1 POP SWAP2 SWAP1 POP JUMP JUMPDEST PUSH32 0x4E487B7100000000000000000000000000000000000000000000000000000000 PUSH1 0x0 MSTORE PUSH1 0x41 PUSH1 0x4 MSTORE PUSH1 0x24 PUSH1 0x0 REVERT JUMPDEST PUSH2 0x15B DUP3 PUSH2 0x112 JUMP JUMPDEST DUP2 ADD DUP2 DUP2 LT PUSH8 0xFFFFFFFFFFFFFFFF DUP3 GT OR ISZERO PUSH2 0x17A JUMPI PUSH2 0x179 PUSH2 0x123 JUMP JUMPDEST JUMPDEST DUP1 PUSH1 0x40 MSTORE POP POP POP JUMP JUMPDEST PUSH1 0x0 PUSH2 0x18D PUSH2 0xF4 JUMP JUMPDEST SWAP1 POP PUSH2 0x199 DUP3 DUP3 PUSH2 0x152 JUMP JUMPDEST SWAP2 SWAP1 POP JUMP JUMPDEST PUSH1 0x0 PUSH8 0xFFFFFFFFFFFFFFFF DUP3 GT ISZERO PUSH2 0x1B9 JUMPI PUSH2 0x1B8 PUSH2 0x123 JUMP JUMPDEST JUMPDEST PUSH2 0x1C2 DUP3 PUSH2 0x112 JUMP JUMPDEST SWAP1 POP PUSH1 0x20 DUP2 ADD SWAP1 POP SWAP2 SWAP1 POP JUMP JUMPDEST DUP3 DUP2 DUP4 CALLDATACOPY PUSH1 0x0 DUP4 DUP4 ADD MSTORE POP POP POP JUMP JUMPDEST PUSH1 0x0 PUSH2 0x1F1 PUSH2 0x1EC DUP5 PUSH2 0x19E JUMP JUMPDEST PUSH2 0x183 JUMP JUMPDEST SWAP1 POP DUP3 DUP2 MSTORE PUSH1 0x20 DUP2 ADD DUP5 DUP5 DUP5 ADD GT ISZERO PUSH2 0x20D JUMPI PUSH2 0x20C PUSH2 0x10D JUMP JUMPDEST JUMPDEST PUSH2 0x218 DUP5 DUP3 DUP6 PUSH2 0x1CF JUMP JUMPDEST POP SWAP4 SWAP3 POP POP POP JUMP JUMPDEST PUSH1 0x0 DUP3 PUSH1 0x1F DUP4 ADD SLT PUSH2 0x235 JUMPI PUSH2 0x234 PUSH2 0x108 JUMP JUMPDEST JUMPDEST DUP2 CALLDATALOAD PUSH2 0x245 DUP5 DUP3 PUSH1 0x20 DUP7 ADD PUSH2 0x1DE JUMP JUMPDEST SWAP2 POP POP SWAP3 SWAP2 POP POP JUMP JUMPDEST PUSH1 0x0 PUSH1 0x20 DUP3 DUP5 SUB SLT ISZERO PUSH2 0x264 JUMPI PUSH2 0x263 PUSH2 0xFE JUMP JUMPDEST JUMPDEST PUSH1 0x0 DUP3 ADD CALLDATALOAD PUSH8 0xFFFFFFFFFFFFFFFF DUP2 GT ISZERO PUSH2 0x282 JUMPI PUSH2 0x281 PUSH2 0x103 JUMP JUMPDEST JUMPDEST PUSH2 0x28E DUP5 DUP3 DUP6 ADD PUSH2 0x220 JUMP JUMPDEST SWAP2 POP POP SWAP3 SWAP2 POP POP JUMP JUMPDEST PUSH1 0x0 DUP2 SWAP1 POP SWAP2 SWAP1 POP JUMP JUMPDEST PUSH2 0x2AA DUP2 PUSH2 0x297 JUMP JUMPDEST DUP3 MSTORE POP POP JUMP JUMPDEST PUSH1 0x0 PUSH1 0x20 DUP3 ADD SWAP1 POP PUSH2 0x2C5 PUSH1 0x0 DUP4 ADD DUP5 PUSH2 0x2A1 JUMP JUMPDEST SWAP3 SWAP2 POP POP JUMP JUMPDEST PUSH2 0x2D4 DUP2 PUSH2 0x297 JUMP JUMPDEST DUP2 EQ PUSH2 0x2DF JUMPI PUSH1 0x0 DUP1 REVERT JUMPDEST POP JUMP JUMPDEST PUSH1 0x0 DUP2 CALLDATALOAD SWAP1 POP PUSH2 0x2F1 DUP2 PUSH2 0x2CB JUMP JUMPDEST SWAP3 SWAP2 POP POP JUMP JUMPDEST PUSH1 0x0 DUP1 PUSH1 0x40 DUP4 DUP6 SUB SLT ISZERO PUSH2 0x30E JUMPI PUSH2 0x30D PUSH2 0xFE JUMP JUMPDEST JUMPDEST PUSH1 0x0 DUP4 ADD CALLDATALOAD PUSH8 0xFFFFFFFFFFFFFFFF DUP2 GT ISZERO PUSH2 0x32C JUMPI PUSH2 0x32B PUSH2 0x103 JUMP JUMPDEST JUMPDEST PUSH2 0x338 DUP6 DUP3 DUP7 ADD PUSH2 0x220 JUMP JUMPDEST SWAP3 POP POP PUSH1 0x20 PUSH2 0x349 DUP6 DUP3 DUP7 ADD PUSH2 0x2E2 JUMP JUMPDEST SWAP2 POP POP SWAP3 POP SWAP3 SWAP1 POP JUMP JUMPDEST PUSH1 0x0 DUP2 MLOAD SWAP1 POP SWAP2 SWAP1 POP JUMP JUMPDEST PUSH32 0x4E487B7100000000000000000000000000000000000000000000000000000000 PUSH1 0x0 MSTORE PUSH1 0x22 PUSH1 0x4 MSTORE PUSH1 0x24 PUSH1 0x0 REVERT JUMPDEST PUSH1 0x0 PUSH1 0x2 DUP3 DIV SWAP1 POP PUSH1 0x1 DUP3 AND DUP1 PUSH2 0x3A5 JUMPI PUSH1 0x7F DUP3 AND SWAP2 POP JUMPDEST PUSH1 0x20 DUP3 LT DUP2 SUB PUSH2 0x3B8 JUMPI PUSH2 0x3B7 PUSH2 0x35E JUMP JUMPDEST JUMPDEST POP SWAP2 SWAP1 POP JUMP JUMPDEST PUSH1 0x0 DUP2 SWAP1 POP DUP2 PUSH1 0x0 MSTORE PUSH1 0x20 PUSH1 0x0 KECCAK256 SWAP1 POP SWAP2 SWAP1 POP JUMP JUMPDEST PUSH1 0x0 PUSH1 0x20 PUSH1 0x1F DUP4 ADD DIV SWAP1 POP SWAP2 SWAP1 POP JUMP JUMPDEST PUSH1 0x0 DUP3 DUP3 SHL SWAP1 POP SWAP3 SWAP2 POP POP JUMP JUMPDEST PUSH1 0x0 PUSH1 0x8 DUP4 MUL PUSH2 0x420 PUSH32 0xFFFFFFFFFFFFFFFFFFFFFFFFFFFFFFFFFFFFFFFFFFFFFFFFFFFFFFFFFFFFFFFF DUP3 PUSH2 0x3E3 JUMP JUMPDEST PUSH2 0x42A DUP7 DUP4 PUSH2 0x3E3 JUMP JUMPDEST SWAP6 POP DUP1 NOT DUP5 AND SWAP4 POP DUP1 DUP7 AND DUP5 OR SWAP3 POP POP POP SWAP4 SWAP3 POP POP POP JUMP JUMPDEST PUSH1 0x0 DUP2 SWAP1 POP SWAP2 SWAP1 POP JUMP JUMPDEST PUSH1 0x0 PUSH2 0x467 PUSH2 0x462 PUSH2 0x45D DUP5 PUSH2 0x297 JUMP JUMPDEST PUSH2 0x442 JUMP JUMPDEST PUSH2 0x297 JUMP JUMPDEST SWAP1 POP SWAP2 SWAP1 POP JUMP JUMPDEST PUSH1 0x0 DUP2 SWAP1 POP SWAP2 SWAP1 POP JUMP JUMPDEST PUSH2 0x481 DUP4 PUSH2 0x44C JUMP JUMPDEST PUSH2 0x495 PUSH2 0x48D DUP3 PUSH2 0x46E JUMP JUMPDEST DUP5 DUP5 SLOAD PUSH2 0x3F0 JUMP JUMPDEST DUP3 SSTORE POP POP POP POP JUMP JUMPDEST PUSH1 0x0 SWAP1 JUMP JUMPDEST PUSH2 0x4AA PUSH2 0x49D JUMP JUMPDEST PUSH2 0x4B5 DUP2 DUP5 DUP5 PUSH2 0x478 JUMP JUMPDEST POP POP POP JUMP JUMPDEST JUMPDEST DUP2 DUP2 LT ISZERO PUSH2 0x4D9 JUMPI PUSH2 0x4CE PUSH1 0x0 DUP3 PUSH2 0x4A2 JUMP JUMPDEST PUSH1 0x1 DUP2 ADD SWAP1 POP PUSH2 0x4BB JUMP JUMPDEST POP POP JUMP JUMPDEST PUSH1 0x1F DUP3 GT ISZERO PUSH2 0x51E JUMPI PUSH2 0x4EF DUP2 PUSH2 0x3BE JUMP JUMPDEST PUSH2 0x4F8 DUP5 PUSH2 0x3D3 JUMP JUMPDEST DUP2 ADD PUSH1 0x20 DUP6 LT ISZERO PUSH2 0x507 JUMPI DUP2 SWAP1 POP JUMPDEST PUSH2 0x51B PUSH2 0x513 DUP6 PUSH2 0x3D3 JUMP JUMPDEST DUP4 ADD DUP3 PUSH2 0x4BA JUMP JUMPDEST POP POP JUMPDEST POP POP POP JUMP JUMPDEST PUSH1 0x0 DUP3 DUP3 SHR SWAP1 POP SWAP3 SWAP2 POP POP JUMP JUMPDEST PUSH1 0x0 PUSH2 0x541 PUSH1 0x0 NOT DUP5 PUSH1 0x8 MUL PUSH2 0x523 JUMP JUMPDEST NOT DUP1 DUP4 AND SWAP2 POP POP SWAP3 SWAP2 POP POP JUMP JUMPDEST PUSH1 0x0 PUSH2 0x55A DUP4 DUP4 PUSH2 0x530 JUMP JUMPDEST SWAP2 POP DUP3 PUSH1 0x2 MUL DUP3 OR SWAP1 POP SWAP3 SWAP2 POP POP JUMP JUMPDEST PUSH2 0x573 DUP3 PUSH2 0x353 JUMP JUMPDEST PUSH8 0xFFFFFFFFFFFFFFFF DUP2 GT ISZERO PUSH2 0x58C JUMPI PUSH2 0x58B PUSH2 0x123 JUMP JUMPDEST JUMPDEST PUSH2 0x596 DUP3 SLOAD PUSH2 0x38D JUMP JUMPDEST PUSH2 0x5A1 DUP3 DUP3 DUP6 PUSH2 0x4DD JUMP JUMPDEST PUSH1 0x0 PUSH1 0x20 SWAP1 POP PUSH1 0x1F DUP4 GT PUSH1 0x1 DUP2 EQ PUSH2 0x5D4 JUMPI PUSH1 0x0 DUP5 ISZERO PUSH2 0x5C2 JUMPI DUP3 DUP8 ADD MLOAD SWAP1 POP JUMPDEST PUSH2 0x5CC DUP6 DUP3 PUSH2 0x54E JUMP JUMPDEST DUP7 SSTORE POP PUSH2 0x634 JUMP JUMPDEST PUSH1 0x1F NOT DUP5 AND PUSH2 0x5E2 DUP7 PUSH2 0x3BE JUMP JUMPDEST PUSH1 0x0 JUMPDEST DUP3 DUP2 LT ISZERO PUSH2 0x60A JUMPI DUP5 DUP10 ADD MLOAD DUP3 SSTORE PUSH1 0x1 DUP3 ADD SWAP2 POP PUSH1 0x20 DUP6 ADD SWAP5 POP PUSH1 0x20 DUP2 ADD SWAP1 POP PUSH2 0x5E5 JUMP JUMPDEST DUP7 DUP4 LT ISZERO PUSH2 0x627 JUMPI DUP5 DUP10 ADD MLOAD PUSH2 0x623 PUSH1 0x1F DUP10 AND DUP3 PUSH2 0x530 JUMP JUMPDEST DUP4 SSTORE POP JUMPDEST PUSH1 0x1 PUSH1 0x2 DUP9 MUL ADD DUP9 SSTORE POP POP POP JUMPDEST POP POP POP POP POP POP JUMP INVALID LOG2 PUSH5 0x6970667358 0x22 SLT KECCAK256 0x26 0xEB 0xCA SWAP9 SUB SWAP15 DUP10 PUSH21 0x72556DC5D26A38FD69B8E295B953D4F2A029D61BAB 0xAC 0x4B 0x2F PUSH5 0x736F6C6343 STOP ADDMOD GT STOP CALLER "
				},
				"gasEstimates": {
					"creation": {
						"codeDepositCost": "330000",
						"executionCost": "368",
						"totalCost": "330368"
					},
					"external": {
						"search(string)": "infinite",
						"sell(string,uint256)": "infinite"
					}
				},
				"methodIdentifiers": {
					"search(string)": "820ed086",
					"sell(string,uint256)": "9f656321"
				}
			},
			"storageLayout": {
				"storage": [
					{
						"astId": 10,
						"contract": "chapter2/Ex2_10.sol:Ex2_10",
						"label": "openMarket",
						"offset": 0,
						"slot": "0",
						"type": "t_array(t_struct(Market)6_storage)dyn_storage"
					}
				],
				"types": {
					"t_array(t_struct(Market)6_storage)dyn_storage": {
						"base": "t_struct(Market)6_storage",
						"encoding": "dynamic_array",
						"label": "struct Ex2_10.Market[]",
						"numberOfBytes": "32"
					},
					"t_string_storage": {
						"encoding": "bytes",
						"label": "string",
						"numberOfBytes": "32"
					},
					"t_struct(Market)6_storage": {
						"encoding": "inplace",
						"label": "struct Ex2_10.Market",
						"members": [
							{
								"astId": 3,
								"contract": "chapter2/Ex2_10.sol:Ex2_10",
								"label": "itemName",
								"offset": 0,
								"slot": "0",
								"type": "t_string_storage"
							},
							{
								"astId": 5,
								"contract": "chapter2/Ex2_10.sol:Ex2_10",
								"label": "price",
								"offset": 0,
								"slot": "1",
								"type": "t_uint256"
							}
						],
						"numberOfBytes": "64"
					},
					"t_uint256": {
						"encoding": "inplace",
						"label": "uint256",
						"numberOfBytes": "32"
					}
				}
			},
			"userdoc": {
				"kind": "user",
				"methods": {},
				"version": 1
			}
		}
	}
}