{
	"chapter2/Ex2_10.sol": {
		"SmartPhone": {
			"abi": [
				{
					"inputs": [],
					"name": "boot",
					"outputs": [
						{
							"internalType": "uint256",
							"name": "",
							"type": "uint256"
						},
						{
							"internalType": "bool",
							"name": "",
							"type": "bool"
						}
					],
					"stateMutability": "nonpayable",
					"type": "function"
				}
			],
			"devdoc": {
				"kind": "dev",
				"methods": {},
				"version": 1
			},
			"evm": {
				"assembly": "    /* \"chapter2/Ex2_10.sol\":570:740  contract SmartPhone is System {... */\n  mstore(0x40, 0x80)\n  callvalue\n  dup1\n  iszero\n  tag_1\n  jumpi\n  0x00\n  dup1\n  revert\ntag_1:\n  pop\n  dataSize(sub_0)\n  dup1\n  dataOffset(sub_0)\n  0x00\n  codecopy\n  0x00\n  return\nstop\n\nsub_0: assembly {\n        /* \"chapter2/Ex2_10.sol\":570:740  contract SmartPhone is System {... */\n      mstore(0x40, 0x80)\n      callvalue\n      dup1\n      iszero\n      tag_1\n      jumpi\n      0x00\n      dup1\n      revert\n    tag_1:\n      pop\n      jumpi(tag_2, lt(calldatasize, 0x04))\n      shr(0xe0, calldataload(0x00))\n      dup1\n      0x54d44bf7\n      eq\n      tag_3\n      jumpi\n    tag_2:\n      0x00\n      dup1\n      revert\n        /* \"chapter2/Ex2_10.sol\":247:380  function boot() public returns(uint, bool) {... */\n    tag_3:\n      tag_4\n      tag_5\n      jump\t// in\n    tag_4:\n      mload(0x40)\n      tag_6\n      swap3\n      swap2\n      swap1\n      tag_7\n      jump\t// in\n    tag_6:\n      mload(0x40)\n      dup1\n      swap2\n      sub\n      swap1\n      return\n    tag_5:\n        /* \"chapter2/Ex2_10.sol\":278:282  uint */\n      0x00\n        /* \"chapter2/Ex2_10.sol\":284:288  bool */\n      dup1\n        /* \"chapter2/Ex2_10.sol\":300:314  versionCheck() */\n      tag_9\n        /* \"chapter2/Ex2_10.sol\":300:312  versionCheck */\n      tag_10\n        /* \"chapter2/Ex2_10.sol\":300:314  versionCheck() */\n      jump\t// in\n    tag_9:\n        /* \"chapter2/Ex2_10.sol\":324:336  errorCheck() */\n      tag_11\n        /* \"chapter2/Ex2_10.sol\":324:334  errorCheck */\n      tag_12\n        /* \"chapter2/Ex2_10.sol\":324:336  errorCheck() */\n      jump\t// in\n    tag_11:\n        /* \"chapter2/Ex2_10.sol\":354:361  version */\n      sload(0x00)\n        /* \"chapter2/Ex2_10.sol\":363:372  errorPass */\n      0x01\n      0x00\n      swap1\n      sload\n      swap1\n      0x0100\n      exp\n      swap1\n      div\n      0xff\n      and\n        /* \"chapter2/Ex2_10.sol\":346:373  return (version, errorPass) */\n      swap2\n      pop\n      swap2\n      pop\n        /* \"chapter2/Ex2_10.sol\":247:380  function boot() public returns(uint, bool) {... */\n      swap1\n      swap2\n      jump\t// out\n        /* \"chapter2/Ex2_10.sol\":606:677  function versionCheck() internal override {... */\n    tag_10:\n        /* \"chapter2/Ex2_10.sol\":668:670  25 */\n      0x19\n        /* \"chapter2/Ex2_10.sol\":658:665  version */\n      0x00\n        /* \"chapter2/Ex2_10.sol\":658:670  version = 25 */\n      dup2\n      swap1\n      sstore\n      pop\n        /* \"chapter2/Ex2_10.sol\":606:677  function versionCheck() internal override {... */\n      jump\t// out\n        /* \"chapter2/Ex2_10.sol\":682:738  function errorCheck() internal override {... */\n    tag_12:\n      jump\t// out\n        /* \"#utility.yul\":7:84   */\n    tag_15:\n        /* \"#utility.yul\":44:51   */\n      0x00\n        /* \"#utility.yul\":73:78   */\n      dup2\n        /* \"#utility.yul\":62:78   */\n      swap1\n      pop\n        /* \"#utility.yul\":7:84   */\n      swap2\n      swap1\n      pop\n      jump\t// out\n        /* \"#utility.yul\":90:208   */\n    tag_16:\n        /* \"#utility.yul\":177:201   */\n      tag_22\n        /* \"#utility.yul\":195:200   */\n      dup2\n        /* \"#utility.yul\":177:201   */\n      tag_15\n      jump\t// in\n    tag_22:\n        /* \"#utility.yul\":172:175   */\n      dup3\n        /* \"#utility.yul\":165:202   */\n      mstore\n        /* \"#utility.yul\":90:208   */\n      pop\n      pop\n      jump\t// out\n        /* \"#utility.yul\":214:304   */\n    tag_17:\n        /* \"#utility.yul\":248:255   */\n      0x00\n        /* \"#utility.yul\":291:296   */\n      dup2\n        /* \"#utility.yul\":284:297   */\n      iszero\n        /* \"#utility.yul\":277:298   */\n      iszero\n        /* \"#utility.yul\":266:298   */\n      swap1\n      pop\n        /* \"#utility.yul\":214:304   */\n      swap2\n      swap1\n      pop\n      jump\t// out\n        /* \"#utility.yul\":310:419   */\n    tag_18:\n        /* \"#utility.yul\":391:412   */\n      tag_25\n        /* \"#utility.yul\":406:411   */\n      dup2\n        /* \"#utility.yul\":391:412   */\n      tag_17\n      jump\t// in\n    tag_25:\n        /* \"#utility.yul\":386:389   */\n      dup3\n        /* \"#utility.yul\":379:413   */\n      mstore\n        /* \"#utility.yul\":310:419   */\n      pop\n      pop\n      jump\t// out\n        /* \"#utility.yul\":425:745   */\n    tag_7:\n        /* \"#utility.yul\":540:544   */\n      0x00\n        /* \"#utility.yul\":578:580   */\n      0x40\n        /* \"#utility.yul\":567:576   */\n      dup3\n        /* \"#utility.yul\":563:581   */\n      add\n        /* \"#utility.yul\":555:581   */\n      swap1\n      pop\n        /* \"#utility.yul\":591:662   */\n      tag_27\n        /* \"#utility.yul\":659:660   */\n      0x00\n        /* \"#utility.yul\":648:657   */\n      dup4\n        /* \"#utility.yul\":644:661   */\n      add\n        /* \"#utility.yul\":635:641   */\n      dup6\n        /* \"#utility.yul\":591:662   */\n      tag_16\n      jump\t// in\n    tag_27:\n        /* \"#utility.yul\":672:738   */\n      tag_28\n        /* \"#utility.yul\":734:736   */\n      0x20\n        /* \"#utility.yul\":723:732   */\n      dup4\n        /* \"#utility.yul\":719:737   */\n      add\n        /* \"#utility.yul\":710:716   */\n      dup5\n        /* \"#utility.yul\":672:738   */\n      tag_18\n      jump\t// in\n    tag_28:\n        /* \"#utility.yul\":425:745   */\n      swap4\n      swap3\n      pop\n      pop\n      pop\n      jump\t// out\n\n    auxdata: 0xa264697066735822122052254cf02d9790d2d835e64653bbe6d505589be57cf86649cd3273ea69c5155564736f6c63430008110033\n}\n",
				"bytecode": {
					"linkReferences": {},
					"object": "608060405234801561001057600080fd5b50610109806100206000396000f3fe6080604052348015600f57600080fd5b506004361060285760003560e01c806354d44bf714602d575b600080fd5b60336048565b604051603f92919060ae565b60405180910390f35b60008060516072565b6057607c565b600054600160009054906101000a900460ff16915091509091565b6019600081905550565b565b6000819050919050565b608f81607e565b82525050565b60008115159050919050565b60a8816095565b82525050565b600060408201905060c160008301856088565b60cc602083018460a1565b939250505056fea264697066735822122052254cf02d9790d2d835e64653bbe6d505589be57cf86649cd3273ea69c5155564736f6c63430008110033",
					"opcodes": "PUSH1 0x80 PUSH1 0x40 MSTORE CALLVALUE DUP1 ISZERO PUSH2 0x10 JUMPI PUSH1 0x0 DUP1 REVERT JUMPDEST POP PUSH2 0x109 DUP1 PUSH2 0x20 PUSH1 0x0 CODECOPY PUSH1 0x0 RETURN INVALID PUSH1 0x80 PUSH1 0x40 MSTORE CALLVALUE DUP1 ISZERO PUSH1 0xF JUMPI PUSH1 0x0 DUP1 REVERT JUMPDEST POP PUSH1 0x4 CALLDATASIZE LT PUSH1 0x28 JUMPI PUSH1 0x0 CALLDATALOAD PUSH1 0xE0 SHR DUP1 PUSH4 0x54D44BF7 EQ PUSH1 0x2D JUMPI JUMPDEST PUSH1 0x0 DUP1 REVERT JUMPDEST PUSH1 0x33 PUSH1 0x48 JUMP JUMPDEST PUSH1 0x40 MLOAD PUSH1 0x3F SWAP3 SWAP2 SWAP1 PUSH1 0xAE JUMP JUMPDEST PUSH1 0x40 MLOAD DUP1 SWAP2 SUB SWAP1 RETURN JUMPDEST PUSH1 0x0 DUP1 PUSH1 0x51 PUSH1 0x72 JUMP JUMPDEST PUSH1 0x57 PUSH1 0x7C JUMP JUMPDEST PUSH1 0x0 SLOAD PUSH1 0x1 PUSH1 0x0 SWAP1 SLOAD SWAP1 PUSH2 0x100 EXP SWAP1 DIV PUSH1 0xFF AND SWAP2 POP SWAP2 POP SWAP1 SWAP2 JUMP JUMPDEST PUSH1 0x19 PUSH1 0x0 DUP2 SWAP1 SSTORE POP JUMP JUMPDEST JUMP JUMPDEST PUSH1 0x0 DUP2 SWAP1 POP SWAP2 SWAP1 POP JUMP JUMPDEST PUSH1 0x8F DUP2 PUSH1 0x7E JUMP JUMPDEST DUP3 MSTORE POP POP JUMP JUMPDEST PUSH1 0x0 DUP2 ISZERO ISZERO SWAP1 POP SWAP2 SWAP1 POP JUMP JUMPDEST PUSH1 0xA8 DUP2 PUSH1 0x95 JUMP JUMPDEST DUP3 MSTORE POP POP JUMP JUMPDEST PUSH1 0x0 PUSH1 0x40 DUP3 ADD SWAP1 POP PUSH1 0xC1 PUSH1 0x0 DUP4 ADD DUP6 PUSH1 0x88 JUMP JUMPDEST PUSH1 0xCC PUSH1 0x20 DUP4 ADD DUP5 PUSH1 0xA1 JUMP JUMPDEST SWAP4 SWAP3 POP POP POP JUMP INVALID LOG2 PUSH5 0x6970667358 0x22 SLT KECCAK256 MSTORE 0x25 0x4C CREATE 0x2D SWAP8 SWAP1 0xD2 0xD8 CALLDATALOAD 0xE6 CHAINID MSTORE8 0xBB 0xE6 0xD5 SDIV PC SWAP12 0xE5 PUSH29 0xF86649CD3273EA69C5155564736F6C6343000811003300000000000000 "
				},
				"gasEstimates": {
					"creation": {
						"codeDepositCost": "53000",
						"executionCost": "105",
						"totalCost": "53105"
					},
					"external": {
						"boot()": "26833"
					},
					"internal": {
						"errorCheck()": "9",
						"versionCheck()": "22123"
					}
				},
				"methodIdentifiers": {
					"boot()": "54d44bf7"
				}
			},
			"storageLayout": {
				"storage": [
					{
						"astId": 3,
						"contract": "chapter2/Ex2_10.sol:SmartPhone",
						"label": "version",
						"offset": 0,
						"slot": "0",
						"type": "t_uint256"
					},
					{
						"astId": 5,
						"contract": "chapter2/Ex2_10.sol:SmartPhone",
						"label": "errorPass",
						"offset": 0,
						"slot": "1",
						"type": "t_bool"
					}
				],
				"types": {
					"t_bool": {
						"encoding": "inplace",
						"label": "bool",
						"numberOfBytes": "1"
					},
					"t_uint256": {
						"encoding": "inplace",
						"label": "uint256",
						"numberOfBytes": "32"
					}
				}
			},
			"userdoc": {
				"kind": "user",
				"methods": {},
				"version": 1
			}
		}
	}
}