{
	"chapter2/Ex2_10.sol": {
		"Ex2_10": {
			"abi": [
				{
					"inputs": [
						{
							"internalType": "string",
							"name": "_name",
							"type": "string"
						},
						{
							"internalType": "uint256",
							"name": "_age",
							"type": "uint256"
						}
					],
					"name": "addArray",
					"outputs": [],
					"stateMutability": "nonpayable",
					"type": "function"
				},
				{
					"inputs": [
						{
							"internalType": "uint256",
							"name": "_index",
							"type": "uint256"
						}
					],
					"name": "getArrayName",
					"outputs": [
						{
							"internalType": "string",
							"name": "",
							"type": "string"
						}
					],
					"stateMutability": "view",
					"type": "function"
				},
				{
					"inputs": [
						{
							"internalType": "uint256",
							"name": "",
							"type": "uint256"
						}
					],
					"name": "humanArray",
					"outputs": [
						{
							"internalType": "string",
							"name": "name",
							"type": "string"
						},
						{
							"internalType": "uint256",
							"name": "age",
							"type": "uint256"
						}
					],
					"stateMutability": "view",
					"type": "function"
				},
				{
					"inputs": [
						{
							"internalType": "address",
							"name": "",
							"type": "address"
						}
					],
					"name": "humanMapping",
					"outputs": [
						{
							"internalType": "string",
							"name": "name",
							"type": "string"
						},
						{
							"internalType": "uint256",
							"name": "age",
							"type": "uint256"
						}
					],
					"stateMutability": "view",
					"type": "function"
				}
			],
			"devdoc": {
				"kind": "dev",
				"methods": {},
				"version": 1
			},
			"evm": {
				"assembly": "    /* \"chapter2/Ex2_10.sol\":70:446  contract Ex2_10 {... */\n  mstore(0x40, 0x80)\n  callvalue\n  dup1\n  iszero\n  tag_1\n  jumpi\n  0x00\n  dup1\n  revert\ntag_1:\n  pop\n  dataSize(sub_0)\n  dup1\n  dataOffset(sub_0)\n  0x00\n  codecopy\n  0x00\n  return\nstop\n\nsub_0: assembly {\n        /* \"chapter2/Ex2_10.sol\":70:446  contract Ex2_10 {... */\n      mstore(0x40, 0x80)\n      callvalue\n      dup1\n      iszero\n      tag_1\n      jumpi\n      0x00\n      dup1\n      revert\n    tag_1:\n      pop\n      jumpi(tag_2, lt(calldatasize, 0x04))\n      shr(0xe0, calldataload(0x00))\n      dup1\n      0x0d3de88d\n      eq\n      tag_3\n      jumpi\n      dup1\n      0xa677c48f\n      eq\n      tag_4\n      jumpi\n      dup1\n      0xa857bf32\n      eq\n      tag_5\n      jumpi\n      dup1\n      0xb9d6dedb\n      eq\n      tag_6\n      jumpi\n    tag_2:\n      0x00\n      dup1\n      revert\n        /* \"chapter2/Ex2_10.sol\":241:350  function addArray(string memory _name, uint _age) public {... */\n    tag_3:\n      tag_7\n      0x04\n      dup1\n      calldatasize\n      sub\n      dup2\n      add\n      swap1\n      tag_8\n      swap2\n      swap1\n      tag_9\n      jump\t// in\n    tag_8:\n      tag_10\n      jump\t// in\n    tag_7:\n      stop\n        /* \"chapter2/Ex2_10.sol\":356:442  function getArrayName(uint _index) public view returns(string memory) {... */\n    tag_4:\n      tag_11\n      0x04\n      dup1\n      calldatasize\n      sub\n      dup2\n      add\n      swap1\n      tag_12\n      swap2\n      swap1\n      tag_13\n      jump\t// in\n    tag_12:\n      tag_14\n      jump\t// in\n    tag_11:\n      mload(0x40)\n      tag_15\n      swap2\n      swap1\n      tag_16\n      jump\t// in\n    tag_15:\n      mload(0x40)\n      dup1\n      swap2\n      sub\n      swap1\n      return\n        /* \"chapter2/Ex2_10.sol\":189:234  mapping(address => Human) public humanMapping */\n    tag_5:\n      tag_17\n      0x04\n      dup1\n      calldatasize\n      sub\n      dup2\n      add\n      swap1\n      tag_18\n      swap2\n      swap1\n      tag_19\n      jump\t// in\n    tag_18:\n      tag_20\n      jump\t// in\n    tag_17:\n      mload(0x40)\n      tag_21\n      swap3\n      swap2\n      swap1\n      tag_22\n      jump\t// in\n    tag_21:\n      mload(0x40)\n      dup1\n      swap2\n      sub\n      swap1\n      return\n        /* \"chapter2/Ex2_10.sol\":158:183  Human[] public humanArray */\n    tag_6:\n      tag_23\n      0x04\n      dup1\n      calldatasize\n      sub\n      dup2\n      add\n      swap1\n      tag_24\n      swap2\n      swap1\n      tag_13\n      jump\t// in\n    tag_24:\n      tag_25\n      jump\t// in\n    tag_23:\n      mload(0x40)\n      tag_26\n      swap3\n      swap2\n      swap1\n      tag_22\n      jump\t// in\n    tag_26:\n      mload(0x40)\n      dup1\n      swap2\n      sub\n      swap1\n      return\n        /* \"chapter2/Ex2_10.sol\":241:350  function addArray(string memory _name, uint _age) public {... */\n    tag_10:\n        /* \"chapter2/Ex2_10.sol\":308:318  humanArray */\n      0x00\n        /* \"chapter2/Ex2_10.sol\":324:342  Human(_name, _age) */\n      mload(0x40)\n      dup1\n      0x40\n      add\n      0x40\n      mstore\n      dup1\n        /* \"chapter2/Ex2_10.sol\":330:335  _name */\n      dup5\n        /* \"chapter2/Ex2_10.sol\":324:342  Human(_name, _age) */\n      dup2\n      mstore\n      0x20\n      add\n        /* \"chapter2/Ex2_10.sol\":337:341  _age */\n      dup4\n        /* \"chapter2/Ex2_10.sol\":324:342  Human(_name, _age) */\n      dup2\n      mstore\n      pop\n        /* \"chapter2/Ex2_10.sol\":308:343  humanArray.push(Human(_name, _age)) */\n      swap1\n      dup1\n      0x01\n      dup2\n      sload\n      add\n      dup1\n      dup3\n      sstore\n      dup1\n      swap2\n      pop\n      pop\n      0x01\n      swap1\n      sub\n      swap1\n      0x00\n      mstore\n      keccak256(0x00, 0x20)\n      swap1\n      0x02\n      mul\n      add\n      0x00\n      swap1\n      swap2\n      swap1\n      swap2\n      swap1\n      swap2\n      pop\n      0x00\n      dup3\n      add\n      mload\n      dup2\n      0x00\n      add\n      swap1\n      dup2\n      tag_29\n      swap2\n      swap1\n      tag_30\n      jump\t// in\n    tag_29:\n      pop\n      0x20\n      dup3\n      add\n      mload\n      dup2\n      0x01\n      add\n      sstore\n      pop\n      pop\n        /* \"chapter2/Ex2_10.sol\":241:350  function addArray(string memory _name, uint _age) public {... */\n      pop\n      pop\n      jump\t// out\n        /* \"chapter2/Ex2_10.sol\":356:442  function getArrayName(uint _index) public view returns(string memory) {... */\n    tag_14:\n        /* \"chapter2/Ex2_10.sol\":411:424  string memory */\n      0x60\n        /* \"chapter2/Ex2_10.sol\":356:442  function getArrayName(uint _index) public view returns(string memory) {... */\n      swap2\n      swap1\n      pop\n      jump\t// out\n        /* \"chapter2/Ex2_10.sol\":189:234  mapping(address => Human) public humanMapping */\n    tag_20:\n      mstore(0x20, 0x01)\n      dup1\n      0x00\n      mstore\n      keccak256(0x00, 0x40)\n      0x00\n      swap2\n      pop\n      swap1\n      pop\n      dup1\n      0x00\n      add\n      dup1\n      sload\n      tag_32\n      swap1\n      tag_33\n      jump\t// in\n    tag_32:\n      dup1\n      0x1f\n      add\n      0x20\n      dup1\n      swap2\n      div\n      mul\n      0x20\n      add\n      mload(0x40)\n      swap1\n      dup2\n      add\n      0x40\n      mstore\n      dup1\n      swap3\n      swap2\n      swap1\n      dup2\n      dup2\n      mstore\n      0x20\n      add\n      dup3\n      dup1\n      sload\n      tag_34\n      swap1\n      tag_33\n      jump\t// in\n    tag_34:\n      dup1\n      iszero\n      tag_35\n      jumpi\n      dup1\n      0x1f\n      lt\n      tag_36\n      jumpi\n      0x0100\n      dup1\n      dup4\n      sload\n      div\n      mul\n      dup4\n      mstore\n      swap2\n      0x20\n      add\n      swap2\n      jump(tag_35)\n    tag_36:\n      dup3\n      add\n      swap2\n      swap1\n      0x00\n      mstore\n      keccak256(0x00, 0x20)\n      swap1\n    tag_37:\n      dup2\n      sload\n      dup2\n      mstore\n      swap1\n      0x01\n      add\n      swap1\n      0x20\n      add\n      dup1\n      dup4\n      gt\n      tag_37\n      jumpi\n      dup3\n      swap1\n      sub\n      0x1f\n      and\n      dup3\n      add\n      swap2\n    tag_35:\n      pop\n      pop\n      pop\n      pop\n      pop\n      swap1\n      dup1\n      0x01\n      add\n      sload\n      swap1\n      pop\n      dup3\n      jump\t// out\n        /* \"chapter2/Ex2_10.sol\":158:183  Human[] public humanArray */\n    tag_25:\n      0x00\n      dup2\n      dup2\n      sload\n      dup2\n      lt\n      tag_38\n      jumpi\n      0x00\n      dup1\n      revert\n    tag_38:\n      swap1\n      0x00\n      mstore\n      keccak256(0x00, 0x20)\n      swap1\n      0x02\n      mul\n      add\n      0x00\n      swap2\n      pop\n      swap1\n      pop\n      dup1\n      0x00\n      add\n      dup1\n      sload\n      tag_40\n      swap1\n      tag_33\n      jump\t// in\n    tag_40:\n      dup1\n      0x1f\n      add\n      0x20\n      dup1\n      swap2\n      div\n      mul\n      0x20\n      add\n      mload(0x40)\n      swap1\n      dup2\n      add\n      0x40\n      mstore\n      dup1\n      swap3\n      swap2\n      swap1\n      dup2\n      dup2\n      mstore\n      0x20\n      add\n      dup3\n      dup1\n      sload\n      tag_41\n      swap1\n      tag_33\n      jump\t// in\n    tag_41:\n      dup1\n      iszero\n      tag_42\n      jumpi\n      dup1\n      0x1f\n      lt\n      tag_43\n      jumpi\n      0x0100\n      dup1\n      dup4\n      sload\n      div\n      mul\n      dup4\n      mstore\n      swap2\n      0x20\n      add\n      swap2\n      jump(tag_42)\n    tag_43:\n      dup3\n      add\n      swap2\n      swap1\n      0x00\n      mstore\n      keccak256(0x00, 0x20)\n      swap1\n    tag_44:\n      dup2\n      sload\n      dup2\n      mstore\n      swap1\n      0x01\n      add\n      swap1\n      0x20\n      add\n      dup1\n      dup4\n      gt\n      tag_44\n      jumpi\n      dup3\n      swap1\n      sub\n      0x1f\n      and\n      dup3\n      add\n      swap2\n    tag_42:\n      pop\n      pop\n      pop\n      pop\n      pop\n      swap1\n      dup1\n      0x01\n      add\n      sload\n      swap1\n      pop\n      dup3\n      jump\t// out\n        /* \"#utility.yul\":7:82   */\n    tag_45:\n        /* \"#utility.yul\":40:46   */\n      0x00\n        /* \"#utility.yul\":73:75   */\n      0x40\n        /* \"#utility.yul\":67:76   */\n      mload\n        /* \"#utility.yul\":57:76   */\n      swap1\n      pop\n        /* \"#utility.yul\":7:82   */\n      swap1\n      jump\t// out\n        /* \"#utility.yul\":88:205   */\n    tag_46:\n        /* \"#utility.yul\":197:198   */\n      0x00\n        /* \"#utility.yul\":194:195   */\n      dup1\n        /* \"#utility.yul\":187:199   */\n      revert\n        /* \"#utility.yul\":211:328   */\n    tag_47:\n        /* \"#utility.yul\":320:321   */\n      0x00\n        /* \"#utility.yul\":317:318   */\n      dup1\n        /* \"#utility.yul\":310:322   */\n      revert\n        /* \"#utility.yul\":334:451   */\n    tag_48:\n        /* \"#utility.yul\":443:444   */\n      0x00\n        /* \"#utility.yul\":440:441   */\n      dup1\n        /* \"#utility.yul\":433:445   */\n      revert\n        /* \"#utility.yul\":457:574   */\n    tag_49:\n        /* \"#utility.yul\":566:567   */\n      0x00\n        /* \"#utility.yul\":563:564   */\n      dup1\n        /* \"#utility.yul\":556:568   */\n      revert\n        /* \"#utility.yul\":580:682   */\n    tag_50:\n        /* \"#utility.yul\":621:627   */\n      0x00\n        /* \"#utility.yul\":672:674   */\n      0x1f\n        /* \"#utility.yul\":668:675   */\n      not\n        /* \"#utility.yul\":663:665   */\n      0x1f\n        /* \"#utility.yul\":656:661   */\n      dup4\n        /* \"#utility.yul\":652:666   */\n      add\n        /* \"#utility.yul\":648:676   */\n      and\n        /* \"#utility.yul\":638:676   */\n      swap1\n      pop\n        /* \"#utility.yul\":580:682   */\n      swap2\n      swap1\n      pop\n      jump\t// out\n        /* \"#utility.yul\":688:868   */\n    tag_51:\n        /* \"#utility.yul\":736:813   */\n      0x4e487b7100000000000000000000000000000000000000000000000000000000\n        /* \"#utility.yul\":733:734   */\n      0x00\n        /* \"#utility.yul\":726:814   */\n      mstore\n        /* \"#utility.yul\":833:837   */\n      0x41\n        /* \"#utility.yul\":830:831   */\n      0x04\n        /* \"#utility.yul\":823:838   */\n      mstore\n        /* \"#utility.yul\":857:861   */\n      0x24\n        /* \"#utility.yul\":854:855   */\n      0x00\n        /* \"#utility.yul\":847:862   */\n      revert\n        /* \"#utility.yul\":874:1155   */\n    tag_52:\n        /* \"#utility.yul\":957:984   */\n      tag_95\n        /* \"#utility.yul\":979:983   */\n      dup3\n        /* \"#utility.yul\":957:984   */\n      tag_50\n      jump\t// in\n    tag_95:\n        /* \"#utility.yul\":949:955   */\n      dup2\n        /* \"#utility.yul\":945:985   */\n      add\n        /* \"#utility.yul\":1087:1093   */\n      dup2\n        /* \"#utility.yul\":1075:1085   */\n      dup2\n        /* \"#utility.yul\":1072:1094   */\n      lt\n        /* \"#utility.yul\":1051:1069   */\n      0xffffffffffffffff\n        /* \"#utility.yul\":1039:1049   */\n      dup3\n        /* \"#utility.yul\":1036:1070   */\n      gt\n        /* \"#utility.yul\":1033:1095   */\n      or\n        /* \"#utility.yul\":1030:1118   */\n      iszero\n      tag_96\n      jumpi\n        /* \"#utility.yul\":1098:1116   */\n      tag_97\n      tag_51\n      jump\t// in\n    tag_97:\n        /* \"#utility.yul\":1030:1118   */\n    tag_96:\n        /* \"#utility.yul\":1138:1148   */\n      dup1\n        /* \"#utility.yul\":1134:1136   */\n      0x40\n        /* \"#utility.yul\":1127:1149   */\n      mstore\n        /* \"#utility.yul\":917:1155   */\n      pop\n        /* \"#utility.yul\":874:1155   */\n      pop\n      pop\n      jump\t// out\n        /* \"#utility.yul\":1161:1290   */\n    tag_53:\n        /* \"#utility.yul\":1195:1201   */\n      0x00\n        /* \"#utility.yul\":1222:1242   */\n      tag_99\n      tag_45\n      jump\t// in\n    tag_99:\n        /* \"#utility.yul\":1212:1242   */\n      swap1\n      pop\n        /* \"#utility.yul\":1251:1284   */\n      tag_100\n        /* \"#utility.yul\":1279:1283   */\n      dup3\n        /* \"#utility.yul\":1271:1277   */\n      dup3\n        /* \"#utility.yul\":1251:1284   */\n      tag_52\n      jump\t// in\n    tag_100:\n        /* \"#utility.yul\":1161:1290   */\n      swap2\n      swap1\n      pop\n      jump\t// out\n        /* \"#utility.yul\":1296:1604   */\n    tag_54:\n        /* \"#utility.yul\":1358:1362   */\n      0x00\n        /* \"#utility.yul\":1448:1466   */\n      0xffffffffffffffff\n        /* \"#utility.yul\":1440:1446   */\n      dup3\n        /* \"#utility.yul\":1437:1467   */\n      gt\n        /* \"#utility.yul\":1434:1490   */\n      iszero\n      tag_102\n      jumpi\n        /* \"#utility.yul\":1470:1488   */\n      tag_103\n      tag_51\n      jump\t// in\n    tag_103:\n        /* \"#utility.yul\":1434:1490   */\n    tag_102:\n        /* \"#utility.yul\":1508:1537   */\n      tag_104\n        /* \"#utility.yul\":1530:1536   */\n      dup3\n        /* \"#utility.yul\":1508:1537   */\n      tag_50\n      jump\t// in\n    tag_104:\n        /* \"#utility.yul\":1500:1537   */\n      swap1\n      pop\n        /* \"#utility.yul\":1592:1596   */\n      0x20\n        /* \"#utility.yul\":1586:1590   */\n      dup2\n        /* \"#utility.yul\":1582:1597   */\n      add\n        /* \"#utility.yul\":1574:1597   */\n      swap1\n      pop\n        /* \"#utility.yul\":1296:1604   */\n      swap2\n      swap1\n      pop\n      jump\t// out\n        /* \"#utility.yul\":1610:1756   */\n    tag_55:\n        /* \"#utility.yul\":1707:1713   */\n      dup3\n        /* \"#utility.yul\":1702:1705   */\n      dup2\n        /* \"#utility.yul\":1697:1700   */\n      dup4\n        /* \"#utility.yul\":1684:1714   */\n      calldatacopy\n        /* \"#utility.yul\":1748:1749   */\n      0x00\n        /* \"#utility.yul\":1739:1745   */\n      dup4\n        /* \"#utility.yul\":1734:1737   */\n      dup4\n        /* \"#utility.yul\":1730:1746   */\n      add\n        /* \"#utility.yul\":1723:1750   */\n      mstore\n        /* \"#utility.yul\":1610:1756   */\n      pop\n      pop\n      pop\n      jump\t// out\n        /* \"#utility.yul\":1762:2187   */\n    tag_56:\n        /* \"#utility.yul\":1840:1845   */\n      0x00\n        /* \"#utility.yul\":1865:1931   */\n      tag_107\n        /* \"#utility.yul\":1881:1930   */\n      tag_108\n        /* \"#utility.yul\":1923:1929   */\n      dup5\n        /* \"#utility.yul\":1881:1930   */\n      tag_54\n      jump\t// in\n    tag_108:\n        /* \"#utility.yul\":1865:1931   */\n      tag_53\n      jump\t// in\n    tag_107:\n        /* \"#utility.yul\":1856:1931   */\n      swap1\n      pop\n        /* \"#utility.yul\":1954:1960   */\n      dup3\n        /* \"#utility.yul\":1947:1952   */\n      dup2\n        /* \"#utility.yul\":1940:1961   */\n      mstore\n        /* \"#utility.yul\":1992:1996   */\n      0x20\n        /* \"#utility.yul\":1985:1990   */\n      dup2\n        /* \"#utility.yul\":1981:1997   */\n      add\n        /* \"#utility.yul\":2030:2033   */\n      dup5\n        /* \"#utility.yul\":2021:2027   */\n      dup5\n        /* \"#utility.yul\":2016:2019   */\n      dup5\n        /* \"#utility.yul\":2012:2028   */\n      add\n        /* \"#utility.yul\":2009:2034   */\n      gt\n        /* \"#utility.yul\":2006:2118   */\n      iszero\n      tag_109\n      jumpi\n        /* \"#utility.yul\":2037:2116   */\n      tag_110\n      tag_49\n      jump\t// in\n    tag_110:\n        /* \"#utility.yul\":2006:2118   */\n    tag_109:\n        /* \"#utility.yul\":2127:2181   */\n      tag_111\n        /* \"#utility.yul\":2174:2180   */\n      dup5\n        /* \"#utility.yul\":2169:2172   */\n      dup3\n        /* \"#utility.yul\":2164:2167   */\n      dup6\n        /* \"#utility.yul\":2127:2181   */\n      tag_55\n      jump\t// in\n    tag_111:\n        /* \"#utility.yul\":1846:2187   */\n      pop\n        /* \"#utility.yul\":1762:2187   */\n      swap4\n      swap3\n      pop\n      pop\n      pop\n      jump\t// out\n        /* \"#utility.yul\":2207:2547   */\n    tag_57:\n        /* \"#utility.yul\":2263:2268   */\n      0x00\n        /* \"#utility.yul\":2312:2315   */\n      dup3\n        /* \"#utility.yul\":2305:2309   */\n      0x1f\n        /* \"#utility.yul\":2297:2303   */\n      dup4\n        /* \"#utility.yul\":2293:2310   */\n      add\n        /* \"#utility.yul\":2289:2316   */\n      slt\n        /* \"#utility.yul\":2279:2401   */\n      tag_113\n      jumpi\n        /* \"#utility.yul\":2320:2399   */\n      tag_114\n      tag_48\n      jump\t// in\n    tag_114:\n        /* \"#utility.yul\":2279:2401   */\n    tag_113:\n        /* \"#utility.yul\":2437:2443   */\n      dup2\n        /* \"#utility.yul\":2424:2444   */\n      calldataload\n        /* \"#utility.yul\":2462:2541   */\n      tag_115\n        /* \"#utility.yul\":2537:2540   */\n      dup5\n        /* \"#utility.yul\":2529:2535   */\n      dup3\n        /* \"#utility.yul\":2522:2526   */\n      0x20\n        /* \"#utility.yul\":2514:2520   */\n      dup7\n        /* \"#utility.yul\":2510:2527   */\n      add\n        /* \"#utility.yul\":2462:2541   */\n      tag_56\n      jump\t// in\n    tag_115:\n        /* \"#utility.yul\":2453:2541   */\n      swap2\n      pop\n        /* \"#utility.yul\":2269:2547   */\n      pop\n        /* \"#utility.yul\":2207:2547   */\n      swap3\n      swap2\n      pop\n      pop\n      jump\t// out\n        /* \"#utility.yul\":2553:2630   */\n    tag_58:\n        /* \"#utility.yul\":2590:2597   */\n      0x00\n        /* \"#utility.yul\":2619:2624   */\n      dup2\n        /* \"#utility.yul\":2608:2624   */\n      swap1\n      pop\n        /* \"#utility.yul\":2553:2630   */\n      swap2\n      swap1\n      pop\n      jump\t// out\n        /* \"#utility.yul\":2636:2758   */\n    tag_59:\n        /* \"#utility.yul\":2709:2733   */\n      tag_118\n        /* \"#utility.yul\":2727:2732   */\n      dup2\n        /* \"#utility.yul\":2709:2733   */\n      tag_58\n      jump\t// in\n    tag_118:\n        /* \"#utility.yul\":2702:2707   */\n      dup2\n        /* \"#utility.yul\":2699:2734   */\n      eq\n        /* \"#utility.yul\":2689:2752   */\n      tag_119\n      jumpi\n        /* \"#utility.yul\":2748:2749   */\n      0x00\n        /* \"#utility.yul\":2745:2746   */\n      dup1\n        /* \"#utility.yul\":2738:2750   */\n      revert\n        /* \"#utility.yul\":2689:2752   */\n    tag_119:\n        /* \"#utility.yul\":2636:2758   */\n      pop\n      jump\t// out\n        /* \"#utility.yul\":2764:2903   */\n    tag_60:\n        /* \"#utility.yul\":2810:2815   */\n      0x00\n        /* \"#utility.yul\":2848:2854   */\n      dup2\n        /* \"#utility.yul\":2835:2855   */\n      calldataload\n        /* \"#utility.yul\":2826:2855   */\n      swap1\n      pop\n        /* \"#utility.yul\":2864:2897   */\n      tag_121\n        /* \"#utility.yul\":2891:2896   */\n      dup2\n        /* \"#utility.yul\":2864:2897   */\n      tag_59\n      jump\t// in\n    tag_121:\n        /* \"#utility.yul\":2764:2903   */\n      swap3\n      swap2\n      pop\n      pop\n      jump\t// out\n        /* \"#utility.yul\":2909:3563   */\n    tag_9:\n        /* \"#utility.yul\":2987:2993   */\n      0x00\n        /* \"#utility.yul\":2995:3001   */\n      dup1\n        /* \"#utility.yul\":3044:3046   */\n      0x40\n        /* \"#utility.yul\":3032:3041   */\n      dup4\n        /* \"#utility.yul\":3023:3030   */\n      dup6\n        /* \"#utility.yul\":3019:3042   */\n      sub\n        /* \"#utility.yul\":3015:3047   */\n      slt\n        /* \"#utility.yul\":3012:3131   */\n      iszero\n      tag_123\n      jumpi\n        /* \"#utility.yul\":3050:3129   */\n      tag_124\n      tag_46\n      jump\t// in\n    tag_124:\n        /* \"#utility.yul\":3012:3131   */\n    tag_123:\n        /* \"#utility.yul\":3198:3199   */\n      0x00\n        /* \"#utility.yul\":3187:3196   */\n      dup4\n        /* \"#utility.yul\":3183:3200   */\n      add\n        /* \"#utility.yul\":3170:3201   */\n      calldataload\n        /* \"#utility.yul\":3228:3246   */\n      0xffffffffffffffff\n        /* \"#utility.yul\":3220:3226   */\n      dup2\n        /* \"#utility.yul\":3217:3247   */\n      gt\n        /* \"#utility.yul\":3214:3331   */\n      iszero\n      tag_125\n      jumpi\n        /* \"#utility.yul\":3250:3329   */\n      tag_126\n      tag_47\n      jump\t// in\n    tag_126:\n        /* \"#utility.yul\":3214:3331   */\n    tag_125:\n        /* \"#utility.yul\":3355:3418   */\n      tag_127\n        /* \"#utility.yul\":3410:3417   */\n      dup6\n        /* \"#utility.yul\":3401:3407   */\n      dup3\n        /* \"#utility.yul\":3390:3399   */\n      dup7\n        /* \"#utility.yul\":3386:3408   */\n      add\n        /* \"#utility.yul\":3355:3418   */\n      tag_57\n      jump\t// in\n    tag_127:\n        /* \"#utility.yul\":3345:3418   */\n      swap3\n      pop\n        /* \"#utility.yul\":3141:3428   */\n      pop\n        /* \"#utility.yul\":3467:3469   */\n      0x20\n        /* \"#utility.yul\":3493:3546   */\n      tag_128\n        /* \"#utility.yul\":3538:3545   */\n      dup6\n        /* \"#utility.yul\":3529:3535   */\n      dup3\n        /* \"#utility.yul\":3518:3527   */\n      dup7\n        /* \"#utility.yul\":3514:3536   */\n      add\n        /* \"#utility.yul\":3493:3546   */\n      tag_60\n      jump\t// in\n    tag_128:\n        /* \"#utility.yul\":3483:3546   */\n      swap2\n      pop\n        /* \"#utility.yul\":3438:3556   */\n      pop\n        /* \"#utility.yul\":2909:3563   */\n      swap3\n      pop\n      swap3\n      swap1\n      pop\n      jump\t// out\n        /* \"#utility.yul\":3569:3898   */\n    tag_13:\n        /* \"#utility.yul\":3628:3634   */\n      0x00\n        /* \"#utility.yul\":3677:3679   */\n      0x20\n        /* \"#utility.yul\":3665:3674   */\n      dup3\n        /* \"#utility.yul\":3656:3663   */\n      dup5\n        /* \"#utility.yul\":3652:3675   */\n      sub\n        /* \"#utility.yul\":3648:3680   */\n      slt\n        /* \"#utility.yul\":3645:3764   */\n      iszero\n      tag_130\n      jumpi\n        /* \"#utility.yul\":3683:3762   */\n      tag_131\n      tag_46\n      jump\t// in\n    tag_131:\n        /* \"#utility.yul\":3645:3764   */\n    tag_130:\n        /* \"#utility.yul\":3803:3804   */\n      0x00\n        /* \"#utility.yul\":3828:3881   */\n      tag_132\n        /* \"#utility.yul\":3873:3880   */\n      dup5\n        /* \"#utility.yul\":3864:3870   */\n      dup3\n        /* \"#utility.yul\":3853:3862   */\n      dup6\n        /* \"#utility.yul\":3849:3871   */\n      add\n        /* \"#utility.yul\":3828:3881   */\n      tag_60\n      jump\t// in\n    tag_132:\n        /* \"#utility.yul\":3818:3881   */\n      swap2\n      pop\n        /* \"#utility.yul\":3774:3891   */\n      pop\n        /* \"#utility.yul\":3569:3898   */\n      swap3\n      swap2\n      pop\n      pop\n      jump\t// out\n        /* \"#utility.yul\":3904:4003   */\n    tag_61:\n        /* \"#utility.yul\":3956:3962   */\n      0x00\n        /* \"#utility.yul\":3990:3995   */\n      dup2\n        /* \"#utility.yul\":3984:3996   */\n      mload\n        /* \"#utility.yul\":3974:3996   */\n      swap1\n      pop\n        /* \"#utility.yul\":3904:4003   */\n      swap2\n      swap1\n      pop\n      jump\t// out\n        /* \"#utility.yul\":4009:4178   */\n    tag_62:\n        /* \"#utility.yul\":4093:4104   */\n      0x00\n        /* \"#utility.yul\":4127:4133   */\n      dup3\n        /* \"#utility.yul\":4122:4125   */\n      dup3\n        /* \"#utility.yul\":4115:4134   */\n      mstore\n        /* \"#utility.yul\":4167:4171   */\n      0x20\n        /* \"#utility.yul\":4162:4165   */\n      dup3\n        /* \"#utility.yul\":4158:4172   */\n      add\n        /* \"#utility.yul\":4143:4172   */\n      swap1\n      pop\n        /* \"#utility.yul\":4009:4178   */\n      swap3\n      swap2\n      pop\n      pop\n      jump\t// out\n        /* \"#utility.yul\":4184:4430   */\n    tag_63:\n        /* \"#utility.yul\":4265:4266   */\n      0x00\n        /* \"#utility.yul\":4275:4388   */\n    tag_136:\n        /* \"#utility.yul\":4289:4295   */\n      dup4\n        /* \"#utility.yul\":4286:4287   */\n      dup2\n        /* \"#utility.yul\":4283:4296   */\n      lt\n        /* \"#utility.yul\":4275:4388   */\n      iszero\n      tag_138\n      jumpi\n        /* \"#utility.yul\":4374:4375   */\n      dup1\n        /* \"#utility.yul\":4369:4372   */\n      dup3\n        /* \"#utility.yul\":4365:4376   */\n      add\n        /* \"#utility.yul\":4359:4377   */\n      mload\n        /* \"#utility.yul\":4355:4356   */\n      dup2\n        /* \"#utility.yul\":4350:4353   */\n      dup5\n        /* \"#utility.yul\":4346:4357   */\n      add\n        /* \"#utility.yul\":4339:4378   */\n      mstore\n        /* \"#utility.yul\":4311:4313   */\n      0x20\n        /* \"#utility.yul\":4308:4309   */\n      dup2\n        /* \"#utility.yul\":4304:4314   */\n      add\n        /* \"#utility.yul\":4299:4314   */\n      swap1\n      pop\n        /* \"#utility.yul\":4275:4388   */\n      jump(tag_136)\n    tag_138:\n        /* \"#utility.yul\":4422:4423   */\n      0x00\n        /* \"#utility.yul\":4413:4419   */\n      dup5\n        /* \"#utility.yul\":4408:4411   */\n      dup5\n        /* \"#utility.yul\":4404:4420   */\n      add\n        /* \"#utility.yul\":4397:4424   */\n      mstore\n        /* \"#utility.yul\":4246:4430   */\n      pop\n        /* \"#utility.yul\":4184:4430   */\n      pop\n      pop\n      pop\n      jump\t// out\n        /* \"#utility.yul\":4436:4813   */\n    tag_64:\n        /* \"#utility.yul\":4524:4527   */\n      0x00\n        /* \"#utility.yul\":4552:4591   */\n      tag_140\n        /* \"#utility.yul\":4585:4590   */\n      dup3\n        /* \"#utility.yul\":4552:4591   */\n      tag_61\n      jump\t// in\n    tag_140:\n        /* \"#utility.yul\":4607:4678   */\n      tag_141\n        /* \"#utility.yul\":4671:4677   */\n      dup2\n        /* \"#utility.yul\":4666:4669   */\n      dup6\n        /* \"#utility.yul\":4607:4678   */\n      tag_62\n      jump\t// in\n    tag_141:\n        /* \"#utility.yul\":4600:4678   */\n      swap4\n      pop\n        /* \"#utility.yul\":4687:4752   */\n      tag_142\n        /* \"#utility.yul\":4745:4751   */\n      dup2\n        /* \"#utility.yul\":4740:4743   */\n      dup6\n        /* \"#utility.yul\":4733:4737   */\n      0x20\n        /* \"#utility.yul\":4726:4731   */\n      dup7\n        /* \"#utility.yul\":4722:4738   */\n      add\n        /* \"#utility.yul\":4687:4752   */\n      tag_63\n      jump\t// in\n    tag_142:\n        /* \"#utility.yul\":4777:4806   */\n      tag_143\n        /* \"#utility.yul\":4799:4805   */\n      dup2\n        /* \"#utility.yul\":4777:4806   */\n      tag_50\n      jump\t// in\n    tag_143:\n        /* \"#utility.yul\":4772:4775   */\n      dup5\n        /* \"#utility.yul\":4768:4807   */\n      add\n        /* \"#utility.yul\":4761:4807   */\n      swap2\n      pop\n        /* \"#utility.yul\":4528:4813   */\n      pop\n        /* \"#utility.yul\":4436:4813   */\n      swap3\n      swap2\n      pop\n      pop\n      jump\t// out\n        /* \"#utility.yul\":4819:5132   */\n    tag_16:\n        /* \"#utility.yul\":4932:4936   */\n      0x00\n        /* \"#utility.yul\":4970:4972   */\n      0x20\n        /* \"#utility.yul\":4959:4968   */\n      dup3\n        /* \"#utility.yul\":4955:4973   */\n      add\n        /* \"#utility.yul\":4947:4973   */\n      swap1\n      pop\n        /* \"#utility.yul\":5019:5028   */\n      dup2\n        /* \"#utility.yul\":5013:5017   */\n      dup2\n        /* \"#utility.yul\":5009:5029   */\n      sub\n        /* \"#utility.yul\":5005:5006   */\n      0x00\n        /* \"#utility.yul\":4994:5003   */\n      dup4\n        /* \"#utility.yul\":4990:5007   */\n      add\n        /* \"#utility.yul\":4983:5030   */\n      mstore\n        /* \"#utility.yul\":5047:5125   */\n      tag_145\n        /* \"#utility.yul\":5120:5124   */\n      dup2\n        /* \"#utility.yul\":5111:5117   */\n      dup5\n        /* \"#utility.yul\":5047:5125   */\n      tag_64\n      jump\t// in\n    tag_145:\n        /* \"#utility.yul\":5039:5125   */\n      swap1\n      pop\n        /* \"#utility.yul\":4819:5132   */\n      swap3\n      swap2\n      pop\n      pop\n      jump\t// out\n        /* \"#utility.yul\":5138:5264   */\n    tag_65:\n        /* \"#utility.yul\":5175:5182   */\n      0x00\n        /* \"#utility.yul\":5215:5257   */\n      0xffffffffffffffffffffffffffffffffffffffff\n        /* \"#utility.yul\":5208:5213   */\n      dup3\n        /* \"#utility.yul\":5204:5258   */\n      and\n        /* \"#utility.yul\":5193:5258   */\n      swap1\n      pop\n        /* \"#utility.yul\":5138:5264   */\n      swap2\n      swap1\n      pop\n      jump\t// out\n        /* \"#utility.yul\":5270:5366   */\n    tag_66:\n        /* \"#utility.yul\":5307:5314   */\n      0x00\n        /* \"#utility.yul\":5336:5360   */\n      tag_148\n        /* \"#utility.yul\":5354:5359   */\n      dup3\n        /* \"#utility.yul\":5336:5360   */\n      tag_65\n      jump\t// in\n    tag_148:\n        /* \"#utility.yul\":5325:5360   */\n      swap1\n      pop\n        /* \"#utility.yul\":5270:5366   */\n      swap2\n      swap1\n      pop\n      jump\t// out\n        /* \"#utility.yul\":5372:5494   */\n    tag_67:\n        /* \"#utility.yul\":5445:5469   */\n      tag_150\n        /* \"#utility.yul\":5463:5468   */\n      dup2\n        /* \"#utility.yul\":5445:5469   */\n      tag_66\n      jump\t// in\n    tag_150:\n        /* \"#utility.yul\":5438:5443   */\n      dup2\n        /* \"#utility.yul\":5435:5470   */\n      eq\n        /* \"#utility.yul\":5425:5488   */\n      tag_151\n      jumpi\n        /* \"#utility.yul\":5484:5485   */\n      0x00\n        /* \"#utility.yul\":5481:5482   */\n      dup1\n        /* \"#utility.yul\":5474:5486   */\n      revert\n        /* \"#utility.yul\":5425:5488   */\n    tag_151:\n        /* \"#utility.yul\":5372:5494   */\n      pop\n      jump\t// out\n        /* \"#utility.yul\":5500:5639   */\n    tag_68:\n        /* \"#utility.yul\":5546:5551   */\n      0x00\n        /* \"#utility.yul\":5584:5590   */\n      dup2\n        /* \"#utility.yul\":5571:5591   */\n      calldataload\n        /* \"#utility.yul\":5562:5591   */\n      swap1\n      pop\n        /* \"#utility.yul\":5600:5633   */\n      tag_153\n        /* \"#utility.yul\":5627:5632   */\n      dup2\n        /* \"#utility.yul\":5600:5633   */\n      tag_67\n      jump\t// in\n    tag_153:\n        /* \"#utility.yul\":5500:5639   */\n      swap3\n      swap2\n      pop\n      pop\n      jump\t// out\n        /* \"#utility.yul\":5645:5974   */\n    tag_19:\n        /* \"#utility.yul\":5704:5710   */\n      0x00\n        /* \"#utility.yul\":5753:5755   */\n      0x20\n        /* \"#utility.yul\":5741:5750   */\n      dup3\n        /* \"#utility.yul\":5732:5739   */\n      dup5\n        /* \"#utility.yul\":5728:5751   */\n      sub\n        /* \"#utility.yul\":5724:5756   */\n      slt\n        /* \"#utility.yul\":5721:5840   */\n      iszero\n      tag_155\n      jumpi\n        /* \"#utility.yul\":5759:5838   */\n      tag_156\n      tag_46\n      jump\t// in\n    tag_156:\n        /* \"#utility.yul\":5721:5840   */\n    tag_155:\n        /* \"#utility.yul\":5879:5880   */\n      0x00\n        /* \"#utility.yul\":5904:5957   */\n      tag_157\n        /* \"#utility.yul\":5949:5956   */\n      dup5\n        /* \"#utility.yul\":5940:5946   */\n      dup3\n        /* \"#utility.yul\":5929:5938   */\n      dup6\n        /* \"#utility.yul\":5925:5947   */\n      add\n        /* \"#utility.yul\":5904:5957   */\n      tag_68\n      jump\t// in\n    tag_157:\n        /* \"#utility.yul\":5894:5957   */\n      swap2\n      pop\n        /* \"#utility.yul\":5850:5967   */\n      pop\n        /* \"#utility.yul\":5645:5974   */\n      swap3\n      swap2\n      pop\n      pop\n      jump\t// out\n        /* \"#utility.yul\":5980:6098   */\n    tag_69:\n        /* \"#utility.yul\":6067:6091   */\n      tag_159\n        /* \"#utility.yul\":6085:6090   */\n      dup2\n        /* \"#utility.yul\":6067:6091   */\n      tag_58\n      jump\t// in\n    tag_159:\n        /* \"#utility.yul\":6062:6065   */\n      dup3\n        /* \"#utility.yul\":6055:6092   */\n      mstore\n        /* \"#utility.yul\":5980:6098   */\n      pop\n      pop\n      jump\t// out\n        /* \"#utility.yul\":6104:6527   */\n    tag_22:\n        /* \"#utility.yul\":6245:6249   */\n      0x00\n        /* \"#utility.yul\":6283:6285   */\n      0x40\n        /* \"#utility.yul\":6272:6281   */\n      dup3\n        /* \"#utility.yul\":6268:6286   */\n      add\n        /* \"#utility.yul\":6260:6286   */\n      swap1\n      pop\n        /* \"#utility.yul\":6332:6341   */\n      dup2\n        /* \"#utility.yul\":6326:6330   */\n      dup2\n        /* \"#utility.yul\":6322:6342   */\n      sub\n        /* \"#utility.yul\":6318:6319   */\n      0x00\n        /* \"#utility.yul\":6307:6316   */\n      dup4\n        /* \"#utility.yul\":6303:6320   */\n      add\n        /* \"#utility.yul\":6296:6343   */\n      mstore\n        /* \"#utility.yul\":6360:6438   */\n      tag_161\n        /* \"#utility.yul\":6433:6437   */\n      dup2\n        /* \"#utility.yul\":6424:6430   */\n      dup6\n        /* \"#utility.yul\":6360:6438   */\n      tag_64\n      jump\t// in\n    tag_161:\n        /* \"#utility.yul\":6352:6438   */\n      swap1\n      pop\n        /* \"#utility.yul\":6448:6520   */\n      tag_162\n        /* \"#utility.yul\":6516:6518   */\n      0x20\n        /* \"#utility.yul\":6505:6514   */\n      dup4\n        /* \"#utility.yul\":6501:6519   */\n      add\n        /* \"#utility.yul\":6492:6498   */\n      dup5\n        /* \"#utility.yul\":6448:6520   */\n      tag_69\n      jump\t// in\n    tag_162:\n        /* \"#utility.yul\":6104:6527   */\n      swap4\n      swap3\n      pop\n      pop\n      pop\n      jump\t// out\n        /* \"#utility.yul\":6533:6713   */\n    tag_70:\n        /* \"#utility.yul\":6581:6658   */\n      0x4e487b7100000000000000000000000000000000000000000000000000000000\n        /* \"#utility.yul\":6578:6579   */\n      0x00\n        /* \"#utility.yul\":6571:6659   */\n      mstore\n        /* \"#utility.yul\":6678:6682   */\n      0x22\n        /* \"#utility.yul\":6675:6676   */\n      0x04\n        /* \"#utility.yul\":6668:6683   */\n      mstore\n        /* \"#utility.yul\":6702:6706   */\n      0x24\n        /* \"#utility.yul\":6699:6700   */\n      0x00\n        /* \"#utility.yul\":6692:6707   */\n      revert\n        /* \"#utility.yul\":6719:7039   */\n    tag_33:\n        /* \"#utility.yul\":6763:6769   */\n      0x00\n        /* \"#utility.yul\":6800:6801   */\n      0x02\n        /* \"#utility.yul\":6794:6798   */\n      dup3\n        /* \"#utility.yul\":6790:6802   */\n      div\n        /* \"#utility.yul\":6780:6802   */\n      swap1\n      pop\n        /* \"#utility.yul\":6847:6848   */\n      0x01\n        /* \"#utility.yul\":6841:6845   */\n      dup3\n        /* \"#utility.yul\":6837:6849   */\n      and\n        /* \"#utility.yul\":6868:6886   */\n      dup1\n        /* \"#utility.yul\":6858:6939   */\n      tag_165\n      jumpi\n        /* \"#utility.yul\":6924:6928   */\n      0x7f\n        /* \"#utility.yul\":6916:6922   */\n      dup3\n        /* \"#utility.yul\":6912:6929   */\n      and\n        /* \"#utility.yul\":6902:6929   */\n      swap2\n      pop\n        /* \"#utility.yul\":6858:6939   */\n    tag_165:\n        /* \"#utility.yul\":6986:6988   */\n      0x20\n        /* \"#utility.yul\":6978:6984   */\n      dup3\n        /* \"#utility.yul\":6975:6989   */\n      lt\n        /* \"#utility.yul\":6955:6973   */\n      dup2\n        /* \"#utility.yul\":6952:6990   */\n      sub\n        /* \"#utility.yul\":6949:7033   */\n      tag_166\n      jumpi\n        /* \"#utility.yul\":7005:7023   */\n      tag_167\n      tag_70\n      jump\t// in\n    tag_167:\n        /* \"#utility.yul\":6949:7033   */\n    tag_166:\n        /* \"#utility.yul\":6770:7039   */\n      pop\n        /* \"#utility.yul\":6719:7039   */\n      swap2\n      swap1\n      pop\n      jump\t// out\n        /* \"#utility.yul\":7045:7186   */\n    tag_71:\n        /* \"#utility.yul\":7094:7098   */\n      0x00\n        /* \"#utility.yul\":7117:7120   */\n      dup2\n        /* \"#utility.yul\":7109:7120   */\n      swap1\n      pop\n        /* \"#utility.yul\":7140:7143   */\n      dup2\n        /* \"#utility.yul\":7137:7138   */\n      0x00\n        /* \"#utility.yul\":7130:7144   */\n      mstore\n        /* \"#utility.yul\":7174:7178   */\n      0x20\n        /* \"#utility.yul\":7171:7172   */\n      0x00\n        /* \"#utility.yul\":7161:7179   */\n      keccak256\n        /* \"#utility.yul\":7153:7179   */\n      swap1\n      pop\n        /* \"#utility.yul\":7045:7186   */\n      swap2\n      swap1\n      pop\n      jump\t// out\n        /* \"#utility.yul\":7192:7285   */\n    tag_72:\n        /* \"#utility.yul\":7229:7235   */\n      0x00\n        /* \"#utility.yul\":7276:7278   */\n      0x20\n        /* \"#utility.yul\":7271:7273   */\n      0x1f\n        /* \"#utility.yul\":7264:7269   */\n      dup4\n        /* \"#utility.yul\":7260:7274   */\n      add\n        /* \"#utility.yul\":7256:7279   */\n      div\n        /* \"#utility.yul\":7246:7279   */\n      swap1\n      pop\n        /* \"#utility.yul\":7192:7285   */\n      swap2\n      swap1\n      pop\n      jump\t// out\n        /* \"#utility.yul\":7291:7398   */\n    tag_73:\n        /* \"#utility.yul\":7335:7343   */\n      0x00\n        /* \"#utility.yul\":7385:7390   */\n      dup3\n        /* \"#utility.yul\":7379:7383   */\n      dup3\n        /* \"#utility.yul\":7375:7391   */\n      shl\n        /* \"#utility.yul\":7354:7391   */\n      swap1\n      pop\n        /* \"#utility.yul\":7291:7398   */\n      swap3\n      swap2\n      pop\n      pop\n      jump\t// out\n        /* \"#utility.yul\":7404:7797   */\n    tag_74:\n        /* \"#utility.yul\":7473:7479   */\n      0x00\n        /* \"#utility.yul\":7523:7524   */\n      0x08\n        /* \"#utility.yul\":7511:7521   */\n      dup4\n        /* \"#utility.yul\":7507:7525   */\n      mul\n        /* \"#utility.yul\":7546:7643   */\n      tag_172\n        /* \"#utility.yul\":7576:7642   */\n      0xffffffffffffffffffffffffffffffffffffffffffffffffffffffffffffffff\n        /* \"#utility.yul\":7565:7574   */\n      dup3\n        /* \"#utility.yul\":7546:7643   */\n      tag_73\n      jump\t// in\n    tag_172:\n        /* \"#utility.yul\":7664:7703   */\n      tag_173\n        /* \"#utility.yul\":7694:7702   */\n      dup7\n        /* \"#utility.yul\":7683:7692   */\n      dup4\n        /* \"#utility.yul\":7664:7703   */\n      tag_73\n      jump\t// in\n    tag_173:\n        /* \"#utility.yul\":7652:7703   */\n      swap6\n      pop\n        /* \"#utility.yul\":7736:7740   */\n      dup1\n        /* \"#utility.yul\":7732:7741   */\n      not\n        /* \"#utility.yul\":7725:7730   */\n      dup5\n        /* \"#utility.yul\":7721:7742   */\n      and\n        /* \"#utility.yul\":7712:7742   */\n      swap4\n      pop\n        /* \"#utility.yul\":7785:7789   */\n      dup1\n        /* \"#utility.yul\":7775:7783   */\n      dup7\n        /* \"#utility.yul\":7771:7790   */\n      and\n        /* \"#utility.yul\":7764:7769   */\n      dup5\n        /* \"#utility.yul\":7761:7791   */\n      or\n        /* \"#utility.yul\":7751:7791   */\n      swap3\n      pop\n        /* \"#utility.yul\":7480:7797   */\n      pop\n      pop\n        /* \"#utility.yul\":7404:7797   */\n      swap4\n      swap3\n      pop\n      pop\n      pop\n      jump\t// out\n        /* \"#utility.yul\":7803:7863   */\n    tag_75:\n        /* \"#utility.yul\":7831:7834   */\n      0x00\n        /* \"#utility.yul\":7852:7857   */\n      dup2\n        /* \"#utility.yul\":7845:7857   */\n      swap1\n      pop\n        /* \"#utility.yul\":7803:7863   */\n      swap2\n      swap1\n      pop\n      jump\t// out\n        /* \"#utility.yul\":7869:8011   */\n    tag_76:\n        /* \"#utility.yul\":7919:7928   */\n      0x00\n        /* \"#utility.yul\":7952:8005   */\n      tag_176\n        /* \"#utility.yul\":7970:8004   */\n      tag_177\n        /* \"#utility.yul\":7979:8003   */\n      tag_178\n        /* \"#utility.yul\":7997:8002   */\n      dup5\n        /* \"#utility.yul\":7979:8003   */\n      tag_58\n      jump\t// in\n    tag_178:\n        /* \"#utility.yul\":7970:8004   */\n      tag_75\n      jump\t// in\n    tag_177:\n        /* \"#utility.yul\":7952:8005   */\n      tag_58\n      jump\t// in\n    tag_176:\n        /* \"#utility.yul\":7939:8005   */\n      swap1\n      pop\n        /* \"#utility.yul\":7869:8011   */\n      swap2\n      swap1\n      pop\n      jump\t// out\n        /* \"#utility.yul\":8017:8092   */\n    tag_77:\n        /* \"#utility.yul\":8060:8063   */\n      0x00\n        /* \"#utility.yul\":8081:8086   */\n      dup2\n        /* \"#utility.yul\":8074:8086   */\n      swap1\n      pop\n        /* \"#utility.yul\":8017:8092   */\n      swap2\n      swap1\n      pop\n      jump\t// out\n        /* \"#utility.yul\":8098:8367   */\n    tag_78:\n        /* \"#utility.yul\":8208:8247   */\n      tag_181\n        /* \"#utility.yul\":8239:8246   */\n      dup4\n        /* \"#utility.yul\":8208:8247   */\n      tag_76\n      jump\t// in\n    tag_181:\n        /* \"#utility.yul\":8269:8360   */\n      tag_182\n        /* \"#utility.yul\":8318:8359   */\n      tag_183\n        /* \"#utility.yul\":8342:8358   */\n      dup3\n        /* \"#utility.yul\":8318:8359   */\n      tag_77\n      jump\t// in\n    tag_183:\n        /* \"#utility.yul\":8310:8316   */\n      dup5\n        /* \"#utility.yul\":8303:8307   */\n      dup5\n        /* \"#utility.yul\":8297:8308   */\n      sload\n        /* \"#utility.yul\":8269:8360   */\n      tag_74\n      jump\t// in\n    tag_182:\n        /* \"#utility.yul\":8263:8267   */\n      dup3\n        /* \"#utility.yul\":8256:8361   */\n      sstore\n        /* \"#utility.yul\":8174:8367   */\n      pop\n        /* \"#utility.yul\":8098:8367   */\n      pop\n      pop\n      pop\n      jump\t// out\n        /* \"#utility.yul\":8373:8446   */\n    tag_79:\n        /* \"#utility.yul\":8418:8421   */\n      0x00\n        /* \"#utility.yul\":8373:8446   */\n      swap1\n      jump\t// out\n        /* \"#utility.yul\":8452:8641   */\n    tag_80:\n        /* \"#utility.yul\":8529:8561   */\n      tag_186\n      tag_79\n      jump\t// in\n    tag_186:\n        /* \"#utility.yul\":8570:8635   */\n      tag_187\n        /* \"#utility.yul\":8628:8634   */\n      dup2\n        /* \"#utility.yul\":8620:8626   */\n      dup5\n        /* \"#utility.yul\":8614:8618   */\n      dup5\n        /* \"#utility.yul\":8570:8635   */\n      tag_78\n      jump\t// in\n    tag_187:\n        /* \"#utility.yul\":8505:8641   */\n      pop\n        /* \"#utility.yul\":8452:8641   */\n      pop\n      pop\n      jump\t// out\n        /* \"#utility.yul\":8647:8833   */\n    tag_81:\n        /* \"#utility.yul\":8707:8827   */\n    tag_189:\n        /* \"#utility.yul\":8724:8727   */\n      dup2\n        /* \"#utility.yul\":8717:8722   */\n      dup2\n        /* \"#utility.yul\":8714:8728   */\n      lt\n        /* \"#utility.yul\":8707:8827   */\n      iszero\n      tag_191\n      jumpi\n        /* \"#utility.yul\":8778:8817   */\n      tag_192\n        /* \"#utility.yul\":8815:8816   */\n      0x00\n        /* \"#utility.yul\":8808:8813   */\n      dup3\n        /* \"#utility.yul\":8778:8817   */\n      tag_80\n      jump\t// in\n    tag_192:\n        /* \"#utility.yul\":8751:8752   */\n      0x01\n        /* \"#utility.yul\":8744:8749   */\n      dup2\n        /* \"#utility.yul\":8740:8753   */\n      add\n        /* \"#utility.yul\":8731:8753   */\n      swap1\n      pop\n        /* \"#utility.yul\":8707:8827   */\n      jump(tag_189)\n    tag_191:\n        /* \"#utility.yul\":8647:8833   */\n      pop\n      pop\n      jump\t// out\n        /* \"#utility.yul\":8839:9382   */\n    tag_82:\n        /* \"#utility.yul\":8940:8942   */\n      0x1f\n        /* \"#utility.yul\":8935:8938   */\n      dup3\n        /* \"#utility.yul\":8932:8943   */\n      gt\n        /* \"#utility.yul\":8929:9375   */\n      iszero\n      tag_194\n      jumpi\n        /* \"#utility.yul\":8974:9012   */\n      tag_195\n        /* \"#utility.yul\":9006:9011   */\n      dup2\n        /* \"#utility.yul\":8974:9012   */\n      tag_71\n      jump\t// in\n    tag_195:\n        /* \"#utility.yul\":9058:9087   */\n      tag_196\n        /* \"#utility.yul\":9076:9086   */\n      dup5\n        /* \"#utility.yul\":9058:9087   */\n      tag_72\n      jump\t// in\n    tag_196:\n        /* \"#utility.yul\":9048:9056   */\n      dup2\n        /* \"#utility.yul\":9044:9088   */\n      add\n        /* \"#utility.yul\":9241:9243   */\n      0x20\n        /* \"#utility.yul\":9229:9239   */\n      dup6\n        /* \"#utility.yul\":9226:9244   */\n      lt\n        /* \"#utility.yul\":9223:9272   */\n      iszero\n      tag_197\n      jumpi\n        /* \"#utility.yul\":9262:9270   */\n      dup2\n        /* \"#utility.yul\":9247:9270   */\n      swap1\n      pop\n        /* \"#utility.yul\":9223:9272   */\n    tag_197:\n        /* \"#utility.yul\":9285:9365   */\n      tag_198\n        /* \"#utility.yul\":9341:9363   */\n      tag_199\n        /* \"#utility.yul\":9359:9362   */\n      dup6\n        /* \"#utility.yul\":9341:9363   */\n      tag_72\n      jump\t// in\n    tag_199:\n        /* \"#utility.yul\":9331:9339   */\n      dup4\n        /* \"#utility.yul\":9327:9364   */\n      add\n        /* \"#utility.yul\":9314:9325   */\n      dup3\n        /* \"#utility.yul\":9285:9365   */\n      tag_81\n      jump\t// in\n    tag_198:\n        /* \"#utility.yul\":8944:9375   */\n      pop\n      pop\n        /* \"#utility.yul\":8929:9375   */\n    tag_194:\n        /* \"#utility.yul\":8839:9382   */\n      pop\n      pop\n      pop\n      jump\t// out\n        /* \"#utility.yul\":9388:9505   */\n    tag_83:\n        /* \"#utility.yul\":9442:9450   */\n      0x00\n        /* \"#utility.yul\":9492:9497   */\n      dup3\n        /* \"#utility.yul\":9486:9490   */\n      dup3\n        /* \"#utility.yul\":9482:9498   */\n      shr\n        /* \"#utility.yul\":9461:9498   */\n      swap1\n      pop\n        /* \"#utility.yul\":9388:9505   */\n      swap3\n      swap2\n      pop\n      pop\n      jump\t// out\n        /* \"#utility.yul\":9511:9680   */\n    tag_84:\n        /* \"#utility.yul\":9555:9561   */\n      0x00\n        /* \"#utility.yul\":9588:9639   */\n      tag_202\n        /* \"#utility.yul\":9636:9637   */\n      0x00\n        /* \"#utility.yul\":9632:9638   */\n      not\n        /* \"#utility.yul\":9624:9629   */\n      dup5\n        /* \"#utility.yul\":9621:9622   */\n      0x08\n        /* \"#utility.yul\":9617:9630   */\n      mul\n        /* \"#utility.yul\":9588:9639   */\n      tag_83\n      jump\t// in\n    tag_202:\n        /* \"#utility.yul\":9584:9640   */\n      not\n        /* \"#utility.yul\":9669:9673   */\n      dup1\n        /* \"#utility.yul\":9663:9667   */\n      dup4\n        /* \"#utility.yul\":9659:9674   */\n      and\n        /* \"#utility.yul\":9649:9674   */\n      swap2\n      pop\n        /* \"#utility.yul\":9562:9680   */\n      pop\n        /* \"#utility.yul\":9511:9680   */\n      swap3\n      swap2\n      pop\n      pop\n      jump\t// out\n        /* \"#utility.yul\":9685:9980   */\n    tag_85:\n        /* \"#utility.yul\":9761:9765   */\n      0x00\n        /* \"#utility.yul\":9907:9936   */\n      tag_204\n        /* \"#utility.yul\":9932:9935   */\n      dup4\n        /* \"#utility.yul\":9926:9930   */\n      dup4\n        /* \"#utility.yul\":9907:9936   */\n      tag_84\n      jump\t// in\n    tag_204:\n        /* \"#utility.yul\":9899:9936   */\n      swap2\n      pop\n        /* \"#utility.yul\":9969:9972   */\n      dup3\n        /* \"#utility.yul\":9966:9967   */\n      0x02\n        /* \"#utility.yul\":9962:9973   */\n      mul\n        /* \"#utility.yul\":9956:9960   */\n      dup3\n        /* \"#utility.yul\":9953:9974   */\n      or\n        /* \"#utility.yul\":9945:9974   */\n      swap1\n      pop\n        /* \"#utility.yul\":9685:9980   */\n      swap3\n      swap2\n      pop\n      pop\n      jump\t// out\n        /* \"#utility.yul\":9985:11380   */\n    tag_30:\n        /* \"#utility.yul\":10102:10139   */\n      tag_206\n        /* \"#utility.yul\":10135:10138   */\n      dup3\n        /* \"#utility.yul\":10102:10139   */\n      tag_61\n      jump\t// in\n    tag_206:\n        /* \"#utility.yul\":10204:10222   */\n      0xffffffffffffffff\n        /* \"#utility.yul\":10196:10202   */\n      dup2\n        /* \"#utility.yul\":10193:10223   */\n      gt\n        /* \"#utility.yul\":10190:10246   */\n      iszero\n      tag_207\n      jumpi\n        /* \"#utility.yul\":10226:10244   */\n      tag_208\n      tag_51\n      jump\t// in\n    tag_208:\n        /* \"#utility.yul\":10190:10246   */\n    tag_207:\n        /* \"#utility.yul\":10270:10308   */\n      tag_209\n        /* \"#utility.yul\":10302:10306   */\n      dup3\n        /* \"#utility.yul\":10296:10307   */\n      sload\n        /* \"#utility.yul\":10270:10308   */\n      tag_33\n      jump\t// in\n    tag_209:\n        /* \"#utility.yul\":10355:10422   */\n      tag_210\n        /* \"#utility.yul\":10415:10421   */\n      dup3\n        /* \"#utility.yul\":10407:10413   */\n      dup3\n        /* \"#utility.yul\":10401:10405   */\n      dup6\n        /* \"#utility.yul\":10355:10422   */\n      tag_82\n      jump\t// in\n    tag_210:\n        /* \"#utility.yul\":10449:10450   */\n      0x00\n        /* \"#utility.yul\":10473:10477   */\n      0x20\n        /* \"#utility.yul\":10460:10477   */\n      swap1\n      pop\n        /* \"#utility.yul\":10505:10507   */\n      0x1f\n        /* \"#utility.yul\":10497:10503   */\n      dup4\n        /* \"#utility.yul\":10494:10508   */\n      gt\n        /* \"#utility.yul\":10522:10523   */\n      0x01\n        /* \"#utility.yul\":10517:11135   */\n      dup2\n      eq\n      tag_212\n      jumpi\n        /* \"#utility.yul\":11179:11180   */\n      0x00\n        /* \"#utility.yul\":11196:11202   */\n      dup5\n        /* \"#utility.yul\":11193:11270   */\n      iszero\n      tag_213\n      jumpi\n        /* \"#utility.yul\":11245:11254   */\n      dup3\n        /* \"#utility.yul\":11240:11243   */\n      dup8\n        /* \"#utility.yul\":11236:11255   */\n      add\n        /* \"#utility.yul\":11230:11256   */\n      mload\n        /* \"#utility.yul\":11221:11256   */\n      swap1\n      pop\n        /* \"#utility.yul\":11193:11270   */\n    tag_213:\n        /* \"#utility.yul\":11296:11363   */\n      tag_214\n        /* \"#utility.yul\":11356:11362   */\n      dup6\n        /* \"#utility.yul\":11349:11354   */\n      dup3\n        /* \"#utility.yul\":11296:11363   */\n      tag_85\n      jump\t// in\n    tag_214:\n        /* \"#utility.yul\":11290:11294   */\n      dup7\n        /* \"#utility.yul\":11283:11364   */\n      sstore\n        /* \"#utility.yul\":11152:11374   */\n      pop\n        /* \"#utility.yul\":10487:11374   */\n      jump(tag_211)\n        /* \"#utility.yul\":10517:11135   */\n    tag_212:\n        /* \"#utility.yul\":10569:10573   */\n      0x1f\n        /* \"#utility.yul\":10565:10574   */\n      not\n        /* \"#utility.yul\":10557:10563   */\n      dup5\n        /* \"#utility.yul\":10553:10575   */\n      and\n        /* \"#utility.yul\":10603:10640   */\n      tag_215\n        /* \"#utility.yul\":10635:10639   */\n      dup7\n        /* \"#utility.yul\":10603:10640   */\n      tag_71\n      jump\t// in\n    tag_215:\n        /* \"#utility.yul\":10662:10663   */\n      0x00\n        /* \"#utility.yul\":10676:10884   */\n    tag_216:\n        /* \"#utility.yul\":10690:10697   */\n      dup3\n        /* \"#utility.yul\":10687:10688   */\n      dup2\n        /* \"#utility.yul\":10684:10698   */\n      lt\n        /* \"#utility.yul\":10676:10884   */\n      iszero\n      tag_218\n      jumpi\n        /* \"#utility.yul\":10769:10778   */\n      dup5\n        /* \"#utility.yul\":10764:10767   */\n      dup10\n        /* \"#utility.yul\":10760:10779   */\n      add\n        /* \"#utility.yul\":10754:10780   */\n      mload\n        /* \"#utility.yul\":10746:10752   */\n      dup3\n        /* \"#utility.yul\":10739:10781   */\n      sstore\n        /* \"#utility.yul\":10820:10821   */\n      0x01\n        /* \"#utility.yul\":10812:10818   */\n      dup3\n        /* \"#utility.yul\":10808:10822   */\n      add\n        /* \"#utility.yul\":10798:10822   */\n      swap2\n      pop\n        /* \"#utility.yul\":10867:10869   */\n      0x20\n        /* \"#utility.yul\":10856:10865   */\n      dup6\n        /* \"#utility.yul\":10852:10870   */\n      add\n        /* \"#utility.yul\":10839:10870   */\n      swap5\n      pop\n        /* \"#utility.yul\":10713:10717   */\n      0x20\n        /* \"#utility.yul\":10710:10711   */\n      dup2\n        /* \"#utility.yul\":10706:10718   */\n      add\n        /* \"#utility.yul\":10701:10718   */\n      swap1\n      pop\n        /* \"#utility.yul\":10676:10884   */\n      jump(tag_216)\n    tag_218:\n        /* \"#utility.yul\":10912:10918   */\n      dup7\n        /* \"#utility.yul\":10903:10910   */\n      dup4\n        /* \"#utility.yul\":10900:10919   */\n      lt\n        /* \"#utility.yul\":10897:11076   */\n      iszero\n      tag_219\n      jumpi\n        /* \"#utility.yul\":10970:10979   */\n      dup5\n        /* \"#utility.yul\":10965:10968   */\n      dup10\n        /* \"#utility.yul\":10961:10980   */\n      add\n        /* \"#utility.yul\":10955:10981   */\n      mload\n        /* \"#utility.yul\":11013:11061   */\n      tag_220\n        /* \"#utility.yul\":11055:11059   */\n      0x1f\n        /* \"#utility.yul\":11047:11053   */\n      dup10\n        /* \"#utility.yul\":11043:11060   */\n      and\n        /* \"#utility.yul\":11032:11041   */\n      dup3\n        /* \"#utility.yul\":11013:11061   */\n      tag_84\n      jump\t// in\n    tag_220:\n        /* \"#utility.yul\":11005:11011   */\n      dup4\n        /* \"#utility.yul\":10998:11062   */\n      sstore\n        /* \"#utility.yul\":10920:11076   */\n      pop\n        /* \"#utility.yul\":10897:11076   */\n    tag_219:\n        /* \"#utility.yul\":11122:11123   */\n      0x01\n        /* \"#utility.yul\":11118:11119   */\n      0x02\n        /* \"#utility.yul\":11110:11116   */\n      dup9\n        /* \"#utility.yul\":11106:11120   */\n      mul\n        /* \"#utility.yul\":11102:11124   */\n      add\n        /* \"#utility.yul\":11096:11100   */\n      dup9\n        /* \"#utility.yul\":11089:11125   */\n      sstore\n        /* \"#utility.yul\":10524:11135   */\n      pop\n      pop\n      pop\n        /* \"#utility.yul\":10487:11374   */\n    tag_211:\n      pop\n        /* \"#utility.yul\":10077:11380   */\n      pop\n      pop\n      pop\n        /* \"#utility.yul\":9985:11380   */\n      pop\n      pop\n      jump\t// out\n\n    auxdata: 0xa26469706673582212206da83b60b4b73da13744b791fc0158a779b0efa73a78015791d7f770eec6b42564736f6c63430008110033\n}\n",
				"bytecode": {
					"linkReferences": {},
					"object": "608060405234801561001057600080fd5b5061096c806100206000396000f3fe608060405234801561001057600080fd5b506004361061004c5760003560e01c80630d3de88d14610051578063a677c48f1461006d578063a857bf321461009d578063b9d6dedb146100ce575b600080fd5b61006b60048036038101906100669190610464565b6100ff565b005b610087600480360381019061008291906104c0565b610165565b604051610094919061056c565b60405180910390f35b6100b760048036038101906100b291906105ec565b61016c565b6040516100c5929190610628565b60405180910390f35b6100e860048036038101906100e391906104c0565b610218565b6040516100f6929190610628565b60405180910390f35b6000604051806040016040528084815260200183815250908060018154018082558091505060019003906000526020600020906002020160009091909190915060008201518160000190816101549190610864565b506020820151816001015550505050565b6060919050565b600160205280600052604060002060009150905080600001805461018f90610687565b80601f01602080910402602001604051908101604052809291908181526020018280546101bb90610687565b80156102085780601f106101dd57610100808354040283529160200191610208565b820191906000526020600020905b8154815290600101906020018083116101eb57829003601f168201915b5050505050908060010154905082565b6000818154811061022857600080fd5b906000526020600020906002020160009150905080600001805461024b90610687565b80601f016020809104026020016040519081016040528092919081815260200182805461027790610687565b80156102c45780601f10610299576101008083540402835291602001916102c4565b820191906000526020600020905b8154815290600101906020018083116102a757829003601f168201915b5050505050908060010154905082565b6000604051905090565b600080fd5b600080fd5b600080fd5b600080fd5b6000601f19601f8301169050919050565b7f4e487b7100000000000000000000000000000000000000000000000000000000600052604160045260246000fd5b61033b826102f2565b810181811067ffffffffffffffff8211171561035a57610359610303565b5b80604052505050565b600061036d6102d4565b90506103798282610332565b919050565b600067ffffffffffffffff82111561039957610398610303565b5b6103a2826102f2565b9050602081019050919050565b82818337600083830152505050565b60006103d16103cc8461037e565b610363565b9050828152602081018484840111156103ed576103ec6102ed565b5b6103f88482856103af565b509392505050565b600082601f830112610415576104146102e8565b5b81356104258482602086016103be565b91505092915050565b6000819050919050565b6104418161042e565b811461044c57600080fd5b50565b60008135905061045e81610438565b92915050565b6000806040838503121561047b5761047a6102de565b5b600083013567ffffffffffffffff811115610499576104986102e3565b5b6104a585828601610400565b92505060206104b68582860161044f565b9150509250929050565b6000602082840312156104d6576104d56102de565b5b60006104e48482850161044f565b91505092915050565b600081519050919050565b600082825260208201905092915050565b60005b8381101561052757808201518184015260208101905061050c565b60008484015250505050565b600061053e826104ed565b61054881856104f8565b9350610558818560208601610509565b610561816102f2565b840191505092915050565b600060208201905081810360008301526105868184610533565b905092915050565b600073ffffffffffffffffffffffffffffffffffffffff82169050919050565b60006105b98261058e565b9050919050565b6105c9816105ae565b81146105d457600080fd5b50565b6000813590506105e6816105c0565b92915050565b600060208284031215610602576106016102de565b5b6000610610848285016105d7565b91505092915050565b6106228161042e565b82525050565b600060408201905081810360008301526106428185610533565b90506106516020830184610619565b9392505050565b7f4e487b7100000000000000000000000000000000000000000000000000000000600052602260045260246000fd5b6000600282049050600182168061069f57607f821691505b6020821081036106b2576106b1610658565b5b50919050565b60008190508160005260206000209050919050565b60006020601f8301049050919050565b600082821b905092915050565b60006008830261071a7fffffffffffffffffffffffffffffffffffffffffffffffffffffffffffffffff826106dd565b61072486836106dd565b95508019841693508086168417925050509392505050565b6000819050919050565b600061076161075c6107578461042e565b61073c565b61042e565b9050919050565b6000819050919050565b61077b83610746565b61078f61078782610768565b8484546106ea565b825550505050565b600090565b6107a4610797565b6107af818484610772565b505050565b5b818110156107d3576107c860008261079c565b6001810190506107b5565b5050565b601f821115610818576107e9816106b8565b6107f2846106cd565b81016020851015610801578190505b61081561080d856106cd565b8301826107b4565b50505b505050565b600082821c905092915050565b600061083b6000198460080261081d565b1980831691505092915050565b6000610854838361082a565b9150826002028217905092915050565b61086d826104ed565b67ffffffffffffffff81111561088657610885610303565b5b6108908254610687565b61089b8282856107d7565b600060209050601f8311600181146108ce57600084156108bc578287015190505b6108c68582610848565b86555061092e565b601f1984166108dc866106b8565b60005b82811015610904578489015182556001820191506020850194506020810190506108df565b86831015610921578489015161091d601f89168261082a565b8355505b6001600288020188555050505b50505050505056fea26469706673582212206da83b60b4b73da13744b791fc0158a779b0efa73a78015791d7f770eec6b42564736f6c63430008110033",
					"opcodes": "PUSH1 0x80 PUSH1 0x40 MSTORE CALLVALUE DUP1 ISZERO PUSH2 0x10 JUMPI PUSH1 0x0 DUP1 REVERT JUMPDEST POP PUSH2 0x96C DUP1 PUSH2 0x20 PUSH1 0x0 CODECOPY PUSH1 0x0 RETURN INVALID PUSH1 0x80 PUSH1 0x40 MSTORE CALLVALUE DUP1 ISZERO PUSH2 0x10 JUMPI PUSH1 0x0 DUP1 REVERT JUMPDEST POP PUSH1 0x4 CALLDATASIZE LT PUSH2 0x4C JUMPI PUSH1 0x0 CALLDATALOAD PUSH1 0xE0 SHR DUP1 PUSH4 0xD3DE88D EQ PUSH2 0x51 JUMPI DUP1 PUSH4 0xA677C48F EQ PUSH2 0x6D JUMPI DUP1 PUSH4 0xA857BF32 EQ PUSH2 0x9D JUMPI DUP1 PUSH4 0xB9D6DEDB EQ PUSH2 0xCE JUMPI JUMPDEST PUSH1 0x0 DUP1 REVERT JUMPDEST PUSH2 0x6B PUSH1 0x4 DUP1 CALLDATASIZE SUB DUP2 ADD SWAP1 PUSH2 0x66 SWAP2 SWAP1 PUSH2 0x464 JUMP JUMPDEST PUSH2 0xFF JUMP JUMPDEST STOP JUMPDEST PUSH2 0x87 PUSH1 0x4 DUP1 CALLDATASIZE SUB DUP2 ADD SWAP1 PUSH2 0x82 SWAP2 SWAP1 PUSH2 0x4C0 JUMP JUMPDEST PUSH2 0x165 JUMP JUMPDEST PUSH1 0x40 MLOAD PUSH2 0x94 SWAP2 SWAP1 PUSH2 0x56C JUMP JUMPDEST PUSH1 0x40 MLOAD DUP1 SWAP2 SUB SWAP1 RETURN JUMPDEST PUSH2 0xB7 PUSH1 0x4 DUP1 CALLDATASIZE SUB DUP2 ADD SWAP1 PUSH2 0xB2 SWAP2 SWAP1 PUSH2 0x5EC JUMP JUMPDEST PUSH2 0x16C JUMP JUMPDEST PUSH1 0x40 MLOAD PUSH2 0xC5 SWAP3 SWAP2 SWAP1 PUSH2 0x628 JUMP JUMPDEST PUSH1 0x40 MLOAD DUP1 SWAP2 SUB SWAP1 RETURN JUMPDEST PUSH2 0xE8 PUSH1 0x4 DUP1 CALLDATASIZE SUB DUP2 ADD SWAP1 PUSH2 0xE3 SWAP2 SWAP1 PUSH2 0x4C0 JUMP JUMPDEST PUSH2 0x218 JUMP JUMPDEST PUSH1 0x40 MLOAD PUSH2 0xF6 SWAP3 SWAP2 SWAP1 PUSH2 0x628 JUMP JUMPDEST PUSH1 0x40 MLOAD DUP1 SWAP2 SUB SWAP1 RETURN JUMPDEST PUSH1 0x0 PUSH1 0x40 MLOAD DUP1 PUSH1 0x40 ADD PUSH1 0x40 MSTORE DUP1 DUP5 DUP2 MSTORE PUSH1 0x20 ADD DUP4 DUP2 MSTORE POP SWAP1 DUP1 PUSH1 0x1 DUP2 SLOAD ADD DUP1 DUP3 SSTORE DUP1 SWAP2 POP POP PUSH1 0x1 SWAP1 SUB SWAP1 PUSH1 0x0 MSTORE PUSH1 0x20 PUSH1 0x0 KECCAK256 SWAP1 PUSH1 0x2 MUL ADD PUSH1 0x0 SWAP1 SWAP2 SWAP1 SWAP2 SWAP1 SWAP2 POP PUSH1 0x0 DUP3 ADD MLOAD DUP2 PUSH1 0x0 ADD SWAP1 DUP2 PUSH2 0x154 SWAP2 SWAP1 PUSH2 0x864 JUMP JUMPDEST POP PUSH1 0x20 DUP3 ADD MLOAD DUP2 PUSH1 0x1 ADD SSTORE POP POP POP POP JUMP JUMPDEST PUSH1 0x60 SWAP2 SWAP1 POP JUMP JUMPDEST PUSH1 0x1 PUSH1 0x20 MSTORE DUP1 PUSH1 0x0 MSTORE PUSH1 0x40 PUSH1 0x0 KECCAK256 PUSH1 0x0 SWAP2 POP SWAP1 POP DUP1 PUSH1 0x0 ADD DUP1 SLOAD PUSH2 0x18F SWAP1 PUSH2 0x687 JUMP JUMPDEST DUP1 PUSH1 0x1F ADD PUSH1 0x20 DUP1 SWAP2 DIV MUL PUSH1 0x20 ADD PUSH1 0x40 MLOAD SWAP1 DUP2 ADD PUSH1 0x40 MSTORE DUP1 SWAP3 SWAP2 SWAP1 DUP2 DUP2 MSTORE PUSH1 0x20 ADD DUP3 DUP1 SLOAD PUSH2 0x1BB SWAP1 PUSH2 0x687 JUMP JUMPDEST DUP1 ISZERO PUSH2 0x208 JUMPI DUP1 PUSH1 0x1F LT PUSH2 0x1DD JUMPI PUSH2 0x100 DUP1 DUP4 SLOAD DIV MUL DUP4 MSTORE SWAP2 PUSH1 0x20 ADD SWAP2 PUSH2 0x208 JUMP JUMPDEST DUP3 ADD SWAP2 SWAP1 PUSH1 0x0 MSTORE PUSH1 0x20 PUSH1 0x0 KECCAK256 SWAP1 JUMPDEST DUP2 SLOAD DUP2 MSTORE SWAP1 PUSH1 0x1 ADD SWAP1 PUSH1 0x20 ADD DUP1 DUP4 GT PUSH2 0x1EB JUMPI DUP3 SWAP1 SUB PUSH1 0x1F AND DUP3 ADD SWAP2 JUMPDEST POP POP POP POP POP SWAP1 DUP1 PUSH1 0x1 ADD SLOAD SWAP1 POP DUP3 JUMP JUMPDEST PUSH1 0x0 DUP2 DUP2 SLOAD DUP2 LT PUSH2 0x228 JUMPI PUSH1 0x0 DUP1 REVERT JUMPDEST SWAP1 PUSH1 0x0 MSTORE PUSH1 0x20 PUSH1 0x0 KECCAK256 SWAP1 PUSH1 0x2 MUL ADD PUSH1 0x0 SWAP2 POP SWAP1 POP DUP1 PUSH1 0x0 ADD DUP1 SLOAD PUSH2 0x24B SWAP1 PUSH2 0x687 JUMP JUMPDEST DUP1 PUSH1 0x1F ADD PUSH1 0x20 DUP1 SWAP2 DIV MUL PUSH1 0x20 ADD PUSH1 0x40 MLOAD SWAP1 DUP2 ADD PUSH1 0x40 MSTORE DUP1 SWAP3 SWAP2 SWAP1 DUP2 DUP2 MSTORE PUSH1 0x20 ADD DUP3 DUP1 SLOAD PUSH2 0x277 SWAP1 PUSH2 0x687 JUMP JUMPDEST DUP1 ISZERO PUSH2 0x2C4 JUMPI DUP1 PUSH1 0x1F LT PUSH2 0x299 JUMPI PUSH2 0x100 DUP1 DUP4 SLOAD DIV MUL DUP4 MSTORE SWAP2 PUSH1 0x20 ADD SWAP2 PUSH2 0x2C4 JUMP JUMPDEST DUP3 ADD SWAP2 SWAP1 PUSH1 0x0 MSTORE PUSH1 0x20 PUSH1 0x0 KECCAK256 SWAP1 JUMPDEST DUP2 SLOAD DUP2 MSTORE SWAP1 PUSH1 0x1 ADD SWAP1 PUSH1 0x20 ADD DUP1 DUP4 GT PUSH2 0x2A7 JUMPI DUP3 SWAP1 SUB PUSH1 0x1F AND DUP3 ADD SWAP2 JUMPDEST POP POP POP POP POP SWAP1 DUP1 PUSH1 0x1 ADD SLOAD SWAP1 POP DUP3 JUMP JUMPDEST PUSH1 0x0 PUSH1 0x40 MLOAD SWAP1 POP SWAP1 JUMP JUMPDEST PUSH1 0x0 DUP1 REVERT JUMPDEST PUSH1 0x0 DUP1 REVERT JUMPDEST PUSH1 0x0 DUP1 REVERT JUMPDEST PUSH1 0x0 DUP1 REVERT JUMPDEST PUSH1 0x0 PUSH1 0x1F NOT PUSH1 0x1F DUP4 ADD AND SWAP1 POP SWAP2 SWAP1 POP JUMP JUMPDEST PUSH32 0x4E487B7100000000000000000000000000000000000000000000000000000000 PUSH1 0x0 MSTORE PUSH1 0x41 PUSH1 0x4 MSTORE PUSH1 0x24 PUSH1 0x0 REVERT JUMPDEST PUSH2 0x33B DUP3 PUSH2 0x2F2 JUMP JUMPDEST DUP2 ADD DUP2 DUP2 LT PUSH8 0xFFFFFFFFFFFFFFFF DUP3 GT OR ISZERO PUSH2 0x35A JUMPI PUSH2 0x359 PUSH2 0x303 JUMP JUMPDEST JUMPDEST DUP1 PUSH1 0x40 MSTORE POP POP POP JUMP JUMPDEST PUSH1 0x0 PUSH2 0x36D PUSH2 0x2D4 JUMP JUMPDEST SWAP1 POP PUSH2 0x379 DUP3 DUP3 PUSH2 0x332 JUMP JUMPDEST SWAP2 SWAP1 POP JUMP JUMPDEST PUSH1 0x0 PUSH8 0xFFFFFFFFFFFFFFFF DUP3 GT ISZERO PUSH2 0x399 JUMPI PUSH2 0x398 PUSH2 0x303 JUMP JUMPDEST JUMPDEST PUSH2 0x3A2 DUP3 PUSH2 0x2F2 JUMP JUMPDEST SWAP1 POP PUSH1 0x20 DUP2 ADD SWAP1 POP SWAP2 SWAP1 POP JUMP JUMPDEST DUP3 DUP2 DUP4 CALLDATACOPY PUSH1 0x0 DUP4 DUP4 ADD MSTORE POP POP POP JUMP JUMPDEST PUSH1 0x0 PUSH2 0x3D1 PUSH2 0x3CC DUP5 PUSH2 0x37E JUMP JUMPDEST PUSH2 0x363 JUMP JUMPDEST SWAP1 POP DUP3 DUP2 MSTORE PUSH1 0x20 DUP2 ADD DUP5 DUP5 DUP5 ADD GT ISZERO PUSH2 0x3ED JUMPI PUSH2 0x3EC PUSH2 0x2ED JUMP JUMPDEST JUMPDEST PUSH2 0x3F8 DUP5 DUP3 DUP6 PUSH2 0x3AF JUMP JUMPDEST POP SWAP4 SWAP3 POP POP POP JUMP JUMPDEST PUSH1 0x0 DUP3 PUSH1 0x1F DUP4 ADD SLT PUSH2 0x415 JUMPI PUSH2 0x414 PUSH2 0x2E8 JUMP JUMPDEST JUMPDEST DUP2 CALLDATALOAD PUSH2 0x425 DUP5 DUP3 PUSH1 0x20 DUP7 ADD PUSH2 0x3BE JUMP JUMPDEST SWAP2 POP POP SWAP3 SWAP2 POP POP JUMP JUMPDEST PUSH1 0x0 DUP2 SWAP1 POP SWAP2 SWAP1 POP JUMP JUMPDEST PUSH2 0x441 DUP2 PUSH2 0x42E JUMP JUMPDEST DUP2 EQ PUSH2 0x44C JUMPI PUSH1 0x0 DUP1 REVERT JUMPDEST POP JUMP JUMPDEST PUSH1 0x0 DUP2 CALLDATALOAD SWAP1 POP PUSH2 0x45E DUP2 PUSH2 0x438 JUMP JUMPDEST SWAP3 SWAP2 POP POP JUMP JUMPDEST PUSH1 0x0 DUP1 PUSH1 0x40 DUP4 DUP6 SUB SLT ISZERO PUSH2 0x47B JUMPI PUSH2 0x47A PUSH2 0x2DE JUMP JUMPDEST JUMPDEST PUSH1 0x0 DUP4 ADD CALLDATALOAD PUSH8 0xFFFFFFFFFFFFFFFF DUP2 GT ISZERO PUSH2 0x499 JUMPI PUSH2 0x498 PUSH2 0x2E3 JUMP JUMPDEST JUMPDEST PUSH2 0x4A5 DUP6 DUP3 DUP7 ADD PUSH2 0x400 JUMP JUMPDEST SWAP3 POP POP PUSH1 0x20 PUSH2 0x4B6 DUP6 DUP3 DUP7 ADD PUSH2 0x44F JUMP JUMPDEST SWAP2 POP POP SWAP3 POP SWAP3 SWAP1 POP JUMP JUMPDEST PUSH1 0x0 PUSH1 0x20 DUP3 DUP5 SUB SLT ISZERO PUSH2 0x4D6 JUMPI PUSH2 0x4D5 PUSH2 0x2DE JUMP JUMPDEST JUMPDEST PUSH1 0x0 PUSH2 0x4E4 DUP5 DUP3 DUP6 ADD PUSH2 0x44F JUMP JUMPDEST SWAP2 POP POP SWAP3 SWAP2 POP POP JUMP JUMPDEST PUSH1 0x0 DUP2 MLOAD SWAP1 POP SWAP2 SWAP1 POP JUMP JUMPDEST PUSH1 0x0 DUP3 DUP3 MSTORE PUSH1 0x20 DUP3 ADD SWAP1 POP SWAP3 SWAP2 POP POP JUMP JUMPDEST PUSH1 0x0 JUMPDEST DUP4 DUP2 LT ISZERO PUSH2 0x527 JUMPI DUP1 DUP3 ADD MLOAD DUP2 DUP5 ADD MSTORE PUSH1 0x20 DUP2 ADD SWAP1 POP PUSH2 0x50C JUMP JUMPDEST PUSH1 0x0 DUP5 DUP5 ADD MSTORE POP POP POP POP JUMP JUMPDEST PUSH1 0x0 PUSH2 0x53E DUP3 PUSH2 0x4ED JUMP JUMPDEST PUSH2 0x548 DUP2 DUP6 PUSH2 0x4F8 JUMP JUMPDEST SWAP4 POP PUSH2 0x558 DUP2 DUP6 PUSH1 0x20 DUP7 ADD PUSH2 0x509 JUMP JUMPDEST PUSH2 0x561 DUP2 PUSH2 0x2F2 JUMP JUMPDEST DUP5 ADD SWAP2 POP POP SWAP3 SWAP2 POP POP JUMP JUMPDEST PUSH1 0x0 PUSH1 0x20 DUP3 ADD SWAP1 POP DUP2 DUP2 SUB PUSH1 0x0 DUP4 ADD MSTORE PUSH2 0x586 DUP2 DUP5 PUSH2 0x533 JUMP JUMPDEST SWAP1 POP SWAP3 SWAP2 POP POP JUMP JUMPDEST PUSH1 0x0 PUSH20 0xFFFFFFFFFFFFFFFFFFFFFFFFFFFFFFFFFFFFFFFF DUP3 AND SWAP1 POP SWAP2 SWAP1 POP JUMP JUMPDEST PUSH1 0x0 PUSH2 0x5B9 DUP3 PUSH2 0x58E JUMP JUMPDEST SWAP1 POP SWAP2 SWAP1 POP JUMP JUMPDEST PUSH2 0x5C9 DUP2 PUSH2 0x5AE JUMP JUMPDEST DUP2 EQ PUSH2 0x5D4 JUMPI PUSH1 0x0 DUP1 REVERT JUMPDEST POP JUMP JUMPDEST PUSH1 0x0 DUP2 CALLDATALOAD SWAP1 POP PUSH2 0x5E6 DUP2 PUSH2 0x5C0 JUMP JUMPDEST SWAP3 SWAP2 POP POP JUMP JUMPDEST PUSH1 0x0 PUSH1 0x20 DUP3 DUP5 SUB SLT ISZERO PUSH2 0x602 JUMPI PUSH2 0x601 PUSH2 0x2DE JUMP JUMPDEST JUMPDEST PUSH1 0x0 PUSH2 0x610 DUP5 DUP3 DUP6 ADD PUSH2 0x5D7 JUMP JUMPDEST SWAP2 POP POP SWAP3 SWAP2 POP POP JUMP JUMPDEST PUSH2 0x622 DUP2 PUSH2 0x42E JUMP JUMPDEST DUP3 MSTORE POP POP JUMP JUMPDEST PUSH1 0x0 PUSH1 0x40 DUP3 ADD SWAP1 POP DUP2 DUP2 SUB PUSH1 0x0 DUP4 ADD MSTORE PUSH2 0x642 DUP2 DUP6 PUSH2 0x533 JUMP JUMPDEST SWAP1 POP PUSH2 0x651 PUSH1 0x20 DUP4 ADD DUP5 PUSH2 0x619 JUMP JUMPDEST SWAP4 SWAP3 POP POP POP JUMP JUMPDEST PUSH32 0x4E487B7100000000000000000000000000000000000000000000000000000000 PUSH1 0x0 MSTORE PUSH1 0x22 PUSH1 0x4 MSTORE PUSH1 0x24 PUSH1 0x0 REVERT JUMPDEST PUSH1 0x0 PUSH1 0x2 DUP3 DIV SWAP1 POP PUSH1 0x1 DUP3 AND DUP1 PUSH2 0x69F JUMPI PUSH1 0x7F DUP3 AND SWAP2 POP JUMPDEST PUSH1 0x20 DUP3 LT DUP2 SUB PUSH2 0x6B2 JUMPI PUSH2 0x6B1 PUSH2 0x658 JUMP JUMPDEST JUMPDEST POP SWAP2 SWAP1 POP JUMP JUMPDEST PUSH1 0x0 DUP2 SWAP1 POP DUP2 PUSH1 0x0 MSTORE PUSH1 0x20 PUSH1 0x0 KECCAK256 SWAP1 POP SWAP2 SWAP1 POP JUMP JUMPDEST PUSH1 0x0 PUSH1 0x20 PUSH1 0x1F DUP4 ADD DIV SWAP1 POP SWAP2 SWAP1 POP JUMP JUMPDEST PUSH1 0x0 DUP3 DUP3 SHL SWAP1 POP SWAP3 SWAP2 POP POP JUMP JUMPDEST PUSH1 0x0 PUSH1 0x8 DUP4 MUL PUSH2 0x71A PUSH32 0xFFFFFFFFFFFFFFFFFFFFFFFFFFFFFFFFFFFFFFFFFFFFFFFFFFFFFFFFFFFFFFFF DUP3 PUSH2 0x6DD JUMP JUMPDEST PUSH2 0x724 DUP7 DUP4 PUSH2 0x6DD JUMP JUMPDEST SWAP6 POP DUP1 NOT DUP5 AND SWAP4 POP DUP1 DUP7 AND DUP5 OR SWAP3 POP POP POP SWAP4 SWAP3 POP POP POP JUMP JUMPDEST PUSH1 0x0 DUP2 SWAP1 POP SWAP2 SWAP1 POP JUMP JUMPDEST PUSH1 0x0 PUSH2 0x761 PUSH2 0x75C PUSH2 0x757 DUP5 PUSH2 0x42E JUMP JUMPDEST PUSH2 0x73C JUMP JUMPDEST PUSH2 0x42E JUMP JUMPDEST SWAP1 POP SWAP2 SWAP1 POP JUMP JUMPDEST PUSH1 0x0 DUP2 SWAP1 POP SWAP2 SWAP1 POP JUMP JUMPDEST PUSH2 0x77B DUP4 PUSH2 0x746 JUMP JUMPDEST PUSH2 0x78F PUSH2 0x787 DUP3 PUSH2 0x768 JUMP JUMPDEST DUP5 DUP5 SLOAD PUSH2 0x6EA JUMP JUMPDEST DUP3 SSTORE POP POP POP POP JUMP JUMPDEST PUSH1 0x0 SWAP1 JUMP JUMPDEST PUSH2 0x7A4 PUSH2 0x797 JUMP JUMPDEST PUSH2 0x7AF DUP2 DUP5 DUP5 PUSH2 0x772 JUMP JUMPDEST POP POP POP JUMP JUMPDEST JUMPDEST DUP2 DUP2 LT ISZERO PUSH2 0x7D3 JUMPI PUSH2 0x7C8 PUSH1 0x0 DUP3 PUSH2 0x79C JUMP JUMPDEST PUSH1 0x1 DUP2 ADD SWAP1 POP PUSH2 0x7B5 JUMP JUMPDEST POP POP JUMP JUMPDEST PUSH1 0x1F DUP3 GT ISZERO PUSH2 0x818 JUMPI PUSH2 0x7E9 DUP2 PUSH2 0x6B8 JUMP JUMPDEST PUSH2 0x7F2 DUP5 PUSH2 0x6CD JUMP JUMPDEST DUP2 ADD PUSH1 0x20 DUP6 LT ISZERO PUSH2 0x801 JUMPI DUP2 SWAP1 POP JUMPDEST PUSH2 0x815 PUSH2 0x80D DUP6 PUSH2 0x6CD JUMP JUMPDEST DUP4 ADD DUP3 PUSH2 0x7B4 JUMP JUMPDEST POP POP JUMPDEST POP POP POP JUMP JUMPDEST PUSH1 0x0 DUP3 DUP3 SHR SWAP1 POP SWAP3 SWAP2 POP POP JUMP JUMPDEST PUSH1 0x0 PUSH2 0x83B PUSH1 0x0 NOT DUP5 PUSH1 0x8 MUL PUSH2 0x81D JUMP JUMPDEST NOT DUP1 DUP4 AND SWAP2 POP POP SWAP3 SWAP2 POP POP JUMP JUMPDEST PUSH1 0x0 PUSH2 0x854 DUP4 DUP4 PUSH2 0x82A JUMP JUMPDEST SWAP2 POP DUP3 PUSH1 0x2 MUL DUP3 OR SWAP1 POP SWAP3 SWAP2 POP POP JUMP JUMPDEST PUSH2 0x86D DUP3 PUSH2 0x4ED JUMP JUMPDEST PUSH8 0xFFFFFFFFFFFFFFFF DUP2 GT ISZERO PUSH2 0x886 JUMPI PUSH2 0x885 PUSH2 0x303 JUMP JUMPDEST JUMPDEST PUSH2 0x890 DUP3 SLOAD PUSH2 0x687 JUMP JUMPDEST PUSH2 0x89B DUP3 DUP3 DUP6 PUSH2 0x7D7 JUMP JUMPDEST PUSH1 0x0 PUSH1 0x20 SWAP1 POP PUSH1 0x1F DUP4 GT PUSH1 0x1 DUP2 EQ PUSH2 0x8CE JUMPI PUSH1 0x0 DUP5 ISZERO PUSH2 0x8BC JUMPI DUP3 DUP8 ADD MLOAD SWAP1 POP JUMPDEST PUSH2 0x8C6 DUP6 DUP3 PUSH2 0x848 JUMP JUMPDEST DUP7 SSTORE POP PUSH2 0x92E JUMP JUMPDEST PUSH1 0x1F NOT DUP5 AND PUSH2 0x8DC DUP7 PUSH2 0x6B8 JUMP JUMPDEST PUSH1 0x0 JUMPDEST DUP3 DUP2 LT ISZERO PUSH2 0x904 JUMPI DUP5 DUP10 ADD MLOAD DUP3 SSTORE PUSH1 0x1 DUP3 ADD SWAP2 POP PUSH1 0x20 DUP6 ADD SWAP5 POP PUSH1 0x20 DUP2 ADD SWAP1 POP PUSH2 0x8DF JUMP JUMPDEST DUP7 DUP4 LT ISZERO PUSH2 0x921 JUMPI DUP5 DUP10 ADD MLOAD PUSH2 0x91D PUSH1 0x1F DUP10 AND DUP3 PUSH2 0x82A JUMP JUMPDEST DUP4 SSTORE POP JUMPDEST PUSH1 0x1 PUSH1 0x2 DUP9 MUL ADD DUP9 SSTORE POP POP POP JUMPDEST POP POP POP POP POP POP JUMP INVALID LOG2 PUSH5 0x6970667358 0x22 SLT KECCAK256 PUSH14 0xA83B60B4B73DA13744B791FC0158 0xA7 PUSH26 0xB0EFA73A78015791D7F770EEC6B42564736F6C63430008110033 "
				},
				"gasEstimates": {
					"creation": {
						"codeDepositCost": "482400",
						"executionCost": "518",
						"totalCost": "482918"
					},
					"external": {
						"addArray(string,uint256)": "infinite",
						"getArrayName(uint256)": "infinite",
						"humanArray(uint256)": "infinite",
						"humanMapping(address)": "infinite"
					}
				},
				"methodIdentifiers": {
					"addArray(string,uint256)": "0d3de88d",
					"getArrayName(uint256)": "a677c48f",
					"humanArray(uint256)": "b9d6dedb",
					"humanMapping(address)": "a857bf32"
				}
			},
			"storageLayout": {
				"storage": [
					{
						"astId": 10,
						"contract": "chapter2/Ex2_10.sol:Ex2_10",
						"label": "humanArray",
						"offset": 0,
						"slot": "0",
						"type": "t_array(t_struct(Human)6_storage)dyn_storage"
					},
					{
						"astId": 15,
						"contract": "chapter2/Ex2_10.sol:Ex2_10",
						"label": "humanMapping",
						"offset": 0,
						"slot": "1",
						"type": "t_mapping(t_address,t_struct(Human)6_storage)"
					}
				],
				"types": {
					"t_address": {
						"encoding": "inplace",
						"label": "address",
						"numberOfBytes": "20"
					},
					"t_array(t_struct(Human)6_storage)dyn_storage": {
						"base": "t_struct(Human)6_storage",
						"encoding": "dynamic_array",
						"label": "struct Ex2_10.Human[]",
						"numberOfBytes": "32"
					},
					"t_mapping(t_address,t_struct(Human)6_storage)": {
						"encoding": "mapping",
						"key": "t_address",
						"label": "mapping(address => struct Ex2_10.Human)",
						"numberOfBytes": "32",
						"value": "t_struct(Human)6_storage"
					},
					"t_string_storage": {
						"encoding": "bytes",
						"label": "string",
						"numberOfBytes": "32"
					},
					"t_struct(Human)6_storage": {
						"encoding": "inplace",
						"label": "struct Ex2_10.Human",
						"members": [
							{
								"astId": 3,
								"contract": "chapter2/Ex2_10.sol:Ex2_10",
								"label": "name",
								"offset": 0,
								"slot": "0",
								"type": "t_string_storage"
							},
							{
								"astId": 5,
								"contract": "chapter2/Ex2_10.sol:Ex2_10",
								"label": "age",
								"offset": 0,
								"slot": "1",
								"type": "t_uint256"
							}
						],
						"numberOfBytes": "64"
					},
					"t_uint256": {
						"encoding": "inplace",
						"label": "uint256",
						"numberOfBytes": "32"
					}
				}
			},
			"userdoc": {
				"kind": "user",
				"methods": {},
				"version": 1
			}
		}
	}
}