{
	"chapter2/Ex2_10.sol": {
		"Ex2_10": {
			"abi": [
				{
					"inputs": [],
					"name": "a",
					"outputs": [
						{
							"internalType": "uint256",
							"name": "",
							"type": "uint256"
						}
					],
					"stateMutability": "view",
					"type": "function"
				},
				{
					"inputs": [],
					"name": "b",
					"outputs": [
						{
							"internalType": "uint256",
							"name": "",
							"type": "uint256"
						}
					],
					"stateMutability": "view",
					"type": "function"
				},
				{
					"inputs": [],
					"name": "myFun",
					"outputs": [
						{
							"internalType": "uint256",
							"name": "",
							"type": "uint256"
						}
					],
					"stateMutability": "nonpayable",
					"type": "function"
				},
				{
					"inputs": [],
					"name": "myFun2",
					"outputs": [],
					"stateMutability": "nonpayable",
					"type": "function"
				}
			],
			"devdoc": {
				"kind": "dev",
				"methods": {},
				"version": 1
			},
			"evm": {
				"assembly": "    /* \"chapter2/Ex2_10.sol\":70:290  contract Ex2_10 {... */\n  mstore(0x40, 0x80)\n    /* \"chapter2/Ex2_10.sol\":109:110  3 */\n  0x03\n    /* \"chapter2/Ex2_10.sol\":93:110  uint public a = 3 */\n  0x00\n  sstore\n    /* \"chapter2/Ex2_10.sol\":132:139  myFun() */\n  tag_1\n    /* \"chapter2/Ex2_10.sol\":132:137  myFun */\n  shl(0x20, tag_2)\n    /* \"chapter2/Ex2_10.sol\":132:139  myFun() */\n  0x20\n  shr\n  jump\t// in\ntag_1:\n    /* \"chapter2/Ex2_10.sol\":116:139  uint public b = myFun() */\n  0x01\n  sstore\n    /* \"chapter2/Ex2_10.sol\":70:290  contract Ex2_10 {... */\n  callvalue\n  dup1\n  iszero\n  tag_3\n  jumpi\n  0x00\n  dup1\n  revert\ntag_3:\n  pop\n  jump(tag_4)\n    /* \"chapter2/Ex2_10.sol\":146:225  function myFun() public returns(uint){... */\ntag_2:\n    /* \"chapter2/Ex2_10.sol\":178:182  uint */\n  0x00\n    /* \"chapter2/Ex2_10.sol\":197:200  100 */\n  0x64\n    /* \"chapter2/Ex2_10.sol\":193:194  a */\n  0x00\n    /* \"chapter2/Ex2_10.sol\":193:200  a = 100 */\n  dup2\n  swap1\n  sstore\n  pop\n    /* \"chapter2/Ex2_10.sol\":217:218  a */\n  sload(0x00)\n    /* \"chapter2/Ex2_10.sol\":210:218  return a */\n  swap1\n  pop\n    /* \"chapter2/Ex2_10.sol\":146:225  function myFun() public returns(uint){... */\n  swap1\n  jump\t// out\n    /* \"chapter2/Ex2_10.sol\":70:290  contract Ex2_10 {... */\ntag_4:\n  dataSize(sub_0)\n  dup1\n  dataOffset(sub_0)\n  0x00\n  codecopy\n  0x00\n  return\nstop\n\nsub_0: assembly {\n        /* \"chapter2/Ex2_10.sol\":70:290  contract Ex2_10 {... */\n      mstore(0x40, 0x80)\n      callvalue\n      dup1\n      iszero\n      tag_1\n      jumpi\n      0x00\n      dup1\n      revert\n    tag_1:\n      pop\n      jumpi(tag_2, lt(calldatasize, 0x04))\n      shr(0xe0, calldataload(0x00))\n      dup1\n      0x0dbe671f\n      eq\n      tag_3\n      jumpi\n      dup1\n      0x4df7e3d0\n      eq\n      tag_4\n      jumpi\n      dup1\n      0x56e80271\n      eq\n      tag_5\n      jumpi\n      dup1\n      0x75bbb4e7\n      eq\n      tag_6\n      jumpi\n    tag_2:\n      0x00\n      dup1\n      revert\n        /* \"chapter2/Ex2_10.sol\":93:110  uint public a = 3 */\n    tag_3:\n      tag_7\n      tag_8\n      jump\t// in\n    tag_7:\n      mload(0x40)\n      tag_9\n      swap2\n      swap1\n      tag_10\n      jump\t// in\n    tag_9:\n      mload(0x40)\n      dup1\n      swap2\n      sub\n      swap1\n      return\n        /* \"chapter2/Ex2_10.sol\":116:139  uint public b = myFun() */\n    tag_4:\n      tag_11\n      tag_12\n      jump\t// in\n    tag_11:\n      mload(0x40)\n      tag_13\n      swap2\n      swap1\n      tag_10\n      jump\t// in\n    tag_13:\n      mload(0x40)\n      dup1\n      swap2\n      sub\n      swap1\n      return\n        /* \"chapter2/Ex2_10.sol\":231:288  function myFun2() public {... */\n    tag_5:\n      tag_14\n      tag_15\n      jump\t// in\n    tag_14:\n      stop\n        /* \"chapter2/Ex2_10.sol\":146:225  function myFun() public returns(uint){... */\n    tag_6:\n      tag_16\n      tag_17\n      jump\t// in\n    tag_16:\n      mload(0x40)\n      tag_18\n      swap2\n      swap1\n      tag_10\n      jump\t// in\n    tag_18:\n      mload(0x40)\n      dup1\n      swap2\n      sub\n      swap1\n      return\n        /* \"chapter2/Ex2_10.sol\":93:110  uint public a = 3 */\n    tag_8:\n      sload(0x00)\n      dup2\n      jump\t// out\n        /* \"chapter2/Ex2_10.sol\":116:139  uint public b = myFun() */\n    tag_12:\n      sload(0x01)\n      dup2\n      jump\t// out\n        /* \"chapter2/Ex2_10.sol\":231:288  function myFun2() public {... */\n    tag_15:\n        /* \"chapter2/Ex2_10.sol\":270:272  50 */\n      0x32\n        /* \"chapter2/Ex2_10.sol\":266:267  a */\n      0x00\n        /* \"chapter2/Ex2_10.sol\":266:272  a = 50 */\n      dup2\n      swap1\n      sstore\n      pop\n        /* \"chapter2/Ex2_10.sol\":231:288  function myFun2() public {... */\n      jump\t// out\n        /* \"chapter2/Ex2_10.sol\":146:225  function myFun() public returns(uint){... */\n    tag_17:\n        /* \"chapter2/Ex2_10.sol\":178:182  uint */\n      0x00\n        /* \"chapter2/Ex2_10.sol\":197:200  100 */\n      0x64\n        /* \"chapter2/Ex2_10.sol\":193:194  a */\n      0x00\n        /* \"chapter2/Ex2_10.sol\":193:200  a = 100 */\n      dup2\n      swap1\n      sstore\n      pop\n        /* \"chapter2/Ex2_10.sol\":217:218  a */\n      sload(0x00)\n        /* \"chapter2/Ex2_10.sol\":210:218  return a */\n      swap1\n      pop\n        /* \"chapter2/Ex2_10.sol\":146:225  function myFun() public returns(uint){... */\n      swap1\n      jump\t// out\n        /* \"#utility.yul\":7:125   */\n    tag_22:\n        /* \"#utility.yul\":94:118   */\n      tag_24\n        /* \"#utility.yul\":112:117   */\n      dup2\n        /* \"#utility.yul\":94:118   */\n      tag_25\n      jump\t// in\n    tag_24:\n        /* \"#utility.yul\":89:92   */\n      dup3\n        /* \"#utility.yul\":82:119   */\n      mstore\n        /* \"#utility.yul\":7:125   */\n      pop\n      pop\n      jump\t// out\n        /* \"#utility.yul\":131:353   */\n    tag_10:\n        /* \"#utility.yul\":224:228   */\n      0x00\n        /* \"#utility.yul\":262:264   */\n      0x20\n        /* \"#utility.yul\":251:260   */\n      dup3\n        /* \"#utility.yul\":247:265   */\n      add\n        /* \"#utility.yul\":239:265   */\n      swap1\n      pop\n        /* \"#utility.yul\":275:346   */\n      tag_27\n        /* \"#utility.yul\":343:344   */\n      0x00\n        /* \"#utility.yul\":332:341   */\n      dup4\n        /* \"#utility.yul\":328:345   */\n      add\n        /* \"#utility.yul\":319:325   */\n      dup5\n        /* \"#utility.yul\":275:346   */\n      tag_22\n      jump\t// in\n    tag_27:\n        /* \"#utility.yul\":131:353   */\n      swap3\n      swap2\n      pop\n      pop\n      jump\t// out\n        /* \"#utility.yul\":359:436   */\n    tag_25:\n        /* \"#utility.yul\":396:403   */\n      0x00\n        /* \"#utility.yul\":425:430   */\n      dup2\n        /* \"#utility.yul\":414:430   */\n      swap1\n      pop\n        /* \"#utility.yul\":359:436   */\n      swap2\n      swap1\n      pop\n      jump\t// out\n\n    auxdata: 0xa26469706673582212209b5794049e162f73536b6ea3c27e8752fd995fe397cb127bb3ec04c7aaff98f364736f6c63430008070033\n}\n",
				"bytecode": {
					"linkReferences": {},
					"object": "6080604052600360005561001761002c60201b60201c565b60015534801561002657600080fd5b5061003e565b60006064600081905550600054905090565b61012f8061004d6000396000f3fe6080604052348015600f57600080fd5b506004361060465760003560e01c80630dbe671f14604b5780634df7e3d014606557806356e8027114607f57806375bbb4e7146087575b600080fd5b605160a1565b604051605c919060d6565b60405180910390f35b606b60a7565b6040516076919060d6565b60405180910390f35b608560ad565b005b608d60b7565b6040516098919060d6565b60405180910390f35b60005481565b60015481565b6032600081905550565b60006064600081905550600054905090565b60d08160ef565b82525050565b600060208201905060e9600083018460c9565b92915050565b600081905091905056fea26469706673582212209b5794049e162f73536b6ea3c27e8752fd995fe397cb127bb3ec04c7aaff98f364736f6c63430008070033",
					"opcodes": "PUSH1 0x80 PUSH1 0x40 MSTORE PUSH1 0x3 PUSH1 0x0 SSTORE PUSH2 0x17 PUSH2 0x2C PUSH1 0x20 SHL PUSH1 0x20 SHR JUMP JUMPDEST PUSH1 0x1 SSTORE CALLVALUE DUP1 ISZERO PUSH2 0x26 JUMPI PUSH1 0x0 DUP1 REVERT JUMPDEST POP PUSH2 0x3E JUMP JUMPDEST PUSH1 0x0 PUSH1 0x64 PUSH1 0x0 DUP2 SWAP1 SSTORE POP PUSH1 0x0 SLOAD SWAP1 POP SWAP1 JUMP JUMPDEST PUSH2 0x12F DUP1 PUSH2 0x4D PUSH1 0x0 CODECOPY PUSH1 0x0 RETURN INVALID PUSH1 0x80 PUSH1 0x40 MSTORE CALLVALUE DUP1 ISZERO PUSH1 0xF JUMPI PUSH1 0x0 DUP1 REVERT JUMPDEST POP PUSH1 0x4 CALLDATASIZE LT PUSH1 0x46 JUMPI PUSH1 0x0 CALLDATALOAD PUSH1 0xE0 SHR DUP1 PUSH4 0xDBE671F EQ PUSH1 0x4B JUMPI DUP1 PUSH4 0x4DF7E3D0 EQ PUSH1 0x65 JUMPI DUP1 PUSH4 0x56E80271 EQ PUSH1 0x7F JUMPI DUP1 PUSH4 0x75BBB4E7 EQ PUSH1 0x87 JUMPI JUMPDEST PUSH1 0x0 DUP1 REVERT JUMPDEST PUSH1 0x51 PUSH1 0xA1 JUMP JUMPDEST PUSH1 0x40 MLOAD PUSH1 0x5C SWAP2 SWAP1 PUSH1 0xD6 JUMP JUMPDEST PUSH1 0x40 MLOAD DUP1 SWAP2 SUB SWAP1 RETURN JUMPDEST PUSH1 0x6B PUSH1 0xA7 JUMP JUMPDEST PUSH1 0x40 MLOAD PUSH1 0x76 SWAP2 SWAP1 PUSH1 0xD6 JUMP JUMPDEST PUSH1 0x40 MLOAD DUP1 SWAP2 SUB SWAP1 RETURN JUMPDEST PUSH1 0x85 PUSH1 0xAD JUMP JUMPDEST STOP JUMPDEST PUSH1 0x8D PUSH1 0xB7 JUMP JUMPDEST PUSH1 0x40 MLOAD PUSH1 0x98 SWAP2 SWAP1 PUSH1 0xD6 JUMP JUMPDEST PUSH1 0x40 MLOAD DUP1 SWAP2 SUB SWAP1 RETURN JUMPDEST PUSH1 0x0 SLOAD DUP2 JUMP JUMPDEST PUSH1 0x1 SLOAD DUP2 JUMP JUMPDEST PUSH1 0x32 PUSH1 0x0 DUP2 SWAP1 SSTORE POP JUMP JUMPDEST PUSH1 0x0 PUSH1 0x64 PUSH1 0x0 DUP2 SWAP1 SSTORE POP PUSH1 0x0 SLOAD SWAP1 POP SWAP1 JUMP JUMPDEST PUSH1 0xD0 DUP2 PUSH1 0xEF JUMP JUMPDEST DUP3 MSTORE POP POP JUMP JUMPDEST PUSH1 0x0 PUSH1 0x20 DUP3 ADD SWAP1 POP PUSH1 0xE9 PUSH1 0x0 DUP4 ADD DUP5 PUSH1 0xC9 JUMP JUMPDEST SWAP3 SWAP2 POP POP JUMP JUMPDEST PUSH1 0x0 DUP2 SWAP1 POP SWAP2 SWAP1 POP JUMP INVALID LOG2 PUSH5 0x6970667358 0x22 SLT KECCAK256 SWAP12 JUMPI SWAP5 DIV SWAP15 AND 0x2F PUSH20 0x536B6EA3C27E8752FD995FE397CB127BB3EC04C7 0xAA SELFDESTRUCT SWAP9 RETURN PUSH5 0x736F6C6343 STOP ADDMOD SMOD STOP CALLER "
				},
				"gasEstimates": {
					"creation": {
						"codeDepositCost": "60600",
						"executionCost": "infinite",
						"totalCost": "infinite"
					},
					"external": {
						"a()": "2407",
						"b()": "2429",
						"myFun()": "24595",
						"myFun2()": "22280"
					}
				},
				"methodIdentifiers": {
					"a()": "0dbe671f",
					"b()": "4df7e3d0",
					"myFun()": "75bbb4e7",
					"myFun2()": "56e80271"
				}
			},
			"storageLayout": {
				"storage": [
					{
						"astId": 4,
						"contract": "chapter2/Ex2_10.sol:Ex2_10",
						"label": "a",
						"offset": 0,
						"slot": "0",
						"type": "t_uint256"
					},
					{
						"astId": 8,
						"contract": "chapter2/Ex2_10.sol:Ex2_10",
						"label": "b",
						"offset": 0,
						"slot": "1",
						"type": "t_uint256"
					}
				],
				"types": {
					"t_uint256": {
						"encoding": "inplace",
						"label": "uint256",
						"numberOfBytes": "32"
					}
				}
			},
			"userdoc": {
				"kind": "user",
				"methods": {},
				"version": 1
			}
		}
	}
}