{
	"chapter2/Ex2_10.sol": {
		"Student": {
			"abi": [
				{
					"inputs": [],
					"name": "showCources",
					"outputs": [
						{
							"internalType": "string",
							"name": "",
							"type": "string"
						}
					],
					"stateMutability": "nonpayable",
					"type": "function"
				}
			],
			"devdoc": {
				"kind": "dev",
				"methods": {},
				"version": 1
			},
			"evm": {
				"assembly": "    /* \"chapter2/Ex2_10.sol\":70:284  contract Student {... */\n  mstore(0x40, 0x80)\n  callvalue\n  dup1\n  iszero\n  tag_1\n  jumpi\n  0x00\n  dup1\n  revert\ntag_1:\n  pop\n  dataSize(sub_0)\n  dup1\n  dataOffset(sub_0)\n  0x00\n  codecopy\n  0x00\n  return\nstop\n\nsub_0: assembly {\n        /* \"chapter2/Ex2_10.sol\":70:284  contract Student {... */\n      mstore(0x40, 0x80)\n      callvalue\n      dup1\n      iszero\n      tag_1\n      jumpi\n      0x00\n      dup1\n      revert\n    tag_1:\n      pop\n      jumpi(tag_2, lt(calldatasize, 0x04))\n      shr(0xe0, calldataload(0x00))\n      dup1\n      0x0a21cc48\n      eq\n      tag_3\n      jumpi\n    tag_2:\n      0x00\n      dup1\n      revert\n        /* \"chapter2/Ex2_10.sol\":125:281  function showCources() public virtual returns(string memory) {... */\n    tag_3:\n      tag_4\n      tag_5\n      jump\t// in\n    tag_4:\n      mload(0x40)\n      tag_6\n      swap2\n      swap1\n      tag_7\n      jump\t// in\n    tag_6:\n      mload(0x40)\n      dup1\n      swap2\n      sub\n      swap1\n      return\n    tag_5:\n        /* \"chapter2/Ex2_10.sol\":171:184  string memory */\n      0x60\n        /* \"chapter2/Ex2_10.sol\":203:210  cources */\n      0x00\n      dup1\n        /* \"chapter2/Ex2_10.sol\":196:210  delete cources */\n      tag_9\n      swap2\n      swap1\n      tag_10\n      jump\t// in\n    tag_9:\n        /* \"chapter2/Ex2_10.sol\":220:227  cources */\n      0x00\n        /* \"chapter2/Ex2_10.sol\":220:243  cources.push(\"English\") */\n      dup1\n      0x01\n      dup2\n      sload\n      add\n      dup1\n      dup3\n      sstore\n      dup1\n      swap2\n      pop\n      pop\n      0x01\n      swap1\n      sub\n      swap1\n      0x00\n      mstore\n      keccak256(0x00, 0x20)\n      add\n      0x00\n      mload(0x40)\n      dup1\n      0x40\n      add\n      0x40\n      mstore\n      dup1\n      0x07\n      dup2\n      mstore\n      0x20\n      add\n      0x456e676c69736800000000000000000000000000000000000000000000000000\n      dup2\n      mstore\n      pop\n      swap1\n      swap2\n      swap1\n      swap2\n      pop\n      swap1\n      dup2\n      tag_12\n      swap2\n      swap1\n      tag_13\n      jump\t// in\n    tag_12:\n      pop\n        /* \"chapter2/Ex2_10.sol\":253:260  cources */\n      0x00\n        /* \"chapter2/Ex2_10.sol\":253:274  cources.push(\"Music\") */\n      dup1\n      0x01\n      dup2\n      sload\n      add\n      dup1\n      dup3\n      sstore\n      dup1\n      swap2\n      pop\n      pop\n      0x01\n      swap1\n      sub\n      swap1\n      0x00\n      mstore\n      keccak256(0x00, 0x20)\n      add\n      0x00\n      mload(0x40)\n      dup1\n      0x40\n      add\n      0x40\n      mstore\n      dup1\n      0x05\n      dup2\n      mstore\n      0x20\n      add\n      0x4d75736963000000000000000000000000000000000000000000000000000000\n      dup2\n      mstore\n      pop\n      swap1\n      swap2\n      swap1\n      swap2\n      pop\n      swap1\n      dup2\n      tag_15\n      swap2\n      swap1\n      tag_13\n      jump\t// in\n    tag_15:\n      pop\n        /* \"chapter2/Ex2_10.sol\":125:281  function showCources() public virtual returns(string memory) {... */\n      swap1\n      jump\t// out\n    tag_10:\n      pop\n      dup1\n      sload\n      0x00\n      dup3\n      sstore\n      swap1\n      0x00\n      mstore\n      keccak256(0x00, 0x20)\n      swap1\n      dup2\n      add\n      swap1\n      tag_17\n      swap2\n      swap1\n      tag_18\n      jump\t// in\n    tag_17:\n      pop\n      jump\t// out\n    tag_18:\n    tag_19:\n      dup1\n      dup3\n      gt\n      iszero\n      tag_20\n      jumpi\n      0x00\n      dup2\n      dup2\n      tag_21\n      swap2\n      swap1\n      tag_22\n      jump\t// in\n    tag_21:\n      pop\n      0x01\n      add\n      jump(tag_19)\n    tag_20:\n      pop\n      swap1\n      jump\t// out\n    tag_22:\n      pop\n      dup1\n      sload\n      tag_23\n      swap1\n      tag_24\n      jump\t// in\n    tag_23:\n      0x00\n      dup3\n      sstore\n      dup1\n      0x1f\n      lt\n      tag_26\n      jumpi\n      pop\n      jump(tag_25)\n    tag_26:\n      0x1f\n      add\n      0x20\n      swap1\n      div\n      swap1\n      0x00\n      mstore\n      keccak256(0x00, 0x20)\n      swap1\n      dup2\n      add\n      swap1\n      tag_27\n      swap2\n      swap1\n      tag_28\n      jump\t// in\n    tag_27:\n    tag_25:\n      pop\n      jump\t// out\n    tag_28:\n    tag_29:\n      dup1\n      dup3\n      gt\n      iszero\n      tag_30\n      jumpi\n      0x00\n      dup2\n      0x00\n      swap1\n      sstore\n      pop\n      0x01\n      add\n      jump(tag_29)\n    tag_30:\n      pop\n      swap1\n      jump\t// out\n        /* \"#utility.yul\":7:106   */\n    tag_31:\n        /* \"#utility.yul\":59:65   */\n      0x00\n        /* \"#utility.yul\":93:98   */\n      dup2\n        /* \"#utility.yul\":87:99   */\n      mload\n        /* \"#utility.yul\":77:99   */\n      swap1\n      pop\n        /* \"#utility.yul\":7:106   */\n      swap2\n      swap1\n      pop\n      jump\t// out\n        /* \"#utility.yul\":112:281   */\n    tag_32:\n        /* \"#utility.yul\":196:207   */\n      0x00\n        /* \"#utility.yul\":230:236   */\n      dup3\n        /* \"#utility.yul\":225:228   */\n      dup3\n        /* \"#utility.yul\":218:237   */\n      mstore\n        /* \"#utility.yul\":270:274   */\n      0x20\n        /* \"#utility.yul\":265:268   */\n      dup3\n        /* \"#utility.yul\":261:275   */\n      add\n        /* \"#utility.yul\":246:275   */\n      swap1\n      pop\n        /* \"#utility.yul\":112:281   */\n      swap3\n      swap2\n      pop\n      pop\n      jump\t// out\n        /* \"#utility.yul\":287:533   */\n    tag_33:\n        /* \"#utility.yul\":368:369   */\n      0x00\n        /* \"#utility.yul\":378:491   */\n    tag_58:\n        /* \"#utility.yul\":392:398   */\n      dup4\n        /* \"#utility.yul\":389:390   */\n      dup2\n        /* \"#utility.yul\":386:399   */\n      lt\n        /* \"#utility.yul\":378:491   */\n      iszero\n      tag_60\n      jumpi\n        /* \"#utility.yul\":477:478   */\n      dup1\n        /* \"#utility.yul\":472:475   */\n      dup3\n        /* \"#utility.yul\":468:479   */\n      add\n        /* \"#utility.yul\":462:480   */\n      mload\n        /* \"#utility.yul\":458:459   */\n      dup2\n        /* \"#utility.yul\":453:456   */\n      dup5\n        /* \"#utility.yul\":449:460   */\n      add\n        /* \"#utility.yul\":442:481   */\n      mstore\n        /* \"#utility.yul\":414:416   */\n      0x20\n        /* \"#utility.yul\":411:412   */\n      dup2\n        /* \"#utility.yul\":407:417   */\n      add\n        /* \"#utility.yul\":402:417   */\n      swap1\n      pop\n        /* \"#utility.yul\":378:491   */\n      jump(tag_58)\n    tag_60:\n        /* \"#utility.yul\":525:526   */\n      0x00\n        /* \"#utility.yul\":516:522   */\n      dup5\n        /* \"#utility.yul\":511:514   */\n      dup5\n        /* \"#utility.yul\":507:523   */\n      add\n        /* \"#utility.yul\":500:527   */\n      mstore\n        /* \"#utility.yul\":349:533   */\n      pop\n        /* \"#utility.yul\":287:533   */\n      pop\n      pop\n      pop\n      jump\t// out\n        /* \"#utility.yul\":539:641   */\n    tag_34:\n        /* \"#utility.yul\":580:586   */\n      0x00\n        /* \"#utility.yul\":631:633   */\n      0x1f\n        /* \"#utility.yul\":627:634   */\n      not\n        /* \"#utility.yul\":622:624   */\n      0x1f\n        /* \"#utility.yul\":615:620   */\n      dup4\n        /* \"#utility.yul\":611:625   */\n      add\n        /* \"#utility.yul\":607:635   */\n      and\n        /* \"#utility.yul\":597:635   */\n      swap1\n      pop\n        /* \"#utility.yul\":539:641   */\n      swap2\n      swap1\n      pop\n      jump\t// out\n        /* \"#utility.yul\":647:1024   */\n    tag_35:\n        /* \"#utility.yul\":735:738   */\n      0x00\n        /* \"#utility.yul\":763:802   */\n      tag_63\n        /* \"#utility.yul\":796:801   */\n      dup3\n        /* \"#utility.yul\":763:802   */\n      tag_31\n      jump\t// in\n    tag_63:\n        /* \"#utility.yul\":818:889   */\n      tag_64\n        /* \"#utility.yul\":882:888   */\n      dup2\n        /* \"#utility.yul\":877:880   */\n      dup6\n        /* \"#utility.yul\":818:889   */\n      tag_32\n      jump\t// in\n    tag_64:\n        /* \"#utility.yul\":811:889   */\n      swap4\n      pop\n        /* \"#utility.yul\":898:963   */\n      tag_65\n        /* \"#utility.yul\":956:962   */\n      dup2\n        /* \"#utility.yul\":951:954   */\n      dup6\n        /* \"#utility.yul\":944:948   */\n      0x20\n        /* \"#utility.yul\":937:942   */\n      dup7\n        /* \"#utility.yul\":933:949   */\n      add\n        /* \"#utility.yul\":898:963   */\n      tag_33\n      jump\t// in\n    tag_65:\n        /* \"#utility.yul\":988:1017   */\n      tag_66\n        /* \"#utility.yul\":1010:1016   */\n      dup2\n        /* \"#utility.yul\":988:1017   */\n      tag_34\n      jump\t// in\n    tag_66:\n        /* \"#utility.yul\":983:986   */\n      dup5\n        /* \"#utility.yul\":979:1018   */\n      add\n        /* \"#utility.yul\":972:1018   */\n      swap2\n      pop\n        /* \"#utility.yul\":739:1024   */\n      pop\n        /* \"#utility.yul\":647:1024   */\n      swap3\n      swap2\n      pop\n      pop\n      jump\t// out\n        /* \"#utility.yul\":1030:1343   */\n    tag_7:\n        /* \"#utility.yul\":1143:1147   */\n      0x00\n        /* \"#utility.yul\":1181:1183   */\n      0x20\n        /* \"#utility.yul\":1170:1179   */\n      dup3\n        /* \"#utility.yul\":1166:1184   */\n      add\n        /* \"#utility.yul\":1158:1184   */\n      swap1\n      pop\n        /* \"#utility.yul\":1230:1239   */\n      dup2\n        /* \"#utility.yul\":1224:1228   */\n      dup2\n        /* \"#utility.yul\":1220:1240   */\n      sub\n        /* \"#utility.yul\":1216:1217   */\n      0x00\n        /* \"#utility.yul\":1205:1214   */\n      dup4\n        /* \"#utility.yul\":1201:1218   */\n      add\n        /* \"#utility.yul\":1194:1241   */\n      mstore\n        /* \"#utility.yul\":1258:1336   */\n      tag_68\n        /* \"#utility.yul\":1331:1335   */\n      dup2\n        /* \"#utility.yul\":1322:1328   */\n      dup5\n        /* \"#utility.yul\":1258:1336   */\n      tag_35\n      jump\t// in\n    tag_68:\n        /* \"#utility.yul\":1250:1336   */\n      swap1\n      pop\n        /* \"#utility.yul\":1030:1343   */\n      swap3\n      swap2\n      pop\n      pop\n      jump\t// out\n        /* \"#utility.yul\":1349:1529   */\n    tag_36:\n        /* \"#utility.yul\":1397:1474   */\n      0x4e487b7100000000000000000000000000000000000000000000000000000000\n        /* \"#utility.yul\":1394:1395   */\n      0x00\n        /* \"#utility.yul\":1387:1475   */\n      mstore\n        /* \"#utility.yul\":1494:1498   */\n      0x41\n        /* \"#utility.yul\":1491:1492   */\n      0x04\n        /* \"#utility.yul\":1484:1499   */\n      mstore\n        /* \"#utility.yul\":1518:1522   */\n      0x24\n        /* \"#utility.yul\":1515:1516   */\n      0x00\n        /* \"#utility.yul\":1508:1523   */\n      revert\n        /* \"#utility.yul\":1535:1715   */\n    tag_37:\n        /* \"#utility.yul\":1583:1660   */\n      0x4e487b7100000000000000000000000000000000000000000000000000000000\n        /* \"#utility.yul\":1580:1581   */\n      0x00\n        /* \"#utility.yul\":1573:1661   */\n      mstore\n        /* \"#utility.yul\":1680:1684   */\n      0x22\n        /* \"#utility.yul\":1677:1678   */\n      0x04\n        /* \"#utility.yul\":1670:1685   */\n      mstore\n        /* \"#utility.yul\":1704:1708   */\n      0x24\n        /* \"#utility.yul\":1701:1702   */\n      0x00\n        /* \"#utility.yul\":1694:1709   */\n      revert\n        /* \"#utility.yul\":1721:2041   */\n    tag_24:\n        /* \"#utility.yul\":1765:1771   */\n      0x00\n        /* \"#utility.yul\":1802:1803   */\n      0x02\n        /* \"#utility.yul\":1796:1800   */\n      dup3\n        /* \"#utility.yul\":1792:1804   */\n      div\n        /* \"#utility.yul\":1782:1804   */\n      swap1\n      pop\n        /* \"#utility.yul\":1849:1850   */\n      0x01\n        /* \"#utility.yul\":1843:1847   */\n      dup3\n        /* \"#utility.yul\":1839:1851   */\n      and\n        /* \"#utility.yul\":1870:1888   */\n      dup1\n        /* \"#utility.yul\":1860:1941   */\n      tag_72\n      jumpi\n        /* \"#utility.yul\":1926:1930   */\n      0x7f\n        /* \"#utility.yul\":1918:1924   */\n      dup3\n        /* \"#utility.yul\":1914:1931   */\n      and\n        /* \"#utility.yul\":1904:1931   */\n      swap2\n      pop\n        /* \"#utility.yul\":1860:1941   */\n    tag_72:\n        /* \"#utility.yul\":1988:1990   */\n      0x20\n        /* \"#utility.yul\":1980:1986   */\n      dup3\n        /* \"#utility.yul\":1977:1991   */\n      lt\n        /* \"#utility.yul\":1957:1975   */\n      dup2\n        /* \"#utility.yul\":1954:1992   */\n      sub\n        /* \"#utility.yul\":1951:2035   */\n      tag_73\n      jumpi\n        /* \"#utility.yul\":2007:2025   */\n      tag_74\n      tag_37\n      jump\t// in\n    tag_74:\n        /* \"#utility.yul\":1951:2035   */\n    tag_73:\n        /* \"#utility.yul\":1772:2041   */\n      pop\n        /* \"#utility.yul\":1721:2041   */\n      swap2\n      swap1\n      pop\n      jump\t// out\n        /* \"#utility.yul\":2047:2188   */\n    tag_38:\n        /* \"#utility.yul\":2096:2100   */\n      0x00\n        /* \"#utility.yul\":2119:2122   */\n      dup2\n        /* \"#utility.yul\":2111:2122   */\n      swap1\n      pop\n        /* \"#utility.yul\":2142:2145   */\n      dup2\n        /* \"#utility.yul\":2139:2140   */\n      0x00\n        /* \"#utility.yul\":2132:2146   */\n      mstore\n        /* \"#utility.yul\":2176:2180   */\n      0x20\n        /* \"#utility.yul\":2173:2174   */\n      0x00\n        /* \"#utility.yul\":2163:2181   */\n      keccak256\n        /* \"#utility.yul\":2155:2181   */\n      swap1\n      pop\n        /* \"#utility.yul\":2047:2188   */\n      swap2\n      swap1\n      pop\n      jump\t// out\n        /* \"#utility.yul\":2194:2287   */\n    tag_39:\n        /* \"#utility.yul\":2231:2237   */\n      0x00\n        /* \"#utility.yul\":2278:2280   */\n      0x20\n        /* \"#utility.yul\":2273:2275   */\n      0x1f\n        /* \"#utility.yul\":2266:2271   */\n      dup4\n        /* \"#utility.yul\":2262:2276   */\n      add\n        /* \"#utility.yul\":2258:2281   */\n      div\n        /* \"#utility.yul\":2248:2281   */\n      swap1\n      pop\n        /* \"#utility.yul\":2194:2287   */\n      swap2\n      swap1\n      pop\n      jump\t// out\n        /* \"#utility.yul\":2293:2400   */\n    tag_40:\n        /* \"#utility.yul\":2337:2345   */\n      0x00\n        /* \"#utility.yul\":2387:2392   */\n      dup3\n        /* \"#utility.yul\":2381:2385   */\n      dup3\n        /* \"#utility.yul\":2377:2393   */\n      shl\n        /* \"#utility.yul\":2356:2393   */\n      swap1\n      pop\n        /* \"#utility.yul\":2293:2400   */\n      swap3\n      swap2\n      pop\n      pop\n      jump\t// out\n        /* \"#utility.yul\":2406:2799   */\n    tag_41:\n        /* \"#utility.yul\":2475:2481   */\n      0x00\n        /* \"#utility.yul\":2525:2526   */\n      0x08\n        /* \"#utility.yul\":2513:2523   */\n      dup4\n        /* \"#utility.yul\":2509:2527   */\n      mul\n        /* \"#utility.yul\":2548:2645   */\n      tag_79\n        /* \"#utility.yul\":2578:2644   */\n      0xffffffffffffffffffffffffffffffffffffffffffffffffffffffffffffffff\n        /* \"#utility.yul\":2567:2576   */\n      dup3\n        /* \"#utility.yul\":2548:2645   */\n      tag_40\n      jump\t// in\n    tag_79:\n        /* \"#utility.yul\":2666:2705   */\n      tag_80\n        /* \"#utility.yul\":2696:2704   */\n      dup7\n        /* \"#utility.yul\":2685:2694   */\n      dup4\n        /* \"#utility.yul\":2666:2705   */\n      tag_40\n      jump\t// in\n    tag_80:\n        /* \"#utility.yul\":2654:2705   */\n      swap6\n      pop\n        /* \"#utility.yul\":2738:2742   */\n      dup1\n        /* \"#utility.yul\":2734:2743   */\n      not\n        /* \"#utility.yul\":2727:2732   */\n      dup5\n        /* \"#utility.yul\":2723:2744   */\n      and\n        /* \"#utility.yul\":2714:2744   */\n      swap4\n      pop\n        /* \"#utility.yul\":2787:2791   */\n      dup1\n        /* \"#utility.yul\":2777:2785   */\n      dup7\n        /* \"#utility.yul\":2773:2792   */\n      and\n        /* \"#utility.yul\":2766:2771   */\n      dup5\n        /* \"#utility.yul\":2763:2793   */\n      or\n        /* \"#utility.yul\":2753:2793   */\n      swap3\n      pop\n        /* \"#utility.yul\":2482:2799   */\n      pop\n      pop\n        /* \"#utility.yul\":2406:2799   */\n      swap4\n      swap3\n      pop\n      pop\n      pop\n      jump\t// out\n        /* \"#utility.yul\":2805:2882   */\n    tag_42:\n        /* \"#utility.yul\":2842:2849   */\n      0x00\n        /* \"#utility.yul\":2871:2876   */\n      dup2\n        /* \"#utility.yul\":2860:2876   */\n      swap1\n      pop\n        /* \"#utility.yul\":2805:2882   */\n      swap2\n      swap1\n      pop\n      jump\t// out\n        /* \"#utility.yul\":2888:2948   */\n    tag_43:\n        /* \"#utility.yul\":2916:2919   */\n      0x00\n        /* \"#utility.yul\":2937:2942   */\n      dup2\n        /* \"#utility.yul\":2930:2942   */\n      swap1\n      pop\n        /* \"#utility.yul\":2888:2948   */\n      swap2\n      swap1\n      pop\n      jump\t// out\n        /* \"#utility.yul\":2954:3096   */\n    tag_44:\n        /* \"#utility.yul\":3004:3013   */\n      0x00\n        /* \"#utility.yul\":3037:3090   */\n      tag_84\n        /* \"#utility.yul\":3055:3089   */\n      tag_85\n        /* \"#utility.yul\":3064:3088   */\n      tag_86\n        /* \"#utility.yul\":3082:3087   */\n      dup5\n        /* \"#utility.yul\":3064:3088   */\n      tag_42\n      jump\t// in\n    tag_86:\n        /* \"#utility.yul\":3055:3089   */\n      tag_43\n      jump\t// in\n    tag_85:\n        /* \"#utility.yul\":3037:3090   */\n      tag_42\n      jump\t// in\n    tag_84:\n        /* \"#utility.yul\":3024:3090   */\n      swap1\n      pop\n        /* \"#utility.yul\":2954:3096   */\n      swap2\n      swap1\n      pop\n      jump\t// out\n        /* \"#utility.yul\":3102:3177   */\n    tag_45:\n        /* \"#utility.yul\":3145:3148   */\n      0x00\n        /* \"#utility.yul\":3166:3171   */\n      dup2\n        /* \"#utility.yul\":3159:3171   */\n      swap1\n      pop\n        /* \"#utility.yul\":3102:3177   */\n      swap2\n      swap1\n      pop\n      jump\t// out\n        /* \"#utility.yul\":3183:3452   */\n    tag_46:\n        /* \"#utility.yul\":3293:3332   */\n      tag_89\n        /* \"#utility.yul\":3324:3331   */\n      dup4\n        /* \"#utility.yul\":3293:3332   */\n      tag_44\n      jump\t// in\n    tag_89:\n        /* \"#utility.yul\":3354:3445   */\n      tag_90\n        /* \"#utility.yul\":3403:3444   */\n      tag_91\n        /* \"#utility.yul\":3427:3443   */\n      dup3\n        /* \"#utility.yul\":3403:3444   */\n      tag_45\n      jump\t// in\n    tag_91:\n        /* \"#utility.yul\":3395:3401   */\n      dup5\n        /* \"#utility.yul\":3388:3392   */\n      dup5\n        /* \"#utility.yul\":3382:3393   */\n      sload\n        /* \"#utility.yul\":3354:3445   */\n      tag_41\n      jump\t// in\n    tag_90:\n        /* \"#utility.yul\":3348:3352   */\n      dup3\n        /* \"#utility.yul\":3341:3446   */\n      sstore\n        /* \"#utility.yul\":3259:3452   */\n      pop\n        /* \"#utility.yul\":3183:3452   */\n      pop\n      pop\n      pop\n      jump\t// out\n        /* \"#utility.yul\":3458:3531   */\n    tag_47:\n        /* \"#utility.yul\":3503:3506   */\n      0x00\n        /* \"#utility.yul\":3458:3531   */\n      swap1\n      jump\t// out\n        /* \"#utility.yul\":3537:3726   */\n    tag_48:\n        /* \"#utility.yul\":3614:3646   */\n      tag_94\n      tag_47\n      jump\t// in\n    tag_94:\n        /* \"#utility.yul\":3655:3720   */\n      tag_95\n        /* \"#utility.yul\":3713:3719   */\n      dup2\n        /* \"#utility.yul\":3705:3711   */\n      dup5\n        /* \"#utility.yul\":3699:3703   */\n      dup5\n        /* \"#utility.yul\":3655:3720   */\n      tag_46\n      jump\t// in\n    tag_95:\n        /* \"#utility.yul\":3590:3726   */\n      pop\n        /* \"#utility.yul\":3537:3726   */\n      pop\n      pop\n      jump\t// out\n        /* \"#utility.yul\":3732:3918   */\n    tag_49:\n        /* \"#utility.yul\":3792:3912   */\n    tag_97:\n        /* \"#utility.yul\":3809:3812   */\n      dup2\n        /* \"#utility.yul\":3802:3807   */\n      dup2\n        /* \"#utility.yul\":3799:3813   */\n      lt\n        /* \"#utility.yul\":3792:3912   */\n      iszero\n      tag_99\n      jumpi\n        /* \"#utility.yul\":3863:3902   */\n      tag_100\n        /* \"#utility.yul\":3900:3901   */\n      0x00\n        /* \"#utility.yul\":3893:3898   */\n      dup3\n        /* \"#utility.yul\":3863:3902   */\n      tag_48\n      jump\t// in\n    tag_100:\n        /* \"#utility.yul\":3836:3837   */\n      0x01\n        /* \"#utility.yul\":3829:3834   */\n      dup2\n        /* \"#utility.yul\":3825:3838   */\n      add\n        /* \"#utility.yul\":3816:3838   */\n      swap1\n      pop\n        /* \"#utility.yul\":3792:3912   */\n      jump(tag_97)\n    tag_99:\n        /* \"#utility.yul\":3732:3918   */\n      pop\n      pop\n      jump\t// out\n        /* \"#utility.yul\":3924:4467   */\n    tag_50:\n        /* \"#utility.yul\":4025:4027   */\n      0x1f\n        /* \"#utility.yul\":4020:4023   */\n      dup3\n        /* \"#utility.yul\":4017:4028   */\n      gt\n        /* \"#utility.yul\":4014:4460   */\n      iszero\n      tag_102\n      jumpi\n        /* \"#utility.yul\":4059:4097   */\n      tag_103\n        /* \"#utility.yul\":4091:4096   */\n      dup2\n        /* \"#utility.yul\":4059:4097   */\n      tag_38\n      jump\t// in\n    tag_103:\n        /* \"#utility.yul\":4143:4172   */\n      tag_104\n        /* \"#utility.yul\":4161:4171   */\n      dup5\n        /* \"#utility.yul\":4143:4172   */\n      tag_39\n      jump\t// in\n    tag_104:\n        /* \"#utility.yul\":4133:4141   */\n      dup2\n        /* \"#utility.yul\":4129:4173   */\n      add\n        /* \"#utility.yul\":4326:4328   */\n      0x20\n        /* \"#utility.yul\":4314:4324   */\n      dup6\n        /* \"#utility.yul\":4311:4329   */\n      lt\n        /* \"#utility.yul\":4308:4357   */\n      iszero\n      tag_105\n      jumpi\n        /* \"#utility.yul\":4347:4355   */\n      dup2\n        /* \"#utility.yul\":4332:4355   */\n      swap1\n      pop\n        /* \"#utility.yul\":4308:4357   */\n    tag_105:\n        /* \"#utility.yul\":4370:4450   */\n      tag_106\n        /* \"#utility.yul\":4426:4448   */\n      tag_107\n        /* \"#utility.yul\":4444:4447   */\n      dup6\n        /* \"#utility.yul\":4426:4448   */\n      tag_39\n      jump\t// in\n    tag_107:\n        /* \"#utility.yul\":4416:4424   */\n      dup4\n        /* \"#utility.yul\":4412:4449   */\n      add\n        /* \"#utility.yul\":4399:4410   */\n      dup3\n        /* \"#utility.yul\":4370:4450   */\n      tag_49\n      jump\t// in\n    tag_106:\n        /* \"#utility.yul\":4029:4460   */\n      pop\n      pop\n        /* \"#utility.yul\":4014:4460   */\n    tag_102:\n        /* \"#utility.yul\":3924:4467   */\n      pop\n      pop\n      pop\n      jump\t// out\n        /* \"#utility.yul\":4473:4590   */\n    tag_51:\n        /* \"#utility.yul\":4527:4535   */\n      0x00\n        /* \"#utility.yul\":4577:4582   */\n      dup3\n        /* \"#utility.yul\":4571:4575   */\n      dup3\n        /* \"#utility.yul\":4567:4583   */\n      shr\n        /* \"#utility.yul\":4546:4583   */\n      swap1\n      pop\n        /* \"#utility.yul\":4473:4590   */\n      swap3\n      swap2\n      pop\n      pop\n      jump\t// out\n        /* \"#utility.yul\":4596:4765   */\n    tag_52:\n        /* \"#utility.yul\":4640:4646   */\n      0x00\n        /* \"#utility.yul\":4673:4724   */\n      tag_110\n        /* \"#utility.yul\":4721:4722   */\n      0x00\n        /* \"#utility.yul\":4717:4723   */\n      not\n        /* \"#utility.yul\":4709:4714   */\n      dup5\n        /* \"#utility.yul\":4706:4707   */\n      0x08\n        /* \"#utility.yul\":4702:4715   */\n      mul\n        /* \"#utility.yul\":4673:4724   */\n      tag_51\n      jump\t// in\n    tag_110:\n        /* \"#utility.yul\":4669:4725   */\n      not\n        /* \"#utility.yul\":4754:4758   */\n      dup1\n        /* \"#utility.yul\":4748:4752   */\n      dup4\n        /* \"#utility.yul\":4744:4759   */\n      and\n        /* \"#utility.yul\":4734:4759   */\n      swap2\n      pop\n        /* \"#utility.yul\":4647:4765   */\n      pop\n        /* \"#utility.yul\":4596:4765   */\n      swap3\n      swap2\n      pop\n      pop\n      jump\t// out\n        /* \"#utility.yul\":4770:5065   */\n    tag_53:\n        /* \"#utility.yul\":4846:4850   */\n      0x00\n        /* \"#utility.yul\":4992:5021   */\n      tag_112\n        /* \"#utility.yul\":5017:5020   */\n      dup4\n        /* \"#utility.yul\":5011:5015   */\n      dup4\n        /* \"#utility.yul\":4992:5021   */\n      tag_52\n      jump\t// in\n    tag_112:\n        /* \"#utility.yul\":4984:5021   */\n      swap2\n      pop\n        /* \"#utility.yul\":5054:5057   */\n      dup3\n        /* \"#utility.yul\":5051:5052   */\n      0x02\n        /* \"#utility.yul\":5047:5058   */\n      mul\n        /* \"#utility.yul\":5041:5045   */\n      dup3\n        /* \"#utility.yul\":5038:5059   */\n      or\n        /* \"#utility.yul\":5030:5059   */\n      swap1\n      pop\n        /* \"#utility.yul\":4770:5065   */\n      swap3\n      swap2\n      pop\n      pop\n      jump\t// out\n        /* \"#utility.yul\":5070:6465   */\n    tag_13:\n        /* \"#utility.yul\":5187:5224   */\n      tag_114\n        /* \"#utility.yul\":5220:5223   */\n      dup3\n        /* \"#utility.yul\":5187:5224   */\n      tag_31\n      jump\t// in\n    tag_114:\n        /* \"#utility.yul\":5289:5307   */\n      0xffffffffffffffff\n        /* \"#utility.yul\":5281:5287   */\n      dup2\n        /* \"#utility.yul\":5278:5308   */\n      gt\n        /* \"#utility.yul\":5275:5331   */\n      iszero\n      tag_115\n      jumpi\n        /* \"#utility.yul\":5311:5329   */\n      tag_116\n      tag_36\n      jump\t// in\n    tag_116:\n        /* \"#utility.yul\":5275:5331   */\n    tag_115:\n        /* \"#utility.yul\":5355:5393   */\n      tag_117\n        /* \"#utility.yul\":5387:5391   */\n      dup3\n        /* \"#utility.yul\":5381:5392   */\n      sload\n        /* \"#utility.yul\":5355:5393   */\n      tag_24\n      jump\t// in\n    tag_117:\n        /* \"#utility.yul\":5440:5507   */\n      tag_118\n        /* \"#utility.yul\":5500:5506   */\n      dup3\n        /* \"#utility.yul\":5492:5498   */\n      dup3\n        /* \"#utility.yul\":5486:5490   */\n      dup6\n        /* \"#utility.yul\":5440:5507   */\n      tag_50\n      jump\t// in\n    tag_118:\n        /* \"#utility.yul\":5534:5535   */\n      0x00\n        /* \"#utility.yul\":5558:5562   */\n      0x20\n        /* \"#utility.yul\":5545:5562   */\n      swap1\n      pop\n        /* \"#utility.yul\":5590:5592   */\n      0x1f\n        /* \"#utility.yul\":5582:5588   */\n      dup4\n        /* \"#utility.yul\":5579:5593   */\n      gt\n        /* \"#utility.yul\":5607:5608   */\n      0x01\n        /* \"#utility.yul\":5602:6220   */\n      dup2\n      eq\n      tag_120\n      jumpi\n        /* \"#utility.yul\":6264:6265   */\n      0x00\n        /* \"#utility.yul\":6281:6287   */\n      dup5\n        /* \"#utility.yul\":6278:6355   */\n      iszero\n      tag_121\n      jumpi\n        /* \"#utility.yul\":6330:6339   */\n      dup3\n        /* \"#utility.yul\":6325:6328   */\n      dup8\n        /* \"#utility.yul\":6321:6340   */\n      add\n        /* \"#utility.yul\":6315:6341   */\n      mload\n        /* \"#utility.yul\":6306:6341   */\n      swap1\n      pop\n        /* \"#utility.yul\":6278:6355   */\n    tag_121:\n        /* \"#utility.yul\":6381:6448   */\n      tag_122\n        /* \"#utility.yul\":6441:6447   */\n      dup6\n        /* \"#utility.yul\":6434:6439   */\n      dup3\n        /* \"#utility.yul\":6381:6448   */\n      tag_53\n      jump\t// in\n    tag_122:\n        /* \"#utility.yul\":6375:6379   */\n      dup7\n        /* \"#utility.yul\":6368:6449   */\n      sstore\n        /* \"#utility.yul\":6237:6459   */\n      pop\n        /* \"#utility.yul\":5572:6459   */\n      jump(tag_119)\n        /* \"#utility.yul\":5602:6220   */\n    tag_120:\n        /* \"#utility.yul\":5654:5658   */\n      0x1f\n        /* \"#utility.yul\":5650:5659   */\n      not\n        /* \"#utility.yul\":5642:5648   */\n      dup5\n        /* \"#utility.yul\":5638:5660   */\n      and\n        /* \"#utility.yul\":5688:5725   */\n      tag_123\n        /* \"#utility.yul\":5720:5724   */\n      dup7\n        /* \"#utility.yul\":5688:5725   */\n      tag_38\n      jump\t// in\n    tag_123:\n        /* \"#utility.yul\":5747:5748   */\n      0x00\n        /* \"#utility.yul\":5761:5969   */\n    tag_124:\n        /* \"#utility.yul\":5775:5782   */\n      dup3\n        /* \"#utility.yul\":5772:5773   */\n      dup2\n        /* \"#utility.yul\":5769:5783   */\n      lt\n        /* \"#utility.yul\":5761:5969   */\n      iszero\n      tag_126\n      jumpi\n        /* \"#utility.yul\":5854:5863   */\n      dup5\n        /* \"#utility.yul\":5849:5852   */\n      dup10\n        /* \"#utility.yul\":5845:5864   */\n      add\n        /* \"#utility.yul\":5839:5865   */\n      mload\n        /* \"#utility.yul\":5831:5837   */\n      dup3\n        /* \"#utility.yul\":5824:5866   */\n      sstore\n        /* \"#utility.yul\":5905:5906   */\n      0x01\n        /* \"#utility.yul\":5897:5903   */\n      dup3\n        /* \"#utility.yul\":5893:5907   */\n      add\n        /* \"#utility.yul\":5883:5907   */\n      swap2\n      pop\n        /* \"#utility.yul\":5952:5954   */\n      0x20\n        /* \"#utility.yul\":5941:5950   */\n      dup6\n        /* \"#utility.yul\":5937:5955   */\n      add\n        /* \"#utility.yul\":5924:5955   */\n      swap5\n      pop\n        /* \"#utility.yul\":5798:5802   */\n      0x20\n        /* \"#utility.yul\":5795:5796   */\n      dup2\n        /* \"#utility.yul\":5791:5803   */\n      add\n        /* \"#utility.yul\":5786:5803   */\n      swap1\n      pop\n        /* \"#utility.yul\":5761:5969   */\n      jump(tag_124)\n    tag_126:\n        /* \"#utility.yul\":5997:6003   */\n      dup7\n        /* \"#utility.yul\":5988:5995   */\n      dup4\n        /* \"#utility.yul\":5985:6004   */\n      lt\n        /* \"#utility.yul\":5982:6161   */\n      iszero\n      tag_127\n      jumpi\n        /* \"#utility.yul\":6055:6064   */\n      dup5\n        /* \"#utility.yul\":6050:6053   */\n      dup10\n        /* \"#utility.yul\":6046:6065   */\n      add\n        /* \"#utility.yul\":6040:6066   */\n      mload\n        /* \"#utility.yul\":6098:6146   */\n      tag_128\n        /* \"#utility.yul\":6140:6144   */\n      0x1f\n        /* \"#utility.yul\":6132:6138   */\n      dup10\n        /* \"#utility.yul\":6128:6145   */\n      and\n        /* \"#utility.yul\":6117:6126   */\n      dup3\n        /* \"#utility.yul\":6098:6146   */\n      tag_52\n      jump\t// in\n    tag_128:\n        /* \"#utility.yul\":6090:6096   */\n      dup4\n        /* \"#utility.yul\":6083:6147   */\n      sstore\n        /* \"#utility.yul\":6005:6161   */\n      pop\n        /* \"#utility.yul\":5982:6161   */\n    tag_127:\n        /* \"#utility.yul\":6207:6208   */\n      0x01\n        /* \"#utility.yul\":6203:6204   */\n      0x02\n        /* \"#utility.yul\":6195:6201   */\n      dup9\n        /* \"#utility.yul\":6191:6205   */\n      mul\n        /* \"#utility.yul\":6187:6209   */\n      add\n        /* \"#utility.yul\":6181:6185   */\n      dup9\n        /* \"#utility.yul\":6174:6210   */\n      sstore\n        /* \"#utility.yul\":5609:6220   */\n      pop\n      pop\n      pop\n        /* \"#utility.yul\":5572:6459   */\n    tag_119:\n      pop\n        /* \"#utility.yul\":5162:6465   */\n      pop\n      pop\n      pop\n        /* \"#utility.yul\":5070:6465   */\n      pop\n      pop\n      jump\t// out\n\n    auxdata: 0xa2646970667358221220df52e9bcd0674abe9c1e59d02430f75d61f4da522189cb55bdcf8995f9db7dbd64736f6c63430008110033\n}\n",
				"bytecode": {
					"linkReferences": {},
					"object": "608060405234801561001057600080fd5b506105cf806100206000396000f3fe608060405234801561001057600080fd5b506004361061002b5760003560e01c80630a21cc4814610030575b600080fd5b61003861004e565b6040516100459190610260565b60405180910390f35b606060008061005d919061012e565b600080600181540180825580915050600190039060005260206000200160006040518060400160405280600781526020017f456e676c69736800000000000000000000000000000000000000000000000000815250909190915090816100c391906104c7565b50600080600181540180825580915050600190039060005260206000200160006040518060400160405280600581526020017f4d757369630000000000000000000000000000000000000000000000000000008152509091909150908161012a91906104c7565b5090565b508054600082559060005260206000209081019061014c919061014f565b50565b5b8082111561016f57600081816101669190610173565b50600101610150565b5090565b50805461017f906102e0565b6000825580601f1061019157506101b0565b601f0160209004906000526020600020908101906101af91906101b3565b5b50565b5b808211156101cc5760008160009055506001016101b4565b5090565b600081519050919050565b600082825260208201905092915050565b60005b8381101561020a5780820151818401526020810190506101ef565b60008484015250505050565b6000601f19601f8301169050919050565b6000610232826101d0565b61023c81856101db565b935061024c8185602086016101ec565b61025581610216565b840191505092915050565b6000602082019050818103600083015261027a8184610227565b905092915050565b7f4e487b7100000000000000000000000000000000000000000000000000000000600052604160045260246000fd5b7f4e487b7100000000000000000000000000000000000000000000000000000000600052602260045260246000fd5b600060028204905060018216806102f857607f821691505b60208210810361030b5761030a6102b1565b5b50919050565b60008190508160005260206000209050919050565b60006020601f8301049050919050565b600082821b905092915050565b6000600883026103737fffffffffffffffffffffffffffffffffffffffffffffffffffffffffffffffff82610336565b61037d8683610336565b95508019841693508086168417925050509392505050565b6000819050919050565b6000819050919050565b60006103c46103bf6103ba84610395565b61039f565b610395565b9050919050565b6000819050919050565b6103de836103a9565b6103f26103ea826103cb565b848454610343565b825550505050565b600090565b6104076103fa565b6104128184846103d5565b505050565b5b818110156104365761042b6000826103ff565b600181019050610418565b5050565b601f82111561047b5761044c81610311565b61045584610326565b81016020851015610464578190505b61047861047085610326565b830182610417565b50505b505050565b600082821c905092915050565b600061049e60001984600802610480565b1980831691505092915050565b60006104b7838361048d565b9150826002028217905092915050565b6104d0826101d0565b67ffffffffffffffff8111156104e9576104e8610282565b5b6104f382546102e0565b6104fe82828561043a565b600060209050601f831160018114610531576000841561051f578287015190505b61052985826104ab565b865550610591565b601f19841661053f86610311565b60005b8281101561056757848901518255600182019150602085019450602081019050610542565b868310156105845784890151610580601f89168261048d565b8355505b6001600288020188555050505b50505050505056fea2646970667358221220df52e9bcd0674abe9c1e59d02430f75d61f4da522189cb55bdcf8995f9db7dbd64736f6c63430008110033",
					"opcodes": "PUSH1 0x80 PUSH1 0x40 MSTORE CALLVALUE DUP1 ISZERO PUSH2 0x10 JUMPI PUSH1 0x0 DUP1 REVERT JUMPDEST POP PUSH2 0x5CF DUP1 PUSH2 0x20 PUSH1 0x0 CODECOPY PUSH1 0x0 RETURN INVALID PUSH1 0x80 PUSH1 0x40 MSTORE CALLVALUE DUP1 ISZERO PUSH2 0x10 JUMPI PUSH1 0x0 DUP1 REVERT JUMPDEST POP PUSH1 0x4 CALLDATASIZE LT PUSH2 0x2B JUMPI PUSH1 0x0 CALLDATALOAD PUSH1 0xE0 SHR DUP1 PUSH4 0xA21CC48 EQ PUSH2 0x30 JUMPI JUMPDEST PUSH1 0x0 DUP1 REVERT JUMPDEST PUSH2 0x38 PUSH2 0x4E JUMP JUMPDEST PUSH1 0x40 MLOAD PUSH2 0x45 SWAP2 SWAP1 PUSH2 0x260 JUMP JUMPDEST PUSH1 0x40 MLOAD DUP1 SWAP2 SUB SWAP1 RETURN JUMPDEST PUSH1 0x60 PUSH1 0x0 DUP1 PUSH2 0x5D SWAP2 SWAP1 PUSH2 0x12E JUMP JUMPDEST PUSH1 0x0 DUP1 PUSH1 0x1 DUP2 SLOAD ADD DUP1 DUP3 SSTORE DUP1 SWAP2 POP POP PUSH1 0x1 SWAP1 SUB SWAP1 PUSH1 0x0 MSTORE PUSH1 0x20 PUSH1 0x0 KECCAK256 ADD PUSH1 0x0 PUSH1 0x40 MLOAD DUP1 PUSH1 0x40 ADD PUSH1 0x40 MSTORE DUP1 PUSH1 0x7 DUP2 MSTORE PUSH1 0x20 ADD PUSH32 0x456E676C69736800000000000000000000000000000000000000000000000000 DUP2 MSTORE POP SWAP1 SWAP2 SWAP1 SWAP2 POP SWAP1 DUP2 PUSH2 0xC3 SWAP2 SWAP1 PUSH2 0x4C7 JUMP JUMPDEST POP PUSH1 0x0 DUP1 PUSH1 0x1 DUP2 SLOAD ADD DUP1 DUP3 SSTORE DUP1 SWAP2 POP POP PUSH1 0x1 SWAP1 SUB SWAP1 PUSH1 0x0 MSTORE PUSH1 0x20 PUSH1 0x0 KECCAK256 ADD PUSH1 0x0 PUSH1 0x40 MLOAD DUP1 PUSH1 0x40 ADD PUSH1 0x40 MSTORE DUP1 PUSH1 0x5 DUP2 MSTORE PUSH1 0x20 ADD PUSH32 0x4D75736963000000000000000000000000000000000000000000000000000000 DUP2 MSTORE POP SWAP1 SWAP2 SWAP1 SWAP2 POP SWAP1 DUP2 PUSH2 0x12A SWAP2 SWAP1 PUSH2 0x4C7 JUMP JUMPDEST POP SWAP1 JUMP JUMPDEST POP DUP1 SLOAD PUSH1 0x0 DUP3 SSTORE SWAP1 PUSH1 0x0 MSTORE PUSH1 0x20 PUSH1 0x0 KECCAK256 SWAP1 DUP2 ADD SWAP1 PUSH2 0x14C SWAP2 SWAP1 PUSH2 0x14F JUMP JUMPDEST POP JUMP JUMPDEST JUMPDEST DUP1 DUP3 GT ISZERO PUSH2 0x16F JUMPI PUSH1 0x0 DUP2 DUP2 PUSH2 0x166 SWAP2 SWAP1 PUSH2 0x173 JUMP JUMPDEST POP PUSH1 0x1 ADD PUSH2 0x150 JUMP JUMPDEST POP SWAP1 JUMP JUMPDEST POP DUP1 SLOAD PUSH2 0x17F SWAP1 PUSH2 0x2E0 JUMP JUMPDEST PUSH1 0x0 DUP3 SSTORE DUP1 PUSH1 0x1F LT PUSH2 0x191 JUMPI POP PUSH2 0x1B0 JUMP JUMPDEST PUSH1 0x1F ADD PUSH1 0x20 SWAP1 DIV SWAP1 PUSH1 0x0 MSTORE PUSH1 0x20 PUSH1 0x0 KECCAK256 SWAP1 DUP2 ADD SWAP1 PUSH2 0x1AF SWAP2 SWAP1 PUSH2 0x1B3 JUMP JUMPDEST JUMPDEST POP JUMP JUMPDEST JUMPDEST DUP1 DUP3 GT ISZERO PUSH2 0x1CC JUMPI PUSH1 0x0 DUP2 PUSH1 0x0 SWAP1 SSTORE POP PUSH1 0x1 ADD PUSH2 0x1B4 JUMP JUMPDEST POP SWAP1 JUMP JUMPDEST PUSH1 0x0 DUP2 MLOAD SWAP1 POP SWAP2 SWAP1 POP JUMP JUMPDEST PUSH1 0x0 DUP3 DUP3 MSTORE PUSH1 0x20 DUP3 ADD SWAP1 POP SWAP3 SWAP2 POP POP JUMP JUMPDEST PUSH1 0x0 JUMPDEST DUP4 DUP2 LT ISZERO PUSH2 0x20A JUMPI DUP1 DUP3 ADD MLOAD DUP2 DUP5 ADD MSTORE PUSH1 0x20 DUP2 ADD SWAP1 POP PUSH2 0x1EF JUMP JUMPDEST PUSH1 0x0 DUP5 DUP5 ADD MSTORE POP POP POP POP JUMP JUMPDEST PUSH1 0x0 PUSH1 0x1F NOT PUSH1 0x1F DUP4 ADD AND SWAP1 POP SWAP2 SWAP1 POP JUMP JUMPDEST PUSH1 0x0 PUSH2 0x232 DUP3 PUSH2 0x1D0 JUMP JUMPDEST PUSH2 0x23C DUP2 DUP6 PUSH2 0x1DB JUMP JUMPDEST SWAP4 POP PUSH2 0x24C DUP2 DUP6 PUSH1 0x20 DUP7 ADD PUSH2 0x1EC JUMP JUMPDEST PUSH2 0x255 DUP2 PUSH2 0x216 JUMP JUMPDEST DUP5 ADD SWAP2 POP POP SWAP3 SWAP2 POP POP JUMP JUMPDEST PUSH1 0x0 PUSH1 0x20 DUP3 ADD SWAP1 POP DUP2 DUP2 SUB PUSH1 0x0 DUP4 ADD MSTORE PUSH2 0x27A DUP2 DUP5 PUSH2 0x227 JUMP JUMPDEST SWAP1 POP SWAP3 SWAP2 POP POP JUMP JUMPDEST PUSH32 0x4E487B7100000000000000000000000000000000000000000000000000000000 PUSH1 0x0 MSTORE PUSH1 0x41 PUSH1 0x4 MSTORE PUSH1 0x24 PUSH1 0x0 REVERT JUMPDEST PUSH32 0x4E487B7100000000000000000000000000000000000000000000000000000000 PUSH1 0x0 MSTORE PUSH1 0x22 PUSH1 0x4 MSTORE PUSH1 0x24 PUSH1 0x0 REVERT JUMPDEST PUSH1 0x0 PUSH1 0x2 DUP3 DIV SWAP1 POP PUSH1 0x1 DUP3 AND DUP1 PUSH2 0x2F8 JUMPI PUSH1 0x7F DUP3 AND SWAP2 POP JUMPDEST PUSH1 0x20 DUP3 LT DUP2 SUB PUSH2 0x30B JUMPI PUSH2 0x30A PUSH2 0x2B1 JUMP JUMPDEST JUMPDEST POP SWAP2 SWAP1 POP JUMP JUMPDEST PUSH1 0x0 DUP2 SWAP1 POP DUP2 PUSH1 0x0 MSTORE PUSH1 0x20 PUSH1 0x0 KECCAK256 SWAP1 POP SWAP2 SWAP1 POP JUMP JUMPDEST PUSH1 0x0 PUSH1 0x20 PUSH1 0x1F DUP4 ADD DIV SWAP1 POP SWAP2 SWAP1 POP JUMP JUMPDEST PUSH1 0x0 DUP3 DUP3 SHL SWAP1 POP SWAP3 SWAP2 POP POP JUMP JUMPDEST PUSH1 0x0 PUSH1 0x8 DUP4 MUL PUSH2 0x373 PUSH32 0xFFFFFFFFFFFFFFFFFFFFFFFFFFFFFFFFFFFFFFFFFFFFFFFFFFFFFFFFFFFFFFFF DUP3 PUSH2 0x336 JUMP JUMPDEST PUSH2 0x37D DUP7 DUP4 PUSH2 0x336 JUMP JUMPDEST SWAP6 POP DUP1 NOT DUP5 AND SWAP4 POP DUP1 DUP7 AND DUP5 OR SWAP3 POP POP POP SWAP4 SWAP3 POP POP POP JUMP JUMPDEST PUSH1 0x0 DUP2 SWAP1 POP SWAP2 SWAP1 POP JUMP JUMPDEST PUSH1 0x0 DUP2 SWAP1 POP SWAP2 SWAP1 POP JUMP JUMPDEST PUSH1 0x0 PUSH2 0x3C4 PUSH2 0x3BF PUSH2 0x3BA DUP5 PUSH2 0x395 JUMP JUMPDEST PUSH2 0x39F JUMP JUMPDEST PUSH2 0x395 JUMP JUMPDEST SWAP1 POP SWAP2 SWAP1 POP JUMP JUMPDEST PUSH1 0x0 DUP2 SWAP1 POP SWAP2 SWAP1 POP JUMP JUMPDEST PUSH2 0x3DE DUP4 PUSH2 0x3A9 JUMP JUMPDEST PUSH2 0x3F2 PUSH2 0x3EA DUP3 PUSH2 0x3CB JUMP JUMPDEST DUP5 DUP5 SLOAD PUSH2 0x343 JUMP JUMPDEST DUP3 SSTORE POP POP POP POP JUMP JUMPDEST PUSH1 0x0 SWAP1 JUMP JUMPDEST PUSH2 0x407 PUSH2 0x3FA JUMP JUMPDEST PUSH2 0x412 DUP2 DUP5 DUP5 PUSH2 0x3D5 JUMP JUMPDEST POP POP POP JUMP JUMPDEST JUMPDEST DUP2 DUP2 LT ISZERO PUSH2 0x436 JUMPI PUSH2 0x42B PUSH1 0x0 DUP3 PUSH2 0x3FF JUMP JUMPDEST PUSH1 0x1 DUP2 ADD SWAP1 POP PUSH2 0x418 JUMP JUMPDEST POP POP JUMP JUMPDEST PUSH1 0x1F DUP3 GT ISZERO PUSH2 0x47B JUMPI PUSH2 0x44C DUP2 PUSH2 0x311 JUMP JUMPDEST PUSH2 0x455 DUP5 PUSH2 0x326 JUMP JUMPDEST DUP2 ADD PUSH1 0x20 DUP6 LT ISZERO PUSH2 0x464 JUMPI DUP2 SWAP1 POP JUMPDEST PUSH2 0x478 PUSH2 0x470 DUP6 PUSH2 0x326 JUMP JUMPDEST DUP4 ADD DUP3 PUSH2 0x417 JUMP JUMPDEST POP POP JUMPDEST POP POP POP JUMP JUMPDEST PUSH1 0x0 DUP3 DUP3 SHR SWAP1 POP SWAP3 SWAP2 POP POP JUMP JUMPDEST PUSH1 0x0 PUSH2 0x49E PUSH1 0x0 NOT DUP5 PUSH1 0x8 MUL PUSH2 0x480 JUMP JUMPDEST NOT DUP1 DUP4 AND SWAP2 POP POP SWAP3 SWAP2 POP POP JUMP JUMPDEST PUSH1 0x0 PUSH2 0x4B7 DUP4 DUP4 PUSH2 0x48D JUMP JUMPDEST SWAP2 POP DUP3 PUSH1 0x2 MUL DUP3 OR SWAP1 POP SWAP3 SWAP2 POP POP JUMP JUMPDEST PUSH2 0x4D0 DUP3 PUSH2 0x1D0 JUMP JUMPDEST PUSH8 0xFFFFFFFFFFFFFFFF DUP2 GT ISZERO PUSH2 0x4E9 JUMPI PUSH2 0x4E8 PUSH2 0x282 JUMP JUMPDEST JUMPDEST PUSH2 0x4F3 DUP3 SLOAD PUSH2 0x2E0 JUMP JUMPDEST PUSH2 0x4FE DUP3 DUP3 DUP6 PUSH2 0x43A JUMP JUMPDEST PUSH1 0x0 PUSH1 0x20 SWAP1 POP PUSH1 0x1F DUP4 GT PUSH1 0x1 DUP2 EQ PUSH2 0x531 JUMPI PUSH1 0x0 DUP5 ISZERO PUSH2 0x51F JUMPI DUP3 DUP8 ADD MLOAD SWAP1 POP JUMPDEST PUSH2 0x529 DUP6 DUP3 PUSH2 0x4AB JUMP JUMPDEST DUP7 SSTORE POP PUSH2 0x591 JUMP JUMPDEST PUSH1 0x1F NOT DUP5 AND PUSH2 0x53F DUP7 PUSH2 0x311 JUMP JUMPDEST PUSH1 0x0 JUMPDEST DUP3 DUP2 LT ISZERO PUSH2 0x567 JUMPI DUP5 DUP10 ADD MLOAD DUP3 SSTORE PUSH1 0x1 DUP3 ADD SWAP2 POP PUSH1 0x20 DUP6 ADD SWAP5 POP PUSH1 0x20 DUP2 ADD SWAP1 POP PUSH2 0x542 JUMP JUMPDEST DUP7 DUP4 LT ISZERO PUSH2 0x584 JUMPI DUP5 DUP10 ADD MLOAD PUSH2 0x580 PUSH1 0x1F DUP10 AND DUP3 PUSH2 0x48D JUMP JUMPDEST DUP4 SSTORE POP JUMPDEST PUSH1 0x1 PUSH1 0x2 DUP9 MUL ADD DUP9 SSTORE POP POP POP JUMPDEST POP POP POP POP POP POP JUMP INVALID LOG2 PUSH5 0x6970667358 0x22 SLT KECCAK256 0xDF MSTORE 0xE9 0xBC 0xD0 PUSH8 0x4ABE9C1E59D02430 0xF7 0x5D PUSH2 0xF4DA MSTORE 0x21 DUP10 0xCB SSTORE 0xBD 0xCF DUP10 SWAP6 0xF9 0xDB PUSH30 0xBD64736F6C63430008110033000000000000000000000000000000000000 "
				},
				"gasEstimates": {
					"creation": {
						"codeDepositCost": "297400",
						"executionCost": "337",
						"totalCost": "297737"
					},
					"external": {
						"showCources()": "infinite"
					}
				},
				"methodIdentifiers": {
					"showCources()": "0a21cc48"
				}
			},
			"storageLayout": {
				"storage": [
					{
						"astId": 4,
						"contract": "chapter2/Ex2_10.sol:Student",
						"label": "cources",
						"offset": 0,
						"slot": "0",
						"type": "t_array(t_string_storage)dyn_storage"
					}
				],
				"types": {
					"t_array(t_string_storage)dyn_storage": {
						"base": "t_string_storage",
						"encoding": "dynamic_array",
						"label": "string[]",
						"numberOfBytes": "32"
					},
					"t_string_storage": {
						"encoding": "bytes",
						"label": "string",
						"numberOfBytes": "32"
					}
				}
			},
			"userdoc": {
				"kind": "user",
				"methods": {},
				"version": 1
			}
		}
	}
}