{
	"chapter2/Ex2_1.sol": {
		"Ex2_1": {
			"abi": [
				{
					"inputs": [],
					"name": "assignment",
					"outputs": [
						{
							"internalType": "int256",
							"name": "",
							"type": "int256"
						},
						{
							"internalType": "uint256",
							"name": "",
							"type": "uint256"
						},
						{
							"internalType": "bool",
							"name": "",
							"type": "bool"
						},
						{
							"internalType": "bytes",
							"name": "",
							"type": "bytes"
						},
						{
							"internalType": "string",
							"name": "",
							"type": "string"
						},
						{
							"internalType": "address",
							"name": "",
							"type": "address"
						}
					],
					"stateMutability": "view",
					"type": "function"
				}
			],
			"devdoc": {
				"kind": "dev",
				"methods": {},
				"version": 1
			},
			"evm": {
				"assembly": "    /* \"chapter2/Ex2_1.sol\":70:315  contract Ex2_1 {... */\n  mstore(0x40, 0x80)\n  callvalue\n  dup1\n  iszero\n  tag_1\n  jumpi\n  0x00\n  dup1\n  revert\ntag_1:\n  pop\n  dataSize(sub_0)\n  dup1\n  dataOffset(sub_0)\n  0x00\n  codecopy\n  0x00\n  return\nstop\n\nsub_0: assembly {\n        /* \"chapter2/Ex2_1.sol\":70:315  contract Ex2_1 {... */\n      mstore(0x40, 0x80)\n      callvalue\n      dup1\n      iszero\n      tag_1\n      jumpi\n      0x00\n      dup1\n      revert\n    tag_1:\n      pop\n      jumpi(tag_2, lt(calldatasize, 0x04))\n      shr(0xe0, calldataload(0x00))\n      dup1\n      0x71ca2ecf\n      eq\n      tag_3\n      jumpi\n    tag_2:\n      0x00\n      dup1\n      revert\n        /* \"chapter2/Ex2_1.sol\":169:307  function assignment() public view returns(int, uint, bool, bytes memory, string memory, address) {... */\n    tag_3:\n      tag_4\n      tag_5\n      jump\t// in\n    tag_4:\n      mload(0x40)\n      tag_6\n      swap7\n      swap6\n      swap5\n      swap4\n      swap3\n      swap2\n      swap1\n      tag_7\n      jump\t// in\n    tag_6:\n      mload(0x40)\n      dup1\n      swap2\n      sub\n      swap1\n      return\n    tag_5:\n        /* \"chapter2/Ex2_1.sol\":211:214  int */\n      0x00\n        /* \"chapter2/Ex2_1.sol\":216:220  uint */\n      dup1\n        /* \"chapter2/Ex2_1.sol\":222:226  bool */\n      0x00\n        /* \"chapter2/Ex2_1.sol\":228:240  bytes memory */\n      0x60\n        /* \"chapter2/Ex2_1.sol\":242:255  string memory */\n      dup1\n        /* \"chapter2/Ex2_1.sol\":257:264  address */\n      0x00\n        /* \"chapter2/Ex2_1.sol\":283:284  a */\n      dup1\n      sload\n        /* \"chapter2/Ex2_1.sol\":286:287  b */\n      sload(0x01)\n        /* \"chapter2/Ex2_1.sol\":289:290  c */\n      0x02\n      0x00\n      swap1\n      sload\n      swap1\n      0x0100\n      exp\n      swap1\n      div\n      0xff\n      and\n        /* \"chapter2/Ex2_1.sol\":292:293  d */\n      0x03\n        /* \"chapter2/Ex2_1.sol\":295:296  e */\n      0x04\n        /* \"chapter2/Ex2_1.sol\":298:299  f */\n      0x05\n      0x00\n      swap1\n      sload\n      swap1\n      0x0100\n      exp\n      swap1\n      div\n      0xffffffffffffffffffffffffffffffffffffffff\n      and\n        /* \"chapter2/Ex2_1.sol\":276:300  return(a, b, c, d, e, f) */\n      dup3\n      dup1\n      sload\n      tag_9\n      swap1\n      tag_10\n      jump\t// in\n    tag_9:\n      dup1\n      0x1f\n      add\n      0x20\n      dup1\n      swap2\n      div\n      mul\n      0x20\n      add\n      mload(0x40)\n      swap1\n      dup2\n      add\n      0x40\n      mstore\n      dup1\n      swap3\n      swap2\n      swap1\n      dup2\n      dup2\n      mstore\n      0x20\n      add\n      dup3\n      dup1\n      sload\n      tag_11\n      swap1\n      tag_10\n      jump\t// in\n    tag_11:\n      dup1\n      iszero\n      tag_12\n      jumpi\n      dup1\n      0x1f\n      lt\n      tag_13\n      jumpi\n      0x0100\n      dup1\n      dup4\n      sload\n      div\n      mul\n      dup4\n      mstore\n      swap2\n      0x20\n      add\n      swap2\n      jump(tag_12)\n    tag_13:\n      dup3\n      add\n      swap2\n      swap1\n      0x00\n      mstore\n      keccak256(0x00, 0x20)\n      swap1\n    tag_14:\n      dup2\n      sload\n      dup2\n      mstore\n      swap1\n      0x01\n      add\n      swap1\n      0x20\n      add\n      dup1\n      dup4\n      gt\n      tag_14\n      jumpi\n      dup3\n      swap1\n      sub\n      0x1f\n      and\n      dup3\n      add\n      swap2\n    tag_12:\n      pop\n      pop\n      pop\n      pop\n      pop\n      swap3\n      pop\n      dup2\n      dup1\n      sload\n      tag_15\n      swap1\n      tag_10\n      jump\t// in\n    tag_15:\n      dup1\n      0x1f\n      add\n      0x20\n      dup1\n      swap2\n      div\n      mul\n      0x20\n      add\n      mload(0x40)\n      swap1\n      dup2\n      add\n      0x40\n      mstore\n      dup1\n      swap3\n      swap2\n      swap1\n      dup2\n      dup2\n      mstore\n      0x20\n      add\n      dup3\n      dup1\n      sload\n      tag_16\n      swap1\n      tag_10\n      jump\t// in\n    tag_16:\n      dup1\n      iszero\n      tag_17\n      jumpi\n      dup1\n      0x1f\n      lt\n      tag_18\n      jumpi\n      0x0100\n      dup1\n      dup4\n      sload\n      div\n      mul\n      dup4\n      mstore\n      swap2\n      0x20\n      add\n      swap2\n      jump(tag_17)\n    tag_18:\n      dup3\n      add\n      swap2\n      swap1\n      0x00\n      mstore\n      keccak256(0x00, 0x20)\n      swap1\n    tag_19:\n      dup2\n      sload\n      dup2\n      mstore\n      swap1\n      0x01\n      add\n      swap1\n      0x20\n      add\n      dup1\n      dup4\n      gt\n      tag_19\n      jumpi\n      dup3\n      swap1\n      sub\n      0x1f\n      and\n      dup3\n      add\n      swap2\n    tag_17:\n      pop\n      pop\n      pop\n      pop\n      pop\n      swap2\n      pop\n      swap6\n      pop\n      swap6\n      pop\n      swap6\n      pop\n      swap6\n      pop\n      swap6\n      pop\n      swap6\n      pop\n        /* \"chapter2/Ex2_1.sol\":169:307  function assignment() public view returns(int, uint, bool, bytes memory, string memory, address) {... */\n      swap1\n      swap2\n      swap3\n      swap4\n      swap5\n      swap6\n      jump\t// out\n        /* \"#utility.yul\":7:125   */\n    tag_21:\n        /* \"#utility.yul\":94:118   */\n      tag_23\n        /* \"#utility.yul\":112:117   */\n      dup2\n        /* \"#utility.yul\":94:118   */\n      tag_24\n      jump\t// in\n    tag_23:\n        /* \"#utility.yul\":89:92   */\n      dup3\n        /* \"#utility.yul\":82:119   */\n      mstore\n        /* \"#utility.yul\":7:125   */\n      pop\n      pop\n      jump\t// out\n        /* \"#utility.yul\":131:240   */\n    tag_25:\n        /* \"#utility.yul\":212:233   */\n      tag_27\n        /* \"#utility.yul\":227:232   */\n      dup2\n        /* \"#utility.yul\":212:233   */\n      tag_28\n      jump\t// in\n    tag_27:\n        /* \"#utility.yul\":207:210   */\n      dup3\n        /* \"#utility.yul\":200:234   */\n      mstore\n        /* \"#utility.yul\":131:240   */\n      pop\n      pop\n      jump\t// out\n        /* \"#utility.yul\":246:606   */\n    tag_29:\n        /* \"#utility.yul\":332:335   */\n      0x00\n        /* \"#utility.yul\":360:398   */\n      tag_31\n        /* \"#utility.yul\":392:397   */\n      dup3\n        /* \"#utility.yul\":360:398   */\n      tag_32\n      jump\t// in\n    tag_31:\n        /* \"#utility.yul\":414:484   */\n      tag_33\n        /* \"#utility.yul\":477:483   */\n      dup2\n        /* \"#utility.yul\":472:475   */\n      dup6\n        /* \"#utility.yul\":414:484   */\n      tag_34\n      jump\t// in\n    tag_33:\n        /* \"#utility.yul\":407:484   */\n      swap4\n      pop\n        /* \"#utility.yul\":493:545   */\n      tag_35\n        /* \"#utility.yul\":538:544   */\n      dup2\n        /* \"#utility.yul\":533:536   */\n      dup6\n        /* \"#utility.yul\":526:530   */\n      0x20\n        /* \"#utility.yul\":519:524   */\n      dup7\n        /* \"#utility.yul\":515:531   */\n      add\n        /* \"#utility.yul\":493:545   */\n      tag_36\n      jump\t// in\n    tag_35:\n        /* \"#utility.yul\":570:599   */\n      tag_37\n        /* \"#utility.yul\":592:598   */\n      dup2\n        /* \"#utility.yul\":570:599   */\n      tag_38\n      jump\t// in\n    tag_37:\n        /* \"#utility.yul\":565:568   */\n      dup5\n        /* \"#utility.yul\":561:600   */\n      add\n        /* \"#utility.yul\":554:600   */\n      swap2\n      pop\n        /* \"#utility.yul\":336:606   */\n      pop\n        /* \"#utility.yul\":246:606   */\n      swap3\n      swap2\n      pop\n      pop\n      jump\t// out\n        /* \"#utility.yul\":612:727   */\n    tag_39:\n        /* \"#utility.yul\":697:720   */\n      tag_41\n        /* \"#utility.yul\":714:719   */\n      dup2\n        /* \"#utility.yul\":697:720   */\n      tag_42\n      jump\t// in\n    tag_41:\n        /* \"#utility.yul\":692:695   */\n      dup3\n        /* \"#utility.yul\":685:721   */\n      mstore\n        /* \"#utility.yul\":612:727   */\n      pop\n      pop\n      jump\t// out\n        /* \"#utility.yul\":733:1097   */\n    tag_43:\n        /* \"#utility.yul\":821:824   */\n      0x00\n        /* \"#utility.yul\":849:888   */\n      tag_45\n        /* \"#utility.yul\":882:887   */\n      dup3\n        /* \"#utility.yul\":849:888   */\n      tag_46\n      jump\t// in\n    tag_45:\n        /* \"#utility.yul\":904:975   */\n      tag_47\n        /* \"#utility.yul\":968:974   */\n      dup2\n        /* \"#utility.yul\":963:966   */\n      dup6\n        /* \"#utility.yul\":904:975   */\n      tag_48\n      jump\t// in\n    tag_47:\n        /* \"#utility.yul\":897:975   */\n      swap4\n      pop\n        /* \"#utility.yul\":984:1036   */\n      tag_49\n        /* \"#utility.yul\":1029:1035   */\n      dup2\n        /* \"#utility.yul\":1024:1027   */\n      dup6\n        /* \"#utility.yul\":1017:1021   */\n      0x20\n        /* \"#utility.yul\":1010:1015   */\n      dup7\n        /* \"#utility.yul\":1006:1022   */\n      add\n        /* \"#utility.yul\":984:1036   */\n      tag_36\n      jump\t// in\n    tag_49:\n        /* \"#utility.yul\":1061:1090   */\n      tag_50\n        /* \"#utility.yul\":1083:1089   */\n      dup2\n        /* \"#utility.yul\":1061:1090   */\n      tag_38\n      jump\t// in\n    tag_50:\n        /* \"#utility.yul\":1056:1059   */\n      dup5\n        /* \"#utility.yul\":1052:1091   */\n      add\n        /* \"#utility.yul\":1045:1091   */\n      swap2\n      pop\n        /* \"#utility.yul\":825:1097   */\n      pop\n        /* \"#utility.yul\":733:1097   */\n      swap3\n      swap2\n      pop\n      pop\n      jump\t// out\n        /* \"#utility.yul\":1103:1221   */\n    tag_51:\n        /* \"#utility.yul\":1190:1214   */\n      tag_53\n        /* \"#utility.yul\":1208:1213   */\n      dup2\n        /* \"#utility.yul\":1190:1214   */\n      tag_54\n      jump\t// in\n    tag_53:\n        /* \"#utility.yul\":1185:1188   */\n      dup3\n        /* \"#utility.yul\":1178:1215   */\n      mstore\n        /* \"#utility.yul\":1103:1221   */\n      pop\n      pop\n      jump\t// out\n        /* \"#utility.yul\":1227:2164   */\n    tag_7:\n        /* \"#utility.yul\":1490:1494   */\n      0x00\n        /* \"#utility.yul\":1528:1531   */\n      0xc0\n        /* \"#utility.yul\":1517:1526   */\n      dup3\n        /* \"#utility.yul\":1513:1532   */\n      add\n        /* \"#utility.yul\":1505:1532   */\n      swap1\n      pop\n        /* \"#utility.yul\":1542:1611   */\n      tag_56\n        /* \"#utility.yul\":1608:1609   */\n      0x00\n        /* \"#utility.yul\":1597:1606   */\n      dup4\n        /* \"#utility.yul\":1593:1610   */\n      add\n        /* \"#utility.yul\":1584:1590   */\n      dup10\n        /* \"#utility.yul\":1542:1611   */\n      tag_39\n      jump\t// in\n    tag_56:\n        /* \"#utility.yul\":1621:1693   */\n      tag_57\n        /* \"#utility.yul\":1689:1691   */\n      0x20\n        /* \"#utility.yul\":1678:1687   */\n      dup4\n        /* \"#utility.yul\":1674:1692   */\n      add\n        /* \"#utility.yul\":1665:1671   */\n      dup9\n        /* \"#utility.yul\":1621:1693   */\n      tag_51\n      jump\t// in\n    tag_57:\n        /* \"#utility.yul\":1703:1769   */\n      tag_58\n        /* \"#utility.yul\":1765:1767   */\n      0x40\n        /* \"#utility.yul\":1754:1763   */\n      dup4\n        /* \"#utility.yul\":1750:1768   */\n      add\n        /* \"#utility.yul\":1741:1747   */\n      dup8\n        /* \"#utility.yul\":1703:1769   */\n      tag_25\n      jump\t// in\n    tag_58:\n        /* \"#utility.yul\":1816:1825   */\n      dup2\n        /* \"#utility.yul\":1810:1814   */\n      dup2\n        /* \"#utility.yul\":1806:1826   */\n      sub\n        /* \"#utility.yul\":1801:1803   */\n      0x60\n        /* \"#utility.yul\":1790:1799   */\n      dup4\n        /* \"#utility.yul\":1786:1804   */\n      add\n        /* \"#utility.yul\":1779:1827   */\n      mstore\n        /* \"#utility.yul\":1844:1920   */\n      tag_59\n        /* \"#utility.yul\":1915:1919   */\n      dup2\n        /* \"#utility.yul\":1906:1912   */\n      dup7\n        /* \"#utility.yul\":1844:1920   */\n      tag_29\n      jump\t// in\n    tag_59:\n        /* \"#utility.yul\":1836:1920   */\n      swap1\n      pop\n        /* \"#utility.yul\":1968:1977   */\n      dup2\n        /* \"#utility.yul\":1962:1966   */\n      dup2\n        /* \"#utility.yul\":1958:1978   */\n      sub\n        /* \"#utility.yul\":1952:1955   */\n      0x80\n        /* \"#utility.yul\":1941:1950   */\n      dup4\n        /* \"#utility.yul\":1937:1956   */\n      add\n        /* \"#utility.yul\":1930:1979   */\n      mstore\n        /* \"#utility.yul\":1996:2074   */\n      tag_60\n        /* \"#utility.yul\":2069:2073   */\n      dup2\n        /* \"#utility.yul\":2060:2066   */\n      dup6\n        /* \"#utility.yul\":1996:2074   */\n      tag_43\n      jump\t// in\n    tag_60:\n        /* \"#utility.yul\":1988:2074   */\n      swap1\n      pop\n        /* \"#utility.yul\":2084:2157   */\n      tag_61\n        /* \"#utility.yul\":2152:2155   */\n      0xa0\n        /* \"#utility.yul\":2141:2150   */\n      dup4\n        /* \"#utility.yul\":2137:2156   */\n      add\n        /* \"#utility.yul\":2128:2134   */\n      dup5\n        /* \"#utility.yul\":2084:2157   */\n      tag_21\n      jump\t// in\n    tag_61:\n        /* \"#utility.yul\":1227:2164   */\n      swap8\n      swap7\n      pop\n      pop\n      pop\n      pop\n      pop\n      pop\n      pop\n      jump\t// out\n        /* \"#utility.yul\":2170:2268   */\n    tag_32:\n        /* \"#utility.yul\":2221:2227   */\n      0x00\n        /* \"#utility.yul\":2255:2260   */\n      dup2\n        /* \"#utility.yul\":2249:2261   */\n      mload\n        /* \"#utility.yul\":2239:2261   */\n      swap1\n      pop\n        /* \"#utility.yul\":2170:2268   */\n      swap2\n      swap1\n      pop\n      jump\t// out\n        /* \"#utility.yul\":2274:2373   */\n    tag_46:\n        /* \"#utility.yul\":2326:2332   */\n      0x00\n        /* \"#utility.yul\":2360:2365   */\n      dup2\n        /* \"#utility.yul\":2354:2366   */\n      mload\n        /* \"#utility.yul\":2344:2366   */\n      swap1\n      pop\n        /* \"#utility.yul\":2274:2373   */\n      swap2\n      swap1\n      pop\n      jump\t// out\n        /* \"#utility.yul\":2379:2547   */\n    tag_34:\n        /* \"#utility.yul\":2462:2473   */\n      0x00\n        /* \"#utility.yul\":2496:2502   */\n      dup3\n        /* \"#utility.yul\":2491:2494   */\n      dup3\n        /* \"#utility.yul\":2484:2503   */\n      mstore\n        /* \"#utility.yul\":2536:2540   */\n      0x20\n        /* \"#utility.yul\":2531:2534   */\n      dup3\n        /* \"#utility.yul\":2527:2541   */\n      add\n        /* \"#utility.yul\":2512:2541   */\n      swap1\n      pop\n        /* \"#utility.yul\":2379:2547   */\n      swap3\n      swap2\n      pop\n      pop\n      jump\t// out\n        /* \"#utility.yul\":2553:2722   */\n    tag_48:\n        /* \"#utility.yul\":2637:2648   */\n      0x00\n        /* \"#utility.yul\":2671:2677   */\n      dup3\n        /* \"#utility.yul\":2666:2669   */\n      dup3\n        /* \"#utility.yul\":2659:2678   */\n      mstore\n        /* \"#utility.yul\":2711:2715   */\n      0x20\n        /* \"#utility.yul\":2706:2709   */\n      dup3\n        /* \"#utility.yul\":2702:2716   */\n      add\n        /* \"#utility.yul\":2687:2716   */\n      swap1\n      pop\n        /* \"#utility.yul\":2553:2722   */\n      swap3\n      swap2\n      pop\n      pop\n      jump\t// out\n        /* \"#utility.yul\":2728:2824   */\n    tag_24:\n        /* \"#utility.yul\":2765:2772   */\n      0x00\n        /* \"#utility.yul\":2794:2818   */\n      tag_67\n        /* \"#utility.yul\":2812:2817   */\n      dup3\n        /* \"#utility.yul\":2794:2818   */\n      tag_68\n      jump\t// in\n    tag_67:\n        /* \"#utility.yul\":2783:2818   */\n      swap1\n      pop\n        /* \"#utility.yul\":2728:2824   */\n      swap2\n      swap1\n      pop\n      jump\t// out\n        /* \"#utility.yul\":2830:2920   */\n    tag_28:\n        /* \"#utility.yul\":2864:2871   */\n      0x00\n        /* \"#utility.yul\":2907:2912   */\n      dup2\n        /* \"#utility.yul\":2900:2913   */\n      iszero\n        /* \"#utility.yul\":2893:2914   */\n      iszero\n        /* \"#utility.yul\":2882:2914   */\n      swap1\n      pop\n        /* \"#utility.yul\":2830:2920   */\n      swap2\n      swap1\n      pop\n      jump\t// out\n        /* \"#utility.yul\":2926:3002   */\n    tag_42:\n        /* \"#utility.yul\":2962:2969   */\n      0x00\n        /* \"#utility.yul\":2991:2996   */\n      dup2\n        /* \"#utility.yul\":2980:2996   */\n      swap1\n      pop\n        /* \"#utility.yul\":2926:3002   */\n      swap2\n      swap1\n      pop\n      jump\t// out\n        /* \"#utility.yul\":3008:3134   */\n    tag_68:\n        /* \"#utility.yul\":3045:3052   */\n      0x00\n        /* \"#utility.yul\":3085:3127   */\n      0xffffffffffffffffffffffffffffffffffffffff\n        /* \"#utility.yul\":3078:3083   */\n      dup3\n        /* \"#utility.yul\":3074:3128   */\n      and\n        /* \"#utility.yul\":3063:3128   */\n      swap1\n      pop\n        /* \"#utility.yul\":3008:3134   */\n      swap2\n      swap1\n      pop\n      jump\t// out\n        /* \"#utility.yul\":3140:3217   */\n    tag_54:\n        /* \"#utility.yul\":3177:3184   */\n      0x00\n        /* \"#utility.yul\":3206:3211   */\n      dup2\n        /* \"#utility.yul\":3195:3211   */\n      swap1\n      pop\n        /* \"#utility.yul\":3140:3217   */\n      swap2\n      swap1\n      pop\n      jump\t// out\n        /* \"#utility.yul\":3223:3530   */\n    tag_36:\n        /* \"#utility.yul\":3291:3292   */\n      0x00\n        /* \"#utility.yul\":3301:3414   */\n    tag_74:\n        /* \"#utility.yul\":3315:3321   */\n      dup4\n        /* \"#utility.yul\":3312:3313   */\n      dup2\n        /* \"#utility.yul\":3309:3322   */\n      lt\n        /* \"#utility.yul\":3301:3414   */\n      iszero\n      tag_76\n      jumpi\n        /* \"#utility.yul\":3400:3401   */\n      dup1\n        /* \"#utility.yul\":3395:3398   */\n      dup3\n        /* \"#utility.yul\":3391:3402   */\n      add\n        /* \"#utility.yul\":3385:3403   */\n      mload\n        /* \"#utility.yul\":3381:3382   */\n      dup2\n        /* \"#utility.yul\":3376:3379   */\n      dup5\n        /* \"#utility.yul\":3372:3383   */\n      add\n        /* \"#utility.yul\":3365:3404   */\n      mstore\n        /* \"#utility.yul\":3337:3339   */\n      0x20\n        /* \"#utility.yul\":3334:3335   */\n      dup2\n        /* \"#utility.yul\":3330:3340   */\n      add\n        /* \"#utility.yul\":3325:3340   */\n      swap1\n      pop\n        /* \"#utility.yul\":3301:3414   */\n      jump(tag_74)\n    tag_76:\n        /* \"#utility.yul\":3432:3438   */\n      dup4\n        /* \"#utility.yul\":3429:3430   */\n      dup2\n        /* \"#utility.yul\":3426:3439   */\n      gt\n        /* \"#utility.yul\":3423:3524   */\n      iszero\n      tag_77\n      jumpi\n        /* \"#utility.yul\":3512:3513   */\n      0x00\n        /* \"#utility.yul\":3503:3509   */\n      dup5\n        /* \"#utility.yul\":3498:3501   */\n      dup5\n        /* \"#utility.yul\":3494:3510   */\n      add\n        /* \"#utility.yul\":3487:3514   */\n      mstore\n        /* \"#utility.yul\":3423:3524   */\n    tag_77:\n        /* \"#utility.yul\":3272:3530   */\n      pop\n        /* \"#utility.yul\":3223:3530   */\n      pop\n      pop\n      pop\n      jump\t// out\n        /* \"#utility.yul\":3536:3856   */\n    tag_10:\n        /* \"#utility.yul\":3580:3586   */\n      0x00\n        /* \"#utility.yul\":3617:3618   */\n      0x02\n        /* \"#utility.yul\":3611:3615   */\n      dup3\n        /* \"#utility.yul\":3607:3619   */\n      div\n        /* \"#utility.yul\":3597:3619   */\n      swap1\n      pop\n        /* \"#utility.yul\":3664:3665   */\n      0x01\n        /* \"#utility.yul\":3658:3662   */\n      dup3\n        /* \"#utility.yul\":3654:3666   */\n      and\n        /* \"#utility.yul\":3685:3703   */\n      dup1\n        /* \"#utility.yul\":3675:3756   */\n      tag_79\n      jumpi\n        /* \"#utility.yul\":3741:3745   */\n      0x7f\n        /* \"#utility.yul\":3733:3739   */\n      dup3\n        /* \"#utility.yul\":3729:3746   */\n      and\n        /* \"#utility.yul\":3719:3746   */\n      swap2\n      pop\n        /* \"#utility.yul\":3675:3756   */\n    tag_79:\n        /* \"#utility.yul\":3803:3805   */\n      0x20\n        /* \"#utility.yul\":3795:3801   */\n      dup3\n        /* \"#utility.yul\":3792:3806   */\n      lt\n        /* \"#utility.yul\":3772:3790   */\n      dup2\n        /* \"#utility.yul\":3769:3807   */\n      eq\n        /* \"#utility.yul\":3766:3850   */\n      iszero\n      tag_80\n      jumpi\n        /* \"#utility.yul\":3822:3840   */\n      tag_81\n      tag_82\n      jump\t// in\n    tag_81:\n        /* \"#utility.yul\":3766:3850   */\n    tag_80:\n        /* \"#utility.yul\":3587:3856   */\n      pop\n        /* \"#utility.yul\":3536:3856   */\n      swap2\n      swap1\n      pop\n      jump\t// out\n        /* \"#utility.yul\":3862:4042   */\n    tag_82:\n        /* \"#utility.yul\":3910:3987   */\n      0x4e487b7100000000000000000000000000000000000000000000000000000000\n        /* \"#utility.yul\":3907:3908   */\n      0x00\n        /* \"#utility.yul\":3900:3988   */\n      mstore\n        /* \"#utility.yul\":4007:4011   */\n      0x22\n        /* \"#utility.yul\":4004:4005   */\n      0x04\n        /* \"#utility.yul\":3997:4012   */\n      mstore\n        /* \"#utility.yul\":4031:4035   */\n      0x24\n        /* \"#utility.yul\":4028:4029   */\n      0x00\n        /* \"#utility.yul\":4021:4036   */\n      revert\n        /* \"#utility.yul\":4048:4150   */\n    tag_38:\n        /* \"#utility.yul\":4089:4095   */\n      0x00\n        /* \"#utility.yul\":4140:4142   */\n      0x1f\n        /* \"#utility.yul\":4136:4143   */\n      not\n        /* \"#utility.yul\":4131:4133   */\n      0x1f\n        /* \"#utility.yul\":4124:4129   */\n      dup4\n        /* \"#utility.yul\":4120:4134   */\n      add\n        /* \"#utility.yul\":4116:4144   */\n      and\n        /* \"#utility.yul\":4106:4144   */\n      swap1\n      pop\n        /* \"#utility.yul\":4048:4150   */\n      swap2\n      swap1\n      pop\n      jump\t// out\n\n    auxdata: 0xa2646970667358221220d5a2a52ed739b5c90154a2ca85642c16d3c5b5194b9e2ae019cdb0aa1b9c4e7064736f6c63430008070033\n}\n",
				"bytecode": {
					"linkReferences": {},
					"object": "608060405234801561001057600080fd5b50610447806100206000396000f3fe608060405234801561001057600080fd5b506004361061002b5760003560e01c806371ca2ecf14610030575b600080fd5b610038610053565b60405161004a96959493929190610273565b60405180910390f35b600080600060608060008054600154600260009054906101000a900460ff1660036004600560009054906101000a900473ffffffffffffffffffffffffffffffffffffffff168280546100a59061039f565b80601f01602080910402602001604051908101604052809291908181526020018280546100d19061039f565b801561011e5780601f106100f35761010080835404028352916020019161011e565b820191906000526020600020905b81548152906001019060200180831161010157829003601f168201915b505050505092508180546101319061039f565b80601f016020809104026020016040519081016040528092919081815260200182805461015d9061039f565b80156101aa5780601f1061017f576101008083540402835291602001916101aa565b820191906000526020600020905b81548152906001019060200180831161018d57829003601f168201915b50505050509150955095509550955095509550909192939495565b6101ce8161031a565b82525050565b6101dd8161032c565b82525050565b60006101ee826102e2565b6101f881856102f8565b935061020881856020860161036c565b61021181610400565b840191505092915050565b61022581610338565b82525050565b6000610236826102ed565b6102408185610309565b935061025081856020860161036c565b61025981610400565b840191505092915050565b61026d81610362565b82525050565b600060c082019050610288600083018961021c565b6102956020830188610264565b6102a260408301876101d4565b81810360608301526102b481866101e3565b905081810360808301526102c8818561022b565b90506102d760a08301846101c5565b979650505050505050565b600081519050919050565b600081519050919050565b600082825260208201905092915050565b600082825260208201905092915050565b600061032582610342565b9050919050565b60008115159050919050565b6000819050919050565b600073ffffffffffffffffffffffffffffffffffffffff82169050919050565b6000819050919050565b60005b8381101561038a57808201518184015260208101905061036f565b83811115610399576000848401525b50505050565b600060028204905060018216806103b757607f821691505b602082108114156103cb576103ca6103d1565b5b50919050565b7f4e487b7100000000000000000000000000000000000000000000000000000000600052602260045260246000fd5b6000601f19601f830116905091905056fea2646970667358221220d5a2a52ed739b5c90154a2ca85642c16d3c5b5194b9e2ae019cdb0aa1b9c4e7064736f6c63430008070033",
					"opcodes": "PUSH1 0x80 PUSH1 0x40 MSTORE CALLVALUE DUP1 ISZERO PUSH2 0x10 JUMPI PUSH1 0x0 DUP1 REVERT JUMPDEST POP PUSH2 0x447 DUP1 PUSH2 0x20 PUSH1 0x0 CODECOPY PUSH1 0x0 RETURN INVALID PUSH1 0x80 PUSH1 0x40 MSTORE CALLVALUE DUP1 ISZERO PUSH2 0x10 JUMPI PUSH1 0x0 DUP1 REVERT JUMPDEST POP PUSH1 0x4 CALLDATASIZE LT PUSH2 0x2B JUMPI PUSH1 0x0 CALLDATALOAD PUSH1 0xE0 SHR DUP1 PUSH4 0x71CA2ECF EQ PUSH2 0x30 JUMPI JUMPDEST PUSH1 0x0 DUP1 REVERT JUMPDEST PUSH2 0x38 PUSH2 0x53 JUMP JUMPDEST PUSH1 0x40 MLOAD PUSH2 0x4A SWAP7 SWAP6 SWAP5 SWAP4 SWAP3 SWAP2 SWAP1 PUSH2 0x273 JUMP JUMPDEST PUSH1 0x40 MLOAD DUP1 SWAP2 SUB SWAP1 RETURN JUMPDEST PUSH1 0x0 DUP1 PUSH1 0x0 PUSH1 0x60 DUP1 PUSH1 0x0 DUP1 SLOAD PUSH1 0x1 SLOAD PUSH1 0x2 PUSH1 0x0 SWAP1 SLOAD SWAP1 PUSH2 0x100 EXP SWAP1 DIV PUSH1 0xFF AND PUSH1 0x3 PUSH1 0x4 PUSH1 0x5 PUSH1 0x0 SWAP1 SLOAD SWAP1 PUSH2 0x100 EXP SWAP1 DIV PUSH20 0xFFFFFFFFFFFFFFFFFFFFFFFFFFFFFFFFFFFFFFFF AND DUP3 DUP1 SLOAD PUSH2 0xA5 SWAP1 PUSH2 0x39F JUMP JUMPDEST DUP1 PUSH1 0x1F ADD PUSH1 0x20 DUP1 SWAP2 DIV MUL PUSH1 0x20 ADD PUSH1 0x40 MLOAD SWAP1 DUP2 ADD PUSH1 0x40 MSTORE DUP1 SWAP3 SWAP2 SWAP1 DUP2 DUP2 MSTORE PUSH1 0x20 ADD DUP3 DUP1 SLOAD PUSH2 0xD1 SWAP1 PUSH2 0x39F JUMP JUMPDEST DUP1 ISZERO PUSH2 0x11E JUMPI DUP1 PUSH1 0x1F LT PUSH2 0xF3 JUMPI PUSH2 0x100 DUP1 DUP4 SLOAD DIV MUL DUP4 MSTORE SWAP2 PUSH1 0x20 ADD SWAP2 PUSH2 0x11E JUMP JUMPDEST DUP3 ADD SWAP2 SWAP1 PUSH1 0x0 MSTORE PUSH1 0x20 PUSH1 0x0 KECCAK256 SWAP1 JUMPDEST DUP2 SLOAD DUP2 MSTORE SWAP1 PUSH1 0x1 ADD SWAP1 PUSH1 0x20 ADD DUP1 DUP4 GT PUSH2 0x101 JUMPI DUP3 SWAP1 SUB PUSH1 0x1F AND DUP3 ADD SWAP2 JUMPDEST POP POP POP POP POP SWAP3 POP DUP2 DUP1 SLOAD PUSH2 0x131 SWAP1 PUSH2 0x39F JUMP JUMPDEST DUP1 PUSH1 0x1F ADD PUSH1 0x20 DUP1 SWAP2 DIV MUL PUSH1 0x20 ADD PUSH1 0x40 MLOAD SWAP1 DUP2 ADD PUSH1 0x40 MSTORE DUP1 SWAP3 SWAP2 SWAP1 DUP2 DUP2 MSTORE PUSH1 0x20 ADD DUP3 DUP1 SLOAD PUSH2 0x15D SWAP1 PUSH2 0x39F JUMP JUMPDEST DUP1 ISZERO PUSH2 0x1AA JUMPI DUP1 PUSH1 0x1F LT PUSH2 0x17F JUMPI PUSH2 0x100 DUP1 DUP4 SLOAD DIV MUL DUP4 MSTORE SWAP2 PUSH1 0x20 ADD SWAP2 PUSH2 0x1AA JUMP JUMPDEST DUP3 ADD SWAP2 SWAP1 PUSH1 0x0 MSTORE PUSH1 0x20 PUSH1 0x0 KECCAK256 SWAP1 JUMPDEST DUP2 SLOAD DUP2 MSTORE SWAP1 PUSH1 0x1 ADD SWAP1 PUSH1 0x20 ADD DUP1 DUP4 GT PUSH2 0x18D JUMPI DUP3 SWAP1 SUB PUSH1 0x1F AND DUP3 ADD SWAP2 JUMPDEST POP POP POP POP POP SWAP2 POP SWAP6 POP SWAP6 POP SWAP6 POP SWAP6 POP SWAP6 POP SWAP6 POP SWAP1 SWAP2 SWAP3 SWAP4 SWAP5 SWAP6 JUMP JUMPDEST PUSH2 0x1CE DUP2 PUSH2 0x31A JUMP JUMPDEST DUP3 MSTORE POP POP JUMP JUMPDEST PUSH2 0x1DD DUP2 PUSH2 0x32C JUMP JUMPDEST DUP3 MSTORE POP POP JUMP JUMPDEST PUSH1 0x0 PUSH2 0x1EE DUP3 PUSH2 0x2E2 JUMP JUMPDEST PUSH2 0x1F8 DUP2 DUP6 PUSH2 0x2F8 JUMP JUMPDEST SWAP4 POP PUSH2 0x208 DUP2 DUP6 PUSH1 0x20 DUP7 ADD PUSH2 0x36C JUMP JUMPDEST PUSH2 0x211 DUP2 PUSH2 0x400 JUMP JUMPDEST DUP5 ADD SWAP2 POP POP SWAP3 SWAP2 POP POP JUMP JUMPDEST PUSH2 0x225 DUP2 PUSH2 0x338 JUMP JUMPDEST DUP3 MSTORE POP POP JUMP JUMPDEST PUSH1 0x0 PUSH2 0x236 DUP3 PUSH2 0x2ED JUMP JUMPDEST PUSH2 0x240 DUP2 DUP6 PUSH2 0x309 JUMP JUMPDEST SWAP4 POP PUSH2 0x250 DUP2 DUP6 PUSH1 0x20 DUP7 ADD PUSH2 0x36C JUMP JUMPDEST PUSH2 0x259 DUP2 PUSH2 0x400 JUMP JUMPDEST DUP5 ADD SWAP2 POP POP SWAP3 SWAP2 POP POP JUMP JUMPDEST PUSH2 0x26D DUP2 PUSH2 0x362 JUMP JUMPDEST DUP3 MSTORE POP POP JUMP JUMPDEST PUSH1 0x0 PUSH1 0xC0 DUP3 ADD SWAP1 POP PUSH2 0x288 PUSH1 0x0 DUP4 ADD DUP10 PUSH2 0x21C JUMP JUMPDEST PUSH2 0x295 PUSH1 0x20 DUP4 ADD DUP9 PUSH2 0x264 JUMP JUMPDEST PUSH2 0x2A2 PUSH1 0x40 DUP4 ADD DUP8 PUSH2 0x1D4 JUMP JUMPDEST DUP2 DUP2 SUB PUSH1 0x60 DUP4 ADD MSTORE PUSH2 0x2B4 DUP2 DUP7 PUSH2 0x1E3 JUMP JUMPDEST SWAP1 POP DUP2 DUP2 SUB PUSH1 0x80 DUP4 ADD MSTORE PUSH2 0x2C8 DUP2 DUP6 PUSH2 0x22B JUMP JUMPDEST SWAP1 POP PUSH2 0x2D7 PUSH1 0xA0 DUP4 ADD DUP5 PUSH2 0x1C5 JUMP JUMPDEST SWAP8 SWAP7 POP POP POP POP POP POP POP JUMP JUMPDEST PUSH1 0x0 DUP2 MLOAD SWAP1 POP SWAP2 SWAP1 POP JUMP JUMPDEST PUSH1 0x0 DUP2 MLOAD SWAP1 POP SWAP2 SWAP1 POP JUMP JUMPDEST PUSH1 0x0 DUP3 DUP3 MSTORE PUSH1 0x20 DUP3 ADD SWAP1 POP SWAP3 SWAP2 POP POP JUMP JUMPDEST PUSH1 0x0 DUP3 DUP3 MSTORE PUSH1 0x20 DUP3 ADD SWAP1 POP SWAP3 SWAP2 POP POP JUMP JUMPDEST PUSH1 0x0 PUSH2 0x325 DUP3 PUSH2 0x342 JUMP JUMPDEST SWAP1 POP SWAP2 SWAP1 POP JUMP JUMPDEST PUSH1 0x0 DUP2 ISZERO ISZERO SWAP1 POP SWAP2 SWAP1 POP JUMP JUMPDEST PUSH1 0x0 DUP2 SWAP1 POP SWAP2 SWAP1 POP JUMP JUMPDEST PUSH1 0x0 PUSH20 0xFFFFFFFFFFFFFFFFFFFFFFFFFFFFFFFFFFFFFFFF DUP3 AND SWAP1 POP SWAP2 SWAP1 POP JUMP JUMPDEST PUSH1 0x0 DUP2 SWAP1 POP SWAP2 SWAP1 POP JUMP JUMPDEST PUSH1 0x0 JUMPDEST DUP4 DUP2 LT ISZERO PUSH2 0x38A JUMPI DUP1 DUP3 ADD MLOAD DUP2 DUP5 ADD MSTORE PUSH1 0x20 DUP2 ADD SWAP1 POP PUSH2 0x36F JUMP JUMPDEST DUP4 DUP2 GT ISZERO PUSH2 0x399 JUMPI PUSH1 0x0 DUP5 DUP5 ADD MSTORE JUMPDEST POP POP POP POP JUMP JUMPDEST PUSH1 0x0 PUSH1 0x2 DUP3 DIV SWAP1 POP PUSH1 0x1 DUP3 AND DUP1 PUSH2 0x3B7 JUMPI PUSH1 0x7F DUP3 AND SWAP2 POP JUMPDEST PUSH1 0x20 DUP3 LT DUP2 EQ ISZERO PUSH2 0x3CB JUMPI PUSH2 0x3CA PUSH2 0x3D1 JUMP JUMPDEST JUMPDEST POP SWAP2 SWAP1 POP JUMP JUMPDEST PUSH32 0x4E487B7100000000000000000000000000000000000000000000000000000000 PUSH1 0x0 MSTORE PUSH1 0x22 PUSH1 0x4 MSTORE PUSH1 0x24 PUSH1 0x0 REVERT JUMPDEST PUSH1 0x0 PUSH1 0x1F NOT PUSH1 0x1F DUP4 ADD AND SWAP1 POP SWAP2 SWAP1 POP JUMP INVALID LOG2 PUSH5 0x6970667358 0x22 SLT KECCAK256 0xD5 LOG2 0xA5 0x2E 0xD7 CODECOPY 0xB5 0xC9 ADD SLOAD LOG2 0xCA DUP6 PUSH5 0x2C16D3C5B5 NOT 0x4B SWAP15 0x2A 0xE0 NOT 0xCD 0xB0 0xAA SHL SWAP13 0x4E PUSH17 0x64736F6C63430008070033000000000000 "
				},
				"gasEstimates": {
					"creation": {
						"codeDepositCost": "219000",
						"executionCost": "263",
						"totalCost": "219263"
					},
					"external": {
						"assignment()": "infinite"
					}
				},
				"methodIdentifiers": {
					"assignment()": "71ca2ecf"
				}
			},
			"storageLayout": {
				"storage": [
					{
						"astId": 3,
						"contract": "chapter2/Ex2_1.sol:Ex2_1",
						"label": "a",
						"offset": 0,
						"slot": "0",
						"type": "t_int256"
					},
					{
						"astId": 5,
						"contract": "chapter2/Ex2_1.sol:Ex2_1",
						"label": "b",
						"offset": 0,
						"slot": "1",
						"type": "t_uint256"
					},
					{
						"astId": 7,
						"contract": "chapter2/Ex2_1.sol:Ex2_1",
						"label": "c",
						"offset": 0,
						"slot": "2",
						"type": "t_bool"
					},
					{
						"astId": 9,
						"contract": "chapter2/Ex2_1.sol:Ex2_1",
						"label": "d",
						"offset": 0,
						"slot": "3",
						"type": "t_bytes_storage"
					},
					{
						"astId": 11,
						"contract": "chapter2/Ex2_1.sol:Ex2_1",
						"label": "e",
						"offset": 0,
						"slot": "4",
						"type": "t_string_storage"
					},
					{
						"astId": 13,
						"contract": "chapter2/Ex2_1.sol:Ex2_1",
						"label": "f",
						"offset": 0,
						"slot": "5",
						"type": "t_address"
					}
				],
				"types": {
					"t_address": {
						"encoding": "inplace",
						"label": "address",
						"numberOfBytes": "20"
					},
					"t_bool": {
						"encoding": "inplace",
						"label": "bool",
						"numberOfBytes": "1"
					},
					"t_bytes_storage": {
						"encoding": "bytes",
						"label": "bytes",
						"numberOfBytes": "32"
					},
					"t_int256": {
						"encoding": "inplace",
						"label": "int256",
						"numberOfBytes": "32"
					},
					"t_string_storage": {
						"encoding": "bytes",
						"label": "string",
						"numberOfBytes": "32"
					},
					"t_uint256": {
						"encoding": "inplace",
						"label": "uint256",
						"numberOfBytes": "32"
					}
				}
			},
			"userdoc": {
				"kind": "user",
				"methods": {},
				"version": 1
			}
		}
	}
}