{
	"chapter2/Random.sol": {
		"Random": {
			"abi": [
				{
					"inputs": [
						{
							"internalType": "string",
							"name": "_key1",
							"type": "string"
						},
						{
							"internalType": "uint256",
							"name": "_key2",
							"type": "uint256"
						}
					],
					"stateMutability": "nonpayable",
					"type": "constructor"
				},
				{
					"anonymous": false,
					"inputs": [
						{
							"indexed": true,
							"internalType": "address",
							"name": "sender",
							"type": "address"
						},
						{
							"indexed": false,
							"internalType": "uint256",
							"name": "payment",
							"type": "uint256"
						}
					],
					"name": "PaidAddress",
					"type": "event"
				},
				{
					"anonymous": false,
					"inputs": [
						{
							"indexed": true,
							"internalType": "address",
							"name": "winner",
							"type": "address"
						}
					],
					"name": "WinnerAddress",
					"type": "event"
				},
				{
					"inputs": [
						{
							"internalType": "string",
							"name": "_key1",
							"type": "string"
						},
						{
							"internalType": "uint256",
							"name": "_key2",
							"type": "uint256"
						}
					],
					"name": "getSecretKey",
					"outputs": [],
					"stateMutability": "nonpayable",
					"type": "function"
				},
				{
					"inputs": [],
					"name": "getSecretKey",
					"outputs": [
						{
							"internalType": "string",
							"name": "",
							"type": "string"
						},
						{
							"internalType": "uint256",
							"name": "",
							"type": "uint256"
						}
					],
					"stateMutability": "view",
					"type": "function"
				},
				{
					"inputs": [],
					"name": "owner",
					"outputs": [
						{
							"internalType": "address",
							"name": "",
							"type": "address"
						}
					],
					"stateMutability": "view",
					"type": "function"
				},
				{
					"inputs": [
						{
							"internalType": "uint256",
							"name": "",
							"type": "uint256"
						},
						{
							"internalType": "address",
							"name": "",
							"type": "address"
						}
					],
					"name": "paidAddressList",
					"outputs": [
						{
							"internalType": "bool",
							"name": "",
							"type": "bool"
						}
					],
					"stateMutability": "view",
					"type": "function"
				},
				{
					"inputs": [],
					"name": "playNumber",
					"outputs": [
						{
							"internalType": "uint256",
							"name": "",
							"type": "uint256"
						}
					],
					"stateMutability": "view",
					"type": "function"
				},
				{
					"inputs": [],
					"name": "round",
					"outputs": [
						{
							"internalType": "uint256",
							"name": "",
							"type": "uint256"
						}
					],
					"stateMutability": "view",
					"type": "function"
				},
				{
					"inputs": [
						{
							"internalType": "string",
							"name": "_key1",
							"type": "string"
						},
						{
							"internalType": "uint256",
							"name": "_key2",
							"type": "uint256"
						}
					],
					"name": "setSecretKey",
					"outputs": [],
					"stateMutability": "nonpayable",
					"type": "function"
				},
				{
					"stateMutability": "payable",
					"type": "receive"
				}
			],
			"devdoc": {
				"kind": "dev",
				"methods": {},
				"version": 1
			},
			"evm": {
				"assembly": "    /* \"chapter2/Random.sol\":70:1873  contract Random {... */\n  mstore(0x40, 0x80)\n    /* \"chapter2/Random.sol\":452:453  0 */\n  0x00\n    /* \"chapter2/Random.sol\":424:453  uint private winnerNumber = 0 */\n  0x02\n  sstore\n    /* \"chapter2/Random.sol\":528:529  1 */\n  0x01\n    /* \"chapter2/Random.sol\":508:529  uint public round = 1 */\n  0x05\n  sstore\n    /* \"chapter2/Random.sol\":560:561  0 */\n  0x00\n    /* \"chapter2/Random.sol\":535:561  uint public playNumber = 0 */\n  0x06\n  sstore\n    /* \"chapter2/Random.sol\":568:731  constructor(string memory _key1, uint _key2) {... */\n  callvalue\n  dup1\n  iszero\n  tag_1\n  jumpi\n  0x00\n  dup1\n  revert\ntag_1:\n  pop\n  mload(0x40)\n  sub(codesize, bytecodeSize)\n  dup1\n  bytecodeSize\n  dup4\n  codecopy\n  dup2\n  dup2\n  add\n  0x40\n  mstore\n  dup2\n  add\n  swap1\n  tag_2\n  swap2\n  swap1\n  tag_3\n  jump\t// in\ntag_2:\n    /* \"chapter2/Random.sol\":631:641  msg.sender */\n  caller\n    /* \"chapter2/Random.sol\":623:628  owner */\n  0x01\n  0x00\n    /* \"chapter2/Random.sol\":623:641  owner = msg.sender */\n  0x0100\n  exp\n  dup2\n  sload\n  dup2\n  0xffffffffffffffffffffffffffffffffffffffff\n  mul\n  not\n  and\n  swap1\n  dup4\n  0xffffffffffffffffffffffffffffffffffffffff\n  and\n  mul\n  or\n  swap1\n  sstore\n  pop\n    /* \"chapter2/Random.sol\":658:663  _key1 */\n  dup2\n    /* \"chapter2/Random.sol\":651:655  key1 */\n  0x03\n    /* \"chapter2/Random.sol\":651:663  key1 = _key1 */\n  swap1\n  dup2\n  tag_6\n  swap2\n  swap1\n  tag_7\n  jump\t// in\ntag_6:\n  pop\n    /* \"chapter2/Random.sol\":680:685  _key2 */\n  dup1\n    /* \"chapter2/Random.sol\":673:677  key2 */\n  0x04\n    /* \"chapter2/Random.sol\":673:685  key2 = _key2 */\n  dup2\n  swap1\n  sstore\n  pop\n    /* \"chapter2/Random.sol\":710:724  randomNumber() */\n  tag_8\n    /* \"chapter2/Random.sol\":710:722  randomNumber */\n  shl(0x20, tag_9)\n    /* \"chapter2/Random.sol\":710:724  randomNumber() */\n  0x20\n  shr\n  jump\t// in\ntag_8:\n    /* \"chapter2/Random.sol\":695:707  winnerNumber */\n  0x02\n    /* \"chapter2/Random.sol\":695:724  winnerNumber = randomNumber() */\n  dup2\n  swap1\n  sstore\n  pop\n    /* \"chapter2/Random.sol\":568:731  constructor(string memory _key1, uint _key2) {... */\n  pop\n  pop\n    /* \"chapter2/Random.sol\":70:1873  contract Random {... */\n  jump(tag_10)\n    /* \"chapter2/Random.sol\":1289:1492  function randomNumber() private view returns(uint) {... */\ntag_9:\n    /* \"chapter2/Random.sol\":1334:1338  uint */\n  0x00\n    /* \"chapter2/Random.sol\":1350:1358  uint num */\n  dup1\n    /* \"chapter2/Random.sol\":1425:1437  block.number */\n  number\n    /* \"chapter2/Random.sol\":1405:1420  block.timestamp */\n  timestamp\n    /* \"chapter2/Random.sol\":1397:1401  key2 */\n  sload(0x04)\n    /* \"chapter2/Random.sol\":1387:1391  key1 */\n  0x03\n    /* \"chapter2/Random.sol\":1376:1392  abi.encode(key1) */\n  add(0x20, mload(0x40))\n  tag_12\n  swap2\n  swap1\n  tag_13\n  jump\t// in\ntag_12:\n  mload(0x40)\n  0x20\n  dup2\n  dup4\n  sub\n  sub\n  dup2\n  mstore\n  swap1\n  0x40\n  mstore\n    /* \"chapter2/Random.sol\":1366:1393  keccak256(abi.encode(key1)) */\n  dup1\n  mload\n  swap1\n  0x20\n  add\n  keccak256\n    /* \"chapter2/Random.sol\":1361:1394  uint(keccak256(abi.encode(key1))) */\n  0x00\n  shr\n    /* \"chapter2/Random.sol\":1361:1401  uint(keccak256(abi.encode(key1))) + key2 */\n  tag_14\n  swap2\n  swap1\n  tag_15\n  jump\t// in\ntag_14:\n    /* \"chapter2/Random.sol\":1361:1421  uint(keccak256(abi.encode(key1))) + key2 + (block.timestamp) */\n  tag_16\n  swap2\n  swap1\n  tag_15\n  jump\t// in\ntag_16:\n    /* \"chapter2/Random.sol\":1361:1438  uint(keccak256(abi.encode(key1))) + key2 + (block.timestamp) + (block.number) */\n  tag_17\n  swap2\n  swap1\n  tag_15\n  jump\t// in\ntag_17:\n    /* \"chapter2/Random.sol\":1350:1438  uint num = uint(keccak256(abi.encode(key1))) + key2 + (block.timestamp) + (block.number) */\n  swap1\n  pop\n    /* \"chapter2/Random.sol\":1484:1485  1 */\n  0x01\n    /* \"chapter2/Random.sol\":1477:1479  10 */\n  0x0a\n    /* \"chapter2/Random.sol\":1471:1473  10 */\n  dup1\n    /* \"chapter2/Random.sol\":1465:1468  num */\n  dup4\n    /* \"chapter2/Random.sol\":1465:1473  num / 10 */\n  tag_18\n  swap2\n  swap1\n  tag_19\n  jump\t// in\ntag_18:\n    /* \"chapter2/Random.sol\":1464:1479  (num / 10) * 10 */\n  tag_20\n  swap2\n  swap1\n  tag_21\n  jump\t// in\ntag_20:\n    /* \"chapter2/Random.sol\":1457:1460  num */\n  dup3\n    /* \"chapter2/Random.sol\":1457:1480  num - ((num / 10) * 10) */\n  tag_22\n  swap2\n  swap1\n  tag_23\n  jump\t// in\ntag_22:\n    /* \"chapter2/Random.sol\":1456:1485  (num - ((num / 10) * 10)) + 1 */\n  tag_24\n  swap2\n  swap1\n  tag_15\n  jump\t// in\ntag_24:\n    /* \"chapter2/Random.sol\":1449:1485  return (num - ((num / 10) * 10)) + 1 */\n  swap2\n  pop\n  pop\n    /* \"chapter2/Random.sol\":1289:1492  function randomNumber() private view returns(uint) {... */\n  swap1\n  jump\t// out\n    /* \"#utility.yul\":7:82   */\ntag_25:\n    /* \"#utility.yul\":40:46   */\n  0x00\n    /* \"#utility.yul\":73:75   */\n  0x40\n    /* \"#utility.yul\":67:76   */\n  mload\n    /* \"#utility.yul\":57:76   */\n  swap1\n  pop\n    /* \"#utility.yul\":7:82   */\n  swap1\n  jump\t// out\n    /* \"#utility.yul\":88:205   */\ntag_26:\n    /* \"#utility.yul\":197:198   */\n  0x00\n    /* \"#utility.yul\":194:195   */\n  dup1\n    /* \"#utility.yul\":187:199   */\n  revert\n    /* \"#utility.yul\":211:328   */\ntag_27:\n    /* \"#utility.yul\":320:321   */\n  0x00\n    /* \"#utility.yul\":317:318   */\n  dup1\n    /* \"#utility.yul\":310:322   */\n  revert\n    /* \"#utility.yul\":334:451   */\ntag_28:\n    /* \"#utility.yul\":443:444   */\n  0x00\n    /* \"#utility.yul\":440:441   */\n  dup1\n    /* \"#utility.yul\":433:445   */\n  revert\n    /* \"#utility.yul\":457:574   */\ntag_29:\n    /* \"#utility.yul\":566:567   */\n  0x00\n    /* \"#utility.yul\":563:564   */\n  dup1\n    /* \"#utility.yul\":556:568   */\n  revert\n    /* \"#utility.yul\":580:682   */\ntag_30:\n    /* \"#utility.yul\":621:627   */\n  0x00\n    /* \"#utility.yul\":672:674   */\n  0x1f\n    /* \"#utility.yul\":668:675   */\n  not\n    /* \"#utility.yul\":663:665   */\n  0x1f\n    /* \"#utility.yul\":656:661   */\n  dup4\n    /* \"#utility.yul\":652:666   */\n  add\n    /* \"#utility.yul\":648:676   */\n  and\n    /* \"#utility.yul\":638:676   */\n  swap1\n  pop\n    /* \"#utility.yul\":580:682   */\n  swap2\n  swap1\n  pop\n  jump\t// out\n    /* \"#utility.yul\":688:868   */\ntag_31:\n    /* \"#utility.yul\":736:813   */\n  0x4e487b7100000000000000000000000000000000000000000000000000000000\n    /* \"#utility.yul\":733:734   */\n  0x00\n    /* \"#utility.yul\":726:814   */\n  mstore\n    /* \"#utility.yul\":833:837   */\n  0x41\n    /* \"#utility.yul\":830:831   */\n  0x04\n    /* \"#utility.yul\":823:838   */\n  mstore\n    /* \"#utility.yul\":857:861   */\n  0x24\n    /* \"#utility.yul\":854:855   */\n  0x00\n    /* \"#utility.yul\":847:862   */\n  revert\n    /* \"#utility.yul\":874:1155   */\ntag_32:\n    /* \"#utility.yul\":957:984   */\n  tag_72\n    /* \"#utility.yul\":979:983   */\n  dup3\n    /* \"#utility.yul\":957:984   */\n  tag_30\n  jump\t// in\ntag_72:\n    /* \"#utility.yul\":949:955   */\n  dup2\n    /* \"#utility.yul\":945:985   */\n  add\n    /* \"#utility.yul\":1087:1093   */\n  dup2\n    /* \"#utility.yul\":1075:1085   */\n  dup2\n    /* \"#utility.yul\":1072:1094   */\n  lt\n    /* \"#utility.yul\":1051:1069   */\n  0xffffffffffffffff\n    /* \"#utility.yul\":1039:1049   */\n  dup3\n    /* \"#utility.yul\":1036:1070   */\n  gt\n    /* \"#utility.yul\":1033:1095   */\n  or\n    /* \"#utility.yul\":1030:1118   */\n  iszero\n  tag_73\n  jumpi\n    /* \"#utility.yul\":1098:1116   */\n  tag_74\n  tag_31\n  jump\t// in\ntag_74:\n    /* \"#utility.yul\":1030:1118   */\ntag_73:\n    /* \"#utility.yul\":1138:1148   */\n  dup1\n    /* \"#utility.yul\":1134:1136   */\n  0x40\n    /* \"#utility.yul\":1127:1149   */\n  mstore\n    /* \"#utility.yul\":917:1155   */\n  pop\n    /* \"#utility.yul\":874:1155   */\n  pop\n  pop\n  jump\t// out\n    /* \"#utility.yul\":1161:1290   */\ntag_33:\n    /* \"#utility.yul\":1195:1201   */\n  0x00\n    /* \"#utility.yul\":1222:1242   */\n  tag_76\n  tag_25\n  jump\t// in\ntag_76:\n    /* \"#utility.yul\":1212:1242   */\n  swap1\n  pop\n    /* \"#utility.yul\":1251:1284   */\n  tag_77\n    /* \"#utility.yul\":1279:1283   */\n  dup3\n    /* \"#utility.yul\":1271:1277   */\n  dup3\n    /* \"#utility.yul\":1251:1284   */\n  tag_32\n  jump\t// in\ntag_77:\n    /* \"#utility.yul\":1161:1290   */\n  swap2\n  swap1\n  pop\n  jump\t// out\n    /* \"#utility.yul\":1296:1604   */\ntag_34:\n    /* \"#utility.yul\":1358:1362   */\n  0x00\n    /* \"#utility.yul\":1448:1466   */\n  0xffffffffffffffff\n    /* \"#utility.yul\":1440:1446   */\n  dup3\n    /* \"#utility.yul\":1437:1467   */\n  gt\n    /* \"#utility.yul\":1434:1490   */\n  iszero\n  tag_79\n  jumpi\n    /* \"#utility.yul\":1470:1488   */\n  tag_80\n  tag_31\n  jump\t// in\ntag_80:\n    /* \"#utility.yul\":1434:1490   */\ntag_79:\n    /* \"#utility.yul\":1508:1537   */\n  tag_81\n    /* \"#utility.yul\":1530:1536   */\n  dup3\n    /* \"#utility.yul\":1508:1537   */\n  tag_30\n  jump\t// in\ntag_81:\n    /* \"#utility.yul\":1500:1537   */\n  swap1\n  pop\n    /* \"#utility.yul\":1592:1596   */\n  0x20\n    /* \"#utility.yul\":1586:1590   */\n  dup2\n    /* \"#utility.yul\":1582:1597   */\n  add\n    /* \"#utility.yul\":1574:1597   */\n  swap1\n  pop\n    /* \"#utility.yul\":1296:1604   */\n  swap2\n  swap1\n  pop\n  jump\t// out\n    /* \"#utility.yul\":1610:1856   */\ntag_35:\n    /* \"#utility.yul\":1691:1692   */\n  0x00\n    /* \"#utility.yul\":1701:1814   */\ntag_83:\n    /* \"#utility.yul\":1715:1721   */\n  dup4\n    /* \"#utility.yul\":1712:1713   */\n  dup2\n    /* \"#utility.yul\":1709:1722   */\n  lt\n    /* \"#utility.yul\":1701:1814   */\n  iszero\n  tag_85\n  jumpi\n    /* \"#utility.yul\":1800:1801   */\n  dup1\n    /* \"#utility.yul\":1795:1798   */\n  dup3\n    /* \"#utility.yul\":1791:1802   */\n  add\n    /* \"#utility.yul\":1785:1803   */\n  mload\n    /* \"#utility.yul\":1781:1782   */\n  dup2\n    /* \"#utility.yul\":1776:1779   */\n  dup5\n    /* \"#utility.yul\":1772:1783   */\n  add\n    /* \"#utility.yul\":1765:1804   */\n  mstore\n    /* \"#utility.yul\":1737:1739   */\n  0x20\n    /* \"#utility.yul\":1734:1735   */\n  dup2\n    /* \"#utility.yul\":1730:1740   */\n  add\n    /* \"#utility.yul\":1725:1740   */\n  swap1\n  pop\n    /* \"#utility.yul\":1701:1814   */\n  jump(tag_83)\ntag_85:\n    /* \"#utility.yul\":1848:1849   */\n  0x00\n    /* \"#utility.yul\":1839:1845   */\n  dup5\n    /* \"#utility.yul\":1834:1837   */\n  dup5\n    /* \"#utility.yul\":1830:1846   */\n  add\n    /* \"#utility.yul\":1823:1850   */\n  mstore\n    /* \"#utility.yul\":1672:1856   */\n  pop\n    /* \"#utility.yul\":1610:1856   */\n  pop\n  pop\n  pop\n  jump\t// out\n    /* \"#utility.yul\":1862:2296   */\ntag_36:\n    /* \"#utility.yul\":1951:1956   */\n  0x00\n    /* \"#utility.yul\":1976:2042   */\n  tag_87\n    /* \"#utility.yul\":1992:2041   */\n  tag_88\n    /* \"#utility.yul\":2034:2040   */\n  dup5\n    /* \"#utility.yul\":1992:2041   */\n  tag_34\n  jump\t// in\ntag_88:\n    /* \"#utility.yul\":1976:2042   */\n  tag_33\n  jump\t// in\ntag_87:\n    /* \"#utility.yul\":1967:2042   */\n  swap1\n  pop\n    /* \"#utility.yul\":2065:2071   */\n  dup3\n    /* \"#utility.yul\":2058:2063   */\n  dup2\n    /* \"#utility.yul\":2051:2072   */\n  mstore\n    /* \"#utility.yul\":2103:2107   */\n  0x20\n    /* \"#utility.yul\":2096:2101   */\n  dup2\n    /* \"#utility.yul\":2092:2108   */\n  add\n    /* \"#utility.yul\":2141:2144   */\n  dup5\n    /* \"#utility.yul\":2132:2138   */\n  dup5\n    /* \"#utility.yul\":2127:2130   */\n  dup5\n    /* \"#utility.yul\":2123:2139   */\n  add\n    /* \"#utility.yul\":2120:2145   */\n  gt\n    /* \"#utility.yul\":2117:2229   */\n  iszero\n  tag_89\n  jumpi\n    /* \"#utility.yul\":2148:2227   */\n  tag_90\n  tag_29\n  jump\t// in\ntag_90:\n    /* \"#utility.yul\":2117:2229   */\ntag_89:\n    /* \"#utility.yul\":2238:2290   */\n  tag_91\n    /* \"#utility.yul\":2283:2289   */\n  dup5\n    /* \"#utility.yul\":2278:2281   */\n  dup3\n    /* \"#utility.yul\":2273:2276   */\n  dup6\n    /* \"#utility.yul\":2238:2290   */\n  tag_35\n  jump\t// in\ntag_91:\n    /* \"#utility.yul\":1957:2296   */\n  pop\n    /* \"#utility.yul\":1862:2296   */\n  swap4\n  swap3\n  pop\n  pop\n  pop\n  jump\t// out\n    /* \"#utility.yul\":2316:2671   */\ntag_37:\n    /* \"#utility.yul\":2383:2388   */\n  0x00\n    /* \"#utility.yul\":2432:2435   */\n  dup3\n    /* \"#utility.yul\":2425:2429   */\n  0x1f\n    /* \"#utility.yul\":2417:2423   */\n  dup4\n    /* \"#utility.yul\":2413:2430   */\n  add\n    /* \"#utility.yul\":2409:2436   */\n  slt\n    /* \"#utility.yul\":2399:2521   */\n  tag_93\n  jumpi\n    /* \"#utility.yul\":2440:2519   */\n  tag_94\n  tag_28\n  jump\t// in\ntag_94:\n    /* \"#utility.yul\":2399:2521   */\ntag_93:\n    /* \"#utility.yul\":2550:2556   */\n  dup2\n    /* \"#utility.yul\":2544:2557   */\n  mload\n    /* \"#utility.yul\":2575:2665   */\n  tag_95\n    /* \"#utility.yul\":2661:2664   */\n  dup5\n    /* \"#utility.yul\":2653:2659   */\n  dup3\n    /* \"#utility.yul\":2646:2650   */\n  0x20\n    /* \"#utility.yul\":2638:2644   */\n  dup7\n    /* \"#utility.yul\":2634:2651   */\n  add\n    /* \"#utility.yul\":2575:2665   */\n  tag_36\n  jump\t// in\ntag_95:\n    /* \"#utility.yul\":2566:2665   */\n  swap2\n  pop\n    /* \"#utility.yul\":2389:2671   */\n  pop\n    /* \"#utility.yul\":2316:2671   */\n  swap3\n  swap2\n  pop\n  pop\n  jump\t// out\n    /* \"#utility.yul\":2677:2754   */\ntag_38:\n    /* \"#utility.yul\":2714:2721   */\n  0x00\n    /* \"#utility.yul\":2743:2748   */\n  dup2\n    /* \"#utility.yul\":2732:2748   */\n  swap1\n  pop\n    /* \"#utility.yul\":2677:2754   */\n  swap2\n  swap1\n  pop\n  jump\t// out\n    /* \"#utility.yul\":2760:2882   */\ntag_39:\n    /* \"#utility.yul\":2833:2857   */\n  tag_98\n    /* \"#utility.yul\":2851:2856   */\n  dup2\n    /* \"#utility.yul\":2833:2857   */\n  tag_38\n  jump\t// in\ntag_98:\n    /* \"#utility.yul\":2826:2831   */\n  dup2\n    /* \"#utility.yul\":2823:2858   */\n  eq\n    /* \"#utility.yul\":2813:2876   */\n  tag_99\n  jumpi\n    /* \"#utility.yul\":2872:2873   */\n  0x00\n    /* \"#utility.yul\":2869:2870   */\n  dup1\n    /* \"#utility.yul\":2862:2874   */\n  revert\n    /* \"#utility.yul\":2813:2876   */\ntag_99:\n    /* \"#utility.yul\":2760:2882   */\n  pop\n  jump\t// out\n    /* \"#utility.yul\":2888:3031   */\ntag_40:\n    /* \"#utility.yul\":2945:2950   */\n  0x00\n    /* \"#utility.yul\":2976:2982   */\n  dup2\n    /* \"#utility.yul\":2970:2983   */\n  mload\n    /* \"#utility.yul\":2961:2983   */\n  swap1\n  pop\n    /* \"#utility.yul\":2992:3025   */\n  tag_101\n    /* \"#utility.yul\":3019:3024   */\n  dup2\n    /* \"#utility.yul\":2992:3025   */\n  tag_39\n  jump\t// in\ntag_101:\n    /* \"#utility.yul\":2888:3031   */\n  swap3\n  swap2\n  pop\n  pop\n  jump\t// out\n    /* \"#utility.yul\":3037:3717   */\ntag_3:\n    /* \"#utility.yul\":3126:3132   */\n  0x00\n    /* \"#utility.yul\":3134:3140   */\n  dup1\n    /* \"#utility.yul\":3183:3185   */\n  0x40\n    /* \"#utility.yul\":3171:3180   */\n  dup4\n    /* \"#utility.yul\":3162:3169   */\n  dup6\n    /* \"#utility.yul\":3158:3181   */\n  sub\n    /* \"#utility.yul\":3154:3186   */\n  slt\n    /* \"#utility.yul\":3151:3270   */\n  iszero\n  tag_103\n  jumpi\n    /* \"#utility.yul\":3189:3268   */\n  tag_104\n  tag_26\n  jump\t// in\ntag_104:\n    /* \"#utility.yul\":3151:3270   */\ntag_103:\n    /* \"#utility.yul\":3330:3331   */\n  0x00\n    /* \"#utility.yul\":3319:3328   */\n  dup4\n    /* \"#utility.yul\":3315:3332   */\n  add\n    /* \"#utility.yul\":3309:3333   */\n  mload\n    /* \"#utility.yul\":3360:3378   */\n  0xffffffffffffffff\n    /* \"#utility.yul\":3352:3358   */\n  dup2\n    /* \"#utility.yul\":3349:3379   */\n  gt\n    /* \"#utility.yul\":3346:3463   */\n  iszero\n  tag_105\n  jumpi\n    /* \"#utility.yul\":3382:3461   */\n  tag_106\n  tag_27\n  jump\t// in\ntag_106:\n    /* \"#utility.yul\":3346:3463   */\ntag_105:\n    /* \"#utility.yul\":3487:3561   */\n  tag_107\n    /* \"#utility.yul\":3553:3560   */\n  dup6\n    /* \"#utility.yul\":3544:3550   */\n  dup3\n    /* \"#utility.yul\":3533:3542   */\n  dup7\n    /* \"#utility.yul\":3529:3551   */\n  add\n    /* \"#utility.yul\":3487:3561   */\n  tag_37\n  jump\t// in\ntag_107:\n    /* \"#utility.yul\":3477:3561   */\n  swap3\n  pop\n    /* \"#utility.yul\":3280:3571   */\n  pop\n    /* \"#utility.yul\":3610:3612   */\n  0x20\n    /* \"#utility.yul\":3636:3700   */\n  tag_108\n    /* \"#utility.yul\":3692:3699   */\n  dup6\n    /* \"#utility.yul\":3683:3689   */\n  dup3\n    /* \"#utility.yul\":3672:3681   */\n  dup7\n    /* \"#utility.yul\":3668:3690   */\n  add\n    /* \"#utility.yul\":3636:3700   */\n  tag_40\n  jump\t// in\ntag_108:\n    /* \"#utility.yul\":3626:3700   */\n  swap2\n  pop\n    /* \"#utility.yul\":3581:3710   */\n  pop\n    /* \"#utility.yul\":3037:3717   */\n  swap3\n  pop\n  swap3\n  swap1\n  pop\n  jump\t// out\n    /* \"#utility.yul\":3723:3822   */\ntag_41:\n    /* \"#utility.yul\":3775:3781   */\n  0x00\n    /* \"#utility.yul\":3809:3814   */\n  dup2\n    /* \"#utility.yul\":3803:3815   */\n  mload\n    /* \"#utility.yul\":3793:3815   */\n  swap1\n  pop\n    /* \"#utility.yul\":3723:3822   */\n  swap2\n  swap1\n  pop\n  jump\t// out\n    /* \"#utility.yul\":3828:4008   */\ntag_42:\n    /* \"#utility.yul\":3876:3953   */\n  0x4e487b7100000000000000000000000000000000000000000000000000000000\n    /* \"#utility.yul\":3873:3874   */\n  0x00\n    /* \"#utility.yul\":3866:3954   */\n  mstore\n    /* \"#utility.yul\":3973:3977   */\n  0x22\n    /* \"#utility.yul\":3970:3971   */\n  0x04\n    /* \"#utility.yul\":3963:3978   */\n  mstore\n    /* \"#utility.yul\":3997:4001   */\n  0x24\n    /* \"#utility.yul\":3994:3995   */\n  0x00\n    /* \"#utility.yul\":3987:4002   */\n  revert\n    /* \"#utility.yul\":4014:4334   */\ntag_43:\n    /* \"#utility.yul\":4058:4064   */\n  0x00\n    /* \"#utility.yul\":4095:4096   */\n  0x02\n    /* \"#utility.yul\":4089:4093   */\n  dup3\n    /* \"#utility.yul\":4085:4097   */\n  div\n    /* \"#utility.yul\":4075:4097   */\n  swap1\n  pop\n    /* \"#utility.yul\":4142:4143   */\n  0x01\n    /* \"#utility.yul\":4136:4140   */\n  dup3\n    /* \"#utility.yul\":4132:4144   */\n  and\n    /* \"#utility.yul\":4163:4181   */\n  dup1\n    /* \"#utility.yul\":4153:4234   */\n  tag_112\n  jumpi\n    /* \"#utility.yul\":4219:4223   */\n  0x7f\n    /* \"#utility.yul\":4211:4217   */\n  dup3\n    /* \"#utility.yul\":4207:4224   */\n  and\n    /* \"#utility.yul\":4197:4224   */\n  swap2\n  pop\n    /* \"#utility.yul\":4153:4234   */\ntag_112:\n    /* \"#utility.yul\":4281:4283   */\n  0x20\n    /* \"#utility.yul\":4273:4279   */\n  dup3\n    /* \"#utility.yul\":4270:4284   */\n  lt\n    /* \"#utility.yul\":4250:4268   */\n  dup2\n    /* \"#utility.yul\":4247:4285   */\n  sub\n    /* \"#utility.yul\":4244:4328   */\n  tag_113\n  jumpi\n    /* \"#utility.yul\":4300:4318   */\n  tag_114\n  tag_42\n  jump\t// in\ntag_114:\n    /* \"#utility.yul\":4244:4328   */\ntag_113:\n    /* \"#utility.yul\":4065:4334   */\n  pop\n    /* \"#utility.yul\":4014:4334   */\n  swap2\n  swap1\n  pop\n  jump\t// out\n    /* \"#utility.yul\":4340:4481   */\ntag_44:\n    /* \"#utility.yul\":4389:4393   */\n  0x00\n    /* \"#utility.yul\":4412:4415   */\n  dup2\n    /* \"#utility.yul\":4404:4415   */\n  swap1\n  pop\n    /* \"#utility.yul\":4435:4438   */\n  dup2\n    /* \"#utility.yul\":4432:4433   */\n  0x00\n    /* \"#utility.yul\":4425:4439   */\n  mstore\n    /* \"#utility.yul\":4469:4473   */\n  0x20\n    /* \"#utility.yul\":4466:4467   */\n  0x00\n    /* \"#utility.yul\":4456:4474   */\n  keccak256\n    /* \"#utility.yul\":4448:4474   */\n  swap1\n  pop\n    /* \"#utility.yul\":4340:4481   */\n  swap2\n  swap1\n  pop\n  jump\t// out\n    /* \"#utility.yul\":4487:4580   */\ntag_45:\n    /* \"#utility.yul\":4524:4530   */\n  0x00\n    /* \"#utility.yul\":4571:4573   */\n  0x20\n    /* \"#utility.yul\":4566:4568   */\n  0x1f\n    /* \"#utility.yul\":4559:4564   */\n  dup4\n    /* \"#utility.yul\":4555:4569   */\n  add\n    /* \"#utility.yul\":4551:4574   */\n  div\n    /* \"#utility.yul\":4541:4574   */\n  swap1\n  pop\n    /* \"#utility.yul\":4487:4580   */\n  swap2\n  swap1\n  pop\n  jump\t// out\n    /* \"#utility.yul\":4586:4693   */\ntag_46:\n    /* \"#utility.yul\":4630:4638   */\n  0x00\n    /* \"#utility.yul\":4680:4685   */\n  dup3\n    /* \"#utility.yul\":4674:4678   */\n  dup3\n    /* \"#utility.yul\":4670:4686   */\n  shl\n    /* \"#utility.yul\":4649:4686   */\n  swap1\n  pop\n    /* \"#utility.yul\":4586:4693   */\n  swap3\n  swap2\n  pop\n  pop\n  jump\t// out\n    /* \"#utility.yul\":4699:5092   */\ntag_47:\n    /* \"#utility.yul\":4768:4774   */\n  0x00\n    /* \"#utility.yul\":4818:4819   */\n  0x08\n    /* \"#utility.yul\":4806:4816   */\n  dup4\n    /* \"#utility.yul\":4802:4820   */\n  mul\n    /* \"#utility.yul\":4841:4938   */\n  tag_119\n    /* \"#utility.yul\":4871:4937   */\n  0xffffffffffffffffffffffffffffffffffffffffffffffffffffffffffffffff\n    /* \"#utility.yul\":4860:4869   */\n  dup3\n    /* \"#utility.yul\":4841:4938   */\n  tag_46\n  jump\t// in\ntag_119:\n    /* \"#utility.yul\":4959:4998   */\n  tag_120\n    /* \"#utility.yul\":4989:4997   */\n  dup7\n    /* \"#utility.yul\":4978:4987   */\n  dup4\n    /* \"#utility.yul\":4959:4998   */\n  tag_46\n  jump\t// in\ntag_120:\n    /* \"#utility.yul\":4947:4998   */\n  swap6\n  pop\n    /* \"#utility.yul\":5031:5035   */\n  dup1\n    /* \"#utility.yul\":5027:5036   */\n  not\n    /* \"#utility.yul\":5020:5025   */\n  dup5\n    /* \"#utility.yul\":5016:5037   */\n  and\n    /* \"#utility.yul\":5007:5037   */\n  swap4\n  pop\n    /* \"#utility.yul\":5080:5084   */\n  dup1\n    /* \"#utility.yul\":5070:5078   */\n  dup7\n    /* \"#utility.yul\":5066:5085   */\n  and\n    /* \"#utility.yul\":5059:5064   */\n  dup5\n    /* \"#utility.yul\":5056:5086   */\n  or\n    /* \"#utility.yul\":5046:5086   */\n  swap3\n  pop\n    /* \"#utility.yul\":4775:5092   */\n  pop\n  pop\n    /* \"#utility.yul\":4699:5092   */\n  swap4\n  swap3\n  pop\n  pop\n  pop\n  jump\t// out\n    /* \"#utility.yul\":5098:5158   */\ntag_48:\n    /* \"#utility.yul\":5126:5129   */\n  0x00\n    /* \"#utility.yul\":5147:5152   */\n  dup2\n    /* \"#utility.yul\":5140:5152   */\n  swap1\n  pop\n    /* \"#utility.yul\":5098:5158   */\n  swap2\n  swap1\n  pop\n  jump\t// out\n    /* \"#utility.yul\":5164:5306   */\ntag_49:\n    /* \"#utility.yul\":5214:5223   */\n  0x00\n    /* \"#utility.yul\":5247:5300   */\n  tag_123\n    /* \"#utility.yul\":5265:5299   */\n  tag_124\n    /* \"#utility.yul\":5274:5298   */\n  tag_125\n    /* \"#utility.yul\":5292:5297   */\n  dup5\n    /* \"#utility.yul\":5274:5298   */\n  tag_38\n  jump\t// in\ntag_125:\n    /* \"#utility.yul\":5265:5299   */\n  tag_48\n  jump\t// in\ntag_124:\n    /* \"#utility.yul\":5247:5300   */\n  tag_38\n  jump\t// in\ntag_123:\n    /* \"#utility.yul\":5234:5300   */\n  swap1\n  pop\n    /* \"#utility.yul\":5164:5306   */\n  swap2\n  swap1\n  pop\n  jump\t// out\n    /* \"#utility.yul\":5312:5387   */\ntag_50:\n    /* \"#utility.yul\":5355:5358   */\n  0x00\n    /* \"#utility.yul\":5376:5381   */\n  dup2\n    /* \"#utility.yul\":5369:5381   */\n  swap1\n  pop\n    /* \"#utility.yul\":5312:5387   */\n  swap2\n  swap1\n  pop\n  jump\t// out\n    /* \"#utility.yul\":5393:5662   */\ntag_51:\n    /* \"#utility.yul\":5503:5542   */\n  tag_128\n    /* \"#utility.yul\":5534:5541   */\n  dup4\n    /* \"#utility.yul\":5503:5542   */\n  tag_49\n  jump\t// in\ntag_128:\n    /* \"#utility.yul\":5564:5655   */\n  tag_129\n    /* \"#utility.yul\":5613:5654   */\n  tag_130\n    /* \"#utility.yul\":5637:5653   */\n  dup3\n    /* \"#utility.yul\":5613:5654   */\n  tag_50\n  jump\t// in\ntag_130:\n    /* \"#utility.yul\":5605:5611   */\n  dup5\n    /* \"#utility.yul\":5598:5602   */\n  dup5\n    /* \"#utility.yul\":5592:5603   */\n  sload\n    /* \"#utility.yul\":5564:5655   */\n  tag_47\n  jump\t// in\ntag_129:\n    /* \"#utility.yul\":5558:5562   */\n  dup3\n    /* \"#utility.yul\":5551:5656   */\n  sstore\n    /* \"#utility.yul\":5469:5662   */\n  pop\n    /* \"#utility.yul\":5393:5662   */\n  pop\n  pop\n  pop\n  jump\t// out\n    /* \"#utility.yul\":5668:5741   */\ntag_52:\n    /* \"#utility.yul\":5713:5716   */\n  0x00\n    /* \"#utility.yul\":5668:5741   */\n  swap1\n  jump\t// out\n    /* \"#utility.yul\":5747:5936   */\ntag_53:\n    /* \"#utility.yul\":5824:5856   */\n  tag_133\n  tag_52\n  jump\t// in\ntag_133:\n    /* \"#utility.yul\":5865:5930   */\n  tag_134\n    /* \"#utility.yul\":5923:5929   */\n  dup2\n    /* \"#utility.yul\":5915:5921   */\n  dup5\n    /* \"#utility.yul\":5909:5913   */\n  dup5\n    /* \"#utility.yul\":5865:5930   */\n  tag_51\n  jump\t// in\ntag_134:\n    /* \"#utility.yul\":5800:5936   */\n  pop\n    /* \"#utility.yul\":5747:5936   */\n  pop\n  pop\n  jump\t// out\n    /* \"#utility.yul\":5942:6128   */\ntag_54:\n    /* \"#utility.yul\":6002:6122   */\ntag_136:\n    /* \"#utility.yul\":6019:6022   */\n  dup2\n    /* \"#utility.yul\":6012:6017   */\n  dup2\n    /* \"#utility.yul\":6009:6023   */\n  lt\n    /* \"#utility.yul\":6002:6122   */\n  iszero\n  tag_138\n  jumpi\n    /* \"#utility.yul\":6073:6112   */\n  tag_139\n    /* \"#utility.yul\":6110:6111   */\n  0x00\n    /* \"#utility.yul\":6103:6108   */\n  dup3\n    /* \"#utility.yul\":6073:6112   */\n  tag_53\n  jump\t// in\ntag_139:\n    /* \"#utility.yul\":6046:6047   */\n  0x01\n    /* \"#utility.yul\":6039:6044   */\n  dup2\n    /* \"#utility.yul\":6035:6048   */\n  add\n    /* \"#utility.yul\":6026:6048   */\n  swap1\n  pop\n    /* \"#utility.yul\":6002:6122   */\n  jump(tag_136)\ntag_138:\n    /* \"#utility.yul\":5942:6128   */\n  pop\n  pop\n  jump\t// out\n    /* \"#utility.yul\":6134:6677   */\ntag_55:\n    /* \"#utility.yul\":6235:6237   */\n  0x1f\n    /* \"#utility.yul\":6230:6233   */\n  dup3\n    /* \"#utility.yul\":6227:6238   */\n  gt\n    /* \"#utility.yul\":6224:6670   */\n  iszero\n  tag_141\n  jumpi\n    /* \"#utility.yul\":6269:6307   */\n  tag_142\n    /* \"#utility.yul\":6301:6306   */\n  dup2\n    /* \"#utility.yul\":6269:6307   */\n  tag_44\n  jump\t// in\ntag_142:\n    /* \"#utility.yul\":6353:6382   */\n  tag_143\n    /* \"#utility.yul\":6371:6381   */\n  dup5\n    /* \"#utility.yul\":6353:6382   */\n  tag_45\n  jump\t// in\ntag_143:\n    /* \"#utility.yul\":6343:6351   */\n  dup2\n    /* \"#utility.yul\":6339:6383   */\n  add\n    /* \"#utility.yul\":6536:6538   */\n  0x20\n    /* \"#utility.yul\":6524:6534   */\n  dup6\n    /* \"#utility.yul\":6521:6539   */\n  lt\n    /* \"#utility.yul\":6518:6567   */\n  iszero\n  tag_144\n  jumpi\n    /* \"#utility.yul\":6557:6565   */\n  dup2\n    /* \"#utility.yul\":6542:6565   */\n  swap1\n  pop\n    /* \"#utility.yul\":6518:6567   */\ntag_144:\n    /* \"#utility.yul\":6580:6660   */\n  tag_145\n    /* \"#utility.yul\":6636:6658   */\n  tag_146\n    /* \"#utility.yul\":6654:6657   */\n  dup6\n    /* \"#utility.yul\":6636:6658   */\n  tag_45\n  jump\t// in\ntag_146:\n    /* \"#utility.yul\":6626:6634   */\n  dup4\n    /* \"#utility.yul\":6622:6659   */\n  add\n    /* \"#utility.yul\":6609:6620   */\n  dup3\n    /* \"#utility.yul\":6580:6660   */\n  tag_54\n  jump\t// in\ntag_145:\n    /* \"#utility.yul\":6239:6670   */\n  pop\n  pop\n    /* \"#utility.yul\":6224:6670   */\ntag_141:\n    /* \"#utility.yul\":6134:6677   */\n  pop\n  pop\n  pop\n  jump\t// out\n    /* \"#utility.yul\":6683:6800   */\ntag_56:\n    /* \"#utility.yul\":6737:6745   */\n  0x00\n    /* \"#utility.yul\":6787:6792   */\n  dup3\n    /* \"#utility.yul\":6781:6785   */\n  dup3\n    /* \"#utility.yul\":6777:6793   */\n  shr\n    /* \"#utility.yul\":6756:6793   */\n  swap1\n  pop\n    /* \"#utility.yul\":6683:6800   */\n  swap3\n  swap2\n  pop\n  pop\n  jump\t// out\n    /* \"#utility.yul\":6806:6975   */\ntag_57:\n    /* \"#utility.yul\":6850:6856   */\n  0x00\n    /* \"#utility.yul\":6883:6934   */\n  tag_149\n    /* \"#utility.yul\":6931:6932   */\n  0x00\n    /* \"#utility.yul\":6927:6933   */\n  not\n    /* \"#utility.yul\":6919:6924   */\n  dup5\n    /* \"#utility.yul\":6916:6917   */\n  0x08\n    /* \"#utility.yul\":6912:6925   */\n  mul\n    /* \"#utility.yul\":6883:6934   */\n  tag_56\n  jump\t// in\ntag_149:\n    /* \"#utility.yul\":6879:6935   */\n  not\n    /* \"#utility.yul\":6964:6968   */\n  dup1\n    /* \"#utility.yul\":6958:6962   */\n  dup4\n    /* \"#utility.yul\":6954:6969   */\n  and\n    /* \"#utility.yul\":6944:6969   */\n  swap2\n  pop\n    /* \"#utility.yul\":6857:6975   */\n  pop\n    /* \"#utility.yul\":6806:6975   */\n  swap3\n  swap2\n  pop\n  pop\n  jump\t// out\n    /* \"#utility.yul\":6980:7275   */\ntag_58:\n    /* \"#utility.yul\":7056:7060   */\n  0x00\n    /* \"#utility.yul\":7202:7231   */\n  tag_151\n    /* \"#utility.yul\":7227:7230   */\n  dup4\n    /* \"#utility.yul\":7221:7225   */\n  dup4\n    /* \"#utility.yul\":7202:7231   */\n  tag_57\n  jump\t// in\ntag_151:\n    /* \"#utility.yul\":7194:7231   */\n  swap2\n  pop\n    /* \"#utility.yul\":7264:7267   */\n  dup3\n    /* \"#utility.yul\":7261:7262   */\n  0x02\n    /* \"#utility.yul\":7257:7268   */\n  mul\n    /* \"#utility.yul\":7251:7255   */\n  dup3\n    /* \"#utility.yul\":7248:7269   */\n  or\n    /* \"#utility.yul\":7240:7269   */\n  swap1\n  pop\n    /* \"#utility.yul\":6980:7275   */\n  swap3\n  swap2\n  pop\n  pop\n  jump\t// out\n    /* \"#utility.yul\":7280:8675   */\ntag_7:\n    /* \"#utility.yul\":7397:7434   */\n  tag_153\n    /* \"#utility.yul\":7430:7433   */\n  dup3\n    /* \"#utility.yul\":7397:7434   */\n  tag_41\n  jump\t// in\ntag_153:\n    /* \"#utility.yul\":7499:7517   */\n  0xffffffffffffffff\n    /* \"#utility.yul\":7491:7497   */\n  dup2\n    /* \"#utility.yul\":7488:7518   */\n  gt\n    /* \"#utility.yul\":7485:7541   */\n  iszero\n  tag_154\n  jumpi\n    /* \"#utility.yul\":7521:7539   */\n  tag_155\n  tag_31\n  jump\t// in\ntag_155:\n    /* \"#utility.yul\":7485:7541   */\ntag_154:\n    /* \"#utility.yul\":7565:7603   */\n  tag_156\n    /* \"#utility.yul\":7597:7601   */\n  dup3\n    /* \"#utility.yul\":7591:7602   */\n  sload\n    /* \"#utility.yul\":7565:7603   */\n  tag_43\n  jump\t// in\ntag_156:\n    /* \"#utility.yul\":7650:7717   */\n  tag_157\n    /* \"#utility.yul\":7710:7716   */\n  dup3\n    /* \"#utility.yul\":7702:7708   */\n  dup3\n    /* \"#utility.yul\":7696:7700   */\n  dup6\n    /* \"#utility.yul\":7650:7717   */\n  tag_55\n  jump\t// in\ntag_157:\n    /* \"#utility.yul\":7744:7745   */\n  0x00\n    /* \"#utility.yul\":7768:7772   */\n  0x20\n    /* \"#utility.yul\":7755:7772   */\n  swap1\n  pop\n    /* \"#utility.yul\":7800:7802   */\n  0x1f\n    /* \"#utility.yul\":7792:7798   */\n  dup4\n    /* \"#utility.yul\":7789:7803   */\n  gt\n    /* \"#utility.yul\":7817:7818   */\n  0x01\n    /* \"#utility.yul\":7812:8430   */\n  dup2\n  eq\n  tag_159\n  jumpi\n    /* \"#utility.yul\":8474:8475   */\n  0x00\n    /* \"#utility.yul\":8491:8497   */\n  dup5\n    /* \"#utility.yul\":8488:8565   */\n  iszero\n  tag_160\n  jumpi\n    /* \"#utility.yul\":8540:8549   */\n  dup3\n    /* \"#utility.yul\":8535:8538   */\n  dup8\n    /* \"#utility.yul\":8531:8550   */\n  add\n    /* \"#utility.yul\":8525:8551   */\n  mload\n    /* \"#utility.yul\":8516:8551   */\n  swap1\n  pop\n    /* \"#utility.yul\":8488:8565   */\ntag_160:\n    /* \"#utility.yul\":8591:8658   */\n  tag_161\n    /* \"#utility.yul\":8651:8657   */\n  dup6\n    /* \"#utility.yul\":8644:8649   */\n  dup3\n    /* \"#utility.yul\":8591:8658   */\n  tag_58\n  jump\t// in\ntag_161:\n    /* \"#utility.yul\":8585:8589   */\n  dup7\n    /* \"#utility.yul\":8578:8659   */\n  sstore\n    /* \"#utility.yul\":8447:8669   */\n  pop\n    /* \"#utility.yul\":7782:8669   */\n  jump(tag_158)\n    /* \"#utility.yul\":7812:8430   */\ntag_159:\n    /* \"#utility.yul\":7864:7868   */\n  0x1f\n    /* \"#utility.yul\":7860:7869   */\n  not\n    /* \"#utility.yul\":7852:7858   */\n  dup5\n    /* \"#utility.yul\":7848:7870   */\n  and\n    /* \"#utility.yul\":7898:7935   */\n  tag_162\n    /* \"#utility.yul\":7930:7934   */\n  dup7\n    /* \"#utility.yul\":7898:7935   */\n  tag_44\n  jump\t// in\ntag_162:\n    /* \"#utility.yul\":7957:7958   */\n  0x00\n    /* \"#utility.yul\":7971:8179   */\ntag_163:\n    /* \"#utility.yul\":7985:7992   */\n  dup3\n    /* \"#utility.yul\":7982:7983   */\n  dup2\n    /* \"#utility.yul\":7979:7993   */\n  lt\n    /* \"#utility.yul\":7971:8179   */\n  iszero\n  tag_165\n  jumpi\n    /* \"#utility.yul\":8064:8073   */\n  dup5\n    /* \"#utility.yul\":8059:8062   */\n  dup10\n    /* \"#utility.yul\":8055:8074   */\n  add\n    /* \"#utility.yul\":8049:8075   */\n  mload\n    /* \"#utility.yul\":8041:8047   */\n  dup3\n    /* \"#utility.yul\":8034:8076   */\n  sstore\n    /* \"#utility.yul\":8115:8116   */\n  0x01\n    /* \"#utility.yul\":8107:8113   */\n  dup3\n    /* \"#utility.yul\":8103:8117   */\n  add\n    /* \"#utility.yul\":8093:8117   */\n  swap2\n  pop\n    /* \"#utility.yul\":8162:8164   */\n  0x20\n    /* \"#utility.yul\":8151:8160   */\n  dup6\n    /* \"#utility.yul\":8147:8165   */\n  add\n    /* \"#utility.yul\":8134:8165   */\n  swap5\n  pop\n    /* \"#utility.yul\":8008:8012   */\n  0x20\n    /* \"#utility.yul\":8005:8006   */\n  dup2\n    /* \"#utility.yul\":8001:8013   */\n  add\n    /* \"#utility.yul\":7996:8013   */\n  swap1\n  pop\n    /* \"#utility.yul\":7971:8179   */\n  jump(tag_163)\ntag_165:\n    /* \"#utility.yul\":8207:8213   */\n  dup7\n    /* \"#utility.yul\":8198:8205   */\n  dup4\n    /* \"#utility.yul\":8195:8214   */\n  lt\n    /* \"#utility.yul\":8192:8371   */\n  iszero\n  tag_166\n  jumpi\n    /* \"#utility.yul\":8265:8274   */\n  dup5\n    /* \"#utility.yul\":8260:8263   */\n  dup10\n    /* \"#utility.yul\":8256:8275   */\n  add\n    /* \"#utility.yul\":8250:8276   */\n  mload\n    /* \"#utility.yul\":8308:8356   */\n  tag_167\n    /* \"#utility.yul\":8350:8354   */\n  0x1f\n    /* \"#utility.yul\":8342:8348   */\n  dup10\n    /* \"#utility.yul\":8338:8355   */\n  and\n    /* \"#utility.yul\":8327:8336   */\n  dup3\n    /* \"#utility.yul\":8308:8356   */\n  tag_57\n  jump\t// in\ntag_167:\n    /* \"#utility.yul\":8300:8306   */\n  dup4\n    /* \"#utility.yul\":8293:8357   */\n  sstore\n    /* \"#utility.yul\":8215:8371   */\n  pop\n    /* \"#utility.yul\":8192:8371   */\ntag_166:\n    /* \"#utility.yul\":8417:8418   */\n  0x01\n    /* \"#utility.yul\":8413:8414   */\n  0x02\n    /* \"#utility.yul\":8405:8411   */\n  dup9\n    /* \"#utility.yul\":8401:8415   */\n  mul\n    /* \"#utility.yul\":8397:8419   */\n  add\n    /* \"#utility.yul\":8391:8395   */\n  dup9\n    /* \"#utility.yul\":8384:8420   */\n  sstore\n    /* \"#utility.yul\":7819:8430   */\n  pop\n  pop\n  pop\n    /* \"#utility.yul\":7782:8669   */\ntag_158:\n  pop\n    /* \"#utility.yul\":7372:8675   */\n  pop\n  pop\n  pop\n    /* \"#utility.yul\":7280:8675   */\n  pop\n  pop\n  jump\t// out\n    /* \"#utility.yul\":8681:8850   */\ntag_59:\n    /* \"#utility.yul\":8765:8776   */\n  0x00\n    /* \"#utility.yul\":8799:8805   */\n  dup3\n    /* \"#utility.yul\":8794:8797   */\n  dup3\n    /* \"#utility.yul\":8787:8806   */\n  mstore\n    /* \"#utility.yul\":8839:8843   */\n  0x20\n    /* \"#utility.yul\":8834:8837   */\n  dup3\n    /* \"#utility.yul\":8830:8844   */\n  add\n    /* \"#utility.yul\":8815:8844   */\n  swap1\n  pop\n    /* \"#utility.yul\":8681:8850   */\n  swap3\n  swap2\n  pop\n  pop\n  jump\t// out\n    /* \"#utility.yul\":8880:9711   */\ntag_60:\n    /* \"#utility.yul\":8965:8968   */\n  0x00\n    /* \"#utility.yul\":9002:9007   */\n  dup2\n    /* \"#utility.yul\":8996:9008   */\n  sload\n    /* \"#utility.yul\":9031:9067   */\n  tag_170\n    /* \"#utility.yul\":9057:9066   */\n  dup2\n    /* \"#utility.yul\":9031:9067   */\n  tag_43\n  jump\t// in\ntag_170:\n    /* \"#utility.yul\":9083:9154   */\n  tag_171\n    /* \"#utility.yul\":9147:9153   */\n  dup2\n    /* \"#utility.yul\":9142:9145   */\n  dup7\n    /* \"#utility.yul\":9083:9154   */\n  tag_59\n  jump\t// in\ntag_171:\n    /* \"#utility.yul\":9076:9154   */\n  swap5\n  pop\n    /* \"#utility.yul\":9185:9186   */\n  0x01\n    /* \"#utility.yul\":9174:9183   */\n  dup3\n    /* \"#utility.yul\":9170:9187   */\n  and\n    /* \"#utility.yul\":9201:9202   */\n  0x00\n    /* \"#utility.yul\":9196:9360   */\n  dup2\n  eq\n  tag_173\n  jumpi\n    /* \"#utility.yul\":9374:9375   */\n  0x01\n    /* \"#utility.yul\":9369:9705   */\n  dup2\n  eq\n  tag_174\n  jumpi\n    /* \"#utility.yul\":9163:9705   */\n  jump(tag_172)\n    /* \"#utility.yul\":9196:9360   */\ntag_173:\n    /* \"#utility.yul\":9280:9284   */\n  0xff\n    /* \"#utility.yul\":9276:9285   */\n  not\n    /* \"#utility.yul\":9265:9274   */\n  dup4\n    /* \"#utility.yul\":9261:9286   */\n  and\n    /* \"#utility.yul\":9256:9259   */\n  dup7\n    /* \"#utility.yul\":9249:9287   */\n  mstore\n    /* \"#utility.yul\":9340:9346   */\n  dup2\n    /* \"#utility.yul\":9333:9347   */\n  iszero\n    /* \"#utility.yul\":9326:9348   */\n  iszero\n    /* \"#utility.yul\":9320:9324   */\n  0x20\n    /* \"#utility.yul\":9316:9349   */\n  mul\n    /* \"#utility.yul\":9311:9314   */\n  dup7\n    /* \"#utility.yul\":9307:9350   */\n  add\n    /* \"#utility.yul\":9300:9350   */\n  swap4\n  pop\n    /* \"#utility.yul\":9196:9360   */\n  jump(tag_172)\n    /* \"#utility.yul\":9369:9705   */\ntag_174:\n    /* \"#utility.yul\":9436:9474   */\n  tag_175\n    /* \"#utility.yul\":9468:9473   */\n  dup6\n    /* \"#utility.yul\":9436:9474   */\n  tag_44\n  jump\t// in\ntag_175:\n    /* \"#utility.yul\":9496:9497   */\n  0x00\n    /* \"#utility.yul\":9510:9664   */\ntag_176:\n    /* \"#utility.yul\":9524:9530   */\n  dup4\n    /* \"#utility.yul\":9521:9522   */\n  dup2\n    /* \"#utility.yul\":9518:9531   */\n  lt\n    /* \"#utility.yul\":9510:9664   */\n  iszero\n  tag_178\n  jumpi\n    /* \"#utility.yul\":9598:9605   */\n  dup2\n    /* \"#utility.yul\":9592:9606   */\n  sload\n    /* \"#utility.yul\":9588:9589   */\n  dup2\n    /* \"#utility.yul\":9583:9586   */\n  dup10\n    /* \"#utility.yul\":9579:9590   */\n  add\n    /* \"#utility.yul\":9572:9607   */\n  mstore\n    /* \"#utility.yul\":9648:9649   */\n  0x01\n    /* \"#utility.yul\":9639:9646   */\n  dup3\n    /* \"#utility.yul\":9635:9650   */\n  add\n    /* \"#utility.yul\":9624:9650   */\n  swap2\n  pop\n    /* \"#utility.yul\":9546:9550   */\n  0x20\n    /* \"#utility.yul\":9543:9544   */\n  dup2\n    /* \"#utility.yul\":9539:9551   */\n  add\n    /* \"#utility.yul\":9534:9551   */\n  swap1\n  pop\n    /* \"#utility.yul\":9510:9664   */\n  jump(tag_176)\ntag_178:\n    /* \"#utility.yul\":9693:9694   */\n  dup1\n    /* \"#utility.yul\":9688:9691   */\n  dup9\n    /* \"#utility.yul\":9684:9695   */\n  add\n    /* \"#utility.yul\":9677:9695   */\n  swap6\n  pop\n    /* \"#utility.yul\":9376:9705   */\n  pop\n  pop\n    /* \"#utility.yul\":9163:9705   */\ntag_172:\n  pop\n    /* \"#utility.yul\":8969:9711   */\n  pop\n  pop\n    /* \"#utility.yul\":8880:9711   */\n  swap3\n  swap2\n  pop\n  pop\n  jump\t// out\n    /* \"#utility.yul\":9717:10024   */\ntag_13:\n    /* \"#utility.yul\":9827:9831   */\n  0x00\n    /* \"#utility.yul\":9865:9867   */\n  0x20\n    /* \"#utility.yul\":9854:9863   */\n  dup3\n    /* \"#utility.yul\":9850:9868   */\n  add\n    /* \"#utility.yul\":9842:9868   */\n  swap1\n  pop\n    /* \"#utility.yul\":9914:9923   */\n  dup2\n    /* \"#utility.yul\":9908:9912   */\n  dup2\n    /* \"#utility.yul\":9904:9924   */\n  sub\n    /* \"#utility.yul\":9900:9901   */\n  0x00\n    /* \"#utility.yul\":9889:9898   */\n  dup4\n    /* \"#utility.yul\":9885:9902   */\n  add\n    /* \"#utility.yul\":9878:9925   */\n  mstore\n    /* \"#utility.yul\":9942:10017   */\n  tag_180\n    /* \"#utility.yul\":10012:10016   */\n  dup2\n    /* \"#utility.yul\":10003:10009   */\n  dup5\n    /* \"#utility.yul\":9942:10017   */\n  tag_60\n  jump\t// in\ntag_180:\n    /* \"#utility.yul\":9934:10017   */\n  swap1\n  pop\n    /* \"#utility.yul\":9717:10024   */\n  swap3\n  swap2\n  pop\n  pop\n  jump\t// out\n    /* \"#utility.yul\":10030:10210   */\ntag_61:\n    /* \"#utility.yul\":10078:10155   */\n  0x4e487b7100000000000000000000000000000000000000000000000000000000\n    /* \"#utility.yul\":10075:10076   */\n  0x00\n    /* \"#utility.yul\":10068:10156   */\n  mstore\n    /* \"#utility.yul\":10175:10179   */\n  0x11\n    /* \"#utility.yul\":10172:10173   */\n  0x04\n    /* \"#utility.yul\":10165:10180   */\n  mstore\n    /* \"#utility.yul\":10199:10203   */\n  0x24\n    /* \"#utility.yul\":10196:10197   */\n  0x00\n    /* \"#utility.yul\":10189:10204   */\n  revert\n    /* \"#utility.yul\":10216:10407   */\ntag_15:\n    /* \"#utility.yul\":10256:10259   */\n  0x00\n    /* \"#utility.yul\":10275:10295   */\n  tag_183\n    /* \"#utility.yul\":10293:10294   */\n  dup3\n    /* \"#utility.yul\":10275:10295   */\n  tag_38\n  jump\t// in\ntag_183:\n    /* \"#utility.yul\":10270:10295   */\n  swap2\n  pop\n    /* \"#utility.yul\":10309:10329   */\n  tag_184\n    /* \"#utility.yul\":10327:10328   */\n  dup4\n    /* \"#utility.yul\":10309:10329   */\n  tag_38\n  jump\t// in\ntag_184:\n    /* \"#utility.yul\":10304:10329   */\n  swap3\n  pop\n    /* \"#utility.yul\":10352:10353   */\n  dup3\n    /* \"#utility.yul\":10349:10350   */\n  dup3\n    /* \"#utility.yul\":10345:10354   */\n  add\n    /* \"#utility.yul\":10338:10354   */\n  swap1\n  pop\n    /* \"#utility.yul\":10373:10376   */\n  dup1\n    /* \"#utility.yul\":10370:10371   */\n  dup3\n    /* \"#utility.yul\":10367:10377   */\n  gt\n    /* \"#utility.yul\":10364:10400   */\n  iszero\n  tag_185\n  jumpi\n    /* \"#utility.yul\":10380:10398   */\n  tag_186\n  tag_61\n  jump\t// in\ntag_186:\n    /* \"#utility.yul\":10364:10400   */\ntag_185:\n    /* \"#utility.yul\":10216:10407   */\n  swap3\n  swap2\n  pop\n  pop\n  jump\t// out\n    /* \"#utility.yul\":10413:10593   */\ntag_62:\n    /* \"#utility.yul\":10461:10538   */\n  0x4e487b7100000000000000000000000000000000000000000000000000000000\n    /* \"#utility.yul\":10458:10459   */\n  0x00\n    /* \"#utility.yul\":10451:10539   */\n  mstore\n    /* \"#utility.yul\":10558:10562   */\n  0x12\n    /* \"#utility.yul\":10555:10556   */\n  0x04\n    /* \"#utility.yul\":10548:10563   */\n  mstore\n    /* \"#utility.yul\":10582:10586   */\n  0x24\n    /* \"#utility.yul\":10579:10580   */\n  0x00\n    /* \"#utility.yul\":10572:10587   */\n  revert\n    /* \"#utility.yul\":10599:10784   */\ntag_19:\n    /* \"#utility.yul\":10639:10640   */\n  0x00\n    /* \"#utility.yul\":10656:10676   */\n  tag_189\n    /* \"#utility.yul\":10674:10675   */\n  dup3\n    /* \"#utility.yul\":10656:10676   */\n  tag_38\n  jump\t// in\ntag_189:\n    /* \"#utility.yul\":10651:10676   */\n  swap2\n  pop\n    /* \"#utility.yul\":10690:10710   */\n  tag_190\n    /* \"#utility.yul\":10708:10709   */\n  dup4\n    /* \"#utility.yul\":10690:10710   */\n  tag_38\n  jump\t// in\ntag_190:\n    /* \"#utility.yul\":10685:10710   */\n  swap3\n  pop\n    /* \"#utility.yul\":10729:10730   */\n  dup3\n    /* \"#utility.yul\":10719:10754   */\n  tag_191\n  jumpi\n    /* \"#utility.yul\":10734:10752   */\n  tag_192\n  tag_62\n  jump\t// in\ntag_192:\n    /* \"#utility.yul\":10719:10754   */\ntag_191:\n    /* \"#utility.yul\":10776:10777   */\n  dup3\n    /* \"#utility.yul\":10773:10774   */\n  dup3\n    /* \"#utility.yul\":10769:10778   */\n  div\n    /* \"#utility.yul\":10764:10778   */\n  swap1\n  pop\n    /* \"#utility.yul\":10599:10784   */\n  swap3\n  swap2\n  pop\n  pop\n  jump\t// out\n    /* \"#utility.yul\":10790:11200   */\ntag_21:\n    /* \"#utility.yul\":10830:10837   */\n  0x00\n    /* \"#utility.yul\":10853:10873   */\n  tag_194\n    /* \"#utility.yul\":10871:10872   */\n  dup3\n    /* \"#utility.yul\":10853:10873   */\n  tag_38\n  jump\t// in\ntag_194:\n    /* \"#utility.yul\":10848:10873   */\n  swap2\n  pop\n    /* \"#utility.yul\":10887:10907   */\n  tag_195\n    /* \"#utility.yul\":10905:10906   */\n  dup4\n    /* \"#utility.yul\":10887:10907   */\n  tag_38\n  jump\t// in\ntag_195:\n    /* \"#utility.yul\":10882:10907   */\n  swap3\n  pop\n    /* \"#utility.yul\":10942:10943   */\n  dup3\n    /* \"#utility.yul\":10939:10940   */\n  dup3\n    /* \"#utility.yul\":10935:10944   */\n  mul\n    /* \"#utility.yul\":10964:10994   */\n  tag_196\n    /* \"#utility.yul\":10982:10993   */\n  dup2\n    /* \"#utility.yul\":10964:10994   */\n  tag_38\n  jump\t// in\ntag_196:\n    /* \"#utility.yul\":10953:10994   */\n  swap2\n  pop\n    /* \"#utility.yul\":11143:11144   */\n  dup3\n    /* \"#utility.yul\":11134:11141   */\n  dup3\n    /* \"#utility.yul\":11130:11145   */\n  div\n    /* \"#utility.yul\":11127:11128   */\n  dup5\n    /* \"#utility.yul\":11124:11146   */\n  eq\n    /* \"#utility.yul\":11104:11105   */\n  dup4\n    /* \"#utility.yul\":11097:11106   */\n  iszero\n    /* \"#utility.yul\":11077:11160   */\n  or\n    /* \"#utility.yul\":11054:11193   */\n  tag_197\n  jumpi\n    /* \"#utility.yul\":11173:11191   */\n  tag_198\n  tag_61\n  jump\t// in\ntag_198:\n    /* \"#utility.yul\":11054:11193   */\ntag_197:\n    /* \"#utility.yul\":10838:11200   */\n  pop\n    /* \"#utility.yul\":10790:11200   */\n  swap3\n  swap2\n  pop\n  pop\n  jump\t// out\n    /* \"#utility.yul\":11206:11400   */\ntag_23:\n    /* \"#utility.yul\":11246:11250   */\n  0x00\n    /* \"#utility.yul\":11266:11286   */\n  tag_200\n    /* \"#utility.yul\":11284:11285   */\n  dup3\n    /* \"#utility.yul\":11266:11286   */\n  tag_38\n  jump\t// in\ntag_200:\n    /* \"#utility.yul\":11261:11286   */\n  swap2\n  pop\n    /* \"#utility.yul\":11300:11320   */\n  tag_201\n    /* \"#utility.yul\":11318:11319   */\n  dup4\n    /* \"#utility.yul\":11300:11320   */\n  tag_38\n  jump\t// in\ntag_201:\n    /* \"#utility.yul\":11295:11320   */\n  swap3\n  pop\n    /* \"#utility.yul\":11344:11345   */\n  dup3\n    /* \"#utility.yul\":11341:11342   */\n  dup3\n    /* \"#utility.yul\":11337:11346   */\n  sub\n    /* \"#utility.yul\":11329:11346   */\n  swap1\n  pop\n    /* \"#utility.yul\":11368:11369   */\n  dup2\n    /* \"#utility.yul\":11362:11366   */\n  dup2\n    /* \"#utility.yul\":11359:11370   */\n  gt\n    /* \"#utility.yul\":11356:11393   */\n  iszero\n  tag_202\n  jumpi\n    /* \"#utility.yul\":11373:11391   */\n  tag_203\n  tag_61\n  jump\t// in\ntag_203:\n    /* \"#utility.yul\":11356:11393   */\ntag_202:\n    /* \"#utility.yul\":11206:11400   */\n  swap3\n  swap2\n  pop\n  pop\n  jump\t// out\n    /* \"chapter2/Random.sol\":70:1873  contract Random {... */\ntag_10:\n  dataSize(sub_0)\n  dup1\n  dataOffset(sub_0)\n  0x00\n  codecopy\n  0x00\n  return\nstop\n\nsub_0: assembly {\n        /* \"chapter2/Random.sol\":70:1873  contract Random {... */\n      mstore(0x40, 0x80)\n      jumpi(tag_1, lt(calldatasize, 0x04))\n      shr(0xe0, calldataload(0x00))\n      dup1\n      0x5ef5cc89\n      gt\n      tag_10\n      jumpi\n      dup1\n      0x5ef5cc89\n      eq\n      tag_6\n      jumpi\n      dup1\n      0x79ed40bc\n      eq\n      tag_7\n      jumpi\n      dup1\n      0x8da5cb5b\n      eq\n      tag_8\n      jumpi\n      dup1\n      0xcf66b989\n      eq\n      tag_9\n      jumpi\n      jump(tag_2)\n    tag_10:\n      dup1\n      0x0df516d8\n      eq\n      tag_3\n      jumpi\n      dup1\n      0x146ca531\n      eq\n      tag_4\n      jumpi\n      dup1\n      0x19e2eb86\n      eq\n      tag_5\n      jumpi\n      jump(tag_2)\n    tag_1:\n      jumpi(tag_2, calldatasize)\n        /* \"chapter2/Random.sol\":795:801  10**15 */\n      0x038d7ea4c68000\n        /* \"chapter2/Random.sol\":782:791  msg.value */\n      callvalue\n        /* \"chapter2/Random.sol\":782:801  msg.value == 10**15 */\n      eq\n        /* \"chapter2/Random.sol\":774:824  require(msg.value == 10**15, \"Mustbe 0.001 ether\") */\n      tag_13\n      jumpi\n      mload(0x40)\n      0x08c379a000000000000000000000000000000000000000000000000000000000\n      dup2\n      mstore\n      0x04\n      add\n      tag_14\n      swap1\n      tag_15\n      jump\t// in\n    tag_14:\n      mload(0x40)\n      dup1\n      swap2\n      sub\n      swap1\n      revert\n    tag_13:\n        /* \"chapter2/Random.sol\":871:875  true */\n      0x01\n        /* \"chapter2/Random.sol\":834:849  paidAddressList */\n      0x00\n        /* \"chapter2/Random.sol\":834:856  paidAddressList[round] */\n      dup1\n        /* \"chapter2/Random.sol\":850:855  round */\n      sload(0x05)\n        /* \"chapter2/Random.sol\":834:856  paidAddressList[round] */\n      dup2\n      mstore\n      0x20\n      add\n      swap1\n      dup2\n      mstore\n      0x20\n      add\n      0x00\n      keccak256\n        /* \"chapter2/Random.sol\":834:868  paidAddressList[round][msg.sender] */\n      0x00\n        /* \"chapter2/Random.sol\":857:867  msg.sender */\n      caller\n        /* \"chapter2/Random.sol\":834:868  paidAddressList[round][msg.sender] */\n      0xffffffffffffffffffffffffffffffffffffffff\n      and\n      0xffffffffffffffffffffffffffffffffffffffff\n      and\n      dup2\n      mstore\n      0x20\n      add\n      swap1\n      dup2\n      mstore\n      0x20\n      add\n      0x00\n      keccak256\n      0x00\n        /* \"chapter2/Random.sol\":834:875  paidAddressList[round][msg.sender] = true */\n      0x0100\n      exp\n      dup2\n      sload\n      dup2\n      0xff\n      mul\n      not\n      and\n      swap1\n      dup4\n      iszero\n      iszero\n      mul\n      or\n      swap1\n      sstore\n      pop\n        /* \"chapter2/Random.sol\":887:897  playNumber */\n      0x06\n      0x00\n        /* \"chapter2/Random.sol\":885:897  ++playNumber */\n      dup2\n      sload\n      tag_16\n      swap1\n      tag_17\n      jump\t// in\n    tag_16:\n      swap2\n      swap1\n      pop\n      dup2\n      swap1\n      sstore\n      pop\n        /* \"chapter2/Random.sol\":925:937  winnerNumber */\n      sload(0x02)\n        /* \"chapter2/Random.sol\":911:921  playNumber */\n      sload(0x06)\n        /* \"chapter2/Random.sol\":911:937  playNumber == winnerNumber */\n      sub\n        /* \"chapter2/Random.sol\":908:1276  if(playNumber == winnerNumber) {... */\n      tag_18\n      jumpi\n        /* \"chapter2/Random.sol\":954:966  bool success */\n      0x00\n        /* \"chapter2/Random.sol\":971:981  msg.sender */\n      caller\n        /* \"chapter2/Random.sol\":971:986  msg.sender.call */\n      0xffffffffffffffffffffffffffffffffffffffff\n      and\n        /* \"chapter2/Random.sol\":993:1014  address(this).balance */\n      selfbalance\n        /* \"chapter2/Random.sol\":971:1019  msg.sender.call{value:address(this).balance}(\"\") */\n      mload(0x40)\n      tag_19\n      swap1\n      tag_20\n      jump\t// in\n    tag_19:\n      0x00\n      mload(0x40)\n      dup1\n      dup4\n      sub\n      dup2\n      dup6\n      dup8\n      gas\n      call\n      swap3\n      pop\n      pop\n      pop\n      returndatasize\n      dup1\n      0x00\n      dup2\n      eq\n      tag_23\n      jumpi\n      mload(0x40)\n      swap2\n      pop\n      and(add(returndatasize, 0x3f), not(0x1f))\n      dup3\n      add\n      0x40\n      mstore\n      returndatasize\n      dup3\n      mstore\n      returndatasize\n      0x00\n      0x20\n      dup5\n      add\n      returndatacopy\n      jump(tag_22)\n    tag_23:\n      0x60\n      swap2\n      pop\n    tag_22:\n      pop\n        /* \"chapter2/Random.sol\":953:1019  (bool success,) = msg.sender.call{value:address(this).balance}(\"\") */\n      pop\n      swap1\n      pop\n        /* \"chapter2/Random.sol\":1041:1048  success */\n      dup1\n        /* \"chapter2/Random.sol\":1033:1059  require(success, \"Failed\") */\n      tag_24\n      jumpi\n      mload(0x40)\n      0x08c379a000000000000000000000000000000000000000000000000000000000\n      dup2\n      mstore\n      0x04\n      add\n      tag_25\n      swap1\n      tag_26\n      jump\t// in\n    tag_25:\n      mload(0x40)\n      dup1\n      swap2\n      sub\n      swap1\n      revert\n    tag_24:\n        /* \"chapter2/Random.sol\":1086:1087  0 */\n      0x00\n        /* \"chapter2/Random.sol\":1073:1083  playNumber */\n      0x06\n        /* \"chapter2/Random.sol\":1073:1087  playNumber = 0 */\n      dup2\n      swap1\n      sstore\n      pop\n        /* \"chapter2/Random.sol\":1103:1108  round */\n      0x05\n      0x00\n        /* \"chapter2/Random.sol\":1101:1108  ++round */\n      dup2\n      sload\n      tag_27\n      swap1\n      tag_17\n      jump\t// in\n    tag_27:\n      swap2\n      swap1\n      pop\n      dup2\n      swap1\n      sstore\n      pop\n        /* \"chapter2/Random.sol\":1137:1151  randomNumber() */\n      tag_28\n        /* \"chapter2/Random.sol\":1137:1149  randomNumber */\n      tag_29\n        /* \"chapter2/Random.sol\":1137:1151  randomNumber() */\n      jump\t// in\n    tag_28:\n        /* \"chapter2/Random.sol\":1122:1134  winnerNumber */\n      0x02\n        /* \"chapter2/Random.sol\":1122:1151  winnerNumber = randomNumber() */\n      dup2\n      swap1\n      sstore\n      pop\n        /* \"chapter2/Random.sol\":1184:1194  msg.sender */\n      caller\n        /* \"chapter2/Random.sol\":1170:1195  WinnerAddress(msg.sender) */\n      0xffffffffffffffffffffffffffffffffffffffff\n      and\n      0xd7b5435fa0dd93954c7955210a67950d9385f8cd60631432712709e265ec99ca\n      mload(0x40)\n      mload(0x40)\n      dup1\n      swap2\n      sub\n      swap1\n      log2\n        /* \"chapter2/Random.sol\":939:1206  {... */\n      pop\n        /* \"chapter2/Random.sol\":908:1276  if(playNumber == winnerNumber) {... */\n      jump(tag_30)\n    tag_18:\n        /* \"chapter2/Random.sol\":1243:1253  msg.sender */\n      caller\n        /* \"chapter2/Random.sol\":1231:1265  PaidAddress(msg.sender, msg.value) */\n      0xffffffffffffffffffffffffffffffffffffffff\n      and\n      0x20384c35af44ae3e0536c765e1cee107339d7ca70b092472c816a3a62e4ba659\n        /* \"chapter2/Random.sol\":1255:1264  msg.value */\n      callvalue\n        /* \"chapter2/Random.sol\":1231:1265  PaidAddress(msg.sender, msg.value) */\n      mload(0x40)\n      tag_31\n      swap2\n      swap1\n      tag_32\n      jump\t// in\n    tag_31:\n      mload(0x40)\n      dup1\n      swap2\n      sub\n      swap1\n      log2\n        /* \"chapter2/Random.sol\":908:1276  if(playNumber == winnerNumber) {... */\n    tag_30:\n        /* \"chapter2/Random.sol\":70:1873  contract Random {... */\n      stop\n    tag_2:\n      0x00\n      dup1\n      revert\n        /* \"chapter2/Random.sol\":535:561  uint public playNumber = 0 */\n    tag_3:\n      callvalue\n      dup1\n      iszero\n      tag_33\n      jumpi\n      0x00\n      dup1\n      revert\n    tag_33:\n      pop\n      tag_34\n      tag_35\n      jump\t// in\n    tag_34:\n      mload(0x40)\n      tag_36\n      swap2\n      swap1\n      tag_32\n      jump\t// in\n    tag_36:\n      mload(0x40)\n      dup1\n      swap2\n      sub\n      swap1\n      return\n        /* \"chapter2/Random.sol\":508:529  uint public round = 1 */\n    tag_4:\n      callvalue\n      dup1\n      iszero\n      tag_37\n      jumpi\n      0x00\n      dup1\n      revert\n    tag_37:\n      pop\n      tag_38\n      tag_39\n      jump\t// in\n    tag_38:\n      mload(0x40)\n      tag_40\n      swap2\n      swap1\n      tag_32\n      jump\t// in\n    tag_40:\n      mload(0x40)\n      dup1\n      swap2\n      sub\n      swap1\n      return\n        /* \"chapter2/Random.sol\":1629:1754  function getSecretKey(string memory _key1, uint _key2) public onlyOwner() {... */\n    tag_5:\n      callvalue\n      dup1\n      iszero\n      tag_41\n      jumpi\n      0x00\n      dup1\n      revert\n    tag_41:\n      pop\n      tag_42\n      0x04\n      dup1\n      calldatasize\n      sub\n      dup2\n      add\n      swap1\n      tag_43\n      swap2\n      swap1\n      tag_44\n      jump\t// in\n    tag_43:\n      tag_45\n      jump\t// in\n    tag_42:\n      stop\n        /* \"chapter2/Random.sol\":1498:1623  function setSecretKey(string memory _key1, uint _key2) public onlyOwner() {... */\n    tag_6:\n      callvalue\n      dup1\n      iszero\n      tag_46\n      jumpi\n      0x00\n      dup1\n      revert\n    tag_46:\n      pop\n      tag_47\n      0x04\n      dup1\n      calldatasize\n      sub\n      dup2\n      add\n      swap1\n      tag_48\n      swap2\n      swap1\n      tag_44\n      jump\t// in\n    tag_48:\n      tag_49\n      jump\t// in\n    tag_47:\n      stop\n        /* \"chapter2/Random.sol\":1760:1871  function getSecretKey() public view onlyOwner returns(string memory, uint) {... */\n    tag_7:\n      callvalue\n      dup1\n      iszero\n      tag_50\n      jumpi\n      0x00\n      dup1\n      revert\n    tag_50:\n      pop\n      tag_51\n      tag_52\n      jump\t// in\n    tag_51:\n      mload(0x40)\n      tag_53\n      swap3\n      swap2\n      swap1\n      tag_54\n      jump\t// in\n    tag_53:\n      mload(0x40)\n      dup1\n      swap2\n      sub\n      swap1\n      return\n        /* \"chapter2/Random.sol\":398:418  address public owner */\n    tag_8:\n      callvalue\n      dup1\n      iszero\n      tag_55\n      jumpi\n      0x00\n      dup1\n      revert\n    tag_55:\n      pop\n      tag_56\n      tag_57\n      jump\t// in\n    tag_56:\n      mload(0x40)\n      tag_58\n      swap2\n      swap1\n      tag_59\n      jump\t// in\n    tag_58:\n      mload(0x40)\n      dup1\n      swap2\n      sub\n      swap1\n      return\n        /* \"chapter2/Random.sol\":325:391  mapping(uint256=> mapping(address => bool)) public paidAddressList */\n    tag_9:\n      callvalue\n      dup1\n      iszero\n      tag_60\n      jumpi\n      0x00\n      dup1\n      revert\n    tag_60:\n      pop\n      tag_61\n      0x04\n      dup1\n      calldatasize\n      sub\n      dup2\n      add\n      swap1\n      tag_62\n      swap2\n      swap1\n      tag_63\n      jump\t// in\n    tag_62:\n      tag_64\n      jump\t// in\n    tag_61:\n      mload(0x40)\n      tag_65\n      swap2\n      swap1\n      tag_66\n      jump\t// in\n    tag_65:\n      mload(0x40)\n      dup1\n      swap2\n      sub\n      swap1\n      return\n        /* \"chapter2/Random.sol\":1289:1492  function randomNumber() private view returns(uint) {... */\n    tag_29:\n        /* \"chapter2/Random.sol\":1334:1338  uint */\n      0x00\n        /* \"chapter2/Random.sol\":1350:1358  uint num */\n      dup1\n        /* \"chapter2/Random.sol\":1425:1437  block.number */\n      number\n        /* \"chapter2/Random.sol\":1405:1420  block.timestamp */\n      timestamp\n        /* \"chapter2/Random.sol\":1397:1401  key2 */\n      sload(0x04)\n        /* \"chapter2/Random.sol\":1387:1391  key1 */\n      0x03\n        /* \"chapter2/Random.sol\":1376:1392  abi.encode(key1) */\n      add(0x20, mload(0x40))\n      tag_68\n      swap2\n      swap1\n      tag_69\n      jump\t// in\n    tag_68:\n      mload(0x40)\n      0x20\n      dup2\n      dup4\n      sub\n      sub\n      dup2\n      mstore\n      swap1\n      0x40\n      mstore\n        /* \"chapter2/Random.sol\":1366:1393  keccak256(abi.encode(key1)) */\n      dup1\n      mload\n      swap1\n      0x20\n      add\n      keccak256\n        /* \"chapter2/Random.sol\":1361:1394  uint(keccak256(abi.encode(key1))) */\n      0x00\n      shr\n        /* \"chapter2/Random.sol\":1361:1401  uint(keccak256(abi.encode(key1))) + key2 */\n      tag_70\n      swap2\n      swap1\n      tag_71\n      jump\t// in\n    tag_70:\n        /* \"chapter2/Random.sol\":1361:1421  uint(keccak256(abi.encode(key1))) + key2 + (block.timestamp) */\n      tag_72\n      swap2\n      swap1\n      tag_71\n      jump\t// in\n    tag_72:\n        /* \"chapter2/Random.sol\":1361:1438  uint(keccak256(abi.encode(key1))) + key2 + (block.timestamp) + (block.number) */\n      tag_73\n      swap2\n      swap1\n      tag_71\n      jump\t// in\n    tag_73:\n        /* \"chapter2/Random.sol\":1350:1438  uint num = uint(keccak256(abi.encode(key1))) + key2 + (block.timestamp) + (block.number) */\n      swap1\n      pop\n        /* \"chapter2/Random.sol\":1484:1485  1 */\n      0x01\n        /* \"chapter2/Random.sol\":1477:1479  10 */\n      0x0a\n        /* \"chapter2/Random.sol\":1471:1473  10 */\n      dup1\n        /* \"chapter2/Random.sol\":1465:1468  num */\n      dup4\n        /* \"chapter2/Random.sol\":1465:1473  num / 10 */\n      tag_74\n      swap2\n      swap1\n      tag_75\n      jump\t// in\n    tag_74:\n        /* \"chapter2/Random.sol\":1464:1479  (num / 10) * 10 */\n      tag_76\n      swap2\n      swap1\n      tag_77\n      jump\t// in\n    tag_76:\n        /* \"chapter2/Random.sol\":1457:1460  num */\n      dup3\n        /* \"chapter2/Random.sol\":1457:1480  num - ((num / 10) * 10) */\n      tag_78\n      swap2\n      swap1\n      tag_79\n      jump\t// in\n    tag_78:\n        /* \"chapter2/Random.sol\":1456:1485  (num - ((num / 10) * 10)) + 1 */\n      tag_80\n      swap2\n      swap1\n      tag_71\n      jump\t// in\n    tag_80:\n        /* \"chapter2/Random.sol\":1449:1485  return (num - ((num / 10) * 10)) + 1 */\n      swap2\n      pop\n      pop\n        /* \"chapter2/Random.sol\":1289:1492  function randomNumber() private view returns(uint) {... */\n      swap1\n      jump\t// out\n        /* \"chapter2/Random.sol\":535:561  uint public playNumber = 0 */\n    tag_35:\n      sload(0x06)\n      dup2\n      jump\t// out\n        /* \"chapter2/Random.sol\":508:529  uint public round = 1 */\n    tag_39:\n      sload(0x05)\n      dup2\n      jump\t// out\n        /* \"chapter2/Random.sol\":1629:1754  function getSecretKey(string memory _key1, uint _key2) public onlyOwner() {... */\n    tag_45:\n        /* \"chapter2/Random.sol\":259:264  owner */\n      0x01\n      0x00\n      swap1\n      sload\n      swap1\n      0x0100\n      exp\n      swap1\n      div\n      0xffffffffffffffffffffffffffffffffffffffff\n      and\n        /* \"chapter2/Random.sol\":245:264  msg.sender == owner */\n      0xffffffffffffffffffffffffffffffffffffffff\n      and\n        /* \"chapter2/Random.sol\":245:255  msg.sender */\n      caller\n        /* \"chapter2/Random.sol\":245:264  msg.sender == owner */\n      0xffffffffffffffffffffffffffffffffffffffff\n      and\n      eq\n        /* \"chapter2/Random.sol\":237:301  require(msg.sender == owner, \"Ownable: caller is not the owner\") */\n      tag_82\n      jumpi\n      mload(0x40)\n      0x08c379a000000000000000000000000000000000000000000000000000000000\n      dup2\n      mstore\n      0x04\n      add\n      tag_83\n      swap1\n      tag_84\n      jump\t// in\n    tag_83:\n      mload(0x40)\n      dup1\n      swap2\n      sub\n      swap1\n      revert\n    tag_82:\n        /* \"chapter2/Random.sol\":1720:1725  _key1 */\n      dup2\n        /* \"chapter2/Random.sol\":1713:1717  key1 */\n      0x03\n        /* \"chapter2/Random.sol\":1713:1725  key1 = _key1 */\n      swap1\n      dup2\n      tag_86\n      swap2\n      swap1\n      tag_87\n      jump\t// in\n    tag_86:\n      pop\n        /* \"chapter2/Random.sol\":1742:1747  _key2 */\n      dup1\n        /* \"chapter2/Random.sol\":1735:1739  key2 */\n      0x04\n        /* \"chapter2/Random.sol\":1735:1747  key2 = _key2 */\n      dup2\n      swap1\n      sstore\n      pop\n        /* \"chapter2/Random.sol\":1629:1754  function getSecretKey(string memory _key1, uint _key2) public onlyOwner() {... */\n      pop\n      pop\n      jump\t// out\n        /* \"chapter2/Random.sol\":1498:1623  function setSecretKey(string memory _key1, uint _key2) public onlyOwner() {... */\n    tag_49:\n        /* \"chapter2/Random.sol\":259:264  owner */\n      0x01\n      0x00\n      swap1\n      sload\n      swap1\n      0x0100\n      exp\n      swap1\n      div\n      0xffffffffffffffffffffffffffffffffffffffff\n      and\n        /* \"chapter2/Random.sol\":245:264  msg.sender == owner */\n      0xffffffffffffffffffffffffffffffffffffffff\n      and\n        /* \"chapter2/Random.sol\":245:255  msg.sender */\n      caller\n        /* \"chapter2/Random.sol\":245:264  msg.sender == owner */\n      0xffffffffffffffffffffffffffffffffffffffff\n      and\n      eq\n        /* \"chapter2/Random.sol\":237:301  require(msg.sender == owner, \"Ownable: caller is not the owner\") */\n      tag_89\n      jumpi\n      mload(0x40)\n      0x08c379a000000000000000000000000000000000000000000000000000000000\n      dup2\n      mstore\n      0x04\n      add\n      tag_90\n      swap1\n      tag_84\n      jump\t// in\n    tag_90:\n      mload(0x40)\n      dup1\n      swap2\n      sub\n      swap1\n      revert\n    tag_89:\n        /* \"chapter2/Random.sol\":1589:1594  _key1 */\n      dup2\n        /* \"chapter2/Random.sol\":1582:1586  key1 */\n      0x03\n        /* \"chapter2/Random.sol\":1582:1594  key1 = _key1 */\n      swap1\n      dup2\n      tag_92\n      swap2\n      swap1\n      tag_87\n      jump\t// in\n    tag_92:\n      pop\n        /* \"chapter2/Random.sol\":1611:1616  _key2 */\n      dup1\n        /* \"chapter2/Random.sol\":1604:1608  key2 */\n      0x04\n        /* \"chapter2/Random.sol\":1604:1616  key2 = _key2 */\n      dup2\n      swap1\n      sstore\n      pop\n        /* \"chapter2/Random.sol\":1498:1623  function setSecretKey(string memory _key1, uint _key2) public onlyOwner() {... */\n      pop\n      pop\n      jump\t// out\n        /* \"chapter2/Random.sol\":1760:1871  function getSecretKey() public view onlyOwner returns(string memory, uint) {... */\n    tag_52:\n        /* \"chapter2/Random.sol\":1814:1827  string memory */\n      0x60\n        /* \"chapter2/Random.sol\":1829:1833  uint */\n      0x00\n        /* \"chapter2/Random.sol\":259:264  owner */\n      0x01\n      0x00\n      swap1\n      sload\n      swap1\n      0x0100\n      exp\n      swap1\n      div\n      0xffffffffffffffffffffffffffffffffffffffff\n      and\n        /* \"chapter2/Random.sol\":245:264  msg.sender == owner */\n      0xffffffffffffffffffffffffffffffffffffffff\n      and\n        /* \"chapter2/Random.sol\":245:255  msg.sender */\n      caller\n        /* \"chapter2/Random.sol\":245:264  msg.sender == owner */\n      0xffffffffffffffffffffffffffffffffffffffff\n      and\n      eq\n        /* \"chapter2/Random.sol\":237:301  require(msg.sender == owner, \"Ownable: caller is not the owner\") */\n      tag_94\n      jumpi\n      mload(0x40)\n      0x08c379a000000000000000000000000000000000000000000000000000000000\n      dup2\n      mstore\n      0x04\n      add\n      tag_95\n      swap1\n      tag_84\n      jump\t// in\n    tag_95:\n      mload(0x40)\n      dup1\n      swap2\n      sub\n      swap1\n      revert\n    tag_94:\n        /* \"chapter2/Random.sol\":1853:1857  key1 */\n      0x03\n        /* \"chapter2/Random.sol\":1859:1863  key2 */\n      sload(0x04)\n        /* \"chapter2/Random.sol\":1845:1864  return (key1, key2) */\n      dup2\n      dup1\n      sload\n      tag_97\n      swap1\n      tag_98\n      jump\t// in\n    tag_97:\n      dup1\n      0x1f\n      add\n      0x20\n      dup1\n      swap2\n      div\n      mul\n      0x20\n      add\n      mload(0x40)\n      swap1\n      dup2\n      add\n      0x40\n      mstore\n      dup1\n      swap3\n      swap2\n      swap1\n      dup2\n      dup2\n      mstore\n      0x20\n      add\n      dup3\n      dup1\n      sload\n      tag_99\n      swap1\n      tag_98\n      jump\t// in\n    tag_99:\n      dup1\n      iszero\n      tag_100\n      jumpi\n      dup1\n      0x1f\n      lt\n      tag_101\n      jumpi\n      0x0100\n      dup1\n      dup4\n      sload\n      div\n      mul\n      dup4\n      mstore\n      swap2\n      0x20\n      add\n      swap2\n      jump(tag_100)\n    tag_101:\n      dup3\n      add\n      swap2\n      swap1\n      0x00\n      mstore\n      keccak256(0x00, 0x20)\n      swap1\n    tag_102:\n      dup2\n      sload\n      dup2\n      mstore\n      swap1\n      0x01\n      add\n      swap1\n      0x20\n      add\n      dup1\n      dup4\n      gt\n      tag_102\n      jumpi\n      dup3\n      swap1\n      sub\n      0x1f\n      and\n      dup3\n      add\n      swap2\n    tag_100:\n      pop\n      pop\n      pop\n      pop\n      pop\n      swap2\n      pop\n      swap2\n      pop\n      swap2\n      pop\n        /* \"chapter2/Random.sol\":1760:1871  function getSecretKey() public view onlyOwner returns(string memory, uint) {... */\n      swap1\n      swap2\n      jump\t// out\n        /* \"chapter2/Random.sol\":398:418  address public owner */\n    tag_57:\n      0x01\n      0x00\n      swap1\n      sload\n      swap1\n      0x0100\n      exp\n      swap1\n      div\n      0xffffffffffffffffffffffffffffffffffffffff\n      and\n      dup2\n      jump\t// out\n        /* \"chapter2/Random.sol\":325:391  mapping(uint256=> mapping(address => bool)) public paidAddressList */\n    tag_64:\n      mstore(0x20, 0x00)\n      dup2\n      0x00\n      mstore\n      mstore(0x20, keccak256(0x00, 0x40))\n      dup1\n      0x00\n      mstore\n      keccak256(0x00, 0x40)\n      0x00\n      swap2\n      pop\n      swap2\n      pop\n      swap1\n      sload\n      swap1\n      0x0100\n      exp\n      swap1\n      div\n      0xff\n      and\n      dup2\n      jump\t// out\n        /* \"#utility.yul\":7:176   */\n    tag_103:\n        /* \"#utility.yul\":91:102   */\n      0x00\n        /* \"#utility.yul\":125:131   */\n      dup3\n        /* \"#utility.yul\":120:123   */\n      dup3\n        /* \"#utility.yul\":113:132   */\n      mstore\n        /* \"#utility.yul\":165:169   */\n      0x20\n        /* \"#utility.yul\":160:163   */\n      dup3\n        /* \"#utility.yul\":156:170   */\n      add\n        /* \"#utility.yul\":141:170   */\n      swap1\n      pop\n        /* \"#utility.yul\":7:176   */\n      swap3\n      swap2\n      pop\n      pop\n      jump\t// out\n        /* \"#utility.yul\":182:350   */\n    tag_104:\n        /* \"#utility.yul\":322:342   */\n      0x4d757374626520302e3030312065746865720000000000000000000000000000\n        /* \"#utility.yul\":318:319   */\n      0x00\n        /* \"#utility.yul\":310:316   */\n      dup3\n        /* \"#utility.yul\":306:320   */\n      add\n        /* \"#utility.yul\":299:343   */\n      mstore\n        /* \"#utility.yul\":182:350   */\n      pop\n      jump\t// out\n        /* \"#utility.yul\":356:722   */\n    tag_105:\n        /* \"#utility.yul\":498:501   */\n      0x00\n        /* \"#utility.yul\":519:586   */\n      tag_163\n        /* \"#utility.yul\":583:585   */\n      0x12\n        /* \"#utility.yul\":578:581   */\n      dup4\n        /* \"#utility.yul\":519:586   */\n      tag_103\n      jump\t// in\n    tag_163:\n        /* \"#utility.yul\":512:586   */\n      swap2\n      pop\n        /* \"#utility.yul\":595:688   */\n      tag_164\n        /* \"#utility.yul\":684:687   */\n      dup3\n        /* \"#utility.yul\":595:688   */\n      tag_104\n      jump\t// in\n    tag_164:\n        /* \"#utility.yul\":713:715   */\n      0x20\n        /* \"#utility.yul\":708:711   */\n      dup3\n        /* \"#utility.yul\":704:716   */\n      add\n        /* \"#utility.yul\":697:716   */\n      swap1\n      pop\n        /* \"#utility.yul\":356:722   */\n      swap2\n      swap1\n      pop\n      jump\t// out\n        /* \"#utility.yul\":728:1147   */\n    tag_15:\n        /* \"#utility.yul\":894:898   */\n      0x00\n        /* \"#utility.yul\":932:934   */\n      0x20\n        /* \"#utility.yul\":921:930   */\n      dup3\n        /* \"#utility.yul\":917:935   */\n      add\n        /* \"#utility.yul\":909:935   */\n      swap1\n      pop\n        /* \"#utility.yul\":981:990   */\n      dup2\n        /* \"#utility.yul\":975:979   */\n      dup2\n        /* \"#utility.yul\":971:991   */\n      sub\n        /* \"#utility.yul\":967:968   */\n      0x00\n        /* \"#utility.yul\":956:965   */\n      dup4\n        /* \"#utility.yul\":952:969   */\n      add\n        /* \"#utility.yul\":945:992   */\n      mstore\n        /* \"#utility.yul\":1009:1140   */\n      tag_166\n        /* \"#utility.yul\":1135:1139   */\n      dup2\n        /* \"#utility.yul\":1009:1140   */\n      tag_105\n      jump\t// in\n    tag_166:\n        /* \"#utility.yul\":1001:1140   */\n      swap1\n      pop\n        /* \"#utility.yul\":728:1147   */\n      swap2\n      swap1\n      pop\n      jump\t// out\n        /* \"#utility.yul\":1153:1333   */\n    tag_106:\n        /* \"#utility.yul\":1201:1278   */\n      0x4e487b7100000000000000000000000000000000000000000000000000000000\n        /* \"#utility.yul\":1198:1199   */\n      0x00\n        /* \"#utility.yul\":1191:1279   */\n      mstore\n        /* \"#utility.yul\":1298:1302   */\n      0x11\n        /* \"#utility.yul\":1295:1296   */\n      0x04\n        /* \"#utility.yul\":1288:1303   */\n      mstore\n        /* \"#utility.yul\":1322:1326   */\n      0x24\n        /* \"#utility.yul\":1319:1320   */\n      0x00\n        /* \"#utility.yul\":1312:1327   */\n      revert\n        /* \"#utility.yul\":1339:1416   */\n    tag_107:\n        /* \"#utility.yul\":1376:1383   */\n      0x00\n        /* \"#utility.yul\":1405:1410   */\n      dup2\n        /* \"#utility.yul\":1394:1410   */\n      swap1\n      pop\n        /* \"#utility.yul\":1339:1416   */\n      swap2\n      swap1\n      pop\n      jump\t// out\n        /* \"#utility.yul\":1422:1655   */\n    tag_17:\n        /* \"#utility.yul\":1461:1464   */\n      0x00\n        /* \"#utility.yul\":1484:1508   */\n      tag_170\n        /* \"#utility.yul\":1502:1507   */\n      dup3\n        /* \"#utility.yul\":1484:1508   */\n      tag_107\n      jump\t// in\n    tag_170:\n        /* \"#utility.yul\":1475:1508   */\n      swap2\n      pop\n        /* \"#utility.yul\":1530:1596   */\n      0xffffffffffffffffffffffffffffffffffffffffffffffffffffffffffffffff\n        /* \"#utility.yul\":1523:1528   */\n      dup3\n        /* \"#utility.yul\":1520:1597   */\n      sub\n        /* \"#utility.yul\":1517:1620   */\n      tag_171\n      jumpi\n        /* \"#utility.yul\":1600:1618   */\n      tag_172\n      tag_106\n      jump\t// in\n    tag_172:\n        /* \"#utility.yul\":1517:1620   */\n    tag_171:\n        /* \"#utility.yul\":1647:1648   */\n      0x01\n        /* \"#utility.yul\":1640:1645   */\n      dup3\n        /* \"#utility.yul\":1636:1649   */\n      add\n        /* \"#utility.yul\":1629:1649   */\n      swap1\n      pop\n        /* \"#utility.yul\":1422:1655   */\n      swap2\n      swap1\n      pop\n      jump\t// out\n        /* \"#utility.yul\":1661:1808   */\n    tag_108:\n        /* \"#utility.yul\":1762:1773   */\n      0x00\n        /* \"#utility.yul\":1799:1802   */\n      dup2\n        /* \"#utility.yul\":1784:1802   */\n      swap1\n      pop\n        /* \"#utility.yul\":1661:1808   */\n      swap3\n      swap2\n      pop\n      pop\n      jump\t// out\n        /* \"#utility.yul\":1814:1928   */\n    tag_109:\n      pop\n      jump\t// out\n        /* \"#utility.yul\":1934:2332   */\n    tag_110:\n        /* \"#utility.yul\":2093:2096   */\n      0x00\n        /* \"#utility.yul\":2114:2197   */\n      tag_176\n        /* \"#utility.yul\":2195:2196   */\n      0x00\n        /* \"#utility.yul\":2190:2193   */\n      dup4\n        /* \"#utility.yul\":2114:2197   */\n      tag_108\n      jump\t// in\n    tag_176:\n        /* \"#utility.yul\":2107:2197   */\n      swap2\n      pop\n        /* \"#utility.yul\":2206:2299   */\n      tag_177\n        /* \"#utility.yul\":2295:2298   */\n      dup3\n        /* \"#utility.yul\":2206:2299   */\n      tag_109\n      jump\t// in\n    tag_177:\n        /* \"#utility.yul\":2324:2325   */\n      0x00\n        /* \"#utility.yul\":2319:2322   */\n      dup3\n        /* \"#utility.yul\":2315:2326   */\n      add\n        /* \"#utility.yul\":2308:2326   */\n      swap1\n      pop\n        /* \"#utility.yul\":1934:2332   */\n      swap2\n      swap1\n      pop\n      jump\t// out\n        /* \"#utility.yul\":2338:2717   */\n    tag_20:\n        /* \"#utility.yul\":2522:2525   */\n      0x00\n        /* \"#utility.yul\":2544:2691   */\n      tag_179\n        /* \"#utility.yul\":2687:2690   */\n      dup3\n        /* \"#utility.yul\":2544:2691   */\n      tag_110\n      jump\t// in\n    tag_179:\n        /* \"#utility.yul\":2537:2691   */\n      swap2\n      pop\n        /* \"#utility.yul\":2708:2711   */\n      dup2\n        /* \"#utility.yul\":2701:2711   */\n      swap1\n      pop\n        /* \"#utility.yul\":2338:2717   */\n      swap2\n      swap1\n      pop\n      jump\t// out\n        /* \"#utility.yul\":2723:2879   */\n    tag_111:\n        /* \"#utility.yul\":2863:2871   */\n      0x4661696c65640000000000000000000000000000000000000000000000000000\n        /* \"#utility.yul\":2859:2860   */\n      0x00\n        /* \"#utility.yul\":2851:2857   */\n      dup3\n        /* \"#utility.yul\":2847:2861   */\n      add\n        /* \"#utility.yul\":2840:2872   */\n      mstore\n        /* \"#utility.yul\":2723:2879   */\n      pop\n      jump\t// out\n        /* \"#utility.yul\":2885:3250   */\n    tag_112:\n        /* \"#utility.yul\":3027:3030   */\n      0x00\n        /* \"#utility.yul\":3048:3114   */\n      tag_182\n        /* \"#utility.yul\":3112:3113   */\n      0x06\n        /* \"#utility.yul\":3107:3110   */\n      dup4\n        /* \"#utility.yul\":3048:3114   */\n      tag_103\n      jump\t// in\n    tag_182:\n        /* \"#utility.yul\":3041:3114   */\n      swap2\n      pop\n        /* \"#utility.yul\":3123:3216   */\n      tag_183\n        /* \"#utility.yul\":3212:3215   */\n      dup3\n        /* \"#utility.yul\":3123:3216   */\n      tag_111\n      jump\t// in\n    tag_183:\n        /* \"#utility.yul\":3241:3243   */\n      0x20\n        /* \"#utility.yul\":3236:3239   */\n      dup3\n        /* \"#utility.yul\":3232:3244   */\n      add\n        /* \"#utility.yul\":3225:3244   */\n      swap1\n      pop\n        /* \"#utility.yul\":2885:3250   */\n      swap2\n      swap1\n      pop\n      jump\t// out\n        /* \"#utility.yul\":3256:3675   */\n    tag_26:\n        /* \"#utility.yul\":3422:3426   */\n      0x00\n        /* \"#utility.yul\":3460:3462   */\n      0x20\n        /* \"#utility.yul\":3449:3458   */\n      dup3\n        /* \"#utility.yul\":3445:3463   */\n      add\n        /* \"#utility.yul\":3437:3463   */\n      swap1\n      pop\n        /* \"#utility.yul\":3509:3518   */\n      dup2\n        /* \"#utility.yul\":3503:3507   */\n      dup2\n        /* \"#utility.yul\":3499:3519   */\n      sub\n        /* \"#utility.yul\":3495:3496   */\n      0x00\n        /* \"#utility.yul\":3484:3493   */\n      dup4\n        /* \"#utility.yul\":3480:3497   */\n      add\n        /* \"#utility.yul\":3473:3520   */\n      mstore\n        /* \"#utility.yul\":3537:3668   */\n      tag_185\n        /* \"#utility.yul\":3663:3667   */\n      dup2\n        /* \"#utility.yul\":3537:3668   */\n      tag_112\n      jump\t// in\n    tag_185:\n        /* \"#utility.yul\":3529:3668   */\n      swap1\n      pop\n        /* \"#utility.yul\":3256:3675   */\n      swap2\n      swap1\n      pop\n      jump\t// out\n        /* \"#utility.yul\":3681:3799   */\n    tag_113:\n        /* \"#utility.yul\":3768:3792   */\n      tag_187\n        /* \"#utility.yul\":3786:3791   */\n      dup2\n        /* \"#utility.yul\":3768:3792   */\n      tag_107\n      jump\t// in\n    tag_187:\n        /* \"#utility.yul\":3763:3766   */\n      dup3\n        /* \"#utility.yul\":3756:3793   */\n      mstore\n        /* \"#utility.yul\":3681:3799   */\n      pop\n      pop\n      jump\t// out\n        /* \"#utility.yul\":3805:4027   */\n    tag_32:\n        /* \"#utility.yul\":3898:3902   */\n      0x00\n        /* \"#utility.yul\":3936:3938   */\n      0x20\n        /* \"#utility.yul\":3925:3934   */\n      dup3\n        /* \"#utility.yul\":3921:3939   */\n      add\n        /* \"#utility.yul\":3913:3939   */\n      swap1\n      pop\n        /* \"#utility.yul\":3949:4020   */\n      tag_189\n        /* \"#utility.yul\":4017:4018   */\n      0x00\n        /* \"#utility.yul\":4006:4015   */\n      dup4\n        /* \"#utility.yul\":4002:4019   */\n      add\n        /* \"#utility.yul\":3993:3999   */\n      dup5\n        /* \"#utility.yul\":3949:4020   */\n      tag_113\n      jump\t// in\n    tag_189:\n        /* \"#utility.yul\":3805:4027   */\n      swap3\n      swap2\n      pop\n      pop\n      jump\t// out\n        /* \"#utility.yul\":4033:4108   */\n    tag_114:\n        /* \"#utility.yul\":4066:4072   */\n      0x00\n        /* \"#utility.yul\":4099:4101   */\n      0x40\n        /* \"#utility.yul\":4093:4102   */\n      mload\n        /* \"#utility.yul\":4083:4102   */\n      swap1\n      pop\n        /* \"#utility.yul\":4033:4108   */\n      swap1\n      jump\t// out\n        /* \"#utility.yul\":4114:4231   */\n    tag_115:\n        /* \"#utility.yul\":4223:4224   */\n      0x00\n        /* \"#utility.yul\":4220:4221   */\n      dup1\n        /* \"#utility.yul\":4213:4225   */\n      revert\n        /* \"#utility.yul\":4237:4354   */\n    tag_116:\n        /* \"#utility.yul\":4346:4347   */\n      0x00\n        /* \"#utility.yul\":4343:4344   */\n      dup1\n        /* \"#utility.yul\":4336:4348   */\n      revert\n        /* \"#utility.yul\":4360:4477   */\n    tag_117:\n        /* \"#utility.yul\":4469:4470   */\n      0x00\n        /* \"#utility.yul\":4466:4467   */\n      dup1\n        /* \"#utility.yul\":4459:4471   */\n      revert\n        /* \"#utility.yul\":4483:4600   */\n    tag_118:\n        /* \"#utility.yul\":4592:4593   */\n      0x00\n        /* \"#utility.yul\":4589:4590   */\n      dup1\n        /* \"#utility.yul\":4582:4594   */\n      revert\n        /* \"#utility.yul\":4606:4708   */\n    tag_119:\n        /* \"#utility.yul\":4647:4653   */\n      0x00\n        /* \"#utility.yul\":4698:4700   */\n      0x1f\n        /* \"#utility.yul\":4694:4701   */\n      not\n        /* \"#utility.yul\":4689:4691   */\n      0x1f\n        /* \"#utility.yul\":4682:4687   */\n      dup4\n        /* \"#utility.yul\":4678:4692   */\n      add\n        /* \"#utility.yul\":4674:4702   */\n      and\n        /* \"#utility.yul\":4664:4702   */\n      swap1\n      pop\n        /* \"#utility.yul\":4606:4708   */\n      swap2\n      swap1\n      pop\n      jump\t// out\n        /* \"#utility.yul\":4714:4894   */\n    tag_120:\n        /* \"#utility.yul\":4762:4839   */\n      0x4e487b7100000000000000000000000000000000000000000000000000000000\n        /* \"#utility.yul\":4759:4760   */\n      0x00\n        /* \"#utility.yul\":4752:4840   */\n      mstore\n        /* \"#utility.yul\":4859:4863   */\n      0x41\n        /* \"#utility.yul\":4856:4857   */\n      0x04\n        /* \"#utility.yul\":4849:4864   */\n      mstore\n        /* \"#utility.yul\":4883:4887   */\n      0x24\n        /* \"#utility.yul\":4880:4881   */\n      0x00\n        /* \"#utility.yul\":4873:4888   */\n      revert\n        /* \"#utility.yul\":4900:5181   */\n    tag_121:\n        /* \"#utility.yul\":4983:5010   */\n      tag_198\n        /* \"#utility.yul\":5005:5009   */\n      dup3\n        /* \"#utility.yul\":4983:5010   */\n      tag_119\n      jump\t// in\n    tag_198:\n        /* \"#utility.yul\":4975:4981   */\n      dup2\n        /* \"#utility.yul\":4971:5011   */\n      add\n        /* \"#utility.yul\":5113:5119   */\n      dup2\n        /* \"#utility.yul\":5101:5111   */\n      dup2\n        /* \"#utility.yul\":5098:5120   */\n      lt\n        /* \"#utility.yul\":5077:5095   */\n      0xffffffffffffffff\n        /* \"#utility.yul\":5065:5075   */\n      dup3\n        /* \"#utility.yul\":5062:5096   */\n      gt\n        /* \"#utility.yul\":5059:5121   */\n      or\n        /* \"#utility.yul\":5056:5144   */\n      iszero\n      tag_199\n      jumpi\n        /* \"#utility.yul\":5124:5142   */\n      tag_200\n      tag_120\n      jump\t// in\n    tag_200:\n        /* \"#utility.yul\":5056:5144   */\n    tag_199:\n        /* \"#utility.yul\":5164:5174   */\n      dup1\n        /* \"#utility.yul\":5160:5162   */\n      0x40\n        /* \"#utility.yul\":5153:5175   */\n      mstore\n        /* \"#utility.yul\":4943:5181   */\n      pop\n        /* \"#utility.yul\":4900:5181   */\n      pop\n      pop\n      jump\t// out\n        /* \"#utility.yul\":5187:5316   */\n    tag_122:\n        /* \"#utility.yul\":5221:5227   */\n      0x00\n        /* \"#utility.yul\":5248:5268   */\n      tag_202\n      tag_114\n      jump\t// in\n    tag_202:\n        /* \"#utility.yul\":5238:5268   */\n      swap1\n      pop\n        /* \"#utility.yul\":5277:5310   */\n      tag_203\n        /* \"#utility.yul\":5305:5309   */\n      dup3\n        /* \"#utility.yul\":5297:5303   */\n      dup3\n        /* \"#utility.yul\":5277:5310   */\n      tag_121\n      jump\t// in\n    tag_203:\n        /* \"#utility.yul\":5187:5316   */\n      swap2\n      swap1\n      pop\n      jump\t// out\n        /* \"#utility.yul\":5322:5630   */\n    tag_123:\n        /* \"#utility.yul\":5384:5388   */\n      0x00\n        /* \"#utility.yul\":5474:5492   */\n      0xffffffffffffffff\n        /* \"#utility.yul\":5466:5472   */\n      dup3\n        /* \"#utility.yul\":5463:5493   */\n      gt\n        /* \"#utility.yul\":5460:5516   */\n      iszero\n      tag_205\n      jumpi\n        /* \"#utility.yul\":5496:5514   */\n      tag_206\n      tag_120\n      jump\t// in\n    tag_206:\n        /* \"#utility.yul\":5460:5516   */\n    tag_205:\n        /* \"#utility.yul\":5534:5563   */\n      tag_207\n        /* \"#utility.yul\":5556:5562   */\n      dup3\n        /* \"#utility.yul\":5534:5563   */\n      tag_119\n      jump\t// in\n    tag_207:\n        /* \"#utility.yul\":5526:5563   */\n      swap1\n      pop\n        /* \"#utility.yul\":5618:5622   */\n      0x20\n        /* \"#utility.yul\":5612:5616   */\n      dup2\n        /* \"#utility.yul\":5608:5623   */\n      add\n        /* \"#utility.yul\":5600:5623   */\n      swap1\n      pop\n        /* \"#utility.yul\":5322:5630   */\n      swap2\n      swap1\n      pop\n      jump\t// out\n        /* \"#utility.yul\":5636:5782   */\n    tag_124:\n        /* \"#utility.yul\":5733:5739   */\n      dup3\n        /* \"#utility.yul\":5728:5731   */\n      dup2\n        /* \"#utility.yul\":5723:5726   */\n      dup4\n        /* \"#utility.yul\":5710:5740   */\n      calldatacopy\n        /* \"#utility.yul\":5774:5775   */\n      0x00\n        /* \"#utility.yul\":5765:5771   */\n      dup4\n        /* \"#utility.yul\":5760:5763   */\n      dup4\n        /* \"#utility.yul\":5756:5772   */\n      add\n        /* \"#utility.yul\":5749:5776   */\n      mstore\n        /* \"#utility.yul\":5636:5782   */\n      pop\n      pop\n      pop\n      jump\t// out\n        /* \"#utility.yul\":5788:6213   */\n    tag_125:\n        /* \"#utility.yul\":5866:5871   */\n      0x00\n        /* \"#utility.yul\":5891:5957   */\n      tag_210\n        /* \"#utility.yul\":5907:5956   */\n      tag_211\n        /* \"#utility.yul\":5949:5955   */\n      dup5\n        /* \"#utility.yul\":5907:5956   */\n      tag_123\n      jump\t// in\n    tag_211:\n        /* \"#utility.yul\":5891:5957   */\n      tag_122\n      jump\t// in\n    tag_210:\n        /* \"#utility.yul\":5882:5957   */\n      swap1\n      pop\n        /* \"#utility.yul\":5980:5986   */\n      dup3\n        /* \"#utility.yul\":5973:5978   */\n      dup2\n        /* \"#utility.yul\":5966:5987   */\n      mstore\n        /* \"#utility.yul\":6018:6022   */\n      0x20\n        /* \"#utility.yul\":6011:6016   */\n      dup2\n        /* \"#utility.yul\":6007:6023   */\n      add\n        /* \"#utility.yul\":6056:6059   */\n      dup5\n        /* \"#utility.yul\":6047:6053   */\n      dup5\n        /* \"#utility.yul\":6042:6045   */\n      dup5\n        /* \"#utility.yul\":6038:6054   */\n      add\n        /* \"#utility.yul\":6035:6060   */\n      gt\n        /* \"#utility.yul\":6032:6144   */\n      iszero\n      tag_212\n      jumpi\n        /* \"#utility.yul\":6063:6142   */\n      tag_213\n      tag_118\n      jump\t// in\n    tag_213:\n        /* \"#utility.yul\":6032:6144   */\n    tag_212:\n        /* \"#utility.yul\":6153:6207   */\n      tag_214\n        /* \"#utility.yul\":6200:6206   */\n      dup5\n        /* \"#utility.yul\":6195:6198   */\n      dup3\n        /* \"#utility.yul\":6190:6193   */\n      dup6\n        /* \"#utility.yul\":6153:6207   */\n      tag_124\n      jump\t// in\n    tag_214:\n        /* \"#utility.yul\":5872:6213   */\n      pop\n        /* \"#utility.yul\":5788:6213   */\n      swap4\n      swap3\n      pop\n      pop\n      pop\n      jump\t// out\n        /* \"#utility.yul\":6233:6573   */\n    tag_126:\n        /* \"#utility.yul\":6289:6294   */\n      0x00\n        /* \"#utility.yul\":6338:6341   */\n      dup3\n        /* \"#utility.yul\":6331:6335   */\n      0x1f\n        /* \"#utility.yul\":6323:6329   */\n      dup4\n        /* \"#utility.yul\":6319:6336   */\n      add\n        /* \"#utility.yul\":6315:6342   */\n      slt\n        /* \"#utility.yul\":6305:6427   */\n      tag_216\n      jumpi\n        /* \"#utility.yul\":6346:6425   */\n      tag_217\n      tag_117\n      jump\t// in\n    tag_217:\n        /* \"#utility.yul\":6305:6427   */\n    tag_216:\n        /* \"#utility.yul\":6463:6469   */\n      dup2\n        /* \"#utility.yul\":6450:6470   */\n      calldataload\n        /* \"#utility.yul\":6488:6567   */\n      tag_218\n        /* \"#utility.yul\":6563:6566   */\n      dup5\n        /* \"#utility.yul\":6555:6561   */\n      dup3\n        /* \"#utility.yul\":6548:6552   */\n      0x20\n        /* \"#utility.yul\":6540:6546   */\n      dup7\n        /* \"#utility.yul\":6536:6553   */\n      add\n        /* \"#utility.yul\":6488:6567   */\n      tag_125\n      jump\t// in\n    tag_218:\n        /* \"#utility.yul\":6479:6567   */\n      swap2\n      pop\n        /* \"#utility.yul\":6295:6573   */\n      pop\n        /* \"#utility.yul\":6233:6573   */\n      swap3\n      swap2\n      pop\n      pop\n      jump\t// out\n        /* \"#utility.yul\":6579:6701   */\n    tag_127:\n        /* \"#utility.yul\":6652:6676   */\n      tag_220\n        /* \"#utility.yul\":6670:6675   */\n      dup2\n        /* \"#utility.yul\":6652:6676   */\n      tag_107\n      jump\t// in\n    tag_220:\n        /* \"#utility.yul\":6645:6650   */\n      dup2\n        /* \"#utility.yul\":6642:6677   */\n      eq\n        /* \"#utility.yul\":6632:6695   */\n      tag_221\n      jumpi\n        /* \"#utility.yul\":6691:6692   */\n      0x00\n        /* \"#utility.yul\":6688:6689   */\n      dup1\n        /* \"#utility.yul\":6681:6693   */\n      revert\n        /* \"#utility.yul\":6632:6695   */\n    tag_221:\n        /* \"#utility.yul\":6579:6701   */\n      pop\n      jump\t// out\n        /* \"#utility.yul\":6707:6846   */\n    tag_128:\n        /* \"#utility.yul\":6753:6758   */\n      0x00\n        /* \"#utility.yul\":6791:6797   */\n      dup2\n        /* \"#utility.yul\":6778:6798   */\n      calldataload\n        /* \"#utility.yul\":6769:6798   */\n      swap1\n      pop\n        /* \"#utility.yul\":6807:6840   */\n      tag_223\n        /* \"#utility.yul\":6834:6839   */\n      dup2\n        /* \"#utility.yul\":6807:6840   */\n      tag_127\n      jump\t// in\n    tag_223:\n        /* \"#utility.yul\":6707:6846   */\n      swap3\n      swap2\n      pop\n      pop\n      jump\t// out\n        /* \"#utility.yul\":6852:7506   */\n    tag_44:\n        /* \"#utility.yul\":6930:6936   */\n      0x00\n        /* \"#utility.yul\":6938:6944   */\n      dup1\n        /* \"#utility.yul\":6987:6989   */\n      0x40\n        /* \"#utility.yul\":6975:6984   */\n      dup4\n        /* \"#utility.yul\":6966:6973   */\n      dup6\n        /* \"#utility.yul\":6962:6985   */\n      sub\n        /* \"#utility.yul\":6958:6990   */\n      slt\n        /* \"#utility.yul\":6955:7074   */\n      iszero\n      tag_225\n      jumpi\n        /* \"#utility.yul\":6993:7072   */\n      tag_226\n      tag_115\n      jump\t// in\n    tag_226:\n        /* \"#utility.yul\":6955:7074   */\n    tag_225:\n        /* \"#utility.yul\":7141:7142   */\n      0x00\n        /* \"#utility.yul\":7130:7139   */\n      dup4\n        /* \"#utility.yul\":7126:7143   */\n      add\n        /* \"#utility.yul\":7113:7144   */\n      calldataload\n        /* \"#utility.yul\":7171:7189   */\n      0xffffffffffffffff\n        /* \"#utility.yul\":7163:7169   */\n      dup2\n        /* \"#utility.yul\":7160:7190   */\n      gt\n        /* \"#utility.yul\":7157:7274   */\n      iszero\n      tag_227\n      jumpi\n        /* \"#utility.yul\":7193:7272   */\n      tag_228\n      tag_116\n      jump\t// in\n    tag_228:\n        /* \"#utility.yul\":7157:7274   */\n    tag_227:\n        /* \"#utility.yul\":7298:7361   */\n      tag_229\n        /* \"#utility.yul\":7353:7360   */\n      dup6\n        /* \"#utility.yul\":7344:7350   */\n      dup3\n        /* \"#utility.yul\":7333:7342   */\n      dup7\n        /* \"#utility.yul\":7329:7351   */\n      add\n        /* \"#utility.yul\":7298:7361   */\n      tag_126\n      jump\t// in\n    tag_229:\n        /* \"#utility.yul\":7288:7361   */\n      swap3\n      pop\n        /* \"#utility.yul\":7084:7371   */\n      pop\n        /* \"#utility.yul\":7410:7412   */\n      0x20\n        /* \"#utility.yul\":7436:7489   */\n      tag_230\n        /* \"#utility.yul\":7481:7488   */\n      dup6\n        /* \"#utility.yul\":7472:7478   */\n      dup3\n        /* \"#utility.yul\":7461:7470   */\n      dup7\n        /* \"#utility.yul\":7457:7479   */\n      add\n        /* \"#utility.yul\":7436:7489   */\n      tag_128\n      jump\t// in\n    tag_230:\n        /* \"#utility.yul\":7426:7489   */\n      swap2\n      pop\n        /* \"#utility.yul\":7381:7499   */\n      pop\n        /* \"#utility.yul\":6852:7506   */\n      swap3\n      pop\n      swap3\n      swap1\n      pop\n      jump\t// out\n        /* \"#utility.yul\":7512:7611   */\n    tag_129:\n        /* \"#utility.yul\":7564:7570   */\n      0x00\n        /* \"#utility.yul\":7598:7603   */\n      dup2\n        /* \"#utility.yul\":7592:7604   */\n      mload\n        /* \"#utility.yul\":7582:7604   */\n      swap1\n      pop\n        /* \"#utility.yul\":7512:7611   */\n      swap2\n      swap1\n      pop\n      jump\t// out\n        /* \"#utility.yul\":7617:7863   */\n    tag_130:\n        /* \"#utility.yul\":7698:7699   */\n      0x00\n        /* \"#utility.yul\":7708:7821   */\n    tag_233:\n        /* \"#utility.yul\":7722:7728   */\n      dup4\n        /* \"#utility.yul\":7719:7720   */\n      dup2\n        /* \"#utility.yul\":7716:7729   */\n      lt\n        /* \"#utility.yul\":7708:7821   */\n      iszero\n      tag_235\n      jumpi\n        /* \"#utility.yul\":7807:7808   */\n      dup1\n        /* \"#utility.yul\":7802:7805   */\n      dup3\n        /* \"#utility.yul\":7798:7809   */\n      add\n        /* \"#utility.yul\":7792:7810   */\n      mload\n        /* \"#utility.yul\":7788:7789   */\n      dup2\n        /* \"#utility.yul\":7783:7786   */\n      dup5\n        /* \"#utility.yul\":7779:7790   */\n      add\n        /* \"#utility.yul\":7772:7811   */\n      mstore\n        /* \"#utility.yul\":7744:7746   */\n      0x20\n        /* \"#utility.yul\":7741:7742   */\n      dup2\n        /* \"#utility.yul\":7737:7747   */\n      add\n        /* \"#utility.yul\":7732:7747   */\n      swap1\n      pop\n        /* \"#utility.yul\":7708:7821   */\n      jump(tag_233)\n    tag_235:\n        /* \"#utility.yul\":7855:7856   */\n      0x00\n        /* \"#utility.yul\":7846:7852   */\n      dup5\n        /* \"#utility.yul\":7841:7844   */\n      dup5\n        /* \"#utility.yul\":7837:7853   */\n      add\n        /* \"#utility.yul\":7830:7857   */\n      mstore\n        /* \"#utility.yul\":7679:7863   */\n      pop\n        /* \"#utility.yul\":7617:7863   */\n      pop\n      pop\n      pop\n      jump\t// out\n        /* \"#utility.yul\":7869:8246   */\n    tag_131:\n        /* \"#utility.yul\":7957:7960   */\n      0x00\n        /* \"#utility.yul\":7985:8024   */\n      tag_237\n        /* \"#utility.yul\":8018:8023   */\n      dup3\n        /* \"#utility.yul\":7985:8024   */\n      tag_129\n      jump\t// in\n    tag_237:\n        /* \"#utility.yul\":8040:8111   */\n      tag_238\n        /* \"#utility.yul\":8104:8110   */\n      dup2\n        /* \"#utility.yul\":8099:8102   */\n      dup6\n        /* \"#utility.yul\":8040:8111   */\n      tag_103\n      jump\t// in\n    tag_238:\n        /* \"#utility.yul\":8033:8111   */\n      swap4\n      pop\n        /* \"#utility.yul\":8120:8185   */\n      tag_239\n        /* \"#utility.yul\":8178:8184   */\n      dup2\n        /* \"#utility.yul\":8173:8176   */\n      dup6\n        /* \"#utility.yul\":8166:8170   */\n      0x20\n        /* \"#utility.yul\":8159:8164   */\n      dup7\n        /* \"#utility.yul\":8155:8171   */\n      add\n        /* \"#utility.yul\":8120:8185   */\n      tag_130\n      jump\t// in\n    tag_239:\n        /* \"#utility.yul\":8210:8239   */\n      tag_240\n        /* \"#utility.yul\":8232:8238   */\n      dup2\n        /* \"#utility.yul\":8210:8239   */\n      tag_119\n      jump\t// in\n    tag_240:\n        /* \"#utility.yul\":8205:8208   */\n      dup5\n        /* \"#utility.yul\":8201:8240   */\n      add\n        /* \"#utility.yul\":8194:8240   */\n      swap2\n      pop\n        /* \"#utility.yul\":7961:8246   */\n      pop\n        /* \"#utility.yul\":7869:8246   */\n      swap3\n      swap2\n      pop\n      pop\n      jump\t// out\n        /* \"#utility.yul\":8252:8675   */\n    tag_54:\n        /* \"#utility.yul\":8393:8397   */\n      0x00\n        /* \"#utility.yul\":8431:8433   */\n      0x40\n        /* \"#utility.yul\":8420:8429   */\n      dup3\n        /* \"#utility.yul\":8416:8434   */\n      add\n        /* \"#utility.yul\":8408:8434   */\n      swap1\n      pop\n        /* \"#utility.yul\":8480:8489   */\n      dup2\n        /* \"#utility.yul\":8474:8478   */\n      dup2\n        /* \"#utility.yul\":8470:8490   */\n      sub\n        /* \"#utility.yul\":8466:8467   */\n      0x00\n        /* \"#utility.yul\":8455:8464   */\n      dup4\n        /* \"#utility.yul\":8451:8468   */\n      add\n        /* \"#utility.yul\":8444:8491   */\n      mstore\n        /* \"#utility.yul\":8508:8586   */\n      tag_242\n        /* \"#utility.yul\":8581:8585   */\n      dup2\n        /* \"#utility.yul\":8572:8578   */\n      dup6\n        /* \"#utility.yul\":8508:8586   */\n      tag_131\n      jump\t// in\n    tag_242:\n        /* \"#utility.yul\":8500:8586   */\n      swap1\n      pop\n        /* \"#utility.yul\":8596:8668   */\n      tag_243\n        /* \"#utility.yul\":8664:8666   */\n      0x20\n        /* \"#utility.yul\":8653:8662   */\n      dup4\n        /* \"#utility.yul\":8649:8667   */\n      add\n        /* \"#utility.yul\":8640:8646   */\n      dup5\n        /* \"#utility.yul\":8596:8668   */\n      tag_113\n      jump\t// in\n    tag_243:\n        /* \"#utility.yul\":8252:8675   */\n      swap4\n      swap3\n      pop\n      pop\n      pop\n      jump\t// out\n        /* \"#utility.yul\":8681:8807   */\n    tag_132:\n        /* \"#utility.yul\":8718:8725   */\n      0x00\n        /* \"#utility.yul\":8758:8800   */\n      0xffffffffffffffffffffffffffffffffffffffff\n        /* \"#utility.yul\":8751:8756   */\n      dup3\n        /* \"#utility.yul\":8747:8801   */\n      and\n        /* \"#utility.yul\":8736:8801   */\n      swap1\n      pop\n        /* \"#utility.yul\":8681:8807   */\n      swap2\n      swap1\n      pop\n      jump\t// out\n        /* \"#utility.yul\":8813:8909   */\n    tag_133:\n        /* \"#utility.yul\":8850:8857   */\n      0x00\n        /* \"#utility.yul\":8879:8903   */\n      tag_246\n        /* \"#utility.yul\":8897:8902   */\n      dup3\n        /* \"#utility.yul\":8879:8903   */\n      tag_132\n      jump\t// in\n    tag_246:\n        /* \"#utility.yul\":8868:8903   */\n      swap1\n      pop\n        /* \"#utility.yul\":8813:8909   */\n      swap2\n      swap1\n      pop\n      jump\t// out\n        /* \"#utility.yul\":8915:9033   */\n    tag_134:\n        /* \"#utility.yul\":9002:9026   */\n      tag_248\n        /* \"#utility.yul\":9020:9025   */\n      dup2\n        /* \"#utility.yul\":9002:9026   */\n      tag_133\n      jump\t// in\n    tag_248:\n        /* \"#utility.yul\":8997:9000   */\n      dup3\n        /* \"#utility.yul\":8990:9027   */\n      mstore\n        /* \"#utility.yul\":8915:9033   */\n      pop\n      pop\n      jump\t// out\n        /* \"#utility.yul\":9039:9261   */\n    tag_59:\n        /* \"#utility.yul\":9132:9136   */\n      0x00\n        /* \"#utility.yul\":9170:9172   */\n      0x20\n        /* \"#utility.yul\":9159:9168   */\n      dup3\n        /* \"#utility.yul\":9155:9173   */\n      add\n        /* \"#utility.yul\":9147:9173   */\n      swap1\n      pop\n        /* \"#utility.yul\":9183:9254   */\n      tag_250\n        /* \"#utility.yul\":9251:9252   */\n      0x00\n        /* \"#utility.yul\":9240:9249   */\n      dup4\n        /* \"#utility.yul\":9236:9253   */\n      add\n        /* \"#utility.yul\":9227:9233   */\n      dup5\n        /* \"#utility.yul\":9183:9254   */\n      tag_134\n      jump\t// in\n    tag_250:\n        /* \"#utility.yul\":9039:9261   */\n      swap3\n      swap2\n      pop\n      pop\n      jump\t// out\n        /* \"#utility.yul\":9267:9389   */\n    tag_135:\n        /* \"#utility.yul\":9340:9364   */\n      tag_252\n        /* \"#utility.yul\":9358:9363   */\n      dup2\n        /* \"#utility.yul\":9340:9364   */\n      tag_133\n      jump\t// in\n    tag_252:\n        /* \"#utility.yul\":9333:9338   */\n      dup2\n        /* \"#utility.yul\":9330:9365   */\n      eq\n        /* \"#utility.yul\":9320:9383   */\n      tag_253\n      jumpi\n        /* \"#utility.yul\":9379:9380   */\n      0x00\n        /* \"#utility.yul\":9376:9377   */\n      dup1\n        /* \"#utility.yul\":9369:9381   */\n      revert\n        /* \"#utility.yul\":9320:9383   */\n    tag_253:\n        /* \"#utility.yul\":9267:9389   */\n      pop\n      jump\t// out\n        /* \"#utility.yul\":9395:9534   */\n    tag_136:\n        /* \"#utility.yul\":9441:9446   */\n      0x00\n        /* \"#utility.yul\":9479:9485   */\n      dup2\n        /* \"#utility.yul\":9466:9486   */\n      calldataload\n        /* \"#utility.yul\":9457:9486   */\n      swap1\n      pop\n        /* \"#utility.yul\":9495:9528   */\n      tag_255\n        /* \"#utility.yul\":9522:9527   */\n      dup2\n        /* \"#utility.yul\":9495:9528   */\n      tag_135\n      jump\t// in\n    tag_255:\n        /* \"#utility.yul\":9395:9534   */\n      swap3\n      swap2\n      pop\n      pop\n      jump\t// out\n        /* \"#utility.yul\":9540:10014   */\n    tag_63:\n        /* \"#utility.yul\":9608:9614   */\n      0x00\n        /* \"#utility.yul\":9616:9622   */\n      dup1\n        /* \"#utility.yul\":9665:9667   */\n      0x40\n        /* \"#utility.yul\":9653:9662   */\n      dup4\n        /* \"#utility.yul\":9644:9651   */\n      dup6\n        /* \"#utility.yul\":9640:9663   */\n      sub\n        /* \"#utility.yul\":9636:9668   */\n      slt\n        /* \"#utility.yul\":9633:9752   */\n      iszero\n      tag_257\n      jumpi\n        /* \"#utility.yul\":9671:9750   */\n      tag_258\n      tag_115\n      jump\t// in\n    tag_258:\n        /* \"#utility.yul\":9633:9752   */\n    tag_257:\n        /* \"#utility.yul\":9791:9792   */\n      0x00\n        /* \"#utility.yul\":9816:9869   */\n      tag_259\n        /* \"#utility.yul\":9861:9868   */\n      dup6\n        /* \"#utility.yul\":9852:9858   */\n      dup3\n        /* \"#utility.yul\":9841:9850   */\n      dup7\n        /* \"#utility.yul\":9837:9859   */\n      add\n        /* \"#utility.yul\":9816:9869   */\n      tag_128\n      jump\t// in\n    tag_259:\n        /* \"#utility.yul\":9806:9869   */\n      swap3\n      pop\n        /* \"#utility.yul\":9762:9879   */\n      pop\n        /* \"#utility.yul\":9918:9920   */\n      0x20\n        /* \"#utility.yul\":9944:9997   */\n      tag_260\n        /* \"#utility.yul\":9989:9996   */\n      dup6\n        /* \"#utility.yul\":9980:9986   */\n      dup3\n        /* \"#utility.yul\":9969:9978   */\n      dup7\n        /* \"#utility.yul\":9965:9987   */\n      add\n        /* \"#utility.yul\":9944:9997   */\n      tag_136\n      jump\t// in\n    tag_260:\n        /* \"#utility.yul\":9934:9997   */\n      swap2\n      pop\n        /* \"#utility.yul\":9889:10007   */\n      pop\n        /* \"#utility.yul\":9540:10014   */\n      swap3\n      pop\n      swap3\n      swap1\n      pop\n      jump\t// out\n        /* \"#utility.yul\":10020:10110   */\n    tag_137:\n        /* \"#utility.yul\":10054:10061   */\n      0x00\n        /* \"#utility.yul\":10097:10102   */\n      dup2\n        /* \"#utility.yul\":10090:10103   */\n      iszero\n        /* \"#utility.yul\":10083:10104   */\n      iszero\n        /* \"#utility.yul\":10072:10104   */\n      swap1\n      pop\n        /* \"#utility.yul\":10020:10110   */\n      swap2\n      swap1\n      pop\n      jump\t// out\n        /* \"#utility.yul\":10116:10225   */\n    tag_138:\n        /* \"#utility.yul\":10197:10218   */\n      tag_263\n        /* \"#utility.yul\":10212:10217   */\n      dup2\n        /* \"#utility.yul\":10197:10218   */\n      tag_137\n      jump\t// in\n    tag_263:\n        /* \"#utility.yul\":10192:10195   */\n      dup3\n        /* \"#utility.yul\":10185:10219   */\n      mstore\n        /* \"#utility.yul\":10116:10225   */\n      pop\n      pop\n      jump\t// out\n        /* \"#utility.yul\":10231:10441   */\n    tag_66:\n        /* \"#utility.yul\":10318:10322   */\n      0x00\n        /* \"#utility.yul\":10356:10358   */\n      0x20\n        /* \"#utility.yul\":10345:10354   */\n      dup3\n        /* \"#utility.yul\":10341:10359   */\n      add\n        /* \"#utility.yul\":10333:10359   */\n      swap1\n      pop\n        /* \"#utility.yul\":10369:10434   */\n      tag_265\n        /* \"#utility.yul\":10431:10432   */\n      0x00\n        /* \"#utility.yul\":10420:10429   */\n      dup4\n        /* \"#utility.yul\":10416:10433   */\n      add\n        /* \"#utility.yul\":10407:10413   */\n      dup5\n        /* \"#utility.yul\":10369:10434   */\n      tag_138\n      jump\t// in\n    tag_265:\n        /* \"#utility.yul\":10231:10441   */\n      swap3\n      swap2\n      pop\n      pop\n      jump\t// out\n        /* \"#utility.yul\":10447:10627   */\n    tag_139:\n        /* \"#utility.yul\":10495:10572   */\n      0x4e487b7100000000000000000000000000000000000000000000000000000000\n        /* \"#utility.yul\":10492:10493   */\n      0x00\n        /* \"#utility.yul\":10485:10573   */\n      mstore\n        /* \"#utility.yul\":10592:10596   */\n      0x22\n        /* \"#utility.yul\":10589:10590   */\n      0x04\n        /* \"#utility.yul\":10582:10597   */\n      mstore\n        /* \"#utility.yul\":10616:10620   */\n      0x24\n        /* \"#utility.yul\":10613:10614   */\n      0x00\n        /* \"#utility.yul\":10606:10621   */\n      revert\n        /* \"#utility.yul\":10633:10953   */\n    tag_98:\n        /* \"#utility.yul\":10677:10683   */\n      0x00\n        /* \"#utility.yul\":10714:10715   */\n      0x02\n        /* \"#utility.yul\":10708:10712   */\n      dup3\n        /* \"#utility.yul\":10704:10716   */\n      div\n        /* \"#utility.yul\":10694:10716   */\n      swap1\n      pop\n        /* \"#utility.yul\":10761:10762   */\n      0x01\n        /* \"#utility.yul\":10755:10759   */\n      dup3\n        /* \"#utility.yul\":10751:10763   */\n      and\n        /* \"#utility.yul\":10782:10800   */\n      dup1\n        /* \"#utility.yul\":10772:10853   */\n      tag_268\n      jumpi\n        /* \"#utility.yul\":10838:10842   */\n      0x7f\n        /* \"#utility.yul\":10830:10836   */\n      dup3\n        /* \"#utility.yul\":10826:10843   */\n      and\n        /* \"#utility.yul\":10816:10843   */\n      swap2\n      pop\n        /* \"#utility.yul\":10772:10853   */\n    tag_268:\n        /* \"#utility.yul\":10900:10902   */\n      0x20\n        /* \"#utility.yul\":10892:10898   */\n      dup3\n        /* \"#utility.yul\":10889:10903   */\n      lt\n        /* \"#utility.yul\":10869:10887   */\n      dup2\n        /* \"#utility.yul\":10866:10904   */\n      sub\n        /* \"#utility.yul\":10863:10947   */\n      tag_269\n      jumpi\n        /* \"#utility.yul\":10919:10937   */\n      tag_270\n      tag_139\n      jump\t// in\n    tag_270:\n        /* \"#utility.yul\":10863:10947   */\n    tag_269:\n        /* \"#utility.yul\":10684:10953   */\n      pop\n        /* \"#utility.yul\":10633:10953   */\n      swap2\n      swap1\n      pop\n      jump\t// out\n        /* \"#utility.yul\":10959:11100   */\n    tag_140:\n        /* \"#utility.yul\":11008:11012   */\n      0x00\n        /* \"#utility.yul\":11031:11034   */\n      dup2\n        /* \"#utility.yul\":11023:11034   */\n      swap1\n      pop\n        /* \"#utility.yul\":11054:11057   */\n      dup2\n        /* \"#utility.yul\":11051:11052   */\n      0x00\n        /* \"#utility.yul\":11044:11058   */\n      mstore\n        /* \"#utility.yul\":11088:11092   */\n      0x20\n        /* \"#utility.yul\":11085:11086   */\n      0x00\n        /* \"#utility.yul\":11075:11093   */\n      keccak256\n        /* \"#utility.yul\":11067:11093   */\n      swap1\n      pop\n        /* \"#utility.yul\":10959:11100   */\n      swap2\n      swap1\n      pop\n      jump\t// out\n        /* \"#utility.yul\":11130:11961   */\n    tag_141:\n        /* \"#utility.yul\":11215:11218   */\n      0x00\n        /* \"#utility.yul\":11252:11257   */\n      dup2\n        /* \"#utility.yul\":11246:11258   */\n      sload\n        /* \"#utility.yul\":11281:11317   */\n      tag_273\n        /* \"#utility.yul\":11307:11316   */\n      dup2\n        /* \"#utility.yul\":11281:11317   */\n      tag_98\n      jump\t// in\n    tag_273:\n        /* \"#utility.yul\":11333:11404   */\n      tag_274\n        /* \"#utility.yul\":11397:11403   */\n      dup2\n        /* \"#utility.yul\":11392:11395   */\n      dup7\n        /* \"#utility.yul\":11333:11404   */\n      tag_103\n      jump\t// in\n    tag_274:\n        /* \"#utility.yul\":11326:11404   */\n      swap5\n      pop\n        /* \"#utility.yul\":11435:11436   */\n      0x01\n        /* \"#utility.yul\":11424:11433   */\n      dup3\n        /* \"#utility.yul\":11420:11437   */\n      and\n        /* \"#utility.yul\":11451:11452   */\n      0x00\n        /* \"#utility.yul\":11446:11610   */\n      dup2\n      eq\n      tag_276\n      jumpi\n        /* \"#utility.yul\":11624:11625   */\n      0x01\n        /* \"#utility.yul\":11619:11955   */\n      dup2\n      eq\n      tag_277\n      jumpi\n        /* \"#utility.yul\":11413:11955   */\n      jump(tag_275)\n        /* \"#utility.yul\":11446:11610   */\n    tag_276:\n        /* \"#utility.yul\":11530:11534   */\n      0xff\n        /* \"#utility.yul\":11526:11535   */\n      not\n        /* \"#utility.yul\":11515:11524   */\n      dup4\n        /* \"#utility.yul\":11511:11536   */\n      and\n        /* \"#utility.yul\":11506:11509   */\n      dup7\n        /* \"#utility.yul\":11499:11537   */\n      mstore\n        /* \"#utility.yul\":11590:11596   */\n      dup2\n        /* \"#utility.yul\":11583:11597   */\n      iszero\n        /* \"#utility.yul\":11576:11598   */\n      iszero\n        /* \"#utility.yul\":11570:11574   */\n      0x20\n        /* \"#utility.yul\":11566:11599   */\n      mul\n        /* \"#utility.yul\":11561:11564   */\n      dup7\n        /* \"#utility.yul\":11557:11600   */\n      add\n        /* \"#utility.yul\":11550:11600   */\n      swap4\n      pop\n        /* \"#utility.yul\":11446:11610   */\n      jump(tag_275)\n        /* \"#utility.yul\":11619:11955   */\n    tag_277:\n        /* \"#utility.yul\":11686:11724   */\n      tag_278\n        /* \"#utility.yul\":11718:11723   */\n      dup6\n        /* \"#utility.yul\":11686:11724   */\n      tag_140\n      jump\t// in\n    tag_278:\n        /* \"#utility.yul\":11746:11747   */\n      0x00\n        /* \"#utility.yul\":11760:11914   */\n    tag_279:\n        /* \"#utility.yul\":11774:11780   */\n      dup4\n        /* \"#utility.yul\":11771:11772   */\n      dup2\n        /* \"#utility.yul\":11768:11781   */\n      lt\n        /* \"#utility.yul\":11760:11914   */\n      iszero\n      tag_281\n      jumpi\n        /* \"#utility.yul\":11848:11855   */\n      dup2\n        /* \"#utility.yul\":11842:11856   */\n      sload\n        /* \"#utility.yul\":11838:11839   */\n      dup2\n        /* \"#utility.yul\":11833:11836   */\n      dup10\n        /* \"#utility.yul\":11829:11840   */\n      add\n        /* \"#utility.yul\":11822:11857   */\n      mstore\n        /* \"#utility.yul\":11898:11899   */\n      0x01\n        /* \"#utility.yul\":11889:11896   */\n      dup3\n        /* \"#utility.yul\":11885:11900   */\n      add\n        /* \"#utility.yul\":11874:11900   */\n      swap2\n      pop\n        /* \"#utility.yul\":11796:11800   */\n      0x20\n        /* \"#utility.yul\":11793:11794   */\n      dup2\n        /* \"#utility.yul\":11789:11801   */\n      add\n        /* \"#utility.yul\":11784:11801   */\n      swap1\n      pop\n        /* \"#utility.yul\":11760:11914   */\n      jump(tag_279)\n    tag_281:\n        /* \"#utility.yul\":11943:11944   */\n      dup1\n        /* \"#utility.yul\":11938:11941   */\n      dup9\n        /* \"#utility.yul\":11934:11945   */\n      add\n        /* \"#utility.yul\":11927:11945   */\n      swap6\n      pop\n        /* \"#utility.yul\":11626:11955   */\n      pop\n      pop\n        /* \"#utility.yul\":11413:11955   */\n    tag_275:\n      pop\n        /* \"#utility.yul\":11219:11961   */\n      pop\n      pop\n        /* \"#utility.yul\":11130:11961   */\n      swap3\n      swap2\n      pop\n      pop\n      jump\t// out\n        /* \"#utility.yul\":11967:12274   */\n    tag_69:\n        /* \"#utility.yul\":12077:12081   */\n      0x00\n        /* \"#utility.yul\":12115:12117   */\n      0x20\n        /* \"#utility.yul\":12104:12113   */\n      dup3\n        /* \"#utility.yul\":12100:12118   */\n      add\n        /* \"#utility.yul\":12092:12118   */\n      swap1\n      pop\n        /* \"#utility.yul\":12164:12173   */\n      dup2\n        /* \"#utility.yul\":12158:12162   */\n      dup2\n        /* \"#utility.yul\":12154:12174   */\n      sub\n        /* \"#utility.yul\":12150:12151   */\n      0x00\n        /* \"#utility.yul\":12139:12148   */\n      dup4\n        /* \"#utility.yul\":12135:12152   */\n      add\n        /* \"#utility.yul\":12128:12175   */\n      mstore\n        /* \"#utility.yul\":12192:12267   */\n      tag_283\n        /* \"#utility.yul\":12262:12266   */\n      dup2\n        /* \"#utility.yul\":12253:12259   */\n      dup5\n        /* \"#utility.yul\":12192:12267   */\n      tag_141\n      jump\t// in\n    tag_283:\n        /* \"#utility.yul\":12184:12267   */\n      swap1\n      pop\n        /* \"#utility.yul\":11967:12274   */\n      swap3\n      swap2\n      pop\n      pop\n      jump\t// out\n        /* \"#utility.yul\":12280:12471   */\n    tag_71:\n        /* \"#utility.yul\":12320:12323   */\n      0x00\n        /* \"#utility.yul\":12339:12359   */\n      tag_285\n        /* \"#utility.yul\":12357:12358   */\n      dup3\n        /* \"#utility.yul\":12339:12359   */\n      tag_107\n      jump\t// in\n    tag_285:\n        /* \"#utility.yul\":12334:12359   */\n      swap2\n      pop\n        /* \"#utility.yul\":12373:12393   */\n      tag_286\n        /* \"#utility.yul\":12391:12392   */\n      dup4\n        /* \"#utility.yul\":12373:12393   */\n      tag_107\n      jump\t// in\n    tag_286:\n        /* \"#utility.yul\":12368:12393   */\n      swap3\n      pop\n        /* \"#utility.yul\":12416:12417   */\n      dup3\n        /* \"#utility.yul\":12413:12414   */\n      dup3\n        /* \"#utility.yul\":12409:12418   */\n      add\n        /* \"#utility.yul\":12402:12418   */\n      swap1\n      pop\n        /* \"#utility.yul\":12437:12440   */\n      dup1\n        /* \"#utility.yul\":12434:12435   */\n      dup3\n        /* \"#utility.yul\":12431:12441   */\n      gt\n        /* \"#utility.yul\":12428:12464   */\n      iszero\n      tag_287\n      jumpi\n        /* \"#utility.yul\":12444:12462   */\n      tag_288\n      tag_106\n      jump\t// in\n    tag_288:\n        /* \"#utility.yul\":12428:12464   */\n    tag_287:\n        /* \"#utility.yul\":12280:12471   */\n      swap3\n      swap2\n      pop\n      pop\n      jump\t// out\n        /* \"#utility.yul\":12477:12657   */\n    tag_142:\n        /* \"#utility.yul\":12525:12602   */\n      0x4e487b7100000000000000000000000000000000000000000000000000000000\n        /* \"#utility.yul\":12522:12523   */\n      0x00\n        /* \"#utility.yul\":12515:12603   */\n      mstore\n        /* \"#utility.yul\":12622:12626   */\n      0x12\n        /* \"#utility.yul\":12619:12620   */\n      0x04\n        /* \"#utility.yul\":12612:12627   */\n      mstore\n        /* \"#utility.yul\":12646:12650   */\n      0x24\n        /* \"#utility.yul\":12643:12644   */\n      0x00\n        /* \"#utility.yul\":12636:12651   */\n      revert\n        /* \"#utility.yul\":12663:12848   */\n    tag_75:\n        /* \"#utility.yul\":12703:12704   */\n      0x00\n        /* \"#utility.yul\":12720:12740   */\n      tag_291\n        /* \"#utility.yul\":12738:12739   */\n      dup3\n        /* \"#utility.yul\":12720:12740   */\n      tag_107\n      jump\t// in\n    tag_291:\n        /* \"#utility.yul\":12715:12740   */\n      swap2\n      pop\n        /* \"#utility.yul\":12754:12774   */\n      tag_292\n        /* \"#utility.yul\":12772:12773   */\n      dup4\n        /* \"#utility.yul\":12754:12774   */\n      tag_107\n      jump\t// in\n    tag_292:\n        /* \"#utility.yul\":12749:12774   */\n      swap3\n      pop\n        /* \"#utility.yul\":12793:12794   */\n      dup3\n        /* \"#utility.yul\":12783:12818   */\n      tag_293\n      jumpi\n        /* \"#utility.yul\":12798:12816   */\n      tag_294\n      tag_142\n      jump\t// in\n    tag_294:\n        /* \"#utility.yul\":12783:12818   */\n    tag_293:\n        /* \"#utility.yul\":12840:12841   */\n      dup3\n        /* \"#utility.yul\":12837:12838   */\n      dup3\n        /* \"#utility.yul\":12833:12842   */\n      div\n        /* \"#utility.yul\":12828:12842   */\n      swap1\n      pop\n        /* \"#utility.yul\":12663:12848   */\n      swap3\n      swap2\n      pop\n      pop\n      jump\t// out\n        /* \"#utility.yul\":12854:13264   */\n    tag_77:\n        /* \"#utility.yul\":12894:12901   */\n      0x00\n        /* \"#utility.yul\":12917:12937   */\n      tag_296\n        /* \"#utility.yul\":12935:12936   */\n      dup3\n        /* \"#utility.yul\":12917:12937   */\n      tag_107\n      jump\t// in\n    tag_296:\n        /* \"#utility.yul\":12912:12937   */\n      swap2\n      pop\n        /* \"#utility.yul\":12951:12971   */\n      tag_297\n        /* \"#utility.yul\":12969:12970   */\n      dup4\n        /* \"#utility.yul\":12951:12971   */\n      tag_107\n      jump\t// in\n    tag_297:\n        /* \"#utility.yul\":12946:12971   */\n      swap3\n      pop\n        /* \"#utility.yul\":13006:13007   */\n      dup3\n        /* \"#utility.yul\":13003:13004   */\n      dup3\n        /* \"#utility.yul\":12999:13008   */\n      mul\n        /* \"#utility.yul\":13028:13058   */\n      tag_298\n        /* \"#utility.yul\":13046:13057   */\n      dup2\n        /* \"#utility.yul\":13028:13058   */\n      tag_107\n      jump\t// in\n    tag_298:\n        /* \"#utility.yul\":13017:13058   */\n      swap2\n      pop\n        /* \"#utility.yul\":13207:13208   */\n      dup3\n        /* \"#utility.yul\":13198:13205   */\n      dup3\n        /* \"#utility.yul\":13194:13209   */\n      div\n        /* \"#utility.yul\":13191:13192   */\n      dup5\n        /* \"#utility.yul\":13188:13210   */\n      eq\n        /* \"#utility.yul\":13168:13169   */\n      dup4\n        /* \"#utility.yul\":13161:13170   */\n      iszero\n        /* \"#utility.yul\":13141:13224   */\n      or\n        /* \"#utility.yul\":13118:13257   */\n      tag_299\n      jumpi\n        /* \"#utility.yul\":13237:13255   */\n      tag_300\n      tag_106\n      jump\t// in\n    tag_300:\n        /* \"#utility.yul\":13118:13257   */\n    tag_299:\n        /* \"#utility.yul\":12902:13264   */\n      pop\n        /* \"#utility.yul\":12854:13264   */\n      swap3\n      swap2\n      pop\n      pop\n      jump\t// out\n        /* \"#utility.yul\":13270:13464   */\n    tag_79:\n        /* \"#utility.yul\":13310:13314   */\n      0x00\n        /* \"#utility.yul\":13330:13350   */\n      tag_302\n        /* \"#utility.yul\":13348:13349   */\n      dup3\n        /* \"#utility.yul\":13330:13350   */\n      tag_107\n      jump\t// in\n    tag_302:\n        /* \"#utility.yul\":13325:13350   */\n      swap2\n      pop\n        /* \"#utility.yul\":13364:13384   */\n      tag_303\n        /* \"#utility.yul\":13382:13383   */\n      dup4\n        /* \"#utility.yul\":13364:13384   */\n      tag_107\n      jump\t// in\n    tag_303:\n        /* \"#utility.yul\":13359:13384   */\n      swap3\n      pop\n        /* \"#utility.yul\":13408:13409   */\n      dup3\n        /* \"#utility.yul\":13405:13406   */\n      dup3\n        /* \"#utility.yul\":13401:13410   */\n      sub\n        /* \"#utility.yul\":13393:13410   */\n      swap1\n      pop\n        /* \"#utility.yul\":13432:13433   */\n      dup2\n        /* \"#utility.yul\":13426:13430   */\n      dup2\n        /* \"#utility.yul\":13423:13434   */\n      gt\n        /* \"#utility.yul\":13420:13457   */\n      iszero\n      tag_304\n      jumpi\n        /* \"#utility.yul\":13437:13455   */\n      tag_305\n      tag_106\n      jump\t// in\n    tag_305:\n        /* \"#utility.yul\":13420:13457   */\n    tag_304:\n        /* \"#utility.yul\":13270:13464   */\n      swap3\n      swap2\n      pop\n      pop\n      jump\t// out\n        /* \"#utility.yul\":13470:13652   */\n    tag_143:\n        /* \"#utility.yul\":13610:13644   */\n      0x4f776e61626c653a2063616c6c6572206973206e6f7420746865206f776e6572\n        /* \"#utility.yul\":13606:13607   */\n      0x00\n        /* \"#utility.yul\":13598:13604   */\n      dup3\n        /* \"#utility.yul\":13594:13608   */\n      add\n        /* \"#utility.yul\":13587:13645   */\n      mstore\n        /* \"#utility.yul\":13470:13652   */\n      pop\n      jump\t// out\n        /* \"#utility.yul\":13658:14024   */\n    tag_144:\n        /* \"#utility.yul\":13800:13803   */\n      0x00\n        /* \"#utility.yul\":13821:13888   */\n      tag_308\n        /* \"#utility.yul\":13885:13887   */\n      0x20\n        /* \"#utility.yul\":13880:13883   */\n      dup4\n        /* \"#utility.yul\":13821:13888   */\n      tag_103\n      jump\t// in\n    tag_308:\n        /* \"#utility.yul\":13814:13888   */\n      swap2\n      pop\n        /* \"#utility.yul\":13897:13990   */\n      tag_309\n        /* \"#utility.yul\":13986:13989   */\n      dup3\n        /* \"#utility.yul\":13897:13990   */\n      tag_143\n      jump\t// in\n    tag_309:\n        /* \"#utility.yul\":14015:14017   */\n      0x20\n        /* \"#utility.yul\":14010:14013   */\n      dup3\n        /* \"#utility.yul\":14006:14018   */\n      add\n        /* \"#utility.yul\":13999:14018   */\n      swap1\n      pop\n        /* \"#utility.yul\":13658:14024   */\n      swap2\n      swap1\n      pop\n      jump\t// out\n        /* \"#utility.yul\":14030:14449   */\n    tag_84:\n        /* \"#utility.yul\":14196:14200   */\n      0x00\n        /* \"#utility.yul\":14234:14236   */\n      0x20\n        /* \"#utility.yul\":14223:14232   */\n      dup3\n        /* \"#utility.yul\":14219:14237   */\n      add\n        /* \"#utility.yul\":14211:14237   */\n      swap1\n      pop\n        /* \"#utility.yul\":14283:14292   */\n      dup2\n        /* \"#utility.yul\":14277:14281   */\n      dup2\n        /* \"#utility.yul\":14273:14293   */\n      sub\n        /* \"#utility.yul\":14269:14270   */\n      0x00\n        /* \"#utility.yul\":14258:14267   */\n      dup4\n        /* \"#utility.yul\":14254:14271   */\n      add\n        /* \"#utility.yul\":14247:14294   */\n      mstore\n        /* \"#utility.yul\":14311:14442   */\n      tag_311\n        /* \"#utility.yul\":14437:14441   */\n      dup2\n        /* \"#utility.yul\":14311:14442   */\n      tag_144\n      jump\t// in\n    tag_311:\n        /* \"#utility.yul\":14303:14442   */\n      swap1\n      pop\n        /* \"#utility.yul\":14030:14449   */\n      swap2\n      swap1\n      pop\n      jump\t// out\n        /* \"#utility.yul\":14455:14548   */\n    tag_145:\n        /* \"#utility.yul\":14492:14498   */\n      0x00\n        /* \"#utility.yul\":14539:14541   */\n      0x20\n        /* \"#utility.yul\":14534:14536   */\n      0x1f\n        /* \"#utility.yul\":14527:14532   */\n      dup4\n        /* \"#utility.yul\":14523:14537   */\n      add\n        /* \"#utility.yul\":14519:14542   */\n      div\n        /* \"#utility.yul\":14509:14542   */\n      swap1\n      pop\n        /* \"#utility.yul\":14455:14548   */\n      swap2\n      swap1\n      pop\n      jump\t// out\n        /* \"#utility.yul\":14554:14661   */\n    tag_146:\n        /* \"#utility.yul\":14598:14606   */\n      0x00\n        /* \"#utility.yul\":14648:14653   */\n      dup3\n        /* \"#utility.yul\":14642:14646   */\n      dup3\n        /* \"#utility.yul\":14638:14654   */\n      shl\n        /* \"#utility.yul\":14617:14654   */\n      swap1\n      pop\n        /* \"#utility.yul\":14554:14661   */\n      swap3\n      swap2\n      pop\n      pop\n      jump\t// out\n        /* \"#utility.yul\":14667:15060   */\n    tag_147:\n        /* \"#utility.yul\":14736:14742   */\n      0x00\n        /* \"#utility.yul\":14786:14787   */\n      0x08\n        /* \"#utility.yul\":14774:14784   */\n      dup4\n        /* \"#utility.yul\":14770:14788   */\n      mul\n        /* \"#utility.yul\":14809:14906   */\n      tag_315\n        /* \"#utility.yul\":14839:14905   */\n      0xffffffffffffffffffffffffffffffffffffffffffffffffffffffffffffffff\n        /* \"#utility.yul\":14828:14837   */\n      dup3\n        /* \"#utility.yul\":14809:14906   */\n      tag_146\n      jump\t// in\n    tag_315:\n        /* \"#utility.yul\":14927:14966   */\n      tag_316\n        /* \"#utility.yul\":14957:14965   */\n      dup7\n        /* \"#utility.yul\":14946:14955   */\n      dup4\n        /* \"#utility.yul\":14927:14966   */\n      tag_146\n      jump\t// in\n    tag_316:\n        /* \"#utility.yul\":14915:14966   */\n      swap6\n      pop\n        /* \"#utility.yul\":14999:15003   */\n      dup1\n        /* \"#utility.yul\":14995:15004   */\n      not\n        /* \"#utility.yul\":14988:14993   */\n      dup5\n        /* \"#utility.yul\":14984:15005   */\n      and\n        /* \"#utility.yul\":14975:15005   */\n      swap4\n      pop\n        /* \"#utility.yul\":15048:15052   */\n      dup1\n        /* \"#utility.yul\":15038:15046   */\n      dup7\n        /* \"#utility.yul\":15034:15053   */\n      and\n        /* \"#utility.yul\":15027:15032   */\n      dup5\n        /* \"#utility.yul\":15024:15054   */\n      or\n        /* \"#utility.yul\":15014:15054   */\n      swap3\n      pop\n        /* \"#utility.yul\":14743:15060   */\n      pop\n      pop\n        /* \"#utility.yul\":14667:15060   */\n      swap4\n      swap3\n      pop\n      pop\n      pop\n      jump\t// out\n        /* \"#utility.yul\":15066:15126   */\n    tag_148:\n        /* \"#utility.yul\":15094:15097   */\n      0x00\n        /* \"#utility.yul\":15115:15120   */\n      dup2\n        /* \"#utility.yul\":15108:15120   */\n      swap1\n      pop\n        /* \"#utility.yul\":15066:15126   */\n      swap2\n      swap1\n      pop\n      jump\t// out\n        /* \"#utility.yul\":15132:15274   */\n    tag_149:\n        /* \"#utility.yul\":15182:15191   */\n      0x00\n        /* \"#utility.yul\":15215:15268   */\n      tag_319\n        /* \"#utility.yul\":15233:15267   */\n      tag_320\n        /* \"#utility.yul\":15242:15266   */\n      tag_321\n        /* \"#utility.yul\":15260:15265   */\n      dup5\n        /* \"#utility.yul\":15242:15266   */\n      tag_107\n      jump\t// in\n    tag_321:\n        /* \"#utility.yul\":15233:15267   */\n      tag_148\n      jump\t// in\n    tag_320:\n        /* \"#utility.yul\":15215:15268   */\n      tag_107\n      jump\t// in\n    tag_319:\n        /* \"#utility.yul\":15202:15268   */\n      swap1\n      pop\n        /* \"#utility.yul\":15132:15274   */\n      swap2\n      swap1\n      pop\n      jump\t// out\n        /* \"#utility.yul\":15280:15355   */\n    tag_150:\n        /* \"#utility.yul\":15323:15326   */\n      0x00\n        /* \"#utility.yul\":15344:15349   */\n      dup2\n        /* \"#utility.yul\":15337:15349   */\n      swap1\n      pop\n        /* \"#utility.yul\":15280:15355   */\n      swap2\n      swap1\n      pop\n      jump\t// out\n        /* \"#utility.yul\":15361:15630   */\n    tag_151:\n        /* \"#utility.yul\":15471:15510   */\n      tag_324\n        /* \"#utility.yul\":15502:15509   */\n      dup4\n        /* \"#utility.yul\":15471:15510   */\n      tag_149\n      jump\t// in\n    tag_324:\n        /* \"#utility.yul\":15532:15623   */\n      tag_325\n        /* \"#utility.yul\":15581:15622   */\n      tag_326\n        /* \"#utility.yul\":15605:15621   */\n      dup3\n        /* \"#utility.yul\":15581:15622   */\n      tag_150\n      jump\t// in\n    tag_326:\n        /* \"#utility.yul\":15573:15579   */\n      dup5\n        /* \"#utility.yul\":15566:15570   */\n      dup5\n        /* \"#utility.yul\":15560:15571   */\n      sload\n        /* \"#utility.yul\":15532:15623   */\n      tag_147\n      jump\t// in\n    tag_325:\n        /* \"#utility.yul\":15526:15530   */\n      dup3\n        /* \"#utility.yul\":15519:15624   */\n      sstore\n        /* \"#utility.yul\":15437:15630   */\n      pop\n        /* \"#utility.yul\":15361:15630   */\n      pop\n      pop\n      pop\n      jump\t// out\n        /* \"#utility.yul\":15636:15709   */\n    tag_152:\n        /* \"#utility.yul\":15681:15684   */\n      0x00\n        /* \"#utility.yul\":15636:15709   */\n      swap1\n      jump\t// out\n        /* \"#utility.yul\":15715:15904   */\n    tag_153:\n        /* \"#utility.yul\":15792:15824   */\n      tag_329\n      tag_152\n      jump\t// in\n    tag_329:\n        /* \"#utility.yul\":15833:15898   */\n      tag_330\n        /* \"#utility.yul\":15891:15897   */\n      dup2\n        /* \"#utility.yul\":15883:15889   */\n      dup5\n        /* \"#utility.yul\":15877:15881   */\n      dup5\n        /* \"#utility.yul\":15833:15898   */\n      tag_151\n      jump\t// in\n    tag_330:\n        /* \"#utility.yul\":15768:15904   */\n      pop\n        /* \"#utility.yul\":15715:15904   */\n      pop\n      pop\n      jump\t// out\n        /* \"#utility.yul\":15910:16096   */\n    tag_154:\n        /* \"#utility.yul\":15970:16090   */\n    tag_332:\n        /* \"#utility.yul\":15987:15990   */\n      dup2\n        /* \"#utility.yul\":15980:15985   */\n      dup2\n        /* \"#utility.yul\":15977:15991   */\n      lt\n        /* \"#utility.yul\":15970:16090   */\n      iszero\n      tag_334\n      jumpi\n        /* \"#utility.yul\":16041:16080   */\n      tag_335\n        /* \"#utility.yul\":16078:16079   */\n      0x00\n        /* \"#utility.yul\":16071:16076   */\n      dup3\n        /* \"#utility.yul\":16041:16080   */\n      tag_153\n      jump\t// in\n    tag_335:\n        /* \"#utility.yul\":16014:16015   */\n      0x01\n        /* \"#utility.yul\":16007:16012   */\n      dup2\n        /* \"#utility.yul\":16003:16016   */\n      add\n        /* \"#utility.yul\":15994:16016   */\n      swap1\n      pop\n        /* \"#utility.yul\":15970:16090   */\n      jump(tag_332)\n    tag_334:\n        /* \"#utility.yul\":15910:16096   */\n      pop\n      pop\n      jump\t// out\n        /* \"#utility.yul\":16102:16645   */\n    tag_155:\n        /* \"#utility.yul\":16203:16205   */\n      0x1f\n        /* \"#utility.yul\":16198:16201   */\n      dup3\n        /* \"#utility.yul\":16195:16206   */\n      gt\n        /* \"#utility.yul\":16192:16638   */\n      iszero\n      tag_337\n      jumpi\n        /* \"#utility.yul\":16237:16275   */\n      tag_338\n        /* \"#utility.yul\":16269:16274   */\n      dup2\n        /* \"#utility.yul\":16237:16275   */\n      tag_140\n      jump\t// in\n    tag_338:\n        /* \"#utility.yul\":16321:16350   */\n      tag_339\n        /* \"#utility.yul\":16339:16349   */\n      dup5\n        /* \"#utility.yul\":16321:16350   */\n      tag_145\n      jump\t// in\n    tag_339:\n        /* \"#utility.yul\":16311:16319   */\n      dup2\n        /* \"#utility.yul\":16307:16351   */\n      add\n        /* \"#utility.yul\":16504:16506   */\n      0x20\n        /* \"#utility.yul\":16492:16502   */\n      dup6\n        /* \"#utility.yul\":16489:16507   */\n      lt\n        /* \"#utility.yul\":16486:16535   */\n      iszero\n      tag_340\n      jumpi\n        /* \"#utility.yul\":16525:16533   */\n      dup2\n        /* \"#utility.yul\":16510:16533   */\n      swap1\n      pop\n        /* \"#utility.yul\":16486:16535   */\n    tag_340:\n        /* \"#utility.yul\":16548:16628   */\n      tag_341\n        /* \"#utility.yul\":16604:16626   */\n      tag_342\n        /* \"#utility.yul\":16622:16625   */\n      dup6\n        /* \"#utility.yul\":16604:16626   */\n      tag_145\n      jump\t// in\n    tag_342:\n        /* \"#utility.yul\":16594:16602   */\n      dup4\n        /* \"#utility.yul\":16590:16627   */\n      add\n        /* \"#utility.yul\":16577:16588   */\n      dup3\n        /* \"#utility.yul\":16548:16628   */\n      tag_154\n      jump\t// in\n    tag_341:\n        /* \"#utility.yul\":16207:16638   */\n      pop\n      pop\n        /* \"#utility.yul\":16192:16638   */\n    tag_337:\n        /* \"#utility.yul\":16102:16645   */\n      pop\n      pop\n      pop\n      jump\t// out\n        /* \"#utility.yul\":16651:16768   */\n    tag_156:\n        /* \"#utility.yul\":16705:16713   */\n      0x00\n        /* \"#utility.yul\":16755:16760   */\n      dup3\n        /* \"#utility.yul\":16749:16753   */\n      dup3\n        /* \"#utility.yul\":16745:16761   */\n      shr\n        /* \"#utility.yul\":16724:16761   */\n      swap1\n      pop\n        /* \"#utility.yul\":16651:16768   */\n      swap3\n      swap2\n      pop\n      pop\n      jump\t// out\n        /* \"#utility.yul\":16774:16943   */\n    tag_157:\n        /* \"#utility.yul\":16818:16824   */\n      0x00\n        /* \"#utility.yul\":16851:16902   */\n      tag_345\n        /* \"#utility.yul\":16899:16900   */\n      0x00\n        /* \"#utility.yul\":16895:16901   */\n      not\n        /* \"#utility.yul\":16887:16892   */\n      dup5\n        /* \"#utility.yul\":16884:16885   */\n      0x08\n        /* \"#utility.yul\":16880:16893   */\n      mul\n        /* \"#utility.yul\":16851:16902   */\n      tag_156\n      jump\t// in\n    tag_345:\n        /* \"#utility.yul\":16847:16903   */\n      not\n        /* \"#utility.yul\":16932:16936   */\n      dup1\n        /* \"#utility.yul\":16926:16930   */\n      dup4\n        /* \"#utility.yul\":16922:16937   */\n      and\n        /* \"#utility.yul\":16912:16937   */\n      swap2\n      pop\n        /* \"#utility.yul\":16825:16943   */\n      pop\n        /* \"#utility.yul\":16774:16943   */\n      swap3\n      swap2\n      pop\n      pop\n      jump\t// out\n        /* \"#utility.yul\":16948:17243   */\n    tag_158:\n        /* \"#utility.yul\":17024:17028   */\n      0x00\n        /* \"#utility.yul\":17170:17199   */\n      tag_347\n        /* \"#utility.yul\":17195:17198   */\n      dup4\n        /* \"#utility.yul\":17189:17193   */\n      dup4\n        /* \"#utility.yul\":17170:17199   */\n      tag_157\n      jump\t// in\n    tag_347:\n        /* \"#utility.yul\":17162:17199   */\n      swap2\n      pop\n        /* \"#utility.yul\":17232:17235   */\n      dup3\n        /* \"#utility.yul\":17229:17230   */\n      0x02\n        /* \"#utility.yul\":17225:17236   */\n      mul\n        /* \"#utility.yul\":17219:17223   */\n      dup3\n        /* \"#utility.yul\":17216:17237   */\n      or\n        /* \"#utility.yul\":17208:17237   */\n      swap1\n      pop\n        /* \"#utility.yul\":16948:17243   */\n      swap3\n      swap2\n      pop\n      pop\n      jump\t// out\n        /* \"#utility.yul\":17248:18643   */\n    tag_87:\n        /* \"#utility.yul\":17365:17402   */\n      tag_349\n        /* \"#utility.yul\":17398:17401   */\n      dup3\n        /* \"#utility.yul\":17365:17402   */\n      tag_129\n      jump\t// in\n    tag_349:\n        /* \"#utility.yul\":17467:17485   */\n      0xffffffffffffffff\n        /* \"#utility.yul\":17459:17465   */\n      dup2\n        /* \"#utility.yul\":17456:17486   */\n      gt\n        /* \"#utility.yul\":17453:17509   */\n      iszero\n      tag_350\n      jumpi\n        /* \"#utility.yul\":17489:17507   */\n      tag_351\n      tag_120\n      jump\t// in\n    tag_351:\n        /* \"#utility.yul\":17453:17509   */\n    tag_350:\n        /* \"#utility.yul\":17533:17571   */\n      tag_352\n        /* \"#utility.yul\":17565:17569   */\n      dup3\n        /* \"#utility.yul\":17559:17570   */\n      sload\n        /* \"#utility.yul\":17533:17571   */\n      tag_98\n      jump\t// in\n    tag_352:\n        /* \"#utility.yul\":17618:17685   */\n      tag_353\n        /* \"#utility.yul\":17678:17684   */\n      dup3\n        /* \"#utility.yul\":17670:17676   */\n      dup3\n        /* \"#utility.yul\":17664:17668   */\n      dup6\n        /* \"#utility.yul\":17618:17685   */\n      tag_155\n      jump\t// in\n    tag_353:\n        /* \"#utility.yul\":17712:17713   */\n      0x00\n        /* \"#utility.yul\":17736:17740   */\n      0x20\n        /* \"#utility.yul\":17723:17740   */\n      swap1\n      pop\n        /* \"#utility.yul\":17768:17770   */\n      0x1f\n        /* \"#utility.yul\":17760:17766   */\n      dup4\n        /* \"#utility.yul\":17757:17771   */\n      gt\n        /* \"#utility.yul\":17785:17786   */\n      0x01\n        /* \"#utility.yul\":17780:18398   */\n      dup2\n      eq\n      tag_355\n      jumpi\n        /* \"#utility.yul\":18442:18443   */\n      0x00\n        /* \"#utility.yul\":18459:18465   */\n      dup5\n        /* \"#utility.yul\":18456:18533   */\n      iszero\n      tag_356\n      jumpi\n        /* \"#utility.yul\":18508:18517   */\n      dup3\n        /* \"#utility.yul\":18503:18506   */\n      dup8\n        /* \"#utility.yul\":18499:18518   */\n      add\n        /* \"#utility.yul\":18493:18519   */\n      mload\n        /* \"#utility.yul\":18484:18519   */\n      swap1\n      pop\n        /* \"#utility.yul\":18456:18533   */\n    tag_356:\n        /* \"#utility.yul\":18559:18626   */\n      tag_357\n        /* \"#utility.yul\":18619:18625   */\n      dup6\n        /* \"#utility.yul\":18612:18617   */\n      dup3\n        /* \"#utility.yul\":18559:18626   */\n      tag_158\n      jump\t// in\n    tag_357:\n        /* \"#utility.yul\":18553:18557   */\n      dup7\n        /* \"#utility.yul\":18546:18627   */\n      sstore\n        /* \"#utility.yul\":18415:18637   */\n      pop\n        /* \"#utility.yul\":17750:18637   */\n      jump(tag_354)\n        /* \"#utility.yul\":17780:18398   */\n    tag_355:\n        /* \"#utility.yul\":17832:17836   */\n      0x1f\n        /* \"#utility.yul\":17828:17837   */\n      not\n        /* \"#utility.yul\":17820:17826   */\n      dup5\n        /* \"#utility.yul\":17816:17838   */\n      and\n        /* \"#utility.yul\":17866:17903   */\n      tag_358\n        /* \"#utility.yul\":17898:17902   */\n      dup7\n        /* \"#utility.yul\":17866:17903   */\n      tag_140\n      jump\t// in\n    tag_358:\n        /* \"#utility.yul\":17925:17926   */\n      0x00\n        /* \"#utility.yul\":17939:18147   */\n    tag_359:\n        /* \"#utility.yul\":17953:17960   */\n      dup3\n        /* \"#utility.yul\":17950:17951   */\n      dup2\n        /* \"#utility.yul\":17947:17961   */\n      lt\n        /* \"#utility.yul\":17939:18147   */\n      iszero\n      tag_361\n      jumpi\n        /* \"#utility.yul\":18032:18041   */\n      dup5\n        /* \"#utility.yul\":18027:18030   */\n      dup10\n        /* \"#utility.yul\":18023:18042   */\n      add\n        /* \"#utility.yul\":18017:18043   */\n      mload\n        /* \"#utility.yul\":18009:18015   */\n      dup3\n        /* \"#utility.yul\":18002:18044   */\n      sstore\n        /* \"#utility.yul\":18083:18084   */\n      0x01\n        /* \"#utility.yul\":18075:18081   */\n      dup3\n        /* \"#utility.yul\":18071:18085   */\n      add\n        /* \"#utility.yul\":18061:18085   */\n      swap2\n      pop\n        /* \"#utility.yul\":18130:18132   */\n      0x20\n        /* \"#utility.yul\":18119:18128   */\n      dup6\n        /* \"#utility.yul\":18115:18133   */\n      add\n        /* \"#utility.yul\":18102:18133   */\n      swap5\n      pop\n        /* \"#utility.yul\":17976:17980   */\n      0x20\n        /* \"#utility.yul\":17973:17974   */\n      dup2\n        /* \"#utility.yul\":17969:17981   */\n      add\n        /* \"#utility.yul\":17964:17981   */\n      swap1\n      pop\n        /* \"#utility.yul\":17939:18147   */\n      jump(tag_359)\n    tag_361:\n        /* \"#utility.yul\":18175:18181   */\n      dup7\n        /* \"#utility.yul\":18166:18173   */\n      dup4\n        /* \"#utility.yul\":18163:18182   */\n      lt\n        /* \"#utility.yul\":18160:18339   */\n      iszero\n      tag_362\n      jumpi\n        /* \"#utility.yul\":18233:18242   */\n      dup5\n        /* \"#utility.yul\":18228:18231   */\n      dup10\n        /* \"#utility.yul\":18224:18243   */\n      add\n        /* \"#utility.yul\":18218:18244   */\n      mload\n        /* \"#utility.yul\":18276:18324   */\n      tag_363\n        /* \"#utility.yul\":18318:18322   */\n      0x1f\n        /* \"#utility.yul\":18310:18316   */\n      dup10\n        /* \"#utility.yul\":18306:18323   */\n      and\n        /* \"#utility.yul\":18295:18304   */\n      dup3\n        /* \"#utility.yul\":18276:18324   */\n      tag_157\n      jump\t// in\n    tag_363:\n        /* \"#utility.yul\":18268:18274   */\n      dup4\n        /* \"#utility.yul\":18261:18325   */\n      sstore\n        /* \"#utility.yul\":18183:18339   */\n      pop\n        /* \"#utility.yul\":18160:18339   */\n    tag_362:\n        /* \"#utility.yul\":18385:18386   */\n      0x01\n        /* \"#utility.yul\":18381:18382   */\n      0x02\n        /* \"#utility.yul\":18373:18379   */\n      dup9\n        /* \"#utility.yul\":18369:18383   */\n      mul\n        /* \"#utility.yul\":18365:18387   */\n      add\n        /* \"#utility.yul\":18359:18363   */\n      dup9\n        /* \"#utility.yul\":18352:18388   */\n      sstore\n        /* \"#utility.yul\":17787:18398   */\n      pop\n      pop\n      pop\n        /* \"#utility.yul\":17750:18637   */\n    tag_354:\n      pop\n        /* \"#utility.yul\":17340:18643   */\n      pop\n      pop\n      pop\n        /* \"#utility.yul\":17248:18643   */\n      pop\n      pop\n      jump\t// out\n\n    auxdata: 0xa2646970667358221220dba196914dc84f567efe6c3dd53528d677c2f44e34b2e615720f882b79c9f39c64736f6c63430008110033\n}\n",
				"bytecode": {
					"linkReferences": {},
					"object": "60806040526000600255600160055560006006553480156200002057600080fd5b5060405162001ad238038062001ad2833981810160405281019062000046919062000324565b33600160006101000a81548173ffffffffffffffffffffffffffffffffffffffff021916908373ffffffffffffffffffffffffffffffffffffffff1602179055508160039081620000989190620005cb565b5080600481905550620000b0620000be60201b60201c565b6002819055505050620008ce565b60008043426004546003604051602001620000da919062000753565b6040516020818303038152906040528051906020012060001c620000ff9190620007a6565b6200010b9190620007a6565b620001179190620007a6565b90506001600a80836200012b919062000810565b62000137919062000848565b8262000144919062000893565b620001509190620007a6565b91505090565b6000604051905090565b600080fd5b600080fd5b600080fd5b600080fd5b6000601f19601f8301169050919050565b7f4e487b7100000000000000000000000000000000000000000000000000000000600052604160045260246000fd5b620001bf8262000174565b810181811067ffffffffffffffff82111715620001e157620001e062000185565b5b80604052505050565b6000620001f662000156565b9050620002048282620001b4565b919050565b600067ffffffffffffffff82111562000227576200022662000185565b5b620002328262000174565b9050602081019050919050565b60005b838110156200025f57808201518184015260208101905062000242565b60008484015250505050565b6000620002826200027c8462000209565b620001ea565b905082815260208101848484011115620002a157620002a06200016f565b5b620002ae8482856200023f565b509392505050565b600082601f830112620002ce57620002cd6200016a565b5b8151620002e08482602086016200026b565b91505092915050565b6000819050919050565b620002fe81620002e9565b81146200030a57600080fd5b50565b6000815190506200031e81620002f3565b92915050565b600080604083850312156200033e576200033d62000160565b5b600083015167ffffffffffffffff8111156200035f576200035e62000165565b5b6200036d85828601620002b6565b925050602062000380858286016200030d565b9150509250929050565b600081519050919050565b7f4e487b7100000000000000000000000000000000000000000000000000000000600052602260045260246000fd5b60006002820490506001821680620003dd57607f821691505b602082108103620003f357620003f262000395565b5b50919050565b60008190508160005260206000209050919050565b60006020601f8301049050919050565b600082821b905092915050565b6000600883026200045d7fffffffffffffffffffffffffffffffffffffffffffffffffffffffffffffffff826200041e565b6200046986836200041e565b95508019841693508086168417925050509392505050565b6000819050919050565b6000620004ac620004a6620004a084620002e9565b62000481565b620002e9565b9050919050565b6000819050919050565b620004c8836200048b565b620004e0620004d782620004b3565b8484546200042b565b825550505050565b600090565b620004f7620004e8565b62000504818484620004bd565b505050565b5b818110156200052c5762000520600082620004ed565b6001810190506200050a565b5050565b601f8211156200057b576200054581620003f9565b62000550846200040e565b8101602085101562000560578190505b620005786200056f856200040e565b83018262000509565b50505b505050565b600082821c905092915050565b6000620005a06000198460080262000580565b1980831691505092915050565b6000620005bb83836200058d565b9150826002028217905092915050565b620005d6826200038a565b67ffffffffffffffff811115620005f257620005f162000185565b5b620005fe8254620003c4565b6200060b82828562000530565b600060209050601f8311600181146200064357600084156200062e578287015190505b6200063a8582620005ad565b865550620006aa565b601f1984166200065386620003f9565b60005b828110156200067d5784890151825560018201915060208501945060208101905062000656565b868310156200069d578489015162000699601f8916826200058d565b8355505b6001600288020188555050505b505050505050565b600082825260208201905092915050565b60008154620006d281620003c4565b620006de8186620006b2565b94506001821660008114620006fc576001811462000713576200074a565b60ff1983168652811515602002860193506200074a565b6200071e85620003f9565b60005b83811015620007425781548189015260018201915060208101905062000721565b808801955050505b50505092915050565b600060208201905081810360008301526200076f8184620006c3565b905092915050565b7f4e487b7100000000000000000000000000000000000000000000000000000000600052601160045260246000fd5b6000620007b382620002e9565b9150620007c083620002e9565b9250828201905080821115620007db57620007da62000777565b5b92915050565b7f4e487b7100000000000000000000000000000000000000000000000000000000600052601260045260246000fd5b60006200081d82620002e9565b91506200082a83620002e9565b9250826200083d576200083c620007e1565b5b828204905092915050565b60006200085582620002e9565b91506200086283620002e9565b92508282026200087281620002e9565b915082820484148315176200088c576200088b62000777565b5b5092915050565b6000620008a082620002e9565b9150620008ad83620002e9565b9250828203905081811115620008c857620008c762000777565b5b92915050565b6111f480620008de6000396000f3fe6080604052600436106100745760003560e01c80635ef5cc891161004e5780635ef5cc891461034357806379ed40bc1461036c5780638da5cb5b14610398578063cf66b989146103c3576102bf565b80630df516d8146102c4578063146ca531146102ef57806319e2eb861461031a576102bf565b366102bf5766038d7ea4c6800034146100c2576040517f08c379a00000000000000000000000000000000000000000000000000000000081526004016100b9906107c9565b60405180910390fd5b6001600080600554815260200190815260200160002060003373ffffffffffffffffffffffffffffffffffffffff1673ffffffffffffffffffffffffffffffffffffffff16815260200190815260200160002060006101000a81548160ff02191690831515021790555060066000815461013b90610822565b919050819055506002546006540361026e5760003373ffffffffffffffffffffffffffffffffffffffff16476040516101739061089b565b60006040518083038185875af1925050503d80600081146101b0576040519150601f19603f3d011682016040523d82523d6000602084013e6101b5565b606091505b50509050806101f9576040517f08c379a00000000000000000000000000000000000000000000000000000000081526004016101f0906108fc565b60405180910390fd5b600060068190555060056000815461021090610822565b9190508190555061021f610400565b6002819055503373ffffffffffffffffffffffffffffffffffffffff167fd7b5435fa0dd93954c7955210a67950d9385f8cd60631432712709e265ec99ca60405160405180910390a2506102bd565b3373ffffffffffffffffffffffffffffffffffffffff167f20384c35af44ae3e0536c765e1cee107339d7ca70b092472c816a3a62e4ba659346040516102b4919061092b565b60405180910390a25b005b600080fd5b3480156102d057600080fd5b506102d9610488565b6040516102e6919061092b565b60405180910390f35b3480156102fb57600080fd5b5061030461048e565b604051610311919061092b565b60405180910390f35b34801561032657600080fd5b50610341600480360381019061033c9190610acc565b610494565b005b34801561034f57600080fd5b5061036a60048036038101906103659190610acc565b61053f565b005b34801561037857600080fd5b506103816105ea565b60405161038f929190610b96565b60405180910390f35b3480156103a457600080fd5b506103ad610717565b6040516103ba9190610c07565b60405180910390f35b3480156103cf57600080fd5b506103ea60048036038101906103e59190610c4e565b61073d565b6040516103f79190610ca9565b60405180910390f35b6000804342600454600360405160200161041a9190610dbd565b6040516020818303038152906040528051906020012060001c61043d9190610ddf565b6104479190610ddf565b6104519190610ddf565b90506001600a80836104639190610e42565b61046d9190610e73565b826104789190610eb5565b6104829190610ddf565b91505090565b60065481565b60055481565b600160009054906101000a900473ffffffffffffffffffffffffffffffffffffffff1673ffffffffffffffffffffffffffffffffffffffff163373ffffffffffffffffffffffffffffffffffffffff1614610524576040517f08c379a000000000000000000000000000000000000000000000000000000000815260040161051b90610f35565b60405180910390fd5b816003908161053391906110ec565b50806004819055505050565b600160009054906101000a900473ffffffffffffffffffffffffffffffffffffffff1673ffffffffffffffffffffffffffffffffffffffff163373ffffffffffffffffffffffffffffffffffffffff16146105cf576040517f08c379a00000000000000000000000000000000000000000000000000000000081526004016105c690610f35565b60405180910390fd5b81600390816105de91906110ec565b50806004819055505050565b60606000600160009054906101000a900473ffffffffffffffffffffffffffffffffffffffff1673ffffffffffffffffffffffffffffffffffffffff163373ffffffffffffffffffffffffffffffffffffffff161461067e576040517f08c379a000000000000000000000000000000000000000000000000000000000815260040161067590610f35565b60405180910390fd5b600360045481805461068f90610cf3565b80601f01602080910402602001604051908101604052809291908181526020018280546106bb90610cf3565b80156107085780601f106106dd57610100808354040283529160200191610708565b820191906000526020600020905b8154815290600101906020018083116106eb57829003601f168201915b50505050509150915091509091565b600160009054906101000a900473ffffffffffffffffffffffffffffffffffffffff1681565b60006020528160005260406000206020528060005260406000206000915091509054906101000a900460ff1681565b600082825260208201905092915050565b7f4d757374626520302e3030312065746865720000000000000000000000000000600082015250565b60006107b360128361076c565b91506107be8261077d565b602082019050919050565b600060208201905081810360008301526107e2816107a6565b9050919050565b7f4e487b7100000000000000000000000000000000000000000000000000000000600052601160045260246000fd5b6000819050919050565b600061082d82610818565b91507fffffffffffffffffffffffffffffffffffffffffffffffffffffffffffffffff820361085f5761085e6107e9565b5b600182019050919050565b600081905092915050565b50565b600061088560008361086a565b915061089082610875565b600082019050919050565b60006108a682610878565b9150819050919050565b7f4661696c65640000000000000000000000000000000000000000000000000000600082015250565b60006108e660068361076c565b91506108f1826108b0565b602082019050919050565b60006020820190508181036000830152610915816108d9565b9050919050565b61092581610818565b82525050565b6000602082019050610940600083018461091c565b92915050565b6000604051905090565b600080fd5b600080fd5b600080fd5b600080fd5b6000601f19601f8301169050919050565b7f4e487b7100000000000000000000000000000000000000000000000000000000600052604160045260246000fd5b6109ad82610964565b810181811067ffffffffffffffff821117156109cc576109cb610975565b5b80604052505050565b60006109df610946565b90506109eb82826109a4565b919050565b600067ffffffffffffffff821115610a0b57610a0a610975565b5b610a1482610964565b9050602081019050919050565b82818337600083830152505050565b6000610a43610a3e846109f0565b6109d5565b905082815260208101848484011115610a5f57610a5e61095f565b5b610a6a848285610a21565b509392505050565b600082601f830112610a8757610a8661095a565b5b8135610a97848260208601610a30565b91505092915050565b610aa981610818565b8114610ab457600080fd5b50565b600081359050610ac681610aa0565b92915050565b60008060408385031215610ae357610ae2610950565b5b600083013567ffffffffffffffff811115610b0157610b00610955565b5b610b0d85828601610a72565b9250506020610b1e85828601610ab7565b9150509250929050565b600081519050919050565b60005b83811015610b51578082015181840152602081019050610b36565b60008484015250505050565b6000610b6882610b28565b610b72818561076c565b9350610b82818560208601610b33565b610b8b81610964565b840191505092915050565b60006040820190508181036000830152610bb08185610b5d565b9050610bbf602083018461091c565b9392505050565b600073ffffffffffffffffffffffffffffffffffffffff82169050919050565b6000610bf182610bc6565b9050919050565b610c0181610be6565b82525050565b6000602082019050610c1c6000830184610bf8565b92915050565b610c2b81610be6565b8114610c3657600080fd5b50565b600081359050610c4881610c22565b92915050565b60008060408385031215610c6557610c64610950565b5b6000610c7385828601610ab7565b9250506020610c8485828601610c39565b9150509250929050565b60008115159050919050565b610ca381610c8e565b82525050565b6000602082019050610cbe6000830184610c9a565b92915050565b7f4e487b7100000000000000000000000000000000000000000000000000000000600052602260045260246000fd5b60006002820490506001821680610d0b57607f821691505b602082108103610d1e57610d1d610cc4565b5b50919050565b60008190508160005260206000209050919050565b60008154610d4681610cf3565b610d50818661076c565b94506001821660008114610d6b5760018114610d8157610db4565b60ff198316865281151560200286019350610db4565b610d8a85610d24565b60005b83811015610dac57815481890152600182019150602081019050610d8d565b808801955050505b50505092915050565b60006020820190508181036000830152610dd78184610d39565b905092915050565b6000610dea82610818565b9150610df583610818565b9250828201905080821115610e0d57610e0c6107e9565b5b92915050565b7f4e487b7100000000000000000000000000000000000000000000000000000000600052601260045260246000fd5b6000610e4d82610818565b9150610e5883610818565b925082610e6857610e67610e13565b5b828204905092915050565b6000610e7e82610818565b9150610e8983610818565b9250828202610e9781610818565b91508282048414831517610eae57610ead6107e9565b5b5092915050565b6000610ec082610818565b9150610ecb83610818565b9250828203905081811115610ee357610ee26107e9565b5b92915050565b7f4f776e61626c653a2063616c6c6572206973206e6f7420746865206f776e6572600082015250565b6000610f1f60208361076c565b9150610f2a82610ee9565b602082019050919050565b60006020820190508181036000830152610f4e81610f12565b9050919050565b60006020601f8301049050919050565b600082821b905092915050565b600060088302610fa27fffffffffffffffffffffffffffffffffffffffffffffffffffffffffffffffff82610f65565b610fac8683610f65565b95508019841693508086168417925050509392505050565b6000819050919050565b6000610fe9610fe4610fdf84610818565b610fc4565b610818565b9050919050565b6000819050919050565b61100383610fce565b61101761100f82610ff0565b848454610f72565b825550505050565b600090565b61102c61101f565b611037818484610ffa565b505050565b5b8181101561105b57611050600082611024565b60018101905061103d565b5050565b601f8211156110a05761107181610d24565b61107a84610f55565b81016020851015611089578190505b61109d61109585610f55565b83018261103c565b50505b505050565b600082821c905092915050565b60006110c3600019846008026110a5565b1980831691505092915050565b60006110dc83836110b2565b9150826002028217905092915050565b6110f582610b28565b67ffffffffffffffff81111561110e5761110d610975565b5b6111188254610cf3565b61112382828561105f565b600060209050601f8311600181146111565760008415611144578287015190505b61114e85826110d0565b8655506111b6565b601f19841661116486610d24565b60005b8281101561118c57848901518255600182019150602085019450602081019050611167565b868310156111a957848901516111a5601f8916826110b2565b8355505b6001600288020188555050505b50505050505056fea2646970667358221220dba196914dc84f567efe6c3dd53528d677c2f44e34b2e615720f882b79c9f39c64736f6c63430008110033",
					"opcodes": "PUSH1 0x80 PUSH1 0x40 MSTORE PUSH1 0x0 PUSH1 0x2 SSTORE PUSH1 0x1 PUSH1 0x5 SSTORE PUSH1 0x0 PUSH1 0x6 SSTORE CALLVALUE DUP1 ISZERO PUSH3 0x20 JUMPI PUSH1 0x0 DUP1 REVERT JUMPDEST POP PUSH1 0x40 MLOAD PUSH3 0x1AD2 CODESIZE SUB DUP1 PUSH3 0x1AD2 DUP4 CODECOPY DUP2 DUP2 ADD PUSH1 0x40 MSTORE DUP2 ADD SWAP1 PUSH3 0x46 SWAP2 SWAP1 PUSH3 0x324 JUMP JUMPDEST CALLER PUSH1 0x1 PUSH1 0x0 PUSH2 0x100 EXP DUP2 SLOAD DUP2 PUSH20 0xFFFFFFFFFFFFFFFFFFFFFFFFFFFFFFFFFFFFFFFF MUL NOT AND SWAP1 DUP4 PUSH20 0xFFFFFFFFFFFFFFFFFFFFFFFFFFFFFFFFFFFFFFFF AND MUL OR SWAP1 SSTORE POP DUP2 PUSH1 0x3 SWAP1 DUP2 PUSH3 0x98 SWAP2 SWAP1 PUSH3 0x5CB JUMP JUMPDEST POP DUP1 PUSH1 0x4 DUP2 SWAP1 SSTORE POP PUSH3 0xB0 PUSH3 0xBE PUSH1 0x20 SHL PUSH1 0x20 SHR JUMP JUMPDEST PUSH1 0x2 DUP2 SWAP1 SSTORE POP POP POP PUSH3 0x8CE JUMP JUMPDEST PUSH1 0x0 DUP1 NUMBER TIMESTAMP PUSH1 0x4 SLOAD PUSH1 0x3 PUSH1 0x40 MLOAD PUSH1 0x20 ADD PUSH3 0xDA SWAP2 SWAP1 PUSH3 0x753 JUMP JUMPDEST PUSH1 0x40 MLOAD PUSH1 0x20 DUP2 DUP4 SUB SUB DUP2 MSTORE SWAP1 PUSH1 0x40 MSTORE DUP1 MLOAD SWAP1 PUSH1 0x20 ADD KECCAK256 PUSH1 0x0 SHR PUSH3 0xFF SWAP2 SWAP1 PUSH3 0x7A6 JUMP JUMPDEST PUSH3 0x10B SWAP2 SWAP1 PUSH3 0x7A6 JUMP JUMPDEST PUSH3 0x117 SWAP2 SWAP1 PUSH3 0x7A6 JUMP JUMPDEST SWAP1 POP PUSH1 0x1 PUSH1 0xA DUP1 DUP4 PUSH3 0x12B SWAP2 SWAP1 PUSH3 0x810 JUMP JUMPDEST PUSH3 0x137 SWAP2 SWAP1 PUSH3 0x848 JUMP JUMPDEST DUP3 PUSH3 0x144 SWAP2 SWAP1 PUSH3 0x893 JUMP JUMPDEST PUSH3 0x150 SWAP2 SWAP1 PUSH3 0x7A6 JUMP JUMPDEST SWAP2 POP POP SWAP1 JUMP JUMPDEST PUSH1 0x0 PUSH1 0x40 MLOAD SWAP1 POP SWAP1 JUMP JUMPDEST PUSH1 0x0 DUP1 REVERT JUMPDEST PUSH1 0x0 DUP1 REVERT JUMPDEST PUSH1 0x0 DUP1 REVERT JUMPDEST PUSH1 0x0 DUP1 REVERT JUMPDEST PUSH1 0x0 PUSH1 0x1F NOT PUSH1 0x1F DUP4 ADD AND SWAP1 POP SWAP2 SWAP1 POP JUMP JUMPDEST PUSH32 0x4E487B7100000000000000000000000000000000000000000000000000000000 PUSH1 0x0 MSTORE PUSH1 0x41 PUSH1 0x4 MSTORE PUSH1 0x24 PUSH1 0x0 REVERT JUMPDEST PUSH3 0x1BF DUP3 PUSH3 0x174 JUMP JUMPDEST DUP2 ADD DUP2 DUP2 LT PUSH8 0xFFFFFFFFFFFFFFFF DUP3 GT OR ISZERO PUSH3 0x1E1 JUMPI PUSH3 0x1E0 PUSH3 0x185 JUMP JUMPDEST JUMPDEST DUP1 PUSH1 0x40 MSTORE POP POP POP JUMP JUMPDEST PUSH1 0x0 PUSH3 0x1F6 PUSH3 0x156 JUMP JUMPDEST SWAP1 POP PUSH3 0x204 DUP3 DUP3 PUSH3 0x1B4 JUMP JUMPDEST SWAP2 SWAP1 POP JUMP JUMPDEST PUSH1 0x0 PUSH8 0xFFFFFFFFFFFFFFFF DUP3 GT ISZERO PUSH3 0x227 JUMPI PUSH3 0x226 PUSH3 0x185 JUMP JUMPDEST JUMPDEST PUSH3 0x232 DUP3 PUSH3 0x174 JUMP JUMPDEST SWAP1 POP PUSH1 0x20 DUP2 ADD SWAP1 POP SWAP2 SWAP1 POP JUMP JUMPDEST PUSH1 0x0 JUMPDEST DUP4 DUP2 LT ISZERO PUSH3 0x25F JUMPI DUP1 DUP3 ADD MLOAD DUP2 DUP5 ADD MSTORE PUSH1 0x20 DUP2 ADD SWAP1 POP PUSH3 0x242 JUMP JUMPDEST PUSH1 0x0 DUP5 DUP5 ADD MSTORE POP POP POP POP JUMP JUMPDEST PUSH1 0x0 PUSH3 0x282 PUSH3 0x27C DUP5 PUSH3 0x209 JUMP JUMPDEST PUSH3 0x1EA JUMP JUMPDEST SWAP1 POP DUP3 DUP2 MSTORE PUSH1 0x20 DUP2 ADD DUP5 DUP5 DUP5 ADD GT ISZERO PUSH3 0x2A1 JUMPI PUSH3 0x2A0 PUSH3 0x16F JUMP JUMPDEST JUMPDEST PUSH3 0x2AE DUP5 DUP3 DUP6 PUSH3 0x23F JUMP JUMPDEST POP SWAP4 SWAP3 POP POP POP JUMP JUMPDEST PUSH1 0x0 DUP3 PUSH1 0x1F DUP4 ADD SLT PUSH3 0x2CE JUMPI PUSH3 0x2CD PUSH3 0x16A JUMP JUMPDEST JUMPDEST DUP2 MLOAD PUSH3 0x2E0 DUP5 DUP3 PUSH1 0x20 DUP7 ADD PUSH3 0x26B JUMP JUMPDEST SWAP2 POP POP SWAP3 SWAP2 POP POP JUMP JUMPDEST PUSH1 0x0 DUP2 SWAP1 POP SWAP2 SWAP1 POP JUMP JUMPDEST PUSH3 0x2FE DUP2 PUSH3 0x2E9 JUMP JUMPDEST DUP2 EQ PUSH3 0x30A JUMPI PUSH1 0x0 DUP1 REVERT JUMPDEST POP JUMP JUMPDEST PUSH1 0x0 DUP2 MLOAD SWAP1 POP PUSH3 0x31E DUP2 PUSH3 0x2F3 JUMP JUMPDEST SWAP3 SWAP2 POP POP JUMP JUMPDEST PUSH1 0x0 DUP1 PUSH1 0x40 DUP4 DUP6 SUB SLT ISZERO PUSH3 0x33E JUMPI PUSH3 0x33D PUSH3 0x160 JUMP JUMPDEST JUMPDEST PUSH1 0x0 DUP4 ADD MLOAD PUSH8 0xFFFFFFFFFFFFFFFF DUP2 GT ISZERO PUSH3 0x35F JUMPI PUSH3 0x35E PUSH3 0x165 JUMP JUMPDEST JUMPDEST PUSH3 0x36D DUP6 DUP3 DUP7 ADD PUSH3 0x2B6 JUMP JUMPDEST SWAP3 POP POP PUSH1 0x20 PUSH3 0x380 DUP6 DUP3 DUP7 ADD PUSH3 0x30D JUMP JUMPDEST SWAP2 POP POP SWAP3 POP SWAP3 SWAP1 POP JUMP JUMPDEST PUSH1 0x0 DUP2 MLOAD SWAP1 POP SWAP2 SWAP1 POP JUMP JUMPDEST PUSH32 0x4E487B7100000000000000000000000000000000000000000000000000000000 PUSH1 0x0 MSTORE PUSH1 0x22 PUSH1 0x4 MSTORE PUSH1 0x24 PUSH1 0x0 REVERT JUMPDEST PUSH1 0x0 PUSH1 0x2 DUP3 DIV SWAP1 POP PUSH1 0x1 DUP3 AND DUP1 PUSH3 0x3DD JUMPI PUSH1 0x7F DUP3 AND SWAP2 POP JUMPDEST PUSH1 0x20 DUP3 LT DUP2 SUB PUSH3 0x3F3 JUMPI PUSH3 0x3F2 PUSH3 0x395 JUMP JUMPDEST JUMPDEST POP SWAP2 SWAP1 POP JUMP JUMPDEST PUSH1 0x0 DUP2 SWAP1 POP DUP2 PUSH1 0x0 MSTORE PUSH1 0x20 PUSH1 0x0 KECCAK256 SWAP1 POP SWAP2 SWAP1 POP JUMP JUMPDEST PUSH1 0x0 PUSH1 0x20 PUSH1 0x1F DUP4 ADD DIV SWAP1 POP SWAP2 SWAP1 POP JUMP JUMPDEST PUSH1 0x0 DUP3 DUP3 SHL SWAP1 POP SWAP3 SWAP2 POP POP JUMP JUMPDEST PUSH1 0x0 PUSH1 0x8 DUP4 MUL PUSH3 0x45D PUSH32 0xFFFFFFFFFFFFFFFFFFFFFFFFFFFFFFFFFFFFFFFFFFFFFFFFFFFFFFFFFFFFFFFF DUP3 PUSH3 0x41E JUMP JUMPDEST PUSH3 0x469 DUP7 DUP4 PUSH3 0x41E JUMP JUMPDEST SWAP6 POP DUP1 NOT DUP5 AND SWAP4 POP DUP1 DUP7 AND DUP5 OR SWAP3 POP POP POP SWAP4 SWAP3 POP POP POP JUMP JUMPDEST PUSH1 0x0 DUP2 SWAP1 POP SWAP2 SWAP1 POP JUMP JUMPDEST PUSH1 0x0 PUSH3 0x4AC PUSH3 0x4A6 PUSH3 0x4A0 DUP5 PUSH3 0x2E9 JUMP JUMPDEST PUSH3 0x481 JUMP JUMPDEST PUSH3 0x2E9 JUMP JUMPDEST SWAP1 POP SWAP2 SWAP1 POP JUMP JUMPDEST PUSH1 0x0 DUP2 SWAP1 POP SWAP2 SWAP1 POP JUMP JUMPDEST PUSH3 0x4C8 DUP4 PUSH3 0x48B JUMP JUMPDEST PUSH3 0x4E0 PUSH3 0x4D7 DUP3 PUSH3 0x4B3 JUMP JUMPDEST DUP5 DUP5 SLOAD PUSH3 0x42B JUMP JUMPDEST DUP3 SSTORE POP POP POP POP JUMP JUMPDEST PUSH1 0x0 SWAP1 JUMP JUMPDEST PUSH3 0x4F7 PUSH3 0x4E8 JUMP JUMPDEST PUSH3 0x504 DUP2 DUP5 DUP5 PUSH3 0x4BD JUMP JUMPDEST POP POP POP JUMP JUMPDEST JUMPDEST DUP2 DUP2 LT ISZERO PUSH3 0x52C JUMPI PUSH3 0x520 PUSH1 0x0 DUP3 PUSH3 0x4ED JUMP JUMPDEST PUSH1 0x1 DUP2 ADD SWAP1 POP PUSH3 0x50A JUMP JUMPDEST POP POP JUMP JUMPDEST PUSH1 0x1F DUP3 GT ISZERO PUSH3 0x57B JUMPI PUSH3 0x545 DUP2 PUSH3 0x3F9 JUMP JUMPDEST PUSH3 0x550 DUP5 PUSH3 0x40E JUMP JUMPDEST DUP2 ADD PUSH1 0x20 DUP6 LT ISZERO PUSH3 0x560 JUMPI DUP2 SWAP1 POP JUMPDEST PUSH3 0x578 PUSH3 0x56F DUP6 PUSH3 0x40E JUMP JUMPDEST DUP4 ADD DUP3 PUSH3 0x509 JUMP JUMPDEST POP POP JUMPDEST POP POP POP JUMP JUMPDEST PUSH1 0x0 DUP3 DUP3 SHR SWAP1 POP SWAP3 SWAP2 POP POP JUMP JUMPDEST PUSH1 0x0 PUSH3 0x5A0 PUSH1 0x0 NOT DUP5 PUSH1 0x8 MUL PUSH3 0x580 JUMP JUMPDEST NOT DUP1 DUP4 AND SWAP2 POP POP SWAP3 SWAP2 POP POP JUMP JUMPDEST PUSH1 0x0 PUSH3 0x5BB DUP4 DUP4 PUSH3 0x58D JUMP JUMPDEST SWAP2 POP DUP3 PUSH1 0x2 MUL DUP3 OR SWAP1 POP SWAP3 SWAP2 POP POP JUMP JUMPDEST PUSH3 0x5D6 DUP3 PUSH3 0x38A JUMP JUMPDEST PUSH8 0xFFFFFFFFFFFFFFFF DUP2 GT ISZERO PUSH3 0x5F2 JUMPI PUSH3 0x5F1 PUSH3 0x185 JUMP JUMPDEST JUMPDEST PUSH3 0x5FE DUP3 SLOAD PUSH3 0x3C4 JUMP JUMPDEST PUSH3 0x60B DUP3 DUP3 DUP6 PUSH3 0x530 JUMP JUMPDEST PUSH1 0x0 PUSH1 0x20 SWAP1 POP PUSH1 0x1F DUP4 GT PUSH1 0x1 DUP2 EQ PUSH3 0x643 JUMPI PUSH1 0x0 DUP5 ISZERO PUSH3 0x62E JUMPI DUP3 DUP8 ADD MLOAD SWAP1 POP JUMPDEST PUSH3 0x63A DUP6 DUP3 PUSH3 0x5AD JUMP JUMPDEST DUP7 SSTORE POP PUSH3 0x6AA JUMP JUMPDEST PUSH1 0x1F NOT DUP5 AND PUSH3 0x653 DUP7 PUSH3 0x3F9 JUMP JUMPDEST PUSH1 0x0 JUMPDEST DUP3 DUP2 LT ISZERO PUSH3 0x67D JUMPI DUP5 DUP10 ADD MLOAD DUP3 SSTORE PUSH1 0x1 DUP3 ADD SWAP2 POP PUSH1 0x20 DUP6 ADD SWAP5 POP PUSH1 0x20 DUP2 ADD SWAP1 POP PUSH3 0x656 JUMP JUMPDEST DUP7 DUP4 LT ISZERO PUSH3 0x69D JUMPI DUP5 DUP10 ADD MLOAD PUSH3 0x699 PUSH1 0x1F DUP10 AND DUP3 PUSH3 0x58D JUMP JUMPDEST DUP4 SSTORE POP JUMPDEST PUSH1 0x1 PUSH1 0x2 DUP9 MUL ADD DUP9 SSTORE POP POP POP JUMPDEST POP POP POP POP POP POP JUMP JUMPDEST PUSH1 0x0 DUP3 DUP3 MSTORE PUSH1 0x20 DUP3 ADD SWAP1 POP SWAP3 SWAP2 POP POP JUMP JUMPDEST PUSH1 0x0 DUP2 SLOAD PUSH3 0x6D2 DUP2 PUSH3 0x3C4 JUMP JUMPDEST PUSH3 0x6DE DUP2 DUP7 PUSH3 0x6B2 JUMP JUMPDEST SWAP5 POP PUSH1 0x1 DUP3 AND PUSH1 0x0 DUP2 EQ PUSH3 0x6FC JUMPI PUSH1 0x1 DUP2 EQ PUSH3 0x713 JUMPI PUSH3 0x74A JUMP JUMPDEST PUSH1 0xFF NOT DUP4 AND DUP7 MSTORE DUP2 ISZERO ISZERO PUSH1 0x20 MUL DUP7 ADD SWAP4 POP PUSH3 0x74A JUMP JUMPDEST PUSH3 0x71E DUP6 PUSH3 0x3F9 JUMP JUMPDEST PUSH1 0x0 JUMPDEST DUP4 DUP2 LT ISZERO PUSH3 0x742 JUMPI DUP2 SLOAD DUP2 DUP10 ADD MSTORE PUSH1 0x1 DUP3 ADD SWAP2 POP PUSH1 0x20 DUP2 ADD SWAP1 POP PUSH3 0x721 JUMP JUMPDEST DUP1 DUP9 ADD SWAP6 POP POP POP JUMPDEST POP POP POP SWAP3 SWAP2 POP POP JUMP JUMPDEST PUSH1 0x0 PUSH1 0x20 DUP3 ADD SWAP1 POP DUP2 DUP2 SUB PUSH1 0x0 DUP4 ADD MSTORE PUSH3 0x76F DUP2 DUP5 PUSH3 0x6C3 JUMP JUMPDEST SWAP1 POP SWAP3 SWAP2 POP POP JUMP JUMPDEST PUSH32 0x4E487B7100000000000000000000000000000000000000000000000000000000 PUSH1 0x0 MSTORE PUSH1 0x11 PUSH1 0x4 MSTORE PUSH1 0x24 PUSH1 0x0 REVERT JUMPDEST PUSH1 0x0 PUSH3 0x7B3 DUP3 PUSH3 0x2E9 JUMP JUMPDEST SWAP2 POP PUSH3 0x7C0 DUP4 PUSH3 0x2E9 JUMP JUMPDEST SWAP3 POP DUP3 DUP3 ADD SWAP1 POP DUP1 DUP3 GT ISZERO PUSH3 0x7DB JUMPI PUSH3 0x7DA PUSH3 0x777 JUMP JUMPDEST JUMPDEST SWAP3 SWAP2 POP POP JUMP JUMPDEST PUSH32 0x4E487B7100000000000000000000000000000000000000000000000000000000 PUSH1 0x0 MSTORE PUSH1 0x12 PUSH1 0x4 MSTORE PUSH1 0x24 PUSH1 0x0 REVERT JUMPDEST PUSH1 0x0 PUSH3 0x81D DUP3 PUSH3 0x2E9 JUMP JUMPDEST SWAP2 POP PUSH3 0x82A DUP4 PUSH3 0x2E9 JUMP JUMPDEST SWAP3 POP DUP3 PUSH3 0x83D JUMPI PUSH3 0x83C PUSH3 0x7E1 JUMP JUMPDEST JUMPDEST DUP3 DUP3 DIV SWAP1 POP SWAP3 SWAP2 POP POP JUMP JUMPDEST PUSH1 0x0 PUSH3 0x855 DUP3 PUSH3 0x2E9 JUMP JUMPDEST SWAP2 POP PUSH3 0x862 DUP4 PUSH3 0x2E9 JUMP JUMPDEST SWAP3 POP DUP3 DUP3 MUL PUSH3 0x872 DUP2 PUSH3 0x2E9 JUMP JUMPDEST SWAP2 POP DUP3 DUP3 DIV DUP5 EQ DUP4 ISZERO OR PUSH3 0x88C JUMPI PUSH3 0x88B PUSH3 0x777 JUMP JUMPDEST JUMPDEST POP SWAP3 SWAP2 POP POP JUMP JUMPDEST PUSH1 0x0 PUSH3 0x8A0 DUP3 PUSH3 0x2E9 JUMP JUMPDEST SWAP2 POP PUSH3 0x8AD DUP4 PUSH3 0x2E9 JUMP JUMPDEST SWAP3 POP DUP3 DUP3 SUB SWAP1 POP DUP2 DUP2 GT ISZERO PUSH3 0x8C8 JUMPI PUSH3 0x8C7 PUSH3 0x777 JUMP JUMPDEST JUMPDEST SWAP3 SWAP2 POP POP JUMP JUMPDEST PUSH2 0x11F4 DUP1 PUSH3 0x8DE PUSH1 0x0 CODECOPY PUSH1 0x0 RETURN INVALID PUSH1 0x80 PUSH1 0x40 MSTORE PUSH1 0x4 CALLDATASIZE LT PUSH2 0x74 JUMPI PUSH1 0x0 CALLDATALOAD PUSH1 0xE0 SHR DUP1 PUSH4 0x5EF5CC89 GT PUSH2 0x4E JUMPI DUP1 PUSH4 0x5EF5CC89 EQ PUSH2 0x343 JUMPI DUP1 PUSH4 0x79ED40BC EQ PUSH2 0x36C JUMPI DUP1 PUSH4 0x8DA5CB5B EQ PUSH2 0x398 JUMPI DUP1 PUSH4 0xCF66B989 EQ PUSH2 0x3C3 JUMPI PUSH2 0x2BF JUMP JUMPDEST DUP1 PUSH4 0xDF516D8 EQ PUSH2 0x2C4 JUMPI DUP1 PUSH4 0x146CA531 EQ PUSH2 0x2EF JUMPI DUP1 PUSH4 0x19E2EB86 EQ PUSH2 0x31A JUMPI PUSH2 0x2BF JUMP JUMPDEST CALLDATASIZE PUSH2 0x2BF JUMPI PUSH7 0x38D7EA4C68000 CALLVALUE EQ PUSH2 0xC2 JUMPI PUSH1 0x40 MLOAD PUSH32 0x8C379A000000000000000000000000000000000000000000000000000000000 DUP2 MSTORE PUSH1 0x4 ADD PUSH2 0xB9 SWAP1 PUSH2 0x7C9 JUMP JUMPDEST PUSH1 0x40 MLOAD DUP1 SWAP2 SUB SWAP1 REVERT JUMPDEST PUSH1 0x1 PUSH1 0x0 DUP1 PUSH1 0x5 SLOAD DUP2 MSTORE PUSH1 0x20 ADD SWAP1 DUP2 MSTORE PUSH1 0x20 ADD PUSH1 0x0 KECCAK256 PUSH1 0x0 CALLER PUSH20 0xFFFFFFFFFFFFFFFFFFFFFFFFFFFFFFFFFFFFFFFF AND PUSH20 0xFFFFFFFFFFFFFFFFFFFFFFFFFFFFFFFFFFFFFFFF AND DUP2 MSTORE PUSH1 0x20 ADD SWAP1 DUP2 MSTORE PUSH1 0x20 ADD PUSH1 0x0 KECCAK256 PUSH1 0x0 PUSH2 0x100 EXP DUP2 SLOAD DUP2 PUSH1 0xFF MUL NOT AND SWAP1 DUP4 ISZERO ISZERO MUL OR SWAP1 SSTORE POP PUSH1 0x6 PUSH1 0x0 DUP2 SLOAD PUSH2 0x13B SWAP1 PUSH2 0x822 JUMP JUMPDEST SWAP2 SWAP1 POP DUP2 SWAP1 SSTORE POP PUSH1 0x2 SLOAD PUSH1 0x6 SLOAD SUB PUSH2 0x26E JUMPI PUSH1 0x0 CALLER PUSH20 0xFFFFFFFFFFFFFFFFFFFFFFFFFFFFFFFFFFFFFFFF AND SELFBALANCE PUSH1 0x40 MLOAD PUSH2 0x173 SWAP1 PUSH2 0x89B JUMP JUMPDEST PUSH1 0x0 PUSH1 0x40 MLOAD DUP1 DUP4 SUB DUP2 DUP6 DUP8 GAS CALL SWAP3 POP POP POP RETURNDATASIZE DUP1 PUSH1 0x0 DUP2 EQ PUSH2 0x1B0 JUMPI PUSH1 0x40 MLOAD SWAP2 POP PUSH1 0x1F NOT PUSH1 0x3F RETURNDATASIZE ADD AND DUP3 ADD PUSH1 0x40 MSTORE RETURNDATASIZE DUP3 MSTORE RETURNDATASIZE PUSH1 0x0 PUSH1 0x20 DUP5 ADD RETURNDATACOPY PUSH2 0x1B5 JUMP JUMPDEST PUSH1 0x60 SWAP2 POP JUMPDEST POP POP SWAP1 POP DUP1 PUSH2 0x1F9 JUMPI PUSH1 0x40 MLOAD PUSH32 0x8C379A000000000000000000000000000000000000000000000000000000000 DUP2 MSTORE PUSH1 0x4 ADD PUSH2 0x1F0 SWAP1 PUSH2 0x8FC JUMP JUMPDEST PUSH1 0x40 MLOAD DUP1 SWAP2 SUB SWAP1 REVERT JUMPDEST PUSH1 0x0 PUSH1 0x6 DUP2 SWAP1 SSTORE POP PUSH1 0x5 PUSH1 0x0 DUP2 SLOAD PUSH2 0x210 SWAP1 PUSH2 0x822 JUMP JUMPDEST SWAP2 SWAP1 POP DUP2 SWAP1 SSTORE POP PUSH2 0x21F PUSH2 0x400 JUMP JUMPDEST PUSH1 0x2 DUP2 SWAP1 SSTORE POP CALLER PUSH20 0xFFFFFFFFFFFFFFFFFFFFFFFFFFFFFFFFFFFFFFFF AND PUSH32 0xD7B5435FA0DD93954C7955210A67950D9385F8CD60631432712709E265EC99CA PUSH1 0x40 MLOAD PUSH1 0x40 MLOAD DUP1 SWAP2 SUB SWAP1 LOG2 POP PUSH2 0x2BD JUMP JUMPDEST CALLER PUSH20 0xFFFFFFFFFFFFFFFFFFFFFFFFFFFFFFFFFFFFFFFF AND PUSH32 0x20384C35AF44AE3E0536C765E1CEE107339D7CA70B092472C816A3A62E4BA659 CALLVALUE PUSH1 0x40 MLOAD PUSH2 0x2B4 SWAP2 SWAP1 PUSH2 0x92B JUMP JUMPDEST PUSH1 0x40 MLOAD DUP1 SWAP2 SUB SWAP1 LOG2 JUMPDEST STOP JUMPDEST PUSH1 0x0 DUP1 REVERT JUMPDEST CALLVALUE DUP1 ISZERO PUSH2 0x2D0 JUMPI PUSH1 0x0 DUP1 REVERT JUMPDEST POP PUSH2 0x2D9 PUSH2 0x488 JUMP JUMPDEST PUSH1 0x40 MLOAD PUSH2 0x2E6 SWAP2 SWAP1 PUSH2 0x92B JUMP JUMPDEST PUSH1 0x40 MLOAD DUP1 SWAP2 SUB SWAP1 RETURN JUMPDEST CALLVALUE DUP1 ISZERO PUSH2 0x2FB JUMPI PUSH1 0x0 DUP1 REVERT JUMPDEST POP PUSH2 0x304 PUSH2 0x48E JUMP JUMPDEST PUSH1 0x40 MLOAD PUSH2 0x311 SWAP2 SWAP1 PUSH2 0x92B JUMP JUMPDEST PUSH1 0x40 MLOAD DUP1 SWAP2 SUB SWAP1 RETURN JUMPDEST CALLVALUE DUP1 ISZERO PUSH2 0x326 JUMPI PUSH1 0x0 DUP1 REVERT JUMPDEST POP PUSH2 0x341 PUSH1 0x4 DUP1 CALLDATASIZE SUB DUP2 ADD SWAP1 PUSH2 0x33C SWAP2 SWAP1 PUSH2 0xACC JUMP JUMPDEST PUSH2 0x494 JUMP JUMPDEST STOP JUMPDEST CALLVALUE DUP1 ISZERO PUSH2 0x34F JUMPI PUSH1 0x0 DUP1 REVERT JUMPDEST POP PUSH2 0x36A PUSH1 0x4 DUP1 CALLDATASIZE SUB DUP2 ADD SWAP1 PUSH2 0x365 SWAP2 SWAP1 PUSH2 0xACC JUMP JUMPDEST PUSH2 0x53F JUMP JUMPDEST STOP JUMPDEST CALLVALUE DUP1 ISZERO PUSH2 0x378 JUMPI PUSH1 0x0 DUP1 REVERT JUMPDEST POP PUSH2 0x381 PUSH2 0x5EA JUMP JUMPDEST PUSH1 0x40 MLOAD PUSH2 0x38F SWAP3 SWAP2 SWAP1 PUSH2 0xB96 JUMP JUMPDEST PUSH1 0x40 MLOAD DUP1 SWAP2 SUB SWAP1 RETURN JUMPDEST CALLVALUE DUP1 ISZERO PUSH2 0x3A4 JUMPI PUSH1 0x0 DUP1 REVERT JUMPDEST POP PUSH2 0x3AD PUSH2 0x717 JUMP JUMPDEST PUSH1 0x40 MLOAD PUSH2 0x3BA SWAP2 SWAP1 PUSH2 0xC07 JUMP JUMPDEST PUSH1 0x40 MLOAD DUP1 SWAP2 SUB SWAP1 RETURN JUMPDEST CALLVALUE DUP1 ISZERO PUSH2 0x3CF JUMPI PUSH1 0x0 DUP1 REVERT JUMPDEST POP PUSH2 0x3EA PUSH1 0x4 DUP1 CALLDATASIZE SUB DUP2 ADD SWAP1 PUSH2 0x3E5 SWAP2 SWAP1 PUSH2 0xC4E JUMP JUMPDEST PUSH2 0x73D JUMP JUMPDEST PUSH1 0x40 MLOAD PUSH2 0x3F7 SWAP2 SWAP1 PUSH2 0xCA9 JUMP JUMPDEST PUSH1 0x40 MLOAD DUP1 SWAP2 SUB SWAP1 RETURN JUMPDEST PUSH1 0x0 DUP1 NUMBER TIMESTAMP PUSH1 0x4 SLOAD PUSH1 0x3 PUSH1 0x40 MLOAD PUSH1 0x20 ADD PUSH2 0x41A SWAP2 SWAP1 PUSH2 0xDBD JUMP JUMPDEST PUSH1 0x40 MLOAD PUSH1 0x20 DUP2 DUP4 SUB SUB DUP2 MSTORE SWAP1 PUSH1 0x40 MSTORE DUP1 MLOAD SWAP1 PUSH1 0x20 ADD KECCAK256 PUSH1 0x0 SHR PUSH2 0x43D SWAP2 SWAP1 PUSH2 0xDDF JUMP JUMPDEST PUSH2 0x447 SWAP2 SWAP1 PUSH2 0xDDF JUMP JUMPDEST PUSH2 0x451 SWAP2 SWAP1 PUSH2 0xDDF JUMP JUMPDEST SWAP1 POP PUSH1 0x1 PUSH1 0xA DUP1 DUP4 PUSH2 0x463 SWAP2 SWAP1 PUSH2 0xE42 JUMP JUMPDEST PUSH2 0x46D SWAP2 SWAP1 PUSH2 0xE73 JUMP JUMPDEST DUP3 PUSH2 0x478 SWAP2 SWAP1 PUSH2 0xEB5 JUMP JUMPDEST PUSH2 0x482 SWAP2 SWAP1 PUSH2 0xDDF JUMP JUMPDEST SWAP2 POP POP SWAP1 JUMP JUMPDEST PUSH1 0x6 SLOAD DUP2 JUMP JUMPDEST PUSH1 0x5 SLOAD DUP2 JUMP JUMPDEST PUSH1 0x1 PUSH1 0x0 SWAP1 SLOAD SWAP1 PUSH2 0x100 EXP SWAP1 DIV PUSH20 0xFFFFFFFFFFFFFFFFFFFFFFFFFFFFFFFFFFFFFFFF AND PUSH20 0xFFFFFFFFFFFFFFFFFFFFFFFFFFFFFFFFFFFFFFFF AND CALLER PUSH20 0xFFFFFFFFFFFFFFFFFFFFFFFFFFFFFFFFFFFFFFFF AND EQ PUSH2 0x524 JUMPI PUSH1 0x40 MLOAD PUSH32 0x8C379A000000000000000000000000000000000000000000000000000000000 DUP2 MSTORE PUSH1 0x4 ADD PUSH2 0x51B SWAP1 PUSH2 0xF35 JUMP JUMPDEST PUSH1 0x40 MLOAD DUP1 SWAP2 SUB SWAP1 REVERT JUMPDEST DUP2 PUSH1 0x3 SWAP1 DUP2 PUSH2 0x533 SWAP2 SWAP1 PUSH2 0x10EC JUMP JUMPDEST POP DUP1 PUSH1 0x4 DUP2 SWAP1 SSTORE POP POP POP JUMP JUMPDEST PUSH1 0x1 PUSH1 0x0 SWAP1 SLOAD SWAP1 PUSH2 0x100 EXP SWAP1 DIV PUSH20 0xFFFFFFFFFFFFFFFFFFFFFFFFFFFFFFFFFFFFFFFF AND PUSH20 0xFFFFFFFFFFFFFFFFFFFFFFFFFFFFFFFFFFFFFFFF AND CALLER PUSH20 0xFFFFFFFFFFFFFFFFFFFFFFFFFFFFFFFFFFFFFFFF AND EQ PUSH2 0x5CF JUMPI PUSH1 0x40 MLOAD PUSH32 0x8C379A000000000000000000000000000000000000000000000000000000000 DUP2 MSTORE PUSH1 0x4 ADD PUSH2 0x5C6 SWAP1 PUSH2 0xF35 JUMP JUMPDEST PUSH1 0x40 MLOAD DUP1 SWAP2 SUB SWAP1 REVERT JUMPDEST DUP2 PUSH1 0x3 SWAP1 DUP2 PUSH2 0x5DE SWAP2 SWAP1 PUSH2 0x10EC JUMP JUMPDEST POP DUP1 PUSH1 0x4 DUP2 SWAP1 SSTORE POP POP POP JUMP JUMPDEST PUSH1 0x60 PUSH1 0x0 PUSH1 0x1 PUSH1 0x0 SWAP1 SLOAD SWAP1 PUSH2 0x100 EXP SWAP1 DIV PUSH20 0xFFFFFFFFFFFFFFFFFFFFFFFFFFFFFFFFFFFFFFFF AND PUSH20 0xFFFFFFFFFFFFFFFFFFFFFFFFFFFFFFFFFFFFFFFF AND CALLER PUSH20 0xFFFFFFFFFFFFFFFFFFFFFFFFFFFFFFFFFFFFFFFF AND EQ PUSH2 0x67E JUMPI PUSH1 0x40 MLOAD PUSH32 0x8C379A000000000000000000000000000000000000000000000000000000000 DUP2 MSTORE PUSH1 0x4 ADD PUSH2 0x675 SWAP1 PUSH2 0xF35 JUMP JUMPDEST PUSH1 0x40 MLOAD DUP1 SWAP2 SUB SWAP1 REVERT JUMPDEST PUSH1 0x3 PUSH1 0x4 SLOAD DUP2 DUP1 SLOAD PUSH2 0x68F SWAP1 PUSH2 0xCF3 JUMP JUMPDEST DUP1 PUSH1 0x1F ADD PUSH1 0x20 DUP1 SWAP2 DIV MUL PUSH1 0x20 ADD PUSH1 0x40 MLOAD SWAP1 DUP2 ADD PUSH1 0x40 MSTORE DUP1 SWAP3 SWAP2 SWAP1 DUP2 DUP2 MSTORE PUSH1 0x20 ADD DUP3 DUP1 SLOAD PUSH2 0x6BB SWAP1 PUSH2 0xCF3 JUMP JUMPDEST DUP1 ISZERO PUSH2 0x708 JUMPI DUP1 PUSH1 0x1F LT PUSH2 0x6DD JUMPI PUSH2 0x100 DUP1 DUP4 SLOAD DIV MUL DUP4 MSTORE SWAP2 PUSH1 0x20 ADD SWAP2 PUSH2 0x708 JUMP JUMPDEST DUP3 ADD SWAP2 SWAP1 PUSH1 0x0 MSTORE PUSH1 0x20 PUSH1 0x0 KECCAK256 SWAP1 JUMPDEST DUP2 SLOAD DUP2 MSTORE SWAP1 PUSH1 0x1 ADD SWAP1 PUSH1 0x20 ADD DUP1 DUP4 GT PUSH2 0x6EB JUMPI DUP3 SWAP1 SUB PUSH1 0x1F AND DUP3 ADD SWAP2 JUMPDEST POP POP POP POP POP SWAP2 POP SWAP2 POP SWAP2 POP SWAP1 SWAP2 JUMP JUMPDEST PUSH1 0x1 PUSH1 0x0 SWAP1 SLOAD SWAP1 PUSH2 0x100 EXP SWAP1 DIV PUSH20 0xFFFFFFFFFFFFFFFFFFFFFFFFFFFFFFFFFFFFFFFF AND DUP2 JUMP JUMPDEST PUSH1 0x0 PUSH1 0x20 MSTORE DUP2 PUSH1 0x0 MSTORE PUSH1 0x40 PUSH1 0x0 KECCAK256 PUSH1 0x20 MSTORE DUP1 PUSH1 0x0 MSTORE PUSH1 0x40 PUSH1 0x0 KECCAK256 PUSH1 0x0 SWAP2 POP SWAP2 POP SWAP1 SLOAD SWAP1 PUSH2 0x100 EXP SWAP1 DIV PUSH1 0xFF AND DUP2 JUMP JUMPDEST PUSH1 0x0 DUP3 DUP3 MSTORE PUSH1 0x20 DUP3 ADD SWAP1 POP SWAP3 SWAP2 POP POP JUMP JUMPDEST PUSH32 0x4D757374626520302E3030312065746865720000000000000000000000000000 PUSH1 0x0 DUP3 ADD MSTORE POP JUMP JUMPDEST PUSH1 0x0 PUSH2 0x7B3 PUSH1 0x12 DUP4 PUSH2 0x76C JUMP JUMPDEST SWAP2 POP PUSH2 0x7BE DUP3 PUSH2 0x77D JUMP JUMPDEST PUSH1 0x20 DUP3 ADD SWAP1 POP SWAP2 SWAP1 POP JUMP JUMPDEST PUSH1 0x0 PUSH1 0x20 DUP3 ADD SWAP1 POP DUP2 DUP2 SUB PUSH1 0x0 DUP4 ADD MSTORE PUSH2 0x7E2 DUP2 PUSH2 0x7A6 JUMP JUMPDEST SWAP1 POP SWAP2 SWAP1 POP JUMP JUMPDEST PUSH32 0x4E487B7100000000000000000000000000000000000000000000000000000000 PUSH1 0x0 MSTORE PUSH1 0x11 PUSH1 0x4 MSTORE PUSH1 0x24 PUSH1 0x0 REVERT JUMPDEST PUSH1 0x0 DUP2 SWAP1 POP SWAP2 SWAP1 POP JUMP JUMPDEST PUSH1 0x0 PUSH2 0x82D DUP3 PUSH2 0x818 JUMP JUMPDEST SWAP2 POP PUSH32 0xFFFFFFFFFFFFFFFFFFFFFFFFFFFFFFFFFFFFFFFFFFFFFFFFFFFFFFFFFFFFFFFF DUP3 SUB PUSH2 0x85F JUMPI PUSH2 0x85E PUSH2 0x7E9 JUMP JUMPDEST JUMPDEST PUSH1 0x1 DUP3 ADD SWAP1 POP SWAP2 SWAP1 POP JUMP JUMPDEST PUSH1 0x0 DUP2 SWAP1 POP SWAP3 SWAP2 POP POP JUMP JUMPDEST POP JUMP JUMPDEST PUSH1 0x0 PUSH2 0x885 PUSH1 0x0 DUP4 PUSH2 0x86A JUMP JUMPDEST SWAP2 POP PUSH2 0x890 DUP3 PUSH2 0x875 JUMP JUMPDEST PUSH1 0x0 DUP3 ADD SWAP1 POP SWAP2 SWAP1 POP JUMP JUMPDEST PUSH1 0x0 PUSH2 0x8A6 DUP3 PUSH2 0x878 JUMP JUMPDEST SWAP2 POP DUP2 SWAP1 POP SWAP2 SWAP1 POP JUMP JUMPDEST PUSH32 0x4661696C65640000000000000000000000000000000000000000000000000000 PUSH1 0x0 DUP3 ADD MSTORE POP JUMP JUMPDEST PUSH1 0x0 PUSH2 0x8E6 PUSH1 0x6 DUP4 PUSH2 0x76C JUMP JUMPDEST SWAP2 POP PUSH2 0x8F1 DUP3 PUSH2 0x8B0 JUMP JUMPDEST PUSH1 0x20 DUP3 ADD SWAP1 POP SWAP2 SWAP1 POP JUMP JUMPDEST PUSH1 0x0 PUSH1 0x20 DUP3 ADD SWAP1 POP DUP2 DUP2 SUB PUSH1 0x0 DUP4 ADD MSTORE PUSH2 0x915 DUP2 PUSH2 0x8D9 JUMP JUMPDEST SWAP1 POP SWAP2 SWAP1 POP JUMP JUMPDEST PUSH2 0x925 DUP2 PUSH2 0x818 JUMP JUMPDEST DUP3 MSTORE POP POP JUMP JUMPDEST PUSH1 0x0 PUSH1 0x20 DUP3 ADD SWAP1 POP PUSH2 0x940 PUSH1 0x0 DUP4 ADD DUP5 PUSH2 0x91C JUMP JUMPDEST SWAP3 SWAP2 POP POP JUMP JUMPDEST PUSH1 0x0 PUSH1 0x40 MLOAD SWAP1 POP SWAP1 JUMP JUMPDEST PUSH1 0x0 DUP1 REVERT JUMPDEST PUSH1 0x0 DUP1 REVERT JUMPDEST PUSH1 0x0 DUP1 REVERT JUMPDEST PUSH1 0x0 DUP1 REVERT JUMPDEST PUSH1 0x0 PUSH1 0x1F NOT PUSH1 0x1F DUP4 ADD AND SWAP1 POP SWAP2 SWAP1 POP JUMP JUMPDEST PUSH32 0x4E487B7100000000000000000000000000000000000000000000000000000000 PUSH1 0x0 MSTORE PUSH1 0x41 PUSH1 0x4 MSTORE PUSH1 0x24 PUSH1 0x0 REVERT JUMPDEST PUSH2 0x9AD DUP3 PUSH2 0x964 JUMP JUMPDEST DUP2 ADD DUP2 DUP2 LT PUSH8 0xFFFFFFFFFFFFFFFF DUP3 GT OR ISZERO PUSH2 0x9CC JUMPI PUSH2 0x9CB PUSH2 0x975 JUMP JUMPDEST JUMPDEST DUP1 PUSH1 0x40 MSTORE POP POP POP JUMP JUMPDEST PUSH1 0x0 PUSH2 0x9DF PUSH2 0x946 JUMP JUMPDEST SWAP1 POP PUSH2 0x9EB DUP3 DUP3 PUSH2 0x9A4 JUMP JUMPDEST SWAP2 SWAP1 POP JUMP JUMPDEST PUSH1 0x0 PUSH8 0xFFFFFFFFFFFFFFFF DUP3 GT ISZERO PUSH2 0xA0B JUMPI PUSH2 0xA0A PUSH2 0x975 JUMP JUMPDEST JUMPDEST PUSH2 0xA14 DUP3 PUSH2 0x964 JUMP JUMPDEST SWAP1 POP PUSH1 0x20 DUP2 ADD SWAP1 POP SWAP2 SWAP1 POP JUMP JUMPDEST DUP3 DUP2 DUP4 CALLDATACOPY PUSH1 0x0 DUP4 DUP4 ADD MSTORE POP POP POP JUMP JUMPDEST PUSH1 0x0 PUSH2 0xA43 PUSH2 0xA3E DUP5 PUSH2 0x9F0 JUMP JUMPDEST PUSH2 0x9D5 JUMP JUMPDEST SWAP1 POP DUP3 DUP2 MSTORE PUSH1 0x20 DUP2 ADD DUP5 DUP5 DUP5 ADD GT ISZERO PUSH2 0xA5F JUMPI PUSH2 0xA5E PUSH2 0x95F JUMP JUMPDEST JUMPDEST PUSH2 0xA6A DUP5 DUP3 DUP6 PUSH2 0xA21 JUMP JUMPDEST POP SWAP4 SWAP3 POP POP POP JUMP JUMPDEST PUSH1 0x0 DUP3 PUSH1 0x1F DUP4 ADD SLT PUSH2 0xA87 JUMPI PUSH2 0xA86 PUSH2 0x95A JUMP JUMPDEST JUMPDEST DUP2 CALLDATALOAD PUSH2 0xA97 DUP5 DUP3 PUSH1 0x20 DUP7 ADD PUSH2 0xA30 JUMP JUMPDEST SWAP2 POP POP SWAP3 SWAP2 POP POP JUMP JUMPDEST PUSH2 0xAA9 DUP2 PUSH2 0x818 JUMP JUMPDEST DUP2 EQ PUSH2 0xAB4 JUMPI PUSH1 0x0 DUP1 REVERT JUMPDEST POP JUMP JUMPDEST PUSH1 0x0 DUP2 CALLDATALOAD SWAP1 POP PUSH2 0xAC6 DUP2 PUSH2 0xAA0 JUMP JUMPDEST SWAP3 SWAP2 POP POP JUMP JUMPDEST PUSH1 0x0 DUP1 PUSH1 0x40 DUP4 DUP6 SUB SLT ISZERO PUSH2 0xAE3 JUMPI PUSH2 0xAE2 PUSH2 0x950 JUMP JUMPDEST JUMPDEST PUSH1 0x0 DUP4 ADD CALLDATALOAD PUSH8 0xFFFFFFFFFFFFFFFF DUP2 GT ISZERO PUSH2 0xB01 JUMPI PUSH2 0xB00 PUSH2 0x955 JUMP JUMPDEST JUMPDEST PUSH2 0xB0D DUP6 DUP3 DUP7 ADD PUSH2 0xA72 JUMP JUMPDEST SWAP3 POP POP PUSH1 0x20 PUSH2 0xB1E DUP6 DUP3 DUP7 ADD PUSH2 0xAB7 JUMP JUMPDEST SWAP2 POP POP SWAP3 POP SWAP3 SWAP1 POP JUMP JUMPDEST PUSH1 0x0 DUP2 MLOAD SWAP1 POP SWAP2 SWAP1 POP JUMP JUMPDEST PUSH1 0x0 JUMPDEST DUP4 DUP2 LT ISZERO PUSH2 0xB51 JUMPI DUP1 DUP3 ADD MLOAD DUP2 DUP5 ADD MSTORE PUSH1 0x20 DUP2 ADD SWAP1 POP PUSH2 0xB36 JUMP JUMPDEST PUSH1 0x0 DUP5 DUP5 ADD MSTORE POP POP POP POP JUMP JUMPDEST PUSH1 0x0 PUSH2 0xB68 DUP3 PUSH2 0xB28 JUMP JUMPDEST PUSH2 0xB72 DUP2 DUP6 PUSH2 0x76C JUMP JUMPDEST SWAP4 POP PUSH2 0xB82 DUP2 DUP6 PUSH1 0x20 DUP7 ADD PUSH2 0xB33 JUMP JUMPDEST PUSH2 0xB8B DUP2 PUSH2 0x964 JUMP JUMPDEST DUP5 ADD SWAP2 POP POP SWAP3 SWAP2 POP POP JUMP JUMPDEST PUSH1 0x0 PUSH1 0x40 DUP3 ADD SWAP1 POP DUP2 DUP2 SUB PUSH1 0x0 DUP4 ADD MSTORE PUSH2 0xBB0 DUP2 DUP6 PUSH2 0xB5D JUMP JUMPDEST SWAP1 POP PUSH2 0xBBF PUSH1 0x20 DUP4 ADD DUP5 PUSH2 0x91C JUMP JUMPDEST SWAP4 SWAP3 POP POP POP JUMP JUMPDEST PUSH1 0x0 PUSH20 0xFFFFFFFFFFFFFFFFFFFFFFFFFFFFFFFFFFFFFFFF DUP3 AND SWAP1 POP SWAP2 SWAP1 POP JUMP JUMPDEST PUSH1 0x0 PUSH2 0xBF1 DUP3 PUSH2 0xBC6 JUMP JUMPDEST SWAP1 POP SWAP2 SWAP1 POP JUMP JUMPDEST PUSH2 0xC01 DUP2 PUSH2 0xBE6 JUMP JUMPDEST DUP3 MSTORE POP POP JUMP JUMPDEST PUSH1 0x0 PUSH1 0x20 DUP3 ADD SWAP1 POP PUSH2 0xC1C PUSH1 0x0 DUP4 ADD DUP5 PUSH2 0xBF8 JUMP JUMPDEST SWAP3 SWAP2 POP POP JUMP JUMPDEST PUSH2 0xC2B DUP2 PUSH2 0xBE6 JUMP JUMPDEST DUP2 EQ PUSH2 0xC36 JUMPI PUSH1 0x0 DUP1 REVERT JUMPDEST POP JUMP JUMPDEST PUSH1 0x0 DUP2 CALLDATALOAD SWAP1 POP PUSH2 0xC48 DUP2 PUSH2 0xC22 JUMP JUMPDEST SWAP3 SWAP2 POP POP JUMP JUMPDEST PUSH1 0x0 DUP1 PUSH1 0x40 DUP4 DUP6 SUB SLT ISZERO PUSH2 0xC65 JUMPI PUSH2 0xC64 PUSH2 0x950 JUMP JUMPDEST JUMPDEST PUSH1 0x0 PUSH2 0xC73 DUP6 DUP3 DUP7 ADD PUSH2 0xAB7 JUMP JUMPDEST SWAP3 POP POP PUSH1 0x20 PUSH2 0xC84 DUP6 DUP3 DUP7 ADD PUSH2 0xC39 JUMP JUMPDEST SWAP2 POP POP SWAP3 POP SWAP3 SWAP1 POP JUMP JUMPDEST PUSH1 0x0 DUP2 ISZERO ISZERO SWAP1 POP SWAP2 SWAP1 POP JUMP JUMPDEST PUSH2 0xCA3 DUP2 PUSH2 0xC8E JUMP JUMPDEST DUP3 MSTORE POP POP JUMP JUMPDEST PUSH1 0x0 PUSH1 0x20 DUP3 ADD SWAP1 POP PUSH2 0xCBE PUSH1 0x0 DUP4 ADD DUP5 PUSH2 0xC9A JUMP JUMPDEST SWAP3 SWAP2 POP POP JUMP JUMPDEST PUSH32 0x4E487B7100000000000000000000000000000000000000000000000000000000 PUSH1 0x0 MSTORE PUSH1 0x22 PUSH1 0x4 MSTORE PUSH1 0x24 PUSH1 0x0 REVERT JUMPDEST PUSH1 0x0 PUSH1 0x2 DUP3 DIV SWAP1 POP PUSH1 0x1 DUP3 AND DUP1 PUSH2 0xD0B JUMPI PUSH1 0x7F DUP3 AND SWAP2 POP JUMPDEST PUSH1 0x20 DUP3 LT DUP2 SUB PUSH2 0xD1E JUMPI PUSH2 0xD1D PUSH2 0xCC4 JUMP JUMPDEST JUMPDEST POP SWAP2 SWAP1 POP JUMP JUMPDEST PUSH1 0x0 DUP2 SWAP1 POP DUP2 PUSH1 0x0 MSTORE PUSH1 0x20 PUSH1 0x0 KECCAK256 SWAP1 POP SWAP2 SWAP1 POP JUMP JUMPDEST PUSH1 0x0 DUP2 SLOAD PUSH2 0xD46 DUP2 PUSH2 0xCF3 JUMP JUMPDEST PUSH2 0xD50 DUP2 DUP7 PUSH2 0x76C JUMP JUMPDEST SWAP5 POP PUSH1 0x1 DUP3 AND PUSH1 0x0 DUP2 EQ PUSH2 0xD6B JUMPI PUSH1 0x1 DUP2 EQ PUSH2 0xD81 JUMPI PUSH2 0xDB4 JUMP JUMPDEST PUSH1 0xFF NOT DUP4 AND DUP7 MSTORE DUP2 ISZERO ISZERO PUSH1 0x20 MUL DUP7 ADD SWAP4 POP PUSH2 0xDB4 JUMP JUMPDEST PUSH2 0xD8A DUP6 PUSH2 0xD24 JUMP JUMPDEST PUSH1 0x0 JUMPDEST DUP4 DUP2 LT ISZERO PUSH2 0xDAC JUMPI DUP2 SLOAD DUP2 DUP10 ADD MSTORE PUSH1 0x1 DUP3 ADD SWAP2 POP PUSH1 0x20 DUP2 ADD SWAP1 POP PUSH2 0xD8D JUMP JUMPDEST DUP1 DUP9 ADD SWAP6 POP POP POP JUMPDEST POP POP POP SWAP3 SWAP2 POP POP JUMP JUMPDEST PUSH1 0x0 PUSH1 0x20 DUP3 ADD SWAP1 POP DUP2 DUP2 SUB PUSH1 0x0 DUP4 ADD MSTORE PUSH2 0xDD7 DUP2 DUP5 PUSH2 0xD39 JUMP JUMPDEST SWAP1 POP SWAP3 SWAP2 POP POP JUMP JUMPDEST PUSH1 0x0 PUSH2 0xDEA DUP3 PUSH2 0x818 JUMP JUMPDEST SWAP2 POP PUSH2 0xDF5 DUP4 PUSH2 0x818 JUMP JUMPDEST SWAP3 POP DUP3 DUP3 ADD SWAP1 POP DUP1 DUP3 GT ISZERO PUSH2 0xE0D JUMPI PUSH2 0xE0C PUSH2 0x7E9 JUMP JUMPDEST JUMPDEST SWAP3 SWAP2 POP POP JUMP JUMPDEST PUSH32 0x4E487B7100000000000000000000000000000000000000000000000000000000 PUSH1 0x0 MSTORE PUSH1 0x12 PUSH1 0x4 MSTORE PUSH1 0x24 PUSH1 0x0 REVERT JUMPDEST PUSH1 0x0 PUSH2 0xE4D DUP3 PUSH2 0x818 JUMP JUMPDEST SWAP2 POP PUSH2 0xE58 DUP4 PUSH2 0x818 JUMP JUMPDEST SWAP3 POP DUP3 PUSH2 0xE68 JUMPI PUSH2 0xE67 PUSH2 0xE13 JUMP JUMPDEST JUMPDEST DUP3 DUP3 DIV SWAP1 POP SWAP3 SWAP2 POP POP JUMP JUMPDEST PUSH1 0x0 PUSH2 0xE7E DUP3 PUSH2 0x818 JUMP JUMPDEST SWAP2 POP PUSH2 0xE89 DUP4 PUSH2 0x818 JUMP JUMPDEST SWAP3 POP DUP3 DUP3 MUL PUSH2 0xE97 DUP2 PUSH2 0x818 JUMP JUMPDEST SWAP2 POP DUP3 DUP3 DIV DUP5 EQ DUP4 ISZERO OR PUSH2 0xEAE JUMPI PUSH2 0xEAD PUSH2 0x7E9 JUMP JUMPDEST JUMPDEST POP SWAP3 SWAP2 POP POP JUMP JUMPDEST PUSH1 0x0 PUSH2 0xEC0 DUP3 PUSH2 0x818 JUMP JUMPDEST SWAP2 POP PUSH2 0xECB DUP4 PUSH2 0x818 JUMP JUMPDEST SWAP3 POP DUP3 DUP3 SUB SWAP1 POP DUP2 DUP2 GT ISZERO PUSH2 0xEE3 JUMPI PUSH2 0xEE2 PUSH2 0x7E9 JUMP JUMPDEST JUMPDEST SWAP3 SWAP2 POP POP JUMP JUMPDEST PUSH32 0x4F776E61626C653A2063616C6C6572206973206E6F7420746865206F776E6572 PUSH1 0x0 DUP3 ADD MSTORE POP JUMP JUMPDEST PUSH1 0x0 PUSH2 0xF1F PUSH1 0x20 DUP4 PUSH2 0x76C JUMP JUMPDEST SWAP2 POP PUSH2 0xF2A DUP3 PUSH2 0xEE9 JUMP JUMPDEST PUSH1 0x20 DUP3 ADD SWAP1 POP SWAP2 SWAP1 POP JUMP JUMPDEST PUSH1 0x0 PUSH1 0x20 DUP3 ADD SWAP1 POP DUP2 DUP2 SUB PUSH1 0x0 DUP4 ADD MSTORE PUSH2 0xF4E DUP2 PUSH2 0xF12 JUMP JUMPDEST SWAP1 POP SWAP2 SWAP1 POP JUMP JUMPDEST PUSH1 0x0 PUSH1 0x20 PUSH1 0x1F DUP4 ADD DIV SWAP1 POP SWAP2 SWAP1 POP JUMP JUMPDEST PUSH1 0x0 DUP3 DUP3 SHL SWAP1 POP SWAP3 SWAP2 POP POP JUMP JUMPDEST PUSH1 0x0 PUSH1 0x8 DUP4 MUL PUSH2 0xFA2 PUSH32 0xFFFFFFFFFFFFFFFFFFFFFFFFFFFFFFFFFFFFFFFFFFFFFFFFFFFFFFFFFFFFFFFF DUP3 PUSH2 0xF65 JUMP JUMPDEST PUSH2 0xFAC DUP7 DUP4 PUSH2 0xF65 JUMP JUMPDEST SWAP6 POP DUP1 NOT DUP5 AND SWAP4 POP DUP1 DUP7 AND DUP5 OR SWAP3 POP POP POP SWAP4 SWAP3 POP POP POP JUMP JUMPDEST PUSH1 0x0 DUP2 SWAP1 POP SWAP2 SWAP1 POP JUMP JUMPDEST PUSH1 0x0 PUSH2 0xFE9 PUSH2 0xFE4 PUSH2 0xFDF DUP5 PUSH2 0x818 JUMP JUMPDEST PUSH2 0xFC4 JUMP JUMPDEST PUSH2 0x818 JUMP JUMPDEST SWAP1 POP SWAP2 SWAP1 POP JUMP JUMPDEST PUSH1 0x0 DUP2 SWAP1 POP SWAP2 SWAP1 POP JUMP JUMPDEST PUSH2 0x1003 DUP4 PUSH2 0xFCE JUMP JUMPDEST PUSH2 0x1017 PUSH2 0x100F DUP3 PUSH2 0xFF0 JUMP JUMPDEST DUP5 DUP5 SLOAD PUSH2 0xF72 JUMP JUMPDEST DUP3 SSTORE POP POP POP POP JUMP JUMPDEST PUSH1 0x0 SWAP1 JUMP JUMPDEST PUSH2 0x102C PUSH2 0x101F JUMP JUMPDEST PUSH2 0x1037 DUP2 DUP5 DUP5 PUSH2 0xFFA JUMP JUMPDEST POP POP POP JUMP JUMPDEST JUMPDEST DUP2 DUP2 LT ISZERO PUSH2 0x105B JUMPI PUSH2 0x1050 PUSH1 0x0 DUP3 PUSH2 0x1024 JUMP JUMPDEST PUSH1 0x1 DUP2 ADD SWAP1 POP PUSH2 0x103D JUMP JUMPDEST POP POP JUMP JUMPDEST PUSH1 0x1F DUP3 GT ISZERO PUSH2 0x10A0 JUMPI PUSH2 0x1071 DUP2 PUSH2 0xD24 JUMP JUMPDEST PUSH2 0x107A DUP5 PUSH2 0xF55 JUMP JUMPDEST DUP2 ADD PUSH1 0x20 DUP6 LT ISZERO PUSH2 0x1089 JUMPI DUP2 SWAP1 POP JUMPDEST PUSH2 0x109D PUSH2 0x1095 DUP6 PUSH2 0xF55 JUMP JUMPDEST DUP4 ADD DUP3 PUSH2 0x103C JUMP JUMPDEST POP POP JUMPDEST POP POP POP JUMP JUMPDEST PUSH1 0x0 DUP3 DUP3 SHR SWAP1 POP SWAP3 SWAP2 POP POP JUMP JUMPDEST PUSH1 0x0 PUSH2 0x10C3 PUSH1 0x0 NOT DUP5 PUSH1 0x8 MUL PUSH2 0x10A5 JUMP JUMPDEST NOT DUP1 DUP4 AND SWAP2 POP POP SWAP3 SWAP2 POP POP JUMP JUMPDEST PUSH1 0x0 PUSH2 0x10DC DUP4 DUP4 PUSH2 0x10B2 JUMP JUMPDEST SWAP2 POP DUP3 PUSH1 0x2 MUL DUP3 OR SWAP1 POP SWAP3 SWAP2 POP POP JUMP JUMPDEST PUSH2 0x10F5 DUP3 PUSH2 0xB28 JUMP JUMPDEST PUSH8 0xFFFFFFFFFFFFFFFF DUP2 GT ISZERO PUSH2 0x110E JUMPI PUSH2 0x110D PUSH2 0x975 JUMP JUMPDEST JUMPDEST PUSH2 0x1118 DUP3 SLOAD PUSH2 0xCF3 JUMP JUMPDEST PUSH2 0x1123 DUP3 DUP3 DUP6 PUSH2 0x105F JUMP JUMPDEST PUSH1 0x0 PUSH1 0x20 SWAP1 POP PUSH1 0x1F DUP4 GT PUSH1 0x1 DUP2 EQ PUSH2 0x1156 JUMPI PUSH1 0x0 DUP5 ISZERO PUSH2 0x1144 JUMPI DUP3 DUP8 ADD MLOAD SWAP1 POP JUMPDEST PUSH2 0x114E DUP6 DUP3 PUSH2 0x10D0 JUMP JUMPDEST DUP7 SSTORE POP PUSH2 0x11B6 JUMP JUMPDEST PUSH1 0x1F NOT DUP5 AND PUSH2 0x1164 DUP7 PUSH2 0xD24 JUMP JUMPDEST PUSH1 0x0 JUMPDEST DUP3 DUP2 LT ISZERO PUSH2 0x118C JUMPI DUP5 DUP10 ADD MLOAD DUP3 SSTORE PUSH1 0x1 DUP3 ADD SWAP2 POP PUSH1 0x20 DUP6 ADD SWAP5 POP PUSH1 0x20 DUP2 ADD SWAP1 POP PUSH2 0x1167 JUMP JUMPDEST DUP7 DUP4 LT ISZERO PUSH2 0x11A9 JUMPI DUP5 DUP10 ADD MLOAD PUSH2 0x11A5 PUSH1 0x1F DUP10 AND DUP3 PUSH2 0x10B2 JUMP JUMPDEST DUP4 SSTORE POP JUMPDEST PUSH1 0x1 PUSH1 0x2 DUP9 MUL ADD DUP9 SSTORE POP POP POP JUMPDEST POP POP POP POP POP POP JUMP INVALID LOG2 PUSH5 0x6970667358 0x22 SLT KECCAK256 0xDB LOG1 SWAP7 SWAP2 0x4D 0xC8 0x4F JUMP PUSH31 0xFE6C3DD53528D677C2F44E34B2E615720F882B79C9F39C64736F6C63430008 GT STOP CALLER "
				},
				"gasEstimates": {
					"creation": {
						"codeDepositCost": "919200",
						"executionCost": "infinite",
						"totalCost": "infinite"
					},
					"external": {
						"getSecretKey()": "infinite",
						"getSecretKey(string,uint256)": "infinite",
						"owner()": "2558",
						"paidAddressList(uint256,address)": "3153",
						"playNumber()": "2430",
						"round()": "2452",
						"setSecretKey(string,uint256)": "infinite"
					},
					"internal": {
						"randomNumber()": "infinite"
					}
				},
				"methodIdentifiers": {
					"getSecretKey()": "79ed40bc",
					"getSecretKey(string,uint256)": "19e2eb86",
					"owner()": "8da5cb5b",
					"paidAddressList(uint256,address)": "cf66b989",
					"playNumber()": "0df516d8",
					"round()": "146ca531",
					"setSecretKey(string,uint256)": "5ef5cc89"
				}
			},
			"storageLayout": {
				"storage": [
					{
						"astId": 29,
						"contract": "chapter2/Random.sol:Random",
						"label": "paidAddressList",
						"offset": 0,
						"slot": "0",
						"type": "t_mapping(t_uint256,t_mapping(t_address,t_bool))"
					},
					{
						"astId": 31,
						"contract": "chapter2/Random.sol:Random",
						"label": "owner",
						"offset": 0,
						"slot": "1",
						"type": "t_address"
					},
					{
						"astId": 34,
						"contract": "chapter2/Random.sol:Random",
						"label": "winnerNumber",
						"offset": 0,
						"slot": "2",
						"type": "t_uint256"
					},
					{
						"astId": 36,
						"contract": "chapter2/Random.sol:Random",
						"label": "key1",
						"offset": 0,
						"slot": "3",
						"type": "t_string_storage"
					},
					{
						"astId": 38,
						"contract": "chapter2/Random.sol:Random",
						"label": "key2",
						"offset": 0,
						"slot": "4",
						"type": "t_uint256"
					},
					{
						"astId": 41,
						"contract": "chapter2/Random.sol:Random",
						"label": "round",
						"offset": 0,
						"slot": "5",
						"type": "t_uint256"
					},
					{
						"astId": 44,
						"contract": "chapter2/Random.sol:Random",
						"label": "playNumber",
						"offset": 0,
						"slot": "6",
						"type": "t_uint256"
					}
				],
				"types": {
					"t_address": {
						"encoding": "inplace",
						"label": "address",
						"numberOfBytes": "20"
					},
					"t_bool": {
						"encoding": "inplace",
						"label": "bool",
						"numberOfBytes": "1"
					},
					"t_mapping(t_address,t_bool)": {
						"encoding": "mapping",
						"key": "t_address",
						"label": "mapping(address => bool)",
						"numberOfBytes": "32",
						"value": "t_bool"
					},
					"t_mapping(t_uint256,t_mapping(t_address,t_bool))": {
						"encoding": "mapping",
						"key": "t_uint256",
						"label": "mapping(uint256 => mapping(address => bool))",
						"numberOfBytes": "32",
						"value": "t_mapping(t_address,t_bool)"
					},
					"t_string_storage": {
						"encoding": "bytes",
						"label": "string",
						"numberOfBytes": "32"
					},
					"t_uint256": {
						"encoding": "inplace",
						"label": "uint256",
						"numberOfBytes": "32"
					}
				}
			},
			"userdoc": {
				"kind": "user",
				"methods": {},
				"version": 1
			}
		}
	}
}