{
	"chapter2/Ex2_6.sol": {
		"Ex": {
			"abi": [
				{
					"inputs": [
						{
							"internalType": "uint8",
							"name": "_num1",
							"type": "uint8"
						},
						{
							"internalType": "uint8",
							"name": "_num2",
							"type": "uint8"
						}
					],
					"name": "noOverflow1",
					"outputs": [
						{
							"internalType": "uint8",
							"name": "",
							"type": "uint8"
						}
					],
					"stateMutability": "pure",
					"type": "function"
				},
				{
					"inputs": [
						{
							"internalType": "uint8",
							"name": "_num1",
							"type": "uint8"
						},
						{
							"internalType": "uint8",
							"name": "_num2",
							"type": "uint8"
						}
					],
					"name": "overflow",
					"outputs": [
						{
							"internalType": "uint8",
							"name": "",
							"type": "uint8"
						}
					],
					"stateMutability": "pure",
					"type": "function"
				}
			],
			"devdoc": {
				"kind": "dev",
				"methods": {},
				"version": 1
			},
			"evm": {
				"assembly": "    /* \"chapter2/Ex2_6.sol\":239:525  contract Ex {... */\n  mstore(0x40, 0x80)\n  callvalue\n  dup1\n  iszero\n  tag_1\n  jumpi\n  0x00\n  dup1\n  revert\ntag_1:\n  pop\n  dataSize(sub_0)\n  dup1\n  dataOffset(sub_0)\n  0x00\n  codecopy\n  0x00\n  return\nstop\n\nsub_0: assembly {\n        /* \"chapter2/Ex2_6.sol\":239:525  contract Ex {... */\n      mstore(0x40, 0x80)\n      callvalue\n      dup1\n      iszero\n      tag_1\n      jumpi\n      0x00\n      dup1\n      revert\n    tag_1:\n      pop\n      jumpi(tag_2, lt(calldatasize, 0x04))\n      shr(0xe0, calldataload(0x00))\n      dup1\n      0x56e2778c\n      eq\n      tag_3\n      jumpi\n      dup1\n      0xb71602b3\n      eq\n      tag_4\n      jumpi\n    tag_2:\n      0x00\n      dup1\n      revert\n        /* \"chapter2/Ex2_6.sol\":285:393  function overflow(uint8 _num1, uint8 _num2) public pure returns(uint8) {... */\n    tag_3:\n      tag_5\n      0x04\n      dup1\n      calldatasize\n      sub\n      dup2\n      add\n      swap1\n      tag_6\n      swap2\n      swap1\n      tag_7\n      jump\t// in\n    tag_6:\n      tag_8\n      jump\t// in\n    tag_5:\n      mload(0x40)\n      tag_9\n      swap2\n      swap1\n      tag_10\n      jump\t// in\n    tag_9:\n      mload(0x40)\n      dup1\n      swap2\n      sub\n      swap1\n      return\n        /* \"chapter2/Ex2_6.sol\":399:519  function noOverflow1(uint8 _num1, uint8 _num2) public pure returns(uint8) {... */\n    tag_4:\n      tag_11\n      0x04\n      dup1\n      calldatasize\n      sub\n      dup2\n      add\n      swap1\n      tag_12\n      swap2\n      swap1\n      tag_7\n      jump\t// in\n    tag_12:\n      tag_13\n      jump\t// in\n    tag_11:\n      mload(0x40)\n      tag_14\n      swap2\n      swap1\n      tag_10\n      jump\t// in\n    tag_14:\n      mload(0x40)\n      dup1\n      swap2\n      sub\n      swap1\n      return\n        /* \"chapter2/Ex2_6.sol\":285:393  function overflow(uint8 _num1, uint8 _num2) public pure returns(uint8) {... */\n    tag_8:\n        /* \"chapter2/Ex2_6.sol\":349:354  uint8 */\n      0x00\n        /* \"chapter2/Ex2_6.sol\":381:386  _num2 */\n      dup2\n        /* \"chapter2/Ex2_6.sol\":373:378  _num1 */\n      dup4\n        /* \"chapter2/Ex2_6.sol\":373:386  _num1 + _num2 */\n      tag_16\n      swap2\n      swap1\n      tag_17\n      jump\t// in\n    tag_16:\n        /* \"chapter2/Ex2_6.sol\":366:386  return _num1 + _num2 */\n      swap1\n      pop\n        /* \"chapter2/Ex2_6.sol\":285:393  function overflow(uint8 _num1, uint8 _num2) public pure returns(uint8) {... */\n      swap3\n      swap2\n      pop\n      pop\n      jump\t// out\n        /* \"chapter2/Ex2_6.sol\":399:519  function noOverflow1(uint8 _num1, uint8 _num2) public pure returns(uint8) {... */\n    tag_13:\n        /* \"chapter2/Ex2_6.sol\":466:471  uint8 */\n      0x00\n        /* \"chapter2/Ex2_6.sol\":490:512  Math.add(_num1, _num2) */\n      tag_19\n        /* \"chapter2/Ex2_6.sol\":499:504  _num1 */\n      dup4\n        /* \"chapter2/Ex2_6.sol\":506:511  _num2 */\n      dup4\n        /* \"chapter2/Ex2_6.sol\":490:498  Math.add */\n      tag_20\n        /* \"chapter2/Ex2_6.sol\":490:512  Math.add(_num1, _num2) */\n      jump\t// in\n    tag_19:\n        /* \"chapter2/Ex2_6.sol\":483:512  return Math.add(_num1, _num2) */\n      swap1\n      pop\n        /* \"chapter2/Ex2_6.sol\":399:519  function noOverflow1(uint8 _num1, uint8 _num2) public pure returns(uint8) {... */\n      swap3\n      swap2\n      pop\n      pop\n      jump\t// out\n        /* \"chapter2/Ex2_6.sol\":89:235  function add(uint8 a, uint8 b) internal pure returns (uint8) {... */\n    tag_20:\n        /* \"chapter2/Ex2_6.sol\":143:148  uint8 */\n      0x00\n        /* \"chapter2/Ex2_6.sol\":175:176  a */\n      dup3\n        /* \"chapter2/Ex2_6.sol\":168:176  a+b >= a */\n      0xff\n      and\n        /* \"chapter2/Ex2_6.sol\":170:171  b */\n      dup3\n        /* \"chapter2/Ex2_6.sol\":168:169  a */\n      dup5\n        /* \"chapter2/Ex2_6.sol\":168:171  a+b */\n      tag_22\n      swap2\n      swap1\n      tag_17\n      jump\t// in\n    tag_22:\n        /* \"chapter2/Ex2_6.sol\":168:176  a+b >= a */\n      0xff\n      and\n      lt\n      iszero\n        /* \"chapter2/Ex2_6.sol\":160:206  require(a+b >= a, \"Error : addition overflow\") */\n      tag_23\n      jumpi\n      mload(0x40)\n      0x08c379a000000000000000000000000000000000000000000000000000000000\n      dup2\n      mstore\n      0x04\n      add\n      tag_24\n      swap1\n      tag_25\n      jump\t// in\n    tag_24:\n      mload(0x40)\n      dup1\n      swap2\n      sub\n      swap1\n      revert\n    tag_23:\n        /* \"chapter2/Ex2_6.sol\":227:228  b */\n      dup2\n        /* \"chapter2/Ex2_6.sol\":223:224  a */\n      dup4\n        /* \"chapter2/Ex2_6.sol\":223:228  a + b */\n      tag_26\n      swap2\n      swap1\n      tag_17\n      jump\t// in\n    tag_26:\n        /* \"chapter2/Ex2_6.sol\":216:228  return a + b */\n      swap1\n      pop\n        /* \"chapter2/Ex2_6.sol\":89:235  function add(uint8 a, uint8 b) internal pure returns (uint8) {... */\n      swap3\n      swap2\n      pop\n      pop\n      jump\t// out\n        /* \"#utility.yul\":88:205   */\n    tag_28:\n        /* \"#utility.yul\":197:198   */\n      0x00\n        /* \"#utility.yul\":194:195   */\n      dup1\n        /* \"#utility.yul\":187:199   */\n      revert\n        /* \"#utility.yul\":334:420   */\n    tag_30:\n        /* \"#utility.yul\":369:376   */\n      0x00\n        /* \"#utility.yul\":409:413   */\n      0xff\n        /* \"#utility.yul\":402:407   */\n      dup3\n        /* \"#utility.yul\":398:414   */\n      and\n        /* \"#utility.yul\":387:414   */\n      swap1\n      pop\n        /* \"#utility.yul\":334:420   */\n      swap2\n      swap1\n      pop\n      jump\t// out\n        /* \"#utility.yul\":426:544   */\n    tag_31:\n        /* \"#utility.yul\":497:519   */\n      tag_44\n        /* \"#utility.yul\":513:518   */\n      dup2\n        /* \"#utility.yul\":497:519   */\n      tag_30\n      jump\t// in\n    tag_44:\n        /* \"#utility.yul\":490:495   */\n      dup2\n        /* \"#utility.yul\":487:520   */\n      eq\n        /* \"#utility.yul\":477:538   */\n      tag_45\n      jumpi\n        /* \"#utility.yul\":534:535   */\n      0x00\n        /* \"#utility.yul\":531:532   */\n      dup1\n        /* \"#utility.yul\":524:536   */\n      revert\n        /* \"#utility.yul\":477:538   */\n    tag_45:\n        /* \"#utility.yul\":426:544   */\n      pop\n      jump\t// out\n        /* \"#utility.yul\":550:685   */\n    tag_32:\n        /* \"#utility.yul\":594:599   */\n      0x00\n        /* \"#utility.yul\":632:638   */\n      dup2\n        /* \"#utility.yul\":619:639   */\n      calldataload\n        /* \"#utility.yul\":610:639   */\n      swap1\n      pop\n        /* \"#utility.yul\":648:679   */\n      tag_47\n        /* \"#utility.yul\":673:678   */\n      dup2\n        /* \"#utility.yul\":648:679   */\n      tag_31\n      jump\t// in\n    tag_47:\n        /* \"#utility.yul\":550:685   */\n      swap3\n      swap2\n      pop\n      pop\n      jump\t// out\n        /* \"#utility.yul\":691:1157   */\n    tag_7:\n        /* \"#utility.yul\":755:761   */\n      0x00\n        /* \"#utility.yul\":763:769   */\n      dup1\n        /* \"#utility.yul\":812:814   */\n      0x40\n        /* \"#utility.yul\":800:809   */\n      dup4\n        /* \"#utility.yul\":791:798   */\n      dup6\n        /* \"#utility.yul\":787:810   */\n      sub\n        /* \"#utility.yul\":783:815   */\n      slt\n        /* \"#utility.yul\":780:899   */\n      iszero\n      tag_49\n      jumpi\n        /* \"#utility.yul\":818:897   */\n      tag_50\n      tag_28\n      jump\t// in\n    tag_50:\n        /* \"#utility.yul\":780:899   */\n    tag_49:\n        /* \"#utility.yul\":938:939   */\n      0x00\n        /* \"#utility.yul\":963:1014   */\n      tag_51\n        /* \"#utility.yul\":1006:1013   */\n      dup6\n        /* \"#utility.yul\":997:1003   */\n      dup3\n        /* \"#utility.yul\":986:995   */\n      dup7\n        /* \"#utility.yul\":982:1004   */\n      add\n        /* \"#utility.yul\":963:1014   */\n      tag_32\n      jump\t// in\n    tag_51:\n        /* \"#utility.yul\":953:1014   */\n      swap3\n      pop\n        /* \"#utility.yul\":909:1024   */\n      pop\n        /* \"#utility.yul\":1063:1065   */\n      0x20\n        /* \"#utility.yul\":1089:1140   */\n      tag_52\n        /* \"#utility.yul\":1132:1139   */\n      dup6\n        /* \"#utility.yul\":1123:1129   */\n      dup3\n        /* \"#utility.yul\":1112:1121   */\n      dup7\n        /* \"#utility.yul\":1108:1130   */\n      add\n        /* \"#utility.yul\":1089:1140   */\n      tag_32\n      jump\t// in\n    tag_52:\n        /* \"#utility.yul\":1079:1140   */\n      swap2\n      pop\n        /* \"#utility.yul\":1034:1150   */\n      pop\n        /* \"#utility.yul\":691:1157   */\n      swap3\n      pop\n      swap3\n      swap1\n      pop\n      jump\t// out\n        /* \"#utility.yul\":1163:1275   */\n    tag_33:\n        /* \"#utility.yul\":1246:1268   */\n      tag_54\n        /* \"#utility.yul\":1262:1267   */\n      dup2\n        /* \"#utility.yul\":1246:1268   */\n      tag_30\n      jump\t// in\n    tag_54:\n        /* \"#utility.yul\":1241:1244   */\n      dup3\n        /* \"#utility.yul\":1234:1269   */\n      mstore\n        /* \"#utility.yul\":1163:1275   */\n      pop\n      pop\n      jump\t// out\n        /* \"#utility.yul\":1281:1495   */\n    tag_10:\n        /* \"#utility.yul\":1370:1374   */\n      0x00\n        /* \"#utility.yul\":1408:1410   */\n      0x20\n        /* \"#utility.yul\":1397:1406   */\n      dup3\n        /* \"#utility.yul\":1393:1411   */\n      add\n        /* \"#utility.yul\":1385:1411   */\n      swap1\n      pop\n        /* \"#utility.yul\":1421:1488   */\n      tag_56\n        /* \"#utility.yul\":1485:1486   */\n      0x00\n        /* \"#utility.yul\":1474:1483   */\n      dup4\n        /* \"#utility.yul\":1470:1487   */\n      add\n        /* \"#utility.yul\":1461:1467   */\n      dup5\n        /* \"#utility.yul\":1421:1488   */\n      tag_33\n      jump\t// in\n    tag_56:\n        /* \"#utility.yul\":1281:1495   */\n      swap3\n      swap2\n      pop\n      pop\n      jump\t// out\n        /* \"#utility.yul\":1501:1681   */\n    tag_34:\n        /* \"#utility.yul\":1549:1626   */\n      0x4e487b7100000000000000000000000000000000000000000000000000000000\n        /* \"#utility.yul\":1546:1547   */\n      0x00\n        /* \"#utility.yul\":1539:1627   */\n      mstore\n        /* \"#utility.yul\":1646:1650   */\n      0x11\n        /* \"#utility.yul\":1643:1644   */\n      0x04\n        /* \"#utility.yul\":1636:1651   */\n      mstore\n        /* \"#utility.yul\":1670:1674   */\n      0x24\n        /* \"#utility.yul\":1667:1668   */\n      0x00\n        /* \"#utility.yul\":1660:1675   */\n      revert\n        /* \"#utility.yul\":1687:1875   */\n    tag_17:\n        /* \"#utility.yul\":1725:1728   */\n      0x00\n        /* \"#utility.yul\":1744:1762   */\n      tag_59\n        /* \"#utility.yul\":1760:1761   */\n      dup3\n        /* \"#utility.yul\":1744:1762   */\n      tag_30\n      jump\t// in\n    tag_59:\n        /* \"#utility.yul\":1739:1762   */\n      swap2\n      pop\n        /* \"#utility.yul\":1776:1794   */\n      tag_60\n        /* \"#utility.yul\":1792:1793   */\n      dup4\n        /* \"#utility.yul\":1776:1794   */\n      tag_30\n      jump\t// in\n    tag_60:\n        /* \"#utility.yul\":1771:1794   */\n      swap3\n      pop\n        /* \"#utility.yul\":1817:1818   */\n      dup3\n        /* \"#utility.yul\":1814:1815   */\n      dup3\n        /* \"#utility.yul\":1810:1819   */\n      add\n        /* \"#utility.yul\":1803:1819   */\n      swap1\n      pop\n        /* \"#utility.yul\":1840:1844   */\n      0xff\n        /* \"#utility.yul\":1835:1838   */\n      dup2\n        /* \"#utility.yul\":1832:1845   */\n      gt\n        /* \"#utility.yul\":1829:1868   */\n      iszero\n      tag_61\n      jumpi\n        /* \"#utility.yul\":1848:1866   */\n      tag_62\n      tag_34\n      jump\t// in\n    tag_62:\n        /* \"#utility.yul\":1829:1868   */\n    tag_61:\n        /* \"#utility.yul\":1687:1875   */\n      swap3\n      swap2\n      pop\n      pop\n      jump\t// out\n        /* \"#utility.yul\":1881:2050   */\n    tag_35:\n        /* \"#utility.yul\":1965:1976   */\n      0x00\n        /* \"#utility.yul\":1999:2005   */\n      dup3\n        /* \"#utility.yul\":1994:1997   */\n      dup3\n        /* \"#utility.yul\":1987:2006   */\n      mstore\n        /* \"#utility.yul\":2039:2043   */\n      0x20\n        /* \"#utility.yul\":2034:2037   */\n      dup3\n        /* \"#utility.yul\":2030:2044   */\n      add\n        /* \"#utility.yul\":2015:2044   */\n      swap1\n      pop\n        /* \"#utility.yul\":1881:2050   */\n      swap3\n      swap2\n      pop\n      pop\n      jump\t// out\n        /* \"#utility.yul\":2056:2231   */\n    tag_36:\n        /* \"#utility.yul\":2196:2223   */\n      0x4572726f72203a206164646974696f6e206f766572666c6f7700000000000000\n        /* \"#utility.yul\":2192:2193   */\n      0x00\n        /* \"#utility.yul\":2184:2190   */\n      dup3\n        /* \"#utility.yul\":2180:2194   */\n      add\n        /* \"#utility.yul\":2173:2224   */\n      mstore\n        /* \"#utility.yul\":2056:2231   */\n      pop\n      jump\t// out\n        /* \"#utility.yul\":2237:2603   */\n    tag_37:\n        /* \"#utility.yul\":2379:2382   */\n      0x00\n        /* \"#utility.yul\":2400:2467   */\n      tag_66\n        /* \"#utility.yul\":2464:2466   */\n      0x19\n        /* \"#utility.yul\":2459:2462   */\n      dup4\n        /* \"#utility.yul\":2400:2467   */\n      tag_35\n      jump\t// in\n    tag_66:\n        /* \"#utility.yul\":2393:2467   */\n      swap2\n      pop\n        /* \"#utility.yul\":2476:2569   */\n      tag_67\n        /* \"#utility.yul\":2565:2568   */\n      dup3\n        /* \"#utility.yul\":2476:2569   */\n      tag_36\n      jump\t// in\n    tag_67:\n        /* \"#utility.yul\":2594:2596   */\n      0x20\n        /* \"#utility.yul\":2589:2592   */\n      dup3\n        /* \"#utility.yul\":2585:2597   */\n      add\n        /* \"#utility.yul\":2578:2597   */\n      swap1\n      pop\n        /* \"#utility.yul\":2237:2603   */\n      swap2\n      swap1\n      pop\n      jump\t// out\n        /* \"#utility.yul\":2609:3028   */\n    tag_25:\n        /* \"#utility.yul\":2775:2779   */\n      0x00\n        /* \"#utility.yul\":2813:2815   */\n      0x20\n        /* \"#utility.yul\":2802:2811   */\n      dup3\n        /* \"#utility.yul\":2798:2816   */\n      add\n        /* \"#utility.yul\":2790:2816   */\n      swap1\n      pop\n        /* \"#utility.yul\":2862:2871   */\n      dup2\n        /* \"#utility.yul\":2856:2860   */\n      dup2\n        /* \"#utility.yul\":2852:2872   */\n      sub\n        /* \"#utility.yul\":2848:2849   */\n      0x00\n        /* \"#utility.yul\":2837:2846   */\n      dup4\n        /* \"#utility.yul\":2833:2850   */\n      add\n        /* \"#utility.yul\":2826:2873   */\n      mstore\n        /* \"#utility.yul\":2890:3021   */\n      tag_69\n        /* \"#utility.yul\":3016:3020   */\n      dup2\n        /* \"#utility.yul\":2890:3021   */\n      tag_37\n      jump\t// in\n    tag_69:\n        /* \"#utility.yul\":2882:3021   */\n      swap1\n      pop\n        /* \"#utility.yul\":2609:3028   */\n      swap2\n      swap1\n      pop\n      jump\t// out\n\n    auxdata: 0xa26469706673582212206690da956e603211c6ec809706862a68193f0fdbf0863ead080cfdaf9428373364736f6c63430008110033\n}\n",
				"bytecode": {
					"linkReferences": {},
					"object": "608060405234801561001057600080fd5b506102ee806100206000396000f3fe608060405234801561001057600080fd5b50600436106100365760003560e01c806356e2778c1461003b578063b71602b31461006b575b600080fd5b6100556004803603810190610050919061016d565b61009b565b60405161006291906101bc565b60405180910390f35b6100856004803603810190610080919061016d565b6100b1565b60405161009291906101bc565b60405180910390f35b600081836100a99190610206565b905092915050565b60006100bd83836100c5565b905092915050565b60008260ff1682846100d79190610206565b60ff16101561011b576040517f08c379a000000000000000000000000000000000000000000000000000000000815260040161011290610298565b60405180910390fd5b81836101279190610206565b905092915050565b600080fd5b600060ff82169050919050565b61014a81610134565b811461015557600080fd5b50565b60008135905061016781610141565b92915050565b600080604083850312156101845761018361012f565b5b600061019285828601610158565b92505060206101a385828601610158565b9150509250929050565b6101b681610134565b82525050565b60006020820190506101d160008301846101ad565b92915050565b7f4e487b7100000000000000000000000000000000000000000000000000000000600052601160045260246000fd5b600061021182610134565b915061021c83610134565b9250828201905060ff811115610235576102346101d7565b5b92915050565b600082825260208201905092915050565b7f4572726f72203a206164646974696f6e206f766572666c6f7700000000000000600082015250565b600061028260198361023b565b915061028d8261024c565b602082019050919050565b600060208201905081810360008301526102b181610275565b905091905056fea26469706673582212206690da956e603211c6ec809706862a68193f0fdbf0863ead080cfdaf9428373364736f6c63430008110033",
					"opcodes": "PUSH1 0x80 PUSH1 0x40 MSTORE CALLVALUE DUP1 ISZERO PUSH2 0x10 JUMPI PUSH1 0x0 DUP1 REVERT JUMPDEST POP PUSH2 0x2EE DUP1 PUSH2 0x20 PUSH1 0x0 CODECOPY PUSH1 0x0 RETURN INVALID PUSH1 0x80 PUSH1 0x40 MSTORE CALLVALUE DUP1 ISZERO PUSH2 0x10 JUMPI PUSH1 0x0 DUP1 REVERT JUMPDEST POP PUSH1 0x4 CALLDATASIZE LT PUSH2 0x36 JUMPI PUSH1 0x0 CALLDATALOAD PUSH1 0xE0 SHR DUP1 PUSH4 0x56E2778C EQ PUSH2 0x3B JUMPI DUP1 PUSH4 0xB71602B3 EQ PUSH2 0x6B JUMPI JUMPDEST PUSH1 0x0 DUP1 REVERT JUMPDEST PUSH2 0x55 PUSH1 0x4 DUP1 CALLDATASIZE SUB DUP2 ADD SWAP1 PUSH2 0x50 SWAP2 SWAP1 PUSH2 0x16D JUMP JUMPDEST PUSH2 0x9B JUMP JUMPDEST PUSH1 0x40 MLOAD PUSH2 0x62 SWAP2 SWAP1 PUSH2 0x1BC JUMP JUMPDEST PUSH1 0x40 MLOAD DUP1 SWAP2 SUB SWAP1 RETURN JUMPDEST PUSH2 0x85 PUSH1 0x4 DUP1 CALLDATASIZE SUB DUP2 ADD SWAP1 PUSH2 0x80 SWAP2 SWAP1 PUSH2 0x16D JUMP JUMPDEST PUSH2 0xB1 JUMP JUMPDEST PUSH1 0x40 MLOAD PUSH2 0x92 SWAP2 SWAP1 PUSH2 0x1BC JUMP JUMPDEST PUSH1 0x40 MLOAD DUP1 SWAP2 SUB SWAP1 RETURN JUMPDEST PUSH1 0x0 DUP2 DUP4 PUSH2 0xA9 SWAP2 SWAP1 PUSH2 0x206 JUMP JUMPDEST SWAP1 POP SWAP3 SWAP2 POP POP JUMP JUMPDEST PUSH1 0x0 PUSH2 0xBD DUP4 DUP4 PUSH2 0xC5 JUMP JUMPDEST SWAP1 POP SWAP3 SWAP2 POP POP JUMP JUMPDEST PUSH1 0x0 DUP3 PUSH1 0xFF AND DUP3 DUP5 PUSH2 0xD7 SWAP2 SWAP1 PUSH2 0x206 JUMP JUMPDEST PUSH1 0xFF AND LT ISZERO PUSH2 0x11B JUMPI PUSH1 0x40 MLOAD PUSH32 0x8C379A000000000000000000000000000000000000000000000000000000000 DUP2 MSTORE PUSH1 0x4 ADD PUSH2 0x112 SWAP1 PUSH2 0x298 JUMP JUMPDEST PUSH1 0x40 MLOAD DUP1 SWAP2 SUB SWAP1 REVERT JUMPDEST DUP2 DUP4 PUSH2 0x127 SWAP2 SWAP1 PUSH2 0x206 JUMP JUMPDEST SWAP1 POP SWAP3 SWAP2 POP POP JUMP JUMPDEST PUSH1 0x0 DUP1 REVERT JUMPDEST PUSH1 0x0 PUSH1 0xFF DUP3 AND SWAP1 POP SWAP2 SWAP1 POP JUMP JUMPDEST PUSH2 0x14A DUP2 PUSH2 0x134 JUMP JUMPDEST DUP2 EQ PUSH2 0x155 JUMPI PUSH1 0x0 DUP1 REVERT JUMPDEST POP JUMP JUMPDEST PUSH1 0x0 DUP2 CALLDATALOAD SWAP1 POP PUSH2 0x167 DUP2 PUSH2 0x141 JUMP JUMPDEST SWAP3 SWAP2 POP POP JUMP JUMPDEST PUSH1 0x0 DUP1 PUSH1 0x40 DUP4 DUP6 SUB SLT ISZERO PUSH2 0x184 JUMPI PUSH2 0x183 PUSH2 0x12F JUMP JUMPDEST JUMPDEST PUSH1 0x0 PUSH2 0x192 DUP6 DUP3 DUP7 ADD PUSH2 0x158 JUMP JUMPDEST SWAP3 POP POP PUSH1 0x20 PUSH2 0x1A3 DUP6 DUP3 DUP7 ADD PUSH2 0x158 JUMP JUMPDEST SWAP2 POP POP SWAP3 POP SWAP3 SWAP1 POP JUMP JUMPDEST PUSH2 0x1B6 DUP2 PUSH2 0x134 JUMP JUMPDEST DUP3 MSTORE POP POP JUMP JUMPDEST PUSH1 0x0 PUSH1 0x20 DUP3 ADD SWAP1 POP PUSH2 0x1D1 PUSH1 0x0 DUP4 ADD DUP5 PUSH2 0x1AD JUMP JUMPDEST SWAP3 SWAP2 POP POP JUMP JUMPDEST PUSH32 0x4E487B7100000000000000000000000000000000000000000000000000000000 PUSH1 0x0 MSTORE PUSH1 0x11 PUSH1 0x4 MSTORE PUSH1 0x24 PUSH1 0x0 REVERT JUMPDEST PUSH1 0x0 PUSH2 0x211 DUP3 PUSH2 0x134 JUMP JUMPDEST SWAP2 POP PUSH2 0x21C DUP4 PUSH2 0x134 JUMP JUMPDEST SWAP3 POP DUP3 DUP3 ADD SWAP1 POP PUSH1 0xFF DUP2 GT ISZERO PUSH2 0x235 JUMPI PUSH2 0x234 PUSH2 0x1D7 JUMP JUMPDEST JUMPDEST SWAP3 SWAP2 POP POP JUMP JUMPDEST PUSH1 0x0 DUP3 DUP3 MSTORE PUSH1 0x20 DUP3 ADD SWAP1 POP SWAP3 SWAP2 POP POP JUMP JUMPDEST PUSH32 0x4572726F72203A206164646974696F6E206F766572666C6F7700000000000000 PUSH1 0x0 DUP3 ADD MSTORE POP JUMP JUMPDEST PUSH1 0x0 PUSH2 0x282 PUSH1 0x19 DUP4 PUSH2 0x23B JUMP JUMPDEST SWAP2 POP PUSH2 0x28D DUP3 PUSH2 0x24C JUMP JUMPDEST PUSH1 0x20 DUP3 ADD SWAP1 POP SWAP2 SWAP1 POP JUMP JUMPDEST PUSH1 0x0 PUSH1 0x20 DUP3 ADD SWAP1 POP DUP2 DUP2 SUB PUSH1 0x0 DUP4 ADD MSTORE PUSH2 0x2B1 DUP2 PUSH2 0x275 JUMP JUMPDEST SWAP1 POP SWAP2 SWAP1 POP JUMP INVALID LOG2 PUSH5 0x6970667358 0x22 SLT KECCAK256 PUSH7 0x90DA956E603211 0xC6 0xEC DUP1 SWAP8 MOD DUP7 0x2A PUSH9 0x193F0FDBF0863EAD08 0xC REVERT 0xAF SWAP5 0x28 CALLDATACOPY CALLER PUSH5 0x736F6C6343 STOP ADDMOD GT STOP CALLER "
				},
				"gasEstimates": {
					"creation": {
						"codeDepositCost": "150000",
						"executionCost": "196",
						"totalCost": "150196"
					},
					"external": {
						"noOverflow1(uint8,uint8)": "infinite",
						"overflow(uint8,uint8)": "infinite"
					}
				},
				"methodIdentifiers": {
					"noOverflow1(uint8,uint8)": "b71602b3",
					"overflow(uint8,uint8)": "56e2778c"
				}
			},
			"storageLayout": {
				"storage": [],
				"types": null
			},
			"userdoc": {
				"kind": "user",
				"methods": {},
				"version": 1
			}
		}
	}
}