{
	"chapter2/Ex2_10.sol": {
		"Ex2_10": {
			"abi": [
				{
					"inputs": [
						{
							"internalType": "string",
							"name": "_itemName",
							"type": "string"
						}
					],
					"name": "search",
					"outputs": [
						{
							"internalType": "uint256",
							"name": "",
							"type": "uint256"
						}
					],
					"stateMutability": "view",
					"type": "function"
				},
				{
					"inputs": [
						{
							"internalType": "string",
							"name": "_itemName",
							"type": "string"
						},
						{
							"internalType": "uint256",
							"name": "_price",
							"type": "uint256"
						}
					],
					"name": "sell",
					"outputs": [],
					"stateMutability": "nonpayable",
					"type": "function"
				}
			],
			"devdoc": {
				"kind": "dev",
				"methods": {},
				"version": 1
			},
			"evm": {
				"assembly": "    /* \"chapter2/Ex2_10.sol\":70:470  contract Ex2_10 {... */\n  mstore(0x40, 0x80)\n  callvalue\n  dup1\n  iszero\n  tag_1\n  jumpi\n  0x00\n  dup1\n  revert\ntag_1:\n  pop\n  dataSize(sub_0)\n  dup1\n  dataOffset(sub_0)\n  0x00\n  codecopy\n  0x00\n  return\nstop\n\nsub_0: assembly {\n        /* \"chapter2/Ex2_10.sol\":70:470  contract Ex2_10 {... */\n      mstore(0x40, 0x80)\n      callvalue\n      dup1\n      iszero\n      tag_1\n      jumpi\n      0x00\n      dup1\n      revert\n    tag_1:\n      pop\n      jumpi(tag_2, lt(calldatasize, 0x04))\n      shr(0xe0, calldataload(0x00))\n      dup1\n      0x820ed086\n      eq\n      tag_3\n      jumpi\n      dup1\n      0x9f656321\n      eq\n      tag_4\n      jumpi\n    tag_2:\n      0x00\n      dup1\n      revert\n        /* \"chapter2/Ex2_10.sol\":315:466  function search(string memory _itemName) public view returns(uint) {... */\n    tag_3:\n      tag_5\n      0x04\n      dup1\n      calldatasize\n      sub\n      dup2\n      add\n      swap1\n      tag_6\n      swap2\n      swap1\n      tag_7\n      jump\t// in\n    tag_6:\n      tag_8\n      jump\t// in\n    tag_5:\n      mload(0x40)\n      tag_9\n      swap2\n      swap1\n      tag_10\n      jump\t// in\n    tag_9:\n      mload(0x40)\n      dup1\n      swap2\n      sub\n      swap1\n      return\n        /* \"chapter2/Ex2_10.sol\":191:309  function sell(string memory _itemName, uint _price) public {... */\n    tag_4:\n      tag_11\n      0x04\n      dup1\n      calldatasize\n      sub\n      dup2\n      add\n      swap1\n      tag_12\n      swap2\n      swap1\n      tag_13\n      jump\t// in\n    tag_12:\n      tag_14\n      jump\t// in\n    tag_11:\n      stop\n        /* \"chapter2/Ex2_10.sol\":315:466  function search(string memory _itemName) public view returns(uint) {... */\n    tag_8:\n        /* \"chapter2/Ex2_10.sol\":376:380  uint */\n      0x00\n        /* \"chapter2/Ex2_10.sol\":396:402  uint i */\n      dup1\n        /* \"chapter2/Ex2_10.sol\":405:406  0 */\n      0x00\n        /* \"chapter2/Ex2_10.sol\":396:406  uint i = 0 */\n      swap1\n      pop\n        /* \"chapter2/Ex2_10.sol\":392:460  for(uint i = 0; i < openMarket.length; i++) {... */\n    tag_16:\n        /* \"chapter2/Ex2_10.sol\":412:422  openMarket */\n      0x00\n        /* \"chapter2/Ex2_10.sol\":412:429  openMarket.length */\n      dup1\n      sload\n      swap1\n      pop\n        /* \"chapter2/Ex2_10.sol\":408:409  i */\n      dup2\n        /* \"chapter2/Ex2_10.sol\":408:429  i < openMarket.length */\n      lt\n        /* \"chapter2/Ex2_10.sol\":392:460  for(uint i = 0; i < openMarket.length; i++) {... */\n      iszero\n      tag_17\n      jumpi\n        /* \"chapter2/Ex2_10.sol\":431:434  i++ */\n      dup1\n      dup1\n      tag_19\n      swap1\n      tag_20\n      jump\t// in\n    tag_19:\n      swap2\n      pop\n      pop\n        /* \"chapter2/Ex2_10.sol\":392:460  for(uint i = 0; i < openMarket.length; i++) {... */\n      jump(tag_16)\n    tag_17:\n      pop\n        /* \"chapter2/Ex2_10.sol\":315:466  function search(string memory _itemName) public view returns(uint) {... */\n      swap2\n      swap1\n      pop\n      jump\t// out\n        /* \"chapter2/Ex2_10.sol\":191:309  function sell(string memory _itemName, uint _price) public {... */\n    tag_14:\n        /* \"chapter2/Ex2_10.sol\":260:270  openMarket */\n      0x00\n        /* \"chapter2/Ex2_10.sol\":276:301  Market(_itemName, _price) */\n      mload(0x40)\n      dup1\n      0x40\n      add\n      0x40\n      mstore\n      dup1\n        /* \"chapter2/Ex2_10.sol\":283:292  _itemName */\n      dup5\n        /* \"chapter2/Ex2_10.sol\":276:301  Market(_itemName, _price) */\n      dup2\n      mstore\n      0x20\n      add\n        /* \"chapter2/Ex2_10.sol\":294:300  _price */\n      dup4\n        /* \"chapter2/Ex2_10.sol\":276:301  Market(_itemName, _price) */\n      dup2\n      mstore\n      pop\n        /* \"chapter2/Ex2_10.sol\":260:302  openMarket.push(Market(_itemName, _price)) */\n      swap1\n      dup1\n      0x01\n      dup2\n      sload\n      add\n      dup1\n      dup3\n      sstore\n      dup1\n      swap2\n      pop\n      pop\n      0x01\n      swap1\n      sub\n      swap1\n      0x00\n      mstore\n      keccak256(0x00, 0x20)\n      swap1\n      0x02\n      mul\n      add\n      0x00\n      swap1\n      swap2\n      swap1\n      swap2\n      swap1\n      swap2\n      pop\n      0x00\n      dup3\n      add\n      mload\n      dup2\n      0x00\n      add\n      swap1\n      dup2\n      tag_23\n      swap2\n      swap1\n      tag_24\n      jump\t// in\n    tag_23:\n      pop\n      0x20\n      dup3\n      add\n      mload\n      dup2\n      0x01\n      add\n      sstore\n      pop\n      pop\n        /* \"chapter2/Ex2_10.sol\":191:309  function sell(string memory _itemName, uint _price) public {... */\n      pop\n      pop\n      jump\t// out\n        /* \"#utility.yul\":7:82   */\n    tag_25:\n        /* \"#utility.yul\":40:46   */\n      0x00\n        /* \"#utility.yul\":73:75   */\n      0x40\n        /* \"#utility.yul\":67:76   */\n      mload\n        /* \"#utility.yul\":57:76   */\n      swap1\n      pop\n        /* \"#utility.yul\":7:82   */\n      swap1\n      jump\t// out\n        /* \"#utility.yul\":88:205   */\n    tag_26:\n        /* \"#utility.yul\":197:198   */\n      0x00\n        /* \"#utility.yul\":194:195   */\n      dup1\n        /* \"#utility.yul\":187:199   */\n      revert\n        /* \"#utility.yul\":211:328   */\n    tag_27:\n        /* \"#utility.yul\":320:321   */\n      0x00\n        /* \"#utility.yul\":317:318   */\n      dup1\n        /* \"#utility.yul\":310:322   */\n      revert\n        /* \"#utility.yul\":334:451   */\n    tag_28:\n        /* \"#utility.yul\":443:444   */\n      0x00\n        /* \"#utility.yul\":440:441   */\n      dup1\n        /* \"#utility.yul\":433:445   */\n      revert\n        /* \"#utility.yul\":457:574   */\n    tag_29:\n        /* \"#utility.yul\":566:567   */\n      0x00\n        /* \"#utility.yul\":563:564   */\n      dup1\n        /* \"#utility.yul\":556:568   */\n      revert\n        /* \"#utility.yul\":580:682   */\n    tag_30:\n        /* \"#utility.yul\":621:627   */\n      0x00\n        /* \"#utility.yul\":672:674   */\n      0x1f\n        /* \"#utility.yul\":668:675   */\n      not\n        /* \"#utility.yul\":663:665   */\n      0x1f\n        /* \"#utility.yul\":656:661   */\n      dup4\n        /* \"#utility.yul\":652:666   */\n      add\n        /* \"#utility.yul\":648:676   */\n      and\n        /* \"#utility.yul\":638:676   */\n      swap1\n      pop\n        /* \"#utility.yul\":580:682   */\n      swap2\n      swap1\n      pop\n      jump\t// out\n        /* \"#utility.yul\":688:868   */\n    tag_31:\n        /* \"#utility.yul\":736:813   */\n      0x4e487b7100000000000000000000000000000000000000000000000000000000\n        /* \"#utility.yul\":733:734   */\n      0x00\n        /* \"#utility.yul\":726:814   */\n      mstore\n        /* \"#utility.yul\":833:837   */\n      0x41\n        /* \"#utility.yul\":830:831   */\n      0x04\n        /* \"#utility.yul\":823:838   */\n      mstore\n        /* \"#utility.yul\":857:861   */\n      0x24\n        /* \"#utility.yul\":854:855   */\n      0x00\n        /* \"#utility.yul\":847:862   */\n      revert\n        /* \"#utility.yul\":874:1155   */\n    tag_32:\n        /* \"#utility.yul\":957:984   */\n      tag_70\n        /* \"#utility.yul\":979:983   */\n      dup3\n        /* \"#utility.yul\":957:984   */\n      tag_30\n      jump\t// in\n    tag_70:\n        /* \"#utility.yul\":949:955   */\n      dup2\n        /* \"#utility.yul\":945:985   */\n      add\n        /* \"#utility.yul\":1087:1093   */\n      dup2\n        /* \"#utility.yul\":1075:1085   */\n      dup2\n        /* \"#utility.yul\":1072:1094   */\n      lt\n        /* \"#utility.yul\":1051:1069   */\n      0xffffffffffffffff\n        /* \"#utility.yul\":1039:1049   */\n      dup3\n        /* \"#utility.yul\":1036:1070   */\n      gt\n        /* \"#utility.yul\":1033:1095   */\n      or\n        /* \"#utility.yul\":1030:1118   */\n      iszero\n      tag_71\n      jumpi\n        /* \"#utility.yul\":1098:1116   */\n      tag_72\n      tag_31\n      jump\t// in\n    tag_72:\n        /* \"#utility.yul\":1030:1118   */\n    tag_71:\n        /* \"#utility.yul\":1138:1148   */\n      dup1\n        /* \"#utility.yul\":1134:1136   */\n      0x40\n        /* \"#utility.yul\":1127:1149   */\n      mstore\n        /* \"#utility.yul\":917:1155   */\n      pop\n        /* \"#utility.yul\":874:1155   */\n      pop\n      pop\n      jump\t// out\n        /* \"#utility.yul\":1161:1290   */\n    tag_33:\n        /* \"#utility.yul\":1195:1201   */\n      0x00\n        /* \"#utility.yul\":1222:1242   */\n      tag_74\n      tag_25\n      jump\t// in\n    tag_74:\n        /* \"#utility.yul\":1212:1242   */\n      swap1\n      pop\n        /* \"#utility.yul\":1251:1284   */\n      tag_75\n        /* \"#utility.yul\":1279:1283   */\n      dup3\n        /* \"#utility.yul\":1271:1277   */\n      dup3\n        /* \"#utility.yul\":1251:1284   */\n      tag_32\n      jump\t// in\n    tag_75:\n        /* \"#utility.yul\":1161:1290   */\n      swap2\n      swap1\n      pop\n      jump\t// out\n        /* \"#utility.yul\":1296:1604   */\n    tag_34:\n        /* \"#utility.yul\":1358:1362   */\n      0x00\n        /* \"#utility.yul\":1448:1466   */\n      0xffffffffffffffff\n        /* \"#utility.yul\":1440:1446   */\n      dup3\n        /* \"#utility.yul\":1437:1467   */\n      gt\n        /* \"#utility.yul\":1434:1490   */\n      iszero\n      tag_77\n      jumpi\n        /* \"#utility.yul\":1470:1488   */\n      tag_78\n      tag_31\n      jump\t// in\n    tag_78:\n        /* \"#utility.yul\":1434:1490   */\n    tag_77:\n        /* \"#utility.yul\":1508:1537   */\n      tag_79\n        /* \"#utility.yul\":1530:1536   */\n      dup3\n        /* \"#utility.yul\":1508:1537   */\n      tag_30\n      jump\t// in\n    tag_79:\n        /* \"#utility.yul\":1500:1537   */\n      swap1\n      pop\n        /* \"#utility.yul\":1592:1596   */\n      0x20\n        /* \"#utility.yul\":1586:1590   */\n      dup2\n        /* \"#utility.yul\":1582:1597   */\n      add\n        /* \"#utility.yul\":1574:1597   */\n      swap1\n      pop\n        /* \"#utility.yul\":1296:1604   */\n      swap2\n      swap1\n      pop\n      jump\t// out\n        /* \"#utility.yul\":1610:1756   */\n    tag_35:\n        /* \"#utility.yul\":1707:1713   */\n      dup3\n        /* \"#utility.yul\":1702:1705   */\n      dup2\n        /* \"#utility.yul\":1697:1700   */\n      dup4\n        /* \"#utility.yul\":1684:1714   */\n      calldatacopy\n        /* \"#utility.yul\":1748:1749   */\n      0x00\n        /* \"#utility.yul\":1739:1745   */\n      dup4\n        /* \"#utility.yul\":1734:1737   */\n      dup4\n        /* \"#utility.yul\":1730:1746   */\n      add\n        /* \"#utility.yul\":1723:1750   */\n      mstore\n        /* \"#utility.yul\":1610:1756   */\n      pop\n      pop\n      pop\n      jump\t// out\n        /* \"#utility.yul\":1762:2187   */\n    tag_36:\n        /* \"#utility.yul\":1840:1845   */\n      0x00\n        /* \"#utility.yul\":1865:1931   */\n      tag_82\n        /* \"#utility.yul\":1881:1930   */\n      tag_83\n        /* \"#utility.yul\":1923:1929   */\n      dup5\n        /* \"#utility.yul\":1881:1930   */\n      tag_34\n      jump\t// in\n    tag_83:\n        /* \"#utility.yul\":1865:1931   */\n      tag_33\n      jump\t// in\n    tag_82:\n        /* \"#utility.yul\":1856:1931   */\n      swap1\n      pop\n        /* \"#utility.yul\":1954:1960   */\n      dup3\n        /* \"#utility.yul\":1947:1952   */\n      dup2\n        /* \"#utility.yul\":1940:1961   */\n      mstore\n        /* \"#utility.yul\":1992:1996   */\n      0x20\n        /* \"#utility.yul\":1985:1990   */\n      dup2\n        /* \"#utility.yul\":1981:1997   */\n      add\n        /* \"#utility.yul\":2030:2033   */\n      dup5\n        /* \"#utility.yul\":2021:2027   */\n      dup5\n        /* \"#utility.yul\":2016:2019   */\n      dup5\n        /* \"#utility.yul\":2012:2028   */\n      add\n        /* \"#utility.yul\":2009:2034   */\n      gt\n        /* \"#utility.yul\":2006:2118   */\n      iszero\n      tag_84\n      jumpi\n        /* \"#utility.yul\":2037:2116   */\n      tag_85\n      tag_29\n      jump\t// in\n    tag_85:\n        /* \"#utility.yul\":2006:2118   */\n    tag_84:\n        /* \"#utility.yul\":2127:2181   */\n      tag_86\n        /* \"#utility.yul\":2174:2180   */\n      dup5\n        /* \"#utility.yul\":2169:2172   */\n      dup3\n        /* \"#utility.yul\":2164:2167   */\n      dup6\n        /* \"#utility.yul\":2127:2181   */\n      tag_35\n      jump\t// in\n    tag_86:\n        /* \"#utility.yul\":1846:2187   */\n      pop\n        /* \"#utility.yul\":1762:2187   */\n      swap4\n      swap3\n      pop\n      pop\n      pop\n      jump\t// out\n        /* \"#utility.yul\":2207:2547   */\n    tag_37:\n        /* \"#utility.yul\":2263:2268   */\n      0x00\n        /* \"#utility.yul\":2312:2315   */\n      dup3\n        /* \"#utility.yul\":2305:2309   */\n      0x1f\n        /* \"#utility.yul\":2297:2303   */\n      dup4\n        /* \"#utility.yul\":2293:2310   */\n      add\n        /* \"#utility.yul\":2289:2316   */\n      slt\n        /* \"#utility.yul\":2279:2401   */\n      tag_88\n      jumpi\n        /* \"#utility.yul\":2320:2399   */\n      tag_89\n      tag_28\n      jump\t// in\n    tag_89:\n        /* \"#utility.yul\":2279:2401   */\n    tag_88:\n        /* \"#utility.yul\":2437:2443   */\n      dup2\n        /* \"#utility.yul\":2424:2444   */\n      calldataload\n        /* \"#utility.yul\":2462:2541   */\n      tag_90\n        /* \"#utility.yul\":2537:2540   */\n      dup5\n        /* \"#utility.yul\":2529:2535   */\n      dup3\n        /* \"#utility.yul\":2522:2526   */\n      0x20\n        /* \"#utility.yul\":2514:2520   */\n      dup7\n        /* \"#utility.yul\":2510:2527   */\n      add\n        /* \"#utility.yul\":2462:2541   */\n      tag_36\n      jump\t// in\n    tag_90:\n        /* \"#utility.yul\":2453:2541   */\n      swap2\n      pop\n        /* \"#utility.yul\":2269:2547   */\n      pop\n        /* \"#utility.yul\":2207:2547   */\n      swap3\n      swap2\n      pop\n      pop\n      jump\t// out\n        /* \"#utility.yul\":2553:3062   */\n    tag_7:\n        /* \"#utility.yul\":2622:2628   */\n      0x00\n        /* \"#utility.yul\":2671:2673   */\n      0x20\n        /* \"#utility.yul\":2659:2668   */\n      dup3\n        /* \"#utility.yul\":2650:2657   */\n      dup5\n        /* \"#utility.yul\":2646:2669   */\n      sub\n        /* \"#utility.yul\":2642:2674   */\n      slt\n        /* \"#utility.yul\":2639:2758   */\n      iszero\n      tag_92\n      jumpi\n        /* \"#utility.yul\":2677:2756   */\n      tag_93\n      tag_26\n      jump\t// in\n    tag_93:\n        /* \"#utility.yul\":2639:2758   */\n    tag_92:\n        /* \"#utility.yul\":2825:2826   */\n      0x00\n        /* \"#utility.yul\":2814:2823   */\n      dup3\n        /* \"#utility.yul\":2810:2827   */\n      add\n        /* \"#utility.yul\":2797:2828   */\n      calldataload\n        /* \"#utility.yul\":2855:2873   */\n      0xffffffffffffffff\n        /* \"#utility.yul\":2847:2853   */\n      dup2\n        /* \"#utility.yul\":2844:2874   */\n      gt\n        /* \"#utility.yul\":2841:2958   */\n      iszero\n      tag_94\n      jumpi\n        /* \"#utility.yul\":2877:2956   */\n      tag_95\n      tag_27\n      jump\t// in\n    tag_95:\n        /* \"#utility.yul\":2841:2958   */\n    tag_94:\n        /* \"#utility.yul\":2982:3045   */\n      tag_96\n        /* \"#utility.yul\":3037:3044   */\n      dup5\n        /* \"#utility.yul\":3028:3034   */\n      dup3\n        /* \"#utility.yul\":3017:3026   */\n      dup6\n        /* \"#utility.yul\":3013:3035   */\n      add\n        /* \"#utility.yul\":2982:3045   */\n      tag_37\n      jump\t// in\n    tag_96:\n        /* \"#utility.yul\":2972:3045   */\n      swap2\n      pop\n        /* \"#utility.yul\":2768:3055   */\n      pop\n        /* \"#utility.yul\":2553:3062   */\n      swap3\n      swap2\n      pop\n      pop\n      jump\t// out\n        /* \"#utility.yul\":3068:3145   */\n    tag_38:\n        /* \"#utility.yul\":3105:3112   */\n      0x00\n        /* \"#utility.yul\":3134:3139   */\n      dup2\n        /* \"#utility.yul\":3123:3139   */\n      swap1\n      pop\n        /* \"#utility.yul\":3068:3145   */\n      swap2\n      swap1\n      pop\n      jump\t// out\n        /* \"#utility.yul\":3151:3269   */\n    tag_39:\n        /* \"#utility.yul\":3238:3262   */\n      tag_99\n        /* \"#utility.yul\":3256:3261   */\n      dup2\n        /* \"#utility.yul\":3238:3262   */\n      tag_38\n      jump\t// in\n    tag_99:\n        /* \"#utility.yul\":3233:3236   */\n      dup3\n        /* \"#utility.yul\":3226:3263   */\n      mstore\n        /* \"#utility.yul\":3151:3269   */\n      pop\n      pop\n      jump\t// out\n        /* \"#utility.yul\":3275:3497   */\n    tag_10:\n        /* \"#utility.yul\":3368:3372   */\n      0x00\n        /* \"#utility.yul\":3406:3408   */\n      0x20\n        /* \"#utility.yul\":3395:3404   */\n      dup3\n        /* \"#utility.yul\":3391:3409   */\n      add\n        /* \"#utility.yul\":3383:3409   */\n      swap1\n      pop\n        /* \"#utility.yul\":3419:3490   */\n      tag_101\n        /* \"#utility.yul\":3487:3488   */\n      0x00\n        /* \"#utility.yul\":3476:3485   */\n      dup4\n        /* \"#utility.yul\":3472:3489   */\n      add\n        /* \"#utility.yul\":3463:3469   */\n      dup5\n        /* \"#utility.yul\":3419:3490   */\n      tag_39\n      jump\t// in\n    tag_101:\n        /* \"#utility.yul\":3275:3497   */\n      swap3\n      swap2\n      pop\n      pop\n      jump\t// out\n        /* \"#utility.yul\":3503:3625   */\n    tag_40:\n        /* \"#utility.yul\":3576:3600   */\n      tag_103\n        /* \"#utility.yul\":3594:3599   */\n      dup2\n        /* \"#utility.yul\":3576:3600   */\n      tag_38\n      jump\t// in\n    tag_103:\n        /* \"#utility.yul\":3569:3574   */\n      dup2\n        /* \"#utility.yul\":3566:3601   */\n      eq\n        /* \"#utility.yul\":3556:3619   */\n      tag_104\n      jumpi\n        /* \"#utility.yul\":3615:3616   */\n      0x00\n        /* \"#utility.yul\":3612:3613   */\n      dup1\n        /* \"#utility.yul\":3605:3617   */\n      revert\n        /* \"#utility.yul\":3556:3619   */\n    tag_104:\n        /* \"#utility.yul\":3503:3625   */\n      pop\n      jump\t// out\n        /* \"#utility.yul\":3631:3770   */\n    tag_41:\n        /* \"#utility.yul\":3677:3682   */\n      0x00\n        /* \"#utility.yul\":3715:3721   */\n      dup2\n        /* \"#utility.yul\":3702:3722   */\n      calldataload\n        /* \"#utility.yul\":3693:3722   */\n      swap1\n      pop\n        /* \"#utility.yul\":3731:3764   */\n      tag_106\n        /* \"#utility.yul\":3758:3763   */\n      dup2\n        /* \"#utility.yul\":3731:3764   */\n      tag_40\n      jump\t// in\n    tag_106:\n        /* \"#utility.yul\":3631:3770   */\n      swap3\n      swap2\n      pop\n      pop\n      jump\t// out\n        /* \"#utility.yul\":3776:4430   */\n    tag_13:\n        /* \"#utility.yul\":3854:3860   */\n      0x00\n        /* \"#utility.yul\":3862:3868   */\n      dup1\n        /* \"#utility.yul\":3911:3913   */\n      0x40\n        /* \"#utility.yul\":3899:3908   */\n      dup4\n        /* \"#utility.yul\":3890:3897   */\n      dup6\n        /* \"#utility.yul\":3886:3909   */\n      sub\n        /* \"#utility.yul\":3882:3914   */\n      slt\n        /* \"#utility.yul\":3879:3998   */\n      iszero\n      tag_108\n      jumpi\n        /* \"#utility.yul\":3917:3996   */\n      tag_109\n      tag_26\n      jump\t// in\n    tag_109:\n        /* \"#utility.yul\":3879:3998   */\n    tag_108:\n        /* \"#utility.yul\":4065:4066   */\n      0x00\n        /* \"#utility.yul\":4054:4063   */\n      dup4\n        /* \"#utility.yul\":4050:4067   */\n      add\n        /* \"#utility.yul\":4037:4068   */\n      calldataload\n        /* \"#utility.yul\":4095:4113   */\n      0xffffffffffffffff\n        /* \"#utility.yul\":4087:4093   */\n      dup2\n        /* \"#utility.yul\":4084:4114   */\n      gt\n        /* \"#utility.yul\":4081:4198   */\n      iszero\n      tag_110\n      jumpi\n        /* \"#utility.yul\":4117:4196   */\n      tag_111\n      tag_27\n      jump\t// in\n    tag_111:\n        /* \"#utility.yul\":4081:4198   */\n    tag_110:\n        /* \"#utility.yul\":4222:4285   */\n      tag_112\n        /* \"#utility.yul\":4277:4284   */\n      dup6\n        /* \"#utility.yul\":4268:4274   */\n      dup3\n        /* \"#utility.yul\":4257:4266   */\n      dup7\n        /* \"#utility.yul\":4253:4275   */\n      add\n        /* \"#utility.yul\":4222:4285   */\n      tag_37\n      jump\t// in\n    tag_112:\n        /* \"#utility.yul\":4212:4285   */\n      swap3\n      pop\n        /* \"#utility.yul\":4008:4295   */\n      pop\n        /* \"#utility.yul\":4334:4336   */\n      0x20\n        /* \"#utility.yul\":4360:4413   */\n      tag_113\n        /* \"#utility.yul\":4405:4412   */\n      dup6\n        /* \"#utility.yul\":4396:4402   */\n      dup3\n        /* \"#utility.yul\":4385:4394   */\n      dup7\n        /* \"#utility.yul\":4381:4403   */\n      add\n        /* \"#utility.yul\":4360:4413   */\n      tag_41\n      jump\t// in\n    tag_113:\n        /* \"#utility.yul\":4350:4413   */\n      swap2\n      pop\n        /* \"#utility.yul\":4305:4423   */\n      pop\n        /* \"#utility.yul\":3776:4430   */\n      swap3\n      pop\n      swap3\n      swap1\n      pop\n      jump\t// out\n        /* \"#utility.yul\":4436:4616   */\n    tag_42:\n        /* \"#utility.yul\":4484:4561   */\n      0x4e487b7100000000000000000000000000000000000000000000000000000000\n        /* \"#utility.yul\":4481:4482   */\n      0x00\n        /* \"#utility.yul\":4474:4562   */\n      mstore\n        /* \"#utility.yul\":4581:4585   */\n      0x11\n        /* \"#utility.yul\":4578:4579   */\n      0x04\n        /* \"#utility.yul\":4571:4586   */\n      mstore\n        /* \"#utility.yul\":4605:4609   */\n      0x24\n        /* \"#utility.yul\":4602:4603   */\n      0x00\n        /* \"#utility.yul\":4595:4610   */\n      revert\n        /* \"#utility.yul\":4622:4855   */\n    tag_20:\n        /* \"#utility.yul\":4661:4664   */\n      0x00\n        /* \"#utility.yul\":4684:4708   */\n      tag_116\n        /* \"#utility.yul\":4702:4707   */\n      dup3\n        /* \"#utility.yul\":4684:4708   */\n      tag_38\n      jump\t// in\n    tag_116:\n        /* \"#utility.yul\":4675:4708   */\n      swap2\n      pop\n        /* \"#utility.yul\":4730:4796   */\n      0xffffffffffffffffffffffffffffffffffffffffffffffffffffffffffffffff\n        /* \"#utility.yul\":4723:4728   */\n      dup3\n        /* \"#utility.yul\":4720:4797   */\n      sub\n        /* \"#utility.yul\":4717:4820   */\n      tag_117\n      jumpi\n        /* \"#utility.yul\":4800:4818   */\n      tag_118\n      tag_42\n      jump\t// in\n    tag_118:\n        /* \"#utility.yul\":4717:4820   */\n    tag_117:\n        /* \"#utility.yul\":4847:4848   */\n      0x01\n        /* \"#utility.yul\":4840:4845   */\n      dup3\n        /* \"#utility.yul\":4836:4849   */\n      add\n        /* \"#utility.yul\":4829:4849   */\n      swap1\n      pop\n        /* \"#utility.yul\":4622:4855   */\n      swap2\n      swap1\n      pop\n      jump\t// out\n        /* \"#utility.yul\":4861:4960   */\n    tag_43:\n        /* \"#utility.yul\":4913:4919   */\n      0x00\n        /* \"#utility.yul\":4947:4952   */\n      dup2\n        /* \"#utility.yul\":4941:4953   */\n      mload\n        /* \"#utility.yul\":4931:4953   */\n      swap1\n      pop\n        /* \"#utility.yul\":4861:4960   */\n      swap2\n      swap1\n      pop\n      jump\t// out\n        /* \"#utility.yul\":4966:5146   */\n    tag_44:\n        /* \"#utility.yul\":5014:5091   */\n      0x4e487b7100000000000000000000000000000000000000000000000000000000\n        /* \"#utility.yul\":5011:5012   */\n      0x00\n        /* \"#utility.yul\":5004:5092   */\n      mstore\n        /* \"#utility.yul\":5111:5115   */\n      0x22\n        /* \"#utility.yul\":5108:5109   */\n      0x04\n        /* \"#utility.yul\":5101:5116   */\n      mstore\n        /* \"#utility.yul\":5135:5139   */\n      0x24\n        /* \"#utility.yul\":5132:5133   */\n      0x00\n        /* \"#utility.yul\":5125:5140   */\n      revert\n        /* \"#utility.yul\":5152:5472   */\n    tag_45:\n        /* \"#utility.yul\":5196:5202   */\n      0x00\n        /* \"#utility.yul\":5233:5234   */\n      0x02\n        /* \"#utility.yul\":5227:5231   */\n      dup3\n        /* \"#utility.yul\":5223:5235   */\n      div\n        /* \"#utility.yul\":5213:5235   */\n      swap1\n      pop\n        /* \"#utility.yul\":5280:5281   */\n      0x01\n        /* \"#utility.yul\":5274:5278   */\n      dup3\n        /* \"#utility.yul\":5270:5282   */\n      and\n        /* \"#utility.yul\":5301:5319   */\n      dup1\n        /* \"#utility.yul\":5291:5372   */\n      tag_122\n      jumpi\n        /* \"#utility.yul\":5357:5361   */\n      0x7f\n        /* \"#utility.yul\":5349:5355   */\n      dup3\n        /* \"#utility.yul\":5345:5362   */\n      and\n        /* \"#utility.yul\":5335:5362   */\n      swap2\n      pop\n        /* \"#utility.yul\":5291:5372   */\n    tag_122:\n        /* \"#utility.yul\":5419:5421   */\n      0x20\n        /* \"#utility.yul\":5411:5417   */\n      dup3\n        /* \"#utility.yul\":5408:5422   */\n      lt\n        /* \"#utility.yul\":5388:5406   */\n      dup2\n        /* \"#utility.yul\":5385:5423   */\n      sub\n        /* \"#utility.yul\":5382:5466   */\n      tag_123\n      jumpi\n        /* \"#utility.yul\":5438:5456   */\n      tag_124\n      tag_44\n      jump\t// in\n    tag_124:\n        /* \"#utility.yul\":5382:5466   */\n    tag_123:\n        /* \"#utility.yul\":5203:5472   */\n      pop\n        /* \"#utility.yul\":5152:5472   */\n      swap2\n      swap1\n      pop\n      jump\t// out\n        /* \"#utility.yul\":5478:5619   */\n    tag_46:\n        /* \"#utility.yul\":5527:5531   */\n      0x00\n        /* \"#utility.yul\":5550:5553   */\n      dup2\n        /* \"#utility.yul\":5542:5553   */\n      swap1\n      pop\n        /* \"#utility.yul\":5573:5576   */\n      dup2\n        /* \"#utility.yul\":5570:5571   */\n      0x00\n        /* \"#utility.yul\":5563:5577   */\n      mstore\n        /* \"#utility.yul\":5607:5611   */\n      0x20\n        /* \"#utility.yul\":5604:5605   */\n      0x00\n        /* \"#utility.yul\":5594:5612   */\n      keccak256\n        /* \"#utility.yul\":5586:5612   */\n      swap1\n      pop\n        /* \"#utility.yul\":5478:5619   */\n      swap2\n      swap1\n      pop\n      jump\t// out\n        /* \"#utility.yul\":5625:5718   */\n    tag_47:\n        /* \"#utility.yul\":5662:5668   */\n      0x00\n        /* \"#utility.yul\":5709:5711   */\n      0x20\n        /* \"#utility.yul\":5704:5706   */\n      0x1f\n        /* \"#utility.yul\":5697:5702   */\n      dup4\n        /* \"#utility.yul\":5693:5707   */\n      add\n        /* \"#utility.yul\":5689:5712   */\n      div\n        /* \"#utility.yul\":5679:5712   */\n      swap1\n      pop\n        /* \"#utility.yul\":5625:5718   */\n      swap2\n      swap1\n      pop\n      jump\t// out\n        /* \"#utility.yul\":5724:5831   */\n    tag_48:\n        /* \"#utility.yul\":5768:5776   */\n      0x00\n        /* \"#utility.yul\":5818:5823   */\n      dup3\n        /* \"#utility.yul\":5812:5816   */\n      dup3\n        /* \"#utility.yul\":5808:5824   */\n      shl\n        /* \"#utility.yul\":5787:5824   */\n      swap1\n      pop\n        /* \"#utility.yul\":5724:5831   */\n      swap3\n      swap2\n      pop\n      pop\n      jump\t// out\n        /* \"#utility.yul\":5837:6230   */\n    tag_49:\n        /* \"#utility.yul\":5906:5912   */\n      0x00\n        /* \"#utility.yul\":5956:5957   */\n      0x08\n        /* \"#utility.yul\":5944:5954   */\n      dup4\n        /* \"#utility.yul\":5940:5958   */\n      mul\n        /* \"#utility.yul\":5979:6076   */\n      tag_129\n        /* \"#utility.yul\":6009:6075   */\n      0xffffffffffffffffffffffffffffffffffffffffffffffffffffffffffffffff\n        /* \"#utility.yul\":5998:6007   */\n      dup3\n        /* \"#utility.yul\":5979:6076   */\n      tag_48\n      jump\t// in\n    tag_129:\n        /* \"#utility.yul\":6097:6136   */\n      tag_130\n        /* \"#utility.yul\":6127:6135   */\n      dup7\n        /* \"#utility.yul\":6116:6125   */\n      dup4\n        /* \"#utility.yul\":6097:6136   */\n      tag_48\n      jump\t// in\n    tag_130:\n        /* \"#utility.yul\":6085:6136   */\n      swap6\n      pop\n        /* \"#utility.yul\":6169:6173   */\n      dup1\n        /* \"#utility.yul\":6165:6174   */\n      not\n        /* \"#utility.yul\":6158:6163   */\n      dup5\n        /* \"#utility.yul\":6154:6175   */\n      and\n        /* \"#utility.yul\":6145:6175   */\n      swap4\n      pop\n        /* \"#utility.yul\":6218:6222   */\n      dup1\n        /* \"#utility.yul\":6208:6216   */\n      dup7\n        /* \"#utility.yul\":6204:6223   */\n      and\n        /* \"#utility.yul\":6197:6202   */\n      dup5\n        /* \"#utility.yul\":6194:6224   */\n      or\n        /* \"#utility.yul\":6184:6224   */\n      swap3\n      pop\n        /* \"#utility.yul\":5913:6230   */\n      pop\n      pop\n        /* \"#utility.yul\":5837:6230   */\n      swap4\n      swap3\n      pop\n      pop\n      pop\n      jump\t// out\n        /* \"#utility.yul\":6236:6296   */\n    tag_50:\n        /* \"#utility.yul\":6264:6267   */\n      0x00\n        /* \"#utility.yul\":6285:6290   */\n      dup2\n        /* \"#utility.yul\":6278:6290   */\n      swap1\n      pop\n        /* \"#utility.yul\":6236:6296   */\n      swap2\n      swap1\n      pop\n      jump\t// out\n        /* \"#utility.yul\":6302:6444   */\n    tag_51:\n        /* \"#utility.yul\":6352:6361   */\n      0x00\n        /* \"#utility.yul\":6385:6438   */\n      tag_133\n        /* \"#utility.yul\":6403:6437   */\n      tag_134\n        /* \"#utility.yul\":6412:6436   */\n      tag_135\n        /* \"#utility.yul\":6430:6435   */\n      dup5\n        /* \"#utility.yul\":6412:6436   */\n      tag_38\n      jump\t// in\n    tag_135:\n        /* \"#utility.yul\":6403:6437   */\n      tag_50\n      jump\t// in\n    tag_134:\n        /* \"#utility.yul\":6385:6438   */\n      tag_38\n      jump\t// in\n    tag_133:\n        /* \"#utility.yul\":6372:6438   */\n      swap1\n      pop\n        /* \"#utility.yul\":6302:6444   */\n      swap2\n      swap1\n      pop\n      jump\t// out\n        /* \"#utility.yul\":6450:6525   */\n    tag_52:\n        /* \"#utility.yul\":6493:6496   */\n      0x00\n        /* \"#utility.yul\":6514:6519   */\n      dup2\n        /* \"#utility.yul\":6507:6519   */\n      swap1\n      pop\n        /* \"#utility.yul\":6450:6525   */\n      swap2\n      swap1\n      pop\n      jump\t// out\n        /* \"#utility.yul\":6531:6800   */\n    tag_53:\n        /* \"#utility.yul\":6641:6680   */\n      tag_138\n        /* \"#utility.yul\":6672:6679   */\n      dup4\n        /* \"#utility.yul\":6641:6680   */\n      tag_51\n      jump\t// in\n    tag_138:\n        /* \"#utility.yul\":6702:6793   */\n      tag_139\n        /* \"#utility.yul\":6751:6792   */\n      tag_140\n        /* \"#utility.yul\":6775:6791   */\n      dup3\n        /* \"#utility.yul\":6751:6792   */\n      tag_52\n      jump\t// in\n    tag_140:\n        /* \"#utility.yul\":6743:6749   */\n      dup5\n        /* \"#utility.yul\":6736:6740   */\n      dup5\n        /* \"#utility.yul\":6730:6741   */\n      sload\n        /* \"#utility.yul\":6702:6793   */\n      tag_49\n      jump\t// in\n    tag_139:\n        /* \"#utility.yul\":6696:6700   */\n      dup3\n        /* \"#utility.yul\":6689:6794   */\n      sstore\n        /* \"#utility.yul\":6607:6800   */\n      pop\n        /* \"#utility.yul\":6531:6800   */\n      pop\n      pop\n      pop\n      jump\t// out\n        /* \"#utility.yul\":6806:6879   */\n    tag_54:\n        /* \"#utility.yul\":6851:6854   */\n      0x00\n        /* \"#utility.yul\":6806:6879   */\n      swap1\n      jump\t// out\n        /* \"#utility.yul\":6885:7074   */\n    tag_55:\n        /* \"#utility.yul\":6962:6994   */\n      tag_143\n      tag_54\n      jump\t// in\n    tag_143:\n        /* \"#utility.yul\":7003:7068   */\n      tag_144\n        /* \"#utility.yul\":7061:7067   */\n      dup2\n        /* \"#utility.yul\":7053:7059   */\n      dup5\n        /* \"#utility.yul\":7047:7051   */\n      dup5\n        /* \"#utility.yul\":7003:7068   */\n      tag_53\n      jump\t// in\n    tag_144:\n        /* \"#utility.yul\":6938:7074   */\n      pop\n        /* \"#utility.yul\":6885:7074   */\n      pop\n      pop\n      jump\t// out\n        /* \"#utility.yul\":7080:7266   */\n    tag_56:\n        /* \"#utility.yul\":7140:7260   */\n    tag_146:\n        /* \"#utility.yul\":7157:7160   */\n      dup2\n        /* \"#utility.yul\":7150:7155   */\n      dup2\n        /* \"#utility.yul\":7147:7161   */\n      lt\n        /* \"#utility.yul\":7140:7260   */\n      iszero\n      tag_148\n      jumpi\n        /* \"#utility.yul\":7211:7250   */\n      tag_149\n        /* \"#utility.yul\":7248:7249   */\n      0x00\n        /* \"#utility.yul\":7241:7246   */\n      dup3\n        /* \"#utility.yul\":7211:7250   */\n      tag_55\n      jump\t// in\n    tag_149:\n        /* \"#utility.yul\":7184:7185   */\n      0x01\n        /* \"#utility.yul\":7177:7182   */\n      dup2\n        /* \"#utility.yul\":7173:7186   */\n      add\n        /* \"#utility.yul\":7164:7186   */\n      swap1\n      pop\n        /* \"#utility.yul\":7140:7260   */\n      jump(tag_146)\n    tag_148:\n        /* \"#utility.yul\":7080:7266   */\n      pop\n      pop\n      jump\t// out\n        /* \"#utility.yul\":7272:7815   */\n    tag_57:\n        /* \"#utility.yul\":7373:7375   */\n      0x1f\n        /* \"#utility.yul\":7368:7371   */\n      dup3\n        /* \"#utility.yul\":7365:7376   */\n      gt\n        /* \"#utility.yul\":7362:7808   */\n      iszero\n      tag_151\n      jumpi\n        /* \"#utility.yul\":7407:7445   */\n      tag_152\n        /* \"#utility.yul\":7439:7444   */\n      dup2\n        /* \"#utility.yul\":7407:7445   */\n      tag_46\n      jump\t// in\n    tag_152:\n        /* \"#utility.yul\":7491:7520   */\n      tag_153\n        /* \"#utility.yul\":7509:7519   */\n      dup5\n        /* \"#utility.yul\":7491:7520   */\n      tag_47\n      jump\t// in\n    tag_153:\n        /* \"#utility.yul\":7481:7489   */\n      dup2\n        /* \"#utility.yul\":7477:7521   */\n      add\n        /* \"#utility.yul\":7674:7676   */\n      0x20\n        /* \"#utility.yul\":7662:7672   */\n      dup6\n        /* \"#utility.yul\":7659:7677   */\n      lt\n        /* \"#utility.yul\":7656:7705   */\n      iszero\n      tag_154\n      jumpi\n        /* \"#utility.yul\":7695:7703   */\n      dup2\n        /* \"#utility.yul\":7680:7703   */\n      swap1\n      pop\n        /* \"#utility.yul\":7656:7705   */\n    tag_154:\n        /* \"#utility.yul\":7718:7798   */\n      tag_155\n        /* \"#utility.yul\":7774:7796   */\n      tag_156\n        /* \"#utility.yul\":7792:7795   */\n      dup6\n        /* \"#utility.yul\":7774:7796   */\n      tag_47\n      jump\t// in\n    tag_156:\n        /* \"#utility.yul\":7764:7772   */\n      dup4\n        /* \"#utility.yul\":7760:7797   */\n      add\n        /* \"#utility.yul\":7747:7758   */\n      dup3\n        /* \"#utility.yul\":7718:7798   */\n      tag_56\n      jump\t// in\n    tag_155:\n        /* \"#utility.yul\":7377:7808   */\n      pop\n      pop\n        /* \"#utility.yul\":7362:7808   */\n    tag_151:\n        /* \"#utility.yul\":7272:7815   */\n      pop\n      pop\n      pop\n      jump\t// out\n        /* \"#utility.yul\":7821:7938   */\n    tag_58:\n        /* \"#utility.yul\":7875:7883   */\n      0x00\n        /* \"#utility.yul\":7925:7930   */\n      dup3\n        /* \"#utility.yul\":7919:7923   */\n      dup3\n        /* \"#utility.yul\":7915:7931   */\n      shr\n        /* \"#utility.yul\":7894:7931   */\n      swap1\n      pop\n        /* \"#utility.yul\":7821:7938   */\n      swap3\n      swap2\n      pop\n      pop\n      jump\t// out\n        /* \"#utility.yul\":7944:8113   */\n    tag_59:\n        /* \"#utility.yul\":7988:7994   */\n      0x00\n        /* \"#utility.yul\":8021:8072   */\n      tag_159\n        /* \"#utility.yul\":8069:8070   */\n      0x00\n        /* \"#utility.yul\":8065:8071   */\n      not\n        /* \"#utility.yul\":8057:8062   */\n      dup5\n        /* \"#utility.yul\":8054:8055   */\n      0x08\n        /* \"#utility.yul\":8050:8063   */\n      mul\n        /* \"#utility.yul\":8021:8072   */\n      tag_58\n      jump\t// in\n    tag_159:\n        /* \"#utility.yul\":8017:8073   */\n      not\n        /* \"#utility.yul\":8102:8106   */\n      dup1\n        /* \"#utility.yul\":8096:8100   */\n      dup4\n        /* \"#utility.yul\":8092:8107   */\n      and\n        /* \"#utility.yul\":8082:8107   */\n      swap2\n      pop\n        /* \"#utility.yul\":7995:8113   */\n      pop\n        /* \"#utility.yul\":7944:8113   */\n      swap3\n      swap2\n      pop\n      pop\n      jump\t// out\n        /* \"#utility.yul\":8118:8413   */\n    tag_60:\n        /* \"#utility.yul\":8194:8198   */\n      0x00\n        /* \"#utility.yul\":8340:8369   */\n      tag_161\n        /* \"#utility.yul\":8365:8368   */\n      dup4\n        /* \"#utility.yul\":8359:8363   */\n      dup4\n        /* \"#utility.yul\":8340:8369   */\n      tag_59\n      jump\t// in\n    tag_161:\n        /* \"#utility.yul\":8332:8369   */\n      swap2\n      pop\n        /* \"#utility.yul\":8402:8405   */\n      dup3\n        /* \"#utility.yul\":8399:8400   */\n      0x02\n        /* \"#utility.yul\":8395:8406   */\n      mul\n        /* \"#utility.yul\":8389:8393   */\n      dup3\n        /* \"#utility.yul\":8386:8407   */\n      or\n        /* \"#utility.yul\":8378:8407   */\n      swap1\n      pop\n        /* \"#utility.yul\":8118:8413   */\n      swap3\n      swap2\n      pop\n      pop\n      jump\t// out\n        /* \"#utility.yul\":8418:9813   */\n    tag_24:\n        /* \"#utility.yul\":8535:8572   */\n      tag_163\n        /* \"#utility.yul\":8568:8571   */\n      dup3\n        /* \"#utility.yul\":8535:8572   */\n      tag_43\n      jump\t// in\n    tag_163:\n        /* \"#utility.yul\":8637:8655   */\n      0xffffffffffffffff\n        /* \"#utility.yul\":8629:8635   */\n      dup2\n        /* \"#utility.yul\":8626:8656   */\n      gt\n        /* \"#utility.yul\":8623:8679   */\n      iszero\n      tag_164\n      jumpi\n        /* \"#utility.yul\":8659:8677   */\n      tag_165\n      tag_31\n      jump\t// in\n    tag_165:\n        /* \"#utility.yul\":8623:8679   */\n    tag_164:\n        /* \"#utility.yul\":8703:8741   */\n      tag_166\n        /* \"#utility.yul\":8735:8739   */\n      dup3\n        /* \"#utility.yul\":8729:8740   */\n      sload\n        /* \"#utility.yul\":8703:8741   */\n      tag_45\n      jump\t// in\n    tag_166:\n        /* \"#utility.yul\":8788:8855   */\n      tag_167\n        /* \"#utility.yul\":8848:8854   */\n      dup3\n        /* \"#utility.yul\":8840:8846   */\n      dup3\n        /* \"#utility.yul\":8834:8838   */\n      dup6\n        /* \"#utility.yul\":8788:8855   */\n      tag_57\n      jump\t// in\n    tag_167:\n        /* \"#utility.yul\":8882:8883   */\n      0x00\n        /* \"#utility.yul\":8906:8910   */\n      0x20\n        /* \"#utility.yul\":8893:8910   */\n      swap1\n      pop\n        /* \"#utility.yul\":8938:8940   */\n      0x1f\n        /* \"#utility.yul\":8930:8936   */\n      dup4\n        /* \"#utility.yul\":8927:8941   */\n      gt\n        /* \"#utility.yul\":8955:8956   */\n      0x01\n        /* \"#utility.yul\":8950:9568   */\n      dup2\n      eq\n      tag_169\n      jumpi\n        /* \"#utility.yul\":9612:9613   */\n      0x00\n        /* \"#utility.yul\":9629:9635   */\n      dup5\n        /* \"#utility.yul\":9626:9703   */\n      iszero\n      tag_170\n      jumpi\n        /* \"#utility.yul\":9678:9687   */\n      dup3\n        /* \"#utility.yul\":9673:9676   */\n      dup8\n        /* \"#utility.yul\":9669:9688   */\n      add\n        /* \"#utility.yul\":9663:9689   */\n      mload\n        /* \"#utility.yul\":9654:9689   */\n      swap1\n      pop\n        /* \"#utility.yul\":9626:9703   */\n    tag_170:\n        /* \"#utility.yul\":9729:9796   */\n      tag_171\n        /* \"#utility.yul\":9789:9795   */\n      dup6\n        /* \"#utility.yul\":9782:9787   */\n      dup3\n        /* \"#utility.yul\":9729:9796   */\n      tag_60\n      jump\t// in\n    tag_171:\n        /* \"#utility.yul\":9723:9727   */\n      dup7\n        /* \"#utility.yul\":9716:9797   */\n      sstore\n        /* \"#utility.yul\":9585:9807   */\n      pop\n        /* \"#utility.yul\":8920:9807   */\n      jump(tag_168)\n        /* \"#utility.yul\":8950:9568   */\n    tag_169:\n        /* \"#utility.yul\":9002:9006   */\n      0x1f\n        /* \"#utility.yul\":8998:9007   */\n      not\n        /* \"#utility.yul\":8990:8996   */\n      dup5\n        /* \"#utility.yul\":8986:9008   */\n      and\n        /* \"#utility.yul\":9036:9073   */\n      tag_172\n        /* \"#utility.yul\":9068:9072   */\n      dup7\n        /* \"#utility.yul\":9036:9073   */\n      tag_46\n      jump\t// in\n    tag_172:\n        /* \"#utility.yul\":9095:9096   */\n      0x00\n        /* \"#utility.yul\":9109:9317   */\n    tag_173:\n        /* \"#utility.yul\":9123:9130   */\n      dup3\n        /* \"#utility.yul\":9120:9121   */\n      dup2\n        /* \"#utility.yul\":9117:9131   */\n      lt\n        /* \"#utility.yul\":9109:9317   */\n      iszero\n      tag_175\n      jumpi\n        /* \"#utility.yul\":9202:9211   */\n      dup5\n        /* \"#utility.yul\":9197:9200   */\n      dup10\n        /* \"#utility.yul\":9193:9212   */\n      add\n        /* \"#utility.yul\":9187:9213   */\n      mload\n        /* \"#utility.yul\":9179:9185   */\n      dup3\n        /* \"#utility.yul\":9172:9214   */\n      sstore\n        /* \"#utility.yul\":9253:9254   */\n      0x01\n        /* \"#utility.yul\":9245:9251   */\n      dup3\n        /* \"#utility.yul\":9241:9255   */\n      add\n        /* \"#utility.yul\":9231:9255   */\n      swap2\n      pop\n        /* \"#utility.yul\":9300:9302   */\n      0x20\n        /* \"#utility.yul\":9289:9298   */\n      dup6\n        /* \"#utility.yul\":9285:9303   */\n      add\n        /* \"#utility.yul\":9272:9303   */\n      swap5\n      pop\n        /* \"#utility.yul\":9146:9150   */\n      0x20\n        /* \"#utility.yul\":9143:9144   */\n      dup2\n        /* \"#utility.yul\":9139:9151   */\n      add\n        /* \"#utility.yul\":9134:9151   */\n      swap1\n      pop\n        /* \"#utility.yul\":9109:9317   */\n      jump(tag_173)\n    tag_175:\n        /* \"#utility.yul\":9345:9351   */\n      dup7\n        /* \"#utility.yul\":9336:9343   */\n      dup4\n        /* \"#utility.yul\":9333:9352   */\n      lt\n        /* \"#utility.yul\":9330:9509   */\n      iszero\n      tag_176\n      jumpi\n        /* \"#utility.yul\":9403:9412   */\n      dup5\n        /* \"#utility.yul\":9398:9401   */\n      dup10\n        /* \"#utility.yul\":9394:9413   */\n      add\n        /* \"#utility.yul\":9388:9414   */\n      mload\n        /* \"#utility.yul\":9446:9494   */\n      tag_177\n        /* \"#utility.yul\":9488:9492   */\n      0x1f\n        /* \"#utility.yul\":9480:9486   */\n      dup10\n        /* \"#utility.yul\":9476:9493   */\n      and\n        /* \"#utility.yul\":9465:9474   */\n      dup3\n        /* \"#utility.yul\":9446:9494   */\n      tag_59\n      jump\t// in\n    tag_177:\n        /* \"#utility.yul\":9438:9444   */\n      dup4\n        /* \"#utility.yul\":9431:9495   */\n      sstore\n        /* \"#utility.yul\":9353:9509   */\n      pop\n        /* \"#utility.yul\":9330:9509   */\n    tag_176:\n        /* \"#utility.yul\":9555:9556   */\n      0x01\n        /* \"#utility.yul\":9551:9552   */\n      0x02\n        /* \"#utility.yul\":9543:9549   */\n      dup9\n        /* \"#utility.yul\":9539:9553   */\n      mul\n        /* \"#utility.yul\":9535:9557   */\n      add\n        /* \"#utility.yul\":9529:9533   */\n      dup9\n        /* \"#utility.yul\":9522:9558   */\n      sstore\n        /* \"#utility.yul\":8957:9568   */\n      pop\n      pop\n      pop\n        /* \"#utility.yul\":8920:9807   */\n    tag_168:\n      pop\n        /* \"#utility.yul\":8510:9813   */\n      pop\n      pop\n      pop\n        /* \"#utility.yul\":8418:9813   */\n      pop\n      pop\n      jump\t// out\n\n    auxdata: 0xa2646970667358221220d24704534d6ce81e0ab4633b1d5cf80e2f69c74138c6cfd47e3e525fcb30913964736f6c63430008110033\n}\n",
				"bytecode": {
					"linkReferences": {},
					"object": "608060405234801561001057600080fd5b50610710806100206000396000f3fe608060405234801561001057600080fd5b50600436106100365760003560e01c8063820ed0861461003b5780639f6563211461006b575b600080fd5b61005560048036038101906100509190610275565b610087565b60405161006291906102d7565b60405180910390f35b6100856004803603810190610080919061031e565b6100b5565b005b600080600090505b6000805490508110156100af5780806100a7906103a9565b91505061008f565b50919050565b60006040518060400160405280848152602001838152509080600181540180825580915050600190039060005260206000209060020201600090919091909150600082015181600001908161010a9190610608565b506020820151816001015550505050565b6000604051905090565b600080fd5b600080fd5b600080fd5b600080fd5b6000601f19601f8301169050919050565b7f4e487b7100000000000000000000000000000000000000000000000000000000600052604160045260246000fd5b61018282610139565b810181811067ffffffffffffffff821117156101a1576101a061014a565b5b80604052505050565b60006101b461011b565b90506101c08282610179565b919050565b600067ffffffffffffffff8211156101e0576101df61014a565b5b6101e982610139565b9050602081019050919050565b82818337600083830152505050565b6000610218610213846101c5565b6101aa565b90508281526020810184848401111561023457610233610134565b5b61023f8482856101f6565b509392505050565b600082601f83011261025c5761025b61012f565b5b813561026c848260208601610205565b91505092915050565b60006020828403121561028b5761028a610125565b5b600082013567ffffffffffffffff8111156102a9576102a861012a565b5b6102b584828501610247565b91505092915050565b6000819050919050565b6102d1816102be565b82525050565b60006020820190506102ec60008301846102c8565b92915050565b6102fb816102be565b811461030657600080fd5b50565b600081359050610318816102f2565b92915050565b6000806040838503121561033557610334610125565b5b600083013567ffffffffffffffff8111156103535761035261012a565b5b61035f85828601610247565b925050602061037085828601610309565b9150509250929050565b7f4e487b7100000000000000000000000000000000000000000000000000000000600052601160045260246000fd5b60006103b4826102be565b91507fffffffffffffffffffffffffffffffffffffffffffffffffffffffffffffffff82036103e6576103e561037a565b5b600182019050919050565b600081519050919050565b7f4e487b7100000000000000000000000000000000000000000000000000000000600052602260045260246000fd5b6000600282049050600182168061044357607f821691505b602082108103610456576104556103fc565b5b50919050565b60008190508160005260206000209050919050565b60006020601f8301049050919050565b600082821b905092915050565b6000600883026104be7fffffffffffffffffffffffffffffffffffffffffffffffffffffffffffffffff82610481565b6104c88683610481565b95508019841693508086168417925050509392505050565b6000819050919050565b60006105056105006104fb846102be565b6104e0565b6102be565b9050919050565b6000819050919050565b61051f836104ea565b61053361052b8261050c565b84845461048e565b825550505050565b600090565b61054861053b565b610553818484610516565b505050565b5b818110156105775761056c600082610540565b600181019050610559565b5050565b601f8211156105bc5761058d8161045c565b61059684610471565b810160208510156105a5578190505b6105b96105b185610471565b830182610558565b50505b505050565b600082821c905092915050565b60006105df600019846008026105c1565b1980831691505092915050565b60006105f883836105ce565b9150826002028217905092915050565b610611826103f1565b67ffffffffffffffff81111561062a5761062961014a565b5b610634825461042b565b61063f82828561057b565b600060209050601f8311600181146106725760008415610660578287015190505b61066a85826105ec565b8655506106d2565b601f1984166106808661045c565b60005b828110156106a857848901518255600182019150602085019450602081019050610683565b868310156106c557848901516106c1601f8916826105ce565b8355505b6001600288020188555050505b50505050505056fea2646970667358221220d24704534d6ce81e0ab4633b1d5cf80e2f69c74138c6cfd47e3e525fcb30913964736f6c63430008110033",
					"opcodes": "PUSH1 0x80 PUSH1 0x40 MSTORE CALLVALUE DUP1 ISZERO PUSH2 0x10 JUMPI PUSH1 0x0 DUP1 REVERT JUMPDEST POP PUSH2 0x710 DUP1 PUSH2 0x20 PUSH1 0x0 CODECOPY PUSH1 0x0 RETURN INVALID PUSH1 0x80 PUSH1 0x40 MSTORE CALLVALUE DUP1 ISZERO PUSH2 0x10 JUMPI PUSH1 0x0 DUP1 REVERT JUMPDEST POP PUSH1 0x4 CALLDATASIZE LT PUSH2 0x36 JUMPI PUSH1 0x0 CALLDATALOAD PUSH1 0xE0 SHR DUP1 PUSH4 0x820ED086 EQ PUSH2 0x3B JUMPI DUP1 PUSH4 0x9F656321 EQ PUSH2 0x6B JUMPI JUMPDEST PUSH1 0x0 DUP1 REVERT JUMPDEST PUSH2 0x55 PUSH1 0x4 DUP1 CALLDATASIZE SUB DUP2 ADD SWAP1 PUSH2 0x50 SWAP2 SWAP1 PUSH2 0x275 JUMP JUMPDEST PUSH2 0x87 JUMP JUMPDEST PUSH1 0x40 MLOAD PUSH2 0x62 SWAP2 SWAP1 PUSH2 0x2D7 JUMP JUMPDEST PUSH1 0x40 MLOAD DUP1 SWAP2 SUB SWAP1 RETURN JUMPDEST PUSH2 0x85 PUSH1 0x4 DUP1 CALLDATASIZE SUB DUP2 ADD SWAP1 PUSH2 0x80 SWAP2 SWAP1 PUSH2 0x31E JUMP JUMPDEST PUSH2 0xB5 JUMP JUMPDEST STOP JUMPDEST PUSH1 0x0 DUP1 PUSH1 0x0 SWAP1 POP JUMPDEST PUSH1 0x0 DUP1 SLOAD SWAP1 POP DUP2 LT ISZERO PUSH2 0xAF JUMPI DUP1 DUP1 PUSH2 0xA7 SWAP1 PUSH2 0x3A9 JUMP JUMPDEST SWAP2 POP POP PUSH2 0x8F JUMP JUMPDEST POP SWAP2 SWAP1 POP JUMP JUMPDEST PUSH1 0x0 PUSH1 0x40 MLOAD DUP1 PUSH1 0x40 ADD PUSH1 0x40 MSTORE DUP1 DUP5 DUP2 MSTORE PUSH1 0x20 ADD DUP4 DUP2 MSTORE POP SWAP1 DUP1 PUSH1 0x1 DUP2 SLOAD ADD DUP1 DUP3 SSTORE DUP1 SWAP2 POP POP PUSH1 0x1 SWAP1 SUB SWAP1 PUSH1 0x0 MSTORE PUSH1 0x20 PUSH1 0x0 KECCAK256 SWAP1 PUSH1 0x2 MUL ADD PUSH1 0x0 SWAP1 SWAP2 SWAP1 SWAP2 SWAP1 SWAP2 POP PUSH1 0x0 DUP3 ADD MLOAD DUP2 PUSH1 0x0 ADD SWAP1 DUP2 PUSH2 0x10A SWAP2 SWAP1 PUSH2 0x608 JUMP JUMPDEST POP PUSH1 0x20 DUP3 ADD MLOAD DUP2 PUSH1 0x1 ADD SSTORE POP POP POP POP JUMP JUMPDEST PUSH1 0x0 PUSH1 0x40 MLOAD SWAP1 POP SWAP1 JUMP JUMPDEST PUSH1 0x0 DUP1 REVERT JUMPDEST PUSH1 0x0 DUP1 REVERT JUMPDEST PUSH1 0x0 DUP1 REVERT JUMPDEST PUSH1 0x0 DUP1 REVERT JUMPDEST PUSH1 0x0 PUSH1 0x1F NOT PUSH1 0x1F DUP4 ADD AND SWAP1 POP SWAP2 SWAP1 POP JUMP JUMPDEST PUSH32 0x4E487B7100000000000000000000000000000000000000000000000000000000 PUSH1 0x0 MSTORE PUSH1 0x41 PUSH1 0x4 MSTORE PUSH1 0x24 PUSH1 0x0 REVERT JUMPDEST PUSH2 0x182 DUP3 PUSH2 0x139 JUMP JUMPDEST DUP2 ADD DUP2 DUP2 LT PUSH8 0xFFFFFFFFFFFFFFFF DUP3 GT OR ISZERO PUSH2 0x1A1 JUMPI PUSH2 0x1A0 PUSH2 0x14A JUMP JUMPDEST JUMPDEST DUP1 PUSH1 0x40 MSTORE POP POP POP JUMP JUMPDEST PUSH1 0x0 PUSH2 0x1B4 PUSH2 0x11B JUMP JUMPDEST SWAP1 POP PUSH2 0x1C0 DUP3 DUP3 PUSH2 0x179 JUMP JUMPDEST SWAP2 SWAP1 POP JUMP JUMPDEST PUSH1 0x0 PUSH8 0xFFFFFFFFFFFFFFFF DUP3 GT ISZERO PUSH2 0x1E0 JUMPI PUSH2 0x1DF PUSH2 0x14A JUMP JUMPDEST JUMPDEST PUSH2 0x1E9 DUP3 PUSH2 0x139 JUMP JUMPDEST SWAP1 POP PUSH1 0x20 DUP2 ADD SWAP1 POP SWAP2 SWAP1 POP JUMP JUMPDEST DUP3 DUP2 DUP4 CALLDATACOPY PUSH1 0x0 DUP4 DUP4 ADD MSTORE POP POP POP JUMP JUMPDEST PUSH1 0x0 PUSH2 0x218 PUSH2 0x213 DUP5 PUSH2 0x1C5 JUMP JUMPDEST PUSH2 0x1AA JUMP JUMPDEST SWAP1 POP DUP3 DUP2 MSTORE PUSH1 0x20 DUP2 ADD DUP5 DUP5 DUP5 ADD GT ISZERO PUSH2 0x234 JUMPI PUSH2 0x233 PUSH2 0x134 JUMP JUMPDEST JUMPDEST PUSH2 0x23F DUP5 DUP3 DUP6 PUSH2 0x1F6 JUMP JUMPDEST POP SWAP4 SWAP3 POP POP POP JUMP JUMPDEST PUSH1 0x0 DUP3 PUSH1 0x1F DUP4 ADD SLT PUSH2 0x25C JUMPI PUSH2 0x25B PUSH2 0x12F JUMP JUMPDEST JUMPDEST DUP2 CALLDATALOAD PUSH2 0x26C DUP5 DUP3 PUSH1 0x20 DUP7 ADD PUSH2 0x205 JUMP JUMPDEST SWAP2 POP POP SWAP3 SWAP2 POP POP JUMP JUMPDEST PUSH1 0x0 PUSH1 0x20 DUP3 DUP5 SUB SLT ISZERO PUSH2 0x28B JUMPI PUSH2 0x28A PUSH2 0x125 JUMP JUMPDEST JUMPDEST PUSH1 0x0 DUP3 ADD CALLDATALOAD PUSH8 0xFFFFFFFFFFFFFFFF DUP2 GT ISZERO PUSH2 0x2A9 JUMPI PUSH2 0x2A8 PUSH2 0x12A JUMP JUMPDEST JUMPDEST PUSH2 0x2B5 DUP5 DUP3 DUP6 ADD PUSH2 0x247 JUMP JUMPDEST SWAP2 POP POP SWAP3 SWAP2 POP POP JUMP JUMPDEST PUSH1 0x0 DUP2 SWAP1 POP SWAP2 SWAP1 POP JUMP JUMPDEST PUSH2 0x2D1 DUP2 PUSH2 0x2BE JUMP JUMPDEST DUP3 MSTORE POP POP JUMP JUMPDEST PUSH1 0x0 PUSH1 0x20 DUP3 ADD SWAP1 POP PUSH2 0x2EC PUSH1 0x0 DUP4 ADD DUP5 PUSH2 0x2C8 JUMP JUMPDEST SWAP3 SWAP2 POP POP JUMP JUMPDEST PUSH2 0x2FB DUP2 PUSH2 0x2BE JUMP JUMPDEST DUP2 EQ PUSH2 0x306 JUMPI PUSH1 0x0 DUP1 REVERT JUMPDEST POP JUMP JUMPDEST PUSH1 0x0 DUP2 CALLDATALOAD SWAP1 POP PUSH2 0x318 DUP2 PUSH2 0x2F2 JUMP JUMPDEST SWAP3 SWAP2 POP POP JUMP JUMPDEST PUSH1 0x0 DUP1 PUSH1 0x40 DUP4 DUP6 SUB SLT ISZERO PUSH2 0x335 JUMPI PUSH2 0x334 PUSH2 0x125 JUMP JUMPDEST JUMPDEST PUSH1 0x0 DUP4 ADD CALLDATALOAD PUSH8 0xFFFFFFFFFFFFFFFF DUP2 GT ISZERO PUSH2 0x353 JUMPI PUSH2 0x352 PUSH2 0x12A JUMP JUMPDEST JUMPDEST PUSH2 0x35F DUP6 DUP3 DUP7 ADD PUSH2 0x247 JUMP JUMPDEST SWAP3 POP POP PUSH1 0x20 PUSH2 0x370 DUP6 DUP3 DUP7 ADD PUSH2 0x309 JUMP JUMPDEST SWAP2 POP POP SWAP3 POP SWAP3 SWAP1 POP JUMP JUMPDEST PUSH32 0x4E487B7100000000000000000000000000000000000000000000000000000000 PUSH1 0x0 MSTORE PUSH1 0x11 PUSH1 0x4 MSTORE PUSH1 0x24 PUSH1 0x0 REVERT JUMPDEST PUSH1 0x0 PUSH2 0x3B4 DUP3 PUSH2 0x2BE JUMP JUMPDEST SWAP2 POP PUSH32 0xFFFFFFFFFFFFFFFFFFFFFFFFFFFFFFFFFFFFFFFFFFFFFFFFFFFFFFFFFFFFFFFF DUP3 SUB PUSH2 0x3E6 JUMPI PUSH2 0x3E5 PUSH2 0x37A JUMP JUMPDEST JUMPDEST PUSH1 0x1 DUP3 ADD SWAP1 POP SWAP2 SWAP1 POP JUMP JUMPDEST PUSH1 0x0 DUP2 MLOAD SWAP1 POP SWAP2 SWAP1 POP JUMP JUMPDEST PUSH32 0x4E487B7100000000000000000000000000000000000000000000000000000000 PUSH1 0x0 MSTORE PUSH1 0x22 PUSH1 0x4 MSTORE PUSH1 0x24 PUSH1 0x0 REVERT JUMPDEST PUSH1 0x0 PUSH1 0x2 DUP3 DIV SWAP1 POP PUSH1 0x1 DUP3 AND DUP1 PUSH2 0x443 JUMPI PUSH1 0x7F DUP3 AND SWAP2 POP JUMPDEST PUSH1 0x20 DUP3 LT DUP2 SUB PUSH2 0x456 JUMPI PUSH2 0x455 PUSH2 0x3FC JUMP JUMPDEST JUMPDEST POP SWAP2 SWAP1 POP JUMP JUMPDEST PUSH1 0x0 DUP2 SWAP1 POP DUP2 PUSH1 0x0 MSTORE PUSH1 0x20 PUSH1 0x0 KECCAK256 SWAP1 POP SWAP2 SWAP1 POP JUMP JUMPDEST PUSH1 0x0 PUSH1 0x20 PUSH1 0x1F DUP4 ADD DIV SWAP1 POP SWAP2 SWAP1 POP JUMP JUMPDEST PUSH1 0x0 DUP3 DUP3 SHL SWAP1 POP SWAP3 SWAP2 POP POP JUMP JUMPDEST PUSH1 0x0 PUSH1 0x8 DUP4 MUL PUSH2 0x4BE PUSH32 0xFFFFFFFFFFFFFFFFFFFFFFFFFFFFFFFFFFFFFFFFFFFFFFFFFFFFFFFFFFFFFFFF DUP3 PUSH2 0x481 JUMP JUMPDEST PUSH2 0x4C8 DUP7 DUP4 PUSH2 0x481 JUMP JUMPDEST SWAP6 POP DUP1 NOT DUP5 AND SWAP4 POP DUP1 DUP7 AND DUP5 OR SWAP3 POP POP POP SWAP4 SWAP3 POP POP POP JUMP JUMPDEST PUSH1 0x0 DUP2 SWAP1 POP SWAP2 SWAP1 POP JUMP JUMPDEST PUSH1 0x0 PUSH2 0x505 PUSH2 0x500 PUSH2 0x4FB DUP5 PUSH2 0x2BE JUMP JUMPDEST PUSH2 0x4E0 JUMP JUMPDEST PUSH2 0x2BE JUMP JUMPDEST SWAP1 POP SWAP2 SWAP1 POP JUMP JUMPDEST PUSH1 0x0 DUP2 SWAP1 POP SWAP2 SWAP1 POP JUMP JUMPDEST PUSH2 0x51F DUP4 PUSH2 0x4EA JUMP JUMPDEST PUSH2 0x533 PUSH2 0x52B DUP3 PUSH2 0x50C JUMP JUMPDEST DUP5 DUP5 SLOAD PUSH2 0x48E JUMP JUMPDEST DUP3 SSTORE POP POP POP POP JUMP JUMPDEST PUSH1 0x0 SWAP1 JUMP JUMPDEST PUSH2 0x548 PUSH2 0x53B JUMP JUMPDEST PUSH2 0x553 DUP2 DUP5 DUP5 PUSH2 0x516 JUMP JUMPDEST POP POP POP JUMP JUMPDEST JUMPDEST DUP2 DUP2 LT ISZERO PUSH2 0x577 JUMPI PUSH2 0x56C PUSH1 0x0 DUP3 PUSH2 0x540 JUMP JUMPDEST PUSH1 0x1 DUP2 ADD SWAP1 POP PUSH2 0x559 JUMP JUMPDEST POP POP JUMP JUMPDEST PUSH1 0x1F DUP3 GT ISZERO PUSH2 0x5BC JUMPI PUSH2 0x58D DUP2 PUSH2 0x45C JUMP JUMPDEST PUSH2 0x596 DUP5 PUSH2 0x471 JUMP JUMPDEST DUP2 ADD PUSH1 0x20 DUP6 LT ISZERO PUSH2 0x5A5 JUMPI DUP2 SWAP1 POP JUMPDEST PUSH2 0x5B9 PUSH2 0x5B1 DUP6 PUSH2 0x471 JUMP JUMPDEST DUP4 ADD DUP3 PUSH2 0x558 JUMP JUMPDEST POP POP JUMPDEST POP POP POP JUMP JUMPDEST PUSH1 0x0 DUP3 DUP3 SHR SWAP1 POP SWAP3 SWAP2 POP POP JUMP JUMPDEST PUSH1 0x0 PUSH2 0x5DF PUSH1 0x0 NOT DUP5 PUSH1 0x8 MUL PUSH2 0x5C1 JUMP JUMPDEST NOT DUP1 DUP4 AND SWAP2 POP POP SWAP3 SWAP2 POP POP JUMP JUMPDEST PUSH1 0x0 PUSH2 0x5F8 DUP4 DUP4 PUSH2 0x5CE JUMP JUMPDEST SWAP2 POP DUP3 PUSH1 0x2 MUL DUP3 OR SWAP1 POP SWAP3 SWAP2 POP POP JUMP JUMPDEST PUSH2 0x611 DUP3 PUSH2 0x3F1 JUMP JUMPDEST PUSH8 0xFFFFFFFFFFFFFFFF DUP2 GT ISZERO PUSH2 0x62A JUMPI PUSH2 0x629 PUSH2 0x14A JUMP JUMPDEST JUMPDEST PUSH2 0x634 DUP3 SLOAD PUSH2 0x42B JUMP JUMPDEST PUSH2 0x63F DUP3 DUP3 DUP6 PUSH2 0x57B JUMP JUMPDEST PUSH1 0x0 PUSH1 0x20 SWAP1 POP PUSH1 0x1F DUP4 GT PUSH1 0x1 DUP2 EQ PUSH2 0x672 JUMPI PUSH1 0x0 DUP5 ISZERO PUSH2 0x660 JUMPI DUP3 DUP8 ADD MLOAD SWAP1 POP JUMPDEST PUSH2 0x66A DUP6 DUP3 PUSH2 0x5EC JUMP JUMPDEST DUP7 SSTORE POP PUSH2 0x6D2 JUMP JUMPDEST PUSH1 0x1F NOT DUP5 AND PUSH2 0x680 DUP7 PUSH2 0x45C JUMP JUMPDEST PUSH1 0x0 JUMPDEST DUP3 DUP2 LT ISZERO PUSH2 0x6A8 JUMPI DUP5 DUP10 ADD MLOAD DUP3 SSTORE PUSH1 0x1 DUP3 ADD SWAP2 POP PUSH1 0x20 DUP6 ADD SWAP5 POP PUSH1 0x20 DUP2 ADD SWAP1 POP PUSH2 0x683 JUMP JUMPDEST DUP7 DUP4 LT ISZERO PUSH2 0x6C5 JUMPI DUP5 DUP10 ADD MLOAD PUSH2 0x6C1 PUSH1 0x1F DUP10 AND DUP3 PUSH2 0x5CE JUMP JUMPDEST DUP4 SSTORE POP JUMPDEST PUSH1 0x1 PUSH1 0x2 DUP9 MUL ADD DUP9 SSTORE POP POP POP JUMPDEST POP POP POP POP POP POP JUMP INVALID LOG2 PUSH5 0x6970667358 0x22 SLT KECCAK256 0xD2 SELFBALANCE DIV MSTORE8 0x4D PUSH13 0xE81E0AB4633B1D5CF80E2F69C7 COINBASE CODESIZE 0xC6 0xCF 0xD4 PUSH31 0x3E525FCB30913964736F6C6343000811003300000000000000000000000000 "
				},
				"gasEstimates": {
					"creation": {
						"codeDepositCost": "361600",
						"executionCost": "399",
						"totalCost": "361999"
					},
					"external": {
						"search(string)": "infinite",
						"sell(string,uint256)": "infinite"
					}
				},
				"methodIdentifiers": {
					"search(string)": "820ed086",
					"sell(string,uint256)": "9f656321"
				}
			},
			"storageLayout": {
				"storage": [
					{
						"astId": 10,
						"contract": "chapter2/Ex2_10.sol:Ex2_10",
						"label": "openMarket",
						"offset": 0,
						"slot": "0",
						"type": "t_array(t_struct(Market)6_storage)dyn_storage"
					}
				],
				"types": {
					"t_array(t_struct(Market)6_storage)dyn_storage": {
						"base": "t_struct(Market)6_storage",
						"encoding": "dynamic_array",
						"label": "struct Ex2_10.Market[]",
						"numberOfBytes": "32"
					},
					"t_string_storage": {
						"encoding": "bytes",
						"label": "string",
						"numberOfBytes": "32"
					},
					"t_struct(Market)6_storage": {
						"encoding": "inplace",
						"label": "struct Ex2_10.Market",
						"members": [
							{
								"astId": 3,
								"contract": "chapter2/Ex2_10.sol:Ex2_10",
								"label": "itemName",
								"offset": 0,
								"slot": "0",
								"type": "t_string_storage"
							},
							{
								"astId": 5,
								"contract": "chapter2/Ex2_10.sol:Ex2_10",
								"label": "price",
								"offset": 0,
								"slot": "1",
								"type": "t_uint256"
							}
						],
						"numberOfBytes": "64"
					},
					"t_uint256": {
						"encoding": "inplace",
						"label": "uint256",
						"numberOfBytes": "32"
					}
				}
			},
			"userdoc": {
				"kind": "user",
				"methods": {},
				"version": 1
			}
		}
	}
}