{
	"chapter2/Random.sol": {
		"Random": {
			"abi": [
				{
					"inputs": [
						{
							"internalType": "string",
							"name": "_key1",
							"type": "string"
						},
						{
							"internalType": "uint256",
							"name": "_key2",
							"type": "uint256"
						}
					],
					"stateMutability": "nonpayable",
					"type": "constructor"
				},
				{
					"anonymous": false,
					"inputs": [
						{
							"indexed": true,
							"internalType": "address",
							"name": "sender",
							"type": "address"
						},
						{
							"indexed": false,
							"internalType": "uint256",
							"name": "payment",
							"type": "uint256"
						}
					],
					"name": "PaidAddress",
					"type": "event"
				},
				{
					"anonymous": false,
					"inputs": [
						{
							"indexed": true,
							"internalType": "address",
							"name": "winner",
							"type": "address"
						}
					],
					"name": "WinnerAddress",
					"type": "event"
				},
				{
					"inputs": [
						{
							"internalType": "string",
							"name": "_key1",
							"type": "string"
						},
						{
							"internalType": "uint256",
							"name": "_key2",
							"type": "uint256"
						}
					],
					"name": "getSecretKey",
					"outputs": [],
					"stateMutability": "nonpayable",
					"type": "function"
				},
				{
					"inputs": [],
					"name": "owner",
					"outputs": [
						{
							"internalType": "address",
							"name": "",
							"type": "address"
						}
					],
					"stateMutability": "view",
					"type": "function"
				},
				{
					"inputs": [
						{
							"internalType": "uint256",
							"name": "",
							"type": "uint256"
						},
						{
							"internalType": "address",
							"name": "",
							"type": "address"
						}
					],
					"name": "paidAddressList",
					"outputs": [
						{
							"internalType": "bool",
							"name": "",
							"type": "bool"
						}
					],
					"stateMutability": "view",
					"type": "function"
				},
				{
					"inputs": [],
					"name": "playNumber",
					"outputs": [
						{
							"internalType": "uint256",
							"name": "",
							"type": "uint256"
						}
					],
					"stateMutability": "view",
					"type": "function"
				},
				{
					"inputs": [],
					"name": "round",
					"outputs": [
						{
							"internalType": "uint256",
							"name": "",
							"type": "uint256"
						}
					],
					"stateMutability": "view",
					"type": "function"
				},
				{
					"inputs": [
						{
							"internalType": "string",
							"name": "_key1",
							"type": "string"
						},
						{
							"internalType": "uint256",
							"name": "_key2",
							"type": "uint256"
						}
					],
					"name": "setSecretKey",
					"outputs": [],
					"stateMutability": "nonpayable",
					"type": "function"
				},
				{
					"stateMutability": "payable",
					"type": "receive"
				}
			],
			"devdoc": {
				"kind": "dev",
				"methods": {},
				"version": 1
			},
			"evm": {
				"assembly": "    /* \"chapter2/Random.sol\":70:1756  contract Random {... */\n  mstore(0x40, 0x80)\n    /* \"chapter2/Random.sol\":452:453  0 */\n  0x00\n    /* \"chapter2/Random.sol\":424:453  uint private winnerNumber = 0 */\n  0x02\n  sstore\n    /* \"chapter2/Random.sol\":528:529  1 */\n  0x01\n    /* \"chapter2/Random.sol\":508:529  uint public round = 1 */\n  0x05\n  sstore\n    /* \"chapter2/Random.sol\":560:561  0 */\n  0x00\n    /* \"chapter2/Random.sol\":535:561  uint public playNumber = 0 */\n  0x06\n  sstore\n    /* \"chapter2/Random.sol\":568:731  constructor(string memory _key1, uint _key2) {... */\n  callvalue\n  dup1\n  iszero\n  tag_1\n  jumpi\n  0x00\n  dup1\n  revert\ntag_1:\n  pop\n  mload(0x40)\n  sub(codesize, bytecodeSize)\n  dup1\n  bytecodeSize\n  dup4\n  codecopy\n  dup2\n  dup2\n  add\n  0x40\n  mstore\n  dup2\n  add\n  swap1\n  tag_2\n  swap2\n  swap1\n  tag_3\n  jump\t// in\ntag_2:\n    /* \"chapter2/Random.sol\":631:641  msg.sender */\n  caller\n    /* \"chapter2/Random.sol\":623:628  owner */\n  0x01\n  0x00\n    /* \"chapter2/Random.sol\":623:641  owner = msg.sender */\n  0x0100\n  exp\n  dup2\n  sload\n  dup2\n  0xffffffffffffffffffffffffffffffffffffffff\n  mul\n  not\n  and\n  swap1\n  dup4\n  0xffffffffffffffffffffffffffffffffffffffff\n  and\n  mul\n  or\n  swap1\n  sstore\n  pop\n    /* \"chapter2/Random.sol\":658:663  _key1 */\n  dup2\n    /* \"chapter2/Random.sol\":651:655  key1 */\n  0x03\n    /* \"chapter2/Random.sol\":651:663  key1 = _key1 */\n  swap1\n  dup2\n  tag_6\n  swap2\n  swap1\n  tag_7\n  jump\t// in\ntag_6:\n  pop\n    /* \"chapter2/Random.sol\":680:685  _key2 */\n  dup1\n    /* \"chapter2/Random.sol\":673:677  key2 */\n  0x04\n    /* \"chapter2/Random.sol\":673:685  key2 = _key2 */\n  dup2\n  swap1\n  sstore\n  pop\n    /* \"chapter2/Random.sol\":710:724  randomNumber() */\n  tag_8\n    /* \"chapter2/Random.sol\":710:722  randomNumber */\n  shl(0x20, tag_9)\n    /* \"chapter2/Random.sol\":710:724  randomNumber() */\n  0x20\n  shr\n  jump\t// in\ntag_8:\n    /* \"chapter2/Random.sol\":695:707  winnerNumber */\n  0x02\n    /* \"chapter2/Random.sol\":695:724  winnerNumber = randomNumber() */\n  dup2\n  swap1\n  sstore\n  pop\n    /* \"chapter2/Random.sol\":568:731  constructor(string memory _key1, uint _key2) {... */\n  pop\n  pop\n    /* \"chapter2/Random.sol\":70:1756  contract Random {... */\n  jump(tag_10)\n    /* \"chapter2/Random.sol\":1289:1492  function randomNumber() private view returns(uint) {... */\ntag_9:\n    /* \"chapter2/Random.sol\":1334:1338  uint */\n  0x00\n    /* \"chapter2/Random.sol\":1350:1358  uint num */\n  dup1\n    /* \"chapter2/Random.sol\":1425:1437  block.number */\n  number\n    /* \"chapter2/Random.sol\":1405:1420  block.timestamp */\n  timestamp\n    /* \"chapter2/Random.sol\":1397:1401  key2 */\n  sload(0x04)\n    /* \"chapter2/Random.sol\":1387:1391  key1 */\n  0x03\n    /* \"chapter2/Random.sol\":1376:1392  abi.encode(key1) */\n  add(0x20, mload(0x40))\n  tag_12\n  swap2\n  swap1\n  tag_13\n  jump\t// in\ntag_12:\n  mload(0x40)\n  0x20\n  dup2\n  dup4\n  sub\n  sub\n  dup2\n  mstore\n  swap1\n  0x40\n  mstore\n    /* \"chapter2/Random.sol\":1366:1393  keccak256(abi.encode(key1)) */\n  dup1\n  mload\n  swap1\n  0x20\n  add\n  keccak256\n    /* \"chapter2/Random.sol\":1361:1394  uint(keccak256(abi.encode(key1))) */\n  0x00\n  shr\n    /* \"chapter2/Random.sol\":1361:1401  uint(keccak256(abi.encode(key1))) + key2 */\n  tag_14\n  swap2\n  swap1\n  tag_15\n  jump\t// in\ntag_14:\n    /* \"chapter2/Random.sol\":1361:1421  uint(keccak256(abi.encode(key1))) + key2 + (block.timestamp) */\n  tag_16\n  swap2\n  swap1\n  tag_15\n  jump\t// in\ntag_16:\n    /* \"chapter2/Random.sol\":1361:1438  uint(keccak256(abi.encode(key1))) + key2 + (block.timestamp) + (block.number) */\n  tag_17\n  swap2\n  swap1\n  tag_15\n  jump\t// in\ntag_17:\n    /* \"chapter2/Random.sol\":1350:1438  uint num = uint(keccak256(abi.encode(key1))) + key2 + (block.timestamp) + (block.number) */\n  swap1\n  pop\n    /* \"chapter2/Random.sol\":1484:1485  1 */\n  0x01\n    /* \"chapter2/Random.sol\":1477:1479  10 */\n  0x0a\n    /* \"chapter2/Random.sol\":1471:1473  10 */\n  dup1\n    /* \"chapter2/Random.sol\":1465:1468  num */\n  dup4\n    /* \"chapter2/Random.sol\":1465:1473  num / 10 */\n  tag_18\n  swap2\n  swap1\n  tag_19\n  jump\t// in\ntag_18:\n    /* \"chapter2/Random.sol\":1464:1479  (num / 10) * 10 */\n  tag_20\n  swap2\n  swap1\n  tag_21\n  jump\t// in\ntag_20:\n    /* \"chapter2/Random.sol\":1457:1460  num */\n  dup3\n    /* \"chapter2/Random.sol\":1457:1480  num - ((num / 10) * 10) */\n  tag_22\n  swap2\n  swap1\n  tag_23\n  jump\t// in\ntag_22:\n    /* \"chapter2/Random.sol\":1456:1485  (num - ((num / 10) * 10)) + 1 */\n  tag_24\n  swap2\n  swap1\n  tag_15\n  jump\t// in\ntag_24:\n    /* \"chapter2/Random.sol\":1449:1485  return (num - ((num / 10) * 10)) + 1 */\n  swap2\n  pop\n  pop\n    /* \"chapter2/Random.sol\":1289:1492  function randomNumber() private view returns(uint) {... */\n  swap1\n  jump\t// out\n    /* \"#utility.yul\":7:82   */\ntag_25:\n    /* \"#utility.yul\":40:46   */\n  0x00\n    /* \"#utility.yul\":73:75   */\n  0x40\n    /* \"#utility.yul\":67:76   */\n  mload\n    /* \"#utility.yul\":57:76   */\n  swap1\n  pop\n    /* \"#utility.yul\":7:82   */\n  swap1\n  jump\t// out\n    /* \"#utility.yul\":88:205   */\ntag_26:\n    /* \"#utility.yul\":197:198   */\n  0x00\n    /* \"#utility.yul\":194:195   */\n  dup1\n    /* \"#utility.yul\":187:199   */\n  revert\n    /* \"#utility.yul\":211:328   */\ntag_27:\n    /* \"#utility.yul\":320:321   */\n  0x00\n    /* \"#utility.yul\":317:318   */\n  dup1\n    /* \"#utility.yul\":310:322   */\n  revert\n    /* \"#utility.yul\":334:451   */\ntag_28:\n    /* \"#utility.yul\":443:444   */\n  0x00\n    /* \"#utility.yul\":440:441   */\n  dup1\n    /* \"#utility.yul\":433:445   */\n  revert\n    /* \"#utility.yul\":457:574   */\ntag_29:\n    /* \"#utility.yul\":566:567   */\n  0x00\n    /* \"#utility.yul\":563:564   */\n  dup1\n    /* \"#utility.yul\":556:568   */\n  revert\n    /* \"#utility.yul\":580:682   */\ntag_30:\n    /* \"#utility.yul\":621:627   */\n  0x00\n    /* \"#utility.yul\":672:674   */\n  0x1f\n    /* \"#utility.yul\":668:675   */\n  not\n    /* \"#utility.yul\":663:665   */\n  0x1f\n    /* \"#utility.yul\":656:661   */\n  dup4\n    /* \"#utility.yul\":652:666   */\n  add\n    /* \"#utility.yul\":648:676   */\n  and\n    /* \"#utility.yul\":638:676   */\n  swap1\n  pop\n    /* \"#utility.yul\":580:682   */\n  swap2\n  swap1\n  pop\n  jump\t// out\n    /* \"#utility.yul\":688:868   */\ntag_31:\n    /* \"#utility.yul\":736:813   */\n  0x4e487b7100000000000000000000000000000000000000000000000000000000\n    /* \"#utility.yul\":733:734   */\n  0x00\n    /* \"#utility.yul\":726:814   */\n  mstore\n    /* \"#utility.yul\":833:837   */\n  0x41\n    /* \"#utility.yul\":830:831   */\n  0x04\n    /* \"#utility.yul\":823:838   */\n  mstore\n    /* \"#utility.yul\":857:861   */\n  0x24\n    /* \"#utility.yul\":854:855   */\n  0x00\n    /* \"#utility.yul\":847:862   */\n  revert\n    /* \"#utility.yul\":874:1155   */\ntag_32:\n    /* \"#utility.yul\":957:984   */\n  tag_72\n    /* \"#utility.yul\":979:983   */\n  dup3\n    /* \"#utility.yul\":957:984   */\n  tag_30\n  jump\t// in\ntag_72:\n    /* \"#utility.yul\":949:955   */\n  dup2\n    /* \"#utility.yul\":945:985   */\n  add\n    /* \"#utility.yul\":1087:1093   */\n  dup2\n    /* \"#utility.yul\":1075:1085   */\n  dup2\n    /* \"#utility.yul\":1072:1094   */\n  lt\n    /* \"#utility.yul\":1051:1069   */\n  0xffffffffffffffff\n    /* \"#utility.yul\":1039:1049   */\n  dup3\n    /* \"#utility.yul\":1036:1070   */\n  gt\n    /* \"#utility.yul\":1033:1095   */\n  or\n    /* \"#utility.yul\":1030:1118   */\n  iszero\n  tag_73\n  jumpi\n    /* \"#utility.yul\":1098:1116   */\n  tag_74\n  tag_31\n  jump\t// in\ntag_74:\n    /* \"#utility.yul\":1030:1118   */\ntag_73:\n    /* \"#utility.yul\":1138:1148   */\n  dup1\n    /* \"#utility.yul\":1134:1136   */\n  0x40\n    /* \"#utility.yul\":1127:1149   */\n  mstore\n    /* \"#utility.yul\":917:1155   */\n  pop\n    /* \"#utility.yul\":874:1155   */\n  pop\n  pop\n  jump\t// out\n    /* \"#utility.yul\":1161:1290   */\ntag_33:\n    /* \"#utility.yul\":1195:1201   */\n  0x00\n    /* \"#utility.yul\":1222:1242   */\n  tag_76\n  tag_25\n  jump\t// in\ntag_76:\n    /* \"#utility.yul\":1212:1242   */\n  swap1\n  pop\n    /* \"#utility.yul\":1251:1284   */\n  tag_77\n    /* \"#utility.yul\":1279:1283   */\n  dup3\n    /* \"#utility.yul\":1271:1277   */\n  dup3\n    /* \"#utility.yul\":1251:1284   */\n  tag_32\n  jump\t// in\ntag_77:\n    /* \"#utility.yul\":1161:1290   */\n  swap2\n  swap1\n  pop\n  jump\t// out\n    /* \"#utility.yul\":1296:1604   */\ntag_34:\n    /* \"#utility.yul\":1358:1362   */\n  0x00\n    /* \"#utility.yul\":1448:1466   */\n  0xffffffffffffffff\n    /* \"#utility.yul\":1440:1446   */\n  dup3\n    /* \"#utility.yul\":1437:1467   */\n  gt\n    /* \"#utility.yul\":1434:1490   */\n  iszero\n  tag_79\n  jumpi\n    /* \"#utility.yul\":1470:1488   */\n  tag_80\n  tag_31\n  jump\t// in\ntag_80:\n    /* \"#utility.yul\":1434:1490   */\ntag_79:\n    /* \"#utility.yul\":1508:1537   */\n  tag_81\n    /* \"#utility.yul\":1530:1536   */\n  dup3\n    /* \"#utility.yul\":1508:1537   */\n  tag_30\n  jump\t// in\ntag_81:\n    /* \"#utility.yul\":1500:1537   */\n  swap1\n  pop\n    /* \"#utility.yul\":1592:1596   */\n  0x20\n    /* \"#utility.yul\":1586:1590   */\n  dup2\n    /* \"#utility.yul\":1582:1597   */\n  add\n    /* \"#utility.yul\":1574:1597   */\n  swap1\n  pop\n    /* \"#utility.yul\":1296:1604   */\n  swap2\n  swap1\n  pop\n  jump\t// out\n    /* \"#utility.yul\":1610:1856   */\ntag_35:\n    /* \"#utility.yul\":1691:1692   */\n  0x00\n    /* \"#utility.yul\":1701:1814   */\ntag_83:\n    /* \"#utility.yul\":1715:1721   */\n  dup4\n    /* \"#utility.yul\":1712:1713   */\n  dup2\n    /* \"#utility.yul\":1709:1722   */\n  lt\n    /* \"#utility.yul\":1701:1814   */\n  iszero\n  tag_85\n  jumpi\n    /* \"#utility.yul\":1800:1801   */\n  dup1\n    /* \"#utility.yul\":1795:1798   */\n  dup3\n    /* \"#utility.yul\":1791:1802   */\n  add\n    /* \"#utility.yul\":1785:1803   */\n  mload\n    /* \"#utility.yul\":1781:1782   */\n  dup2\n    /* \"#utility.yul\":1776:1779   */\n  dup5\n    /* \"#utility.yul\":1772:1783   */\n  add\n    /* \"#utility.yul\":1765:1804   */\n  mstore\n    /* \"#utility.yul\":1737:1739   */\n  0x20\n    /* \"#utility.yul\":1734:1735   */\n  dup2\n    /* \"#utility.yul\":1730:1740   */\n  add\n    /* \"#utility.yul\":1725:1740   */\n  swap1\n  pop\n    /* \"#utility.yul\":1701:1814   */\n  jump(tag_83)\ntag_85:\n    /* \"#utility.yul\":1848:1849   */\n  0x00\n    /* \"#utility.yul\":1839:1845   */\n  dup5\n    /* \"#utility.yul\":1834:1837   */\n  dup5\n    /* \"#utility.yul\":1830:1846   */\n  add\n    /* \"#utility.yul\":1823:1850   */\n  mstore\n    /* \"#utility.yul\":1672:1856   */\n  pop\n    /* \"#utility.yul\":1610:1856   */\n  pop\n  pop\n  pop\n  jump\t// out\n    /* \"#utility.yul\":1862:2296   */\ntag_36:\n    /* \"#utility.yul\":1951:1956   */\n  0x00\n    /* \"#utility.yul\":1976:2042   */\n  tag_87\n    /* \"#utility.yul\":1992:2041   */\n  tag_88\n    /* \"#utility.yul\":2034:2040   */\n  dup5\n    /* \"#utility.yul\":1992:2041   */\n  tag_34\n  jump\t// in\ntag_88:\n    /* \"#utility.yul\":1976:2042   */\n  tag_33\n  jump\t// in\ntag_87:\n    /* \"#utility.yul\":1967:2042   */\n  swap1\n  pop\n    /* \"#utility.yul\":2065:2071   */\n  dup3\n    /* \"#utility.yul\":2058:2063   */\n  dup2\n    /* \"#utility.yul\":2051:2072   */\n  mstore\n    /* \"#utility.yul\":2103:2107   */\n  0x20\n    /* \"#utility.yul\":2096:2101   */\n  dup2\n    /* \"#utility.yul\":2092:2108   */\n  add\n    /* \"#utility.yul\":2141:2144   */\n  dup5\n    /* \"#utility.yul\":2132:2138   */\n  dup5\n    /* \"#utility.yul\":2127:2130   */\n  dup5\n    /* \"#utility.yul\":2123:2139   */\n  add\n    /* \"#utility.yul\":2120:2145   */\n  gt\n    /* \"#utility.yul\":2117:2229   */\n  iszero\n  tag_89\n  jumpi\n    /* \"#utility.yul\":2148:2227   */\n  tag_90\n  tag_29\n  jump\t// in\ntag_90:\n    /* \"#utility.yul\":2117:2229   */\ntag_89:\n    /* \"#utility.yul\":2238:2290   */\n  tag_91\n    /* \"#utility.yul\":2283:2289   */\n  dup5\n    /* \"#utility.yul\":2278:2281   */\n  dup3\n    /* \"#utility.yul\":2273:2276   */\n  dup6\n    /* \"#utility.yul\":2238:2290   */\n  tag_35\n  jump\t// in\ntag_91:\n    /* \"#utility.yul\":1957:2296   */\n  pop\n    /* \"#utility.yul\":1862:2296   */\n  swap4\n  swap3\n  pop\n  pop\n  pop\n  jump\t// out\n    /* \"#utility.yul\":2316:2671   */\ntag_37:\n    /* \"#utility.yul\":2383:2388   */\n  0x00\n    /* \"#utility.yul\":2432:2435   */\n  dup3\n    /* \"#utility.yul\":2425:2429   */\n  0x1f\n    /* \"#utility.yul\":2417:2423   */\n  dup4\n    /* \"#utility.yul\":2413:2430   */\n  add\n    /* \"#utility.yul\":2409:2436   */\n  slt\n    /* \"#utility.yul\":2399:2521   */\n  tag_93\n  jumpi\n    /* \"#utility.yul\":2440:2519   */\n  tag_94\n  tag_28\n  jump\t// in\ntag_94:\n    /* \"#utility.yul\":2399:2521   */\ntag_93:\n    /* \"#utility.yul\":2550:2556   */\n  dup2\n    /* \"#utility.yul\":2544:2557   */\n  mload\n    /* \"#utility.yul\":2575:2665   */\n  tag_95\n    /* \"#utility.yul\":2661:2664   */\n  dup5\n    /* \"#utility.yul\":2653:2659   */\n  dup3\n    /* \"#utility.yul\":2646:2650   */\n  0x20\n    /* \"#utility.yul\":2638:2644   */\n  dup7\n    /* \"#utility.yul\":2634:2651   */\n  add\n    /* \"#utility.yul\":2575:2665   */\n  tag_36\n  jump\t// in\ntag_95:\n    /* \"#utility.yul\":2566:2665   */\n  swap2\n  pop\n    /* \"#utility.yul\":2389:2671   */\n  pop\n    /* \"#utility.yul\":2316:2671   */\n  swap3\n  swap2\n  pop\n  pop\n  jump\t// out\n    /* \"#utility.yul\":2677:2754   */\ntag_38:\n    /* \"#utility.yul\":2714:2721   */\n  0x00\n    /* \"#utility.yul\":2743:2748   */\n  dup2\n    /* \"#utility.yul\":2732:2748   */\n  swap1\n  pop\n    /* \"#utility.yul\":2677:2754   */\n  swap2\n  swap1\n  pop\n  jump\t// out\n    /* \"#utility.yul\":2760:2882   */\ntag_39:\n    /* \"#utility.yul\":2833:2857   */\n  tag_98\n    /* \"#utility.yul\":2851:2856   */\n  dup2\n    /* \"#utility.yul\":2833:2857   */\n  tag_38\n  jump\t// in\ntag_98:\n    /* \"#utility.yul\":2826:2831   */\n  dup2\n    /* \"#utility.yul\":2823:2858   */\n  eq\n    /* \"#utility.yul\":2813:2876   */\n  tag_99\n  jumpi\n    /* \"#utility.yul\":2872:2873   */\n  0x00\n    /* \"#utility.yul\":2869:2870   */\n  dup1\n    /* \"#utility.yul\":2862:2874   */\n  revert\n    /* \"#utility.yul\":2813:2876   */\ntag_99:\n    /* \"#utility.yul\":2760:2882   */\n  pop\n  jump\t// out\n    /* \"#utility.yul\":2888:3031   */\ntag_40:\n    /* \"#utility.yul\":2945:2950   */\n  0x00\n    /* \"#utility.yul\":2976:2982   */\n  dup2\n    /* \"#utility.yul\":2970:2983   */\n  mload\n    /* \"#utility.yul\":2961:2983   */\n  swap1\n  pop\n    /* \"#utility.yul\":2992:3025   */\n  tag_101\n    /* \"#utility.yul\":3019:3024   */\n  dup2\n    /* \"#utility.yul\":2992:3025   */\n  tag_39\n  jump\t// in\ntag_101:\n    /* \"#utility.yul\":2888:3031   */\n  swap3\n  swap2\n  pop\n  pop\n  jump\t// out\n    /* \"#utility.yul\":3037:3717   */\ntag_3:\n    /* \"#utility.yul\":3126:3132   */\n  0x00\n    /* \"#utility.yul\":3134:3140   */\n  dup1\n    /* \"#utility.yul\":3183:3185   */\n  0x40\n    /* \"#utility.yul\":3171:3180   */\n  dup4\n    /* \"#utility.yul\":3162:3169   */\n  dup6\n    /* \"#utility.yul\":3158:3181   */\n  sub\n    /* \"#utility.yul\":3154:3186   */\n  slt\n    /* \"#utility.yul\":3151:3270   */\n  iszero\n  tag_103\n  jumpi\n    /* \"#utility.yul\":3189:3268   */\n  tag_104\n  tag_26\n  jump\t// in\ntag_104:\n    /* \"#utility.yul\":3151:3270   */\ntag_103:\n    /* \"#utility.yul\":3330:3331   */\n  0x00\n    /* \"#utility.yul\":3319:3328   */\n  dup4\n    /* \"#utility.yul\":3315:3332   */\n  add\n    /* \"#utility.yul\":3309:3333   */\n  mload\n    /* \"#utility.yul\":3360:3378   */\n  0xffffffffffffffff\n    /* \"#utility.yul\":3352:3358   */\n  dup2\n    /* \"#utility.yul\":3349:3379   */\n  gt\n    /* \"#utility.yul\":3346:3463   */\n  iszero\n  tag_105\n  jumpi\n    /* \"#utility.yul\":3382:3461   */\n  tag_106\n  tag_27\n  jump\t// in\ntag_106:\n    /* \"#utility.yul\":3346:3463   */\ntag_105:\n    /* \"#utility.yul\":3487:3561   */\n  tag_107\n    /* \"#utility.yul\":3553:3560   */\n  dup6\n    /* \"#utility.yul\":3544:3550   */\n  dup3\n    /* \"#utility.yul\":3533:3542   */\n  dup7\n    /* \"#utility.yul\":3529:3551   */\n  add\n    /* \"#utility.yul\":3487:3561   */\n  tag_37\n  jump\t// in\ntag_107:\n    /* \"#utility.yul\":3477:3561   */\n  swap3\n  pop\n    /* \"#utility.yul\":3280:3571   */\n  pop\n    /* \"#utility.yul\":3610:3612   */\n  0x20\n    /* \"#utility.yul\":3636:3700   */\n  tag_108\n    /* \"#utility.yul\":3692:3699   */\n  dup6\n    /* \"#utility.yul\":3683:3689   */\n  dup3\n    /* \"#utility.yul\":3672:3681   */\n  dup7\n    /* \"#utility.yul\":3668:3690   */\n  add\n    /* \"#utility.yul\":3636:3700   */\n  tag_40\n  jump\t// in\ntag_108:\n    /* \"#utility.yul\":3626:3700   */\n  swap2\n  pop\n    /* \"#utility.yul\":3581:3710   */\n  pop\n    /* \"#utility.yul\":3037:3717   */\n  swap3\n  pop\n  swap3\n  swap1\n  pop\n  jump\t// out\n    /* \"#utility.yul\":3723:3822   */\ntag_41:\n    /* \"#utility.yul\":3775:3781   */\n  0x00\n    /* \"#utility.yul\":3809:3814   */\n  dup2\n    /* \"#utility.yul\":3803:3815   */\n  mload\n    /* \"#utility.yul\":3793:3815   */\n  swap1\n  pop\n    /* \"#utility.yul\":3723:3822   */\n  swap2\n  swap1\n  pop\n  jump\t// out\n    /* \"#utility.yul\":3828:4008   */\ntag_42:\n    /* \"#utility.yul\":3876:3953   */\n  0x4e487b7100000000000000000000000000000000000000000000000000000000\n    /* \"#utility.yul\":3873:3874   */\n  0x00\n    /* \"#utility.yul\":3866:3954   */\n  mstore\n    /* \"#utility.yul\":3973:3977   */\n  0x22\n    /* \"#utility.yul\":3970:3971   */\n  0x04\n    /* \"#utility.yul\":3963:3978   */\n  mstore\n    /* \"#utility.yul\":3997:4001   */\n  0x24\n    /* \"#utility.yul\":3994:3995   */\n  0x00\n    /* \"#utility.yul\":3987:4002   */\n  revert\n    /* \"#utility.yul\":4014:4334   */\ntag_43:\n    /* \"#utility.yul\":4058:4064   */\n  0x00\n    /* \"#utility.yul\":4095:4096   */\n  0x02\n    /* \"#utility.yul\":4089:4093   */\n  dup3\n    /* \"#utility.yul\":4085:4097   */\n  div\n    /* \"#utility.yul\":4075:4097   */\n  swap1\n  pop\n    /* \"#utility.yul\":4142:4143   */\n  0x01\n    /* \"#utility.yul\":4136:4140   */\n  dup3\n    /* \"#utility.yul\":4132:4144   */\n  and\n    /* \"#utility.yul\":4163:4181   */\n  dup1\n    /* \"#utility.yul\":4153:4234   */\n  tag_112\n  jumpi\n    /* \"#utility.yul\":4219:4223   */\n  0x7f\n    /* \"#utility.yul\":4211:4217   */\n  dup3\n    /* \"#utility.yul\":4207:4224   */\n  and\n    /* \"#utility.yul\":4197:4224   */\n  swap2\n  pop\n    /* \"#utility.yul\":4153:4234   */\ntag_112:\n    /* \"#utility.yul\":4281:4283   */\n  0x20\n    /* \"#utility.yul\":4273:4279   */\n  dup3\n    /* \"#utility.yul\":4270:4284   */\n  lt\n    /* \"#utility.yul\":4250:4268   */\n  dup2\n    /* \"#utility.yul\":4247:4285   */\n  sub\n    /* \"#utility.yul\":4244:4328   */\n  tag_113\n  jumpi\n    /* \"#utility.yul\":4300:4318   */\n  tag_114\n  tag_42\n  jump\t// in\ntag_114:\n    /* \"#utility.yul\":4244:4328   */\ntag_113:\n    /* \"#utility.yul\":4065:4334   */\n  pop\n    /* \"#utility.yul\":4014:4334   */\n  swap2\n  swap1\n  pop\n  jump\t// out\n    /* \"#utility.yul\":4340:4481   */\ntag_44:\n    /* \"#utility.yul\":4389:4393   */\n  0x00\n    /* \"#utility.yul\":4412:4415   */\n  dup2\n    /* \"#utility.yul\":4404:4415   */\n  swap1\n  pop\n    /* \"#utility.yul\":4435:4438   */\n  dup2\n    /* \"#utility.yul\":4432:4433   */\n  0x00\n    /* \"#utility.yul\":4425:4439   */\n  mstore\n    /* \"#utility.yul\":4469:4473   */\n  0x20\n    /* \"#utility.yul\":4466:4467   */\n  0x00\n    /* \"#utility.yul\":4456:4474   */\n  keccak256\n    /* \"#utility.yul\":4448:4474   */\n  swap1\n  pop\n    /* \"#utility.yul\":4340:4481   */\n  swap2\n  swap1\n  pop\n  jump\t// out\n    /* \"#utility.yul\":4487:4580   */\ntag_45:\n    /* \"#utility.yul\":4524:4530   */\n  0x00\n    /* \"#utility.yul\":4571:4573   */\n  0x20\n    /* \"#utility.yul\":4566:4568   */\n  0x1f\n    /* \"#utility.yul\":4559:4564   */\n  dup4\n    /* \"#utility.yul\":4555:4569   */\n  add\n    /* \"#utility.yul\":4551:4574   */\n  div\n    /* \"#utility.yul\":4541:4574   */\n  swap1\n  pop\n    /* \"#utility.yul\":4487:4580   */\n  swap2\n  swap1\n  pop\n  jump\t// out\n    /* \"#utility.yul\":4586:4693   */\ntag_46:\n    /* \"#utility.yul\":4630:4638   */\n  0x00\n    /* \"#utility.yul\":4680:4685   */\n  dup3\n    /* \"#utility.yul\":4674:4678   */\n  dup3\n    /* \"#utility.yul\":4670:4686   */\n  shl\n    /* \"#utility.yul\":4649:4686   */\n  swap1\n  pop\n    /* \"#utility.yul\":4586:4693   */\n  swap3\n  swap2\n  pop\n  pop\n  jump\t// out\n    /* \"#utility.yul\":4699:5092   */\ntag_47:\n    /* \"#utility.yul\":4768:4774   */\n  0x00\n    /* \"#utility.yul\":4818:4819   */\n  0x08\n    /* \"#utility.yul\":4806:4816   */\n  dup4\n    /* \"#utility.yul\":4802:4820   */\n  mul\n    /* \"#utility.yul\":4841:4938   */\n  tag_119\n    /* \"#utility.yul\":4871:4937   */\n  0xffffffffffffffffffffffffffffffffffffffffffffffffffffffffffffffff\n    /* \"#utility.yul\":4860:4869   */\n  dup3\n    /* \"#utility.yul\":4841:4938   */\n  tag_46\n  jump\t// in\ntag_119:\n    /* \"#utility.yul\":4959:4998   */\n  tag_120\n    /* \"#utility.yul\":4989:4997   */\n  dup7\n    /* \"#utility.yul\":4978:4987   */\n  dup4\n    /* \"#utility.yul\":4959:4998   */\n  tag_46\n  jump\t// in\ntag_120:\n    /* \"#utility.yul\":4947:4998   */\n  swap6\n  pop\n    /* \"#utility.yul\":5031:5035   */\n  dup1\n    /* \"#utility.yul\":5027:5036   */\n  not\n    /* \"#utility.yul\":5020:5025   */\n  dup5\n    /* \"#utility.yul\":5016:5037   */\n  and\n    /* \"#utility.yul\":5007:5037   */\n  swap4\n  pop\n    /* \"#utility.yul\":5080:5084   */\n  dup1\n    /* \"#utility.yul\":5070:5078   */\n  dup7\n    /* \"#utility.yul\":5066:5085   */\n  and\n    /* \"#utility.yul\":5059:5064   */\n  dup5\n    /* \"#utility.yul\":5056:5086   */\n  or\n    /* \"#utility.yul\":5046:5086   */\n  swap3\n  pop\n    /* \"#utility.yul\":4775:5092   */\n  pop\n  pop\n    /* \"#utility.yul\":4699:5092   */\n  swap4\n  swap3\n  pop\n  pop\n  pop\n  jump\t// out\n    /* \"#utility.yul\":5098:5158   */\ntag_48:\n    /* \"#utility.yul\":5126:5129   */\n  0x00\n    /* \"#utility.yul\":5147:5152   */\n  dup2\n    /* \"#utility.yul\":5140:5152   */\n  swap1\n  pop\n    /* \"#utility.yul\":5098:5158   */\n  swap2\n  swap1\n  pop\n  jump\t// out\n    /* \"#utility.yul\":5164:5306   */\ntag_49:\n    /* \"#utility.yul\":5214:5223   */\n  0x00\n    /* \"#utility.yul\":5247:5300   */\n  tag_123\n    /* \"#utility.yul\":5265:5299   */\n  tag_124\n    /* \"#utility.yul\":5274:5298   */\n  tag_125\n    /* \"#utility.yul\":5292:5297   */\n  dup5\n    /* \"#utility.yul\":5274:5298   */\n  tag_38\n  jump\t// in\ntag_125:\n    /* \"#utility.yul\":5265:5299   */\n  tag_48\n  jump\t// in\ntag_124:\n    /* \"#utility.yul\":5247:5300   */\n  tag_38\n  jump\t// in\ntag_123:\n    /* \"#utility.yul\":5234:5300   */\n  swap1\n  pop\n    /* \"#utility.yul\":5164:5306   */\n  swap2\n  swap1\n  pop\n  jump\t// out\n    /* \"#utility.yul\":5312:5387   */\ntag_50:\n    /* \"#utility.yul\":5355:5358   */\n  0x00\n    /* \"#utility.yul\":5376:5381   */\n  dup2\n    /* \"#utility.yul\":5369:5381   */\n  swap1\n  pop\n    /* \"#utility.yul\":5312:5387   */\n  swap2\n  swap1\n  pop\n  jump\t// out\n    /* \"#utility.yul\":5393:5662   */\ntag_51:\n    /* \"#utility.yul\":5503:5542   */\n  tag_128\n    /* \"#utility.yul\":5534:5541   */\n  dup4\n    /* \"#utility.yul\":5503:5542   */\n  tag_49\n  jump\t// in\ntag_128:\n    /* \"#utility.yul\":5564:5655   */\n  tag_129\n    /* \"#utility.yul\":5613:5654   */\n  tag_130\n    /* \"#utility.yul\":5637:5653   */\n  dup3\n    /* \"#utility.yul\":5613:5654   */\n  tag_50\n  jump\t// in\ntag_130:\n    /* \"#utility.yul\":5605:5611   */\n  dup5\n    /* \"#utility.yul\":5598:5602   */\n  dup5\n    /* \"#utility.yul\":5592:5603   */\n  sload\n    /* \"#utility.yul\":5564:5655   */\n  tag_47\n  jump\t// in\ntag_129:\n    /* \"#utility.yul\":5558:5562   */\n  dup3\n    /* \"#utility.yul\":5551:5656   */\n  sstore\n    /* \"#utility.yul\":5469:5662   */\n  pop\n    /* \"#utility.yul\":5393:5662   */\n  pop\n  pop\n  pop\n  jump\t// out\n    /* \"#utility.yul\":5668:5741   */\ntag_52:\n    /* \"#utility.yul\":5713:5716   */\n  0x00\n    /* \"#utility.yul\":5668:5741   */\n  swap1\n  jump\t// out\n    /* \"#utility.yul\":5747:5936   */\ntag_53:\n    /* \"#utility.yul\":5824:5856   */\n  tag_133\n  tag_52\n  jump\t// in\ntag_133:\n    /* \"#utility.yul\":5865:5930   */\n  tag_134\n    /* \"#utility.yul\":5923:5929   */\n  dup2\n    /* \"#utility.yul\":5915:5921   */\n  dup5\n    /* \"#utility.yul\":5909:5913   */\n  dup5\n    /* \"#utility.yul\":5865:5930   */\n  tag_51\n  jump\t// in\ntag_134:\n    /* \"#utility.yul\":5800:5936   */\n  pop\n    /* \"#utility.yul\":5747:5936   */\n  pop\n  pop\n  jump\t// out\n    /* \"#utility.yul\":5942:6128   */\ntag_54:\n    /* \"#utility.yul\":6002:6122   */\ntag_136:\n    /* \"#utility.yul\":6019:6022   */\n  dup2\n    /* \"#utility.yul\":6012:6017   */\n  dup2\n    /* \"#utility.yul\":6009:6023   */\n  lt\n    /* \"#utility.yul\":6002:6122   */\n  iszero\n  tag_138\n  jumpi\n    /* \"#utility.yul\":6073:6112   */\n  tag_139\n    /* \"#utility.yul\":6110:6111   */\n  0x00\n    /* \"#utility.yul\":6103:6108   */\n  dup3\n    /* \"#utility.yul\":6073:6112   */\n  tag_53\n  jump\t// in\ntag_139:\n    /* \"#utility.yul\":6046:6047   */\n  0x01\n    /* \"#utility.yul\":6039:6044   */\n  dup2\n    /* \"#utility.yul\":6035:6048   */\n  add\n    /* \"#utility.yul\":6026:6048   */\n  swap1\n  pop\n    /* \"#utility.yul\":6002:6122   */\n  jump(tag_136)\ntag_138:\n    /* \"#utility.yul\":5942:6128   */\n  pop\n  pop\n  jump\t// out\n    /* \"#utility.yul\":6134:6677   */\ntag_55:\n    /* \"#utility.yul\":6235:6237   */\n  0x1f\n    /* \"#utility.yul\":6230:6233   */\n  dup3\n    /* \"#utility.yul\":6227:6238   */\n  gt\n    /* \"#utility.yul\":6224:6670   */\n  iszero\n  tag_141\n  jumpi\n    /* \"#utility.yul\":6269:6307   */\n  tag_142\n    /* \"#utility.yul\":6301:6306   */\n  dup2\n    /* \"#utility.yul\":6269:6307   */\n  tag_44\n  jump\t// in\ntag_142:\n    /* \"#utility.yul\":6353:6382   */\n  tag_143\n    /* \"#utility.yul\":6371:6381   */\n  dup5\n    /* \"#utility.yul\":6353:6382   */\n  tag_45\n  jump\t// in\ntag_143:\n    /* \"#utility.yul\":6343:6351   */\n  dup2\n    /* \"#utility.yul\":6339:6383   */\n  add\n    /* \"#utility.yul\":6536:6538   */\n  0x20\n    /* \"#utility.yul\":6524:6534   */\n  dup6\n    /* \"#utility.yul\":6521:6539   */\n  lt\n    /* \"#utility.yul\":6518:6567   */\n  iszero\n  tag_144\n  jumpi\n    /* \"#utility.yul\":6557:6565   */\n  dup2\n    /* \"#utility.yul\":6542:6565   */\n  swap1\n  pop\n    /* \"#utility.yul\":6518:6567   */\ntag_144:\n    /* \"#utility.yul\":6580:6660   */\n  tag_145\n    /* \"#utility.yul\":6636:6658   */\n  tag_146\n    /* \"#utility.yul\":6654:6657   */\n  dup6\n    /* \"#utility.yul\":6636:6658   */\n  tag_45\n  jump\t// in\ntag_146:\n    /* \"#utility.yul\":6626:6634   */\n  dup4\n    /* \"#utility.yul\":6622:6659   */\n  add\n    /* \"#utility.yul\":6609:6620   */\n  dup3\n    /* \"#utility.yul\":6580:6660   */\n  tag_54\n  jump\t// in\ntag_145:\n    /* \"#utility.yul\":6239:6670   */\n  pop\n  pop\n    /* \"#utility.yul\":6224:6670   */\ntag_141:\n    /* \"#utility.yul\":6134:6677   */\n  pop\n  pop\n  pop\n  jump\t// out\n    /* \"#utility.yul\":6683:6800   */\ntag_56:\n    /* \"#utility.yul\":6737:6745   */\n  0x00\n    /* \"#utility.yul\":6787:6792   */\n  dup3\n    /* \"#utility.yul\":6781:6785   */\n  dup3\n    /* \"#utility.yul\":6777:6793   */\n  shr\n    /* \"#utility.yul\":6756:6793   */\n  swap1\n  pop\n    /* \"#utility.yul\":6683:6800   */\n  swap3\n  swap2\n  pop\n  pop\n  jump\t// out\n    /* \"#utility.yul\":6806:6975   */\ntag_57:\n    /* \"#utility.yul\":6850:6856   */\n  0x00\n    /* \"#utility.yul\":6883:6934   */\n  tag_149\n    /* \"#utility.yul\":6931:6932   */\n  0x00\n    /* \"#utility.yul\":6927:6933   */\n  not\n    /* \"#utility.yul\":6919:6924   */\n  dup5\n    /* \"#utility.yul\":6916:6917   */\n  0x08\n    /* \"#utility.yul\":6912:6925   */\n  mul\n    /* \"#utility.yul\":6883:6934   */\n  tag_56\n  jump\t// in\ntag_149:\n    /* \"#utility.yul\":6879:6935   */\n  not\n    /* \"#utility.yul\":6964:6968   */\n  dup1\n    /* \"#utility.yul\":6958:6962   */\n  dup4\n    /* \"#utility.yul\":6954:6969   */\n  and\n    /* \"#utility.yul\":6944:6969   */\n  swap2\n  pop\n    /* \"#utility.yul\":6857:6975   */\n  pop\n    /* \"#utility.yul\":6806:6975   */\n  swap3\n  swap2\n  pop\n  pop\n  jump\t// out\n    /* \"#utility.yul\":6980:7275   */\ntag_58:\n    /* \"#utility.yul\":7056:7060   */\n  0x00\n    /* \"#utility.yul\":7202:7231   */\n  tag_151\n    /* \"#utility.yul\":7227:7230   */\n  dup4\n    /* \"#utility.yul\":7221:7225   */\n  dup4\n    /* \"#utility.yul\":7202:7231   */\n  tag_57\n  jump\t// in\ntag_151:\n    /* \"#utility.yul\":7194:7231   */\n  swap2\n  pop\n    /* \"#utility.yul\":7264:7267   */\n  dup3\n    /* \"#utility.yul\":7261:7262   */\n  0x02\n    /* \"#utility.yul\":7257:7268   */\n  mul\n    /* \"#utility.yul\":7251:7255   */\n  dup3\n    /* \"#utility.yul\":7248:7269   */\n  or\n    /* \"#utility.yul\":7240:7269   */\n  swap1\n  pop\n    /* \"#utility.yul\":6980:7275   */\n  swap3\n  swap2\n  pop\n  pop\n  jump\t// out\n    /* \"#utility.yul\":7280:8675   */\ntag_7:\n    /* \"#utility.yul\":7397:7434   */\n  tag_153\n    /* \"#utility.yul\":7430:7433   */\n  dup3\n    /* \"#utility.yul\":7397:7434   */\n  tag_41\n  jump\t// in\ntag_153:\n    /* \"#utility.yul\":7499:7517   */\n  0xffffffffffffffff\n    /* \"#utility.yul\":7491:7497   */\n  dup2\n    /* \"#utility.yul\":7488:7518   */\n  gt\n    /* \"#utility.yul\":7485:7541   */\n  iszero\n  tag_154\n  jumpi\n    /* \"#utility.yul\":7521:7539   */\n  tag_155\n  tag_31\n  jump\t// in\ntag_155:\n    /* \"#utility.yul\":7485:7541   */\ntag_154:\n    /* \"#utility.yul\":7565:7603   */\n  tag_156\n    /* \"#utility.yul\":7597:7601   */\n  dup3\n    /* \"#utility.yul\":7591:7602   */\n  sload\n    /* \"#utility.yul\":7565:7603   */\n  tag_43\n  jump\t// in\ntag_156:\n    /* \"#utility.yul\":7650:7717   */\n  tag_157\n    /* \"#utility.yul\":7710:7716   */\n  dup3\n    /* \"#utility.yul\":7702:7708   */\n  dup3\n    /* \"#utility.yul\":7696:7700   */\n  dup6\n    /* \"#utility.yul\":7650:7717   */\n  tag_55\n  jump\t// in\ntag_157:\n    /* \"#utility.yul\":7744:7745   */\n  0x00\n    /* \"#utility.yul\":7768:7772   */\n  0x20\n    /* \"#utility.yul\":7755:7772   */\n  swap1\n  pop\n    /* \"#utility.yul\":7800:7802   */\n  0x1f\n    /* \"#utility.yul\":7792:7798   */\n  dup4\n    /* \"#utility.yul\":7789:7803   */\n  gt\n    /* \"#utility.yul\":7817:7818   */\n  0x01\n    /* \"#utility.yul\":7812:8430   */\n  dup2\n  eq\n  tag_159\n  jumpi\n    /* \"#utility.yul\":8474:8475   */\n  0x00\n    /* \"#utility.yul\":8491:8497   */\n  dup5\n    /* \"#utility.yul\":8488:8565   */\n  iszero\n  tag_160\n  jumpi\n    /* \"#utility.yul\":8540:8549   */\n  dup3\n    /* \"#utility.yul\":8535:8538   */\n  dup8\n    /* \"#utility.yul\":8531:8550   */\n  add\n    /* \"#utility.yul\":8525:8551   */\n  mload\n    /* \"#utility.yul\":8516:8551   */\n  swap1\n  pop\n    /* \"#utility.yul\":8488:8565   */\ntag_160:\n    /* \"#utility.yul\":8591:8658   */\n  tag_161\n    /* \"#utility.yul\":8651:8657   */\n  dup6\n    /* \"#utility.yul\":8644:8649   */\n  dup3\n    /* \"#utility.yul\":8591:8658   */\n  tag_58\n  jump\t// in\ntag_161:\n    /* \"#utility.yul\":8585:8589   */\n  dup7\n    /* \"#utility.yul\":8578:8659   */\n  sstore\n    /* \"#utility.yul\":8447:8669   */\n  pop\n    /* \"#utility.yul\":7782:8669   */\n  jump(tag_158)\n    /* \"#utility.yul\":7812:8430   */\ntag_159:\n    /* \"#utility.yul\":7864:7868   */\n  0x1f\n    /* \"#utility.yul\":7860:7869   */\n  not\n    /* \"#utility.yul\":7852:7858   */\n  dup5\n    /* \"#utility.yul\":7848:7870   */\n  and\n    /* \"#utility.yul\":7898:7935   */\n  tag_162\n    /* \"#utility.yul\":7930:7934   */\n  dup7\n    /* \"#utility.yul\":7898:7935   */\n  tag_44\n  jump\t// in\ntag_162:\n    /* \"#utility.yul\":7957:7958   */\n  0x00\n    /* \"#utility.yul\":7971:8179   */\ntag_163:\n    /* \"#utility.yul\":7985:7992   */\n  dup3\n    /* \"#utility.yul\":7982:7983   */\n  dup2\n    /* \"#utility.yul\":7979:7993   */\n  lt\n    /* \"#utility.yul\":7971:8179   */\n  iszero\n  tag_165\n  jumpi\n    /* \"#utility.yul\":8064:8073   */\n  dup5\n    /* \"#utility.yul\":8059:8062   */\n  dup10\n    /* \"#utility.yul\":8055:8074   */\n  add\n    /* \"#utility.yul\":8049:8075   */\n  mload\n    /* \"#utility.yul\":8041:8047   */\n  dup3\n    /* \"#utility.yul\":8034:8076   */\n  sstore\n    /* \"#utility.yul\":8115:8116   */\n  0x01\n    /* \"#utility.yul\":8107:8113   */\n  dup3\n    /* \"#utility.yul\":8103:8117   */\n  add\n    /* \"#utility.yul\":8093:8117   */\n  swap2\n  pop\n    /* \"#utility.yul\":8162:8164   */\n  0x20\n    /* \"#utility.yul\":8151:8160   */\n  dup6\n    /* \"#utility.yul\":8147:8165   */\n  add\n    /* \"#utility.yul\":8134:8165   */\n  swap5\n  pop\n    /* \"#utility.yul\":8008:8012   */\n  0x20\n    /* \"#utility.yul\":8005:8006   */\n  dup2\n    /* \"#utility.yul\":8001:8013   */\n  add\n    /* \"#utility.yul\":7996:8013   */\n  swap1\n  pop\n    /* \"#utility.yul\":7971:8179   */\n  jump(tag_163)\ntag_165:\n    /* \"#utility.yul\":8207:8213   */\n  dup7\n    /* \"#utility.yul\":8198:8205   */\n  dup4\n    /* \"#utility.yul\":8195:8214   */\n  lt\n    /* \"#utility.yul\":8192:8371   */\n  iszero\n  tag_166\n  jumpi\n    /* \"#utility.yul\":8265:8274   */\n  dup5\n    /* \"#utility.yul\":8260:8263   */\n  dup10\n    /* \"#utility.yul\":8256:8275   */\n  add\n    /* \"#utility.yul\":8250:8276   */\n  mload\n    /* \"#utility.yul\":8308:8356   */\n  tag_167\n    /* \"#utility.yul\":8350:8354   */\n  0x1f\n    /* \"#utility.yul\":8342:8348   */\n  dup10\n    /* \"#utility.yul\":8338:8355   */\n  and\n    /* \"#utility.yul\":8327:8336   */\n  dup3\n    /* \"#utility.yul\":8308:8356   */\n  tag_57\n  jump\t// in\ntag_167:\n    /* \"#utility.yul\":8300:8306   */\n  dup4\n    /* \"#utility.yul\":8293:8357   */\n  sstore\n    /* \"#utility.yul\":8215:8371   */\n  pop\n    /* \"#utility.yul\":8192:8371   */\ntag_166:\n    /* \"#utility.yul\":8417:8418   */\n  0x01\n    /* \"#utility.yul\":8413:8414   */\n  0x02\n    /* \"#utility.yul\":8405:8411   */\n  dup9\n    /* \"#utility.yul\":8401:8415   */\n  mul\n    /* \"#utility.yul\":8397:8419   */\n  add\n    /* \"#utility.yul\":8391:8395   */\n  dup9\n    /* \"#utility.yul\":8384:8420   */\n  sstore\n    /* \"#utility.yul\":7819:8430   */\n  pop\n  pop\n  pop\n    /* \"#utility.yul\":7782:8669   */\ntag_158:\n  pop\n    /* \"#utility.yul\":7372:8675   */\n  pop\n  pop\n  pop\n    /* \"#utility.yul\":7280:8675   */\n  pop\n  pop\n  jump\t// out\n    /* \"#utility.yul\":8681:8850   */\ntag_59:\n    /* \"#utility.yul\":8765:8776   */\n  0x00\n    /* \"#utility.yul\":8799:8805   */\n  dup3\n    /* \"#utility.yul\":8794:8797   */\n  dup3\n    /* \"#utility.yul\":8787:8806   */\n  mstore\n    /* \"#utility.yul\":8839:8843   */\n  0x20\n    /* \"#utility.yul\":8834:8837   */\n  dup3\n    /* \"#utility.yul\":8830:8844   */\n  add\n    /* \"#utility.yul\":8815:8844   */\n  swap1\n  pop\n    /* \"#utility.yul\":8681:8850   */\n  swap3\n  swap2\n  pop\n  pop\n  jump\t// out\n    /* \"#utility.yul\":8880:9711   */\ntag_60:\n    /* \"#utility.yul\":8965:8968   */\n  0x00\n    /* \"#utility.yul\":9002:9007   */\n  dup2\n    /* \"#utility.yul\":8996:9008   */\n  sload\n    /* \"#utility.yul\":9031:9067   */\n  tag_170\n    /* \"#utility.yul\":9057:9066   */\n  dup2\n    /* \"#utility.yul\":9031:9067   */\n  tag_43\n  jump\t// in\ntag_170:\n    /* \"#utility.yul\":9083:9154   */\n  tag_171\n    /* \"#utility.yul\":9147:9153   */\n  dup2\n    /* \"#utility.yul\":9142:9145   */\n  dup7\n    /* \"#utility.yul\":9083:9154   */\n  tag_59\n  jump\t// in\ntag_171:\n    /* \"#utility.yul\":9076:9154   */\n  swap5\n  pop\n    /* \"#utility.yul\":9185:9186   */\n  0x01\n    /* \"#utility.yul\":9174:9183   */\n  dup3\n    /* \"#utility.yul\":9170:9187   */\n  and\n    /* \"#utility.yul\":9201:9202   */\n  0x00\n    /* \"#utility.yul\":9196:9360   */\n  dup2\n  eq\n  tag_173\n  jumpi\n    /* \"#utility.yul\":9374:9375   */\n  0x01\n    /* \"#utility.yul\":9369:9705   */\n  dup2\n  eq\n  tag_174\n  jumpi\n    /* \"#utility.yul\":9163:9705   */\n  jump(tag_172)\n    /* \"#utility.yul\":9196:9360   */\ntag_173:\n    /* \"#utility.yul\":9280:9284   */\n  0xff\n    /* \"#utility.yul\":9276:9285   */\n  not\n    /* \"#utility.yul\":9265:9274   */\n  dup4\n    /* \"#utility.yul\":9261:9286   */\n  and\n    /* \"#utility.yul\":9256:9259   */\n  dup7\n    /* \"#utility.yul\":9249:9287   */\n  mstore\n    /* \"#utility.yul\":9340:9346   */\n  dup2\n    /* \"#utility.yul\":9333:9347   */\n  iszero\n    /* \"#utility.yul\":9326:9348   */\n  iszero\n    /* \"#utility.yul\":9320:9324   */\n  0x20\n    /* \"#utility.yul\":9316:9349   */\n  mul\n    /* \"#utility.yul\":9311:9314   */\n  dup7\n    /* \"#utility.yul\":9307:9350   */\n  add\n    /* \"#utility.yul\":9300:9350   */\n  swap4\n  pop\n    /* \"#utility.yul\":9196:9360   */\n  jump(tag_172)\n    /* \"#utility.yul\":9369:9705   */\ntag_174:\n    /* \"#utility.yul\":9436:9474   */\n  tag_175\n    /* \"#utility.yul\":9468:9473   */\n  dup6\n    /* \"#utility.yul\":9436:9474   */\n  tag_44\n  jump\t// in\ntag_175:\n    /* \"#utility.yul\":9496:9497   */\n  0x00\n    /* \"#utility.yul\":9510:9664   */\ntag_176:\n    /* \"#utility.yul\":9524:9530   */\n  dup4\n    /* \"#utility.yul\":9521:9522   */\n  dup2\n    /* \"#utility.yul\":9518:9531   */\n  lt\n    /* \"#utility.yul\":9510:9664   */\n  iszero\n  tag_178\n  jumpi\n    /* \"#utility.yul\":9598:9605   */\n  dup2\n    /* \"#utility.yul\":9592:9606   */\n  sload\n    /* \"#utility.yul\":9588:9589   */\n  dup2\n    /* \"#utility.yul\":9583:9586   */\n  dup10\n    /* \"#utility.yul\":9579:9590   */\n  add\n    /* \"#utility.yul\":9572:9607   */\n  mstore\n    /* \"#utility.yul\":9648:9649   */\n  0x01\n    /* \"#utility.yul\":9639:9646   */\n  dup3\n    /* \"#utility.yul\":9635:9650   */\n  add\n    /* \"#utility.yul\":9624:9650   */\n  swap2\n  pop\n    /* \"#utility.yul\":9546:9550   */\n  0x20\n    /* \"#utility.yul\":9543:9544   */\n  dup2\n    /* \"#utility.yul\":9539:9551   */\n  add\n    /* \"#utility.yul\":9534:9551   */\n  swap1\n  pop\n    /* \"#utility.yul\":9510:9664   */\n  jump(tag_176)\ntag_178:\n    /* \"#utility.yul\":9693:9694   */\n  dup1\n    /* \"#utility.yul\":9688:9691   */\n  dup9\n    /* \"#utility.yul\":9684:9695   */\n  add\n    /* \"#utility.yul\":9677:9695   */\n  swap6\n  pop\n    /* \"#utility.yul\":9376:9705   */\n  pop\n  pop\n    /* \"#utility.yul\":9163:9705   */\ntag_172:\n  pop\n    /* \"#utility.yul\":8969:9711   */\n  pop\n  pop\n    /* \"#utility.yul\":8880:9711   */\n  swap3\n  swap2\n  pop\n  pop\n  jump\t// out\n    /* \"#utility.yul\":9717:10024   */\ntag_13:\n    /* \"#utility.yul\":9827:9831   */\n  0x00\n    /* \"#utility.yul\":9865:9867   */\n  0x20\n    /* \"#utility.yul\":9854:9863   */\n  dup3\n    /* \"#utility.yul\":9850:9868   */\n  add\n    /* \"#utility.yul\":9842:9868   */\n  swap1\n  pop\n    /* \"#utility.yul\":9914:9923   */\n  dup2\n    /* \"#utility.yul\":9908:9912   */\n  dup2\n    /* \"#utility.yul\":9904:9924   */\n  sub\n    /* \"#utility.yul\":9900:9901   */\n  0x00\n    /* \"#utility.yul\":9889:9898   */\n  dup4\n    /* \"#utility.yul\":9885:9902   */\n  add\n    /* \"#utility.yul\":9878:9925   */\n  mstore\n    /* \"#utility.yul\":9942:10017   */\n  tag_180\n    /* \"#utility.yul\":10012:10016   */\n  dup2\n    /* \"#utility.yul\":10003:10009   */\n  dup5\n    /* \"#utility.yul\":9942:10017   */\n  tag_60\n  jump\t// in\ntag_180:\n    /* \"#utility.yul\":9934:10017   */\n  swap1\n  pop\n    /* \"#utility.yul\":9717:10024   */\n  swap3\n  swap2\n  pop\n  pop\n  jump\t// out\n    /* \"#utility.yul\":10030:10210   */\ntag_61:\n    /* \"#utility.yul\":10078:10155   */\n  0x4e487b7100000000000000000000000000000000000000000000000000000000\n    /* \"#utility.yul\":10075:10076   */\n  0x00\n    /* \"#utility.yul\":10068:10156   */\n  mstore\n    /* \"#utility.yul\":10175:10179   */\n  0x11\n    /* \"#utility.yul\":10172:10173   */\n  0x04\n    /* \"#utility.yul\":10165:10180   */\n  mstore\n    /* \"#utility.yul\":10199:10203   */\n  0x24\n    /* \"#utility.yul\":10196:10197   */\n  0x00\n    /* \"#utility.yul\":10189:10204   */\n  revert\n    /* \"#utility.yul\":10216:10407   */\ntag_15:\n    /* \"#utility.yul\":10256:10259   */\n  0x00\n    /* \"#utility.yul\":10275:10295   */\n  tag_183\n    /* \"#utility.yul\":10293:10294   */\n  dup3\n    /* \"#utility.yul\":10275:10295   */\n  tag_38\n  jump\t// in\ntag_183:\n    /* \"#utility.yul\":10270:10295   */\n  swap2\n  pop\n    /* \"#utility.yul\":10309:10329   */\n  tag_184\n    /* \"#utility.yul\":10327:10328   */\n  dup4\n    /* \"#utility.yul\":10309:10329   */\n  tag_38\n  jump\t// in\ntag_184:\n    /* \"#utility.yul\":10304:10329   */\n  swap3\n  pop\n    /* \"#utility.yul\":10352:10353   */\n  dup3\n    /* \"#utility.yul\":10349:10350   */\n  dup3\n    /* \"#utility.yul\":10345:10354   */\n  add\n    /* \"#utility.yul\":10338:10354   */\n  swap1\n  pop\n    /* \"#utility.yul\":10373:10376   */\n  dup1\n    /* \"#utility.yul\":10370:10371   */\n  dup3\n    /* \"#utility.yul\":10367:10377   */\n  gt\n    /* \"#utility.yul\":10364:10400   */\n  iszero\n  tag_185\n  jumpi\n    /* \"#utility.yul\":10380:10398   */\n  tag_186\n  tag_61\n  jump\t// in\ntag_186:\n    /* \"#utility.yul\":10364:10400   */\ntag_185:\n    /* \"#utility.yul\":10216:10407   */\n  swap3\n  swap2\n  pop\n  pop\n  jump\t// out\n    /* \"#utility.yul\":10413:10593   */\ntag_62:\n    /* \"#utility.yul\":10461:10538   */\n  0x4e487b7100000000000000000000000000000000000000000000000000000000\n    /* \"#utility.yul\":10458:10459   */\n  0x00\n    /* \"#utility.yul\":10451:10539   */\n  mstore\n    /* \"#utility.yul\":10558:10562   */\n  0x12\n    /* \"#utility.yul\":10555:10556   */\n  0x04\n    /* \"#utility.yul\":10548:10563   */\n  mstore\n    /* \"#utility.yul\":10582:10586   */\n  0x24\n    /* \"#utility.yul\":10579:10580   */\n  0x00\n    /* \"#utility.yul\":10572:10587   */\n  revert\n    /* \"#utility.yul\":10599:10784   */\ntag_19:\n    /* \"#utility.yul\":10639:10640   */\n  0x00\n    /* \"#utility.yul\":10656:10676   */\n  tag_189\n    /* \"#utility.yul\":10674:10675   */\n  dup3\n    /* \"#utility.yul\":10656:10676   */\n  tag_38\n  jump\t// in\ntag_189:\n    /* \"#utility.yul\":10651:10676   */\n  swap2\n  pop\n    /* \"#utility.yul\":10690:10710   */\n  tag_190\n    /* \"#utility.yul\":10708:10709   */\n  dup4\n    /* \"#utility.yul\":10690:10710   */\n  tag_38\n  jump\t// in\ntag_190:\n    /* \"#utility.yul\":10685:10710   */\n  swap3\n  pop\n    /* \"#utility.yul\":10729:10730   */\n  dup3\n    /* \"#utility.yul\":10719:10754   */\n  tag_191\n  jumpi\n    /* \"#utility.yul\":10734:10752   */\n  tag_192\n  tag_62\n  jump\t// in\ntag_192:\n    /* \"#utility.yul\":10719:10754   */\ntag_191:\n    /* \"#utility.yul\":10776:10777   */\n  dup3\n    /* \"#utility.yul\":10773:10774   */\n  dup3\n    /* \"#utility.yul\":10769:10778   */\n  div\n    /* \"#utility.yul\":10764:10778   */\n  swap1\n  pop\n    /* \"#utility.yul\":10599:10784   */\n  swap3\n  swap2\n  pop\n  pop\n  jump\t// out\n    /* \"#utility.yul\":10790:11200   */\ntag_21:\n    /* \"#utility.yul\":10830:10837   */\n  0x00\n    /* \"#utility.yul\":10853:10873   */\n  tag_194\n    /* \"#utility.yul\":10871:10872   */\n  dup3\n    /* \"#utility.yul\":10853:10873   */\n  tag_38\n  jump\t// in\ntag_194:\n    /* \"#utility.yul\":10848:10873   */\n  swap2\n  pop\n    /* \"#utility.yul\":10887:10907   */\n  tag_195\n    /* \"#utility.yul\":10905:10906   */\n  dup4\n    /* \"#utility.yul\":10887:10907   */\n  tag_38\n  jump\t// in\ntag_195:\n    /* \"#utility.yul\":10882:10907   */\n  swap3\n  pop\n    /* \"#utility.yul\":10942:10943   */\n  dup3\n    /* \"#utility.yul\":10939:10940   */\n  dup3\n    /* \"#utility.yul\":10935:10944   */\n  mul\n    /* \"#utility.yul\":10964:10994   */\n  tag_196\n    /* \"#utility.yul\":10982:10993   */\n  dup2\n    /* \"#utility.yul\":10964:10994   */\n  tag_38\n  jump\t// in\ntag_196:\n    /* \"#utility.yul\":10953:10994   */\n  swap2\n  pop\n    /* \"#utility.yul\":11143:11144   */\n  dup3\n    /* \"#utility.yul\":11134:11141   */\n  dup3\n    /* \"#utility.yul\":11130:11145   */\n  div\n    /* \"#utility.yul\":11127:11128   */\n  dup5\n    /* \"#utility.yul\":11124:11146   */\n  eq\n    /* \"#utility.yul\":11104:11105   */\n  dup4\n    /* \"#utility.yul\":11097:11106   */\n  iszero\n    /* \"#utility.yul\":11077:11160   */\n  or\n    /* \"#utility.yul\":11054:11193   */\n  tag_197\n  jumpi\n    /* \"#utility.yul\":11173:11191   */\n  tag_198\n  tag_61\n  jump\t// in\ntag_198:\n    /* \"#utility.yul\":11054:11193   */\ntag_197:\n    /* \"#utility.yul\":10838:11200   */\n  pop\n    /* \"#utility.yul\":10790:11200   */\n  swap3\n  swap2\n  pop\n  pop\n  jump\t// out\n    /* \"#utility.yul\":11206:11400   */\ntag_23:\n    /* \"#utility.yul\":11246:11250   */\n  0x00\n    /* \"#utility.yul\":11266:11286   */\n  tag_200\n    /* \"#utility.yul\":11284:11285   */\n  dup3\n    /* \"#utility.yul\":11266:11286   */\n  tag_38\n  jump\t// in\ntag_200:\n    /* \"#utility.yul\":11261:11286   */\n  swap2\n  pop\n    /* \"#utility.yul\":11300:11320   */\n  tag_201\n    /* \"#utility.yul\":11318:11319   */\n  dup4\n    /* \"#utility.yul\":11300:11320   */\n  tag_38\n  jump\t// in\ntag_201:\n    /* \"#utility.yul\":11295:11320   */\n  swap3\n  pop\n    /* \"#utility.yul\":11344:11345   */\n  dup3\n    /* \"#utility.yul\":11341:11342   */\n  dup3\n    /* \"#utility.yul\":11337:11346   */\n  sub\n    /* \"#utility.yul\":11329:11346   */\n  swap1\n  pop\n    /* \"#utility.yul\":11368:11369   */\n  dup2\n    /* \"#utility.yul\":11362:11366   */\n  dup2\n    /* \"#utility.yul\":11359:11370   */\n  gt\n    /* \"#utility.yul\":11356:11393   */\n  iszero\n  tag_202\n  jumpi\n    /* \"#utility.yul\":11373:11391   */\n  tag_203\n  tag_61\n  jump\t// in\ntag_203:\n    /* \"#utility.yul\":11356:11393   */\ntag_202:\n    /* \"#utility.yul\":11206:11400   */\n  swap3\n  swap2\n  pop\n  pop\n  jump\t// out\n    /* \"chapter2/Random.sol\":70:1756  contract Random {... */\ntag_10:\n  dataSize(sub_0)\n  dup1\n  dataOffset(sub_0)\n  0x00\n  codecopy\n  0x00\n  return\nstop\n\nsub_0: assembly {\n        /* \"chapter2/Random.sol\":70:1756  contract Random {... */\n      mstore(0x40, 0x80)\n      jumpi(tag_1, lt(calldatasize, 0x04))\n      shr(0xe0, calldataload(0x00))\n      dup1\n      0x0df516d8\n      eq\n      tag_3\n      jumpi\n      dup1\n      0x146ca531\n      eq\n      tag_4\n      jumpi\n      dup1\n      0x19e2eb86\n      eq\n      tag_5\n      jumpi\n      dup1\n      0x5ef5cc89\n      eq\n      tag_6\n      jumpi\n      dup1\n      0x8da5cb5b\n      eq\n      tag_7\n      jumpi\n      dup1\n      0xcf66b989\n      eq\n      tag_8\n      jumpi\n      jump(tag_2)\n    tag_1:\n      jumpi(tag_2, calldatasize)\n        /* \"chapter2/Random.sol\":795:801  10**15 */\n      0x038d7ea4c68000\n        /* \"chapter2/Random.sol\":782:791  msg.value */\n      callvalue\n        /* \"chapter2/Random.sol\":782:801  msg.value == 10**15 */\n      eq\n        /* \"chapter2/Random.sol\":774:824  require(msg.value == 10**15, \"Mustbe 0.001 ether\") */\n      tag_11\n      jumpi\n      mload(0x40)\n      0x08c379a000000000000000000000000000000000000000000000000000000000\n      dup2\n      mstore\n      0x04\n      add\n      tag_12\n      swap1\n      tag_13\n      jump\t// in\n    tag_12:\n      mload(0x40)\n      dup1\n      swap2\n      sub\n      swap1\n      revert\n    tag_11:\n        /* \"chapter2/Random.sol\":871:875  true */\n      0x01\n        /* \"chapter2/Random.sol\":834:849  paidAddressList */\n      0x00\n        /* \"chapter2/Random.sol\":834:856  paidAddressList[round] */\n      dup1\n        /* \"chapter2/Random.sol\":850:855  round */\n      sload(0x05)\n        /* \"chapter2/Random.sol\":834:856  paidAddressList[round] */\n      dup2\n      mstore\n      0x20\n      add\n      swap1\n      dup2\n      mstore\n      0x20\n      add\n      0x00\n      keccak256\n        /* \"chapter2/Random.sol\":834:868  paidAddressList[round][msg.sender] */\n      0x00\n        /* \"chapter2/Random.sol\":857:867  msg.sender */\n      caller\n        /* \"chapter2/Random.sol\":834:868  paidAddressList[round][msg.sender] */\n      0xffffffffffffffffffffffffffffffffffffffff\n      and\n      0xffffffffffffffffffffffffffffffffffffffff\n      and\n      dup2\n      mstore\n      0x20\n      add\n      swap1\n      dup2\n      mstore\n      0x20\n      add\n      0x00\n      keccak256\n      0x00\n        /* \"chapter2/Random.sol\":834:875  paidAddressList[round][msg.sender] = true */\n      0x0100\n      exp\n      dup2\n      sload\n      dup2\n      0xff\n      mul\n      not\n      and\n      swap1\n      dup4\n      iszero\n      iszero\n      mul\n      or\n      swap1\n      sstore\n      pop\n        /* \"chapter2/Random.sol\":887:897  playNumber */\n      0x06\n      0x00\n        /* \"chapter2/Random.sol\":885:897  ++playNumber */\n      dup2\n      sload\n      tag_14\n      swap1\n      tag_15\n      jump\t// in\n    tag_14:\n      swap2\n      swap1\n      pop\n      dup2\n      swap1\n      sstore\n      pop\n        /* \"chapter2/Random.sol\":925:937  winnerNumber */\n      sload(0x02)\n        /* \"chapter2/Random.sol\":911:921  playNumber */\n      sload(0x06)\n        /* \"chapter2/Random.sol\":911:937  playNumber == winnerNumber */\n      sub\n        /* \"chapter2/Random.sol\":908:1276  if(playNumber == winnerNumber) {... */\n      tag_16\n      jumpi\n        /* \"chapter2/Random.sol\":954:966  bool success */\n      0x00\n        /* \"chapter2/Random.sol\":971:981  msg.sender */\n      caller\n        /* \"chapter2/Random.sol\":971:986  msg.sender.call */\n      0xffffffffffffffffffffffffffffffffffffffff\n      and\n        /* \"chapter2/Random.sol\":993:1014  address(this).balance */\n      selfbalance\n        /* \"chapter2/Random.sol\":971:1019  msg.sender.call{value:address(this).balance}(\"\") */\n      mload(0x40)\n      tag_17\n      swap1\n      tag_18\n      jump\t// in\n    tag_17:\n      0x00\n      mload(0x40)\n      dup1\n      dup4\n      sub\n      dup2\n      dup6\n      dup8\n      gas\n      call\n      swap3\n      pop\n      pop\n      pop\n      returndatasize\n      dup1\n      0x00\n      dup2\n      eq\n      tag_21\n      jumpi\n      mload(0x40)\n      swap2\n      pop\n      and(add(returndatasize, 0x3f), not(0x1f))\n      dup3\n      add\n      0x40\n      mstore\n      returndatasize\n      dup3\n      mstore\n      returndatasize\n      0x00\n      0x20\n      dup5\n      add\n      returndatacopy\n      jump(tag_20)\n    tag_21:\n      0x60\n      swap2\n      pop\n    tag_20:\n      pop\n        /* \"chapter2/Random.sol\":953:1019  (bool success,) = msg.sender.call{value:address(this).balance}(\"\") */\n      pop\n      swap1\n      pop\n        /* \"chapter2/Random.sol\":1041:1048  success */\n      dup1\n        /* \"chapter2/Random.sol\":1033:1059  require(success, \"Failed\") */\n      tag_22\n      jumpi\n      mload(0x40)\n      0x08c379a000000000000000000000000000000000000000000000000000000000\n      dup2\n      mstore\n      0x04\n      add\n      tag_23\n      swap1\n      tag_24\n      jump\t// in\n    tag_23:\n      mload(0x40)\n      dup1\n      swap2\n      sub\n      swap1\n      revert\n    tag_22:\n        /* \"chapter2/Random.sol\":1086:1087  0 */\n      0x00\n        /* \"chapter2/Random.sol\":1073:1083  playNumber */\n      0x06\n        /* \"chapter2/Random.sol\":1073:1087  playNumber = 0 */\n      dup2\n      swap1\n      sstore\n      pop\n        /* \"chapter2/Random.sol\":1103:1108  round */\n      0x05\n      0x00\n        /* \"chapter2/Random.sol\":1101:1108  ++round */\n      dup2\n      sload\n      tag_25\n      swap1\n      tag_15\n      jump\t// in\n    tag_25:\n      swap2\n      swap1\n      pop\n      dup2\n      swap1\n      sstore\n      pop\n        /* \"chapter2/Random.sol\":1137:1151  randomNumber() */\n      tag_26\n        /* \"chapter2/Random.sol\":1137:1149  randomNumber */\n      tag_27\n        /* \"chapter2/Random.sol\":1137:1151  randomNumber() */\n      jump\t// in\n    tag_26:\n        /* \"chapter2/Random.sol\":1122:1134  winnerNumber */\n      0x02\n        /* \"chapter2/Random.sol\":1122:1151  winnerNumber = randomNumber() */\n      dup2\n      swap1\n      sstore\n      pop\n        /* \"chapter2/Random.sol\":1184:1194  msg.sender */\n      caller\n        /* \"chapter2/Random.sol\":1170:1195  WinnerAddress(msg.sender) */\n      0xffffffffffffffffffffffffffffffffffffffff\n      and\n      0xd7b5435fa0dd93954c7955210a67950d9385f8cd60631432712709e265ec99ca\n      mload(0x40)\n      mload(0x40)\n      dup1\n      swap2\n      sub\n      swap1\n      log2\n        /* \"chapter2/Random.sol\":939:1206  {... */\n      pop\n        /* \"chapter2/Random.sol\":908:1276  if(playNumber == winnerNumber) {... */\n      jump(tag_28)\n    tag_16:\n        /* \"chapter2/Random.sol\":1243:1253  msg.sender */\n      caller\n        /* \"chapter2/Random.sol\":1231:1265  PaidAddress(msg.sender, msg.value) */\n      0xffffffffffffffffffffffffffffffffffffffff\n      and\n      0x20384c35af44ae3e0536c765e1cee107339d7ca70b092472c816a3a62e4ba659\n        /* \"chapter2/Random.sol\":1255:1264  msg.value */\n      callvalue\n        /* \"chapter2/Random.sol\":1231:1265  PaidAddress(msg.sender, msg.value) */\n      mload(0x40)\n      tag_29\n      swap2\n      swap1\n      tag_30\n      jump\t// in\n    tag_29:\n      mload(0x40)\n      dup1\n      swap2\n      sub\n      swap1\n      log2\n        /* \"chapter2/Random.sol\":908:1276  if(playNumber == winnerNumber) {... */\n    tag_28:\n        /* \"chapter2/Random.sol\":70:1756  contract Random {... */\n      stop\n    tag_2:\n      0x00\n      dup1\n      revert\n        /* \"chapter2/Random.sol\":535:561  uint public playNumber = 0 */\n    tag_3:\n      callvalue\n      dup1\n      iszero\n      tag_31\n      jumpi\n      0x00\n      dup1\n      revert\n    tag_31:\n      pop\n      tag_32\n      tag_33\n      jump\t// in\n    tag_32:\n      mload(0x40)\n      tag_34\n      swap2\n      swap1\n      tag_30\n      jump\t// in\n    tag_34:\n      mload(0x40)\n      dup1\n      swap2\n      sub\n      swap1\n      return\n        /* \"chapter2/Random.sol\":508:529  uint public round = 1 */\n    tag_4:\n      callvalue\n      dup1\n      iszero\n      tag_35\n      jumpi\n      0x00\n      dup1\n      revert\n    tag_35:\n      pop\n      tag_36\n      tag_37\n      jump\t// in\n    tag_36:\n      mload(0x40)\n      tag_38\n      swap2\n      swap1\n      tag_30\n      jump\t// in\n    tag_38:\n      mload(0x40)\n      dup1\n      swap2\n      sub\n      swap1\n      return\n        /* \"chapter2/Random.sol\":1629:1754  function getSecretKey(string memory _key1, uint _key2) public onlyOwner() {... */\n    tag_5:\n      callvalue\n      dup1\n      iszero\n      tag_39\n      jumpi\n      0x00\n      dup1\n      revert\n    tag_39:\n      pop\n      tag_40\n      0x04\n      dup1\n      calldatasize\n      sub\n      dup2\n      add\n      swap1\n      tag_41\n      swap2\n      swap1\n      tag_42\n      jump\t// in\n    tag_41:\n      tag_43\n      jump\t// in\n    tag_40:\n      stop\n        /* \"chapter2/Random.sol\":1498:1623  function setSecretKey(string memory _key1, uint _key2) public onlyOwner() {... */\n    tag_6:\n      callvalue\n      dup1\n      iszero\n      tag_44\n      jumpi\n      0x00\n      dup1\n      revert\n    tag_44:\n      pop\n      tag_45\n      0x04\n      dup1\n      calldatasize\n      sub\n      dup2\n      add\n      swap1\n      tag_46\n      swap2\n      swap1\n      tag_42\n      jump\t// in\n    tag_46:\n      tag_47\n      jump\t// in\n    tag_45:\n      stop\n        /* \"chapter2/Random.sol\":398:418  address public owner */\n    tag_7:\n      callvalue\n      dup1\n      iszero\n      tag_48\n      jumpi\n      0x00\n      dup1\n      revert\n    tag_48:\n      pop\n      tag_49\n      tag_50\n      jump\t// in\n    tag_49:\n      mload(0x40)\n      tag_51\n      swap2\n      swap1\n      tag_52\n      jump\t// in\n    tag_51:\n      mload(0x40)\n      dup1\n      swap2\n      sub\n      swap1\n      return\n        /* \"chapter2/Random.sol\":325:391  mapping(uint256=> mapping(address => bool)) public paidAddressList */\n    tag_8:\n      callvalue\n      dup1\n      iszero\n      tag_53\n      jumpi\n      0x00\n      dup1\n      revert\n    tag_53:\n      pop\n      tag_54\n      0x04\n      dup1\n      calldatasize\n      sub\n      dup2\n      add\n      swap1\n      tag_55\n      swap2\n      swap1\n      tag_56\n      jump\t// in\n    tag_55:\n      tag_57\n      jump\t// in\n    tag_54:\n      mload(0x40)\n      tag_58\n      swap2\n      swap1\n      tag_59\n      jump\t// in\n    tag_58:\n      mload(0x40)\n      dup1\n      swap2\n      sub\n      swap1\n      return\n        /* \"chapter2/Random.sol\":1289:1492  function randomNumber() private view returns(uint) {... */\n    tag_27:\n        /* \"chapter2/Random.sol\":1334:1338  uint */\n      0x00\n        /* \"chapter2/Random.sol\":1350:1358  uint num */\n      dup1\n        /* \"chapter2/Random.sol\":1425:1437  block.number */\n      number\n        /* \"chapter2/Random.sol\":1405:1420  block.timestamp */\n      timestamp\n        /* \"chapter2/Random.sol\":1397:1401  key2 */\n      sload(0x04)\n        /* \"chapter2/Random.sol\":1387:1391  key1 */\n      0x03\n        /* \"chapter2/Random.sol\":1376:1392  abi.encode(key1) */\n      add(0x20, mload(0x40))\n      tag_61\n      swap2\n      swap1\n      tag_62\n      jump\t// in\n    tag_61:\n      mload(0x40)\n      0x20\n      dup2\n      dup4\n      sub\n      sub\n      dup2\n      mstore\n      swap1\n      0x40\n      mstore\n        /* \"chapter2/Random.sol\":1366:1393  keccak256(abi.encode(key1)) */\n      dup1\n      mload\n      swap1\n      0x20\n      add\n      keccak256\n        /* \"chapter2/Random.sol\":1361:1394  uint(keccak256(abi.encode(key1))) */\n      0x00\n      shr\n        /* \"chapter2/Random.sol\":1361:1401  uint(keccak256(abi.encode(key1))) + key2 */\n      tag_63\n      swap2\n      swap1\n      tag_64\n      jump\t// in\n    tag_63:\n        /* \"chapter2/Random.sol\":1361:1421  uint(keccak256(abi.encode(key1))) + key2 + (block.timestamp) */\n      tag_65\n      swap2\n      swap1\n      tag_64\n      jump\t// in\n    tag_65:\n        /* \"chapter2/Random.sol\":1361:1438  uint(keccak256(abi.encode(key1))) + key2 + (block.timestamp) + (block.number) */\n      tag_66\n      swap2\n      swap1\n      tag_64\n      jump\t// in\n    tag_66:\n        /* \"chapter2/Random.sol\":1350:1438  uint num = uint(keccak256(abi.encode(key1))) + key2 + (block.timestamp) + (block.number) */\n      swap1\n      pop\n        /* \"chapter2/Random.sol\":1484:1485  1 */\n      0x01\n        /* \"chapter2/Random.sol\":1477:1479  10 */\n      0x0a\n        /* \"chapter2/Random.sol\":1471:1473  10 */\n      dup1\n        /* \"chapter2/Random.sol\":1465:1468  num */\n      dup4\n        /* \"chapter2/Random.sol\":1465:1473  num / 10 */\n      tag_67\n      swap2\n      swap1\n      tag_68\n      jump\t// in\n    tag_67:\n        /* \"chapter2/Random.sol\":1464:1479  (num / 10) * 10 */\n      tag_69\n      swap2\n      swap1\n      tag_70\n      jump\t// in\n    tag_69:\n        /* \"chapter2/Random.sol\":1457:1460  num */\n      dup3\n        /* \"chapter2/Random.sol\":1457:1480  num - ((num / 10) * 10) */\n      tag_71\n      swap2\n      swap1\n      tag_72\n      jump\t// in\n    tag_71:\n        /* \"chapter2/Random.sol\":1456:1485  (num - ((num / 10) * 10)) + 1 */\n      tag_73\n      swap2\n      swap1\n      tag_64\n      jump\t// in\n    tag_73:\n        /* \"chapter2/Random.sol\":1449:1485  return (num - ((num / 10) * 10)) + 1 */\n      swap2\n      pop\n      pop\n        /* \"chapter2/Random.sol\":1289:1492  function randomNumber() private view returns(uint) {... */\n      swap1\n      jump\t// out\n        /* \"chapter2/Random.sol\":535:561  uint public playNumber = 0 */\n    tag_33:\n      sload(0x06)\n      dup2\n      jump\t// out\n        /* \"chapter2/Random.sol\":508:529  uint public round = 1 */\n    tag_37:\n      sload(0x05)\n      dup2\n      jump\t// out\n        /* \"chapter2/Random.sol\":1629:1754  function getSecretKey(string memory _key1, uint _key2) public onlyOwner() {... */\n    tag_43:\n        /* \"chapter2/Random.sol\":259:264  owner */\n      0x01\n      0x00\n      swap1\n      sload\n      swap1\n      0x0100\n      exp\n      swap1\n      div\n      0xffffffffffffffffffffffffffffffffffffffff\n      and\n        /* \"chapter2/Random.sol\":245:264  msg.sender == owner */\n      0xffffffffffffffffffffffffffffffffffffffff\n      and\n        /* \"chapter2/Random.sol\":245:255  msg.sender */\n      caller\n        /* \"chapter2/Random.sol\":245:264  msg.sender == owner */\n      0xffffffffffffffffffffffffffffffffffffffff\n      and\n      eq\n        /* \"chapter2/Random.sol\":237:301  require(msg.sender == owner, \"Ownable: caller is not the owner\") */\n      tag_75\n      jumpi\n      mload(0x40)\n      0x08c379a000000000000000000000000000000000000000000000000000000000\n      dup2\n      mstore\n      0x04\n      add\n      tag_76\n      swap1\n      tag_77\n      jump\t// in\n    tag_76:\n      mload(0x40)\n      dup1\n      swap2\n      sub\n      swap1\n      revert\n    tag_75:\n        /* \"chapter2/Random.sol\":1720:1725  _key1 */\n      dup2\n        /* \"chapter2/Random.sol\":1713:1717  key1 */\n      0x03\n        /* \"chapter2/Random.sol\":1713:1725  key1 = _key1 */\n      swap1\n      dup2\n      tag_79\n      swap2\n      swap1\n      tag_80\n      jump\t// in\n    tag_79:\n      pop\n        /* \"chapter2/Random.sol\":1742:1747  _key2 */\n      dup1\n        /* \"chapter2/Random.sol\":1735:1739  key2 */\n      0x04\n        /* \"chapter2/Random.sol\":1735:1747  key2 = _key2 */\n      dup2\n      swap1\n      sstore\n      pop\n        /* \"chapter2/Random.sol\":1629:1754  function getSecretKey(string memory _key1, uint _key2) public onlyOwner() {... */\n      pop\n      pop\n      jump\t// out\n        /* \"chapter2/Random.sol\":1498:1623  function setSecretKey(string memory _key1, uint _key2) public onlyOwner() {... */\n    tag_47:\n        /* \"chapter2/Random.sol\":259:264  owner */\n      0x01\n      0x00\n      swap1\n      sload\n      swap1\n      0x0100\n      exp\n      swap1\n      div\n      0xffffffffffffffffffffffffffffffffffffffff\n      and\n        /* \"chapter2/Random.sol\":245:264  msg.sender == owner */\n      0xffffffffffffffffffffffffffffffffffffffff\n      and\n        /* \"chapter2/Random.sol\":245:255  msg.sender */\n      caller\n        /* \"chapter2/Random.sol\":245:264  msg.sender == owner */\n      0xffffffffffffffffffffffffffffffffffffffff\n      and\n      eq\n        /* \"chapter2/Random.sol\":237:301  require(msg.sender == owner, \"Ownable: caller is not the owner\") */\n      tag_82\n      jumpi\n      mload(0x40)\n      0x08c379a000000000000000000000000000000000000000000000000000000000\n      dup2\n      mstore\n      0x04\n      add\n      tag_83\n      swap1\n      tag_77\n      jump\t// in\n    tag_83:\n      mload(0x40)\n      dup1\n      swap2\n      sub\n      swap1\n      revert\n    tag_82:\n        /* \"chapter2/Random.sol\":1589:1594  _key1 */\n      dup2\n        /* \"chapter2/Random.sol\":1582:1586  key1 */\n      0x03\n        /* \"chapter2/Random.sol\":1582:1594  key1 = _key1 */\n      swap1\n      dup2\n      tag_85\n      swap2\n      swap1\n      tag_80\n      jump\t// in\n    tag_85:\n      pop\n        /* \"chapter2/Random.sol\":1611:1616  _key2 */\n      dup1\n        /* \"chapter2/Random.sol\":1604:1608  key2 */\n      0x04\n        /* \"chapter2/Random.sol\":1604:1616  key2 = _key2 */\n      dup2\n      swap1\n      sstore\n      pop\n        /* \"chapter2/Random.sol\":1498:1623  function setSecretKey(string memory _key1, uint _key2) public onlyOwner() {... */\n      pop\n      pop\n      jump\t// out\n        /* \"chapter2/Random.sol\":398:418  address public owner */\n    tag_50:\n      0x01\n      0x00\n      swap1\n      sload\n      swap1\n      0x0100\n      exp\n      swap1\n      div\n      0xffffffffffffffffffffffffffffffffffffffff\n      and\n      dup2\n      jump\t// out\n        /* \"chapter2/Random.sol\":325:391  mapping(uint256=> mapping(address => bool)) public paidAddressList */\n    tag_57:\n      mstore(0x20, 0x00)\n      dup2\n      0x00\n      mstore\n      mstore(0x20, keccak256(0x00, 0x40))\n      dup1\n      0x00\n      mstore\n      keccak256(0x00, 0x40)\n      0x00\n      swap2\n      pop\n      swap2\n      pop\n      swap1\n      sload\n      swap1\n      0x0100\n      exp\n      swap1\n      div\n      0xff\n      and\n      dup2\n      jump\t// out\n        /* \"#utility.yul\":7:176   */\n    tag_86:\n        /* \"#utility.yul\":91:102   */\n      0x00\n        /* \"#utility.yul\":125:131   */\n      dup3\n        /* \"#utility.yul\":120:123   */\n      dup3\n        /* \"#utility.yul\":113:132   */\n      mstore\n        /* \"#utility.yul\":165:169   */\n      0x20\n        /* \"#utility.yul\":160:163   */\n      dup3\n        /* \"#utility.yul\":156:170   */\n      add\n        /* \"#utility.yul\":141:170   */\n      swap1\n      pop\n        /* \"#utility.yul\":7:176   */\n      swap3\n      swap2\n      pop\n      pop\n      jump\t// out\n        /* \"#utility.yul\":182:350   */\n    tag_87:\n        /* \"#utility.yul\":322:342   */\n      0x4d757374626520302e3030312065746865720000000000000000000000000000\n        /* \"#utility.yul\":318:319   */\n      0x00\n        /* \"#utility.yul\":310:316   */\n      dup3\n        /* \"#utility.yul\":306:320   */\n      add\n        /* \"#utility.yul\":299:343   */\n      mstore\n        /* \"#utility.yul\":182:350   */\n      pop\n      jump\t// out\n        /* \"#utility.yul\":356:722   */\n    tag_88:\n        /* \"#utility.yul\":498:501   */\n      0x00\n        /* \"#utility.yul\":519:586   */\n      tag_145\n        /* \"#utility.yul\":583:585   */\n      0x12\n        /* \"#utility.yul\":578:581   */\n      dup4\n        /* \"#utility.yul\":519:586   */\n      tag_86\n      jump\t// in\n    tag_145:\n        /* \"#utility.yul\":512:586   */\n      swap2\n      pop\n        /* \"#utility.yul\":595:688   */\n      tag_146\n        /* \"#utility.yul\":684:687   */\n      dup3\n        /* \"#utility.yul\":595:688   */\n      tag_87\n      jump\t// in\n    tag_146:\n        /* \"#utility.yul\":713:715   */\n      0x20\n        /* \"#utility.yul\":708:711   */\n      dup3\n        /* \"#utility.yul\":704:716   */\n      add\n        /* \"#utility.yul\":697:716   */\n      swap1\n      pop\n        /* \"#utility.yul\":356:722   */\n      swap2\n      swap1\n      pop\n      jump\t// out\n        /* \"#utility.yul\":728:1147   */\n    tag_13:\n        /* \"#utility.yul\":894:898   */\n      0x00\n        /* \"#utility.yul\":932:934   */\n      0x20\n        /* \"#utility.yul\":921:930   */\n      dup3\n        /* \"#utility.yul\":917:935   */\n      add\n        /* \"#utility.yul\":909:935   */\n      swap1\n      pop\n        /* \"#utility.yul\":981:990   */\n      dup2\n        /* \"#utility.yul\":975:979   */\n      dup2\n        /* \"#utility.yul\":971:991   */\n      sub\n        /* \"#utility.yul\":967:968   */\n      0x00\n        /* \"#utility.yul\":956:965   */\n      dup4\n        /* \"#utility.yul\":952:969   */\n      add\n        /* \"#utility.yul\":945:992   */\n      mstore\n        /* \"#utility.yul\":1009:1140   */\n      tag_148\n        /* \"#utility.yul\":1135:1139   */\n      dup2\n        /* \"#utility.yul\":1009:1140   */\n      tag_88\n      jump\t// in\n    tag_148:\n        /* \"#utility.yul\":1001:1140   */\n      swap1\n      pop\n        /* \"#utility.yul\":728:1147   */\n      swap2\n      swap1\n      pop\n      jump\t// out\n        /* \"#utility.yul\":1153:1333   */\n    tag_89:\n        /* \"#utility.yul\":1201:1278   */\n      0x4e487b7100000000000000000000000000000000000000000000000000000000\n        /* \"#utility.yul\":1198:1199   */\n      0x00\n        /* \"#utility.yul\":1191:1279   */\n      mstore\n        /* \"#utility.yul\":1298:1302   */\n      0x11\n        /* \"#utility.yul\":1295:1296   */\n      0x04\n        /* \"#utility.yul\":1288:1303   */\n      mstore\n        /* \"#utility.yul\":1322:1326   */\n      0x24\n        /* \"#utility.yul\":1319:1320   */\n      0x00\n        /* \"#utility.yul\":1312:1327   */\n      revert\n        /* \"#utility.yul\":1339:1416   */\n    tag_90:\n        /* \"#utility.yul\":1376:1383   */\n      0x00\n        /* \"#utility.yul\":1405:1410   */\n      dup2\n        /* \"#utility.yul\":1394:1410   */\n      swap1\n      pop\n        /* \"#utility.yul\":1339:1416   */\n      swap2\n      swap1\n      pop\n      jump\t// out\n        /* \"#utility.yul\":1422:1655   */\n    tag_15:\n        /* \"#utility.yul\":1461:1464   */\n      0x00\n        /* \"#utility.yul\":1484:1508   */\n      tag_152\n        /* \"#utility.yul\":1502:1507   */\n      dup3\n        /* \"#utility.yul\":1484:1508   */\n      tag_90\n      jump\t// in\n    tag_152:\n        /* \"#utility.yul\":1475:1508   */\n      swap2\n      pop\n        /* \"#utility.yul\":1530:1596   */\n      0xffffffffffffffffffffffffffffffffffffffffffffffffffffffffffffffff\n        /* \"#utility.yul\":1523:1528   */\n      dup3\n        /* \"#utility.yul\":1520:1597   */\n      sub\n        /* \"#utility.yul\":1517:1620   */\n      tag_153\n      jumpi\n        /* \"#utility.yul\":1600:1618   */\n      tag_154\n      tag_89\n      jump\t// in\n    tag_154:\n        /* \"#utility.yul\":1517:1620   */\n    tag_153:\n        /* \"#utility.yul\":1647:1648   */\n      0x01\n        /* \"#utility.yul\":1640:1645   */\n      dup3\n        /* \"#utility.yul\":1636:1649   */\n      add\n        /* \"#utility.yul\":1629:1649   */\n      swap1\n      pop\n        /* \"#utility.yul\":1422:1655   */\n      swap2\n      swap1\n      pop\n      jump\t// out\n        /* \"#utility.yul\":1661:1808   */\n    tag_91:\n        /* \"#utility.yul\":1762:1773   */\n      0x00\n        /* \"#utility.yul\":1799:1802   */\n      dup2\n        /* \"#utility.yul\":1784:1802   */\n      swap1\n      pop\n        /* \"#utility.yul\":1661:1808   */\n      swap3\n      swap2\n      pop\n      pop\n      jump\t// out\n        /* \"#utility.yul\":1814:1928   */\n    tag_92:\n      pop\n      jump\t// out\n        /* \"#utility.yul\":1934:2332   */\n    tag_93:\n        /* \"#utility.yul\":2093:2096   */\n      0x00\n        /* \"#utility.yul\":2114:2197   */\n      tag_158\n        /* \"#utility.yul\":2195:2196   */\n      0x00\n        /* \"#utility.yul\":2190:2193   */\n      dup4\n        /* \"#utility.yul\":2114:2197   */\n      tag_91\n      jump\t// in\n    tag_158:\n        /* \"#utility.yul\":2107:2197   */\n      swap2\n      pop\n        /* \"#utility.yul\":2206:2299   */\n      tag_159\n        /* \"#utility.yul\":2295:2298   */\n      dup3\n        /* \"#utility.yul\":2206:2299   */\n      tag_92\n      jump\t// in\n    tag_159:\n        /* \"#utility.yul\":2324:2325   */\n      0x00\n        /* \"#utility.yul\":2319:2322   */\n      dup3\n        /* \"#utility.yul\":2315:2326   */\n      add\n        /* \"#utility.yul\":2308:2326   */\n      swap1\n      pop\n        /* \"#utility.yul\":1934:2332   */\n      swap2\n      swap1\n      pop\n      jump\t// out\n        /* \"#utility.yul\":2338:2717   */\n    tag_18:\n        /* \"#utility.yul\":2522:2525   */\n      0x00\n        /* \"#utility.yul\":2544:2691   */\n      tag_161\n        /* \"#utility.yul\":2687:2690   */\n      dup3\n        /* \"#utility.yul\":2544:2691   */\n      tag_93\n      jump\t// in\n    tag_161:\n        /* \"#utility.yul\":2537:2691   */\n      swap2\n      pop\n        /* \"#utility.yul\":2708:2711   */\n      dup2\n        /* \"#utility.yul\":2701:2711   */\n      swap1\n      pop\n        /* \"#utility.yul\":2338:2717   */\n      swap2\n      swap1\n      pop\n      jump\t// out\n        /* \"#utility.yul\":2723:2879   */\n    tag_94:\n        /* \"#utility.yul\":2863:2871   */\n      0x4661696c65640000000000000000000000000000000000000000000000000000\n        /* \"#utility.yul\":2859:2860   */\n      0x00\n        /* \"#utility.yul\":2851:2857   */\n      dup3\n        /* \"#utility.yul\":2847:2861   */\n      add\n        /* \"#utility.yul\":2840:2872   */\n      mstore\n        /* \"#utility.yul\":2723:2879   */\n      pop\n      jump\t// out\n        /* \"#utility.yul\":2885:3250   */\n    tag_95:\n        /* \"#utility.yul\":3027:3030   */\n      0x00\n        /* \"#utility.yul\":3048:3114   */\n      tag_164\n        /* \"#utility.yul\":3112:3113   */\n      0x06\n        /* \"#utility.yul\":3107:3110   */\n      dup4\n        /* \"#utility.yul\":3048:3114   */\n      tag_86\n      jump\t// in\n    tag_164:\n        /* \"#utility.yul\":3041:3114   */\n      swap2\n      pop\n        /* \"#utility.yul\":3123:3216   */\n      tag_165\n        /* \"#utility.yul\":3212:3215   */\n      dup3\n        /* \"#utility.yul\":3123:3216   */\n      tag_94\n      jump\t// in\n    tag_165:\n        /* \"#utility.yul\":3241:3243   */\n      0x20\n        /* \"#utility.yul\":3236:3239   */\n      dup3\n        /* \"#utility.yul\":3232:3244   */\n      add\n        /* \"#utility.yul\":3225:3244   */\n      swap1\n      pop\n        /* \"#utility.yul\":2885:3250   */\n      swap2\n      swap1\n      pop\n      jump\t// out\n        /* \"#utility.yul\":3256:3675   */\n    tag_24:\n        /* \"#utility.yul\":3422:3426   */\n      0x00\n        /* \"#utility.yul\":3460:3462   */\n      0x20\n        /* \"#utility.yul\":3449:3458   */\n      dup3\n        /* \"#utility.yul\":3445:3463   */\n      add\n        /* \"#utility.yul\":3437:3463   */\n      swap1\n      pop\n        /* \"#utility.yul\":3509:3518   */\n      dup2\n        /* \"#utility.yul\":3503:3507   */\n      dup2\n        /* \"#utility.yul\":3499:3519   */\n      sub\n        /* \"#utility.yul\":3495:3496   */\n      0x00\n        /* \"#utility.yul\":3484:3493   */\n      dup4\n        /* \"#utility.yul\":3480:3497   */\n      add\n        /* \"#utility.yul\":3473:3520   */\n      mstore\n        /* \"#utility.yul\":3537:3668   */\n      tag_167\n        /* \"#utility.yul\":3663:3667   */\n      dup2\n        /* \"#utility.yul\":3537:3668   */\n      tag_95\n      jump\t// in\n    tag_167:\n        /* \"#utility.yul\":3529:3668   */\n      swap1\n      pop\n        /* \"#utility.yul\":3256:3675   */\n      swap2\n      swap1\n      pop\n      jump\t// out\n        /* \"#utility.yul\":3681:3799   */\n    tag_96:\n        /* \"#utility.yul\":3768:3792   */\n      tag_169\n        /* \"#utility.yul\":3786:3791   */\n      dup2\n        /* \"#utility.yul\":3768:3792   */\n      tag_90\n      jump\t// in\n    tag_169:\n        /* \"#utility.yul\":3763:3766   */\n      dup3\n        /* \"#utility.yul\":3756:3793   */\n      mstore\n        /* \"#utility.yul\":3681:3799   */\n      pop\n      pop\n      jump\t// out\n        /* \"#utility.yul\":3805:4027   */\n    tag_30:\n        /* \"#utility.yul\":3898:3902   */\n      0x00\n        /* \"#utility.yul\":3936:3938   */\n      0x20\n        /* \"#utility.yul\":3925:3934   */\n      dup3\n        /* \"#utility.yul\":3921:3939   */\n      add\n        /* \"#utility.yul\":3913:3939   */\n      swap1\n      pop\n        /* \"#utility.yul\":3949:4020   */\n      tag_171\n        /* \"#utility.yul\":4017:4018   */\n      0x00\n        /* \"#utility.yul\":4006:4015   */\n      dup4\n        /* \"#utility.yul\":4002:4019   */\n      add\n        /* \"#utility.yul\":3993:3999   */\n      dup5\n        /* \"#utility.yul\":3949:4020   */\n      tag_96\n      jump\t// in\n    tag_171:\n        /* \"#utility.yul\":3805:4027   */\n      swap3\n      swap2\n      pop\n      pop\n      jump\t// out\n        /* \"#utility.yul\":4033:4108   */\n    tag_97:\n        /* \"#utility.yul\":4066:4072   */\n      0x00\n        /* \"#utility.yul\":4099:4101   */\n      0x40\n        /* \"#utility.yul\":4093:4102   */\n      mload\n        /* \"#utility.yul\":4083:4102   */\n      swap1\n      pop\n        /* \"#utility.yul\":4033:4108   */\n      swap1\n      jump\t// out\n        /* \"#utility.yul\":4114:4231   */\n    tag_98:\n        /* \"#utility.yul\":4223:4224   */\n      0x00\n        /* \"#utility.yul\":4220:4221   */\n      dup1\n        /* \"#utility.yul\":4213:4225   */\n      revert\n        /* \"#utility.yul\":4237:4354   */\n    tag_99:\n        /* \"#utility.yul\":4346:4347   */\n      0x00\n        /* \"#utility.yul\":4343:4344   */\n      dup1\n        /* \"#utility.yul\":4336:4348   */\n      revert\n        /* \"#utility.yul\":4360:4477   */\n    tag_100:\n        /* \"#utility.yul\":4469:4470   */\n      0x00\n        /* \"#utility.yul\":4466:4467   */\n      dup1\n        /* \"#utility.yul\":4459:4471   */\n      revert\n        /* \"#utility.yul\":4483:4600   */\n    tag_101:\n        /* \"#utility.yul\":4592:4593   */\n      0x00\n        /* \"#utility.yul\":4589:4590   */\n      dup1\n        /* \"#utility.yul\":4582:4594   */\n      revert\n        /* \"#utility.yul\":4606:4708   */\n    tag_102:\n        /* \"#utility.yul\":4647:4653   */\n      0x00\n        /* \"#utility.yul\":4698:4700   */\n      0x1f\n        /* \"#utility.yul\":4694:4701   */\n      not\n        /* \"#utility.yul\":4689:4691   */\n      0x1f\n        /* \"#utility.yul\":4682:4687   */\n      dup4\n        /* \"#utility.yul\":4678:4692   */\n      add\n        /* \"#utility.yul\":4674:4702   */\n      and\n        /* \"#utility.yul\":4664:4702   */\n      swap1\n      pop\n        /* \"#utility.yul\":4606:4708   */\n      swap2\n      swap1\n      pop\n      jump\t// out\n        /* \"#utility.yul\":4714:4894   */\n    tag_103:\n        /* \"#utility.yul\":4762:4839   */\n      0x4e487b7100000000000000000000000000000000000000000000000000000000\n        /* \"#utility.yul\":4759:4760   */\n      0x00\n        /* \"#utility.yul\":4752:4840   */\n      mstore\n        /* \"#utility.yul\":4859:4863   */\n      0x41\n        /* \"#utility.yul\":4856:4857   */\n      0x04\n        /* \"#utility.yul\":4849:4864   */\n      mstore\n        /* \"#utility.yul\":4883:4887   */\n      0x24\n        /* \"#utility.yul\":4880:4881   */\n      0x00\n        /* \"#utility.yul\":4873:4888   */\n      revert\n        /* \"#utility.yul\":4900:5181   */\n    tag_104:\n        /* \"#utility.yul\":4983:5010   */\n      tag_180\n        /* \"#utility.yul\":5005:5009   */\n      dup3\n        /* \"#utility.yul\":4983:5010   */\n      tag_102\n      jump\t// in\n    tag_180:\n        /* \"#utility.yul\":4975:4981   */\n      dup2\n        /* \"#utility.yul\":4971:5011   */\n      add\n        /* \"#utility.yul\":5113:5119   */\n      dup2\n        /* \"#utility.yul\":5101:5111   */\n      dup2\n        /* \"#utility.yul\":5098:5120   */\n      lt\n        /* \"#utility.yul\":5077:5095   */\n      0xffffffffffffffff\n        /* \"#utility.yul\":5065:5075   */\n      dup3\n        /* \"#utility.yul\":5062:5096   */\n      gt\n        /* \"#utility.yul\":5059:5121   */\n      or\n        /* \"#utility.yul\":5056:5144   */\n      iszero\n      tag_181\n      jumpi\n        /* \"#utility.yul\":5124:5142   */\n      tag_182\n      tag_103\n      jump\t// in\n    tag_182:\n        /* \"#utility.yul\":5056:5144   */\n    tag_181:\n        /* \"#utility.yul\":5164:5174   */\n      dup1\n        /* \"#utility.yul\":5160:5162   */\n      0x40\n        /* \"#utility.yul\":5153:5175   */\n      mstore\n        /* \"#utility.yul\":4943:5181   */\n      pop\n        /* \"#utility.yul\":4900:5181   */\n      pop\n      pop\n      jump\t// out\n        /* \"#utility.yul\":5187:5316   */\n    tag_105:\n        /* \"#utility.yul\":5221:5227   */\n      0x00\n        /* \"#utility.yul\":5248:5268   */\n      tag_184\n      tag_97\n      jump\t// in\n    tag_184:\n        /* \"#utility.yul\":5238:5268   */\n      swap1\n      pop\n        /* \"#utility.yul\":5277:5310   */\n      tag_185\n        /* \"#utility.yul\":5305:5309   */\n      dup3\n        /* \"#utility.yul\":5297:5303   */\n      dup3\n        /* \"#utility.yul\":5277:5310   */\n      tag_104\n      jump\t// in\n    tag_185:\n        /* \"#utility.yul\":5187:5316   */\n      swap2\n      swap1\n      pop\n      jump\t// out\n        /* \"#utility.yul\":5322:5630   */\n    tag_106:\n        /* \"#utility.yul\":5384:5388   */\n      0x00\n        /* \"#utility.yul\":5474:5492   */\n      0xffffffffffffffff\n        /* \"#utility.yul\":5466:5472   */\n      dup3\n        /* \"#utility.yul\":5463:5493   */\n      gt\n        /* \"#utility.yul\":5460:5516   */\n      iszero\n      tag_187\n      jumpi\n        /* \"#utility.yul\":5496:5514   */\n      tag_188\n      tag_103\n      jump\t// in\n    tag_188:\n        /* \"#utility.yul\":5460:5516   */\n    tag_187:\n        /* \"#utility.yul\":5534:5563   */\n      tag_189\n        /* \"#utility.yul\":5556:5562   */\n      dup3\n        /* \"#utility.yul\":5534:5563   */\n      tag_102\n      jump\t// in\n    tag_189:\n        /* \"#utility.yul\":5526:5563   */\n      swap1\n      pop\n        /* \"#utility.yul\":5618:5622   */\n      0x20\n        /* \"#utility.yul\":5612:5616   */\n      dup2\n        /* \"#utility.yul\":5608:5623   */\n      add\n        /* \"#utility.yul\":5600:5623   */\n      swap1\n      pop\n        /* \"#utility.yul\":5322:5630   */\n      swap2\n      swap1\n      pop\n      jump\t// out\n        /* \"#utility.yul\":5636:5782   */\n    tag_107:\n        /* \"#utility.yul\":5733:5739   */\n      dup3\n        /* \"#utility.yul\":5728:5731   */\n      dup2\n        /* \"#utility.yul\":5723:5726   */\n      dup4\n        /* \"#utility.yul\":5710:5740   */\n      calldatacopy\n        /* \"#utility.yul\":5774:5775   */\n      0x00\n        /* \"#utility.yul\":5765:5771   */\n      dup4\n        /* \"#utility.yul\":5760:5763   */\n      dup4\n        /* \"#utility.yul\":5756:5772   */\n      add\n        /* \"#utility.yul\":5749:5776   */\n      mstore\n        /* \"#utility.yul\":5636:5782   */\n      pop\n      pop\n      pop\n      jump\t// out\n        /* \"#utility.yul\":5788:6213   */\n    tag_108:\n        /* \"#utility.yul\":5866:5871   */\n      0x00\n        /* \"#utility.yul\":5891:5957   */\n      tag_192\n        /* \"#utility.yul\":5907:5956   */\n      tag_193\n        /* \"#utility.yul\":5949:5955   */\n      dup5\n        /* \"#utility.yul\":5907:5956   */\n      tag_106\n      jump\t// in\n    tag_193:\n        /* \"#utility.yul\":5891:5957   */\n      tag_105\n      jump\t// in\n    tag_192:\n        /* \"#utility.yul\":5882:5957   */\n      swap1\n      pop\n        /* \"#utility.yul\":5980:5986   */\n      dup3\n        /* \"#utility.yul\":5973:5978   */\n      dup2\n        /* \"#utility.yul\":5966:5987   */\n      mstore\n        /* \"#utility.yul\":6018:6022   */\n      0x20\n        /* \"#utility.yul\":6011:6016   */\n      dup2\n        /* \"#utility.yul\":6007:6023   */\n      add\n        /* \"#utility.yul\":6056:6059   */\n      dup5\n        /* \"#utility.yul\":6047:6053   */\n      dup5\n        /* \"#utility.yul\":6042:6045   */\n      dup5\n        /* \"#utility.yul\":6038:6054   */\n      add\n        /* \"#utility.yul\":6035:6060   */\n      gt\n        /* \"#utility.yul\":6032:6144   */\n      iszero\n      tag_194\n      jumpi\n        /* \"#utility.yul\":6063:6142   */\n      tag_195\n      tag_101\n      jump\t// in\n    tag_195:\n        /* \"#utility.yul\":6032:6144   */\n    tag_194:\n        /* \"#utility.yul\":6153:6207   */\n      tag_196\n        /* \"#utility.yul\":6200:6206   */\n      dup5\n        /* \"#utility.yul\":6195:6198   */\n      dup3\n        /* \"#utility.yul\":6190:6193   */\n      dup6\n        /* \"#utility.yul\":6153:6207   */\n      tag_107\n      jump\t// in\n    tag_196:\n        /* \"#utility.yul\":5872:6213   */\n      pop\n        /* \"#utility.yul\":5788:6213   */\n      swap4\n      swap3\n      pop\n      pop\n      pop\n      jump\t// out\n        /* \"#utility.yul\":6233:6573   */\n    tag_109:\n        /* \"#utility.yul\":6289:6294   */\n      0x00\n        /* \"#utility.yul\":6338:6341   */\n      dup3\n        /* \"#utility.yul\":6331:6335   */\n      0x1f\n        /* \"#utility.yul\":6323:6329   */\n      dup4\n        /* \"#utility.yul\":6319:6336   */\n      add\n        /* \"#utility.yul\":6315:6342   */\n      slt\n        /* \"#utility.yul\":6305:6427   */\n      tag_198\n      jumpi\n        /* \"#utility.yul\":6346:6425   */\n      tag_199\n      tag_100\n      jump\t// in\n    tag_199:\n        /* \"#utility.yul\":6305:6427   */\n    tag_198:\n        /* \"#utility.yul\":6463:6469   */\n      dup2\n        /* \"#utility.yul\":6450:6470   */\n      calldataload\n        /* \"#utility.yul\":6488:6567   */\n      tag_200\n        /* \"#utility.yul\":6563:6566   */\n      dup5\n        /* \"#utility.yul\":6555:6561   */\n      dup3\n        /* \"#utility.yul\":6548:6552   */\n      0x20\n        /* \"#utility.yul\":6540:6546   */\n      dup7\n        /* \"#utility.yul\":6536:6553   */\n      add\n        /* \"#utility.yul\":6488:6567   */\n      tag_108\n      jump\t// in\n    tag_200:\n        /* \"#utility.yul\":6479:6567   */\n      swap2\n      pop\n        /* \"#utility.yul\":6295:6573   */\n      pop\n        /* \"#utility.yul\":6233:6573   */\n      swap3\n      swap2\n      pop\n      pop\n      jump\t// out\n        /* \"#utility.yul\":6579:6701   */\n    tag_110:\n        /* \"#utility.yul\":6652:6676   */\n      tag_202\n        /* \"#utility.yul\":6670:6675   */\n      dup2\n        /* \"#utility.yul\":6652:6676   */\n      tag_90\n      jump\t// in\n    tag_202:\n        /* \"#utility.yul\":6645:6650   */\n      dup2\n        /* \"#utility.yul\":6642:6677   */\n      eq\n        /* \"#utility.yul\":6632:6695   */\n      tag_203\n      jumpi\n        /* \"#utility.yul\":6691:6692   */\n      0x00\n        /* \"#utility.yul\":6688:6689   */\n      dup1\n        /* \"#utility.yul\":6681:6693   */\n      revert\n        /* \"#utility.yul\":6632:6695   */\n    tag_203:\n        /* \"#utility.yul\":6579:6701   */\n      pop\n      jump\t// out\n        /* \"#utility.yul\":6707:6846   */\n    tag_111:\n        /* \"#utility.yul\":6753:6758   */\n      0x00\n        /* \"#utility.yul\":6791:6797   */\n      dup2\n        /* \"#utility.yul\":6778:6798   */\n      calldataload\n        /* \"#utility.yul\":6769:6798   */\n      swap1\n      pop\n        /* \"#utility.yul\":6807:6840   */\n      tag_205\n        /* \"#utility.yul\":6834:6839   */\n      dup2\n        /* \"#utility.yul\":6807:6840   */\n      tag_110\n      jump\t// in\n    tag_205:\n        /* \"#utility.yul\":6707:6846   */\n      swap3\n      swap2\n      pop\n      pop\n      jump\t// out\n        /* \"#utility.yul\":6852:7506   */\n    tag_42:\n        /* \"#utility.yul\":6930:6936   */\n      0x00\n        /* \"#utility.yul\":6938:6944   */\n      dup1\n        /* \"#utility.yul\":6987:6989   */\n      0x40\n        /* \"#utility.yul\":6975:6984   */\n      dup4\n        /* \"#utility.yul\":6966:6973   */\n      dup6\n        /* \"#utility.yul\":6962:6985   */\n      sub\n        /* \"#utility.yul\":6958:6990   */\n      slt\n        /* \"#utility.yul\":6955:7074   */\n      iszero\n      tag_207\n      jumpi\n        /* \"#utility.yul\":6993:7072   */\n      tag_208\n      tag_98\n      jump\t// in\n    tag_208:\n        /* \"#utility.yul\":6955:7074   */\n    tag_207:\n        /* \"#utility.yul\":7141:7142   */\n      0x00\n        /* \"#utility.yul\":7130:7139   */\n      dup4\n        /* \"#utility.yul\":7126:7143   */\n      add\n        /* \"#utility.yul\":7113:7144   */\n      calldataload\n        /* \"#utility.yul\":7171:7189   */\n      0xffffffffffffffff\n        /* \"#utility.yul\":7163:7169   */\n      dup2\n        /* \"#utility.yul\":7160:7190   */\n      gt\n        /* \"#utility.yul\":7157:7274   */\n      iszero\n      tag_209\n      jumpi\n        /* \"#utility.yul\":7193:7272   */\n      tag_210\n      tag_99\n      jump\t// in\n    tag_210:\n        /* \"#utility.yul\":7157:7274   */\n    tag_209:\n        /* \"#utility.yul\":7298:7361   */\n      tag_211\n        /* \"#utility.yul\":7353:7360   */\n      dup6\n        /* \"#utility.yul\":7344:7350   */\n      dup3\n        /* \"#utility.yul\":7333:7342   */\n      dup7\n        /* \"#utility.yul\":7329:7351   */\n      add\n        /* \"#utility.yul\":7298:7361   */\n      tag_109\n      jump\t// in\n    tag_211:\n        /* \"#utility.yul\":7288:7361   */\n      swap3\n      pop\n        /* \"#utility.yul\":7084:7371   */\n      pop\n        /* \"#utility.yul\":7410:7412   */\n      0x20\n        /* \"#utility.yul\":7436:7489   */\n      tag_212\n        /* \"#utility.yul\":7481:7488   */\n      dup6\n        /* \"#utility.yul\":7472:7478   */\n      dup3\n        /* \"#utility.yul\":7461:7470   */\n      dup7\n        /* \"#utility.yul\":7457:7479   */\n      add\n        /* \"#utility.yul\":7436:7489   */\n      tag_111\n      jump\t// in\n    tag_212:\n        /* \"#utility.yul\":7426:7489   */\n      swap2\n      pop\n        /* \"#utility.yul\":7381:7499   */\n      pop\n        /* \"#utility.yul\":6852:7506   */\n      swap3\n      pop\n      swap3\n      swap1\n      pop\n      jump\t// out\n        /* \"#utility.yul\":7512:7638   */\n    tag_112:\n        /* \"#utility.yul\":7549:7556   */\n      0x00\n        /* \"#utility.yul\":7589:7631   */\n      0xffffffffffffffffffffffffffffffffffffffff\n        /* \"#utility.yul\":7582:7587   */\n      dup3\n        /* \"#utility.yul\":7578:7632   */\n      and\n        /* \"#utility.yul\":7567:7632   */\n      swap1\n      pop\n        /* \"#utility.yul\":7512:7638   */\n      swap2\n      swap1\n      pop\n      jump\t// out\n        /* \"#utility.yul\":7644:7740   */\n    tag_113:\n        /* \"#utility.yul\":7681:7688   */\n      0x00\n        /* \"#utility.yul\":7710:7734   */\n      tag_215\n        /* \"#utility.yul\":7728:7733   */\n      dup3\n        /* \"#utility.yul\":7710:7734   */\n      tag_112\n      jump\t// in\n    tag_215:\n        /* \"#utility.yul\":7699:7734   */\n      swap1\n      pop\n        /* \"#utility.yul\":7644:7740   */\n      swap2\n      swap1\n      pop\n      jump\t// out\n        /* \"#utility.yul\":7746:7864   */\n    tag_114:\n        /* \"#utility.yul\":7833:7857   */\n      tag_217\n        /* \"#utility.yul\":7851:7856   */\n      dup2\n        /* \"#utility.yul\":7833:7857   */\n      tag_113\n      jump\t// in\n    tag_217:\n        /* \"#utility.yul\":7828:7831   */\n      dup3\n        /* \"#utility.yul\":7821:7858   */\n      mstore\n        /* \"#utility.yul\":7746:7864   */\n      pop\n      pop\n      jump\t// out\n        /* \"#utility.yul\":7870:8092   */\n    tag_52:\n        /* \"#utility.yul\":7963:7967   */\n      0x00\n        /* \"#utility.yul\":8001:8003   */\n      0x20\n        /* \"#utility.yul\":7990:7999   */\n      dup3\n        /* \"#utility.yul\":7986:8004   */\n      add\n        /* \"#utility.yul\":7978:8004   */\n      swap1\n      pop\n        /* \"#utility.yul\":8014:8085   */\n      tag_219\n        /* \"#utility.yul\":8082:8083   */\n      0x00\n        /* \"#utility.yul\":8071:8080   */\n      dup4\n        /* \"#utility.yul\":8067:8084   */\n      add\n        /* \"#utility.yul\":8058:8064   */\n      dup5\n        /* \"#utility.yul\":8014:8085   */\n      tag_114\n      jump\t// in\n    tag_219:\n        /* \"#utility.yul\":7870:8092   */\n      swap3\n      swap2\n      pop\n      pop\n      jump\t// out\n        /* \"#utility.yul\":8098:8220   */\n    tag_115:\n        /* \"#utility.yul\":8171:8195   */\n      tag_221\n        /* \"#utility.yul\":8189:8194   */\n      dup2\n        /* \"#utility.yul\":8171:8195   */\n      tag_113\n      jump\t// in\n    tag_221:\n        /* \"#utility.yul\":8164:8169   */\n      dup2\n        /* \"#utility.yul\":8161:8196   */\n      eq\n        /* \"#utility.yul\":8151:8214   */\n      tag_222\n      jumpi\n        /* \"#utility.yul\":8210:8211   */\n      0x00\n        /* \"#utility.yul\":8207:8208   */\n      dup1\n        /* \"#utility.yul\":8200:8212   */\n      revert\n        /* \"#utility.yul\":8151:8214   */\n    tag_222:\n        /* \"#utility.yul\":8098:8220   */\n      pop\n      jump\t// out\n        /* \"#utility.yul\":8226:8365   */\n    tag_116:\n        /* \"#utility.yul\":8272:8277   */\n      0x00\n        /* \"#utility.yul\":8310:8316   */\n      dup2\n        /* \"#utility.yul\":8297:8317   */\n      calldataload\n        /* \"#utility.yul\":8288:8317   */\n      swap1\n      pop\n        /* \"#utility.yul\":8326:8359   */\n      tag_224\n        /* \"#utility.yul\":8353:8358   */\n      dup2\n        /* \"#utility.yul\":8326:8359   */\n      tag_115\n      jump\t// in\n    tag_224:\n        /* \"#utility.yul\":8226:8365   */\n      swap3\n      swap2\n      pop\n      pop\n      jump\t// out\n        /* \"#utility.yul\":8371:8845   */\n    tag_56:\n        /* \"#utility.yul\":8439:8445   */\n      0x00\n        /* \"#utility.yul\":8447:8453   */\n      dup1\n        /* \"#utility.yul\":8496:8498   */\n      0x40\n        /* \"#utility.yul\":8484:8493   */\n      dup4\n        /* \"#utility.yul\":8475:8482   */\n      dup6\n        /* \"#utility.yul\":8471:8494   */\n      sub\n        /* \"#utility.yul\":8467:8499   */\n      slt\n        /* \"#utility.yul\":8464:8583   */\n      iszero\n      tag_226\n      jumpi\n        /* \"#utility.yul\":8502:8581   */\n      tag_227\n      tag_98\n      jump\t// in\n    tag_227:\n        /* \"#utility.yul\":8464:8583   */\n    tag_226:\n        /* \"#utility.yul\":8622:8623   */\n      0x00\n        /* \"#utility.yul\":8647:8700   */\n      tag_228\n        /* \"#utility.yul\":8692:8699   */\n      dup6\n        /* \"#utility.yul\":8683:8689   */\n      dup3\n        /* \"#utility.yul\":8672:8681   */\n      dup7\n        /* \"#utility.yul\":8668:8690   */\n      add\n        /* \"#utility.yul\":8647:8700   */\n      tag_111\n      jump\t// in\n    tag_228:\n        /* \"#utility.yul\":8637:8700   */\n      swap3\n      pop\n        /* \"#utility.yul\":8593:8710   */\n      pop\n        /* \"#utility.yul\":8749:8751   */\n      0x20\n        /* \"#utility.yul\":8775:8828   */\n      tag_229\n        /* \"#utility.yul\":8820:8827   */\n      dup6\n        /* \"#utility.yul\":8811:8817   */\n      dup3\n        /* \"#utility.yul\":8800:8809   */\n      dup7\n        /* \"#utility.yul\":8796:8818   */\n      add\n        /* \"#utility.yul\":8775:8828   */\n      tag_116\n      jump\t// in\n    tag_229:\n        /* \"#utility.yul\":8765:8828   */\n      swap2\n      pop\n        /* \"#utility.yul\":8720:8838   */\n      pop\n        /* \"#utility.yul\":8371:8845   */\n      swap3\n      pop\n      swap3\n      swap1\n      pop\n      jump\t// out\n        /* \"#utility.yul\":8851:8941   */\n    tag_117:\n        /* \"#utility.yul\":8885:8892   */\n      0x00\n        /* \"#utility.yul\":8928:8933   */\n      dup2\n        /* \"#utility.yul\":8921:8934   */\n      iszero\n        /* \"#utility.yul\":8914:8935   */\n      iszero\n        /* \"#utility.yul\":8903:8935   */\n      swap1\n      pop\n        /* \"#utility.yul\":8851:8941   */\n      swap2\n      swap1\n      pop\n      jump\t// out\n        /* \"#utility.yul\":8947:9056   */\n    tag_118:\n        /* \"#utility.yul\":9028:9049   */\n      tag_232\n        /* \"#utility.yul\":9043:9048   */\n      dup2\n        /* \"#utility.yul\":9028:9049   */\n      tag_117\n      jump\t// in\n    tag_232:\n        /* \"#utility.yul\":9023:9026   */\n      dup3\n        /* \"#utility.yul\":9016:9050   */\n      mstore\n        /* \"#utility.yul\":8947:9056   */\n      pop\n      pop\n      jump\t// out\n        /* \"#utility.yul\":9062:9272   */\n    tag_59:\n        /* \"#utility.yul\":9149:9153   */\n      0x00\n        /* \"#utility.yul\":9187:9189   */\n      0x20\n        /* \"#utility.yul\":9176:9185   */\n      dup3\n        /* \"#utility.yul\":9172:9190   */\n      add\n        /* \"#utility.yul\":9164:9190   */\n      swap1\n      pop\n        /* \"#utility.yul\":9200:9265   */\n      tag_234\n        /* \"#utility.yul\":9262:9263   */\n      0x00\n        /* \"#utility.yul\":9251:9260   */\n      dup4\n        /* \"#utility.yul\":9247:9264   */\n      add\n        /* \"#utility.yul\":9238:9244   */\n      dup5\n        /* \"#utility.yul\":9200:9265   */\n      tag_118\n      jump\t// in\n    tag_234:\n        /* \"#utility.yul\":9062:9272   */\n      swap3\n      swap2\n      pop\n      pop\n      jump\t// out\n        /* \"#utility.yul\":9278:9458   */\n    tag_119:\n        /* \"#utility.yul\":9326:9403   */\n      0x4e487b7100000000000000000000000000000000000000000000000000000000\n        /* \"#utility.yul\":9323:9324   */\n      0x00\n        /* \"#utility.yul\":9316:9404   */\n      mstore\n        /* \"#utility.yul\":9423:9427   */\n      0x22\n        /* \"#utility.yul\":9420:9421   */\n      0x04\n        /* \"#utility.yul\":9413:9428   */\n      mstore\n        /* \"#utility.yul\":9447:9451   */\n      0x24\n        /* \"#utility.yul\":9444:9445   */\n      0x00\n        /* \"#utility.yul\":9437:9452   */\n      revert\n        /* \"#utility.yul\":9464:9784   */\n    tag_120:\n        /* \"#utility.yul\":9508:9514   */\n      0x00\n        /* \"#utility.yul\":9545:9546   */\n      0x02\n        /* \"#utility.yul\":9539:9543   */\n      dup3\n        /* \"#utility.yul\":9535:9547   */\n      div\n        /* \"#utility.yul\":9525:9547   */\n      swap1\n      pop\n        /* \"#utility.yul\":9592:9593   */\n      0x01\n        /* \"#utility.yul\":9586:9590   */\n      dup3\n        /* \"#utility.yul\":9582:9594   */\n      and\n        /* \"#utility.yul\":9613:9631   */\n      dup1\n        /* \"#utility.yul\":9603:9684   */\n      tag_237\n      jumpi\n        /* \"#utility.yul\":9669:9673   */\n      0x7f\n        /* \"#utility.yul\":9661:9667   */\n      dup3\n        /* \"#utility.yul\":9657:9674   */\n      and\n        /* \"#utility.yul\":9647:9674   */\n      swap2\n      pop\n        /* \"#utility.yul\":9603:9684   */\n    tag_237:\n        /* \"#utility.yul\":9731:9733   */\n      0x20\n        /* \"#utility.yul\":9723:9729   */\n      dup3\n        /* \"#utility.yul\":9720:9734   */\n      lt\n        /* \"#utility.yul\":9700:9718   */\n      dup2\n        /* \"#utility.yul\":9697:9735   */\n      sub\n        /* \"#utility.yul\":9694:9778   */\n      tag_238\n      jumpi\n        /* \"#utility.yul\":9750:9768   */\n      tag_239\n      tag_119\n      jump\t// in\n    tag_239:\n        /* \"#utility.yul\":9694:9778   */\n    tag_238:\n        /* \"#utility.yul\":9515:9784   */\n      pop\n        /* \"#utility.yul\":9464:9784   */\n      swap2\n      swap1\n      pop\n      jump\t// out\n        /* \"#utility.yul\":9790:9931   */\n    tag_121:\n        /* \"#utility.yul\":9839:9843   */\n      0x00\n        /* \"#utility.yul\":9862:9865   */\n      dup2\n        /* \"#utility.yul\":9854:9865   */\n      swap1\n      pop\n        /* \"#utility.yul\":9885:9888   */\n      dup2\n        /* \"#utility.yul\":9882:9883   */\n      0x00\n        /* \"#utility.yul\":9875:9889   */\n      mstore\n        /* \"#utility.yul\":9919:9923   */\n      0x20\n        /* \"#utility.yul\":9916:9917   */\n      0x00\n        /* \"#utility.yul\":9906:9924   */\n      keccak256\n        /* \"#utility.yul\":9898:9924   */\n      swap1\n      pop\n        /* \"#utility.yul\":9790:9931   */\n      swap2\n      swap1\n      pop\n      jump\t// out\n        /* \"#utility.yul\":9961:10792   */\n    tag_122:\n        /* \"#utility.yul\":10046:10049   */\n      0x00\n        /* \"#utility.yul\":10083:10088   */\n      dup2\n        /* \"#utility.yul\":10077:10089   */\n      sload\n        /* \"#utility.yul\":10112:10148   */\n      tag_242\n        /* \"#utility.yul\":10138:10147   */\n      dup2\n        /* \"#utility.yul\":10112:10148   */\n      tag_120\n      jump\t// in\n    tag_242:\n        /* \"#utility.yul\":10164:10235   */\n      tag_243\n        /* \"#utility.yul\":10228:10234   */\n      dup2\n        /* \"#utility.yul\":10223:10226   */\n      dup7\n        /* \"#utility.yul\":10164:10235   */\n      tag_86\n      jump\t// in\n    tag_243:\n        /* \"#utility.yul\":10157:10235   */\n      swap5\n      pop\n        /* \"#utility.yul\":10266:10267   */\n      0x01\n        /* \"#utility.yul\":10255:10264   */\n      dup3\n        /* \"#utility.yul\":10251:10268   */\n      and\n        /* \"#utility.yul\":10282:10283   */\n      0x00\n        /* \"#utility.yul\":10277:10441   */\n      dup2\n      eq\n      tag_245\n      jumpi\n        /* \"#utility.yul\":10455:10456   */\n      0x01\n        /* \"#utility.yul\":10450:10786   */\n      dup2\n      eq\n      tag_246\n      jumpi\n        /* \"#utility.yul\":10244:10786   */\n      jump(tag_244)\n        /* \"#utility.yul\":10277:10441   */\n    tag_245:\n        /* \"#utility.yul\":10361:10365   */\n      0xff\n        /* \"#utility.yul\":10357:10366   */\n      not\n        /* \"#utility.yul\":10346:10355   */\n      dup4\n        /* \"#utility.yul\":10342:10367   */\n      and\n        /* \"#utility.yul\":10337:10340   */\n      dup7\n        /* \"#utility.yul\":10330:10368   */\n      mstore\n        /* \"#utility.yul\":10421:10427   */\n      dup2\n        /* \"#utility.yul\":10414:10428   */\n      iszero\n        /* \"#utility.yul\":10407:10429   */\n      iszero\n        /* \"#utility.yul\":10401:10405   */\n      0x20\n        /* \"#utility.yul\":10397:10430   */\n      mul\n        /* \"#utility.yul\":10392:10395   */\n      dup7\n        /* \"#utility.yul\":10388:10431   */\n      add\n        /* \"#utility.yul\":10381:10431   */\n      swap4\n      pop\n        /* \"#utility.yul\":10277:10441   */\n      jump(tag_244)\n        /* \"#utility.yul\":10450:10786   */\n    tag_246:\n        /* \"#utility.yul\":10517:10555   */\n      tag_247\n        /* \"#utility.yul\":10549:10554   */\n      dup6\n        /* \"#utility.yul\":10517:10555   */\n      tag_121\n      jump\t// in\n    tag_247:\n        /* \"#utility.yul\":10577:10578   */\n      0x00\n        /* \"#utility.yul\":10591:10745   */\n    tag_248:\n        /* \"#utility.yul\":10605:10611   */\n      dup4\n        /* \"#utility.yul\":10602:10603   */\n      dup2\n        /* \"#utility.yul\":10599:10612   */\n      lt\n        /* \"#utility.yul\":10591:10745   */\n      iszero\n      tag_250\n      jumpi\n        /* \"#utility.yul\":10679:10686   */\n      dup2\n        /* \"#utility.yul\":10673:10687   */\n      sload\n        /* \"#utility.yul\":10669:10670   */\n      dup2\n        /* \"#utility.yul\":10664:10667   */\n      dup10\n        /* \"#utility.yul\":10660:10671   */\n      add\n        /* \"#utility.yul\":10653:10688   */\n      mstore\n        /* \"#utility.yul\":10729:10730   */\n      0x01\n        /* \"#utility.yul\":10720:10727   */\n      dup3\n        /* \"#utility.yul\":10716:10731   */\n      add\n        /* \"#utility.yul\":10705:10731   */\n      swap2\n      pop\n        /* \"#utility.yul\":10627:10631   */\n      0x20\n        /* \"#utility.yul\":10624:10625   */\n      dup2\n        /* \"#utility.yul\":10620:10632   */\n      add\n        /* \"#utility.yul\":10615:10632   */\n      swap1\n      pop\n        /* \"#utility.yul\":10591:10745   */\n      jump(tag_248)\n    tag_250:\n        /* \"#utility.yul\":10774:10775   */\n      dup1\n        /* \"#utility.yul\":10769:10772   */\n      dup9\n        /* \"#utility.yul\":10765:10776   */\n      add\n        /* \"#utility.yul\":10758:10776   */\n      swap6\n      pop\n        /* \"#utility.yul\":10457:10786   */\n      pop\n      pop\n        /* \"#utility.yul\":10244:10786   */\n    tag_244:\n      pop\n        /* \"#utility.yul\":10050:10792   */\n      pop\n      pop\n        /* \"#utility.yul\":9961:10792   */\n      swap3\n      swap2\n      pop\n      pop\n      jump\t// out\n        /* \"#utility.yul\":10798:11105   */\n    tag_62:\n        /* \"#utility.yul\":10908:10912   */\n      0x00\n        /* \"#utility.yul\":10946:10948   */\n      0x20\n        /* \"#utility.yul\":10935:10944   */\n      dup3\n        /* \"#utility.yul\":10931:10949   */\n      add\n        /* \"#utility.yul\":10923:10949   */\n      swap1\n      pop\n        /* \"#utility.yul\":10995:11004   */\n      dup2\n        /* \"#utility.yul\":10989:10993   */\n      dup2\n        /* \"#utility.yul\":10985:11005   */\n      sub\n        /* \"#utility.yul\":10981:10982   */\n      0x00\n        /* \"#utility.yul\":10970:10979   */\n      dup4\n        /* \"#utility.yul\":10966:10983   */\n      add\n        /* \"#utility.yul\":10959:11006   */\n      mstore\n        /* \"#utility.yul\":11023:11098   */\n      tag_252\n        /* \"#utility.yul\":11093:11097   */\n      dup2\n        /* \"#utility.yul\":11084:11090   */\n      dup5\n        /* \"#utility.yul\":11023:11098   */\n      tag_122\n      jump\t// in\n    tag_252:\n        /* \"#utility.yul\":11015:11098   */\n      swap1\n      pop\n        /* \"#utility.yul\":10798:11105   */\n      swap3\n      swap2\n      pop\n      pop\n      jump\t// out\n        /* \"#utility.yul\":11111:11302   */\n    tag_64:\n        /* \"#utility.yul\":11151:11154   */\n      0x00\n        /* \"#utility.yul\":11170:11190   */\n      tag_254\n        /* \"#utility.yul\":11188:11189   */\n      dup3\n        /* \"#utility.yul\":11170:11190   */\n      tag_90\n      jump\t// in\n    tag_254:\n        /* \"#utility.yul\":11165:11190   */\n      swap2\n      pop\n        /* \"#utility.yul\":11204:11224   */\n      tag_255\n        /* \"#utility.yul\":11222:11223   */\n      dup4\n        /* \"#utility.yul\":11204:11224   */\n      tag_90\n      jump\t// in\n    tag_255:\n        /* \"#utility.yul\":11199:11224   */\n      swap3\n      pop\n        /* \"#utility.yul\":11247:11248   */\n      dup3\n        /* \"#utility.yul\":11244:11245   */\n      dup3\n        /* \"#utility.yul\":11240:11249   */\n      add\n        /* \"#utility.yul\":11233:11249   */\n      swap1\n      pop\n        /* \"#utility.yul\":11268:11271   */\n      dup1\n        /* \"#utility.yul\":11265:11266   */\n      dup3\n        /* \"#utility.yul\":11262:11272   */\n      gt\n        /* \"#utility.yul\":11259:11295   */\n      iszero\n      tag_256\n      jumpi\n        /* \"#utility.yul\":11275:11293   */\n      tag_257\n      tag_89\n      jump\t// in\n    tag_257:\n        /* \"#utility.yul\":11259:11295   */\n    tag_256:\n        /* \"#utility.yul\":11111:11302   */\n      swap3\n      swap2\n      pop\n      pop\n      jump\t// out\n        /* \"#utility.yul\":11308:11488   */\n    tag_123:\n        /* \"#utility.yul\":11356:11433   */\n      0x4e487b7100000000000000000000000000000000000000000000000000000000\n        /* \"#utility.yul\":11353:11354   */\n      0x00\n        /* \"#utility.yul\":11346:11434   */\n      mstore\n        /* \"#utility.yul\":11453:11457   */\n      0x12\n        /* \"#utility.yul\":11450:11451   */\n      0x04\n        /* \"#utility.yul\":11443:11458   */\n      mstore\n        /* \"#utility.yul\":11477:11481   */\n      0x24\n        /* \"#utility.yul\":11474:11475   */\n      0x00\n        /* \"#utility.yul\":11467:11482   */\n      revert\n        /* \"#utility.yul\":11494:11679   */\n    tag_68:\n        /* \"#utility.yul\":11534:11535   */\n      0x00\n        /* \"#utility.yul\":11551:11571   */\n      tag_260\n        /* \"#utility.yul\":11569:11570   */\n      dup3\n        /* \"#utility.yul\":11551:11571   */\n      tag_90\n      jump\t// in\n    tag_260:\n        /* \"#utility.yul\":11546:11571   */\n      swap2\n      pop\n        /* \"#utility.yul\":11585:11605   */\n      tag_261\n        /* \"#utility.yul\":11603:11604   */\n      dup4\n        /* \"#utility.yul\":11585:11605   */\n      tag_90\n      jump\t// in\n    tag_261:\n        /* \"#utility.yul\":11580:11605   */\n      swap3\n      pop\n        /* \"#utility.yul\":11624:11625   */\n      dup3\n        /* \"#utility.yul\":11614:11649   */\n      tag_262\n      jumpi\n        /* \"#utility.yul\":11629:11647   */\n      tag_263\n      tag_123\n      jump\t// in\n    tag_263:\n        /* \"#utility.yul\":11614:11649   */\n    tag_262:\n        /* \"#utility.yul\":11671:11672   */\n      dup3\n        /* \"#utility.yul\":11668:11669   */\n      dup3\n        /* \"#utility.yul\":11664:11673   */\n      div\n        /* \"#utility.yul\":11659:11673   */\n      swap1\n      pop\n        /* \"#utility.yul\":11494:11679   */\n      swap3\n      swap2\n      pop\n      pop\n      jump\t// out\n        /* \"#utility.yul\":11685:12095   */\n    tag_70:\n        /* \"#utility.yul\":11725:11732   */\n      0x00\n        /* \"#utility.yul\":11748:11768   */\n      tag_265\n        /* \"#utility.yul\":11766:11767   */\n      dup3\n        /* \"#utility.yul\":11748:11768   */\n      tag_90\n      jump\t// in\n    tag_265:\n        /* \"#utility.yul\":11743:11768   */\n      swap2\n      pop\n        /* \"#utility.yul\":11782:11802   */\n      tag_266\n        /* \"#utility.yul\":11800:11801   */\n      dup4\n        /* \"#utility.yul\":11782:11802   */\n      tag_90\n      jump\t// in\n    tag_266:\n        /* \"#utility.yul\":11777:11802   */\n      swap3\n      pop\n        /* \"#utility.yul\":11837:11838   */\n      dup3\n        /* \"#utility.yul\":11834:11835   */\n      dup3\n        /* \"#utility.yul\":11830:11839   */\n      mul\n        /* \"#utility.yul\":11859:11889   */\n      tag_267\n        /* \"#utility.yul\":11877:11888   */\n      dup2\n        /* \"#utility.yul\":11859:11889   */\n      tag_90\n      jump\t// in\n    tag_267:\n        /* \"#utility.yul\":11848:11889   */\n      swap2\n      pop\n        /* \"#utility.yul\":12038:12039   */\n      dup3\n        /* \"#utility.yul\":12029:12036   */\n      dup3\n        /* \"#utility.yul\":12025:12040   */\n      div\n        /* \"#utility.yul\":12022:12023   */\n      dup5\n        /* \"#utility.yul\":12019:12041   */\n      eq\n        /* \"#utility.yul\":11999:12000   */\n      dup4\n        /* \"#utility.yul\":11992:12001   */\n      iszero\n        /* \"#utility.yul\":11972:12055   */\n      or\n        /* \"#utility.yul\":11949:12088   */\n      tag_268\n      jumpi\n        /* \"#utility.yul\":12068:12086   */\n      tag_269\n      tag_89\n      jump\t// in\n    tag_269:\n        /* \"#utility.yul\":11949:12088   */\n    tag_268:\n        /* \"#utility.yul\":11733:12095   */\n      pop\n        /* \"#utility.yul\":11685:12095   */\n      swap3\n      swap2\n      pop\n      pop\n      jump\t// out\n        /* \"#utility.yul\":12101:12295   */\n    tag_72:\n        /* \"#utility.yul\":12141:12145   */\n      0x00\n        /* \"#utility.yul\":12161:12181   */\n      tag_271\n        /* \"#utility.yul\":12179:12180   */\n      dup3\n        /* \"#utility.yul\":12161:12181   */\n      tag_90\n      jump\t// in\n    tag_271:\n        /* \"#utility.yul\":12156:12181   */\n      swap2\n      pop\n        /* \"#utility.yul\":12195:12215   */\n      tag_272\n        /* \"#utility.yul\":12213:12214   */\n      dup4\n        /* \"#utility.yul\":12195:12215   */\n      tag_90\n      jump\t// in\n    tag_272:\n        /* \"#utility.yul\":12190:12215   */\n      swap3\n      pop\n        /* \"#utility.yul\":12239:12240   */\n      dup3\n        /* \"#utility.yul\":12236:12237   */\n      dup3\n        /* \"#utility.yul\":12232:12241   */\n      sub\n        /* \"#utility.yul\":12224:12241   */\n      swap1\n      pop\n        /* \"#utility.yul\":12263:12264   */\n      dup2\n        /* \"#utility.yul\":12257:12261   */\n      dup2\n        /* \"#utility.yul\":12254:12265   */\n      gt\n        /* \"#utility.yul\":12251:12288   */\n      iszero\n      tag_273\n      jumpi\n        /* \"#utility.yul\":12268:12286   */\n      tag_274\n      tag_89\n      jump\t// in\n    tag_274:\n        /* \"#utility.yul\":12251:12288   */\n    tag_273:\n        /* \"#utility.yul\":12101:12295   */\n      swap3\n      swap2\n      pop\n      pop\n      jump\t// out\n        /* \"#utility.yul\":12301:12483   */\n    tag_124:\n        /* \"#utility.yul\":12441:12475   */\n      0x4f776e61626c653a2063616c6c6572206973206e6f7420746865206f776e6572\n        /* \"#utility.yul\":12437:12438   */\n      0x00\n        /* \"#utility.yul\":12429:12435   */\n      dup3\n        /* \"#utility.yul\":12425:12439   */\n      add\n        /* \"#utility.yul\":12418:12476   */\n      mstore\n        /* \"#utility.yul\":12301:12483   */\n      pop\n      jump\t// out\n        /* \"#utility.yul\":12489:12855   */\n    tag_125:\n        /* \"#utility.yul\":12631:12634   */\n      0x00\n        /* \"#utility.yul\":12652:12719   */\n      tag_277\n        /* \"#utility.yul\":12716:12718   */\n      0x20\n        /* \"#utility.yul\":12711:12714   */\n      dup4\n        /* \"#utility.yul\":12652:12719   */\n      tag_86\n      jump\t// in\n    tag_277:\n        /* \"#utility.yul\":12645:12719   */\n      swap2\n      pop\n        /* \"#utility.yul\":12728:12821   */\n      tag_278\n        /* \"#utility.yul\":12817:12820   */\n      dup3\n        /* \"#utility.yul\":12728:12821   */\n      tag_124\n      jump\t// in\n    tag_278:\n        /* \"#utility.yul\":12846:12848   */\n      0x20\n        /* \"#utility.yul\":12841:12844   */\n      dup3\n        /* \"#utility.yul\":12837:12849   */\n      add\n        /* \"#utility.yul\":12830:12849   */\n      swap1\n      pop\n        /* \"#utility.yul\":12489:12855   */\n      swap2\n      swap1\n      pop\n      jump\t// out\n        /* \"#utility.yul\":12861:13280   */\n    tag_77:\n        /* \"#utility.yul\":13027:13031   */\n      0x00\n        /* \"#utility.yul\":13065:13067   */\n      0x20\n        /* \"#utility.yul\":13054:13063   */\n      dup3\n        /* \"#utility.yul\":13050:13068   */\n      add\n        /* \"#utility.yul\":13042:13068   */\n      swap1\n      pop\n        /* \"#utility.yul\":13114:13123   */\n      dup2\n        /* \"#utility.yul\":13108:13112   */\n      dup2\n        /* \"#utility.yul\":13104:13124   */\n      sub\n        /* \"#utility.yul\":13100:13101   */\n      0x00\n        /* \"#utility.yul\":13089:13098   */\n      dup4\n        /* \"#utility.yul\":13085:13102   */\n      add\n        /* \"#utility.yul\":13078:13125   */\n      mstore\n        /* \"#utility.yul\":13142:13273   */\n      tag_280\n        /* \"#utility.yul\":13268:13272   */\n      dup2\n        /* \"#utility.yul\":13142:13273   */\n      tag_125\n      jump\t// in\n    tag_280:\n        /* \"#utility.yul\":13134:13273   */\n      swap1\n      pop\n        /* \"#utility.yul\":12861:13280   */\n      swap2\n      swap1\n      pop\n      jump\t// out\n        /* \"#utility.yul\":13286:13385   */\n    tag_126:\n        /* \"#utility.yul\":13338:13344   */\n      0x00\n        /* \"#utility.yul\":13372:13377   */\n      dup2\n        /* \"#utility.yul\":13366:13378   */\n      mload\n        /* \"#utility.yul\":13356:13378   */\n      swap1\n      pop\n        /* \"#utility.yul\":13286:13385   */\n      swap2\n      swap1\n      pop\n      jump\t// out\n        /* \"#utility.yul\":13391:13484   */\n    tag_127:\n        /* \"#utility.yul\":13428:13434   */\n      0x00\n        /* \"#utility.yul\":13475:13477   */\n      0x20\n        /* \"#utility.yul\":13470:13472   */\n      0x1f\n        /* \"#utility.yul\":13463:13468   */\n      dup4\n        /* \"#utility.yul\":13459:13473   */\n      add\n        /* \"#utility.yul\":13455:13478   */\n      div\n        /* \"#utility.yul\":13445:13478   */\n      swap1\n      pop\n        /* \"#utility.yul\":13391:13484   */\n      swap2\n      swap1\n      pop\n      jump\t// out\n        /* \"#utility.yul\":13490:13597   */\n    tag_128:\n        /* \"#utility.yul\":13534:13542   */\n      0x00\n        /* \"#utility.yul\":13584:13589   */\n      dup3\n        /* \"#utility.yul\":13578:13582   */\n      dup3\n        /* \"#utility.yul\":13574:13590   */\n      shl\n        /* \"#utility.yul\":13553:13590   */\n      swap1\n      pop\n        /* \"#utility.yul\":13490:13597   */\n      swap3\n      swap2\n      pop\n      pop\n      jump\t// out\n        /* \"#utility.yul\":13603:13996   */\n    tag_129:\n        /* \"#utility.yul\":13672:13678   */\n      0x00\n        /* \"#utility.yul\":13722:13723   */\n      0x08\n        /* \"#utility.yul\":13710:13720   */\n      dup4\n        /* \"#utility.yul\":13706:13724   */\n      mul\n        /* \"#utility.yul\":13745:13842   */\n      tag_285\n        /* \"#utility.yul\":13775:13841   */\n      0xffffffffffffffffffffffffffffffffffffffffffffffffffffffffffffffff\n        /* \"#utility.yul\":13764:13773   */\n      dup3\n        /* \"#utility.yul\":13745:13842   */\n      tag_128\n      jump\t// in\n    tag_285:\n        /* \"#utility.yul\":13863:13902   */\n      tag_286\n        /* \"#utility.yul\":13893:13901   */\n      dup7\n        /* \"#utility.yul\":13882:13891   */\n      dup4\n        /* \"#utility.yul\":13863:13902   */\n      tag_128\n      jump\t// in\n    tag_286:\n        /* \"#utility.yul\":13851:13902   */\n      swap6\n      pop\n        /* \"#utility.yul\":13935:13939   */\n      dup1\n        /* \"#utility.yul\":13931:13940   */\n      not\n        /* \"#utility.yul\":13924:13929   */\n      dup5\n        /* \"#utility.yul\":13920:13941   */\n      and\n        /* \"#utility.yul\":13911:13941   */\n      swap4\n      pop\n        /* \"#utility.yul\":13984:13988   */\n      dup1\n        /* \"#utility.yul\":13974:13982   */\n      dup7\n        /* \"#utility.yul\":13970:13989   */\n      and\n        /* \"#utility.yul\":13963:13968   */\n      dup5\n        /* \"#utility.yul\":13960:13990   */\n      or\n        /* \"#utility.yul\":13950:13990   */\n      swap3\n      pop\n        /* \"#utility.yul\":13679:13996   */\n      pop\n      pop\n        /* \"#utility.yul\":13603:13996   */\n      swap4\n      swap3\n      pop\n      pop\n      pop\n      jump\t// out\n        /* \"#utility.yul\":14002:14062   */\n    tag_130:\n        /* \"#utility.yul\":14030:14033   */\n      0x00\n        /* \"#utility.yul\":14051:14056   */\n      dup2\n        /* \"#utility.yul\":14044:14056   */\n      swap1\n      pop\n        /* \"#utility.yul\":14002:14062   */\n      swap2\n      swap1\n      pop\n      jump\t// out\n        /* \"#utility.yul\":14068:14210   */\n    tag_131:\n        /* \"#utility.yul\":14118:14127   */\n      0x00\n        /* \"#utility.yul\":14151:14204   */\n      tag_289\n        /* \"#utility.yul\":14169:14203   */\n      tag_290\n        /* \"#utility.yul\":14178:14202   */\n      tag_291\n        /* \"#utility.yul\":14196:14201   */\n      dup5\n        /* \"#utility.yul\":14178:14202   */\n      tag_90\n      jump\t// in\n    tag_291:\n        /* \"#utility.yul\":14169:14203   */\n      tag_130\n      jump\t// in\n    tag_290:\n        /* \"#utility.yul\":14151:14204   */\n      tag_90\n      jump\t// in\n    tag_289:\n        /* \"#utility.yul\":14138:14204   */\n      swap1\n      pop\n        /* \"#utility.yul\":14068:14210   */\n      swap2\n      swap1\n      pop\n      jump\t// out\n        /* \"#utility.yul\":14216:14291   */\n    tag_132:\n        /* \"#utility.yul\":14259:14262   */\n      0x00\n        /* \"#utility.yul\":14280:14285   */\n      dup2\n        /* \"#utility.yul\":14273:14285   */\n      swap1\n      pop\n        /* \"#utility.yul\":14216:14291   */\n      swap2\n      swap1\n      pop\n      jump\t// out\n        /* \"#utility.yul\":14297:14566   */\n    tag_133:\n        /* \"#utility.yul\":14407:14446   */\n      tag_294\n        /* \"#utility.yul\":14438:14445   */\n      dup4\n        /* \"#utility.yul\":14407:14446   */\n      tag_131\n      jump\t// in\n    tag_294:\n        /* \"#utility.yul\":14468:14559   */\n      tag_295\n        /* \"#utility.yul\":14517:14558   */\n      tag_296\n        /* \"#utility.yul\":14541:14557   */\n      dup3\n        /* \"#utility.yul\":14517:14558   */\n      tag_132\n      jump\t// in\n    tag_296:\n        /* \"#utility.yul\":14509:14515   */\n      dup5\n        /* \"#utility.yul\":14502:14506   */\n      dup5\n        /* \"#utility.yul\":14496:14507   */\n      sload\n        /* \"#utility.yul\":14468:14559   */\n      tag_129\n      jump\t// in\n    tag_295:\n        /* \"#utility.yul\":14462:14466   */\n      dup3\n        /* \"#utility.yul\":14455:14560   */\n      sstore\n        /* \"#utility.yul\":14373:14566   */\n      pop\n        /* \"#utility.yul\":14297:14566   */\n      pop\n      pop\n      pop\n      jump\t// out\n        /* \"#utility.yul\":14572:14645   */\n    tag_134:\n        /* \"#utility.yul\":14617:14620   */\n      0x00\n        /* \"#utility.yul\":14572:14645   */\n      swap1\n      jump\t// out\n        /* \"#utility.yul\":14651:14840   */\n    tag_135:\n        /* \"#utility.yul\":14728:14760   */\n      tag_299\n      tag_134\n      jump\t// in\n    tag_299:\n        /* \"#utility.yul\":14769:14834   */\n      tag_300\n        /* \"#utility.yul\":14827:14833   */\n      dup2\n        /* \"#utility.yul\":14819:14825   */\n      dup5\n        /* \"#utility.yul\":14813:14817   */\n      dup5\n        /* \"#utility.yul\":14769:14834   */\n      tag_133\n      jump\t// in\n    tag_300:\n        /* \"#utility.yul\":14704:14840   */\n      pop\n        /* \"#utility.yul\":14651:14840   */\n      pop\n      pop\n      jump\t// out\n        /* \"#utility.yul\":14846:15032   */\n    tag_136:\n        /* \"#utility.yul\":14906:15026   */\n    tag_302:\n        /* \"#utility.yul\":14923:14926   */\n      dup2\n        /* \"#utility.yul\":14916:14921   */\n      dup2\n        /* \"#utility.yul\":14913:14927   */\n      lt\n        /* \"#utility.yul\":14906:15026   */\n      iszero\n      tag_304\n      jumpi\n        /* \"#utility.yul\":14977:15016   */\n      tag_305\n        /* \"#utility.yul\":15014:15015   */\n      0x00\n        /* \"#utility.yul\":15007:15012   */\n      dup3\n        /* \"#utility.yul\":14977:15016   */\n      tag_135\n      jump\t// in\n    tag_305:\n        /* \"#utility.yul\":14950:14951   */\n      0x01\n        /* \"#utility.yul\":14943:14948   */\n      dup2\n        /* \"#utility.yul\":14939:14952   */\n      add\n        /* \"#utility.yul\":14930:14952   */\n      swap1\n      pop\n        /* \"#utility.yul\":14906:15026   */\n      jump(tag_302)\n    tag_304:\n        /* \"#utility.yul\":14846:15032   */\n      pop\n      pop\n      jump\t// out\n        /* \"#utility.yul\":15038:15581   */\n    tag_137:\n        /* \"#utility.yul\":15139:15141   */\n      0x1f\n        /* \"#utility.yul\":15134:15137   */\n      dup3\n        /* \"#utility.yul\":15131:15142   */\n      gt\n        /* \"#utility.yul\":15128:15574   */\n      iszero\n      tag_307\n      jumpi\n        /* \"#utility.yul\":15173:15211   */\n      tag_308\n        /* \"#utility.yul\":15205:15210   */\n      dup2\n        /* \"#utility.yul\":15173:15211   */\n      tag_121\n      jump\t// in\n    tag_308:\n        /* \"#utility.yul\":15257:15286   */\n      tag_309\n        /* \"#utility.yul\":15275:15285   */\n      dup5\n        /* \"#utility.yul\":15257:15286   */\n      tag_127\n      jump\t// in\n    tag_309:\n        /* \"#utility.yul\":15247:15255   */\n      dup2\n        /* \"#utility.yul\":15243:15287   */\n      add\n        /* \"#utility.yul\":15440:15442   */\n      0x20\n        /* \"#utility.yul\":15428:15438   */\n      dup6\n        /* \"#utility.yul\":15425:15443   */\n      lt\n        /* \"#utility.yul\":15422:15471   */\n      iszero\n      tag_310\n      jumpi\n        /* \"#utility.yul\":15461:15469   */\n      dup2\n        /* \"#utility.yul\":15446:15469   */\n      swap1\n      pop\n        /* \"#utility.yul\":15422:15471   */\n    tag_310:\n        /* \"#utility.yul\":15484:15564   */\n      tag_311\n        /* \"#utility.yul\":15540:15562   */\n      tag_312\n        /* \"#utility.yul\":15558:15561   */\n      dup6\n        /* \"#utility.yul\":15540:15562   */\n      tag_127\n      jump\t// in\n    tag_312:\n        /* \"#utility.yul\":15530:15538   */\n      dup4\n        /* \"#utility.yul\":15526:15563   */\n      add\n        /* \"#utility.yul\":15513:15524   */\n      dup3\n        /* \"#utility.yul\":15484:15564   */\n      tag_136\n      jump\t// in\n    tag_311:\n        /* \"#utility.yul\":15143:15574   */\n      pop\n      pop\n        /* \"#utility.yul\":15128:15574   */\n    tag_307:\n        /* \"#utility.yul\":15038:15581   */\n      pop\n      pop\n      pop\n      jump\t// out\n        /* \"#utility.yul\":15587:15704   */\n    tag_138:\n        /* \"#utility.yul\":15641:15649   */\n      0x00\n        /* \"#utility.yul\":15691:15696   */\n      dup3\n        /* \"#utility.yul\":15685:15689   */\n      dup3\n        /* \"#utility.yul\":15681:15697   */\n      shr\n        /* \"#utility.yul\":15660:15697   */\n      swap1\n      pop\n        /* \"#utility.yul\":15587:15704   */\n      swap3\n      swap2\n      pop\n      pop\n      jump\t// out\n        /* \"#utility.yul\":15710:15879   */\n    tag_139:\n        /* \"#utility.yul\":15754:15760   */\n      0x00\n        /* \"#utility.yul\":15787:15838   */\n      tag_315\n        /* \"#utility.yul\":15835:15836   */\n      0x00\n        /* \"#utility.yul\":15831:15837   */\n      not\n        /* \"#utility.yul\":15823:15828   */\n      dup5\n        /* \"#utility.yul\":15820:15821   */\n      0x08\n        /* \"#utility.yul\":15816:15829   */\n      mul\n        /* \"#utility.yul\":15787:15838   */\n      tag_138\n      jump\t// in\n    tag_315:\n        /* \"#utility.yul\":15783:15839   */\n      not\n        /* \"#utility.yul\":15868:15872   */\n      dup1\n        /* \"#utility.yul\":15862:15866   */\n      dup4\n        /* \"#utility.yul\":15858:15873   */\n      and\n        /* \"#utility.yul\":15848:15873   */\n      swap2\n      pop\n        /* \"#utility.yul\":15761:15879   */\n      pop\n        /* \"#utility.yul\":15710:15879   */\n      swap3\n      swap2\n      pop\n      pop\n      jump\t// out\n        /* \"#utility.yul\":15884:16179   */\n    tag_140:\n        /* \"#utility.yul\":15960:15964   */\n      0x00\n        /* \"#utility.yul\":16106:16135   */\n      tag_317\n        /* \"#utility.yul\":16131:16134   */\n      dup4\n        /* \"#utility.yul\":16125:16129   */\n      dup4\n        /* \"#utility.yul\":16106:16135   */\n      tag_139\n      jump\t// in\n    tag_317:\n        /* \"#utility.yul\":16098:16135   */\n      swap2\n      pop\n        /* \"#utility.yul\":16168:16171   */\n      dup3\n        /* \"#utility.yul\":16165:16166   */\n      0x02\n        /* \"#utility.yul\":16161:16172   */\n      mul\n        /* \"#utility.yul\":16155:16159   */\n      dup3\n        /* \"#utility.yul\":16152:16173   */\n      or\n        /* \"#utility.yul\":16144:16173   */\n      swap1\n      pop\n        /* \"#utility.yul\":15884:16179   */\n      swap3\n      swap2\n      pop\n      pop\n      jump\t// out\n        /* \"#utility.yul\":16184:17579   */\n    tag_80:\n        /* \"#utility.yul\":16301:16338   */\n      tag_319\n        /* \"#utility.yul\":16334:16337   */\n      dup3\n        /* \"#utility.yul\":16301:16338   */\n      tag_126\n      jump\t// in\n    tag_319:\n        /* \"#utility.yul\":16403:16421   */\n      0xffffffffffffffff\n        /* \"#utility.yul\":16395:16401   */\n      dup2\n        /* \"#utility.yul\":16392:16422   */\n      gt\n        /* \"#utility.yul\":16389:16445   */\n      iszero\n      tag_320\n      jumpi\n        /* \"#utility.yul\":16425:16443   */\n      tag_321\n      tag_103\n      jump\t// in\n    tag_321:\n        /* \"#utility.yul\":16389:16445   */\n    tag_320:\n        /* \"#utility.yul\":16469:16507   */\n      tag_322\n        /* \"#utility.yul\":16501:16505   */\n      dup3\n        /* \"#utility.yul\":16495:16506   */\n      sload\n        /* \"#utility.yul\":16469:16507   */\n      tag_120\n      jump\t// in\n    tag_322:\n        /* \"#utility.yul\":16554:16621   */\n      tag_323\n        /* \"#utility.yul\":16614:16620   */\n      dup3\n        /* \"#utility.yul\":16606:16612   */\n      dup3\n        /* \"#utility.yul\":16600:16604   */\n      dup6\n        /* \"#utility.yul\":16554:16621   */\n      tag_137\n      jump\t// in\n    tag_323:\n        /* \"#utility.yul\":16648:16649   */\n      0x00\n        /* \"#utility.yul\":16672:16676   */\n      0x20\n        /* \"#utility.yul\":16659:16676   */\n      swap1\n      pop\n        /* \"#utility.yul\":16704:16706   */\n      0x1f\n        /* \"#utility.yul\":16696:16702   */\n      dup4\n        /* \"#utility.yul\":16693:16707   */\n      gt\n        /* \"#utility.yul\":16721:16722   */\n      0x01\n        /* \"#utility.yul\":16716:17334   */\n      dup2\n      eq\n      tag_325\n      jumpi\n        /* \"#utility.yul\":17378:17379   */\n      0x00\n        /* \"#utility.yul\":17395:17401   */\n      dup5\n        /* \"#utility.yul\":17392:17469   */\n      iszero\n      tag_326\n      jumpi\n        /* \"#utility.yul\":17444:17453   */\n      dup3\n        /* \"#utility.yul\":17439:17442   */\n      dup8\n        /* \"#utility.yul\":17435:17454   */\n      add\n        /* \"#utility.yul\":17429:17455   */\n      mload\n        /* \"#utility.yul\":17420:17455   */\n      swap1\n      pop\n        /* \"#utility.yul\":17392:17469   */\n    tag_326:\n        /* \"#utility.yul\":17495:17562   */\n      tag_327\n        /* \"#utility.yul\":17555:17561   */\n      dup6\n        /* \"#utility.yul\":17548:17553   */\n      dup3\n        /* \"#utility.yul\":17495:17562   */\n      tag_140\n      jump\t// in\n    tag_327:\n        /* \"#utility.yul\":17489:17493   */\n      dup7\n        /* \"#utility.yul\":17482:17563   */\n      sstore\n        /* \"#utility.yul\":17351:17573   */\n      pop\n        /* \"#utility.yul\":16686:17573   */\n      jump(tag_324)\n        /* \"#utility.yul\":16716:17334   */\n    tag_325:\n        /* \"#utility.yul\":16768:16772   */\n      0x1f\n        /* \"#utility.yul\":16764:16773   */\n      not\n        /* \"#utility.yul\":16756:16762   */\n      dup5\n        /* \"#utility.yul\":16752:16774   */\n      and\n        /* \"#utility.yul\":16802:16839   */\n      tag_328\n        /* \"#utility.yul\":16834:16838   */\n      dup7\n        /* \"#utility.yul\":16802:16839   */\n      tag_121\n      jump\t// in\n    tag_328:\n        /* \"#utility.yul\":16861:16862   */\n      0x00\n        /* \"#utility.yul\":16875:17083   */\n    tag_329:\n        /* \"#utility.yul\":16889:16896   */\n      dup3\n        /* \"#utility.yul\":16886:16887   */\n      dup2\n        /* \"#utility.yul\":16883:16897   */\n      lt\n        /* \"#utility.yul\":16875:17083   */\n      iszero\n      tag_331\n      jumpi\n        /* \"#utility.yul\":16968:16977   */\n      dup5\n        /* \"#utility.yul\":16963:16966   */\n      dup10\n        /* \"#utility.yul\":16959:16978   */\n      add\n        /* \"#utility.yul\":16953:16979   */\n      mload\n        /* \"#utility.yul\":16945:16951   */\n      dup3\n        /* \"#utility.yul\":16938:16980   */\n      sstore\n        /* \"#utility.yul\":17019:17020   */\n      0x01\n        /* \"#utility.yul\":17011:17017   */\n      dup3\n        /* \"#utility.yul\":17007:17021   */\n      add\n        /* \"#utility.yul\":16997:17021   */\n      swap2\n      pop\n        /* \"#utility.yul\":17066:17068   */\n      0x20\n        /* \"#utility.yul\":17055:17064   */\n      dup6\n        /* \"#utility.yul\":17051:17069   */\n      add\n        /* \"#utility.yul\":17038:17069   */\n      swap5\n      pop\n        /* \"#utility.yul\":16912:16916   */\n      0x20\n        /* \"#utility.yul\":16909:16910   */\n      dup2\n        /* \"#utility.yul\":16905:16917   */\n      add\n        /* \"#utility.yul\":16900:16917   */\n      swap1\n      pop\n        /* \"#utility.yul\":16875:17083   */\n      jump(tag_329)\n    tag_331:\n        /* \"#utility.yul\":17111:17117   */\n      dup7\n        /* \"#utility.yul\":17102:17109   */\n      dup4\n        /* \"#utility.yul\":17099:17118   */\n      lt\n        /* \"#utility.yul\":17096:17275   */\n      iszero\n      tag_332\n      jumpi\n        /* \"#utility.yul\":17169:17178   */\n      dup5\n        /* \"#utility.yul\":17164:17167   */\n      dup10\n        /* \"#utility.yul\":17160:17179   */\n      add\n        /* \"#utility.yul\":17154:17180   */\n      mload\n        /* \"#utility.yul\":17212:17260   */\n      tag_333\n        /* \"#utility.yul\":17254:17258   */\n      0x1f\n        /* \"#utility.yul\":17246:17252   */\n      dup10\n        /* \"#utility.yul\":17242:17259   */\n      and\n        /* \"#utility.yul\":17231:17240   */\n      dup3\n        /* \"#utility.yul\":17212:17260   */\n      tag_139\n      jump\t// in\n    tag_333:\n        /* \"#utility.yul\":17204:17210   */\n      dup4\n        /* \"#utility.yul\":17197:17261   */\n      sstore\n        /* \"#utility.yul\":17119:17275   */\n      pop\n        /* \"#utility.yul\":17096:17275   */\n    tag_332:\n        /* \"#utility.yul\":17321:17322   */\n      0x01\n        /* \"#utility.yul\":17317:17318   */\n      0x02\n        /* \"#utility.yul\":17309:17315   */\n      dup9\n        /* \"#utility.yul\":17305:17319   */\n      mul\n        /* \"#utility.yul\":17301:17323   */\n      add\n        /* \"#utility.yul\":17295:17299   */\n      dup9\n        /* \"#utility.yul\":17288:17324   */\n      sstore\n        /* \"#utility.yul\":16723:17334   */\n      pop\n      pop\n      pop\n        /* \"#utility.yul\":16686:17573   */\n    tag_324:\n      pop\n        /* \"#utility.yul\":16276:17579   */\n      pop\n      pop\n      pop\n        /* \"#utility.yul\":16184:17579   */\n      pop\n      pop\n      jump\t// out\n\n    auxdata: 0xa26469706673582212200203670346d7e66f9944586b7f051bdecb2cd8e1a907b3a3a62985e38701f25964736f6c63430008110033\n}\n",
				"bytecode": {
					"linkReferences": {},
					"object": "60806040526000600255600160055560006006553480156200002057600080fd5b50604051620018cb380380620018cb833981810160405281019062000046919062000324565b33600160006101000a81548173ffffffffffffffffffffffffffffffffffffffff021916908373ffffffffffffffffffffffffffffffffffffffff1602179055508160039081620000989190620005cb565b5080600481905550620000b0620000be60201b60201c565b6002819055505050620008ce565b60008043426004546003604051602001620000da919062000753565b6040516020818303038152906040528051906020012060001c620000ff9190620007a6565b6200010b9190620007a6565b620001179190620007a6565b90506001600a80836200012b919062000810565b62000137919062000848565b8262000144919062000893565b620001509190620007a6565b91505090565b6000604051905090565b600080fd5b600080fd5b600080fd5b600080fd5b6000601f19601f8301169050919050565b7f4e487b7100000000000000000000000000000000000000000000000000000000600052604160045260246000fd5b620001bf8262000174565b810181811067ffffffffffffffff82111715620001e157620001e062000185565b5b80604052505050565b6000620001f662000156565b9050620002048282620001b4565b919050565b600067ffffffffffffffff82111562000227576200022662000185565b5b620002328262000174565b9050602081019050919050565b60005b838110156200025f57808201518184015260208101905062000242565b60008484015250505050565b6000620002826200027c8462000209565b620001ea565b905082815260208101848484011115620002a157620002a06200016f565b5b620002ae8482856200023f565b509392505050565b600082601f830112620002ce57620002cd6200016a565b5b8151620002e08482602086016200026b565b91505092915050565b6000819050919050565b620002fe81620002e9565b81146200030a57600080fd5b50565b6000815190506200031e81620002f3565b92915050565b600080604083850312156200033e576200033d62000160565b5b600083015167ffffffffffffffff8111156200035f576200035e62000165565b5b6200036d85828601620002b6565b925050602062000380858286016200030d565b9150509250929050565b600081519050919050565b7f4e487b7100000000000000000000000000000000000000000000000000000000600052602260045260246000fd5b60006002820490506001821680620003dd57607f821691505b602082108103620003f357620003f262000395565b5b50919050565b60008190508160005260206000209050919050565b60006020601f8301049050919050565b600082821b905092915050565b6000600883026200045d7fffffffffffffffffffffffffffffffffffffffffffffffffffffffffffffffff826200041e565b6200046986836200041e565b95508019841693508086168417925050509392505050565b6000819050919050565b6000620004ac620004a6620004a084620002e9565b62000481565b620002e9565b9050919050565b6000819050919050565b620004c8836200048b565b620004e0620004d782620004b3565b8484546200042b565b825550505050565b600090565b620004f7620004e8565b62000504818484620004bd565b505050565b5b818110156200052c5762000520600082620004ed565b6001810190506200050a565b5050565b601f8211156200057b576200054581620003f9565b62000550846200040e565b8101602085101562000560578190505b620005786200056f856200040e565b83018262000509565b50505b505050565b600082821c905092915050565b6000620005a06000198460080262000580565b1980831691505092915050565b6000620005bb83836200058d565b9150826002028217905092915050565b620005d6826200038a565b67ffffffffffffffff811115620005f257620005f162000185565b5b620005fe8254620003c4565b6200060b82828562000530565b600060209050601f8311600181146200064357600084156200062e578287015190505b6200063a8582620005ad565b865550620006aa565b601f1984166200065386620003f9565b60005b828110156200067d5784890151825560018201915060208501945060208101905062000656565b868310156200069d578489015162000699601f8916826200058d565b8355505b6001600288020188555050505b505050505050565b600082825260208201905092915050565b60008154620006d281620003c4565b620006de8186620006b2565b94506001821660008114620006fc576001811462000713576200074a565b60ff1983168652811515602002860193506200074a565b6200071e85620003f9565b60005b83811015620007425781548189015260018201915060208101905062000721565b808801955050505b50505092915050565b600060208201905081810360008301526200076f8184620006c3565b905092915050565b7f4e487b7100000000000000000000000000000000000000000000000000000000600052601160045260246000fd5b6000620007b382620002e9565b9150620007c083620002e9565b9250828201905080821115620007db57620007da62000777565b5b92915050565b7f4e487b7100000000000000000000000000000000000000000000000000000000600052601260045260246000fd5b60006200081d82620002e9565b91506200082a83620002e9565b9250826200083d576200083c620007e1565b5b828204905092915050565b60006200085582620002e9565b91506200086283620002e9565b92508282026200087281620002e9565b915082820484148315176200088c576200088b62000777565b5b5092915050565b6000620008a082620002e9565b9150620008ad83620002e9565b9250828203905081811115620008c857620008c762000777565b5b92915050565b610fed80620008de6000396000f3fe6080604052600436106100595760003560e01c80630df516d8146102a9578063146ca531146102d457806319e2eb86146102ff5780635ef5cc89146103285780638da5cb5b14610351578063cf66b9891461037c576102a4565b366102a45766038d7ea4c6800034146100a7576040517f08c379a000000000000000000000000000000000000000000000000000000000815260040161009e90610655565b60405180910390fd5b6001600080600554815260200190815260200160002060003373ffffffffffffffffffffffffffffffffffffffff1673ffffffffffffffffffffffffffffffffffffffff16815260200190815260200160002060006101000a81548160ff021916908315150217905550600660008154610120906106ae565b91905081905550600254600654036102535760003373ffffffffffffffffffffffffffffffffffffffff164760405161015890610727565b60006040518083038185875af1925050503d8060008114610195576040519150601f19603f3d011682016040523d82523d6000602084013e61019a565b606091505b50509050806101de576040517f08c379a00000000000000000000000000000000000000000000000000000000081526004016101d590610788565b60405180910390fd5b60006006819055506005600081546101f5906106ae565b919050819055506102046103b9565b6002819055503373ffffffffffffffffffffffffffffffffffffffff167fd7b5435fa0dd93954c7955210a67950d9385f8cd60631432712709e265ec99ca60405160405180910390a2506102a2565b3373ffffffffffffffffffffffffffffffffffffffff167f20384c35af44ae3e0536c765e1cee107339d7ca70b092472c816a3a62e4ba6593460405161029991906107b7565b60405180910390a25b005b600080fd5b3480156102b557600080fd5b506102be610441565b6040516102cb91906107b7565b60405180910390f35b3480156102e057600080fd5b506102e9610447565b6040516102f691906107b7565b60405180910390f35b34801561030b57600080fd5b5061032660048036038101906103219190610958565b61044d565b005b34801561033457600080fd5b5061034f600480360381019061034a9190610958565b6104f8565b005b34801561035d57600080fd5b506103666105a3565b60405161037391906109f5565b60405180910390f35b34801561038857600080fd5b506103a3600480360381019061039e9190610a3c565b6105c9565b6040516103b09190610a97565b60405180910390f35b600080434260045460036040516020016103d39190610bab565b6040516020818303038152906040528051906020012060001c6103f69190610bcd565b6104009190610bcd565b61040a9190610bcd565b90506001600a808361041c9190610c30565b6104269190610c61565b826104319190610ca3565b61043b9190610bcd565b91505090565b60065481565b60055481565b600160009054906101000a900473ffffffffffffffffffffffffffffffffffffffff1673ffffffffffffffffffffffffffffffffffffffff163373ffffffffffffffffffffffffffffffffffffffff16146104dd576040517f08c379a00000000000000000000000000000000000000000000000000000000081526004016104d490610d23565b60405180910390fd5b81600390816104ec9190610ee5565b50806004819055505050565b600160009054906101000a900473ffffffffffffffffffffffffffffffffffffffff1673ffffffffffffffffffffffffffffffffffffffff163373ffffffffffffffffffffffffffffffffffffffff1614610588576040517f08c379a000000000000000000000000000000000000000000000000000000000815260040161057f90610d23565b60405180910390fd5b81600390816105979190610ee5565b50806004819055505050565b600160009054906101000a900473ffffffffffffffffffffffffffffffffffffffff1681565b60006020528160005260406000206020528060005260406000206000915091509054906101000a900460ff1681565b600082825260208201905092915050565b7f4d757374626520302e3030312065746865720000000000000000000000000000600082015250565b600061063f6012836105f8565b915061064a82610609565b602082019050919050565b6000602082019050818103600083015261066e81610632565b9050919050565b7f4e487b7100000000000000000000000000000000000000000000000000000000600052601160045260246000fd5b6000819050919050565b60006106b9826106a4565b91507fffffffffffffffffffffffffffffffffffffffffffffffffffffffffffffffff82036106eb576106ea610675565b5b600182019050919050565b600081905092915050565b50565b60006107116000836106f6565b915061071c82610701565b600082019050919050565b600061073282610704565b9150819050919050565b7f4661696c65640000000000000000000000000000000000000000000000000000600082015250565b60006107726006836105f8565b915061077d8261073c565b602082019050919050565b600060208201905081810360008301526107a181610765565b9050919050565b6107b1816106a4565b82525050565b60006020820190506107cc60008301846107a8565b92915050565b6000604051905090565b600080fd5b600080fd5b600080fd5b600080fd5b6000601f19601f8301169050919050565b7f4e487b7100000000000000000000000000000000000000000000000000000000600052604160045260246000fd5b610839826107f0565b810181811067ffffffffffffffff8211171561085857610857610801565b5b80604052505050565b600061086b6107d2565b90506108778282610830565b919050565b600067ffffffffffffffff82111561089757610896610801565b5b6108a0826107f0565b9050602081019050919050565b82818337600083830152505050565b60006108cf6108ca8461087c565b610861565b9050828152602081018484840111156108eb576108ea6107eb565b5b6108f68482856108ad565b509392505050565b600082601f830112610913576109126107e6565b5b81356109238482602086016108bc565b91505092915050565b610935816106a4565b811461094057600080fd5b50565b6000813590506109528161092c565b92915050565b6000806040838503121561096f5761096e6107dc565b5b600083013567ffffffffffffffff81111561098d5761098c6107e1565b5b610999858286016108fe565b92505060206109aa85828601610943565b9150509250929050565b600073ffffffffffffffffffffffffffffffffffffffff82169050919050565b60006109df826109b4565b9050919050565b6109ef816109d4565b82525050565b6000602082019050610a0a60008301846109e6565b92915050565b610a19816109d4565b8114610a2457600080fd5b50565b600081359050610a3681610a10565b92915050565b60008060408385031215610a5357610a526107dc565b5b6000610a6185828601610943565b9250506020610a7285828601610a27565b9150509250929050565b60008115159050919050565b610a9181610a7c565b82525050565b6000602082019050610aac6000830184610a88565b92915050565b7f4e487b7100000000000000000000000000000000000000000000000000000000600052602260045260246000fd5b60006002820490506001821680610af957607f821691505b602082108103610b0c57610b0b610ab2565b5b50919050565b60008190508160005260206000209050919050565b60008154610b3481610ae1565b610b3e81866105f8565b94506001821660008114610b595760018114610b6f57610ba2565b60ff198316865281151560200286019350610ba2565b610b7885610b12565b60005b83811015610b9a57815481890152600182019150602081019050610b7b565b808801955050505b50505092915050565b60006020820190508181036000830152610bc58184610b27565b905092915050565b6000610bd8826106a4565b9150610be3836106a4565b9250828201905080821115610bfb57610bfa610675565b5b92915050565b7f4e487b7100000000000000000000000000000000000000000000000000000000600052601260045260246000fd5b6000610c3b826106a4565b9150610c46836106a4565b925082610c5657610c55610c01565b5b828204905092915050565b6000610c6c826106a4565b9150610c77836106a4565b9250828202610c85816106a4565b91508282048414831517610c9c57610c9b610675565b5b5092915050565b6000610cae826106a4565b9150610cb9836106a4565b9250828203905081811115610cd157610cd0610675565b5b92915050565b7f4f776e61626c653a2063616c6c6572206973206e6f7420746865206f776e6572600082015250565b6000610d0d6020836105f8565b9150610d1882610cd7565b602082019050919050565b60006020820190508181036000830152610d3c81610d00565b9050919050565b600081519050919050565b60006020601f8301049050919050565b600082821b905092915050565b600060088302610d9b7fffffffffffffffffffffffffffffffffffffffffffffffffffffffffffffffff82610d5e565b610da58683610d5e565b95508019841693508086168417925050509392505050565b6000819050919050565b6000610de2610ddd610dd8846106a4565b610dbd565b6106a4565b9050919050565b6000819050919050565b610dfc83610dc7565b610e10610e0882610de9565b848454610d6b565b825550505050565b600090565b610e25610e18565b610e30818484610df3565b505050565b5b81811015610e5457610e49600082610e1d565b600181019050610e36565b5050565b601f821115610e9957610e6a81610b12565b610e7384610d4e565b81016020851015610e82578190505b610e96610e8e85610d4e565b830182610e35565b50505b505050565b600082821c905092915050565b6000610ebc60001984600802610e9e565b1980831691505092915050565b6000610ed58383610eab565b9150826002028217905092915050565b610eee82610d43565b67ffffffffffffffff811115610f0757610f06610801565b5b610f118254610ae1565b610f1c828285610e58565b600060209050601f831160018114610f4f5760008415610f3d578287015190505b610f478582610ec9565b865550610faf565b601f198416610f5d86610b12565b60005b82811015610f8557848901518255600182019150602085019450602081019050610f60565b86831015610fa25784890151610f9e601f891682610eab565b8355505b6001600288020188555050505b50505050505056fea26469706673582212200203670346d7e66f9944586b7f051bdecb2cd8e1a907b3a3a62985e38701f25964736f6c63430008110033",
					"opcodes": "PUSH1 0x80 PUSH1 0x40 MSTORE PUSH1 0x0 PUSH1 0x2 SSTORE PUSH1 0x1 PUSH1 0x5 SSTORE PUSH1 0x0 PUSH1 0x6 SSTORE CALLVALUE DUP1 ISZERO PUSH3 0x20 JUMPI PUSH1 0x0 DUP1 REVERT JUMPDEST POP PUSH1 0x40 MLOAD PUSH3 0x18CB CODESIZE SUB DUP1 PUSH3 0x18CB DUP4 CODECOPY DUP2 DUP2 ADD PUSH1 0x40 MSTORE DUP2 ADD SWAP1 PUSH3 0x46 SWAP2 SWAP1 PUSH3 0x324 JUMP JUMPDEST CALLER PUSH1 0x1 PUSH1 0x0 PUSH2 0x100 EXP DUP2 SLOAD DUP2 PUSH20 0xFFFFFFFFFFFFFFFFFFFFFFFFFFFFFFFFFFFFFFFF MUL NOT AND SWAP1 DUP4 PUSH20 0xFFFFFFFFFFFFFFFFFFFFFFFFFFFFFFFFFFFFFFFF AND MUL OR SWAP1 SSTORE POP DUP2 PUSH1 0x3 SWAP1 DUP2 PUSH3 0x98 SWAP2 SWAP1 PUSH3 0x5CB JUMP JUMPDEST POP DUP1 PUSH1 0x4 DUP2 SWAP1 SSTORE POP PUSH3 0xB0 PUSH3 0xBE PUSH1 0x20 SHL PUSH1 0x20 SHR JUMP JUMPDEST PUSH1 0x2 DUP2 SWAP1 SSTORE POP POP POP PUSH3 0x8CE JUMP JUMPDEST PUSH1 0x0 DUP1 NUMBER TIMESTAMP PUSH1 0x4 SLOAD PUSH1 0x3 PUSH1 0x40 MLOAD PUSH1 0x20 ADD PUSH3 0xDA SWAP2 SWAP1 PUSH3 0x753 JUMP JUMPDEST PUSH1 0x40 MLOAD PUSH1 0x20 DUP2 DUP4 SUB SUB DUP2 MSTORE SWAP1 PUSH1 0x40 MSTORE DUP1 MLOAD SWAP1 PUSH1 0x20 ADD KECCAK256 PUSH1 0x0 SHR PUSH3 0xFF SWAP2 SWAP1 PUSH3 0x7A6 JUMP JUMPDEST PUSH3 0x10B SWAP2 SWAP1 PUSH3 0x7A6 JUMP JUMPDEST PUSH3 0x117 SWAP2 SWAP1 PUSH3 0x7A6 JUMP JUMPDEST SWAP1 POP PUSH1 0x1 PUSH1 0xA DUP1 DUP4 PUSH3 0x12B SWAP2 SWAP1 PUSH3 0x810 JUMP JUMPDEST PUSH3 0x137 SWAP2 SWAP1 PUSH3 0x848 JUMP JUMPDEST DUP3 PUSH3 0x144 SWAP2 SWAP1 PUSH3 0x893 JUMP JUMPDEST PUSH3 0x150 SWAP2 SWAP1 PUSH3 0x7A6 JUMP JUMPDEST SWAP2 POP POP SWAP1 JUMP JUMPDEST PUSH1 0x0 PUSH1 0x40 MLOAD SWAP1 POP SWAP1 JUMP JUMPDEST PUSH1 0x0 DUP1 REVERT JUMPDEST PUSH1 0x0 DUP1 REVERT JUMPDEST PUSH1 0x0 DUP1 REVERT JUMPDEST PUSH1 0x0 DUP1 REVERT JUMPDEST PUSH1 0x0 PUSH1 0x1F NOT PUSH1 0x1F DUP4 ADD AND SWAP1 POP SWAP2 SWAP1 POP JUMP JUMPDEST PUSH32 0x4E487B7100000000000000000000000000000000000000000000000000000000 PUSH1 0x0 MSTORE PUSH1 0x41 PUSH1 0x4 MSTORE PUSH1 0x24 PUSH1 0x0 REVERT JUMPDEST PUSH3 0x1BF DUP3 PUSH3 0x174 JUMP JUMPDEST DUP2 ADD DUP2 DUP2 LT PUSH8 0xFFFFFFFFFFFFFFFF DUP3 GT OR ISZERO PUSH3 0x1E1 JUMPI PUSH3 0x1E0 PUSH3 0x185 JUMP JUMPDEST JUMPDEST DUP1 PUSH1 0x40 MSTORE POP POP POP JUMP JUMPDEST PUSH1 0x0 PUSH3 0x1F6 PUSH3 0x156 JUMP JUMPDEST SWAP1 POP PUSH3 0x204 DUP3 DUP3 PUSH3 0x1B4 JUMP JUMPDEST SWAP2 SWAP1 POP JUMP JUMPDEST PUSH1 0x0 PUSH8 0xFFFFFFFFFFFFFFFF DUP3 GT ISZERO PUSH3 0x227 JUMPI PUSH3 0x226 PUSH3 0x185 JUMP JUMPDEST JUMPDEST PUSH3 0x232 DUP3 PUSH3 0x174 JUMP JUMPDEST SWAP1 POP PUSH1 0x20 DUP2 ADD SWAP1 POP SWAP2 SWAP1 POP JUMP JUMPDEST PUSH1 0x0 JUMPDEST DUP4 DUP2 LT ISZERO PUSH3 0x25F JUMPI DUP1 DUP3 ADD MLOAD DUP2 DUP5 ADD MSTORE PUSH1 0x20 DUP2 ADD SWAP1 POP PUSH3 0x242 JUMP JUMPDEST PUSH1 0x0 DUP5 DUP5 ADD MSTORE POP POP POP POP JUMP JUMPDEST PUSH1 0x0 PUSH3 0x282 PUSH3 0x27C DUP5 PUSH3 0x209 JUMP JUMPDEST PUSH3 0x1EA JUMP JUMPDEST SWAP1 POP DUP3 DUP2 MSTORE PUSH1 0x20 DUP2 ADD DUP5 DUP5 DUP5 ADD GT ISZERO PUSH3 0x2A1 JUMPI PUSH3 0x2A0 PUSH3 0x16F JUMP JUMPDEST JUMPDEST PUSH3 0x2AE DUP5 DUP3 DUP6 PUSH3 0x23F JUMP JUMPDEST POP SWAP4 SWAP3 POP POP POP JUMP JUMPDEST PUSH1 0x0 DUP3 PUSH1 0x1F DUP4 ADD SLT PUSH3 0x2CE JUMPI PUSH3 0x2CD PUSH3 0x16A JUMP JUMPDEST JUMPDEST DUP2 MLOAD PUSH3 0x2E0 DUP5 DUP3 PUSH1 0x20 DUP7 ADD PUSH3 0x26B JUMP JUMPDEST SWAP2 POP POP SWAP3 SWAP2 POP POP JUMP JUMPDEST PUSH1 0x0 DUP2 SWAP1 POP SWAP2 SWAP1 POP JUMP JUMPDEST PUSH3 0x2FE DUP2 PUSH3 0x2E9 JUMP JUMPDEST DUP2 EQ PUSH3 0x30A JUMPI PUSH1 0x0 DUP1 REVERT JUMPDEST POP JUMP JUMPDEST PUSH1 0x0 DUP2 MLOAD SWAP1 POP PUSH3 0x31E DUP2 PUSH3 0x2F3 JUMP JUMPDEST SWAP3 SWAP2 POP POP JUMP JUMPDEST PUSH1 0x0 DUP1 PUSH1 0x40 DUP4 DUP6 SUB SLT ISZERO PUSH3 0x33E JUMPI PUSH3 0x33D PUSH3 0x160 JUMP JUMPDEST JUMPDEST PUSH1 0x0 DUP4 ADD MLOAD PUSH8 0xFFFFFFFFFFFFFFFF DUP2 GT ISZERO PUSH3 0x35F JUMPI PUSH3 0x35E PUSH3 0x165 JUMP JUMPDEST JUMPDEST PUSH3 0x36D DUP6 DUP3 DUP7 ADD PUSH3 0x2B6 JUMP JUMPDEST SWAP3 POP POP PUSH1 0x20 PUSH3 0x380 DUP6 DUP3 DUP7 ADD PUSH3 0x30D JUMP JUMPDEST SWAP2 POP POP SWAP3 POP SWAP3 SWAP1 POP JUMP JUMPDEST PUSH1 0x0 DUP2 MLOAD SWAP1 POP SWAP2 SWAP1 POP JUMP JUMPDEST PUSH32 0x4E487B7100000000000000000000000000000000000000000000000000000000 PUSH1 0x0 MSTORE PUSH1 0x22 PUSH1 0x4 MSTORE PUSH1 0x24 PUSH1 0x0 REVERT JUMPDEST PUSH1 0x0 PUSH1 0x2 DUP3 DIV SWAP1 POP PUSH1 0x1 DUP3 AND DUP1 PUSH3 0x3DD JUMPI PUSH1 0x7F DUP3 AND SWAP2 POP JUMPDEST PUSH1 0x20 DUP3 LT DUP2 SUB PUSH3 0x3F3 JUMPI PUSH3 0x3F2 PUSH3 0x395 JUMP JUMPDEST JUMPDEST POP SWAP2 SWAP1 POP JUMP JUMPDEST PUSH1 0x0 DUP2 SWAP1 POP DUP2 PUSH1 0x0 MSTORE PUSH1 0x20 PUSH1 0x0 KECCAK256 SWAP1 POP SWAP2 SWAP1 POP JUMP JUMPDEST PUSH1 0x0 PUSH1 0x20 PUSH1 0x1F DUP4 ADD DIV SWAP1 POP SWAP2 SWAP1 POP JUMP JUMPDEST PUSH1 0x0 DUP3 DUP3 SHL SWAP1 POP SWAP3 SWAP2 POP POP JUMP JUMPDEST PUSH1 0x0 PUSH1 0x8 DUP4 MUL PUSH3 0x45D PUSH32 0xFFFFFFFFFFFFFFFFFFFFFFFFFFFFFFFFFFFFFFFFFFFFFFFFFFFFFFFFFFFFFFFF DUP3 PUSH3 0x41E JUMP JUMPDEST PUSH3 0x469 DUP7 DUP4 PUSH3 0x41E JUMP JUMPDEST SWAP6 POP DUP1 NOT DUP5 AND SWAP4 POP DUP1 DUP7 AND DUP5 OR SWAP3 POP POP POP SWAP4 SWAP3 POP POP POP JUMP JUMPDEST PUSH1 0x0 DUP2 SWAP1 POP SWAP2 SWAP1 POP JUMP JUMPDEST PUSH1 0x0 PUSH3 0x4AC PUSH3 0x4A6 PUSH3 0x4A0 DUP5 PUSH3 0x2E9 JUMP JUMPDEST PUSH3 0x481 JUMP JUMPDEST PUSH3 0x2E9 JUMP JUMPDEST SWAP1 POP SWAP2 SWAP1 POP JUMP JUMPDEST PUSH1 0x0 DUP2 SWAP1 POP SWAP2 SWAP1 POP JUMP JUMPDEST PUSH3 0x4C8 DUP4 PUSH3 0x48B JUMP JUMPDEST PUSH3 0x4E0 PUSH3 0x4D7 DUP3 PUSH3 0x4B3 JUMP JUMPDEST DUP5 DUP5 SLOAD PUSH3 0x42B JUMP JUMPDEST DUP3 SSTORE POP POP POP POP JUMP JUMPDEST PUSH1 0x0 SWAP1 JUMP JUMPDEST PUSH3 0x4F7 PUSH3 0x4E8 JUMP JUMPDEST PUSH3 0x504 DUP2 DUP5 DUP5 PUSH3 0x4BD JUMP JUMPDEST POP POP POP JUMP JUMPDEST JUMPDEST DUP2 DUP2 LT ISZERO PUSH3 0x52C JUMPI PUSH3 0x520 PUSH1 0x0 DUP3 PUSH3 0x4ED JUMP JUMPDEST PUSH1 0x1 DUP2 ADD SWAP1 POP PUSH3 0x50A JUMP JUMPDEST POP POP JUMP JUMPDEST PUSH1 0x1F DUP3 GT ISZERO PUSH3 0x57B JUMPI PUSH3 0x545 DUP2 PUSH3 0x3F9 JUMP JUMPDEST PUSH3 0x550 DUP5 PUSH3 0x40E JUMP JUMPDEST DUP2 ADD PUSH1 0x20 DUP6 LT ISZERO PUSH3 0x560 JUMPI DUP2 SWAP1 POP JUMPDEST PUSH3 0x578 PUSH3 0x56F DUP6 PUSH3 0x40E JUMP JUMPDEST DUP4 ADD DUP3 PUSH3 0x509 JUMP JUMPDEST POP POP JUMPDEST POP POP POP JUMP JUMPDEST PUSH1 0x0 DUP3 DUP3 SHR SWAP1 POP SWAP3 SWAP2 POP POP JUMP JUMPDEST PUSH1 0x0 PUSH3 0x5A0 PUSH1 0x0 NOT DUP5 PUSH1 0x8 MUL PUSH3 0x580 JUMP JUMPDEST NOT DUP1 DUP4 AND SWAP2 POP POP SWAP3 SWAP2 POP POP JUMP JUMPDEST PUSH1 0x0 PUSH3 0x5BB DUP4 DUP4 PUSH3 0x58D JUMP JUMPDEST SWAP2 POP DUP3 PUSH1 0x2 MUL DUP3 OR SWAP1 POP SWAP3 SWAP2 POP POP JUMP JUMPDEST PUSH3 0x5D6 DUP3 PUSH3 0x38A JUMP JUMPDEST PUSH8 0xFFFFFFFFFFFFFFFF DUP2 GT ISZERO PUSH3 0x5F2 JUMPI PUSH3 0x5F1 PUSH3 0x185 JUMP JUMPDEST JUMPDEST PUSH3 0x5FE DUP3 SLOAD PUSH3 0x3C4 JUMP JUMPDEST PUSH3 0x60B DUP3 DUP3 DUP6 PUSH3 0x530 JUMP JUMPDEST PUSH1 0x0 PUSH1 0x20 SWAP1 POP PUSH1 0x1F DUP4 GT PUSH1 0x1 DUP2 EQ PUSH3 0x643 JUMPI PUSH1 0x0 DUP5 ISZERO PUSH3 0x62E JUMPI DUP3 DUP8 ADD MLOAD SWAP1 POP JUMPDEST PUSH3 0x63A DUP6 DUP3 PUSH3 0x5AD JUMP JUMPDEST DUP7 SSTORE POP PUSH3 0x6AA JUMP JUMPDEST PUSH1 0x1F NOT DUP5 AND PUSH3 0x653 DUP7 PUSH3 0x3F9 JUMP JUMPDEST PUSH1 0x0 JUMPDEST DUP3 DUP2 LT ISZERO PUSH3 0x67D JUMPI DUP5 DUP10 ADD MLOAD DUP3 SSTORE PUSH1 0x1 DUP3 ADD SWAP2 POP PUSH1 0x20 DUP6 ADD SWAP5 POP PUSH1 0x20 DUP2 ADD SWAP1 POP PUSH3 0x656 JUMP JUMPDEST DUP7 DUP4 LT ISZERO PUSH3 0x69D JUMPI DUP5 DUP10 ADD MLOAD PUSH3 0x699 PUSH1 0x1F DUP10 AND DUP3 PUSH3 0x58D JUMP JUMPDEST DUP4 SSTORE POP JUMPDEST PUSH1 0x1 PUSH1 0x2 DUP9 MUL ADD DUP9 SSTORE POP POP POP JUMPDEST POP POP POP POP POP POP JUMP JUMPDEST PUSH1 0x0 DUP3 DUP3 MSTORE PUSH1 0x20 DUP3 ADD SWAP1 POP SWAP3 SWAP2 POP POP JUMP JUMPDEST PUSH1 0x0 DUP2 SLOAD PUSH3 0x6D2 DUP2 PUSH3 0x3C4 JUMP JUMPDEST PUSH3 0x6DE DUP2 DUP7 PUSH3 0x6B2 JUMP JUMPDEST SWAP5 POP PUSH1 0x1 DUP3 AND PUSH1 0x0 DUP2 EQ PUSH3 0x6FC JUMPI PUSH1 0x1 DUP2 EQ PUSH3 0x713 JUMPI PUSH3 0x74A JUMP JUMPDEST PUSH1 0xFF NOT DUP4 AND DUP7 MSTORE DUP2 ISZERO ISZERO PUSH1 0x20 MUL DUP7 ADD SWAP4 POP PUSH3 0x74A JUMP JUMPDEST PUSH3 0x71E DUP6 PUSH3 0x3F9 JUMP JUMPDEST PUSH1 0x0 JUMPDEST DUP4 DUP2 LT ISZERO PUSH3 0x742 JUMPI DUP2 SLOAD DUP2 DUP10 ADD MSTORE PUSH1 0x1 DUP3 ADD SWAP2 POP PUSH1 0x20 DUP2 ADD SWAP1 POP PUSH3 0x721 JUMP JUMPDEST DUP1 DUP9 ADD SWAP6 POP POP POP JUMPDEST POP POP POP SWAP3 SWAP2 POP POP JUMP JUMPDEST PUSH1 0x0 PUSH1 0x20 DUP3 ADD SWAP1 POP DUP2 DUP2 SUB PUSH1 0x0 DUP4 ADD MSTORE PUSH3 0x76F DUP2 DUP5 PUSH3 0x6C3 JUMP JUMPDEST SWAP1 POP SWAP3 SWAP2 POP POP JUMP JUMPDEST PUSH32 0x4E487B7100000000000000000000000000000000000000000000000000000000 PUSH1 0x0 MSTORE PUSH1 0x11 PUSH1 0x4 MSTORE PUSH1 0x24 PUSH1 0x0 REVERT JUMPDEST PUSH1 0x0 PUSH3 0x7B3 DUP3 PUSH3 0x2E9 JUMP JUMPDEST SWAP2 POP PUSH3 0x7C0 DUP4 PUSH3 0x2E9 JUMP JUMPDEST SWAP3 POP DUP3 DUP3 ADD SWAP1 POP DUP1 DUP3 GT ISZERO PUSH3 0x7DB JUMPI PUSH3 0x7DA PUSH3 0x777 JUMP JUMPDEST JUMPDEST SWAP3 SWAP2 POP POP JUMP JUMPDEST PUSH32 0x4E487B7100000000000000000000000000000000000000000000000000000000 PUSH1 0x0 MSTORE PUSH1 0x12 PUSH1 0x4 MSTORE PUSH1 0x24 PUSH1 0x0 REVERT JUMPDEST PUSH1 0x0 PUSH3 0x81D DUP3 PUSH3 0x2E9 JUMP JUMPDEST SWAP2 POP PUSH3 0x82A DUP4 PUSH3 0x2E9 JUMP JUMPDEST SWAP3 POP DUP3 PUSH3 0x83D JUMPI PUSH3 0x83C PUSH3 0x7E1 JUMP JUMPDEST JUMPDEST DUP3 DUP3 DIV SWAP1 POP SWAP3 SWAP2 POP POP JUMP JUMPDEST PUSH1 0x0 PUSH3 0x855 DUP3 PUSH3 0x2E9 JUMP JUMPDEST SWAP2 POP PUSH3 0x862 DUP4 PUSH3 0x2E9 JUMP JUMPDEST SWAP3 POP DUP3 DUP3 MUL PUSH3 0x872 DUP2 PUSH3 0x2E9 JUMP JUMPDEST SWAP2 POP DUP3 DUP3 DIV DUP5 EQ DUP4 ISZERO OR PUSH3 0x88C JUMPI PUSH3 0x88B PUSH3 0x777 JUMP JUMPDEST JUMPDEST POP SWAP3 SWAP2 POP POP JUMP JUMPDEST PUSH1 0x0 PUSH3 0x8A0 DUP3 PUSH3 0x2E9 JUMP JUMPDEST SWAP2 POP PUSH3 0x8AD DUP4 PUSH3 0x2E9 JUMP JUMPDEST SWAP3 POP DUP3 DUP3 SUB SWAP1 POP DUP2 DUP2 GT ISZERO PUSH3 0x8C8 JUMPI PUSH3 0x8C7 PUSH3 0x777 JUMP JUMPDEST JUMPDEST SWAP3 SWAP2 POP POP JUMP JUMPDEST PUSH2 0xFED DUP1 PUSH3 0x8DE PUSH1 0x0 CODECOPY PUSH1 0x0 RETURN INVALID PUSH1 0x80 PUSH1 0x40 MSTORE PUSH1 0x4 CALLDATASIZE LT PUSH2 0x59 JUMPI PUSH1 0x0 CALLDATALOAD PUSH1 0xE0 SHR DUP1 PUSH4 0xDF516D8 EQ PUSH2 0x2A9 JUMPI DUP1 PUSH4 0x146CA531 EQ PUSH2 0x2D4 JUMPI DUP1 PUSH4 0x19E2EB86 EQ PUSH2 0x2FF JUMPI DUP1 PUSH4 0x5EF5CC89 EQ PUSH2 0x328 JUMPI DUP1 PUSH4 0x8DA5CB5B EQ PUSH2 0x351 JUMPI DUP1 PUSH4 0xCF66B989 EQ PUSH2 0x37C JUMPI PUSH2 0x2A4 JUMP JUMPDEST CALLDATASIZE PUSH2 0x2A4 JUMPI PUSH7 0x38D7EA4C68000 CALLVALUE EQ PUSH2 0xA7 JUMPI PUSH1 0x40 MLOAD PUSH32 0x8C379A000000000000000000000000000000000000000000000000000000000 DUP2 MSTORE PUSH1 0x4 ADD PUSH2 0x9E SWAP1 PUSH2 0x655 JUMP JUMPDEST PUSH1 0x40 MLOAD DUP1 SWAP2 SUB SWAP1 REVERT JUMPDEST PUSH1 0x1 PUSH1 0x0 DUP1 PUSH1 0x5 SLOAD DUP2 MSTORE PUSH1 0x20 ADD SWAP1 DUP2 MSTORE PUSH1 0x20 ADD PUSH1 0x0 KECCAK256 PUSH1 0x0 CALLER PUSH20 0xFFFFFFFFFFFFFFFFFFFFFFFFFFFFFFFFFFFFFFFF AND PUSH20 0xFFFFFFFFFFFFFFFFFFFFFFFFFFFFFFFFFFFFFFFF AND DUP2 MSTORE PUSH1 0x20 ADD SWAP1 DUP2 MSTORE PUSH1 0x20 ADD PUSH1 0x0 KECCAK256 PUSH1 0x0 PUSH2 0x100 EXP DUP2 SLOAD DUP2 PUSH1 0xFF MUL NOT AND SWAP1 DUP4 ISZERO ISZERO MUL OR SWAP1 SSTORE POP PUSH1 0x6 PUSH1 0x0 DUP2 SLOAD PUSH2 0x120 SWAP1 PUSH2 0x6AE JUMP JUMPDEST SWAP2 SWAP1 POP DUP2 SWAP1 SSTORE POP PUSH1 0x2 SLOAD PUSH1 0x6 SLOAD SUB PUSH2 0x253 JUMPI PUSH1 0x0 CALLER PUSH20 0xFFFFFFFFFFFFFFFFFFFFFFFFFFFFFFFFFFFFFFFF AND SELFBALANCE PUSH1 0x40 MLOAD PUSH2 0x158 SWAP1 PUSH2 0x727 JUMP JUMPDEST PUSH1 0x0 PUSH1 0x40 MLOAD DUP1 DUP4 SUB DUP2 DUP6 DUP8 GAS CALL SWAP3 POP POP POP RETURNDATASIZE DUP1 PUSH1 0x0 DUP2 EQ PUSH2 0x195 JUMPI PUSH1 0x40 MLOAD SWAP2 POP PUSH1 0x1F NOT PUSH1 0x3F RETURNDATASIZE ADD AND DUP3 ADD PUSH1 0x40 MSTORE RETURNDATASIZE DUP3 MSTORE RETURNDATASIZE PUSH1 0x0 PUSH1 0x20 DUP5 ADD RETURNDATACOPY PUSH2 0x19A JUMP JUMPDEST PUSH1 0x60 SWAP2 POP JUMPDEST POP POP SWAP1 POP DUP1 PUSH2 0x1DE JUMPI PUSH1 0x40 MLOAD PUSH32 0x8C379A000000000000000000000000000000000000000000000000000000000 DUP2 MSTORE PUSH1 0x4 ADD PUSH2 0x1D5 SWAP1 PUSH2 0x788 JUMP JUMPDEST PUSH1 0x40 MLOAD DUP1 SWAP2 SUB SWAP1 REVERT JUMPDEST PUSH1 0x0 PUSH1 0x6 DUP2 SWAP1 SSTORE POP PUSH1 0x5 PUSH1 0x0 DUP2 SLOAD PUSH2 0x1F5 SWAP1 PUSH2 0x6AE JUMP JUMPDEST SWAP2 SWAP1 POP DUP2 SWAP1 SSTORE POP PUSH2 0x204 PUSH2 0x3B9 JUMP JUMPDEST PUSH1 0x2 DUP2 SWAP1 SSTORE POP CALLER PUSH20 0xFFFFFFFFFFFFFFFFFFFFFFFFFFFFFFFFFFFFFFFF AND PUSH32 0xD7B5435FA0DD93954C7955210A67950D9385F8CD60631432712709E265EC99CA PUSH1 0x40 MLOAD PUSH1 0x40 MLOAD DUP1 SWAP2 SUB SWAP1 LOG2 POP PUSH2 0x2A2 JUMP JUMPDEST CALLER PUSH20 0xFFFFFFFFFFFFFFFFFFFFFFFFFFFFFFFFFFFFFFFF AND PUSH32 0x20384C35AF44AE3E0536C765E1CEE107339D7CA70B092472C816A3A62E4BA659 CALLVALUE PUSH1 0x40 MLOAD PUSH2 0x299 SWAP2 SWAP1 PUSH2 0x7B7 JUMP JUMPDEST PUSH1 0x40 MLOAD DUP1 SWAP2 SUB SWAP1 LOG2 JUMPDEST STOP JUMPDEST PUSH1 0x0 DUP1 REVERT JUMPDEST CALLVALUE DUP1 ISZERO PUSH2 0x2B5 JUMPI PUSH1 0x0 DUP1 REVERT JUMPDEST POP PUSH2 0x2BE PUSH2 0x441 JUMP JUMPDEST PUSH1 0x40 MLOAD PUSH2 0x2CB SWAP2 SWAP1 PUSH2 0x7B7 JUMP JUMPDEST PUSH1 0x40 MLOAD DUP1 SWAP2 SUB SWAP1 RETURN JUMPDEST CALLVALUE DUP1 ISZERO PUSH2 0x2E0 JUMPI PUSH1 0x0 DUP1 REVERT JUMPDEST POP PUSH2 0x2E9 PUSH2 0x447 JUMP JUMPDEST PUSH1 0x40 MLOAD PUSH2 0x2F6 SWAP2 SWAP1 PUSH2 0x7B7 JUMP JUMPDEST PUSH1 0x40 MLOAD DUP1 SWAP2 SUB SWAP1 RETURN JUMPDEST CALLVALUE DUP1 ISZERO PUSH2 0x30B JUMPI PUSH1 0x0 DUP1 REVERT JUMPDEST POP PUSH2 0x326 PUSH1 0x4 DUP1 CALLDATASIZE SUB DUP2 ADD SWAP1 PUSH2 0x321 SWAP2 SWAP1 PUSH2 0x958 JUMP JUMPDEST PUSH2 0x44D JUMP JUMPDEST STOP JUMPDEST CALLVALUE DUP1 ISZERO PUSH2 0x334 JUMPI PUSH1 0x0 DUP1 REVERT JUMPDEST POP PUSH2 0x34F PUSH1 0x4 DUP1 CALLDATASIZE SUB DUP2 ADD SWAP1 PUSH2 0x34A SWAP2 SWAP1 PUSH2 0x958 JUMP JUMPDEST PUSH2 0x4F8 JUMP JUMPDEST STOP JUMPDEST CALLVALUE DUP1 ISZERO PUSH2 0x35D JUMPI PUSH1 0x0 DUP1 REVERT JUMPDEST POP PUSH2 0x366 PUSH2 0x5A3 JUMP JUMPDEST PUSH1 0x40 MLOAD PUSH2 0x373 SWAP2 SWAP1 PUSH2 0x9F5 JUMP JUMPDEST PUSH1 0x40 MLOAD DUP1 SWAP2 SUB SWAP1 RETURN JUMPDEST CALLVALUE DUP1 ISZERO PUSH2 0x388 JUMPI PUSH1 0x0 DUP1 REVERT JUMPDEST POP PUSH2 0x3A3 PUSH1 0x4 DUP1 CALLDATASIZE SUB DUP2 ADD SWAP1 PUSH2 0x39E SWAP2 SWAP1 PUSH2 0xA3C JUMP JUMPDEST PUSH2 0x5C9 JUMP JUMPDEST PUSH1 0x40 MLOAD PUSH2 0x3B0 SWAP2 SWAP1 PUSH2 0xA97 JUMP JUMPDEST PUSH1 0x40 MLOAD DUP1 SWAP2 SUB SWAP1 RETURN JUMPDEST PUSH1 0x0 DUP1 NUMBER TIMESTAMP PUSH1 0x4 SLOAD PUSH1 0x3 PUSH1 0x40 MLOAD PUSH1 0x20 ADD PUSH2 0x3D3 SWAP2 SWAP1 PUSH2 0xBAB JUMP JUMPDEST PUSH1 0x40 MLOAD PUSH1 0x20 DUP2 DUP4 SUB SUB DUP2 MSTORE SWAP1 PUSH1 0x40 MSTORE DUP1 MLOAD SWAP1 PUSH1 0x20 ADD KECCAK256 PUSH1 0x0 SHR PUSH2 0x3F6 SWAP2 SWAP1 PUSH2 0xBCD JUMP JUMPDEST PUSH2 0x400 SWAP2 SWAP1 PUSH2 0xBCD JUMP JUMPDEST PUSH2 0x40A SWAP2 SWAP1 PUSH2 0xBCD JUMP JUMPDEST SWAP1 POP PUSH1 0x1 PUSH1 0xA DUP1 DUP4 PUSH2 0x41C SWAP2 SWAP1 PUSH2 0xC30 JUMP JUMPDEST PUSH2 0x426 SWAP2 SWAP1 PUSH2 0xC61 JUMP JUMPDEST DUP3 PUSH2 0x431 SWAP2 SWAP1 PUSH2 0xCA3 JUMP JUMPDEST PUSH2 0x43B SWAP2 SWAP1 PUSH2 0xBCD JUMP JUMPDEST SWAP2 POP POP SWAP1 JUMP JUMPDEST PUSH1 0x6 SLOAD DUP2 JUMP JUMPDEST PUSH1 0x5 SLOAD DUP2 JUMP JUMPDEST PUSH1 0x1 PUSH1 0x0 SWAP1 SLOAD SWAP1 PUSH2 0x100 EXP SWAP1 DIV PUSH20 0xFFFFFFFFFFFFFFFFFFFFFFFFFFFFFFFFFFFFFFFF AND PUSH20 0xFFFFFFFFFFFFFFFFFFFFFFFFFFFFFFFFFFFFFFFF AND CALLER PUSH20 0xFFFFFFFFFFFFFFFFFFFFFFFFFFFFFFFFFFFFFFFF AND EQ PUSH2 0x4DD JUMPI PUSH1 0x40 MLOAD PUSH32 0x8C379A000000000000000000000000000000000000000000000000000000000 DUP2 MSTORE PUSH1 0x4 ADD PUSH2 0x4D4 SWAP1 PUSH2 0xD23 JUMP JUMPDEST PUSH1 0x40 MLOAD DUP1 SWAP2 SUB SWAP1 REVERT JUMPDEST DUP2 PUSH1 0x3 SWAP1 DUP2 PUSH2 0x4EC SWAP2 SWAP1 PUSH2 0xEE5 JUMP JUMPDEST POP DUP1 PUSH1 0x4 DUP2 SWAP1 SSTORE POP POP POP JUMP JUMPDEST PUSH1 0x1 PUSH1 0x0 SWAP1 SLOAD SWAP1 PUSH2 0x100 EXP SWAP1 DIV PUSH20 0xFFFFFFFFFFFFFFFFFFFFFFFFFFFFFFFFFFFFFFFF AND PUSH20 0xFFFFFFFFFFFFFFFFFFFFFFFFFFFFFFFFFFFFFFFF AND CALLER PUSH20 0xFFFFFFFFFFFFFFFFFFFFFFFFFFFFFFFFFFFFFFFF AND EQ PUSH2 0x588 JUMPI PUSH1 0x40 MLOAD PUSH32 0x8C379A000000000000000000000000000000000000000000000000000000000 DUP2 MSTORE PUSH1 0x4 ADD PUSH2 0x57F SWAP1 PUSH2 0xD23 JUMP JUMPDEST PUSH1 0x40 MLOAD DUP1 SWAP2 SUB SWAP1 REVERT JUMPDEST DUP2 PUSH1 0x3 SWAP1 DUP2 PUSH2 0x597 SWAP2 SWAP1 PUSH2 0xEE5 JUMP JUMPDEST POP DUP1 PUSH1 0x4 DUP2 SWAP1 SSTORE POP POP POP JUMP JUMPDEST PUSH1 0x1 PUSH1 0x0 SWAP1 SLOAD SWAP1 PUSH2 0x100 EXP SWAP1 DIV PUSH20 0xFFFFFFFFFFFFFFFFFFFFFFFFFFFFFFFFFFFFFFFF AND DUP2 JUMP JUMPDEST PUSH1 0x0 PUSH1 0x20 MSTORE DUP2 PUSH1 0x0 MSTORE PUSH1 0x40 PUSH1 0x0 KECCAK256 PUSH1 0x20 MSTORE DUP1 PUSH1 0x0 MSTORE PUSH1 0x40 PUSH1 0x0 KECCAK256 PUSH1 0x0 SWAP2 POP SWAP2 POP SWAP1 SLOAD SWAP1 PUSH2 0x100 EXP SWAP1 DIV PUSH1 0xFF AND DUP2 JUMP JUMPDEST PUSH1 0x0 DUP3 DUP3 MSTORE PUSH1 0x20 DUP3 ADD SWAP1 POP SWAP3 SWAP2 POP POP JUMP JUMPDEST PUSH32 0x4D757374626520302E3030312065746865720000000000000000000000000000 PUSH1 0x0 DUP3 ADD MSTORE POP JUMP JUMPDEST PUSH1 0x0 PUSH2 0x63F PUSH1 0x12 DUP4 PUSH2 0x5F8 JUMP JUMPDEST SWAP2 POP PUSH2 0x64A DUP3 PUSH2 0x609 JUMP JUMPDEST PUSH1 0x20 DUP3 ADD SWAP1 POP SWAP2 SWAP1 POP JUMP JUMPDEST PUSH1 0x0 PUSH1 0x20 DUP3 ADD SWAP1 POP DUP2 DUP2 SUB PUSH1 0x0 DUP4 ADD MSTORE PUSH2 0x66E DUP2 PUSH2 0x632 JUMP JUMPDEST SWAP1 POP SWAP2 SWAP1 POP JUMP JUMPDEST PUSH32 0x4E487B7100000000000000000000000000000000000000000000000000000000 PUSH1 0x0 MSTORE PUSH1 0x11 PUSH1 0x4 MSTORE PUSH1 0x24 PUSH1 0x0 REVERT JUMPDEST PUSH1 0x0 DUP2 SWAP1 POP SWAP2 SWAP1 POP JUMP JUMPDEST PUSH1 0x0 PUSH2 0x6B9 DUP3 PUSH2 0x6A4 JUMP JUMPDEST SWAP2 POP PUSH32 0xFFFFFFFFFFFFFFFFFFFFFFFFFFFFFFFFFFFFFFFFFFFFFFFFFFFFFFFFFFFFFFFF DUP3 SUB PUSH2 0x6EB JUMPI PUSH2 0x6EA PUSH2 0x675 JUMP JUMPDEST JUMPDEST PUSH1 0x1 DUP3 ADD SWAP1 POP SWAP2 SWAP1 POP JUMP JUMPDEST PUSH1 0x0 DUP2 SWAP1 POP SWAP3 SWAP2 POP POP JUMP JUMPDEST POP JUMP JUMPDEST PUSH1 0x0 PUSH2 0x711 PUSH1 0x0 DUP4 PUSH2 0x6F6 JUMP JUMPDEST SWAP2 POP PUSH2 0x71C DUP3 PUSH2 0x701 JUMP JUMPDEST PUSH1 0x0 DUP3 ADD SWAP1 POP SWAP2 SWAP1 POP JUMP JUMPDEST PUSH1 0x0 PUSH2 0x732 DUP3 PUSH2 0x704 JUMP JUMPDEST SWAP2 POP DUP2 SWAP1 POP SWAP2 SWAP1 POP JUMP JUMPDEST PUSH32 0x4661696C65640000000000000000000000000000000000000000000000000000 PUSH1 0x0 DUP3 ADD MSTORE POP JUMP JUMPDEST PUSH1 0x0 PUSH2 0x772 PUSH1 0x6 DUP4 PUSH2 0x5F8 JUMP JUMPDEST SWAP2 POP PUSH2 0x77D DUP3 PUSH2 0x73C JUMP JUMPDEST PUSH1 0x20 DUP3 ADD SWAP1 POP SWAP2 SWAP1 POP JUMP JUMPDEST PUSH1 0x0 PUSH1 0x20 DUP3 ADD SWAP1 POP DUP2 DUP2 SUB PUSH1 0x0 DUP4 ADD MSTORE PUSH2 0x7A1 DUP2 PUSH2 0x765 JUMP JUMPDEST SWAP1 POP SWAP2 SWAP1 POP JUMP JUMPDEST PUSH2 0x7B1 DUP2 PUSH2 0x6A4 JUMP JUMPDEST DUP3 MSTORE POP POP JUMP JUMPDEST PUSH1 0x0 PUSH1 0x20 DUP3 ADD SWAP1 POP PUSH2 0x7CC PUSH1 0x0 DUP4 ADD DUP5 PUSH2 0x7A8 JUMP JUMPDEST SWAP3 SWAP2 POP POP JUMP JUMPDEST PUSH1 0x0 PUSH1 0x40 MLOAD SWAP1 POP SWAP1 JUMP JUMPDEST PUSH1 0x0 DUP1 REVERT JUMPDEST PUSH1 0x0 DUP1 REVERT JUMPDEST PUSH1 0x0 DUP1 REVERT JUMPDEST PUSH1 0x0 DUP1 REVERT JUMPDEST PUSH1 0x0 PUSH1 0x1F NOT PUSH1 0x1F DUP4 ADD AND SWAP1 POP SWAP2 SWAP1 POP JUMP JUMPDEST PUSH32 0x4E487B7100000000000000000000000000000000000000000000000000000000 PUSH1 0x0 MSTORE PUSH1 0x41 PUSH1 0x4 MSTORE PUSH1 0x24 PUSH1 0x0 REVERT JUMPDEST PUSH2 0x839 DUP3 PUSH2 0x7F0 JUMP JUMPDEST DUP2 ADD DUP2 DUP2 LT PUSH8 0xFFFFFFFFFFFFFFFF DUP3 GT OR ISZERO PUSH2 0x858 JUMPI PUSH2 0x857 PUSH2 0x801 JUMP JUMPDEST JUMPDEST DUP1 PUSH1 0x40 MSTORE POP POP POP JUMP JUMPDEST PUSH1 0x0 PUSH2 0x86B PUSH2 0x7D2 JUMP JUMPDEST SWAP1 POP PUSH2 0x877 DUP3 DUP3 PUSH2 0x830 JUMP JUMPDEST SWAP2 SWAP1 POP JUMP JUMPDEST PUSH1 0x0 PUSH8 0xFFFFFFFFFFFFFFFF DUP3 GT ISZERO PUSH2 0x897 JUMPI PUSH2 0x896 PUSH2 0x801 JUMP JUMPDEST JUMPDEST PUSH2 0x8A0 DUP3 PUSH2 0x7F0 JUMP JUMPDEST SWAP1 POP PUSH1 0x20 DUP2 ADD SWAP1 POP SWAP2 SWAP1 POP JUMP JUMPDEST DUP3 DUP2 DUP4 CALLDATACOPY PUSH1 0x0 DUP4 DUP4 ADD MSTORE POP POP POP JUMP JUMPDEST PUSH1 0x0 PUSH2 0x8CF PUSH2 0x8CA DUP5 PUSH2 0x87C JUMP JUMPDEST PUSH2 0x861 JUMP JUMPDEST SWAP1 POP DUP3 DUP2 MSTORE PUSH1 0x20 DUP2 ADD DUP5 DUP5 DUP5 ADD GT ISZERO PUSH2 0x8EB JUMPI PUSH2 0x8EA PUSH2 0x7EB JUMP JUMPDEST JUMPDEST PUSH2 0x8F6 DUP5 DUP3 DUP6 PUSH2 0x8AD JUMP JUMPDEST POP SWAP4 SWAP3 POP POP POP JUMP JUMPDEST PUSH1 0x0 DUP3 PUSH1 0x1F DUP4 ADD SLT PUSH2 0x913 JUMPI PUSH2 0x912 PUSH2 0x7E6 JUMP JUMPDEST JUMPDEST DUP2 CALLDATALOAD PUSH2 0x923 DUP5 DUP3 PUSH1 0x20 DUP7 ADD PUSH2 0x8BC JUMP JUMPDEST SWAP2 POP POP SWAP3 SWAP2 POP POP JUMP JUMPDEST PUSH2 0x935 DUP2 PUSH2 0x6A4 JUMP JUMPDEST DUP2 EQ PUSH2 0x940 JUMPI PUSH1 0x0 DUP1 REVERT JUMPDEST POP JUMP JUMPDEST PUSH1 0x0 DUP2 CALLDATALOAD SWAP1 POP PUSH2 0x952 DUP2 PUSH2 0x92C JUMP JUMPDEST SWAP3 SWAP2 POP POP JUMP JUMPDEST PUSH1 0x0 DUP1 PUSH1 0x40 DUP4 DUP6 SUB SLT ISZERO PUSH2 0x96F JUMPI PUSH2 0x96E PUSH2 0x7DC JUMP JUMPDEST JUMPDEST PUSH1 0x0 DUP4 ADD CALLDATALOAD PUSH8 0xFFFFFFFFFFFFFFFF DUP2 GT ISZERO PUSH2 0x98D JUMPI PUSH2 0x98C PUSH2 0x7E1 JUMP JUMPDEST JUMPDEST PUSH2 0x999 DUP6 DUP3 DUP7 ADD PUSH2 0x8FE JUMP JUMPDEST SWAP3 POP POP PUSH1 0x20 PUSH2 0x9AA DUP6 DUP3 DUP7 ADD PUSH2 0x943 JUMP JUMPDEST SWAP2 POP POP SWAP3 POP SWAP3 SWAP1 POP JUMP JUMPDEST PUSH1 0x0 PUSH20 0xFFFFFFFFFFFFFFFFFFFFFFFFFFFFFFFFFFFFFFFF DUP3 AND SWAP1 POP SWAP2 SWAP1 POP JUMP JUMPDEST PUSH1 0x0 PUSH2 0x9DF DUP3 PUSH2 0x9B4 JUMP JUMPDEST SWAP1 POP SWAP2 SWAP1 POP JUMP JUMPDEST PUSH2 0x9EF DUP2 PUSH2 0x9D4 JUMP JUMPDEST DUP3 MSTORE POP POP JUMP JUMPDEST PUSH1 0x0 PUSH1 0x20 DUP3 ADD SWAP1 POP PUSH2 0xA0A PUSH1 0x0 DUP4 ADD DUP5 PUSH2 0x9E6 JUMP JUMPDEST SWAP3 SWAP2 POP POP JUMP JUMPDEST PUSH2 0xA19 DUP2 PUSH2 0x9D4 JUMP JUMPDEST DUP2 EQ PUSH2 0xA24 JUMPI PUSH1 0x0 DUP1 REVERT JUMPDEST POP JUMP JUMPDEST PUSH1 0x0 DUP2 CALLDATALOAD SWAP1 POP PUSH2 0xA36 DUP2 PUSH2 0xA10 JUMP JUMPDEST SWAP3 SWAP2 POP POP JUMP JUMPDEST PUSH1 0x0 DUP1 PUSH1 0x40 DUP4 DUP6 SUB SLT ISZERO PUSH2 0xA53 JUMPI PUSH2 0xA52 PUSH2 0x7DC JUMP JUMPDEST JUMPDEST PUSH1 0x0 PUSH2 0xA61 DUP6 DUP3 DUP7 ADD PUSH2 0x943 JUMP JUMPDEST SWAP3 POP POP PUSH1 0x20 PUSH2 0xA72 DUP6 DUP3 DUP7 ADD PUSH2 0xA27 JUMP JUMPDEST SWAP2 POP POP SWAP3 POP SWAP3 SWAP1 POP JUMP JUMPDEST PUSH1 0x0 DUP2 ISZERO ISZERO SWAP1 POP SWAP2 SWAP1 POP JUMP JUMPDEST PUSH2 0xA91 DUP2 PUSH2 0xA7C JUMP JUMPDEST DUP3 MSTORE POP POP JUMP JUMPDEST PUSH1 0x0 PUSH1 0x20 DUP3 ADD SWAP1 POP PUSH2 0xAAC PUSH1 0x0 DUP4 ADD DUP5 PUSH2 0xA88 JUMP JUMPDEST SWAP3 SWAP2 POP POP JUMP JUMPDEST PUSH32 0x4E487B7100000000000000000000000000000000000000000000000000000000 PUSH1 0x0 MSTORE PUSH1 0x22 PUSH1 0x4 MSTORE PUSH1 0x24 PUSH1 0x0 REVERT JUMPDEST PUSH1 0x0 PUSH1 0x2 DUP3 DIV SWAP1 POP PUSH1 0x1 DUP3 AND DUP1 PUSH2 0xAF9 JUMPI PUSH1 0x7F DUP3 AND SWAP2 POP JUMPDEST PUSH1 0x20 DUP3 LT DUP2 SUB PUSH2 0xB0C JUMPI PUSH2 0xB0B PUSH2 0xAB2 JUMP JUMPDEST JUMPDEST POP SWAP2 SWAP1 POP JUMP JUMPDEST PUSH1 0x0 DUP2 SWAP1 POP DUP2 PUSH1 0x0 MSTORE PUSH1 0x20 PUSH1 0x0 KECCAK256 SWAP1 POP SWAP2 SWAP1 POP JUMP JUMPDEST PUSH1 0x0 DUP2 SLOAD PUSH2 0xB34 DUP2 PUSH2 0xAE1 JUMP JUMPDEST PUSH2 0xB3E DUP2 DUP7 PUSH2 0x5F8 JUMP JUMPDEST SWAP5 POP PUSH1 0x1 DUP3 AND PUSH1 0x0 DUP2 EQ PUSH2 0xB59 JUMPI PUSH1 0x1 DUP2 EQ PUSH2 0xB6F JUMPI PUSH2 0xBA2 JUMP JUMPDEST PUSH1 0xFF NOT DUP4 AND DUP7 MSTORE DUP2 ISZERO ISZERO PUSH1 0x20 MUL DUP7 ADD SWAP4 POP PUSH2 0xBA2 JUMP JUMPDEST PUSH2 0xB78 DUP6 PUSH2 0xB12 JUMP JUMPDEST PUSH1 0x0 JUMPDEST DUP4 DUP2 LT ISZERO PUSH2 0xB9A JUMPI DUP2 SLOAD DUP2 DUP10 ADD MSTORE PUSH1 0x1 DUP3 ADD SWAP2 POP PUSH1 0x20 DUP2 ADD SWAP1 POP PUSH2 0xB7B JUMP JUMPDEST DUP1 DUP9 ADD SWAP6 POP POP POP JUMPDEST POP POP POP SWAP3 SWAP2 POP POP JUMP JUMPDEST PUSH1 0x0 PUSH1 0x20 DUP3 ADD SWAP1 POP DUP2 DUP2 SUB PUSH1 0x0 DUP4 ADD MSTORE PUSH2 0xBC5 DUP2 DUP5 PUSH2 0xB27 JUMP JUMPDEST SWAP1 POP SWAP3 SWAP2 POP POP JUMP JUMPDEST PUSH1 0x0 PUSH2 0xBD8 DUP3 PUSH2 0x6A4 JUMP JUMPDEST SWAP2 POP PUSH2 0xBE3 DUP4 PUSH2 0x6A4 JUMP JUMPDEST SWAP3 POP DUP3 DUP3 ADD SWAP1 POP DUP1 DUP3 GT ISZERO PUSH2 0xBFB JUMPI PUSH2 0xBFA PUSH2 0x675 JUMP JUMPDEST JUMPDEST SWAP3 SWAP2 POP POP JUMP JUMPDEST PUSH32 0x4E487B7100000000000000000000000000000000000000000000000000000000 PUSH1 0x0 MSTORE PUSH1 0x12 PUSH1 0x4 MSTORE PUSH1 0x24 PUSH1 0x0 REVERT JUMPDEST PUSH1 0x0 PUSH2 0xC3B DUP3 PUSH2 0x6A4 JUMP JUMPDEST SWAP2 POP PUSH2 0xC46 DUP4 PUSH2 0x6A4 JUMP JUMPDEST SWAP3 POP DUP3 PUSH2 0xC56 JUMPI PUSH2 0xC55 PUSH2 0xC01 JUMP JUMPDEST JUMPDEST DUP3 DUP3 DIV SWAP1 POP SWAP3 SWAP2 POP POP JUMP JUMPDEST PUSH1 0x0 PUSH2 0xC6C DUP3 PUSH2 0x6A4 JUMP JUMPDEST SWAP2 POP PUSH2 0xC77 DUP4 PUSH2 0x6A4 JUMP JUMPDEST SWAP3 POP DUP3 DUP3 MUL PUSH2 0xC85 DUP2 PUSH2 0x6A4 JUMP JUMPDEST SWAP2 POP DUP3 DUP3 DIV DUP5 EQ DUP4 ISZERO OR PUSH2 0xC9C JUMPI PUSH2 0xC9B PUSH2 0x675 JUMP JUMPDEST JUMPDEST POP SWAP3 SWAP2 POP POP JUMP JUMPDEST PUSH1 0x0 PUSH2 0xCAE DUP3 PUSH2 0x6A4 JUMP JUMPDEST SWAP2 POP PUSH2 0xCB9 DUP4 PUSH2 0x6A4 JUMP JUMPDEST SWAP3 POP DUP3 DUP3 SUB SWAP1 POP DUP2 DUP2 GT ISZERO PUSH2 0xCD1 JUMPI PUSH2 0xCD0 PUSH2 0x675 JUMP JUMPDEST JUMPDEST SWAP3 SWAP2 POP POP JUMP JUMPDEST PUSH32 0x4F776E61626C653A2063616C6C6572206973206E6F7420746865206F776E6572 PUSH1 0x0 DUP3 ADD MSTORE POP JUMP JUMPDEST PUSH1 0x0 PUSH2 0xD0D PUSH1 0x20 DUP4 PUSH2 0x5F8 JUMP JUMPDEST SWAP2 POP PUSH2 0xD18 DUP3 PUSH2 0xCD7 JUMP JUMPDEST PUSH1 0x20 DUP3 ADD SWAP1 POP SWAP2 SWAP1 POP JUMP JUMPDEST PUSH1 0x0 PUSH1 0x20 DUP3 ADD SWAP1 POP DUP2 DUP2 SUB PUSH1 0x0 DUP4 ADD MSTORE PUSH2 0xD3C DUP2 PUSH2 0xD00 JUMP JUMPDEST SWAP1 POP SWAP2 SWAP1 POP JUMP JUMPDEST PUSH1 0x0 DUP2 MLOAD SWAP1 POP SWAP2 SWAP1 POP JUMP JUMPDEST PUSH1 0x0 PUSH1 0x20 PUSH1 0x1F DUP4 ADD DIV SWAP1 POP SWAP2 SWAP1 POP JUMP JUMPDEST PUSH1 0x0 DUP3 DUP3 SHL SWAP1 POP SWAP3 SWAP2 POP POP JUMP JUMPDEST PUSH1 0x0 PUSH1 0x8 DUP4 MUL PUSH2 0xD9B PUSH32 0xFFFFFFFFFFFFFFFFFFFFFFFFFFFFFFFFFFFFFFFFFFFFFFFFFFFFFFFFFFFFFFFF DUP3 PUSH2 0xD5E JUMP JUMPDEST PUSH2 0xDA5 DUP7 DUP4 PUSH2 0xD5E JUMP JUMPDEST SWAP6 POP DUP1 NOT DUP5 AND SWAP4 POP DUP1 DUP7 AND DUP5 OR SWAP3 POP POP POP SWAP4 SWAP3 POP POP POP JUMP JUMPDEST PUSH1 0x0 DUP2 SWAP1 POP SWAP2 SWAP1 POP JUMP JUMPDEST PUSH1 0x0 PUSH2 0xDE2 PUSH2 0xDDD PUSH2 0xDD8 DUP5 PUSH2 0x6A4 JUMP JUMPDEST PUSH2 0xDBD JUMP JUMPDEST PUSH2 0x6A4 JUMP JUMPDEST SWAP1 POP SWAP2 SWAP1 POP JUMP JUMPDEST PUSH1 0x0 DUP2 SWAP1 POP SWAP2 SWAP1 POP JUMP JUMPDEST PUSH2 0xDFC DUP4 PUSH2 0xDC7 JUMP JUMPDEST PUSH2 0xE10 PUSH2 0xE08 DUP3 PUSH2 0xDE9 JUMP JUMPDEST DUP5 DUP5 SLOAD PUSH2 0xD6B JUMP JUMPDEST DUP3 SSTORE POP POP POP POP JUMP JUMPDEST PUSH1 0x0 SWAP1 JUMP JUMPDEST PUSH2 0xE25 PUSH2 0xE18 JUMP JUMPDEST PUSH2 0xE30 DUP2 DUP5 DUP5 PUSH2 0xDF3 JUMP JUMPDEST POP POP POP JUMP JUMPDEST JUMPDEST DUP2 DUP2 LT ISZERO PUSH2 0xE54 JUMPI PUSH2 0xE49 PUSH1 0x0 DUP3 PUSH2 0xE1D JUMP JUMPDEST PUSH1 0x1 DUP2 ADD SWAP1 POP PUSH2 0xE36 JUMP JUMPDEST POP POP JUMP JUMPDEST PUSH1 0x1F DUP3 GT ISZERO PUSH2 0xE99 JUMPI PUSH2 0xE6A DUP2 PUSH2 0xB12 JUMP JUMPDEST PUSH2 0xE73 DUP5 PUSH2 0xD4E JUMP JUMPDEST DUP2 ADD PUSH1 0x20 DUP6 LT ISZERO PUSH2 0xE82 JUMPI DUP2 SWAP1 POP JUMPDEST PUSH2 0xE96 PUSH2 0xE8E DUP6 PUSH2 0xD4E JUMP JUMPDEST DUP4 ADD DUP3 PUSH2 0xE35 JUMP JUMPDEST POP POP JUMPDEST POP POP POP JUMP JUMPDEST PUSH1 0x0 DUP3 DUP3 SHR SWAP1 POP SWAP3 SWAP2 POP POP JUMP JUMPDEST PUSH1 0x0 PUSH2 0xEBC PUSH1 0x0 NOT DUP5 PUSH1 0x8 MUL PUSH2 0xE9E JUMP JUMPDEST NOT DUP1 DUP4 AND SWAP2 POP POP SWAP3 SWAP2 POP POP JUMP JUMPDEST PUSH1 0x0 PUSH2 0xED5 DUP4 DUP4 PUSH2 0xEAB JUMP JUMPDEST SWAP2 POP DUP3 PUSH1 0x2 MUL DUP3 OR SWAP1 POP SWAP3 SWAP2 POP POP JUMP JUMPDEST PUSH2 0xEEE DUP3 PUSH2 0xD43 JUMP JUMPDEST PUSH8 0xFFFFFFFFFFFFFFFF DUP2 GT ISZERO PUSH2 0xF07 JUMPI PUSH2 0xF06 PUSH2 0x801 JUMP JUMPDEST JUMPDEST PUSH2 0xF11 DUP3 SLOAD PUSH2 0xAE1 JUMP JUMPDEST PUSH2 0xF1C DUP3 DUP3 DUP6 PUSH2 0xE58 JUMP JUMPDEST PUSH1 0x0 PUSH1 0x20 SWAP1 POP PUSH1 0x1F DUP4 GT PUSH1 0x1 DUP2 EQ PUSH2 0xF4F JUMPI PUSH1 0x0 DUP5 ISZERO PUSH2 0xF3D JUMPI DUP3 DUP8 ADD MLOAD SWAP1 POP JUMPDEST PUSH2 0xF47 DUP6 DUP3 PUSH2 0xEC9 JUMP JUMPDEST DUP7 SSTORE POP PUSH2 0xFAF JUMP JUMPDEST PUSH1 0x1F NOT DUP5 AND PUSH2 0xF5D DUP7 PUSH2 0xB12 JUMP JUMPDEST PUSH1 0x0 JUMPDEST DUP3 DUP2 LT ISZERO PUSH2 0xF85 JUMPI DUP5 DUP10 ADD MLOAD DUP3 SSTORE PUSH1 0x1 DUP3 ADD SWAP2 POP PUSH1 0x20 DUP6 ADD SWAP5 POP PUSH1 0x20 DUP2 ADD SWAP1 POP PUSH2 0xF60 JUMP JUMPDEST DUP7 DUP4 LT ISZERO PUSH2 0xFA2 JUMPI DUP5 DUP10 ADD MLOAD PUSH2 0xF9E PUSH1 0x1F DUP10 AND DUP3 PUSH2 0xEAB JUMP JUMPDEST DUP4 SSTORE POP JUMPDEST PUSH1 0x1 PUSH1 0x2 DUP9 MUL ADD DUP9 SSTORE POP POP POP JUMPDEST POP POP POP POP POP POP JUMP INVALID LOG2 PUSH5 0x6970667358 0x22 SLT KECCAK256 MUL SUB PUSH8 0x346D7E66F994458 PUSH12 0x7F051BDECB2CD8E1A907B3A3 0xA6 0x29 DUP6 0xE3 DUP8 ADD CALLCODE MSIZE PUSH5 0x736F6C6343 STOP ADDMOD GT STOP CALLER "
				},
				"gasEstimates": {
					"creation": {
						"codeDepositCost": "815400",
						"executionCost": "infinite",
						"totalCost": "infinite"
					},
					"external": {
						"getSecretKey(string,uint256)": "infinite",
						"owner()": "2580",
						"paidAddressList(uint256,address)": "3175",
						"playNumber()": "2407",
						"round()": "2429",
						"setSecretKey(string,uint256)": "infinite"
					},
					"internal": {
						"randomNumber()": "infinite"
					}
				},
				"methodIdentifiers": {
					"getSecretKey(string,uint256)": "19e2eb86",
					"owner()": "8da5cb5b",
					"paidAddressList(uint256,address)": "cf66b989",
					"playNumber()": "0df516d8",
					"round()": "146ca531",
					"setSecretKey(string,uint256)": "5ef5cc89"
				}
			},
			"storageLayout": {
				"storage": [
					{
						"astId": 29,
						"contract": "chapter2/Random.sol:Random",
						"label": "paidAddressList",
						"offset": 0,
						"slot": "0",
						"type": "t_mapping(t_uint256,t_mapping(t_address,t_bool))"
					},
					{
						"astId": 31,
						"contract": "chapter2/Random.sol:Random",
						"label": "owner",
						"offset": 0,
						"slot": "1",
						"type": "t_address"
					},
					{
						"astId": 34,
						"contract": "chapter2/Random.sol:Random",
						"label": "winnerNumber",
						"offset": 0,
						"slot": "2",
						"type": "t_uint256"
					},
					{
						"astId": 36,
						"contract": "chapter2/Random.sol:Random",
						"label": "key1",
						"offset": 0,
						"slot": "3",
						"type": "t_string_storage"
					},
					{
						"astId": 38,
						"contract": "chapter2/Random.sol:Random",
						"label": "key2",
						"offset": 0,
						"slot": "4",
						"type": "t_uint256"
					},
					{
						"astId": 41,
						"contract": "chapter2/Random.sol:Random",
						"label": "round",
						"offset": 0,
						"slot": "5",
						"type": "t_uint256"
					},
					{
						"astId": 44,
						"contract": "chapter2/Random.sol:Random",
						"label": "playNumber",
						"offset": 0,
						"slot": "6",
						"type": "t_uint256"
					}
				],
				"types": {
					"t_address": {
						"encoding": "inplace",
						"label": "address",
						"numberOfBytes": "20"
					},
					"t_bool": {
						"encoding": "inplace",
						"label": "bool",
						"numberOfBytes": "1"
					},
					"t_mapping(t_address,t_bool)": {
						"encoding": "mapping",
						"key": "t_address",
						"label": "mapping(address => bool)",
						"numberOfBytes": "32",
						"value": "t_bool"
					},
					"t_mapping(t_uint256,t_mapping(t_address,t_bool))": {
						"encoding": "mapping",
						"key": "t_uint256",
						"label": "mapping(uint256 => mapping(address => bool))",
						"numberOfBytes": "32",
						"value": "t_mapping(t_address,t_bool)"
					},
					"t_string_storage": {
						"encoding": "bytes",
						"label": "string",
						"numberOfBytes": "32"
					},
					"t_uint256": {
						"encoding": "inplace",
						"label": "uint256",
						"numberOfBytes": "32"
					}
				}
			},
			"userdoc": {
				"kind": "user",
				"methods": {},
				"version": 1
			}
		}
	}
}