{
	"chapter2/Ex2_10.sol": {
		"Ex2_10": {
			"abi": [
				{
					"inputs": [
						{
							"internalType": "string",
							"name": "_name",
							"type": "string"
						},
						{
							"internalType": "uint256",
							"name": "_age",
							"type": "uint256"
						}
					],
					"name": "addArray",
					"outputs": [],
					"stateMutability": "nonpayable",
					"type": "function"
				},
				{
					"inputs": [
						{
							"internalType": "address",
							"name": "_key",
							"type": "address"
						},
						{
							"internalType": "string",
							"name": "_name",
							"type": "string"
						},
						{
							"internalType": "uint256",
							"name": "_age",
							"type": "uint256"
						}
					],
					"name": "addMapping",
					"outputs": [],
					"stateMutability": "nonpayable",
					"type": "function"
				},
				{
					"inputs": [
						{
							"internalType": "uint256",
							"name": "_index",
							"type": "uint256"
						}
					],
					"name": "getArrayName",
					"outputs": [
						{
							"internalType": "string",
							"name": "",
							"type": "string"
						}
					],
					"stateMutability": "view",
					"type": "function"
				},
				{
					"inputs": [
						{
							"internalType": "address",
							"name": "_key",
							"type": "address"
						}
					],
					"name": "getMappingAge",
					"outputs": [
						{
							"internalType": "uint256",
							"name": "",
							"type": "uint256"
						}
					],
					"stateMutability": "view",
					"type": "function"
				},
				{
					"inputs": [
						{
							"internalType": "uint256",
							"name": "",
							"type": "uint256"
						}
					],
					"name": "humanArray",
					"outputs": [
						{
							"internalType": "string",
							"name": "name",
							"type": "string"
						},
						{
							"internalType": "uint256",
							"name": "age",
							"type": "uint256"
						}
					],
					"stateMutability": "view",
					"type": "function"
				},
				{
					"inputs": [
						{
							"internalType": "address",
							"name": "",
							"type": "address"
						}
					],
					"name": "humanMapping",
					"outputs": [
						{
							"internalType": "string",
							"name": "name",
							"type": "string"
						},
						{
							"internalType": "uint256",
							"name": "age",
							"type": "uint256"
						}
					],
					"stateMutability": "view",
					"type": "function"
				}
			],
			"devdoc": {
				"kind": "dev",
				"methods": {},
				"version": 1
			},
			"evm": {
				"assembly": "    /* \"chapter2/Ex2_10.sol\":70:727  contract Ex2_10 {... */\n  mstore(0x40, 0x80)\n  callvalue\n  dup1\n  iszero\n  tag_1\n  jumpi\n  0x00\n  dup1\n  revert\ntag_1:\n  pop\n  dataSize(sub_0)\n  dup1\n  dataOffset(sub_0)\n  0x00\n  codecopy\n  0x00\n  return\nstop\n\nsub_0: assembly {\n        /* \"chapter2/Ex2_10.sol\":70:727  contract Ex2_10 {... */\n      mstore(0x40, 0x80)\n      callvalue\n      dup1\n      iszero\n      tag_1\n      jumpi\n      0x00\n      dup1\n      revert\n    tag_1:\n      pop\n      jumpi(tag_2, lt(calldatasize, 0x04))\n      shr(0xe0, calldataload(0x00))\n      dup1\n      0x0d3de88d\n      eq\n      tag_3\n      jumpi\n      dup1\n      0x0e0c243d\n      eq\n      tag_4\n      jumpi\n      dup1\n      0x564f2a73\n      eq\n      tag_5\n      jumpi\n      dup1\n      0xa677c48f\n      eq\n      tag_6\n      jumpi\n      dup1\n      0xa857bf32\n      eq\n      tag_7\n      jumpi\n      dup1\n      0xb9d6dedb\n      eq\n      tag_8\n      jumpi\n    tag_2:\n      0x00\n      dup1\n      revert\n        /* \"chapter2/Ex2_10.sol\":241:350  function addArray(string memory _name, uint _age) public {... */\n    tag_3:\n      tag_9\n      0x04\n      dup1\n      calldatasize\n      sub\n      dup2\n      add\n      swap1\n      tag_10\n      swap2\n      swap1\n      tag_11\n      jump\t// in\n    tag_10:\n      tag_12\n      jump\t// in\n    tag_9:\n      stop\n        /* \"chapter2/Ex2_10.sol\":479:608  function addMapping(address _key, string memory _name, uint _age) public {... */\n    tag_4:\n      tag_13\n      0x04\n      dup1\n      calldatasize\n      sub\n      dup2\n      add\n      swap1\n      tag_14\n      swap2\n      swap1\n      tag_15\n      jump\t// in\n    tag_14:\n      tag_16\n      jump\t// in\n    tag_13:\n      stop\n        /* \"chapter2/Ex2_10.sol\":614:723  function getMappingAge(address _key) public view returns(uint) {... */\n    tag_5:\n      tag_17\n      0x04\n      dup1\n      calldatasize\n      sub\n      dup2\n      add\n      swap1\n      tag_18\n      swap2\n      swap1\n      tag_19\n      jump\t// in\n    tag_18:\n      tag_20\n      jump\t// in\n    tag_17:\n      mload(0x40)\n      tag_21\n      swap2\n      swap1\n      tag_22\n      jump\t// in\n    tag_21:\n      mload(0x40)\n      dup1\n      swap2\n      sub\n      swap1\n      return\n        /* \"chapter2/Ex2_10.sol\":356:473  function getArrayName(uint _index) public view returns(string memory) {... */\n    tag_6:\n      tag_23\n      0x04\n      dup1\n      calldatasize\n      sub\n      dup2\n      add\n      swap1\n      tag_24\n      swap2\n      swap1\n      tag_25\n      jump\t// in\n    tag_24:\n      tag_26\n      jump\t// in\n    tag_23:\n      mload(0x40)\n      tag_27\n      swap2\n      swap1\n      tag_28\n      jump\t// in\n    tag_27:\n      mload(0x40)\n      dup1\n      swap2\n      sub\n      swap1\n      return\n        /* \"chapter2/Ex2_10.sol\":189:234  mapping(address => Human) public humanMapping */\n    tag_7:\n      tag_29\n      0x04\n      dup1\n      calldatasize\n      sub\n      dup2\n      add\n      swap1\n      tag_30\n      swap2\n      swap1\n      tag_19\n      jump\t// in\n    tag_30:\n      tag_31\n      jump\t// in\n    tag_29:\n      mload(0x40)\n      tag_32\n      swap3\n      swap2\n      swap1\n      tag_33\n      jump\t// in\n    tag_32:\n      mload(0x40)\n      dup1\n      swap2\n      sub\n      swap1\n      return\n        /* \"chapter2/Ex2_10.sol\":158:183  Human[] public humanArray */\n    tag_8:\n      tag_34\n      0x04\n      dup1\n      calldatasize\n      sub\n      dup2\n      add\n      swap1\n      tag_35\n      swap2\n      swap1\n      tag_25\n      jump\t// in\n    tag_35:\n      tag_36\n      jump\t// in\n    tag_34:\n      mload(0x40)\n      tag_37\n      swap3\n      swap2\n      swap1\n      tag_33\n      jump\t// in\n    tag_37:\n      mload(0x40)\n      dup1\n      swap2\n      sub\n      swap1\n      return\n        /* \"chapter2/Ex2_10.sol\":241:350  function addArray(string memory _name, uint _age) public {... */\n    tag_12:\n        /* \"chapter2/Ex2_10.sol\":308:318  humanArray */\n      0x00\n        /* \"chapter2/Ex2_10.sol\":324:342  Human(_name, _age) */\n      mload(0x40)\n      dup1\n      0x40\n      add\n      0x40\n      mstore\n      dup1\n        /* \"chapter2/Ex2_10.sol\":330:335  _name */\n      dup5\n        /* \"chapter2/Ex2_10.sol\":324:342  Human(_name, _age) */\n      dup2\n      mstore\n      0x20\n      add\n        /* \"chapter2/Ex2_10.sol\":337:341  _age */\n      dup4\n        /* \"chapter2/Ex2_10.sol\":324:342  Human(_name, _age) */\n      dup2\n      mstore\n      pop\n        /* \"chapter2/Ex2_10.sol\":308:343  humanArray.push(Human(_name, _age)) */\n      swap1\n      dup1\n      0x01\n      dup2\n      sload\n      add\n      dup1\n      dup3\n      sstore\n      dup1\n      swap2\n      pop\n      pop\n      0x01\n      swap1\n      sub\n      swap1\n      0x00\n      mstore\n      keccak256(0x00, 0x20)\n      swap1\n      0x02\n      mul\n      add\n      0x00\n      swap1\n      swap2\n      swap1\n      swap2\n      swap1\n      swap2\n      pop\n      0x00\n      dup3\n      add\n      mload\n      dup2\n      0x00\n      add\n      swap1\n      dup2\n      tag_40\n      swap2\n      swap1\n      tag_41\n      jump\t// in\n    tag_40:\n      pop\n      0x20\n      dup3\n      add\n      mload\n      dup2\n      0x01\n      add\n      sstore\n      pop\n      pop\n        /* \"chapter2/Ex2_10.sol\":241:350  function addArray(string memory _name, uint _age) public {... */\n      pop\n      pop\n      jump\t// out\n        /* \"chapter2/Ex2_10.sol\":479:608  function addMapping(address _key, string memory _name, uint _age) public {... */\n    tag_16:\n        /* \"chapter2/Ex2_10.sol\":583:601  Human(_name, _age) */\n      mload(0x40)\n      dup1\n      0x40\n      add\n      0x40\n      mstore\n      dup1\n        /* \"chapter2/Ex2_10.sol\":589:594  _name */\n      dup4\n        /* \"chapter2/Ex2_10.sol\":583:601  Human(_name, _age) */\n      dup2\n      mstore\n      0x20\n      add\n        /* \"chapter2/Ex2_10.sol\":596:600  _age */\n      dup3\n        /* \"chapter2/Ex2_10.sol\":583:601  Human(_name, _age) */\n      dup2\n      mstore\n      pop\n        /* \"chapter2/Ex2_10.sol\":562:574  humanMapping */\n      0x01\n        /* \"chapter2/Ex2_10.sol\":562:580  humanMapping[_key] */\n      0x00\n        /* \"chapter2/Ex2_10.sol\":575:579  _key */\n      dup6\n        /* \"chapter2/Ex2_10.sol\":562:580  humanMapping[_key] */\n      0xffffffffffffffffffffffffffffffffffffffff\n      and\n      0xffffffffffffffffffffffffffffffffffffffff\n      and\n      dup2\n      mstore\n      0x20\n      add\n      swap1\n      dup2\n      mstore\n      0x20\n      add\n      0x00\n      keccak256\n        /* \"chapter2/Ex2_10.sol\":562:601  humanMapping[_key] = Human(_name, _age) */\n      0x00\n      dup3\n      add\n      mload\n      dup2\n      0x00\n      add\n      swap1\n      dup2\n      tag_43\n      swap2\n      swap1\n      tag_41\n      jump\t// in\n    tag_43:\n      pop\n      0x20\n      dup3\n      add\n      mload\n      dup2\n      0x01\n      add\n      sstore\n      swap1\n      pop\n      pop\n        /* \"chapter2/Ex2_10.sol\":479:608  function addMapping(address _key, string memory _name, uint _age) public {... */\n      pop\n      pop\n      pop\n      jump\t// out\n        /* \"chapter2/Ex2_10.sol\":614:723  function getMappingAge(address _key) public view returns(uint) {... */\n    tag_20:\n        /* \"chapter2/Ex2_10.sol\":671:675  uint */\n      0x00\n        /* \"chapter2/Ex2_10.sol\":694:706  humanMapping */\n      0x01\n        /* \"chapter2/Ex2_10.sol\":694:712  humanMapping[_key] */\n      0x00\n        /* \"chapter2/Ex2_10.sol\":707:711  _key */\n      dup4\n        /* \"chapter2/Ex2_10.sol\":694:712  humanMapping[_key] */\n      0xffffffffffffffffffffffffffffffffffffffff\n      and\n      0xffffffffffffffffffffffffffffffffffffffff\n      and\n      dup2\n      mstore\n      0x20\n      add\n      swap1\n      dup2\n      mstore\n      0x20\n      add\n      0x00\n      keccak256\n        /* \"chapter2/Ex2_10.sol\":694:716  humanMapping[_key].age */\n      0x01\n      add\n      sload\n        /* \"chapter2/Ex2_10.sol\":687:716  return humanMapping[_key].age */\n      swap1\n      pop\n        /* \"chapter2/Ex2_10.sol\":614:723  function getMappingAge(address _key) public view returns(uint) {... */\n      swap2\n      swap1\n      pop\n      jump\t// out\n        /* \"chapter2/Ex2_10.sol\":356:473  function getArrayName(uint _index) public view returns(string memory) {... */\n    tag_26:\n        /* \"chapter2/Ex2_10.sol\":411:424  string memory */\n      0x60\n        /* \"chapter2/Ex2_10.sol\":443:453  humanArray */\n      0x00\n        /* \"chapter2/Ex2_10.sol\":454:460  _index */\n      dup3\n        /* \"chapter2/Ex2_10.sol\":443:461  humanArray[_index] */\n      dup2\n      sload\n      dup2\n      lt\n      tag_46\n      jumpi\n      tag_47\n      tag_48\n      jump\t// in\n    tag_47:\n    tag_46:\n      swap1\n      0x00\n      mstore\n      keccak256(0x00, 0x20)\n      swap1\n      0x02\n      mul\n      add\n        /* \"chapter2/Ex2_10.sol\":443:466  humanArray[_index].name */\n      0x00\n      add\n        /* \"chapter2/Ex2_10.sol\":436:466  return humanArray[_index].name */\n      dup1\n      sload\n      tag_50\n      swap1\n      tag_51\n      jump\t// in\n    tag_50:\n      dup1\n      0x1f\n      add\n      0x20\n      dup1\n      swap2\n      div\n      mul\n      0x20\n      add\n      mload(0x40)\n      swap1\n      dup2\n      add\n      0x40\n      mstore\n      dup1\n      swap3\n      swap2\n      swap1\n      dup2\n      dup2\n      mstore\n      0x20\n      add\n      dup3\n      dup1\n      sload\n      tag_52\n      swap1\n      tag_51\n      jump\t// in\n    tag_52:\n      dup1\n      iszero\n      tag_53\n      jumpi\n      dup1\n      0x1f\n      lt\n      tag_54\n      jumpi\n      0x0100\n      dup1\n      dup4\n      sload\n      div\n      mul\n      dup4\n      mstore\n      swap2\n      0x20\n      add\n      swap2\n      jump(tag_53)\n    tag_54:\n      dup3\n      add\n      swap2\n      swap1\n      0x00\n      mstore\n      keccak256(0x00, 0x20)\n      swap1\n    tag_55:\n      dup2\n      sload\n      dup2\n      mstore\n      swap1\n      0x01\n      add\n      swap1\n      0x20\n      add\n      dup1\n      dup4\n      gt\n      tag_55\n      jumpi\n      dup3\n      swap1\n      sub\n      0x1f\n      and\n      dup3\n      add\n      swap2\n    tag_53:\n      pop\n      pop\n      pop\n      pop\n      pop\n      swap1\n      pop\n        /* \"chapter2/Ex2_10.sol\":356:473  function getArrayName(uint _index) public view returns(string memory) {... */\n      swap2\n      swap1\n      pop\n      jump\t// out\n        /* \"chapter2/Ex2_10.sol\":189:234  mapping(address => Human) public humanMapping */\n    tag_31:\n      mstore(0x20, 0x01)\n      dup1\n      0x00\n      mstore\n      keccak256(0x00, 0x40)\n      0x00\n      swap2\n      pop\n      swap1\n      pop\n      dup1\n      0x00\n      add\n      dup1\n      sload\n      tag_56\n      swap1\n      tag_51\n      jump\t// in\n    tag_56:\n      dup1\n      0x1f\n      add\n      0x20\n      dup1\n      swap2\n      div\n      mul\n      0x20\n      add\n      mload(0x40)\n      swap1\n      dup2\n      add\n      0x40\n      mstore\n      dup1\n      swap3\n      swap2\n      swap1\n      dup2\n      dup2\n      mstore\n      0x20\n      add\n      dup3\n      dup1\n      sload\n      tag_57\n      swap1\n      tag_51\n      jump\t// in\n    tag_57:\n      dup1\n      iszero\n      tag_58\n      jumpi\n      dup1\n      0x1f\n      lt\n      tag_59\n      jumpi\n      0x0100\n      dup1\n      dup4\n      sload\n      div\n      mul\n      dup4\n      mstore\n      swap2\n      0x20\n      add\n      swap2\n      jump(tag_58)\n    tag_59:\n      dup3\n      add\n      swap2\n      swap1\n      0x00\n      mstore\n      keccak256(0x00, 0x20)\n      swap1\n    tag_60:\n      dup2\n      sload\n      dup2\n      mstore\n      swap1\n      0x01\n      add\n      swap1\n      0x20\n      add\n      dup1\n      dup4\n      gt\n      tag_60\n      jumpi\n      dup3\n      swap1\n      sub\n      0x1f\n      and\n      dup3\n      add\n      swap2\n    tag_58:\n      pop\n      pop\n      pop\n      pop\n      pop\n      swap1\n      dup1\n      0x01\n      add\n      sload\n      swap1\n      pop\n      dup3\n      jump\t// out\n        /* \"chapter2/Ex2_10.sol\":158:183  Human[] public humanArray */\n    tag_36:\n      0x00\n      dup2\n      dup2\n      sload\n      dup2\n      lt\n      tag_61\n      jumpi\n      0x00\n      dup1\n      revert\n    tag_61:\n      swap1\n      0x00\n      mstore\n      keccak256(0x00, 0x20)\n      swap1\n      0x02\n      mul\n      add\n      0x00\n      swap2\n      pop\n      swap1\n      pop\n      dup1\n      0x00\n      add\n      dup1\n      sload\n      tag_63\n      swap1\n      tag_51\n      jump\t// in\n    tag_63:\n      dup1\n      0x1f\n      add\n      0x20\n      dup1\n      swap2\n      div\n      mul\n      0x20\n      add\n      mload(0x40)\n      swap1\n      dup2\n      add\n      0x40\n      mstore\n      dup1\n      swap3\n      swap2\n      swap1\n      dup2\n      dup2\n      mstore\n      0x20\n      add\n      dup3\n      dup1\n      sload\n      tag_64\n      swap1\n      tag_51\n      jump\t// in\n    tag_64:\n      dup1\n      iszero\n      tag_65\n      jumpi\n      dup1\n      0x1f\n      lt\n      tag_66\n      jumpi\n      0x0100\n      dup1\n      dup4\n      sload\n      div\n      mul\n      dup4\n      mstore\n      swap2\n      0x20\n      add\n      swap2\n      jump(tag_65)\n    tag_66:\n      dup3\n      add\n      swap2\n      swap1\n      0x00\n      mstore\n      keccak256(0x00, 0x20)\n      swap1\n    tag_67:\n      dup2\n      sload\n      dup2\n      mstore\n      swap1\n      0x01\n      add\n      swap1\n      0x20\n      add\n      dup1\n      dup4\n      gt\n      tag_67\n      jumpi\n      dup3\n      swap1\n      sub\n      0x1f\n      and\n      dup3\n      add\n      swap2\n    tag_65:\n      pop\n      pop\n      pop\n      pop\n      pop\n      swap1\n      dup1\n      0x01\n      add\n      sload\n      swap1\n      pop\n      dup3\n      jump\t// out\n        /* \"#utility.yul\":7:82   */\n    tag_68:\n        /* \"#utility.yul\":40:46   */\n      0x00\n        /* \"#utility.yul\":73:75   */\n      0x40\n        /* \"#utility.yul\":67:76   */\n      mload\n        /* \"#utility.yul\":57:76   */\n      swap1\n      pop\n        /* \"#utility.yul\":7:82   */\n      swap1\n      jump\t// out\n        /* \"#utility.yul\":88:205   */\n    tag_69:\n        /* \"#utility.yul\":197:198   */\n      0x00\n        /* \"#utility.yul\":194:195   */\n      dup1\n        /* \"#utility.yul\":187:199   */\n      revert\n        /* \"#utility.yul\":211:328   */\n    tag_70:\n        /* \"#utility.yul\":320:321   */\n      0x00\n        /* \"#utility.yul\":317:318   */\n      dup1\n        /* \"#utility.yul\":310:322   */\n      revert\n        /* \"#utility.yul\":334:451   */\n    tag_71:\n        /* \"#utility.yul\":443:444   */\n      0x00\n        /* \"#utility.yul\":440:441   */\n      dup1\n        /* \"#utility.yul\":433:445   */\n      revert\n        /* \"#utility.yul\":457:574   */\n    tag_72:\n        /* \"#utility.yul\":566:567   */\n      0x00\n        /* \"#utility.yul\":563:564   */\n      dup1\n        /* \"#utility.yul\":556:568   */\n      revert\n        /* \"#utility.yul\":580:682   */\n    tag_73:\n        /* \"#utility.yul\":621:627   */\n      0x00\n        /* \"#utility.yul\":672:674   */\n      0x1f\n        /* \"#utility.yul\":668:675   */\n      not\n        /* \"#utility.yul\":663:665   */\n      0x1f\n        /* \"#utility.yul\":656:661   */\n      dup4\n        /* \"#utility.yul\":652:666   */\n      add\n        /* \"#utility.yul\":648:676   */\n      and\n        /* \"#utility.yul\":638:676   */\n      swap1\n      pop\n        /* \"#utility.yul\":580:682   */\n      swap2\n      swap1\n      pop\n      jump\t// out\n        /* \"#utility.yul\":688:868   */\n    tag_74:\n        /* \"#utility.yul\":736:813   */\n      0x4e487b7100000000000000000000000000000000000000000000000000000000\n        /* \"#utility.yul\":733:734   */\n      0x00\n        /* \"#utility.yul\":726:814   */\n      mstore\n        /* \"#utility.yul\":833:837   */\n      0x41\n        /* \"#utility.yul\":830:831   */\n      0x04\n        /* \"#utility.yul\":823:838   */\n      mstore\n        /* \"#utility.yul\":857:861   */\n      0x24\n        /* \"#utility.yul\":854:855   */\n      0x00\n        /* \"#utility.yul\":847:862   */\n      revert\n        /* \"#utility.yul\":874:1155   */\n    tag_75:\n        /* \"#utility.yul\":957:984   */\n      tag_118\n        /* \"#utility.yul\":979:983   */\n      dup3\n        /* \"#utility.yul\":957:984   */\n      tag_73\n      jump\t// in\n    tag_118:\n        /* \"#utility.yul\":949:955   */\n      dup2\n        /* \"#utility.yul\":945:985   */\n      add\n        /* \"#utility.yul\":1087:1093   */\n      dup2\n        /* \"#utility.yul\":1075:1085   */\n      dup2\n        /* \"#utility.yul\":1072:1094   */\n      lt\n        /* \"#utility.yul\":1051:1069   */\n      0xffffffffffffffff\n        /* \"#utility.yul\":1039:1049   */\n      dup3\n        /* \"#utility.yul\":1036:1070   */\n      gt\n        /* \"#utility.yul\":1033:1095   */\n      or\n        /* \"#utility.yul\":1030:1118   */\n      iszero\n      tag_119\n      jumpi\n        /* \"#utility.yul\":1098:1116   */\n      tag_120\n      tag_74\n      jump\t// in\n    tag_120:\n        /* \"#utility.yul\":1030:1118   */\n    tag_119:\n        /* \"#utility.yul\":1138:1148   */\n      dup1\n        /* \"#utility.yul\":1134:1136   */\n      0x40\n        /* \"#utility.yul\":1127:1149   */\n      mstore\n        /* \"#utility.yul\":917:1155   */\n      pop\n        /* \"#utility.yul\":874:1155   */\n      pop\n      pop\n      jump\t// out\n        /* \"#utility.yul\":1161:1290   */\n    tag_76:\n        /* \"#utility.yul\":1195:1201   */\n      0x00\n        /* \"#utility.yul\":1222:1242   */\n      tag_122\n      tag_68\n      jump\t// in\n    tag_122:\n        /* \"#utility.yul\":1212:1242   */\n      swap1\n      pop\n        /* \"#utility.yul\":1251:1284   */\n      tag_123\n        /* \"#utility.yul\":1279:1283   */\n      dup3\n        /* \"#utility.yul\":1271:1277   */\n      dup3\n        /* \"#utility.yul\":1251:1284   */\n      tag_75\n      jump\t// in\n    tag_123:\n        /* \"#utility.yul\":1161:1290   */\n      swap2\n      swap1\n      pop\n      jump\t// out\n        /* \"#utility.yul\":1296:1604   */\n    tag_77:\n        /* \"#utility.yul\":1358:1362   */\n      0x00\n        /* \"#utility.yul\":1448:1466   */\n      0xffffffffffffffff\n        /* \"#utility.yul\":1440:1446   */\n      dup3\n        /* \"#utility.yul\":1437:1467   */\n      gt\n        /* \"#utility.yul\":1434:1490   */\n      iszero\n      tag_125\n      jumpi\n        /* \"#utility.yul\":1470:1488   */\n      tag_126\n      tag_74\n      jump\t// in\n    tag_126:\n        /* \"#utility.yul\":1434:1490   */\n    tag_125:\n        /* \"#utility.yul\":1508:1537   */\n      tag_127\n        /* \"#utility.yul\":1530:1536   */\n      dup3\n        /* \"#utility.yul\":1508:1537   */\n      tag_73\n      jump\t// in\n    tag_127:\n        /* \"#utility.yul\":1500:1537   */\n      swap1\n      pop\n        /* \"#utility.yul\":1592:1596   */\n      0x20\n        /* \"#utility.yul\":1586:1590   */\n      dup2\n        /* \"#utility.yul\":1582:1597   */\n      add\n        /* \"#utility.yul\":1574:1597   */\n      swap1\n      pop\n        /* \"#utility.yul\":1296:1604   */\n      swap2\n      swap1\n      pop\n      jump\t// out\n        /* \"#utility.yul\":1610:1756   */\n    tag_78:\n        /* \"#utility.yul\":1707:1713   */\n      dup3\n        /* \"#utility.yul\":1702:1705   */\n      dup2\n        /* \"#utility.yul\":1697:1700   */\n      dup4\n        /* \"#utility.yul\":1684:1714   */\n      calldatacopy\n        /* \"#utility.yul\":1748:1749   */\n      0x00\n        /* \"#utility.yul\":1739:1745   */\n      dup4\n        /* \"#utility.yul\":1734:1737   */\n      dup4\n        /* \"#utility.yul\":1730:1746   */\n      add\n        /* \"#utility.yul\":1723:1750   */\n      mstore\n        /* \"#utility.yul\":1610:1756   */\n      pop\n      pop\n      pop\n      jump\t// out\n        /* \"#utility.yul\":1762:2187   */\n    tag_79:\n        /* \"#utility.yul\":1840:1845   */\n      0x00\n        /* \"#utility.yul\":1865:1931   */\n      tag_130\n        /* \"#utility.yul\":1881:1930   */\n      tag_131\n        /* \"#utility.yul\":1923:1929   */\n      dup5\n        /* \"#utility.yul\":1881:1930   */\n      tag_77\n      jump\t// in\n    tag_131:\n        /* \"#utility.yul\":1865:1931   */\n      tag_76\n      jump\t// in\n    tag_130:\n        /* \"#utility.yul\":1856:1931   */\n      swap1\n      pop\n        /* \"#utility.yul\":1954:1960   */\n      dup3\n        /* \"#utility.yul\":1947:1952   */\n      dup2\n        /* \"#utility.yul\":1940:1961   */\n      mstore\n        /* \"#utility.yul\":1992:1996   */\n      0x20\n        /* \"#utility.yul\":1985:1990   */\n      dup2\n        /* \"#utility.yul\":1981:1997   */\n      add\n        /* \"#utility.yul\":2030:2033   */\n      dup5\n        /* \"#utility.yul\":2021:2027   */\n      dup5\n        /* \"#utility.yul\":2016:2019   */\n      dup5\n        /* \"#utility.yul\":2012:2028   */\n      add\n        /* \"#utility.yul\":2009:2034   */\n      gt\n        /* \"#utility.yul\":2006:2118   */\n      iszero\n      tag_132\n      jumpi\n        /* \"#utility.yul\":2037:2116   */\n      tag_133\n      tag_72\n      jump\t// in\n    tag_133:\n        /* \"#utility.yul\":2006:2118   */\n    tag_132:\n        /* \"#utility.yul\":2127:2181   */\n      tag_134\n        /* \"#utility.yul\":2174:2180   */\n      dup5\n        /* \"#utility.yul\":2169:2172   */\n      dup3\n        /* \"#utility.yul\":2164:2167   */\n      dup6\n        /* \"#utility.yul\":2127:2181   */\n      tag_78\n      jump\t// in\n    tag_134:\n        /* \"#utility.yul\":1846:2187   */\n      pop\n        /* \"#utility.yul\":1762:2187   */\n      swap4\n      swap3\n      pop\n      pop\n      pop\n      jump\t// out\n        /* \"#utility.yul\":2207:2547   */\n    tag_80:\n        /* \"#utility.yul\":2263:2268   */\n      0x00\n        /* \"#utility.yul\":2312:2315   */\n      dup3\n        /* \"#utility.yul\":2305:2309   */\n      0x1f\n        /* \"#utility.yul\":2297:2303   */\n      dup4\n        /* \"#utility.yul\":2293:2310   */\n      add\n        /* \"#utility.yul\":2289:2316   */\n      slt\n        /* \"#utility.yul\":2279:2401   */\n      tag_136\n      jumpi\n        /* \"#utility.yul\":2320:2399   */\n      tag_137\n      tag_71\n      jump\t// in\n    tag_137:\n        /* \"#utility.yul\":2279:2401   */\n    tag_136:\n        /* \"#utility.yul\":2437:2443   */\n      dup2\n        /* \"#utility.yul\":2424:2444   */\n      calldataload\n        /* \"#utility.yul\":2462:2541   */\n      tag_138\n        /* \"#utility.yul\":2537:2540   */\n      dup5\n        /* \"#utility.yul\":2529:2535   */\n      dup3\n        /* \"#utility.yul\":2522:2526   */\n      0x20\n        /* \"#utility.yul\":2514:2520   */\n      dup7\n        /* \"#utility.yul\":2510:2527   */\n      add\n        /* \"#utility.yul\":2462:2541   */\n      tag_79\n      jump\t// in\n    tag_138:\n        /* \"#utility.yul\":2453:2541   */\n      swap2\n      pop\n        /* \"#utility.yul\":2269:2547   */\n      pop\n        /* \"#utility.yul\":2207:2547   */\n      swap3\n      swap2\n      pop\n      pop\n      jump\t// out\n        /* \"#utility.yul\":2553:2630   */\n    tag_81:\n        /* \"#utility.yul\":2590:2597   */\n      0x00\n        /* \"#utility.yul\":2619:2624   */\n      dup2\n        /* \"#utility.yul\":2608:2624   */\n      swap1\n      pop\n        /* \"#utility.yul\":2553:2630   */\n      swap2\n      swap1\n      pop\n      jump\t// out\n        /* \"#utility.yul\":2636:2758   */\n    tag_82:\n        /* \"#utility.yul\":2709:2733   */\n      tag_141\n        /* \"#utility.yul\":2727:2732   */\n      dup2\n        /* \"#utility.yul\":2709:2733   */\n      tag_81\n      jump\t// in\n    tag_141:\n        /* \"#utility.yul\":2702:2707   */\n      dup2\n        /* \"#utility.yul\":2699:2734   */\n      eq\n        /* \"#utility.yul\":2689:2752   */\n      tag_142\n      jumpi\n        /* \"#utility.yul\":2748:2749   */\n      0x00\n        /* \"#utility.yul\":2745:2746   */\n      dup1\n        /* \"#utility.yul\":2738:2750   */\n      revert\n        /* \"#utility.yul\":2689:2752   */\n    tag_142:\n        /* \"#utility.yul\":2636:2758   */\n      pop\n      jump\t// out\n        /* \"#utility.yul\":2764:2903   */\n    tag_83:\n        /* \"#utility.yul\":2810:2815   */\n      0x00\n        /* \"#utility.yul\":2848:2854   */\n      dup2\n        /* \"#utility.yul\":2835:2855   */\n      calldataload\n        /* \"#utility.yul\":2826:2855   */\n      swap1\n      pop\n        /* \"#utility.yul\":2864:2897   */\n      tag_144\n        /* \"#utility.yul\":2891:2896   */\n      dup2\n        /* \"#utility.yul\":2864:2897   */\n      tag_82\n      jump\t// in\n    tag_144:\n        /* \"#utility.yul\":2764:2903   */\n      swap3\n      swap2\n      pop\n      pop\n      jump\t// out\n        /* \"#utility.yul\":2909:3563   */\n    tag_11:\n        /* \"#utility.yul\":2987:2993   */\n      0x00\n        /* \"#utility.yul\":2995:3001   */\n      dup1\n        /* \"#utility.yul\":3044:3046   */\n      0x40\n        /* \"#utility.yul\":3032:3041   */\n      dup4\n        /* \"#utility.yul\":3023:3030   */\n      dup6\n        /* \"#utility.yul\":3019:3042   */\n      sub\n        /* \"#utility.yul\":3015:3047   */\n      slt\n        /* \"#utility.yul\":3012:3131   */\n      iszero\n      tag_146\n      jumpi\n        /* \"#utility.yul\":3050:3129   */\n      tag_147\n      tag_69\n      jump\t// in\n    tag_147:\n        /* \"#utility.yul\":3012:3131   */\n    tag_146:\n        /* \"#utility.yul\":3198:3199   */\n      0x00\n        /* \"#utility.yul\":3187:3196   */\n      dup4\n        /* \"#utility.yul\":3183:3200   */\n      add\n        /* \"#utility.yul\":3170:3201   */\n      calldataload\n        /* \"#utility.yul\":3228:3246   */\n      0xffffffffffffffff\n        /* \"#utility.yul\":3220:3226   */\n      dup2\n        /* \"#utility.yul\":3217:3247   */\n      gt\n        /* \"#utility.yul\":3214:3331   */\n      iszero\n      tag_148\n      jumpi\n        /* \"#utility.yul\":3250:3329   */\n      tag_149\n      tag_70\n      jump\t// in\n    tag_149:\n        /* \"#utility.yul\":3214:3331   */\n    tag_148:\n        /* \"#utility.yul\":3355:3418   */\n      tag_150\n        /* \"#utility.yul\":3410:3417   */\n      dup6\n        /* \"#utility.yul\":3401:3407   */\n      dup3\n        /* \"#utility.yul\":3390:3399   */\n      dup7\n        /* \"#utility.yul\":3386:3408   */\n      add\n        /* \"#utility.yul\":3355:3418   */\n      tag_80\n      jump\t// in\n    tag_150:\n        /* \"#utility.yul\":3345:3418   */\n      swap3\n      pop\n        /* \"#utility.yul\":3141:3428   */\n      pop\n        /* \"#utility.yul\":3467:3469   */\n      0x20\n        /* \"#utility.yul\":3493:3546   */\n      tag_151\n        /* \"#utility.yul\":3538:3545   */\n      dup6\n        /* \"#utility.yul\":3529:3535   */\n      dup3\n        /* \"#utility.yul\":3518:3527   */\n      dup7\n        /* \"#utility.yul\":3514:3536   */\n      add\n        /* \"#utility.yul\":3493:3546   */\n      tag_83\n      jump\t// in\n    tag_151:\n        /* \"#utility.yul\":3483:3546   */\n      swap2\n      pop\n        /* \"#utility.yul\":3438:3556   */\n      pop\n        /* \"#utility.yul\":2909:3563   */\n      swap3\n      pop\n      swap3\n      swap1\n      pop\n      jump\t// out\n        /* \"#utility.yul\":3569:3695   */\n    tag_84:\n        /* \"#utility.yul\":3606:3613   */\n      0x00\n        /* \"#utility.yul\":3646:3688   */\n      0xffffffffffffffffffffffffffffffffffffffff\n        /* \"#utility.yul\":3639:3644   */\n      dup3\n        /* \"#utility.yul\":3635:3689   */\n      and\n        /* \"#utility.yul\":3624:3689   */\n      swap1\n      pop\n        /* \"#utility.yul\":3569:3695   */\n      swap2\n      swap1\n      pop\n      jump\t// out\n        /* \"#utility.yul\":3701:3797   */\n    tag_85:\n        /* \"#utility.yul\":3738:3745   */\n      0x00\n        /* \"#utility.yul\":3767:3791   */\n      tag_154\n        /* \"#utility.yul\":3785:3790   */\n      dup3\n        /* \"#utility.yul\":3767:3791   */\n      tag_84\n      jump\t// in\n    tag_154:\n        /* \"#utility.yul\":3756:3791   */\n      swap1\n      pop\n        /* \"#utility.yul\":3701:3797   */\n      swap2\n      swap1\n      pop\n      jump\t// out\n        /* \"#utility.yul\":3803:3925   */\n    tag_86:\n        /* \"#utility.yul\":3876:3900   */\n      tag_156\n        /* \"#utility.yul\":3894:3899   */\n      dup2\n        /* \"#utility.yul\":3876:3900   */\n      tag_85\n      jump\t// in\n    tag_156:\n        /* \"#utility.yul\":3869:3874   */\n      dup2\n        /* \"#utility.yul\":3866:3901   */\n      eq\n        /* \"#utility.yul\":3856:3919   */\n      tag_157\n      jumpi\n        /* \"#utility.yul\":3915:3916   */\n      0x00\n        /* \"#utility.yul\":3912:3913   */\n      dup1\n        /* \"#utility.yul\":3905:3917   */\n      revert\n        /* \"#utility.yul\":3856:3919   */\n    tag_157:\n        /* \"#utility.yul\":3803:3925   */\n      pop\n      jump\t// out\n        /* \"#utility.yul\":3931:4070   */\n    tag_87:\n        /* \"#utility.yul\":3977:3982   */\n      0x00\n        /* \"#utility.yul\":4015:4021   */\n      dup2\n        /* \"#utility.yul\":4002:4022   */\n      calldataload\n        /* \"#utility.yul\":3993:4022   */\n      swap1\n      pop\n        /* \"#utility.yul\":4031:4064   */\n      tag_159\n        /* \"#utility.yul\":4058:4063   */\n      dup2\n        /* \"#utility.yul\":4031:4064   */\n      tag_86\n      jump\t// in\n    tag_159:\n        /* \"#utility.yul\":3931:4070   */\n      swap3\n      swap2\n      pop\n      pop\n      jump\t// out\n        /* \"#utility.yul\":4076:4875   */\n    tag_15:\n        /* \"#utility.yul\":4163:4169   */\n      0x00\n        /* \"#utility.yul\":4171:4177   */\n      dup1\n        /* \"#utility.yul\":4179:4185   */\n      0x00\n        /* \"#utility.yul\":4228:4230   */\n      0x60\n        /* \"#utility.yul\":4216:4225   */\n      dup5\n        /* \"#utility.yul\":4207:4214   */\n      dup7\n        /* \"#utility.yul\":4203:4226   */\n      sub\n        /* \"#utility.yul\":4199:4231   */\n      slt\n        /* \"#utility.yul\":4196:4315   */\n      iszero\n      tag_161\n      jumpi\n        /* \"#utility.yul\":4234:4313   */\n      tag_162\n      tag_69\n      jump\t// in\n    tag_162:\n        /* \"#utility.yul\":4196:4315   */\n    tag_161:\n        /* \"#utility.yul\":4354:4355   */\n      0x00\n        /* \"#utility.yul\":4379:4432   */\n      tag_163\n        /* \"#utility.yul\":4424:4431   */\n      dup7\n        /* \"#utility.yul\":4415:4421   */\n      dup3\n        /* \"#utility.yul\":4404:4413   */\n      dup8\n        /* \"#utility.yul\":4400:4422   */\n      add\n        /* \"#utility.yul\":4379:4432   */\n      tag_87\n      jump\t// in\n    tag_163:\n        /* \"#utility.yul\":4369:4432   */\n      swap4\n      pop\n        /* \"#utility.yul\":4325:4442   */\n      pop\n        /* \"#utility.yul\":4509:4511   */\n      0x20\n        /* \"#utility.yul\":4498:4507   */\n      dup5\n        /* \"#utility.yul\":4494:4512   */\n      add\n        /* \"#utility.yul\":4481:4513   */\n      calldataload\n        /* \"#utility.yul\":4540:4558   */\n      0xffffffffffffffff\n        /* \"#utility.yul\":4532:4538   */\n      dup2\n        /* \"#utility.yul\":4529:4559   */\n      gt\n        /* \"#utility.yul\":4526:4643   */\n      iszero\n      tag_164\n      jumpi\n        /* \"#utility.yul\":4562:4641   */\n      tag_165\n      tag_70\n      jump\t// in\n    tag_165:\n        /* \"#utility.yul\":4526:4643   */\n    tag_164:\n        /* \"#utility.yul\":4667:4730   */\n      tag_166\n        /* \"#utility.yul\":4722:4729   */\n      dup7\n        /* \"#utility.yul\":4713:4719   */\n      dup3\n        /* \"#utility.yul\":4702:4711   */\n      dup8\n        /* \"#utility.yul\":4698:4720   */\n      add\n        /* \"#utility.yul\":4667:4730   */\n      tag_80\n      jump\t// in\n    tag_166:\n        /* \"#utility.yul\":4657:4730   */\n      swap3\n      pop\n        /* \"#utility.yul\":4452:4740   */\n      pop\n        /* \"#utility.yul\":4779:4781   */\n      0x40\n        /* \"#utility.yul\":4805:4858   */\n      tag_167\n        /* \"#utility.yul\":4850:4857   */\n      dup7\n        /* \"#utility.yul\":4841:4847   */\n      dup3\n        /* \"#utility.yul\":4830:4839   */\n      dup8\n        /* \"#utility.yul\":4826:4848   */\n      add\n        /* \"#utility.yul\":4805:4858   */\n      tag_83\n      jump\t// in\n    tag_167:\n        /* \"#utility.yul\":4795:4858   */\n      swap2\n      pop\n        /* \"#utility.yul\":4750:4868   */\n      pop\n        /* \"#utility.yul\":4076:4875   */\n      swap3\n      pop\n      swap3\n      pop\n      swap3\n      jump\t// out\n        /* \"#utility.yul\":4881:5210   */\n    tag_19:\n        /* \"#utility.yul\":4940:4946   */\n      0x00\n        /* \"#utility.yul\":4989:4991   */\n      0x20\n        /* \"#utility.yul\":4977:4986   */\n      dup3\n        /* \"#utility.yul\":4968:4975   */\n      dup5\n        /* \"#utility.yul\":4964:4987   */\n      sub\n        /* \"#utility.yul\":4960:4992   */\n      slt\n        /* \"#utility.yul\":4957:5076   */\n      iszero\n      tag_169\n      jumpi\n        /* \"#utility.yul\":4995:5074   */\n      tag_170\n      tag_69\n      jump\t// in\n    tag_170:\n        /* \"#utility.yul\":4957:5076   */\n    tag_169:\n        /* \"#utility.yul\":5115:5116   */\n      0x00\n        /* \"#utility.yul\":5140:5193   */\n      tag_171\n        /* \"#utility.yul\":5185:5192   */\n      dup5\n        /* \"#utility.yul\":5176:5182   */\n      dup3\n        /* \"#utility.yul\":5165:5174   */\n      dup6\n        /* \"#utility.yul\":5161:5183   */\n      add\n        /* \"#utility.yul\":5140:5193   */\n      tag_87\n      jump\t// in\n    tag_171:\n        /* \"#utility.yul\":5130:5193   */\n      swap2\n      pop\n        /* \"#utility.yul\":5086:5203   */\n      pop\n        /* \"#utility.yul\":4881:5210   */\n      swap3\n      swap2\n      pop\n      pop\n      jump\t// out\n        /* \"#utility.yul\":5216:5334   */\n    tag_88:\n        /* \"#utility.yul\":5303:5327   */\n      tag_173\n        /* \"#utility.yul\":5321:5326   */\n      dup2\n        /* \"#utility.yul\":5303:5327   */\n      tag_81\n      jump\t// in\n    tag_173:\n        /* \"#utility.yul\":5298:5301   */\n      dup3\n        /* \"#utility.yul\":5291:5328   */\n      mstore\n        /* \"#utility.yul\":5216:5334   */\n      pop\n      pop\n      jump\t// out\n        /* \"#utility.yul\":5340:5562   */\n    tag_22:\n        /* \"#utility.yul\":5433:5437   */\n      0x00\n        /* \"#utility.yul\":5471:5473   */\n      0x20\n        /* \"#utility.yul\":5460:5469   */\n      dup3\n        /* \"#utility.yul\":5456:5474   */\n      add\n        /* \"#utility.yul\":5448:5474   */\n      swap1\n      pop\n        /* \"#utility.yul\":5484:5555   */\n      tag_175\n        /* \"#utility.yul\":5552:5553   */\n      0x00\n        /* \"#utility.yul\":5541:5550   */\n      dup4\n        /* \"#utility.yul\":5537:5554   */\n      add\n        /* \"#utility.yul\":5528:5534   */\n      dup5\n        /* \"#utility.yul\":5484:5555   */\n      tag_88\n      jump\t// in\n    tag_175:\n        /* \"#utility.yul\":5340:5562   */\n      swap3\n      swap2\n      pop\n      pop\n      jump\t// out\n        /* \"#utility.yul\":5568:5897   */\n    tag_25:\n        /* \"#utility.yul\":5627:5633   */\n      0x00\n        /* \"#utility.yul\":5676:5678   */\n      0x20\n        /* \"#utility.yul\":5664:5673   */\n      dup3\n        /* \"#utility.yul\":5655:5662   */\n      dup5\n        /* \"#utility.yul\":5651:5674   */\n      sub\n        /* \"#utility.yul\":5647:5679   */\n      slt\n        /* \"#utility.yul\":5644:5763   */\n      iszero\n      tag_177\n      jumpi\n        /* \"#utility.yul\":5682:5761   */\n      tag_178\n      tag_69\n      jump\t// in\n    tag_178:\n        /* \"#utility.yul\":5644:5763   */\n    tag_177:\n        /* \"#utility.yul\":5802:5803   */\n      0x00\n        /* \"#utility.yul\":5827:5880   */\n      tag_179\n        /* \"#utility.yul\":5872:5879   */\n      dup5\n        /* \"#utility.yul\":5863:5869   */\n      dup3\n        /* \"#utility.yul\":5852:5861   */\n      dup6\n        /* \"#utility.yul\":5848:5870   */\n      add\n        /* \"#utility.yul\":5827:5880   */\n      tag_83\n      jump\t// in\n    tag_179:\n        /* \"#utility.yul\":5817:5880   */\n      swap2\n      pop\n        /* \"#utility.yul\":5773:5890   */\n      pop\n        /* \"#utility.yul\":5568:5897   */\n      swap3\n      swap2\n      pop\n      pop\n      jump\t// out\n        /* \"#utility.yul\":5903:6002   */\n    tag_89:\n        /* \"#utility.yul\":5955:5961   */\n      0x00\n        /* \"#utility.yul\":5989:5994   */\n      dup2\n        /* \"#utility.yul\":5983:5995   */\n      mload\n        /* \"#utility.yul\":5973:5995   */\n      swap1\n      pop\n        /* \"#utility.yul\":5903:6002   */\n      swap2\n      swap1\n      pop\n      jump\t// out\n        /* \"#utility.yul\":6008:6177   */\n    tag_90:\n        /* \"#utility.yul\":6092:6103   */\n      0x00\n        /* \"#utility.yul\":6126:6132   */\n      dup3\n        /* \"#utility.yul\":6121:6124   */\n      dup3\n        /* \"#utility.yul\":6114:6133   */\n      mstore\n        /* \"#utility.yul\":6166:6170   */\n      0x20\n        /* \"#utility.yul\":6161:6164   */\n      dup3\n        /* \"#utility.yul\":6157:6171   */\n      add\n        /* \"#utility.yul\":6142:6171   */\n      swap1\n      pop\n        /* \"#utility.yul\":6008:6177   */\n      swap3\n      swap2\n      pop\n      pop\n      jump\t// out\n        /* \"#utility.yul\":6183:6429   */\n    tag_91:\n        /* \"#utility.yul\":6264:6265   */\n      0x00\n        /* \"#utility.yul\":6274:6387   */\n    tag_183:\n        /* \"#utility.yul\":6288:6294   */\n      dup4\n        /* \"#utility.yul\":6285:6286   */\n      dup2\n        /* \"#utility.yul\":6282:6295   */\n      lt\n        /* \"#utility.yul\":6274:6387   */\n      iszero\n      tag_185\n      jumpi\n        /* \"#utility.yul\":6373:6374   */\n      dup1\n        /* \"#utility.yul\":6368:6371   */\n      dup3\n        /* \"#utility.yul\":6364:6375   */\n      add\n        /* \"#utility.yul\":6358:6376   */\n      mload\n        /* \"#utility.yul\":6354:6355   */\n      dup2\n        /* \"#utility.yul\":6349:6352   */\n      dup5\n        /* \"#utility.yul\":6345:6356   */\n      add\n        /* \"#utility.yul\":6338:6377   */\n      mstore\n        /* \"#utility.yul\":6310:6312   */\n      0x20\n        /* \"#utility.yul\":6307:6308   */\n      dup2\n        /* \"#utility.yul\":6303:6313   */\n      add\n        /* \"#utility.yul\":6298:6313   */\n      swap1\n      pop\n        /* \"#utility.yul\":6274:6387   */\n      jump(tag_183)\n    tag_185:\n        /* \"#utility.yul\":6421:6422   */\n      0x00\n        /* \"#utility.yul\":6412:6418   */\n      dup5\n        /* \"#utility.yul\":6407:6410   */\n      dup5\n        /* \"#utility.yul\":6403:6419   */\n      add\n        /* \"#utility.yul\":6396:6423   */\n      mstore\n        /* \"#utility.yul\":6245:6429   */\n      pop\n        /* \"#utility.yul\":6183:6429   */\n      pop\n      pop\n      pop\n      jump\t// out\n        /* \"#utility.yul\":6435:6812   */\n    tag_92:\n        /* \"#utility.yul\":6523:6526   */\n      0x00\n        /* \"#utility.yul\":6551:6590   */\n      tag_187\n        /* \"#utility.yul\":6584:6589   */\n      dup3\n        /* \"#utility.yul\":6551:6590   */\n      tag_89\n      jump\t// in\n    tag_187:\n        /* \"#utility.yul\":6606:6677   */\n      tag_188\n        /* \"#utility.yul\":6670:6676   */\n      dup2\n        /* \"#utility.yul\":6665:6668   */\n      dup6\n        /* \"#utility.yul\":6606:6677   */\n      tag_90\n      jump\t// in\n    tag_188:\n        /* \"#utility.yul\":6599:6677   */\n      swap4\n      pop\n        /* \"#utility.yul\":6686:6751   */\n      tag_189\n        /* \"#utility.yul\":6744:6750   */\n      dup2\n        /* \"#utility.yul\":6739:6742   */\n      dup6\n        /* \"#utility.yul\":6732:6736   */\n      0x20\n        /* \"#utility.yul\":6725:6730   */\n      dup7\n        /* \"#utility.yul\":6721:6737   */\n      add\n        /* \"#utility.yul\":6686:6751   */\n      tag_91\n      jump\t// in\n    tag_189:\n        /* \"#utility.yul\":6776:6805   */\n      tag_190\n        /* \"#utility.yul\":6798:6804   */\n      dup2\n        /* \"#utility.yul\":6776:6805   */\n      tag_73\n      jump\t// in\n    tag_190:\n        /* \"#utility.yul\":6771:6774   */\n      dup5\n        /* \"#utility.yul\":6767:6806   */\n      add\n        /* \"#utility.yul\":6760:6806   */\n      swap2\n      pop\n        /* \"#utility.yul\":6527:6812   */\n      pop\n        /* \"#utility.yul\":6435:6812   */\n      swap3\n      swap2\n      pop\n      pop\n      jump\t// out\n        /* \"#utility.yul\":6818:7131   */\n    tag_28:\n        /* \"#utility.yul\":6931:6935   */\n      0x00\n        /* \"#utility.yul\":6969:6971   */\n      0x20\n        /* \"#utility.yul\":6958:6967   */\n      dup3\n        /* \"#utility.yul\":6954:6972   */\n      add\n        /* \"#utility.yul\":6946:6972   */\n      swap1\n      pop\n        /* \"#utility.yul\":7018:7027   */\n      dup2\n        /* \"#utility.yul\":7012:7016   */\n      dup2\n        /* \"#utility.yul\":7008:7028   */\n      sub\n        /* \"#utility.yul\":7004:7005   */\n      0x00\n        /* \"#utility.yul\":6993:7002   */\n      dup4\n        /* \"#utility.yul\":6989:7006   */\n      add\n        /* \"#utility.yul\":6982:7029   */\n      mstore\n        /* \"#utility.yul\":7046:7124   */\n      tag_192\n        /* \"#utility.yul\":7119:7123   */\n      dup2\n        /* \"#utility.yul\":7110:7116   */\n      dup5\n        /* \"#utility.yul\":7046:7124   */\n      tag_92\n      jump\t// in\n    tag_192:\n        /* \"#utility.yul\":7038:7124   */\n      swap1\n      pop\n        /* \"#utility.yul\":6818:7131   */\n      swap3\n      swap2\n      pop\n      pop\n      jump\t// out\n        /* \"#utility.yul\":7137:7560   */\n    tag_33:\n        /* \"#utility.yul\":7278:7282   */\n      0x00\n        /* \"#utility.yul\":7316:7318   */\n      0x40\n        /* \"#utility.yul\":7305:7314   */\n      dup3\n        /* \"#utility.yul\":7301:7319   */\n      add\n        /* \"#utility.yul\":7293:7319   */\n      swap1\n      pop\n        /* \"#utility.yul\":7365:7374   */\n      dup2\n        /* \"#utility.yul\":7359:7363   */\n      dup2\n        /* \"#utility.yul\":7355:7375   */\n      sub\n        /* \"#utility.yul\":7351:7352   */\n      0x00\n        /* \"#utility.yul\":7340:7349   */\n      dup4\n        /* \"#utility.yul\":7336:7353   */\n      add\n        /* \"#utility.yul\":7329:7376   */\n      mstore\n        /* \"#utility.yul\":7393:7471   */\n      tag_194\n        /* \"#utility.yul\":7466:7470   */\n      dup2\n        /* \"#utility.yul\":7457:7463   */\n      dup6\n        /* \"#utility.yul\":7393:7471   */\n      tag_92\n      jump\t// in\n    tag_194:\n        /* \"#utility.yul\":7385:7471   */\n      swap1\n      pop\n        /* \"#utility.yul\":7481:7553   */\n      tag_195\n        /* \"#utility.yul\":7549:7551   */\n      0x20\n        /* \"#utility.yul\":7538:7547   */\n      dup4\n        /* \"#utility.yul\":7534:7552   */\n      add\n        /* \"#utility.yul\":7525:7531   */\n      dup5\n        /* \"#utility.yul\":7481:7553   */\n      tag_88\n      jump\t// in\n    tag_195:\n        /* \"#utility.yul\":7137:7560   */\n      swap4\n      swap3\n      pop\n      pop\n      pop\n      jump\t// out\n        /* \"#utility.yul\":7566:7746   */\n    tag_93:\n        /* \"#utility.yul\":7614:7691   */\n      0x4e487b7100000000000000000000000000000000000000000000000000000000\n        /* \"#utility.yul\":7611:7612   */\n      0x00\n        /* \"#utility.yul\":7604:7692   */\n      mstore\n        /* \"#utility.yul\":7711:7715   */\n      0x22\n        /* \"#utility.yul\":7708:7709   */\n      0x04\n        /* \"#utility.yul\":7701:7716   */\n      mstore\n        /* \"#utility.yul\":7735:7739   */\n      0x24\n        /* \"#utility.yul\":7732:7733   */\n      0x00\n        /* \"#utility.yul\":7725:7740   */\n      revert\n        /* \"#utility.yul\":7752:8072   */\n    tag_51:\n        /* \"#utility.yul\":7796:7802   */\n      0x00\n        /* \"#utility.yul\":7833:7834   */\n      0x02\n        /* \"#utility.yul\":7827:7831   */\n      dup3\n        /* \"#utility.yul\":7823:7835   */\n      div\n        /* \"#utility.yul\":7813:7835   */\n      swap1\n      pop\n        /* \"#utility.yul\":7880:7881   */\n      0x01\n        /* \"#utility.yul\":7874:7878   */\n      dup3\n        /* \"#utility.yul\":7870:7882   */\n      and\n        /* \"#utility.yul\":7901:7919   */\n      dup1\n        /* \"#utility.yul\":7891:7972   */\n      tag_198\n      jumpi\n        /* \"#utility.yul\":7957:7961   */\n      0x7f\n        /* \"#utility.yul\":7949:7955   */\n      dup3\n        /* \"#utility.yul\":7945:7962   */\n      and\n        /* \"#utility.yul\":7935:7962   */\n      swap2\n      pop\n        /* \"#utility.yul\":7891:7972   */\n    tag_198:\n        /* \"#utility.yul\":8019:8021   */\n      0x20\n        /* \"#utility.yul\":8011:8017   */\n      dup3\n        /* \"#utility.yul\":8008:8022   */\n      lt\n        /* \"#utility.yul\":7988:8006   */\n      dup2\n        /* \"#utility.yul\":7985:8023   */\n      sub\n        /* \"#utility.yul\":7982:8066   */\n      tag_199\n      jumpi\n        /* \"#utility.yul\":8038:8056   */\n      tag_200\n      tag_93\n      jump\t// in\n    tag_200:\n        /* \"#utility.yul\":7982:8066   */\n    tag_199:\n        /* \"#utility.yul\":7803:8072   */\n      pop\n        /* \"#utility.yul\":7752:8072   */\n      swap2\n      swap1\n      pop\n      jump\t// out\n        /* \"#utility.yul\":8078:8219   */\n    tag_94:\n        /* \"#utility.yul\":8127:8131   */\n      0x00\n        /* \"#utility.yul\":8150:8153   */\n      dup2\n        /* \"#utility.yul\":8142:8153   */\n      swap1\n      pop\n        /* \"#utility.yul\":8173:8176   */\n      dup2\n        /* \"#utility.yul\":8170:8171   */\n      0x00\n        /* \"#utility.yul\":8163:8177   */\n      mstore\n        /* \"#utility.yul\":8207:8211   */\n      0x20\n        /* \"#utility.yul\":8204:8205   */\n      0x00\n        /* \"#utility.yul\":8194:8212   */\n      keccak256\n        /* \"#utility.yul\":8186:8212   */\n      swap1\n      pop\n        /* \"#utility.yul\":8078:8219   */\n      swap2\n      swap1\n      pop\n      jump\t// out\n        /* \"#utility.yul\":8225:8318   */\n    tag_95:\n        /* \"#utility.yul\":8262:8268   */\n      0x00\n        /* \"#utility.yul\":8309:8311   */\n      0x20\n        /* \"#utility.yul\":8304:8306   */\n      0x1f\n        /* \"#utility.yul\":8297:8302   */\n      dup4\n        /* \"#utility.yul\":8293:8307   */\n      add\n        /* \"#utility.yul\":8289:8312   */\n      div\n        /* \"#utility.yul\":8279:8312   */\n      swap1\n      pop\n        /* \"#utility.yul\":8225:8318   */\n      swap2\n      swap1\n      pop\n      jump\t// out\n        /* \"#utility.yul\":8324:8431   */\n    tag_96:\n        /* \"#utility.yul\":8368:8376   */\n      0x00\n        /* \"#utility.yul\":8418:8423   */\n      dup3\n        /* \"#utility.yul\":8412:8416   */\n      dup3\n        /* \"#utility.yul\":8408:8424   */\n      shl\n        /* \"#utility.yul\":8387:8424   */\n      swap1\n      pop\n        /* \"#utility.yul\":8324:8431   */\n      swap3\n      swap2\n      pop\n      pop\n      jump\t// out\n        /* \"#utility.yul\":8437:8830   */\n    tag_97:\n        /* \"#utility.yul\":8506:8512   */\n      0x00\n        /* \"#utility.yul\":8556:8557   */\n      0x08\n        /* \"#utility.yul\":8544:8554   */\n      dup4\n        /* \"#utility.yul\":8540:8558   */\n      mul\n        /* \"#utility.yul\":8579:8676   */\n      tag_205\n        /* \"#utility.yul\":8609:8675   */\n      0xffffffffffffffffffffffffffffffffffffffffffffffffffffffffffffffff\n        /* \"#utility.yul\":8598:8607   */\n      dup3\n        /* \"#utility.yul\":8579:8676   */\n      tag_96\n      jump\t// in\n    tag_205:\n        /* \"#utility.yul\":8697:8736   */\n      tag_206\n        /* \"#utility.yul\":8727:8735   */\n      dup7\n        /* \"#utility.yul\":8716:8725   */\n      dup4\n        /* \"#utility.yul\":8697:8736   */\n      tag_96\n      jump\t// in\n    tag_206:\n        /* \"#utility.yul\":8685:8736   */\n      swap6\n      pop\n        /* \"#utility.yul\":8769:8773   */\n      dup1\n        /* \"#utility.yul\":8765:8774   */\n      not\n        /* \"#utility.yul\":8758:8763   */\n      dup5\n        /* \"#utility.yul\":8754:8775   */\n      and\n        /* \"#utility.yul\":8745:8775   */\n      swap4\n      pop\n        /* \"#utility.yul\":8818:8822   */\n      dup1\n        /* \"#utility.yul\":8808:8816   */\n      dup7\n        /* \"#utility.yul\":8804:8823   */\n      and\n        /* \"#utility.yul\":8797:8802   */\n      dup5\n        /* \"#utility.yul\":8794:8824   */\n      or\n        /* \"#utility.yul\":8784:8824   */\n      swap3\n      pop\n        /* \"#utility.yul\":8513:8830   */\n      pop\n      pop\n        /* \"#utility.yul\":8437:8830   */\n      swap4\n      swap3\n      pop\n      pop\n      pop\n      jump\t// out\n        /* \"#utility.yul\":8836:8896   */\n    tag_98:\n        /* \"#utility.yul\":8864:8867   */\n      0x00\n        /* \"#utility.yul\":8885:8890   */\n      dup2\n        /* \"#utility.yul\":8878:8890   */\n      swap1\n      pop\n        /* \"#utility.yul\":8836:8896   */\n      swap2\n      swap1\n      pop\n      jump\t// out\n        /* \"#utility.yul\":8902:9044   */\n    tag_99:\n        /* \"#utility.yul\":8952:8961   */\n      0x00\n        /* \"#utility.yul\":8985:9038   */\n      tag_209\n        /* \"#utility.yul\":9003:9037   */\n      tag_210\n        /* \"#utility.yul\":9012:9036   */\n      tag_211\n        /* \"#utility.yul\":9030:9035   */\n      dup5\n        /* \"#utility.yul\":9012:9036   */\n      tag_81\n      jump\t// in\n    tag_211:\n        /* \"#utility.yul\":9003:9037   */\n      tag_98\n      jump\t// in\n    tag_210:\n        /* \"#utility.yul\":8985:9038   */\n      tag_81\n      jump\t// in\n    tag_209:\n        /* \"#utility.yul\":8972:9038   */\n      swap1\n      pop\n        /* \"#utility.yul\":8902:9044   */\n      swap2\n      swap1\n      pop\n      jump\t// out\n        /* \"#utility.yul\":9050:9125   */\n    tag_100:\n        /* \"#utility.yul\":9093:9096   */\n      0x00\n        /* \"#utility.yul\":9114:9119   */\n      dup2\n        /* \"#utility.yul\":9107:9119   */\n      swap1\n      pop\n        /* \"#utility.yul\":9050:9125   */\n      swap2\n      swap1\n      pop\n      jump\t// out\n        /* \"#utility.yul\":9131:9400   */\n    tag_101:\n        /* \"#utility.yul\":9241:9280   */\n      tag_214\n        /* \"#utility.yul\":9272:9279   */\n      dup4\n        /* \"#utility.yul\":9241:9280   */\n      tag_99\n      jump\t// in\n    tag_214:\n        /* \"#utility.yul\":9302:9393   */\n      tag_215\n        /* \"#utility.yul\":9351:9392   */\n      tag_216\n        /* \"#utility.yul\":9375:9391   */\n      dup3\n        /* \"#utility.yul\":9351:9392   */\n      tag_100\n      jump\t// in\n    tag_216:\n        /* \"#utility.yul\":9343:9349   */\n      dup5\n        /* \"#utility.yul\":9336:9340   */\n      dup5\n        /* \"#utility.yul\":9330:9341   */\n      sload\n        /* \"#utility.yul\":9302:9393   */\n      tag_97\n      jump\t// in\n    tag_215:\n        /* \"#utility.yul\":9296:9300   */\n      dup3\n        /* \"#utility.yul\":9289:9394   */\n      sstore\n        /* \"#utility.yul\":9207:9400   */\n      pop\n        /* \"#utility.yul\":9131:9400   */\n      pop\n      pop\n      pop\n      jump\t// out\n        /* \"#utility.yul\":9406:9479   */\n    tag_102:\n        /* \"#utility.yul\":9451:9454   */\n      0x00\n        /* \"#utility.yul\":9406:9479   */\n      swap1\n      jump\t// out\n        /* \"#utility.yul\":9485:9674   */\n    tag_103:\n        /* \"#utility.yul\":9562:9594   */\n      tag_219\n      tag_102\n      jump\t// in\n    tag_219:\n        /* \"#utility.yul\":9603:9668   */\n      tag_220\n        /* \"#utility.yul\":9661:9667   */\n      dup2\n        /* \"#utility.yul\":9653:9659   */\n      dup5\n        /* \"#utility.yul\":9647:9651   */\n      dup5\n        /* \"#utility.yul\":9603:9668   */\n      tag_101\n      jump\t// in\n    tag_220:\n        /* \"#utility.yul\":9538:9674   */\n      pop\n        /* \"#utility.yul\":9485:9674   */\n      pop\n      pop\n      jump\t// out\n        /* \"#utility.yul\":9680:9866   */\n    tag_104:\n        /* \"#utility.yul\":9740:9860   */\n    tag_222:\n        /* \"#utility.yul\":9757:9760   */\n      dup2\n        /* \"#utility.yul\":9750:9755   */\n      dup2\n        /* \"#utility.yul\":9747:9761   */\n      lt\n        /* \"#utility.yul\":9740:9860   */\n      iszero\n      tag_224\n      jumpi\n        /* \"#utility.yul\":9811:9850   */\n      tag_225\n        /* \"#utility.yul\":9848:9849   */\n      0x00\n        /* \"#utility.yul\":9841:9846   */\n      dup3\n        /* \"#utility.yul\":9811:9850   */\n      tag_103\n      jump\t// in\n    tag_225:\n        /* \"#utility.yul\":9784:9785   */\n      0x01\n        /* \"#utility.yul\":9777:9782   */\n      dup2\n        /* \"#utility.yul\":9773:9786   */\n      add\n        /* \"#utility.yul\":9764:9786   */\n      swap1\n      pop\n        /* \"#utility.yul\":9740:9860   */\n      jump(tag_222)\n    tag_224:\n        /* \"#utility.yul\":9680:9866   */\n      pop\n      pop\n      jump\t// out\n        /* \"#utility.yul\":9872:10415   */\n    tag_105:\n        /* \"#utility.yul\":9973:9975   */\n      0x1f\n        /* \"#utility.yul\":9968:9971   */\n      dup3\n        /* \"#utility.yul\":9965:9976   */\n      gt\n        /* \"#utility.yul\":9962:10408   */\n      iszero\n      tag_227\n      jumpi\n        /* \"#utility.yul\":10007:10045   */\n      tag_228\n        /* \"#utility.yul\":10039:10044   */\n      dup2\n        /* \"#utility.yul\":10007:10045   */\n      tag_94\n      jump\t// in\n    tag_228:\n        /* \"#utility.yul\":10091:10120   */\n      tag_229\n        /* \"#utility.yul\":10109:10119   */\n      dup5\n        /* \"#utility.yul\":10091:10120   */\n      tag_95\n      jump\t// in\n    tag_229:\n        /* \"#utility.yul\":10081:10089   */\n      dup2\n        /* \"#utility.yul\":10077:10121   */\n      add\n        /* \"#utility.yul\":10274:10276   */\n      0x20\n        /* \"#utility.yul\":10262:10272   */\n      dup6\n        /* \"#utility.yul\":10259:10277   */\n      lt\n        /* \"#utility.yul\":10256:10305   */\n      iszero\n      tag_230\n      jumpi\n        /* \"#utility.yul\":10295:10303   */\n      dup2\n        /* \"#utility.yul\":10280:10303   */\n      swap1\n      pop\n        /* \"#utility.yul\":10256:10305   */\n    tag_230:\n        /* \"#utility.yul\":10318:10398   */\n      tag_231\n        /* \"#utility.yul\":10374:10396   */\n      tag_232\n        /* \"#utility.yul\":10392:10395   */\n      dup6\n        /* \"#utility.yul\":10374:10396   */\n      tag_95\n      jump\t// in\n    tag_232:\n        /* \"#utility.yul\":10364:10372   */\n      dup4\n        /* \"#utility.yul\":10360:10397   */\n      add\n        /* \"#utility.yul\":10347:10358   */\n      dup3\n        /* \"#utility.yul\":10318:10398   */\n      tag_104\n      jump\t// in\n    tag_231:\n        /* \"#utility.yul\":9977:10408   */\n      pop\n      pop\n        /* \"#utility.yul\":9962:10408   */\n    tag_227:\n        /* \"#utility.yul\":9872:10415   */\n      pop\n      pop\n      pop\n      jump\t// out\n        /* \"#utility.yul\":10421:10538   */\n    tag_106:\n        /* \"#utility.yul\":10475:10483   */\n      0x00\n        /* \"#utility.yul\":10525:10530   */\n      dup3\n        /* \"#utility.yul\":10519:10523   */\n      dup3\n        /* \"#utility.yul\":10515:10531   */\n      shr\n        /* \"#utility.yul\":10494:10531   */\n      swap1\n      pop\n        /* \"#utility.yul\":10421:10538   */\n      swap3\n      swap2\n      pop\n      pop\n      jump\t// out\n        /* \"#utility.yul\":10544:10713   */\n    tag_107:\n        /* \"#utility.yul\":10588:10594   */\n      0x00\n        /* \"#utility.yul\":10621:10672   */\n      tag_235\n        /* \"#utility.yul\":10669:10670   */\n      0x00\n        /* \"#utility.yul\":10665:10671   */\n      not\n        /* \"#utility.yul\":10657:10662   */\n      dup5\n        /* \"#utility.yul\":10654:10655   */\n      0x08\n        /* \"#utility.yul\":10650:10663   */\n      mul\n        /* \"#utility.yul\":10621:10672   */\n      tag_106\n      jump\t// in\n    tag_235:\n        /* \"#utility.yul\":10617:10673   */\n      not\n        /* \"#utility.yul\":10702:10706   */\n      dup1\n        /* \"#utility.yul\":10696:10700   */\n      dup4\n        /* \"#utility.yul\":10692:10707   */\n      and\n        /* \"#utility.yul\":10682:10707   */\n      swap2\n      pop\n        /* \"#utility.yul\":10595:10713   */\n      pop\n        /* \"#utility.yul\":10544:10713   */\n      swap3\n      swap2\n      pop\n      pop\n      jump\t// out\n        /* \"#utility.yul\":10718:11013   */\n    tag_108:\n        /* \"#utility.yul\":10794:10798   */\n      0x00\n        /* \"#utility.yul\":10940:10969   */\n      tag_237\n        /* \"#utility.yul\":10965:10968   */\n      dup4\n        /* \"#utility.yul\":10959:10963   */\n      dup4\n        /* \"#utility.yul\":10940:10969   */\n      tag_107\n      jump\t// in\n    tag_237:\n        /* \"#utility.yul\":10932:10969   */\n      swap2\n      pop\n        /* \"#utility.yul\":11002:11005   */\n      dup3\n        /* \"#utility.yul\":10999:11000   */\n      0x02\n        /* \"#utility.yul\":10995:11006   */\n      mul\n        /* \"#utility.yul\":10989:10993   */\n      dup3\n        /* \"#utility.yul\":10986:11007   */\n      or\n        /* \"#utility.yul\":10978:11007   */\n      swap1\n      pop\n        /* \"#utility.yul\":10718:11013   */\n      swap3\n      swap2\n      pop\n      pop\n      jump\t// out\n        /* \"#utility.yul\":11018:12413   */\n    tag_41:\n        /* \"#utility.yul\":11135:11172   */\n      tag_239\n        /* \"#utility.yul\":11168:11171   */\n      dup3\n        /* \"#utility.yul\":11135:11172   */\n      tag_89\n      jump\t// in\n    tag_239:\n        /* \"#utility.yul\":11237:11255   */\n      0xffffffffffffffff\n        /* \"#utility.yul\":11229:11235   */\n      dup2\n        /* \"#utility.yul\":11226:11256   */\n      gt\n        /* \"#utility.yul\":11223:11279   */\n      iszero\n      tag_240\n      jumpi\n        /* \"#utility.yul\":11259:11277   */\n      tag_241\n      tag_74\n      jump\t// in\n    tag_241:\n        /* \"#utility.yul\":11223:11279   */\n    tag_240:\n        /* \"#utility.yul\":11303:11341   */\n      tag_242\n        /* \"#utility.yul\":11335:11339   */\n      dup3\n        /* \"#utility.yul\":11329:11340   */\n      sload\n        /* \"#utility.yul\":11303:11341   */\n      tag_51\n      jump\t// in\n    tag_242:\n        /* \"#utility.yul\":11388:11455   */\n      tag_243\n        /* \"#utility.yul\":11448:11454   */\n      dup3\n        /* \"#utility.yul\":11440:11446   */\n      dup3\n        /* \"#utility.yul\":11434:11438   */\n      dup6\n        /* \"#utility.yul\":11388:11455   */\n      tag_105\n      jump\t// in\n    tag_243:\n        /* \"#utility.yul\":11482:11483   */\n      0x00\n        /* \"#utility.yul\":11506:11510   */\n      0x20\n        /* \"#utility.yul\":11493:11510   */\n      swap1\n      pop\n        /* \"#utility.yul\":11538:11540   */\n      0x1f\n        /* \"#utility.yul\":11530:11536   */\n      dup4\n        /* \"#utility.yul\":11527:11541   */\n      gt\n        /* \"#utility.yul\":11555:11556   */\n      0x01\n        /* \"#utility.yul\":11550:12168   */\n      dup2\n      eq\n      tag_245\n      jumpi\n        /* \"#utility.yul\":12212:12213   */\n      0x00\n        /* \"#utility.yul\":12229:12235   */\n      dup5\n        /* \"#utility.yul\":12226:12303   */\n      iszero\n      tag_246\n      jumpi\n        /* \"#utility.yul\":12278:12287   */\n      dup3\n        /* \"#utility.yul\":12273:12276   */\n      dup8\n        /* \"#utility.yul\":12269:12288   */\n      add\n        /* \"#utility.yul\":12263:12289   */\n      mload\n        /* \"#utility.yul\":12254:12289   */\n      swap1\n      pop\n        /* \"#utility.yul\":12226:12303   */\n    tag_246:\n        /* \"#utility.yul\":12329:12396   */\n      tag_247\n        /* \"#utility.yul\":12389:12395   */\n      dup6\n        /* \"#utility.yul\":12382:12387   */\n      dup3\n        /* \"#utility.yul\":12329:12396   */\n      tag_108\n      jump\t// in\n    tag_247:\n        /* \"#utility.yul\":12323:12327   */\n      dup7\n        /* \"#utility.yul\":12316:12397   */\n      sstore\n        /* \"#utility.yul\":12185:12407   */\n      pop\n        /* \"#utility.yul\":11520:12407   */\n      jump(tag_244)\n        /* \"#utility.yul\":11550:12168   */\n    tag_245:\n        /* \"#utility.yul\":11602:11606   */\n      0x1f\n        /* \"#utility.yul\":11598:11607   */\n      not\n        /* \"#utility.yul\":11590:11596   */\n      dup5\n        /* \"#utility.yul\":11586:11608   */\n      and\n        /* \"#utility.yul\":11636:11673   */\n      tag_248\n        /* \"#utility.yul\":11668:11672   */\n      dup7\n        /* \"#utility.yul\":11636:11673   */\n      tag_94\n      jump\t// in\n    tag_248:\n        /* \"#utility.yul\":11695:11696   */\n      0x00\n        /* \"#utility.yul\":11709:11917   */\n    tag_249:\n        /* \"#utility.yul\":11723:11730   */\n      dup3\n        /* \"#utility.yul\":11720:11721   */\n      dup2\n        /* \"#utility.yul\":11717:11731   */\n      lt\n        /* \"#utility.yul\":11709:11917   */\n      iszero\n      tag_251\n      jumpi\n        /* \"#utility.yul\":11802:11811   */\n      dup5\n        /* \"#utility.yul\":11797:11800   */\n      dup10\n        /* \"#utility.yul\":11793:11812   */\n      add\n        /* \"#utility.yul\":11787:11813   */\n      mload\n        /* \"#utility.yul\":11779:11785   */\n      dup3\n        /* \"#utility.yul\":11772:11814   */\n      sstore\n        /* \"#utility.yul\":11853:11854   */\n      0x01\n        /* \"#utility.yul\":11845:11851   */\n      dup3\n        /* \"#utility.yul\":11841:11855   */\n      add\n        /* \"#utility.yul\":11831:11855   */\n      swap2\n      pop\n        /* \"#utility.yul\":11900:11902   */\n      0x20\n        /* \"#utility.yul\":11889:11898   */\n      dup6\n        /* \"#utility.yul\":11885:11903   */\n      add\n        /* \"#utility.yul\":11872:11903   */\n      swap5\n      pop\n        /* \"#utility.yul\":11746:11750   */\n      0x20\n        /* \"#utility.yul\":11743:11744   */\n      dup2\n        /* \"#utility.yul\":11739:11751   */\n      add\n        /* \"#utility.yul\":11734:11751   */\n      swap1\n      pop\n        /* \"#utility.yul\":11709:11917   */\n      jump(tag_249)\n    tag_251:\n        /* \"#utility.yul\":11945:11951   */\n      dup7\n        /* \"#utility.yul\":11936:11943   */\n      dup4\n        /* \"#utility.yul\":11933:11952   */\n      lt\n        /* \"#utility.yul\":11930:12109   */\n      iszero\n      tag_252\n      jumpi\n        /* \"#utility.yul\":12003:12012   */\n      dup5\n        /* \"#utility.yul\":11998:12001   */\n      dup10\n        /* \"#utility.yul\":11994:12013   */\n      add\n        /* \"#utility.yul\":11988:12014   */\n      mload\n        /* \"#utility.yul\":12046:12094   */\n      tag_253\n        /* \"#utility.yul\":12088:12092   */\n      0x1f\n        /* \"#utility.yul\":12080:12086   */\n      dup10\n        /* \"#utility.yul\":12076:12093   */\n      and\n        /* \"#utility.yul\":12065:12074   */\n      dup3\n        /* \"#utility.yul\":12046:12094   */\n      tag_107\n      jump\t// in\n    tag_253:\n        /* \"#utility.yul\":12038:12044   */\n      dup4\n        /* \"#utility.yul\":12031:12095   */\n      sstore\n        /* \"#utility.yul\":11953:12109   */\n      pop\n        /* \"#utility.yul\":11930:12109   */\n    tag_252:\n        /* \"#utility.yul\":12155:12156   */\n      0x01\n        /* \"#utility.yul\":12151:12152   */\n      0x02\n        /* \"#utility.yul\":12143:12149   */\n      dup9\n        /* \"#utility.yul\":12139:12153   */\n      mul\n        /* \"#utility.yul\":12135:12157   */\n      add\n        /* \"#utility.yul\":12129:12133   */\n      dup9\n        /* \"#utility.yul\":12122:12158   */\n      sstore\n        /* \"#utility.yul\":11557:12168   */\n      pop\n      pop\n      pop\n        /* \"#utility.yul\":11520:12407   */\n    tag_244:\n      pop\n        /* \"#utility.yul\":11110:12413   */\n      pop\n      pop\n      pop\n        /* \"#utility.yul\":11018:12413   */\n      pop\n      pop\n      jump\t// out\n        /* \"#utility.yul\":12419:12599   */\n    tag_48:\n        /* \"#utility.yul\":12467:12544   */\n      0x4e487b7100000000000000000000000000000000000000000000000000000000\n        /* \"#utility.yul\":12464:12465   */\n      0x00\n        /* \"#utility.yul\":12457:12545   */\n      mstore\n        /* \"#utility.yul\":12564:12568   */\n      0x32\n        /* \"#utility.yul\":12561:12562   */\n      0x04\n        /* \"#utility.yul\":12554:12569   */\n      mstore\n        /* \"#utility.yul\":12588:12592   */\n      0x24\n        /* \"#utility.yul\":12585:12586   */\n      0x00\n        /* \"#utility.yul\":12578:12593   */\n      revert\n\n    auxdata: 0xa26469706673582212208ea7034db4ca182283bc36b0c0e6e27ede8b8a71d2827194e6b473b84adc8b4764736f6c63430008110033\n}\n",
				"bytecode": {
					"linkReferences": {},
					"object": "608060405234801561001057600080fd5b50610bff806100206000396000f3fe608060405234801561001057600080fd5b50600436106100625760003560e01c80630d3de88d146100675780630e0c243d14610083578063564f2a731461009f578063a677c48f146100cf578063a857bf32146100ff578063b9d6dedb14610130575b600080fd5b610081600480360381019061007c919061063e565b610161565b005b61009d600480360381019061009891906106f8565b6101c7565b005b6100b960048036038101906100b49190610767565b610243565b6040516100c691906107a3565b60405180910390f35b6100e960048036038101906100e491906107be565b61028f565b6040516100f6919061086a565b60405180910390f35b61011960048036038101906101149190610767565b610346565b60405161012792919061088c565b60405180910390f35b61014a600480360381019061014591906107be565b6103f2565b60405161015892919061088c565b60405180910390f35b6000604051806040016040528084815260200183815250908060018154018082558091505060019003906000526020600020906002020160009091909190915060008201518160000190816101b69190610ac8565b506020820151816001015550505050565b604051806040016040528083815260200182815250600160008573ffffffffffffffffffffffffffffffffffffffff1673ffffffffffffffffffffffffffffffffffffffff16815260200190815260200160002060008201518160000190816102309190610ac8565b5060208201518160010155905050505050565b6000600160008373ffffffffffffffffffffffffffffffffffffffff1673ffffffffffffffffffffffffffffffffffffffff168152602001908152602001600020600101549050919050565b6060600082815481106102a5576102a4610b9a565b5b906000526020600020906002020160000180546102c1906108eb565b80601f01602080910402602001604051908101604052809291908181526020018280546102ed906108eb565b801561033a5780601f1061030f5761010080835404028352916020019161033a565b820191906000526020600020905b81548152906001019060200180831161031d57829003601f168201915b50505050509050919050565b6001602052806000526040600020600091509050806000018054610369906108eb565b80601f0160208091040260200160405190810160405280929190818152602001828054610395906108eb565b80156103e25780601f106103b7576101008083540402835291602001916103e2565b820191906000526020600020905b8154815290600101906020018083116103c557829003601f168201915b5050505050908060010154905082565b6000818154811061040257600080fd5b9060005260206000209060020201600091509050806000018054610425906108eb565b80601f0160208091040260200160405190810160405280929190818152602001828054610451906108eb565b801561049e5780601f106104735761010080835404028352916020019161049e565b820191906000526020600020905b81548152906001019060200180831161048157829003601f168201915b5050505050908060010154905082565b6000604051905090565b600080fd5b600080fd5b600080fd5b600080fd5b6000601f19601f8301169050919050565b7f4e487b7100000000000000000000000000000000000000000000000000000000600052604160045260246000fd5b610515826104cc565b810181811067ffffffffffffffff82111715610534576105336104dd565b5b80604052505050565b60006105476104ae565b9050610553828261050c565b919050565b600067ffffffffffffffff821115610573576105726104dd565b5b61057c826104cc565b9050602081019050919050565b82818337600083830152505050565b60006105ab6105a684610558565b61053d565b9050828152602081018484840111156105c7576105c66104c7565b5b6105d2848285610589565b509392505050565b600082601f8301126105ef576105ee6104c2565b5b81356105ff848260208601610598565b91505092915050565b6000819050919050565b61061b81610608565b811461062657600080fd5b50565b60008135905061063881610612565b92915050565b60008060408385031215610655576106546104b8565b5b600083013567ffffffffffffffff811115610673576106726104bd565b5b61067f858286016105da565b925050602061069085828601610629565b9150509250929050565b600073ffffffffffffffffffffffffffffffffffffffff82169050919050565b60006106c58261069a565b9050919050565b6106d5816106ba565b81146106e057600080fd5b50565b6000813590506106f2816106cc565b92915050565b600080600060608486031215610711576107106104b8565b5b600061071f868287016106e3565b935050602084013567ffffffffffffffff8111156107405761073f6104bd565b5b61074c868287016105da565b925050604061075d86828701610629565b9150509250925092565b60006020828403121561077d5761077c6104b8565b5b600061078b848285016106e3565b91505092915050565b61079d81610608565b82525050565b60006020820190506107b86000830184610794565b92915050565b6000602082840312156107d4576107d36104b8565b5b60006107e284828501610629565b91505092915050565b600081519050919050565b600082825260208201905092915050565b60005b8381101561082557808201518184015260208101905061080a565b60008484015250505050565b600061083c826107eb565b61084681856107f6565b9350610856818560208601610807565b61085f816104cc565b840191505092915050565b600060208201905081810360008301526108848184610831565b905092915050565b600060408201905081810360008301526108a68185610831565b90506108b56020830184610794565b9392505050565b7f4e487b7100000000000000000000000000000000000000000000000000000000600052602260045260246000fd5b6000600282049050600182168061090357607f821691505b602082108103610916576109156108bc565b5b50919050565b60008190508160005260206000209050919050565b60006020601f8301049050919050565b600082821b905092915050565b60006008830261097e7fffffffffffffffffffffffffffffffffffffffffffffffffffffffffffffffff82610941565b6109888683610941565b95508019841693508086168417925050509392505050565b6000819050919050565b60006109c56109c06109bb84610608565b6109a0565b610608565b9050919050565b6000819050919050565b6109df836109aa565b6109f36109eb826109cc565b84845461094e565b825550505050565b600090565b610a086109fb565b610a138184846109d6565b505050565b5b81811015610a3757610a2c600082610a00565b600181019050610a19565b5050565b601f821115610a7c57610a4d8161091c565b610a5684610931565b81016020851015610a65578190505b610a79610a7185610931565b830182610a18565b50505b505050565b600082821c905092915050565b6000610a9f60001984600802610a81565b1980831691505092915050565b6000610ab88383610a8e565b9150826002028217905092915050565b610ad1826107eb565b67ffffffffffffffff811115610aea57610ae96104dd565b5b610af482546108eb565b610aff828285610a3b565b600060209050601f831160018114610b325760008415610b20578287015190505b610b2a8582610aac565b865550610b92565b601f198416610b408661091c565b60005b82811015610b6857848901518255600182019150602085019450602081019050610b43565b86831015610b855784890151610b81601f891682610a8e565b8355505b6001600288020188555050505b505050505050565b7f4e487b7100000000000000000000000000000000000000000000000000000000600052603260045260246000fdfea26469706673582212208ea7034db4ca182283bc36b0c0e6e27ede8b8a71d2827194e6b473b84adc8b4764736f6c63430008110033",
					"opcodes": "PUSH1 0x80 PUSH1 0x40 MSTORE CALLVALUE DUP1 ISZERO PUSH2 0x10 JUMPI PUSH1 0x0 DUP1 REVERT JUMPDEST POP PUSH2 0xBFF DUP1 PUSH2 0x20 PUSH1 0x0 CODECOPY PUSH1 0x0 RETURN INVALID PUSH1 0x80 PUSH1 0x40 MSTORE CALLVALUE DUP1 ISZERO PUSH2 0x10 JUMPI PUSH1 0x0 DUP1 REVERT JUMPDEST POP PUSH1 0x4 CALLDATASIZE LT PUSH2 0x62 JUMPI PUSH1 0x0 CALLDATALOAD PUSH1 0xE0 SHR DUP1 PUSH4 0xD3DE88D EQ PUSH2 0x67 JUMPI DUP1 PUSH4 0xE0C243D EQ PUSH2 0x83 JUMPI DUP1 PUSH4 0x564F2A73 EQ PUSH2 0x9F JUMPI DUP1 PUSH4 0xA677C48F EQ PUSH2 0xCF JUMPI DUP1 PUSH4 0xA857BF32 EQ PUSH2 0xFF JUMPI DUP1 PUSH4 0xB9D6DEDB EQ PUSH2 0x130 JUMPI JUMPDEST PUSH1 0x0 DUP1 REVERT JUMPDEST PUSH2 0x81 PUSH1 0x4 DUP1 CALLDATASIZE SUB DUP2 ADD SWAP1 PUSH2 0x7C SWAP2 SWAP1 PUSH2 0x63E JUMP JUMPDEST PUSH2 0x161 JUMP JUMPDEST STOP JUMPDEST PUSH2 0x9D PUSH1 0x4 DUP1 CALLDATASIZE SUB DUP2 ADD SWAP1 PUSH2 0x98 SWAP2 SWAP1 PUSH2 0x6F8 JUMP JUMPDEST PUSH2 0x1C7 JUMP JUMPDEST STOP JUMPDEST PUSH2 0xB9 PUSH1 0x4 DUP1 CALLDATASIZE SUB DUP2 ADD SWAP1 PUSH2 0xB4 SWAP2 SWAP1 PUSH2 0x767 JUMP JUMPDEST PUSH2 0x243 JUMP JUMPDEST PUSH1 0x40 MLOAD PUSH2 0xC6 SWAP2 SWAP1 PUSH2 0x7A3 JUMP JUMPDEST PUSH1 0x40 MLOAD DUP1 SWAP2 SUB SWAP1 RETURN JUMPDEST PUSH2 0xE9 PUSH1 0x4 DUP1 CALLDATASIZE SUB DUP2 ADD SWAP1 PUSH2 0xE4 SWAP2 SWAP1 PUSH2 0x7BE JUMP JUMPDEST PUSH2 0x28F JUMP JUMPDEST PUSH1 0x40 MLOAD PUSH2 0xF6 SWAP2 SWAP1 PUSH2 0x86A JUMP JUMPDEST PUSH1 0x40 MLOAD DUP1 SWAP2 SUB SWAP1 RETURN JUMPDEST PUSH2 0x119 PUSH1 0x4 DUP1 CALLDATASIZE SUB DUP2 ADD SWAP1 PUSH2 0x114 SWAP2 SWAP1 PUSH2 0x767 JUMP JUMPDEST PUSH2 0x346 JUMP JUMPDEST PUSH1 0x40 MLOAD PUSH2 0x127 SWAP3 SWAP2 SWAP1 PUSH2 0x88C JUMP JUMPDEST PUSH1 0x40 MLOAD DUP1 SWAP2 SUB SWAP1 RETURN JUMPDEST PUSH2 0x14A PUSH1 0x4 DUP1 CALLDATASIZE SUB DUP2 ADD SWAP1 PUSH2 0x145 SWAP2 SWAP1 PUSH2 0x7BE JUMP JUMPDEST PUSH2 0x3F2 JUMP JUMPDEST PUSH1 0x40 MLOAD PUSH2 0x158 SWAP3 SWAP2 SWAP1 PUSH2 0x88C JUMP JUMPDEST PUSH1 0x40 MLOAD DUP1 SWAP2 SUB SWAP1 RETURN JUMPDEST PUSH1 0x0 PUSH1 0x40 MLOAD DUP1 PUSH1 0x40 ADD PUSH1 0x40 MSTORE DUP1 DUP5 DUP2 MSTORE PUSH1 0x20 ADD DUP4 DUP2 MSTORE POP SWAP1 DUP1 PUSH1 0x1 DUP2 SLOAD ADD DUP1 DUP3 SSTORE DUP1 SWAP2 POP POP PUSH1 0x1 SWAP1 SUB SWAP1 PUSH1 0x0 MSTORE PUSH1 0x20 PUSH1 0x0 KECCAK256 SWAP1 PUSH1 0x2 MUL ADD PUSH1 0x0 SWAP1 SWAP2 SWAP1 SWAP2 SWAP1 SWAP2 POP PUSH1 0x0 DUP3 ADD MLOAD DUP2 PUSH1 0x0 ADD SWAP1 DUP2 PUSH2 0x1B6 SWAP2 SWAP1 PUSH2 0xAC8 JUMP JUMPDEST POP PUSH1 0x20 DUP3 ADD MLOAD DUP2 PUSH1 0x1 ADD SSTORE POP POP POP POP JUMP JUMPDEST PUSH1 0x40 MLOAD DUP1 PUSH1 0x40 ADD PUSH1 0x40 MSTORE DUP1 DUP4 DUP2 MSTORE PUSH1 0x20 ADD DUP3 DUP2 MSTORE POP PUSH1 0x1 PUSH1 0x0 DUP6 PUSH20 0xFFFFFFFFFFFFFFFFFFFFFFFFFFFFFFFFFFFFFFFF AND PUSH20 0xFFFFFFFFFFFFFFFFFFFFFFFFFFFFFFFFFFFFFFFF AND DUP2 MSTORE PUSH1 0x20 ADD SWAP1 DUP2 MSTORE PUSH1 0x20 ADD PUSH1 0x0 KECCAK256 PUSH1 0x0 DUP3 ADD MLOAD DUP2 PUSH1 0x0 ADD SWAP1 DUP2 PUSH2 0x230 SWAP2 SWAP1 PUSH2 0xAC8 JUMP JUMPDEST POP PUSH1 0x20 DUP3 ADD MLOAD DUP2 PUSH1 0x1 ADD SSTORE SWAP1 POP POP POP POP POP JUMP JUMPDEST PUSH1 0x0 PUSH1 0x1 PUSH1 0x0 DUP4 PUSH20 0xFFFFFFFFFFFFFFFFFFFFFFFFFFFFFFFFFFFFFFFF AND PUSH20 0xFFFFFFFFFFFFFFFFFFFFFFFFFFFFFFFFFFFFFFFF AND DUP2 MSTORE PUSH1 0x20 ADD SWAP1 DUP2 MSTORE PUSH1 0x20 ADD PUSH1 0x0 KECCAK256 PUSH1 0x1 ADD SLOAD SWAP1 POP SWAP2 SWAP1 POP JUMP JUMPDEST PUSH1 0x60 PUSH1 0x0 DUP3 DUP2 SLOAD DUP2 LT PUSH2 0x2A5 JUMPI PUSH2 0x2A4 PUSH2 0xB9A JUMP JUMPDEST JUMPDEST SWAP1 PUSH1 0x0 MSTORE PUSH1 0x20 PUSH1 0x0 KECCAK256 SWAP1 PUSH1 0x2 MUL ADD PUSH1 0x0 ADD DUP1 SLOAD PUSH2 0x2C1 SWAP1 PUSH2 0x8EB JUMP JUMPDEST DUP1 PUSH1 0x1F ADD PUSH1 0x20 DUP1 SWAP2 DIV MUL PUSH1 0x20 ADD PUSH1 0x40 MLOAD SWAP1 DUP2 ADD PUSH1 0x40 MSTORE DUP1 SWAP3 SWAP2 SWAP1 DUP2 DUP2 MSTORE PUSH1 0x20 ADD DUP3 DUP1 SLOAD PUSH2 0x2ED SWAP1 PUSH2 0x8EB JUMP JUMPDEST DUP1 ISZERO PUSH2 0x33A JUMPI DUP1 PUSH1 0x1F LT PUSH2 0x30F JUMPI PUSH2 0x100 DUP1 DUP4 SLOAD DIV MUL DUP4 MSTORE SWAP2 PUSH1 0x20 ADD SWAP2 PUSH2 0x33A JUMP JUMPDEST DUP3 ADD SWAP2 SWAP1 PUSH1 0x0 MSTORE PUSH1 0x20 PUSH1 0x0 KECCAK256 SWAP1 JUMPDEST DUP2 SLOAD DUP2 MSTORE SWAP1 PUSH1 0x1 ADD SWAP1 PUSH1 0x20 ADD DUP1 DUP4 GT PUSH2 0x31D JUMPI DUP3 SWAP1 SUB PUSH1 0x1F AND DUP3 ADD SWAP2 JUMPDEST POP POP POP POP POP SWAP1 POP SWAP2 SWAP1 POP JUMP JUMPDEST PUSH1 0x1 PUSH1 0x20 MSTORE DUP1 PUSH1 0x0 MSTORE PUSH1 0x40 PUSH1 0x0 KECCAK256 PUSH1 0x0 SWAP2 POP SWAP1 POP DUP1 PUSH1 0x0 ADD DUP1 SLOAD PUSH2 0x369 SWAP1 PUSH2 0x8EB JUMP JUMPDEST DUP1 PUSH1 0x1F ADD PUSH1 0x20 DUP1 SWAP2 DIV MUL PUSH1 0x20 ADD PUSH1 0x40 MLOAD SWAP1 DUP2 ADD PUSH1 0x40 MSTORE DUP1 SWAP3 SWAP2 SWAP1 DUP2 DUP2 MSTORE PUSH1 0x20 ADD DUP3 DUP1 SLOAD PUSH2 0x395 SWAP1 PUSH2 0x8EB JUMP JUMPDEST DUP1 ISZERO PUSH2 0x3E2 JUMPI DUP1 PUSH1 0x1F LT PUSH2 0x3B7 JUMPI PUSH2 0x100 DUP1 DUP4 SLOAD DIV MUL DUP4 MSTORE SWAP2 PUSH1 0x20 ADD SWAP2 PUSH2 0x3E2 JUMP JUMPDEST DUP3 ADD SWAP2 SWAP1 PUSH1 0x0 MSTORE PUSH1 0x20 PUSH1 0x0 KECCAK256 SWAP1 JUMPDEST DUP2 SLOAD DUP2 MSTORE SWAP1 PUSH1 0x1 ADD SWAP1 PUSH1 0x20 ADD DUP1 DUP4 GT PUSH2 0x3C5 JUMPI DUP3 SWAP1 SUB PUSH1 0x1F AND DUP3 ADD SWAP2 JUMPDEST POP POP POP POP POP SWAP1 DUP1 PUSH1 0x1 ADD SLOAD SWAP1 POP DUP3 JUMP JUMPDEST PUSH1 0x0 DUP2 DUP2 SLOAD DUP2 LT PUSH2 0x402 JUMPI PUSH1 0x0 DUP1 REVERT JUMPDEST SWAP1 PUSH1 0x0 MSTORE PUSH1 0x20 PUSH1 0x0 KECCAK256 SWAP1 PUSH1 0x2 MUL ADD PUSH1 0x0 SWAP2 POP SWAP1 POP DUP1 PUSH1 0x0 ADD DUP1 SLOAD PUSH2 0x425 SWAP1 PUSH2 0x8EB JUMP JUMPDEST DUP1 PUSH1 0x1F ADD PUSH1 0x20 DUP1 SWAP2 DIV MUL PUSH1 0x20 ADD PUSH1 0x40 MLOAD SWAP1 DUP2 ADD PUSH1 0x40 MSTORE DUP1 SWAP3 SWAP2 SWAP1 DUP2 DUP2 MSTORE PUSH1 0x20 ADD DUP3 DUP1 SLOAD PUSH2 0x451 SWAP1 PUSH2 0x8EB JUMP JUMPDEST DUP1 ISZERO PUSH2 0x49E JUMPI DUP1 PUSH1 0x1F LT PUSH2 0x473 JUMPI PUSH2 0x100 DUP1 DUP4 SLOAD DIV MUL DUP4 MSTORE SWAP2 PUSH1 0x20 ADD SWAP2 PUSH2 0x49E JUMP JUMPDEST DUP3 ADD SWAP2 SWAP1 PUSH1 0x0 MSTORE PUSH1 0x20 PUSH1 0x0 KECCAK256 SWAP1 JUMPDEST DUP2 SLOAD DUP2 MSTORE SWAP1 PUSH1 0x1 ADD SWAP1 PUSH1 0x20 ADD DUP1 DUP4 GT PUSH2 0x481 JUMPI DUP3 SWAP1 SUB PUSH1 0x1F AND DUP3 ADD SWAP2 JUMPDEST POP POP POP POP POP SWAP1 DUP1 PUSH1 0x1 ADD SLOAD SWAP1 POP DUP3 JUMP JUMPDEST PUSH1 0x0 PUSH1 0x40 MLOAD SWAP1 POP SWAP1 JUMP JUMPDEST PUSH1 0x0 DUP1 REVERT JUMPDEST PUSH1 0x0 DUP1 REVERT JUMPDEST PUSH1 0x0 DUP1 REVERT JUMPDEST PUSH1 0x0 DUP1 REVERT JUMPDEST PUSH1 0x0 PUSH1 0x1F NOT PUSH1 0x1F DUP4 ADD AND SWAP1 POP SWAP2 SWAP1 POP JUMP JUMPDEST PUSH32 0x4E487B7100000000000000000000000000000000000000000000000000000000 PUSH1 0x0 MSTORE PUSH1 0x41 PUSH1 0x4 MSTORE PUSH1 0x24 PUSH1 0x0 REVERT JUMPDEST PUSH2 0x515 DUP3 PUSH2 0x4CC JUMP JUMPDEST DUP2 ADD DUP2 DUP2 LT PUSH8 0xFFFFFFFFFFFFFFFF DUP3 GT OR ISZERO PUSH2 0x534 JUMPI PUSH2 0x533 PUSH2 0x4DD JUMP JUMPDEST JUMPDEST DUP1 PUSH1 0x40 MSTORE POP POP POP JUMP JUMPDEST PUSH1 0x0 PUSH2 0x547 PUSH2 0x4AE JUMP JUMPDEST SWAP1 POP PUSH2 0x553 DUP3 DUP3 PUSH2 0x50C JUMP JUMPDEST SWAP2 SWAP1 POP JUMP JUMPDEST PUSH1 0x0 PUSH8 0xFFFFFFFFFFFFFFFF DUP3 GT ISZERO PUSH2 0x573 JUMPI PUSH2 0x572 PUSH2 0x4DD JUMP JUMPDEST JUMPDEST PUSH2 0x57C DUP3 PUSH2 0x4CC JUMP JUMPDEST SWAP1 POP PUSH1 0x20 DUP2 ADD SWAP1 POP SWAP2 SWAP1 POP JUMP JUMPDEST DUP3 DUP2 DUP4 CALLDATACOPY PUSH1 0x0 DUP4 DUP4 ADD MSTORE POP POP POP JUMP JUMPDEST PUSH1 0x0 PUSH2 0x5AB PUSH2 0x5A6 DUP5 PUSH2 0x558 JUMP JUMPDEST PUSH2 0x53D JUMP JUMPDEST SWAP1 POP DUP3 DUP2 MSTORE PUSH1 0x20 DUP2 ADD DUP5 DUP5 DUP5 ADD GT ISZERO PUSH2 0x5C7 JUMPI PUSH2 0x5C6 PUSH2 0x4C7 JUMP JUMPDEST JUMPDEST PUSH2 0x5D2 DUP5 DUP3 DUP6 PUSH2 0x589 JUMP JUMPDEST POP SWAP4 SWAP3 POP POP POP JUMP JUMPDEST PUSH1 0x0 DUP3 PUSH1 0x1F DUP4 ADD SLT PUSH2 0x5EF JUMPI PUSH2 0x5EE PUSH2 0x4C2 JUMP JUMPDEST JUMPDEST DUP2 CALLDATALOAD PUSH2 0x5FF DUP5 DUP3 PUSH1 0x20 DUP7 ADD PUSH2 0x598 JUMP JUMPDEST SWAP2 POP POP SWAP3 SWAP2 POP POP JUMP JUMPDEST PUSH1 0x0 DUP2 SWAP1 POP SWAP2 SWAP1 POP JUMP JUMPDEST PUSH2 0x61B DUP2 PUSH2 0x608 JUMP JUMPDEST DUP2 EQ PUSH2 0x626 JUMPI PUSH1 0x0 DUP1 REVERT JUMPDEST POP JUMP JUMPDEST PUSH1 0x0 DUP2 CALLDATALOAD SWAP1 POP PUSH2 0x638 DUP2 PUSH2 0x612 JUMP JUMPDEST SWAP3 SWAP2 POP POP JUMP JUMPDEST PUSH1 0x0 DUP1 PUSH1 0x40 DUP4 DUP6 SUB SLT ISZERO PUSH2 0x655 JUMPI PUSH2 0x654 PUSH2 0x4B8 JUMP JUMPDEST JUMPDEST PUSH1 0x0 DUP4 ADD CALLDATALOAD PUSH8 0xFFFFFFFFFFFFFFFF DUP2 GT ISZERO PUSH2 0x673 JUMPI PUSH2 0x672 PUSH2 0x4BD JUMP JUMPDEST JUMPDEST PUSH2 0x67F DUP6 DUP3 DUP7 ADD PUSH2 0x5DA JUMP JUMPDEST SWAP3 POP POP PUSH1 0x20 PUSH2 0x690 DUP6 DUP3 DUP7 ADD PUSH2 0x629 JUMP JUMPDEST SWAP2 POP POP SWAP3 POP SWAP3 SWAP1 POP JUMP JUMPDEST PUSH1 0x0 PUSH20 0xFFFFFFFFFFFFFFFFFFFFFFFFFFFFFFFFFFFFFFFF DUP3 AND SWAP1 POP SWAP2 SWAP1 POP JUMP JUMPDEST PUSH1 0x0 PUSH2 0x6C5 DUP3 PUSH2 0x69A JUMP JUMPDEST SWAP1 POP SWAP2 SWAP1 POP JUMP JUMPDEST PUSH2 0x6D5 DUP2 PUSH2 0x6BA JUMP JUMPDEST DUP2 EQ PUSH2 0x6E0 JUMPI PUSH1 0x0 DUP1 REVERT JUMPDEST POP JUMP JUMPDEST PUSH1 0x0 DUP2 CALLDATALOAD SWAP1 POP PUSH2 0x6F2 DUP2 PUSH2 0x6CC JUMP JUMPDEST SWAP3 SWAP2 POP POP JUMP JUMPDEST PUSH1 0x0 DUP1 PUSH1 0x0 PUSH1 0x60 DUP5 DUP7 SUB SLT ISZERO PUSH2 0x711 JUMPI PUSH2 0x710 PUSH2 0x4B8 JUMP JUMPDEST JUMPDEST PUSH1 0x0 PUSH2 0x71F DUP7 DUP3 DUP8 ADD PUSH2 0x6E3 JUMP JUMPDEST SWAP4 POP POP PUSH1 0x20 DUP5 ADD CALLDATALOAD PUSH8 0xFFFFFFFFFFFFFFFF DUP2 GT ISZERO PUSH2 0x740 JUMPI PUSH2 0x73F PUSH2 0x4BD JUMP JUMPDEST JUMPDEST PUSH2 0x74C DUP7 DUP3 DUP8 ADD PUSH2 0x5DA JUMP JUMPDEST SWAP3 POP POP PUSH1 0x40 PUSH2 0x75D DUP7 DUP3 DUP8 ADD PUSH2 0x629 JUMP JUMPDEST SWAP2 POP POP SWAP3 POP SWAP3 POP SWAP3 JUMP JUMPDEST PUSH1 0x0 PUSH1 0x20 DUP3 DUP5 SUB SLT ISZERO PUSH2 0x77D JUMPI PUSH2 0x77C PUSH2 0x4B8 JUMP JUMPDEST JUMPDEST PUSH1 0x0 PUSH2 0x78B DUP5 DUP3 DUP6 ADD PUSH2 0x6E3 JUMP JUMPDEST SWAP2 POP POP SWAP3 SWAP2 POP POP JUMP JUMPDEST PUSH2 0x79D DUP2 PUSH2 0x608 JUMP JUMPDEST DUP3 MSTORE POP POP JUMP JUMPDEST PUSH1 0x0 PUSH1 0x20 DUP3 ADD SWAP1 POP PUSH2 0x7B8 PUSH1 0x0 DUP4 ADD DUP5 PUSH2 0x794 JUMP JUMPDEST SWAP3 SWAP2 POP POP JUMP JUMPDEST PUSH1 0x0 PUSH1 0x20 DUP3 DUP5 SUB SLT ISZERO PUSH2 0x7D4 JUMPI PUSH2 0x7D3 PUSH2 0x4B8 JUMP JUMPDEST JUMPDEST PUSH1 0x0 PUSH2 0x7E2 DUP5 DUP3 DUP6 ADD PUSH2 0x629 JUMP JUMPDEST SWAP2 POP POP SWAP3 SWAP2 POP POP JUMP JUMPDEST PUSH1 0x0 DUP2 MLOAD SWAP1 POP SWAP2 SWAP1 POP JUMP JUMPDEST PUSH1 0x0 DUP3 DUP3 MSTORE PUSH1 0x20 DUP3 ADD SWAP1 POP SWAP3 SWAP2 POP POP JUMP JUMPDEST PUSH1 0x0 JUMPDEST DUP4 DUP2 LT ISZERO PUSH2 0x825 JUMPI DUP1 DUP3 ADD MLOAD DUP2 DUP5 ADD MSTORE PUSH1 0x20 DUP2 ADD SWAP1 POP PUSH2 0x80A JUMP JUMPDEST PUSH1 0x0 DUP5 DUP5 ADD MSTORE POP POP POP POP JUMP JUMPDEST PUSH1 0x0 PUSH2 0x83C DUP3 PUSH2 0x7EB JUMP JUMPDEST PUSH2 0x846 DUP2 DUP6 PUSH2 0x7F6 JUMP JUMPDEST SWAP4 POP PUSH2 0x856 DUP2 DUP6 PUSH1 0x20 DUP7 ADD PUSH2 0x807 JUMP JUMPDEST PUSH2 0x85F DUP2 PUSH2 0x4CC JUMP JUMPDEST DUP5 ADD SWAP2 POP POP SWAP3 SWAP2 POP POP JUMP JUMPDEST PUSH1 0x0 PUSH1 0x20 DUP3 ADD SWAP1 POP DUP2 DUP2 SUB PUSH1 0x0 DUP4 ADD MSTORE PUSH2 0x884 DUP2 DUP5 PUSH2 0x831 JUMP JUMPDEST SWAP1 POP SWAP3 SWAP2 POP POP JUMP JUMPDEST PUSH1 0x0 PUSH1 0x40 DUP3 ADD SWAP1 POP DUP2 DUP2 SUB PUSH1 0x0 DUP4 ADD MSTORE PUSH2 0x8A6 DUP2 DUP6 PUSH2 0x831 JUMP JUMPDEST SWAP1 POP PUSH2 0x8B5 PUSH1 0x20 DUP4 ADD DUP5 PUSH2 0x794 JUMP JUMPDEST SWAP4 SWAP3 POP POP POP JUMP JUMPDEST PUSH32 0x4E487B7100000000000000000000000000000000000000000000000000000000 PUSH1 0x0 MSTORE PUSH1 0x22 PUSH1 0x4 MSTORE PUSH1 0x24 PUSH1 0x0 REVERT JUMPDEST PUSH1 0x0 PUSH1 0x2 DUP3 DIV SWAP1 POP PUSH1 0x1 DUP3 AND DUP1 PUSH2 0x903 JUMPI PUSH1 0x7F DUP3 AND SWAP2 POP JUMPDEST PUSH1 0x20 DUP3 LT DUP2 SUB PUSH2 0x916 JUMPI PUSH2 0x915 PUSH2 0x8BC JUMP JUMPDEST JUMPDEST POP SWAP2 SWAP1 POP JUMP JUMPDEST PUSH1 0x0 DUP2 SWAP1 POP DUP2 PUSH1 0x0 MSTORE PUSH1 0x20 PUSH1 0x0 KECCAK256 SWAP1 POP SWAP2 SWAP1 POP JUMP JUMPDEST PUSH1 0x0 PUSH1 0x20 PUSH1 0x1F DUP4 ADD DIV SWAP1 POP SWAP2 SWAP1 POP JUMP JUMPDEST PUSH1 0x0 DUP3 DUP3 SHL SWAP1 POP SWAP3 SWAP2 POP POP JUMP JUMPDEST PUSH1 0x0 PUSH1 0x8 DUP4 MUL PUSH2 0x97E PUSH32 0xFFFFFFFFFFFFFFFFFFFFFFFFFFFFFFFFFFFFFFFFFFFFFFFFFFFFFFFFFFFFFFFF DUP3 PUSH2 0x941 JUMP JUMPDEST PUSH2 0x988 DUP7 DUP4 PUSH2 0x941 JUMP JUMPDEST SWAP6 POP DUP1 NOT DUP5 AND SWAP4 POP DUP1 DUP7 AND DUP5 OR SWAP3 POP POP POP SWAP4 SWAP3 POP POP POP JUMP JUMPDEST PUSH1 0x0 DUP2 SWAP1 POP SWAP2 SWAP1 POP JUMP JUMPDEST PUSH1 0x0 PUSH2 0x9C5 PUSH2 0x9C0 PUSH2 0x9BB DUP5 PUSH2 0x608 JUMP JUMPDEST PUSH2 0x9A0 JUMP JUMPDEST PUSH2 0x608 JUMP JUMPDEST SWAP1 POP SWAP2 SWAP1 POP JUMP JUMPDEST PUSH1 0x0 DUP2 SWAP1 POP SWAP2 SWAP1 POP JUMP JUMPDEST PUSH2 0x9DF DUP4 PUSH2 0x9AA JUMP JUMPDEST PUSH2 0x9F3 PUSH2 0x9EB DUP3 PUSH2 0x9CC JUMP JUMPDEST DUP5 DUP5 SLOAD PUSH2 0x94E JUMP JUMPDEST DUP3 SSTORE POP POP POP POP JUMP JUMPDEST PUSH1 0x0 SWAP1 JUMP JUMPDEST PUSH2 0xA08 PUSH2 0x9FB JUMP JUMPDEST PUSH2 0xA13 DUP2 DUP5 DUP5 PUSH2 0x9D6 JUMP JUMPDEST POP POP POP JUMP JUMPDEST JUMPDEST DUP2 DUP2 LT ISZERO PUSH2 0xA37 JUMPI PUSH2 0xA2C PUSH1 0x0 DUP3 PUSH2 0xA00 JUMP JUMPDEST PUSH1 0x1 DUP2 ADD SWAP1 POP PUSH2 0xA19 JUMP JUMPDEST POP POP JUMP JUMPDEST PUSH1 0x1F DUP3 GT ISZERO PUSH2 0xA7C JUMPI PUSH2 0xA4D DUP2 PUSH2 0x91C JUMP JUMPDEST PUSH2 0xA56 DUP5 PUSH2 0x931 JUMP JUMPDEST DUP2 ADD PUSH1 0x20 DUP6 LT ISZERO PUSH2 0xA65 JUMPI DUP2 SWAP1 POP JUMPDEST PUSH2 0xA79 PUSH2 0xA71 DUP6 PUSH2 0x931 JUMP JUMPDEST DUP4 ADD DUP3 PUSH2 0xA18 JUMP JUMPDEST POP POP JUMPDEST POP POP POP JUMP JUMPDEST PUSH1 0x0 DUP3 DUP3 SHR SWAP1 POP SWAP3 SWAP2 POP POP JUMP JUMPDEST PUSH1 0x0 PUSH2 0xA9F PUSH1 0x0 NOT DUP5 PUSH1 0x8 MUL PUSH2 0xA81 JUMP JUMPDEST NOT DUP1 DUP4 AND SWAP2 POP POP SWAP3 SWAP2 POP POP JUMP JUMPDEST PUSH1 0x0 PUSH2 0xAB8 DUP4 DUP4 PUSH2 0xA8E JUMP JUMPDEST SWAP2 POP DUP3 PUSH1 0x2 MUL DUP3 OR SWAP1 POP SWAP3 SWAP2 POP POP JUMP JUMPDEST PUSH2 0xAD1 DUP3 PUSH2 0x7EB JUMP JUMPDEST PUSH8 0xFFFFFFFFFFFFFFFF DUP2 GT ISZERO PUSH2 0xAEA JUMPI PUSH2 0xAE9 PUSH2 0x4DD JUMP JUMPDEST JUMPDEST PUSH2 0xAF4 DUP3 SLOAD PUSH2 0x8EB JUMP JUMPDEST PUSH2 0xAFF DUP3 DUP3 DUP6 PUSH2 0xA3B JUMP JUMPDEST PUSH1 0x0 PUSH1 0x20 SWAP1 POP PUSH1 0x1F DUP4 GT PUSH1 0x1 DUP2 EQ PUSH2 0xB32 JUMPI PUSH1 0x0 DUP5 ISZERO PUSH2 0xB20 JUMPI DUP3 DUP8 ADD MLOAD SWAP1 POP JUMPDEST PUSH2 0xB2A DUP6 DUP3 PUSH2 0xAAC JUMP JUMPDEST DUP7 SSTORE POP PUSH2 0xB92 JUMP JUMPDEST PUSH1 0x1F NOT DUP5 AND PUSH2 0xB40 DUP7 PUSH2 0x91C JUMP JUMPDEST PUSH1 0x0 JUMPDEST DUP3 DUP2 LT ISZERO PUSH2 0xB68 JUMPI DUP5 DUP10 ADD MLOAD DUP3 SSTORE PUSH1 0x1 DUP3 ADD SWAP2 POP PUSH1 0x20 DUP6 ADD SWAP5 POP PUSH1 0x20 DUP2 ADD SWAP1 POP PUSH2 0xB43 JUMP JUMPDEST DUP7 DUP4 LT ISZERO PUSH2 0xB85 JUMPI DUP5 DUP10 ADD MLOAD PUSH2 0xB81 PUSH1 0x1F DUP10 AND DUP3 PUSH2 0xA8E JUMP JUMPDEST DUP4 SSTORE POP JUMPDEST PUSH1 0x1 PUSH1 0x2 DUP9 MUL ADD DUP9 SSTORE POP POP POP JUMPDEST POP POP POP POP POP POP JUMP JUMPDEST PUSH32 0x4E487B7100000000000000000000000000000000000000000000000000000000 PUSH1 0x0 MSTORE PUSH1 0x32 PUSH1 0x4 MSTORE PUSH1 0x24 PUSH1 0x0 REVERT INVALID LOG2 PUSH5 0x6970667358 0x22 SLT KECCAK256 DUP15 0xA7 SUB 0x4D 0xB4 0xCA XOR 0x22 DUP4 0xBC CALLDATASIZE 0xB0 0xC0 0xE6 0xE2 PUSH31 0xDE8B8A71D2827194E6B473B84ADC8B4764736F6C6343000811003300000000 "
				},
				"gasEstimates": {
					"creation": {
						"codeDepositCost": "614200",
						"executionCost": "645",
						"totalCost": "614845"
					},
					"external": {
						"addArray(string,uint256)": "infinite",
						"addMapping(address,string,uint256)": "infinite",
						"getArrayName(uint256)": "infinite",
						"getMappingAge(address)": "2869",
						"humanArray(uint256)": "infinite",
						"humanMapping(address)": "infinite"
					}
				},
				"methodIdentifiers": {
					"addArray(string,uint256)": "0d3de88d",
					"addMapping(address,string,uint256)": "0e0c243d",
					"getArrayName(uint256)": "a677c48f",
					"getMappingAge(address)": "564f2a73",
					"humanArray(uint256)": "b9d6dedb",
					"humanMapping(address)": "a857bf32"
				}
			},
			"storageLayout": {
				"storage": [
					{
						"astId": 10,
						"contract": "chapter2/Ex2_10.sol:Ex2_10",
						"label": "humanArray",
						"offset": 0,
						"slot": "0",
						"type": "t_array(t_struct(Human)6_storage)dyn_storage"
					},
					{
						"astId": 15,
						"contract": "chapter2/Ex2_10.sol:Ex2_10",
						"label": "humanMapping",
						"offset": 0,
						"slot": "1",
						"type": "t_mapping(t_address,t_struct(Human)6_storage)"
					}
				],
				"types": {
					"t_address": {
						"encoding": "inplace",
						"label": "address",
						"numberOfBytes": "20"
					},
					"t_array(t_struct(Human)6_storage)dyn_storage": {
						"base": "t_struct(Human)6_storage",
						"encoding": "dynamic_array",
						"label": "struct Ex2_10.Human[]",
						"numberOfBytes": "32"
					},
					"t_mapping(t_address,t_struct(Human)6_storage)": {
						"encoding": "mapping",
						"key": "t_address",
						"label": "mapping(address => struct Ex2_10.Human)",
						"numberOfBytes": "32",
						"value": "t_struct(Human)6_storage"
					},
					"t_string_storage": {
						"encoding": "bytes",
						"label": "string",
						"numberOfBytes": "32"
					},
					"t_struct(Human)6_storage": {
						"encoding": "inplace",
						"label": "struct Ex2_10.Human",
						"members": [
							{
								"astId": 3,
								"contract": "chapter2/Ex2_10.sol:Ex2_10",
								"label": "name",
								"offset": 0,
								"slot": "0",
								"type": "t_string_storage"
							},
							{
								"astId": 5,
								"contract": "chapter2/Ex2_10.sol:Ex2_10",
								"label": "age",
								"offset": 0,
								"slot": "1",
								"type": "t_uint256"
							}
						],
						"numberOfBytes": "64"
					},
					"t_uint256": {
						"encoding": "inplace",
						"label": "uint256",
						"numberOfBytes": "32"
					}
				}
			},
			"userdoc": {
				"kind": "user",
				"methods": {},
				"version": 1
			}
		}
	}
}