{
	"chapter2/Ex2_10.sol": {
		"Ex2_10": {
			"abi": [
				{
					"inputs": [
						{
							"internalType": "string",
							"name": "_name",
							"type": "string"
						},
						{
							"internalType": "uint256",
							"name": "_age",
							"type": "uint256"
						}
					],
					"name": "addArray",
					"outputs": [],
					"stateMutability": "nonpayable",
					"type": "function"
				},
				{
					"inputs": [
						{
							"internalType": "uint256",
							"name": "",
							"type": "uint256"
						}
					],
					"name": "humanArray",
					"outputs": [
						{
							"internalType": "string",
							"name": "name",
							"type": "string"
						},
						{
							"internalType": "uint256",
							"name": "age",
							"type": "uint256"
						}
					],
					"stateMutability": "view",
					"type": "function"
				},
				{
					"inputs": [
						{
							"internalType": "address",
							"name": "",
							"type": "address"
						}
					],
					"name": "humanMapping",
					"outputs": [
						{
							"internalType": "string",
							"name": "name",
							"type": "string"
						},
						{
							"internalType": "uint256",
							"name": "age",
							"type": "uint256"
						}
					],
					"stateMutability": "view",
					"type": "function"
				}
			],
			"devdoc": {
				"kind": "dev",
				"methods": {},
				"version": 1
			},
			"evm": {
				"assembly": "    /* \"chapter2/Ex2_10.sol\":70:354  contract Ex2_10 {... */\n  mstore(0x40, 0x80)\n  callvalue\n  dup1\n  iszero\n  tag_1\n  jumpi\n  0x00\n  dup1\n  revert\ntag_1:\n  pop\n  dataSize(sub_0)\n  dup1\n  dataOffset(sub_0)\n  0x00\n  codecopy\n  0x00\n  return\nstop\n\nsub_0: assembly {\n        /* \"chapter2/Ex2_10.sol\":70:354  contract Ex2_10 {... */\n      mstore(0x40, 0x80)\n      callvalue\n      dup1\n      iszero\n      tag_1\n      jumpi\n      0x00\n      dup1\n      revert\n    tag_1:\n      pop\n      jumpi(tag_2, lt(calldatasize, 0x04))\n      shr(0xe0, calldataload(0x00))\n      dup1\n      0x0d3de88d\n      eq\n      tag_3\n      jumpi\n      dup1\n      0xa857bf32\n      eq\n      tag_4\n      jumpi\n      dup1\n      0xb9d6dedb\n      eq\n      tag_5\n      jumpi\n    tag_2:\n      0x00\n      dup1\n      revert\n        /* \"chapter2/Ex2_10.sol\":241:350  function addArray(string memory _name, uint _age) public {... */\n    tag_3:\n      tag_6\n      0x04\n      dup1\n      calldatasize\n      sub\n      dup2\n      add\n      swap1\n      tag_7\n      swap2\n      swap1\n      tag_8\n      jump\t// in\n    tag_7:\n      tag_9\n      jump\t// in\n    tag_6:\n      stop\n        /* \"chapter2/Ex2_10.sol\":189:234  mapping(address => Human) public humanMapping */\n    tag_4:\n      tag_10\n      0x04\n      dup1\n      calldatasize\n      sub\n      dup2\n      add\n      swap1\n      tag_11\n      swap2\n      swap1\n      tag_12\n      jump\t// in\n    tag_11:\n      tag_13\n      jump\t// in\n    tag_10:\n      mload(0x40)\n      tag_14\n      swap3\n      swap2\n      swap1\n      tag_15\n      jump\t// in\n    tag_14:\n      mload(0x40)\n      dup1\n      swap2\n      sub\n      swap1\n      return\n        /* \"chapter2/Ex2_10.sol\":158:183  Human[] public humanArray */\n    tag_5:\n      tag_16\n      0x04\n      dup1\n      calldatasize\n      sub\n      dup2\n      add\n      swap1\n      tag_17\n      swap2\n      swap1\n      tag_18\n      jump\t// in\n    tag_17:\n      tag_19\n      jump\t// in\n    tag_16:\n      mload(0x40)\n      tag_20\n      swap3\n      swap2\n      swap1\n      tag_15\n      jump\t// in\n    tag_20:\n      mload(0x40)\n      dup1\n      swap2\n      sub\n      swap1\n      return\n        /* \"chapter2/Ex2_10.sol\":241:350  function addArray(string memory _name, uint _age) public {... */\n    tag_9:\n        /* \"chapter2/Ex2_10.sol\":308:318  humanArray */\n      0x00\n        /* \"chapter2/Ex2_10.sol\":324:342  Human(_name, _age) */\n      mload(0x40)\n      dup1\n      0x40\n      add\n      0x40\n      mstore\n      dup1\n        /* \"chapter2/Ex2_10.sol\":330:335  _name */\n      dup5\n        /* \"chapter2/Ex2_10.sol\":324:342  Human(_name, _age) */\n      dup2\n      mstore\n      0x20\n      add\n        /* \"chapter2/Ex2_10.sol\":337:341  _age */\n      dup4\n        /* \"chapter2/Ex2_10.sol\":324:342  Human(_name, _age) */\n      dup2\n      mstore\n      pop\n        /* \"chapter2/Ex2_10.sol\":308:343  humanArray.push(Human(_name, _age)) */\n      swap1\n      dup1\n      0x01\n      dup2\n      sload\n      add\n      dup1\n      dup3\n      sstore\n      dup1\n      swap2\n      pop\n      pop\n      0x01\n      swap1\n      sub\n      swap1\n      0x00\n      mstore\n      keccak256(0x00, 0x20)\n      swap1\n      0x02\n      mul\n      add\n      0x00\n      swap1\n      swap2\n      swap1\n      swap2\n      swap1\n      swap2\n      pop\n      0x00\n      dup3\n      add\n      mload\n      dup2\n      0x00\n      add\n      swap1\n      dup2\n      tag_23\n      swap2\n      swap1\n      tag_24\n      jump\t// in\n    tag_23:\n      pop\n      0x20\n      dup3\n      add\n      mload\n      dup2\n      0x01\n      add\n      sstore\n      pop\n      pop\n        /* \"chapter2/Ex2_10.sol\":241:350  function addArray(string memory _name, uint _age) public {... */\n      pop\n      pop\n      jump\t// out\n        /* \"chapter2/Ex2_10.sol\":189:234  mapping(address => Human) public humanMapping */\n    tag_13:\n      mstore(0x20, 0x01)\n      dup1\n      0x00\n      mstore\n      keccak256(0x00, 0x40)\n      0x00\n      swap2\n      pop\n      swap1\n      pop\n      dup1\n      0x00\n      add\n      dup1\n      sload\n      tag_25\n      swap1\n      tag_26\n      jump\t// in\n    tag_25:\n      dup1\n      0x1f\n      add\n      0x20\n      dup1\n      swap2\n      div\n      mul\n      0x20\n      add\n      mload(0x40)\n      swap1\n      dup2\n      add\n      0x40\n      mstore\n      dup1\n      swap3\n      swap2\n      swap1\n      dup2\n      dup2\n      mstore\n      0x20\n      add\n      dup3\n      dup1\n      sload\n      tag_27\n      swap1\n      tag_26\n      jump\t// in\n    tag_27:\n      dup1\n      iszero\n      tag_28\n      jumpi\n      dup1\n      0x1f\n      lt\n      tag_29\n      jumpi\n      0x0100\n      dup1\n      dup4\n      sload\n      div\n      mul\n      dup4\n      mstore\n      swap2\n      0x20\n      add\n      swap2\n      jump(tag_28)\n    tag_29:\n      dup3\n      add\n      swap2\n      swap1\n      0x00\n      mstore\n      keccak256(0x00, 0x20)\n      swap1\n    tag_30:\n      dup2\n      sload\n      dup2\n      mstore\n      swap1\n      0x01\n      add\n      swap1\n      0x20\n      add\n      dup1\n      dup4\n      gt\n      tag_30\n      jumpi\n      dup3\n      swap1\n      sub\n      0x1f\n      and\n      dup3\n      add\n      swap2\n    tag_28:\n      pop\n      pop\n      pop\n      pop\n      pop\n      swap1\n      dup1\n      0x01\n      add\n      sload\n      swap1\n      pop\n      dup3\n      jump\t// out\n        /* \"chapter2/Ex2_10.sol\":158:183  Human[] public humanArray */\n    tag_19:\n      0x00\n      dup2\n      dup2\n      sload\n      dup2\n      lt\n      tag_31\n      jumpi\n      0x00\n      dup1\n      revert\n    tag_31:\n      swap1\n      0x00\n      mstore\n      keccak256(0x00, 0x20)\n      swap1\n      0x02\n      mul\n      add\n      0x00\n      swap2\n      pop\n      swap1\n      pop\n      dup1\n      0x00\n      add\n      dup1\n      sload\n      tag_33\n      swap1\n      tag_26\n      jump\t// in\n    tag_33:\n      dup1\n      0x1f\n      add\n      0x20\n      dup1\n      swap2\n      div\n      mul\n      0x20\n      add\n      mload(0x40)\n      swap1\n      dup2\n      add\n      0x40\n      mstore\n      dup1\n      swap3\n      swap2\n      swap1\n      dup2\n      dup2\n      mstore\n      0x20\n      add\n      dup3\n      dup1\n      sload\n      tag_34\n      swap1\n      tag_26\n      jump\t// in\n    tag_34:\n      dup1\n      iszero\n      tag_35\n      jumpi\n      dup1\n      0x1f\n      lt\n      tag_36\n      jumpi\n      0x0100\n      dup1\n      dup4\n      sload\n      div\n      mul\n      dup4\n      mstore\n      swap2\n      0x20\n      add\n      swap2\n      jump(tag_35)\n    tag_36:\n      dup3\n      add\n      swap2\n      swap1\n      0x00\n      mstore\n      keccak256(0x00, 0x20)\n      swap1\n    tag_37:\n      dup2\n      sload\n      dup2\n      mstore\n      swap1\n      0x01\n      add\n      swap1\n      0x20\n      add\n      dup1\n      dup4\n      gt\n      tag_37\n      jumpi\n      dup3\n      swap1\n      sub\n      0x1f\n      and\n      dup3\n      add\n      swap2\n    tag_35:\n      pop\n      pop\n      pop\n      pop\n      pop\n      swap1\n      dup1\n      0x01\n      add\n      sload\n      swap1\n      pop\n      dup3\n      jump\t// out\n        /* \"#utility.yul\":7:82   */\n    tag_38:\n        /* \"#utility.yul\":40:46   */\n      0x00\n        /* \"#utility.yul\":73:75   */\n      0x40\n        /* \"#utility.yul\":67:76   */\n      mload\n        /* \"#utility.yul\":57:76   */\n      swap1\n      pop\n        /* \"#utility.yul\":7:82   */\n      swap1\n      jump\t// out\n        /* \"#utility.yul\":88:205   */\n    tag_39:\n        /* \"#utility.yul\":197:198   */\n      0x00\n        /* \"#utility.yul\":194:195   */\n      dup1\n        /* \"#utility.yul\":187:199   */\n      revert\n        /* \"#utility.yul\":211:328   */\n    tag_40:\n        /* \"#utility.yul\":320:321   */\n      0x00\n        /* \"#utility.yul\":317:318   */\n      dup1\n        /* \"#utility.yul\":310:322   */\n      revert\n        /* \"#utility.yul\":334:451   */\n    tag_41:\n        /* \"#utility.yul\":443:444   */\n      0x00\n        /* \"#utility.yul\":440:441   */\n      dup1\n        /* \"#utility.yul\":433:445   */\n      revert\n        /* \"#utility.yul\":457:574   */\n    tag_42:\n        /* \"#utility.yul\":566:567   */\n      0x00\n        /* \"#utility.yul\":563:564   */\n      dup1\n        /* \"#utility.yul\":556:568   */\n      revert\n        /* \"#utility.yul\":580:682   */\n    tag_43:\n        /* \"#utility.yul\":621:627   */\n      0x00\n        /* \"#utility.yul\":672:674   */\n      0x1f\n        /* \"#utility.yul\":668:675   */\n      not\n        /* \"#utility.yul\":663:665   */\n      0x1f\n        /* \"#utility.yul\":656:661   */\n      dup4\n        /* \"#utility.yul\":652:666   */\n      add\n        /* \"#utility.yul\":648:676   */\n      and\n        /* \"#utility.yul\":638:676   */\n      swap1\n      pop\n        /* \"#utility.yul\":580:682   */\n      swap2\n      swap1\n      pop\n      jump\t// out\n        /* \"#utility.yul\":688:868   */\n    tag_44:\n        /* \"#utility.yul\":736:813   */\n      0x4e487b7100000000000000000000000000000000000000000000000000000000\n        /* \"#utility.yul\":733:734   */\n      0x00\n        /* \"#utility.yul\":726:814   */\n      mstore\n        /* \"#utility.yul\":833:837   */\n      0x41\n        /* \"#utility.yul\":830:831   */\n      0x04\n        /* \"#utility.yul\":823:838   */\n      mstore\n        /* \"#utility.yul\":857:861   */\n      0x24\n        /* \"#utility.yul\":854:855   */\n      0x00\n        /* \"#utility.yul\":847:862   */\n      revert\n        /* \"#utility.yul\":874:1155   */\n    tag_45:\n        /* \"#utility.yul\":957:984   */\n      tag_88\n        /* \"#utility.yul\":979:983   */\n      dup3\n        /* \"#utility.yul\":957:984   */\n      tag_43\n      jump\t// in\n    tag_88:\n        /* \"#utility.yul\":949:955   */\n      dup2\n        /* \"#utility.yul\":945:985   */\n      add\n        /* \"#utility.yul\":1087:1093   */\n      dup2\n        /* \"#utility.yul\":1075:1085   */\n      dup2\n        /* \"#utility.yul\":1072:1094   */\n      lt\n        /* \"#utility.yul\":1051:1069   */\n      0xffffffffffffffff\n        /* \"#utility.yul\":1039:1049   */\n      dup3\n        /* \"#utility.yul\":1036:1070   */\n      gt\n        /* \"#utility.yul\":1033:1095   */\n      or\n        /* \"#utility.yul\":1030:1118   */\n      iszero\n      tag_89\n      jumpi\n        /* \"#utility.yul\":1098:1116   */\n      tag_90\n      tag_44\n      jump\t// in\n    tag_90:\n        /* \"#utility.yul\":1030:1118   */\n    tag_89:\n        /* \"#utility.yul\":1138:1148   */\n      dup1\n        /* \"#utility.yul\":1134:1136   */\n      0x40\n        /* \"#utility.yul\":1127:1149   */\n      mstore\n        /* \"#utility.yul\":917:1155   */\n      pop\n        /* \"#utility.yul\":874:1155   */\n      pop\n      pop\n      jump\t// out\n        /* \"#utility.yul\":1161:1290   */\n    tag_46:\n        /* \"#utility.yul\":1195:1201   */\n      0x00\n        /* \"#utility.yul\":1222:1242   */\n      tag_92\n      tag_38\n      jump\t// in\n    tag_92:\n        /* \"#utility.yul\":1212:1242   */\n      swap1\n      pop\n        /* \"#utility.yul\":1251:1284   */\n      tag_93\n        /* \"#utility.yul\":1279:1283   */\n      dup3\n        /* \"#utility.yul\":1271:1277   */\n      dup3\n        /* \"#utility.yul\":1251:1284   */\n      tag_45\n      jump\t// in\n    tag_93:\n        /* \"#utility.yul\":1161:1290   */\n      swap2\n      swap1\n      pop\n      jump\t// out\n        /* \"#utility.yul\":1296:1604   */\n    tag_47:\n        /* \"#utility.yul\":1358:1362   */\n      0x00\n        /* \"#utility.yul\":1448:1466   */\n      0xffffffffffffffff\n        /* \"#utility.yul\":1440:1446   */\n      dup3\n        /* \"#utility.yul\":1437:1467   */\n      gt\n        /* \"#utility.yul\":1434:1490   */\n      iszero\n      tag_95\n      jumpi\n        /* \"#utility.yul\":1470:1488   */\n      tag_96\n      tag_44\n      jump\t// in\n    tag_96:\n        /* \"#utility.yul\":1434:1490   */\n    tag_95:\n        /* \"#utility.yul\":1508:1537   */\n      tag_97\n        /* \"#utility.yul\":1530:1536   */\n      dup3\n        /* \"#utility.yul\":1508:1537   */\n      tag_43\n      jump\t// in\n    tag_97:\n        /* \"#utility.yul\":1500:1537   */\n      swap1\n      pop\n        /* \"#utility.yul\":1592:1596   */\n      0x20\n        /* \"#utility.yul\":1586:1590   */\n      dup2\n        /* \"#utility.yul\":1582:1597   */\n      add\n        /* \"#utility.yul\":1574:1597   */\n      swap1\n      pop\n        /* \"#utility.yul\":1296:1604   */\n      swap2\n      swap1\n      pop\n      jump\t// out\n        /* \"#utility.yul\":1610:1756   */\n    tag_48:\n        /* \"#utility.yul\":1707:1713   */\n      dup3\n        /* \"#utility.yul\":1702:1705   */\n      dup2\n        /* \"#utility.yul\":1697:1700   */\n      dup4\n        /* \"#utility.yul\":1684:1714   */\n      calldatacopy\n        /* \"#utility.yul\":1748:1749   */\n      0x00\n        /* \"#utility.yul\":1739:1745   */\n      dup4\n        /* \"#utility.yul\":1734:1737   */\n      dup4\n        /* \"#utility.yul\":1730:1746   */\n      add\n        /* \"#utility.yul\":1723:1750   */\n      mstore\n        /* \"#utility.yul\":1610:1756   */\n      pop\n      pop\n      pop\n      jump\t// out\n        /* \"#utility.yul\":1762:2187   */\n    tag_49:\n        /* \"#utility.yul\":1840:1845   */\n      0x00\n        /* \"#utility.yul\":1865:1931   */\n      tag_100\n        /* \"#utility.yul\":1881:1930   */\n      tag_101\n        /* \"#utility.yul\":1923:1929   */\n      dup5\n        /* \"#utility.yul\":1881:1930   */\n      tag_47\n      jump\t// in\n    tag_101:\n        /* \"#utility.yul\":1865:1931   */\n      tag_46\n      jump\t// in\n    tag_100:\n        /* \"#utility.yul\":1856:1931   */\n      swap1\n      pop\n        /* \"#utility.yul\":1954:1960   */\n      dup3\n        /* \"#utility.yul\":1947:1952   */\n      dup2\n        /* \"#utility.yul\":1940:1961   */\n      mstore\n        /* \"#utility.yul\":1992:1996   */\n      0x20\n        /* \"#utility.yul\":1985:1990   */\n      dup2\n        /* \"#utility.yul\":1981:1997   */\n      add\n        /* \"#utility.yul\":2030:2033   */\n      dup5\n        /* \"#utility.yul\":2021:2027   */\n      dup5\n        /* \"#utility.yul\":2016:2019   */\n      dup5\n        /* \"#utility.yul\":2012:2028   */\n      add\n        /* \"#utility.yul\":2009:2034   */\n      gt\n        /* \"#utility.yul\":2006:2118   */\n      iszero\n      tag_102\n      jumpi\n        /* \"#utility.yul\":2037:2116   */\n      tag_103\n      tag_42\n      jump\t// in\n    tag_103:\n        /* \"#utility.yul\":2006:2118   */\n    tag_102:\n        /* \"#utility.yul\":2127:2181   */\n      tag_104\n        /* \"#utility.yul\":2174:2180   */\n      dup5\n        /* \"#utility.yul\":2169:2172   */\n      dup3\n        /* \"#utility.yul\":2164:2167   */\n      dup6\n        /* \"#utility.yul\":2127:2181   */\n      tag_48\n      jump\t// in\n    tag_104:\n        /* \"#utility.yul\":1846:2187   */\n      pop\n        /* \"#utility.yul\":1762:2187   */\n      swap4\n      swap3\n      pop\n      pop\n      pop\n      jump\t// out\n        /* \"#utility.yul\":2207:2547   */\n    tag_50:\n        /* \"#utility.yul\":2263:2268   */\n      0x00\n        /* \"#utility.yul\":2312:2315   */\n      dup3\n        /* \"#utility.yul\":2305:2309   */\n      0x1f\n        /* \"#utility.yul\":2297:2303   */\n      dup4\n        /* \"#utility.yul\":2293:2310   */\n      add\n        /* \"#utility.yul\":2289:2316   */\n      slt\n        /* \"#utility.yul\":2279:2401   */\n      tag_106\n      jumpi\n        /* \"#utility.yul\":2320:2399   */\n      tag_107\n      tag_41\n      jump\t// in\n    tag_107:\n        /* \"#utility.yul\":2279:2401   */\n    tag_106:\n        /* \"#utility.yul\":2437:2443   */\n      dup2\n        /* \"#utility.yul\":2424:2444   */\n      calldataload\n        /* \"#utility.yul\":2462:2541   */\n      tag_108\n        /* \"#utility.yul\":2537:2540   */\n      dup5\n        /* \"#utility.yul\":2529:2535   */\n      dup3\n        /* \"#utility.yul\":2522:2526   */\n      0x20\n        /* \"#utility.yul\":2514:2520   */\n      dup7\n        /* \"#utility.yul\":2510:2527   */\n      add\n        /* \"#utility.yul\":2462:2541   */\n      tag_49\n      jump\t// in\n    tag_108:\n        /* \"#utility.yul\":2453:2541   */\n      swap2\n      pop\n        /* \"#utility.yul\":2269:2547   */\n      pop\n        /* \"#utility.yul\":2207:2547   */\n      swap3\n      swap2\n      pop\n      pop\n      jump\t// out\n        /* \"#utility.yul\":2553:2630   */\n    tag_51:\n        /* \"#utility.yul\":2590:2597   */\n      0x00\n        /* \"#utility.yul\":2619:2624   */\n      dup2\n        /* \"#utility.yul\":2608:2624   */\n      swap1\n      pop\n        /* \"#utility.yul\":2553:2630   */\n      swap2\n      swap1\n      pop\n      jump\t// out\n        /* \"#utility.yul\":2636:2758   */\n    tag_52:\n        /* \"#utility.yul\":2709:2733   */\n      tag_111\n        /* \"#utility.yul\":2727:2732   */\n      dup2\n        /* \"#utility.yul\":2709:2733   */\n      tag_51\n      jump\t// in\n    tag_111:\n        /* \"#utility.yul\":2702:2707   */\n      dup2\n        /* \"#utility.yul\":2699:2734   */\n      eq\n        /* \"#utility.yul\":2689:2752   */\n      tag_112\n      jumpi\n        /* \"#utility.yul\":2748:2749   */\n      0x00\n        /* \"#utility.yul\":2745:2746   */\n      dup1\n        /* \"#utility.yul\":2738:2750   */\n      revert\n        /* \"#utility.yul\":2689:2752   */\n    tag_112:\n        /* \"#utility.yul\":2636:2758   */\n      pop\n      jump\t// out\n        /* \"#utility.yul\":2764:2903   */\n    tag_53:\n        /* \"#utility.yul\":2810:2815   */\n      0x00\n        /* \"#utility.yul\":2848:2854   */\n      dup2\n        /* \"#utility.yul\":2835:2855   */\n      calldataload\n        /* \"#utility.yul\":2826:2855   */\n      swap1\n      pop\n        /* \"#utility.yul\":2864:2897   */\n      tag_114\n        /* \"#utility.yul\":2891:2896   */\n      dup2\n        /* \"#utility.yul\":2864:2897   */\n      tag_52\n      jump\t// in\n    tag_114:\n        /* \"#utility.yul\":2764:2903   */\n      swap3\n      swap2\n      pop\n      pop\n      jump\t// out\n        /* \"#utility.yul\":2909:3563   */\n    tag_8:\n        /* \"#utility.yul\":2987:2993   */\n      0x00\n        /* \"#utility.yul\":2995:3001   */\n      dup1\n        /* \"#utility.yul\":3044:3046   */\n      0x40\n        /* \"#utility.yul\":3032:3041   */\n      dup4\n        /* \"#utility.yul\":3023:3030   */\n      dup6\n        /* \"#utility.yul\":3019:3042   */\n      sub\n        /* \"#utility.yul\":3015:3047   */\n      slt\n        /* \"#utility.yul\":3012:3131   */\n      iszero\n      tag_116\n      jumpi\n        /* \"#utility.yul\":3050:3129   */\n      tag_117\n      tag_39\n      jump\t// in\n    tag_117:\n        /* \"#utility.yul\":3012:3131   */\n    tag_116:\n        /* \"#utility.yul\":3198:3199   */\n      0x00\n        /* \"#utility.yul\":3187:3196   */\n      dup4\n        /* \"#utility.yul\":3183:3200   */\n      add\n        /* \"#utility.yul\":3170:3201   */\n      calldataload\n        /* \"#utility.yul\":3228:3246   */\n      0xffffffffffffffff\n        /* \"#utility.yul\":3220:3226   */\n      dup2\n        /* \"#utility.yul\":3217:3247   */\n      gt\n        /* \"#utility.yul\":3214:3331   */\n      iszero\n      tag_118\n      jumpi\n        /* \"#utility.yul\":3250:3329   */\n      tag_119\n      tag_40\n      jump\t// in\n    tag_119:\n        /* \"#utility.yul\":3214:3331   */\n    tag_118:\n        /* \"#utility.yul\":3355:3418   */\n      tag_120\n        /* \"#utility.yul\":3410:3417   */\n      dup6\n        /* \"#utility.yul\":3401:3407   */\n      dup3\n        /* \"#utility.yul\":3390:3399   */\n      dup7\n        /* \"#utility.yul\":3386:3408   */\n      add\n        /* \"#utility.yul\":3355:3418   */\n      tag_50\n      jump\t// in\n    tag_120:\n        /* \"#utility.yul\":3345:3418   */\n      swap3\n      pop\n        /* \"#utility.yul\":3141:3428   */\n      pop\n        /* \"#utility.yul\":3467:3469   */\n      0x20\n        /* \"#utility.yul\":3493:3546   */\n      tag_121\n        /* \"#utility.yul\":3538:3545   */\n      dup6\n        /* \"#utility.yul\":3529:3535   */\n      dup3\n        /* \"#utility.yul\":3518:3527   */\n      dup7\n        /* \"#utility.yul\":3514:3536   */\n      add\n        /* \"#utility.yul\":3493:3546   */\n      tag_53\n      jump\t// in\n    tag_121:\n        /* \"#utility.yul\":3483:3546   */\n      swap2\n      pop\n        /* \"#utility.yul\":3438:3556   */\n      pop\n        /* \"#utility.yul\":2909:3563   */\n      swap3\n      pop\n      swap3\n      swap1\n      pop\n      jump\t// out\n        /* \"#utility.yul\":3569:3695   */\n    tag_54:\n        /* \"#utility.yul\":3606:3613   */\n      0x00\n        /* \"#utility.yul\":3646:3688   */\n      0xffffffffffffffffffffffffffffffffffffffff\n        /* \"#utility.yul\":3639:3644   */\n      dup3\n        /* \"#utility.yul\":3635:3689   */\n      and\n        /* \"#utility.yul\":3624:3689   */\n      swap1\n      pop\n        /* \"#utility.yul\":3569:3695   */\n      swap2\n      swap1\n      pop\n      jump\t// out\n        /* \"#utility.yul\":3701:3797   */\n    tag_55:\n        /* \"#utility.yul\":3738:3745   */\n      0x00\n        /* \"#utility.yul\":3767:3791   */\n      tag_124\n        /* \"#utility.yul\":3785:3790   */\n      dup3\n        /* \"#utility.yul\":3767:3791   */\n      tag_54\n      jump\t// in\n    tag_124:\n        /* \"#utility.yul\":3756:3791   */\n      swap1\n      pop\n        /* \"#utility.yul\":3701:3797   */\n      swap2\n      swap1\n      pop\n      jump\t// out\n        /* \"#utility.yul\":3803:3925   */\n    tag_56:\n        /* \"#utility.yul\":3876:3900   */\n      tag_126\n        /* \"#utility.yul\":3894:3899   */\n      dup2\n        /* \"#utility.yul\":3876:3900   */\n      tag_55\n      jump\t// in\n    tag_126:\n        /* \"#utility.yul\":3869:3874   */\n      dup2\n        /* \"#utility.yul\":3866:3901   */\n      eq\n        /* \"#utility.yul\":3856:3919   */\n      tag_127\n      jumpi\n        /* \"#utility.yul\":3915:3916   */\n      0x00\n        /* \"#utility.yul\":3912:3913   */\n      dup1\n        /* \"#utility.yul\":3905:3917   */\n      revert\n        /* \"#utility.yul\":3856:3919   */\n    tag_127:\n        /* \"#utility.yul\":3803:3925   */\n      pop\n      jump\t// out\n        /* \"#utility.yul\":3931:4070   */\n    tag_57:\n        /* \"#utility.yul\":3977:3982   */\n      0x00\n        /* \"#utility.yul\":4015:4021   */\n      dup2\n        /* \"#utility.yul\":4002:4022   */\n      calldataload\n        /* \"#utility.yul\":3993:4022   */\n      swap1\n      pop\n        /* \"#utility.yul\":4031:4064   */\n      tag_129\n        /* \"#utility.yul\":4058:4063   */\n      dup2\n        /* \"#utility.yul\":4031:4064   */\n      tag_56\n      jump\t// in\n    tag_129:\n        /* \"#utility.yul\":3931:4070   */\n      swap3\n      swap2\n      pop\n      pop\n      jump\t// out\n        /* \"#utility.yul\":4076:4405   */\n    tag_12:\n        /* \"#utility.yul\":4135:4141   */\n      0x00\n        /* \"#utility.yul\":4184:4186   */\n      0x20\n        /* \"#utility.yul\":4172:4181   */\n      dup3\n        /* \"#utility.yul\":4163:4170   */\n      dup5\n        /* \"#utility.yul\":4159:4182   */\n      sub\n        /* \"#utility.yul\":4155:4187   */\n      slt\n        /* \"#utility.yul\":4152:4271   */\n      iszero\n      tag_131\n      jumpi\n        /* \"#utility.yul\":4190:4269   */\n      tag_132\n      tag_39\n      jump\t// in\n    tag_132:\n        /* \"#utility.yul\":4152:4271   */\n    tag_131:\n        /* \"#utility.yul\":4310:4311   */\n      0x00\n        /* \"#utility.yul\":4335:4388   */\n      tag_133\n        /* \"#utility.yul\":4380:4387   */\n      dup5\n        /* \"#utility.yul\":4371:4377   */\n      dup3\n        /* \"#utility.yul\":4360:4369   */\n      dup6\n        /* \"#utility.yul\":4356:4378   */\n      add\n        /* \"#utility.yul\":4335:4388   */\n      tag_57\n      jump\t// in\n    tag_133:\n        /* \"#utility.yul\":4325:4388   */\n      swap2\n      pop\n        /* \"#utility.yul\":4281:4398   */\n      pop\n        /* \"#utility.yul\":4076:4405   */\n      swap3\n      swap2\n      pop\n      pop\n      jump\t// out\n        /* \"#utility.yul\":4411:4510   */\n    tag_58:\n        /* \"#utility.yul\":4463:4469   */\n      0x00\n        /* \"#utility.yul\":4497:4502   */\n      dup2\n        /* \"#utility.yul\":4491:4503   */\n      mload\n        /* \"#utility.yul\":4481:4503   */\n      swap1\n      pop\n        /* \"#utility.yul\":4411:4510   */\n      swap2\n      swap1\n      pop\n      jump\t// out\n        /* \"#utility.yul\":4516:4685   */\n    tag_59:\n        /* \"#utility.yul\":4600:4611   */\n      0x00\n        /* \"#utility.yul\":4634:4640   */\n      dup3\n        /* \"#utility.yul\":4629:4632   */\n      dup3\n        /* \"#utility.yul\":4622:4641   */\n      mstore\n        /* \"#utility.yul\":4674:4678   */\n      0x20\n        /* \"#utility.yul\":4669:4672   */\n      dup3\n        /* \"#utility.yul\":4665:4679   */\n      add\n        /* \"#utility.yul\":4650:4679   */\n      swap1\n      pop\n        /* \"#utility.yul\":4516:4685   */\n      swap3\n      swap2\n      pop\n      pop\n      jump\t// out\n        /* \"#utility.yul\":4691:4937   */\n    tag_60:\n        /* \"#utility.yul\":4772:4773   */\n      0x00\n        /* \"#utility.yul\":4782:4895   */\n    tag_137:\n        /* \"#utility.yul\":4796:4802   */\n      dup4\n        /* \"#utility.yul\":4793:4794   */\n      dup2\n        /* \"#utility.yul\":4790:4803   */\n      lt\n        /* \"#utility.yul\":4782:4895   */\n      iszero\n      tag_139\n      jumpi\n        /* \"#utility.yul\":4881:4882   */\n      dup1\n        /* \"#utility.yul\":4876:4879   */\n      dup3\n        /* \"#utility.yul\":4872:4883   */\n      add\n        /* \"#utility.yul\":4866:4884   */\n      mload\n        /* \"#utility.yul\":4862:4863   */\n      dup2\n        /* \"#utility.yul\":4857:4860   */\n      dup5\n        /* \"#utility.yul\":4853:4864   */\n      add\n        /* \"#utility.yul\":4846:4885   */\n      mstore\n        /* \"#utility.yul\":4818:4820   */\n      0x20\n        /* \"#utility.yul\":4815:4816   */\n      dup2\n        /* \"#utility.yul\":4811:4821   */\n      add\n        /* \"#utility.yul\":4806:4821   */\n      swap1\n      pop\n        /* \"#utility.yul\":4782:4895   */\n      jump(tag_137)\n    tag_139:\n        /* \"#utility.yul\":4929:4930   */\n      0x00\n        /* \"#utility.yul\":4920:4926   */\n      dup5\n        /* \"#utility.yul\":4915:4918   */\n      dup5\n        /* \"#utility.yul\":4911:4927   */\n      add\n        /* \"#utility.yul\":4904:4931   */\n      mstore\n        /* \"#utility.yul\":4753:4937   */\n      pop\n        /* \"#utility.yul\":4691:4937   */\n      pop\n      pop\n      pop\n      jump\t// out\n        /* \"#utility.yul\":4943:5320   */\n    tag_61:\n        /* \"#utility.yul\":5031:5034   */\n      0x00\n        /* \"#utility.yul\":5059:5098   */\n      tag_141\n        /* \"#utility.yul\":5092:5097   */\n      dup3\n        /* \"#utility.yul\":5059:5098   */\n      tag_58\n      jump\t// in\n    tag_141:\n        /* \"#utility.yul\":5114:5185   */\n      tag_142\n        /* \"#utility.yul\":5178:5184   */\n      dup2\n        /* \"#utility.yul\":5173:5176   */\n      dup6\n        /* \"#utility.yul\":5114:5185   */\n      tag_59\n      jump\t// in\n    tag_142:\n        /* \"#utility.yul\":5107:5185   */\n      swap4\n      pop\n        /* \"#utility.yul\":5194:5259   */\n      tag_143\n        /* \"#utility.yul\":5252:5258   */\n      dup2\n        /* \"#utility.yul\":5247:5250   */\n      dup6\n        /* \"#utility.yul\":5240:5244   */\n      0x20\n        /* \"#utility.yul\":5233:5238   */\n      dup7\n        /* \"#utility.yul\":5229:5245   */\n      add\n        /* \"#utility.yul\":5194:5259   */\n      tag_60\n      jump\t// in\n    tag_143:\n        /* \"#utility.yul\":5284:5313   */\n      tag_144\n        /* \"#utility.yul\":5306:5312   */\n      dup2\n        /* \"#utility.yul\":5284:5313   */\n      tag_43\n      jump\t// in\n    tag_144:\n        /* \"#utility.yul\":5279:5282   */\n      dup5\n        /* \"#utility.yul\":5275:5314   */\n      add\n        /* \"#utility.yul\":5268:5314   */\n      swap2\n      pop\n        /* \"#utility.yul\":5035:5320   */\n      pop\n        /* \"#utility.yul\":4943:5320   */\n      swap3\n      swap2\n      pop\n      pop\n      jump\t// out\n        /* \"#utility.yul\":5326:5444   */\n    tag_62:\n        /* \"#utility.yul\":5413:5437   */\n      tag_146\n        /* \"#utility.yul\":5431:5436   */\n      dup2\n        /* \"#utility.yul\":5413:5437   */\n      tag_51\n      jump\t// in\n    tag_146:\n        /* \"#utility.yul\":5408:5411   */\n      dup3\n        /* \"#utility.yul\":5401:5438   */\n      mstore\n        /* \"#utility.yul\":5326:5444   */\n      pop\n      pop\n      jump\t// out\n        /* \"#utility.yul\":5450:5873   */\n    tag_15:\n        /* \"#utility.yul\":5591:5595   */\n      0x00\n        /* \"#utility.yul\":5629:5631   */\n      0x40\n        /* \"#utility.yul\":5618:5627   */\n      dup3\n        /* \"#utility.yul\":5614:5632   */\n      add\n        /* \"#utility.yul\":5606:5632   */\n      swap1\n      pop\n        /* \"#utility.yul\":5678:5687   */\n      dup2\n        /* \"#utility.yul\":5672:5676   */\n      dup2\n        /* \"#utility.yul\":5668:5688   */\n      sub\n        /* \"#utility.yul\":5664:5665   */\n      0x00\n        /* \"#utility.yul\":5653:5662   */\n      dup4\n        /* \"#utility.yul\":5649:5666   */\n      add\n        /* \"#utility.yul\":5642:5689   */\n      mstore\n        /* \"#utility.yul\":5706:5784   */\n      tag_148\n        /* \"#utility.yul\":5779:5783   */\n      dup2\n        /* \"#utility.yul\":5770:5776   */\n      dup6\n        /* \"#utility.yul\":5706:5784   */\n      tag_61\n      jump\t// in\n    tag_148:\n        /* \"#utility.yul\":5698:5784   */\n      swap1\n      pop\n        /* \"#utility.yul\":5794:5866   */\n      tag_149\n        /* \"#utility.yul\":5862:5864   */\n      0x20\n        /* \"#utility.yul\":5851:5860   */\n      dup4\n        /* \"#utility.yul\":5847:5865   */\n      add\n        /* \"#utility.yul\":5838:5844   */\n      dup5\n        /* \"#utility.yul\":5794:5866   */\n      tag_62\n      jump\t// in\n    tag_149:\n        /* \"#utility.yul\":5450:5873   */\n      swap4\n      swap3\n      pop\n      pop\n      pop\n      jump\t// out\n        /* \"#utility.yul\":5879:6208   */\n    tag_18:\n        /* \"#utility.yul\":5938:5944   */\n      0x00\n        /* \"#utility.yul\":5987:5989   */\n      0x20\n        /* \"#utility.yul\":5975:5984   */\n      dup3\n        /* \"#utility.yul\":5966:5973   */\n      dup5\n        /* \"#utility.yul\":5962:5985   */\n      sub\n        /* \"#utility.yul\":5958:5990   */\n      slt\n        /* \"#utility.yul\":5955:6074   */\n      iszero\n      tag_151\n      jumpi\n        /* \"#utility.yul\":5993:6072   */\n      tag_152\n      tag_39\n      jump\t// in\n    tag_152:\n        /* \"#utility.yul\":5955:6074   */\n    tag_151:\n        /* \"#utility.yul\":6113:6114   */\n      0x00\n        /* \"#utility.yul\":6138:6191   */\n      tag_153\n        /* \"#utility.yul\":6183:6190   */\n      dup5\n        /* \"#utility.yul\":6174:6180   */\n      dup3\n        /* \"#utility.yul\":6163:6172   */\n      dup6\n        /* \"#utility.yul\":6159:6181   */\n      add\n        /* \"#utility.yul\":6138:6191   */\n      tag_53\n      jump\t// in\n    tag_153:\n        /* \"#utility.yul\":6128:6191   */\n      swap2\n      pop\n        /* \"#utility.yul\":6084:6201   */\n      pop\n        /* \"#utility.yul\":5879:6208   */\n      swap3\n      swap2\n      pop\n      pop\n      jump\t// out\n        /* \"#utility.yul\":6214:6394   */\n    tag_63:\n        /* \"#utility.yul\":6262:6339   */\n      0x4e487b7100000000000000000000000000000000000000000000000000000000\n        /* \"#utility.yul\":6259:6260   */\n      0x00\n        /* \"#utility.yul\":6252:6340   */\n      mstore\n        /* \"#utility.yul\":6359:6363   */\n      0x22\n        /* \"#utility.yul\":6356:6357   */\n      0x04\n        /* \"#utility.yul\":6349:6364   */\n      mstore\n        /* \"#utility.yul\":6383:6387   */\n      0x24\n        /* \"#utility.yul\":6380:6381   */\n      0x00\n        /* \"#utility.yul\":6373:6388   */\n      revert\n        /* \"#utility.yul\":6400:6720   */\n    tag_26:\n        /* \"#utility.yul\":6444:6450   */\n      0x00\n        /* \"#utility.yul\":6481:6482   */\n      0x02\n        /* \"#utility.yul\":6475:6479   */\n      dup3\n        /* \"#utility.yul\":6471:6483   */\n      div\n        /* \"#utility.yul\":6461:6483   */\n      swap1\n      pop\n        /* \"#utility.yul\":6528:6529   */\n      0x01\n        /* \"#utility.yul\":6522:6526   */\n      dup3\n        /* \"#utility.yul\":6518:6530   */\n      and\n        /* \"#utility.yul\":6549:6567   */\n      dup1\n        /* \"#utility.yul\":6539:6620   */\n      tag_156\n      jumpi\n        /* \"#utility.yul\":6605:6609   */\n      0x7f\n        /* \"#utility.yul\":6597:6603   */\n      dup3\n        /* \"#utility.yul\":6593:6610   */\n      and\n        /* \"#utility.yul\":6583:6610   */\n      swap2\n      pop\n        /* \"#utility.yul\":6539:6620   */\n    tag_156:\n        /* \"#utility.yul\":6667:6669   */\n      0x20\n        /* \"#utility.yul\":6659:6665   */\n      dup3\n        /* \"#utility.yul\":6656:6670   */\n      lt\n        /* \"#utility.yul\":6636:6654   */\n      dup2\n        /* \"#utility.yul\":6633:6671   */\n      sub\n        /* \"#utility.yul\":6630:6714   */\n      tag_157\n      jumpi\n        /* \"#utility.yul\":6686:6704   */\n      tag_158\n      tag_63\n      jump\t// in\n    tag_158:\n        /* \"#utility.yul\":6630:6714   */\n    tag_157:\n        /* \"#utility.yul\":6451:6720   */\n      pop\n        /* \"#utility.yul\":6400:6720   */\n      swap2\n      swap1\n      pop\n      jump\t// out\n        /* \"#utility.yul\":6726:6867   */\n    tag_64:\n        /* \"#utility.yul\":6775:6779   */\n      0x00\n        /* \"#utility.yul\":6798:6801   */\n      dup2\n        /* \"#utility.yul\":6790:6801   */\n      swap1\n      pop\n        /* \"#utility.yul\":6821:6824   */\n      dup2\n        /* \"#utility.yul\":6818:6819   */\n      0x00\n        /* \"#utility.yul\":6811:6825   */\n      mstore\n        /* \"#utility.yul\":6855:6859   */\n      0x20\n        /* \"#utility.yul\":6852:6853   */\n      0x00\n        /* \"#utility.yul\":6842:6860   */\n      keccak256\n        /* \"#utility.yul\":6834:6860   */\n      swap1\n      pop\n        /* \"#utility.yul\":6726:6867   */\n      swap2\n      swap1\n      pop\n      jump\t// out\n        /* \"#utility.yul\":6873:6966   */\n    tag_65:\n        /* \"#utility.yul\":6910:6916   */\n      0x00\n        /* \"#utility.yul\":6957:6959   */\n      0x20\n        /* \"#utility.yul\":6952:6954   */\n      0x1f\n        /* \"#utility.yul\":6945:6950   */\n      dup4\n        /* \"#utility.yul\":6941:6955   */\n      add\n        /* \"#utility.yul\":6937:6960   */\n      div\n        /* \"#utility.yul\":6927:6960   */\n      swap1\n      pop\n        /* \"#utility.yul\":6873:6966   */\n      swap2\n      swap1\n      pop\n      jump\t// out\n        /* \"#utility.yul\":6972:7079   */\n    tag_66:\n        /* \"#utility.yul\":7016:7024   */\n      0x00\n        /* \"#utility.yul\":7066:7071   */\n      dup3\n        /* \"#utility.yul\":7060:7064   */\n      dup3\n        /* \"#utility.yul\":7056:7072   */\n      shl\n        /* \"#utility.yul\":7035:7072   */\n      swap1\n      pop\n        /* \"#utility.yul\":6972:7079   */\n      swap3\n      swap2\n      pop\n      pop\n      jump\t// out\n        /* \"#utility.yul\":7085:7478   */\n    tag_67:\n        /* \"#utility.yul\":7154:7160   */\n      0x00\n        /* \"#utility.yul\":7204:7205   */\n      0x08\n        /* \"#utility.yul\":7192:7202   */\n      dup4\n        /* \"#utility.yul\":7188:7206   */\n      mul\n        /* \"#utility.yul\":7227:7324   */\n      tag_163\n        /* \"#utility.yul\":7257:7323   */\n      0xffffffffffffffffffffffffffffffffffffffffffffffffffffffffffffffff\n        /* \"#utility.yul\":7246:7255   */\n      dup3\n        /* \"#utility.yul\":7227:7324   */\n      tag_66\n      jump\t// in\n    tag_163:\n        /* \"#utility.yul\":7345:7384   */\n      tag_164\n        /* \"#utility.yul\":7375:7383   */\n      dup7\n        /* \"#utility.yul\":7364:7373   */\n      dup4\n        /* \"#utility.yul\":7345:7384   */\n      tag_66\n      jump\t// in\n    tag_164:\n        /* \"#utility.yul\":7333:7384   */\n      swap6\n      pop\n        /* \"#utility.yul\":7417:7421   */\n      dup1\n        /* \"#utility.yul\":7413:7422   */\n      not\n        /* \"#utility.yul\":7406:7411   */\n      dup5\n        /* \"#utility.yul\":7402:7423   */\n      and\n        /* \"#utility.yul\":7393:7423   */\n      swap4\n      pop\n        /* \"#utility.yul\":7466:7470   */\n      dup1\n        /* \"#utility.yul\":7456:7464   */\n      dup7\n        /* \"#utility.yul\":7452:7471   */\n      and\n        /* \"#utility.yul\":7445:7450   */\n      dup5\n        /* \"#utility.yul\":7442:7472   */\n      or\n        /* \"#utility.yul\":7432:7472   */\n      swap3\n      pop\n        /* \"#utility.yul\":7161:7478   */\n      pop\n      pop\n        /* \"#utility.yul\":7085:7478   */\n      swap4\n      swap3\n      pop\n      pop\n      pop\n      jump\t// out\n        /* \"#utility.yul\":7484:7544   */\n    tag_68:\n        /* \"#utility.yul\":7512:7515   */\n      0x00\n        /* \"#utility.yul\":7533:7538   */\n      dup2\n        /* \"#utility.yul\":7526:7538   */\n      swap1\n      pop\n        /* \"#utility.yul\":7484:7544   */\n      swap2\n      swap1\n      pop\n      jump\t// out\n        /* \"#utility.yul\":7550:7692   */\n    tag_69:\n        /* \"#utility.yul\":7600:7609   */\n      0x00\n        /* \"#utility.yul\":7633:7686   */\n      tag_167\n        /* \"#utility.yul\":7651:7685   */\n      tag_168\n        /* \"#utility.yul\":7660:7684   */\n      tag_169\n        /* \"#utility.yul\":7678:7683   */\n      dup5\n        /* \"#utility.yul\":7660:7684   */\n      tag_51\n      jump\t// in\n    tag_169:\n        /* \"#utility.yul\":7651:7685   */\n      tag_68\n      jump\t// in\n    tag_168:\n        /* \"#utility.yul\":7633:7686   */\n      tag_51\n      jump\t// in\n    tag_167:\n        /* \"#utility.yul\":7620:7686   */\n      swap1\n      pop\n        /* \"#utility.yul\":7550:7692   */\n      swap2\n      swap1\n      pop\n      jump\t// out\n        /* \"#utility.yul\":7698:7773   */\n    tag_70:\n        /* \"#utility.yul\":7741:7744   */\n      0x00\n        /* \"#utility.yul\":7762:7767   */\n      dup2\n        /* \"#utility.yul\":7755:7767   */\n      swap1\n      pop\n        /* \"#utility.yul\":7698:7773   */\n      swap2\n      swap1\n      pop\n      jump\t// out\n        /* \"#utility.yul\":7779:8048   */\n    tag_71:\n        /* \"#utility.yul\":7889:7928   */\n      tag_172\n        /* \"#utility.yul\":7920:7927   */\n      dup4\n        /* \"#utility.yul\":7889:7928   */\n      tag_69\n      jump\t// in\n    tag_172:\n        /* \"#utility.yul\":7950:8041   */\n      tag_173\n        /* \"#utility.yul\":7999:8040   */\n      tag_174\n        /* \"#utility.yul\":8023:8039   */\n      dup3\n        /* \"#utility.yul\":7999:8040   */\n      tag_70\n      jump\t// in\n    tag_174:\n        /* \"#utility.yul\":7991:7997   */\n      dup5\n        /* \"#utility.yul\":7984:7988   */\n      dup5\n        /* \"#utility.yul\":7978:7989   */\n      sload\n        /* \"#utility.yul\":7950:8041   */\n      tag_67\n      jump\t// in\n    tag_173:\n        /* \"#utility.yul\":7944:7948   */\n      dup3\n        /* \"#utility.yul\":7937:8042   */\n      sstore\n        /* \"#utility.yul\":7855:8048   */\n      pop\n        /* \"#utility.yul\":7779:8048   */\n      pop\n      pop\n      pop\n      jump\t// out\n        /* \"#utility.yul\":8054:8127   */\n    tag_72:\n        /* \"#utility.yul\":8099:8102   */\n      0x00\n        /* \"#utility.yul\":8054:8127   */\n      swap1\n      jump\t// out\n        /* \"#utility.yul\":8133:8322   */\n    tag_73:\n        /* \"#utility.yul\":8210:8242   */\n      tag_177\n      tag_72\n      jump\t// in\n    tag_177:\n        /* \"#utility.yul\":8251:8316   */\n      tag_178\n        /* \"#utility.yul\":8309:8315   */\n      dup2\n        /* \"#utility.yul\":8301:8307   */\n      dup5\n        /* \"#utility.yul\":8295:8299   */\n      dup5\n        /* \"#utility.yul\":8251:8316   */\n      tag_71\n      jump\t// in\n    tag_178:\n        /* \"#utility.yul\":8186:8322   */\n      pop\n        /* \"#utility.yul\":8133:8322   */\n      pop\n      pop\n      jump\t// out\n        /* \"#utility.yul\":8328:8514   */\n    tag_74:\n        /* \"#utility.yul\":8388:8508   */\n    tag_180:\n        /* \"#utility.yul\":8405:8408   */\n      dup2\n        /* \"#utility.yul\":8398:8403   */\n      dup2\n        /* \"#utility.yul\":8395:8409   */\n      lt\n        /* \"#utility.yul\":8388:8508   */\n      iszero\n      tag_182\n      jumpi\n        /* \"#utility.yul\":8459:8498   */\n      tag_183\n        /* \"#utility.yul\":8496:8497   */\n      0x00\n        /* \"#utility.yul\":8489:8494   */\n      dup3\n        /* \"#utility.yul\":8459:8498   */\n      tag_73\n      jump\t// in\n    tag_183:\n        /* \"#utility.yul\":8432:8433   */\n      0x01\n        /* \"#utility.yul\":8425:8430   */\n      dup2\n        /* \"#utility.yul\":8421:8434   */\n      add\n        /* \"#utility.yul\":8412:8434   */\n      swap1\n      pop\n        /* \"#utility.yul\":8388:8508   */\n      jump(tag_180)\n    tag_182:\n        /* \"#utility.yul\":8328:8514   */\n      pop\n      pop\n      jump\t// out\n        /* \"#utility.yul\":8520:9063   */\n    tag_75:\n        /* \"#utility.yul\":8621:8623   */\n      0x1f\n        /* \"#utility.yul\":8616:8619   */\n      dup3\n        /* \"#utility.yul\":8613:8624   */\n      gt\n        /* \"#utility.yul\":8610:9056   */\n      iszero\n      tag_185\n      jumpi\n        /* \"#utility.yul\":8655:8693   */\n      tag_186\n        /* \"#utility.yul\":8687:8692   */\n      dup2\n        /* \"#utility.yul\":8655:8693   */\n      tag_64\n      jump\t// in\n    tag_186:\n        /* \"#utility.yul\":8739:8768   */\n      tag_187\n        /* \"#utility.yul\":8757:8767   */\n      dup5\n        /* \"#utility.yul\":8739:8768   */\n      tag_65\n      jump\t// in\n    tag_187:\n        /* \"#utility.yul\":8729:8737   */\n      dup2\n        /* \"#utility.yul\":8725:8769   */\n      add\n        /* \"#utility.yul\":8922:8924   */\n      0x20\n        /* \"#utility.yul\":8910:8920   */\n      dup6\n        /* \"#utility.yul\":8907:8925   */\n      lt\n        /* \"#utility.yul\":8904:8953   */\n      iszero\n      tag_188\n      jumpi\n        /* \"#utility.yul\":8943:8951   */\n      dup2\n        /* \"#utility.yul\":8928:8951   */\n      swap1\n      pop\n        /* \"#utility.yul\":8904:8953   */\n    tag_188:\n        /* \"#utility.yul\":8966:9046   */\n      tag_189\n        /* \"#utility.yul\":9022:9044   */\n      tag_190\n        /* \"#utility.yul\":9040:9043   */\n      dup6\n        /* \"#utility.yul\":9022:9044   */\n      tag_65\n      jump\t// in\n    tag_190:\n        /* \"#utility.yul\":9012:9020   */\n      dup4\n        /* \"#utility.yul\":9008:9045   */\n      add\n        /* \"#utility.yul\":8995:9006   */\n      dup3\n        /* \"#utility.yul\":8966:9046   */\n      tag_74\n      jump\t// in\n    tag_189:\n        /* \"#utility.yul\":8625:9056   */\n      pop\n      pop\n        /* \"#utility.yul\":8610:9056   */\n    tag_185:\n        /* \"#utility.yul\":8520:9063   */\n      pop\n      pop\n      pop\n      jump\t// out\n        /* \"#utility.yul\":9069:9186   */\n    tag_76:\n        /* \"#utility.yul\":9123:9131   */\n      0x00\n        /* \"#utility.yul\":9173:9178   */\n      dup3\n        /* \"#utility.yul\":9167:9171   */\n      dup3\n        /* \"#utility.yul\":9163:9179   */\n      shr\n        /* \"#utility.yul\":9142:9179   */\n      swap1\n      pop\n        /* \"#utility.yul\":9069:9186   */\n      swap3\n      swap2\n      pop\n      pop\n      jump\t// out\n        /* \"#utility.yul\":9192:9361   */\n    tag_77:\n        /* \"#utility.yul\":9236:9242   */\n      0x00\n        /* \"#utility.yul\":9269:9320   */\n      tag_193\n        /* \"#utility.yul\":9317:9318   */\n      0x00\n        /* \"#utility.yul\":9313:9319   */\n      not\n        /* \"#utility.yul\":9305:9310   */\n      dup5\n        /* \"#utility.yul\":9302:9303   */\n      0x08\n        /* \"#utility.yul\":9298:9311   */\n      mul\n        /* \"#utility.yul\":9269:9320   */\n      tag_76\n      jump\t// in\n    tag_193:\n        /* \"#utility.yul\":9265:9321   */\n      not\n        /* \"#utility.yul\":9350:9354   */\n      dup1\n        /* \"#utility.yul\":9344:9348   */\n      dup4\n        /* \"#utility.yul\":9340:9355   */\n      and\n        /* \"#utility.yul\":9330:9355   */\n      swap2\n      pop\n        /* \"#utility.yul\":9243:9361   */\n      pop\n        /* \"#utility.yul\":9192:9361   */\n      swap3\n      swap2\n      pop\n      pop\n      jump\t// out\n        /* \"#utility.yul\":9366:9661   */\n    tag_78:\n        /* \"#utility.yul\":9442:9446   */\n      0x00\n        /* \"#utility.yul\":9588:9617   */\n      tag_195\n        /* \"#utility.yul\":9613:9616   */\n      dup4\n        /* \"#utility.yul\":9607:9611   */\n      dup4\n        /* \"#utility.yul\":9588:9617   */\n      tag_77\n      jump\t// in\n    tag_195:\n        /* \"#utility.yul\":9580:9617   */\n      swap2\n      pop\n        /* \"#utility.yul\":9650:9653   */\n      dup3\n        /* \"#utility.yul\":9647:9648   */\n      0x02\n        /* \"#utility.yul\":9643:9654   */\n      mul\n        /* \"#utility.yul\":9637:9641   */\n      dup3\n        /* \"#utility.yul\":9634:9655   */\n      or\n        /* \"#utility.yul\":9626:9655   */\n      swap1\n      pop\n        /* \"#utility.yul\":9366:9661   */\n      swap3\n      swap2\n      pop\n      pop\n      jump\t// out\n        /* \"#utility.yul\":9666:11061   */\n    tag_24:\n        /* \"#utility.yul\":9783:9820   */\n      tag_197\n        /* \"#utility.yul\":9816:9819   */\n      dup3\n        /* \"#utility.yul\":9783:9820   */\n      tag_58\n      jump\t// in\n    tag_197:\n        /* \"#utility.yul\":9885:9903   */\n      0xffffffffffffffff\n        /* \"#utility.yul\":9877:9883   */\n      dup2\n        /* \"#utility.yul\":9874:9904   */\n      gt\n        /* \"#utility.yul\":9871:9927   */\n      iszero\n      tag_198\n      jumpi\n        /* \"#utility.yul\":9907:9925   */\n      tag_199\n      tag_44\n      jump\t// in\n    tag_199:\n        /* \"#utility.yul\":9871:9927   */\n    tag_198:\n        /* \"#utility.yul\":9951:9989   */\n      tag_200\n        /* \"#utility.yul\":9983:9987   */\n      dup3\n        /* \"#utility.yul\":9977:9988   */\n      sload\n        /* \"#utility.yul\":9951:9989   */\n      tag_26\n      jump\t// in\n    tag_200:\n        /* \"#utility.yul\":10036:10103   */\n      tag_201\n        /* \"#utility.yul\":10096:10102   */\n      dup3\n        /* \"#utility.yul\":10088:10094   */\n      dup3\n        /* \"#utility.yul\":10082:10086   */\n      dup6\n        /* \"#utility.yul\":10036:10103   */\n      tag_75\n      jump\t// in\n    tag_201:\n        /* \"#utility.yul\":10130:10131   */\n      0x00\n        /* \"#utility.yul\":10154:10158   */\n      0x20\n        /* \"#utility.yul\":10141:10158   */\n      swap1\n      pop\n        /* \"#utility.yul\":10186:10188   */\n      0x1f\n        /* \"#utility.yul\":10178:10184   */\n      dup4\n        /* \"#utility.yul\":10175:10189   */\n      gt\n        /* \"#utility.yul\":10203:10204   */\n      0x01\n        /* \"#utility.yul\":10198:10816   */\n      dup2\n      eq\n      tag_203\n      jumpi\n        /* \"#utility.yul\":10860:10861   */\n      0x00\n        /* \"#utility.yul\":10877:10883   */\n      dup5\n        /* \"#utility.yul\":10874:10951   */\n      iszero\n      tag_204\n      jumpi\n        /* \"#utility.yul\":10926:10935   */\n      dup3\n        /* \"#utility.yul\":10921:10924   */\n      dup8\n        /* \"#utility.yul\":10917:10936   */\n      add\n        /* \"#utility.yul\":10911:10937   */\n      mload\n        /* \"#utility.yul\":10902:10937   */\n      swap1\n      pop\n        /* \"#utility.yul\":10874:10951   */\n    tag_204:\n        /* \"#utility.yul\":10977:11044   */\n      tag_205\n        /* \"#utility.yul\":11037:11043   */\n      dup6\n        /* \"#utility.yul\":11030:11035   */\n      dup3\n        /* \"#utility.yul\":10977:11044   */\n      tag_78\n      jump\t// in\n    tag_205:\n        /* \"#utility.yul\":10971:10975   */\n      dup7\n        /* \"#utility.yul\":10964:11045   */\n      sstore\n        /* \"#utility.yul\":10833:11055   */\n      pop\n        /* \"#utility.yul\":10168:11055   */\n      jump(tag_202)\n        /* \"#utility.yul\":10198:10816   */\n    tag_203:\n        /* \"#utility.yul\":10250:10254   */\n      0x1f\n        /* \"#utility.yul\":10246:10255   */\n      not\n        /* \"#utility.yul\":10238:10244   */\n      dup5\n        /* \"#utility.yul\":10234:10256   */\n      and\n        /* \"#utility.yul\":10284:10321   */\n      tag_206\n        /* \"#utility.yul\":10316:10320   */\n      dup7\n        /* \"#utility.yul\":10284:10321   */\n      tag_64\n      jump\t// in\n    tag_206:\n        /* \"#utility.yul\":10343:10344   */\n      0x00\n        /* \"#utility.yul\":10357:10565   */\n    tag_207:\n        /* \"#utility.yul\":10371:10378   */\n      dup3\n        /* \"#utility.yul\":10368:10369   */\n      dup2\n        /* \"#utility.yul\":10365:10379   */\n      lt\n        /* \"#utility.yul\":10357:10565   */\n      iszero\n      tag_209\n      jumpi\n        /* \"#utility.yul\":10450:10459   */\n      dup5\n        /* \"#utility.yul\":10445:10448   */\n      dup10\n        /* \"#utility.yul\":10441:10460   */\n      add\n        /* \"#utility.yul\":10435:10461   */\n      mload\n        /* \"#utility.yul\":10427:10433   */\n      dup3\n        /* \"#utility.yul\":10420:10462   */\n      sstore\n        /* \"#utility.yul\":10501:10502   */\n      0x01\n        /* \"#utility.yul\":10493:10499   */\n      dup3\n        /* \"#utility.yul\":10489:10503   */\n      add\n        /* \"#utility.yul\":10479:10503   */\n      swap2\n      pop\n        /* \"#utility.yul\":10548:10550   */\n      0x20\n        /* \"#utility.yul\":10537:10546   */\n      dup6\n        /* \"#utility.yul\":10533:10551   */\n      add\n        /* \"#utility.yul\":10520:10551   */\n      swap5\n      pop\n        /* \"#utility.yul\":10394:10398   */\n      0x20\n        /* \"#utility.yul\":10391:10392   */\n      dup2\n        /* \"#utility.yul\":10387:10399   */\n      add\n        /* \"#utility.yul\":10382:10399   */\n      swap1\n      pop\n        /* \"#utility.yul\":10357:10565   */\n      jump(tag_207)\n    tag_209:\n        /* \"#utility.yul\":10593:10599   */\n      dup7\n        /* \"#utility.yul\":10584:10591   */\n      dup4\n        /* \"#utility.yul\":10581:10600   */\n      lt\n        /* \"#utility.yul\":10578:10757   */\n      iszero\n      tag_210\n      jumpi\n        /* \"#utility.yul\":10651:10660   */\n      dup5\n        /* \"#utility.yul\":10646:10649   */\n      dup10\n        /* \"#utility.yul\":10642:10661   */\n      add\n        /* \"#utility.yul\":10636:10662   */\n      mload\n        /* \"#utility.yul\":10694:10742   */\n      tag_211\n        /* \"#utility.yul\":10736:10740   */\n      0x1f\n        /* \"#utility.yul\":10728:10734   */\n      dup10\n        /* \"#utility.yul\":10724:10741   */\n      and\n        /* \"#utility.yul\":10713:10722   */\n      dup3\n        /* \"#utility.yul\":10694:10742   */\n      tag_77\n      jump\t// in\n    tag_211:\n        /* \"#utility.yul\":10686:10692   */\n      dup4\n        /* \"#utility.yul\":10679:10743   */\n      sstore\n        /* \"#utility.yul\":10601:10757   */\n      pop\n        /* \"#utility.yul\":10578:10757   */\n    tag_210:\n        /* \"#utility.yul\":10803:10804   */\n      0x01\n        /* \"#utility.yul\":10799:10800   */\n      0x02\n        /* \"#utility.yul\":10791:10797   */\n      dup9\n        /* \"#utility.yul\":10787:10801   */\n      mul\n        /* \"#utility.yul\":10783:10805   */\n      add\n        /* \"#utility.yul\":10777:10781   */\n      dup9\n        /* \"#utility.yul\":10770:10806   */\n      sstore\n        /* \"#utility.yul\":10205:10816   */\n      pop\n      pop\n      pop\n        /* \"#utility.yul\":10168:11055   */\n    tag_202:\n      pop\n        /* \"#utility.yul\":9758:11061   */\n      pop\n      pop\n      pop\n        /* \"#utility.yul\":9666:11061   */\n      pop\n      pop\n      jump\t// out\n\n    auxdata: 0xa2646970667358221220f46c3dc7dcdd35facb379487e1ec9bb75f597af2a71d9d6855ac344c7947ad1064736f6c63430008110033\n}\n",
				"bytecode": {
					"linkReferences": {},
					"object": "608060405234801561001057600080fd5b50610908806100206000396000f3fe608060405234801561001057600080fd5b50600436106100415760003560e01c80630d3de88d14610046578063a857bf3214610062578063b9d6dedb14610093575b600080fd5b610060600480360381019061005b9190610422565b6100c4565b005b61007c600480360381019061007791906104dc565b61012a565b60405161008a929190610597565b60405180910390f35b6100ad60048036038101906100a891906105c7565b6101d6565b6040516100bb929190610597565b60405180910390f35b6000604051806040016040528084815260200183815250908060018154018082558091505060019003906000526020600020906002020160009091909190915060008201518160000190816101199190610800565b506020820151816001015550505050565b600160205280600052604060002060009150905080600001805461014d90610623565b80601f016020809104026020016040519081016040528092919081815260200182805461017990610623565b80156101c65780601f1061019b576101008083540402835291602001916101c6565b820191906000526020600020905b8154815290600101906020018083116101a957829003601f168201915b5050505050908060010154905082565b600081815481106101e657600080fd5b906000526020600020906002020160009150905080600001805461020990610623565b80601f016020809104026020016040519081016040528092919081815260200182805461023590610623565b80156102825780601f1061025757610100808354040283529160200191610282565b820191906000526020600020905b81548152906001019060200180831161026557829003601f168201915b5050505050908060010154905082565b6000604051905090565b600080fd5b600080fd5b600080fd5b600080fd5b6000601f19601f8301169050919050565b7f4e487b7100000000000000000000000000000000000000000000000000000000600052604160045260246000fd5b6102f9826102b0565b810181811067ffffffffffffffff82111715610318576103176102c1565b5b80604052505050565b600061032b610292565b905061033782826102f0565b919050565b600067ffffffffffffffff821115610357576103566102c1565b5b610360826102b0565b9050602081019050919050565b82818337600083830152505050565b600061038f61038a8461033c565b610321565b9050828152602081018484840111156103ab576103aa6102ab565b5b6103b684828561036d565b509392505050565b600082601f8301126103d3576103d26102a6565b5b81356103e384826020860161037c565b91505092915050565b6000819050919050565b6103ff816103ec565b811461040a57600080fd5b50565b60008135905061041c816103f6565b92915050565b600080604083850312156104395761043861029c565b5b600083013567ffffffffffffffff811115610457576104566102a1565b5b610463858286016103be565b92505060206104748582860161040d565b9150509250929050565b600073ffffffffffffffffffffffffffffffffffffffff82169050919050565b60006104a98261047e565b9050919050565b6104b98161049e565b81146104c457600080fd5b50565b6000813590506104d6816104b0565b92915050565b6000602082840312156104f2576104f161029c565b5b6000610500848285016104c7565b91505092915050565b600081519050919050565b600082825260208201905092915050565b60005b83811015610543578082015181840152602081019050610528565b60008484015250505050565b600061055a82610509565b6105648185610514565b9350610574818560208601610525565b61057d816102b0565b840191505092915050565b610591816103ec565b82525050565b600060408201905081810360008301526105b1818561054f565b90506105c06020830184610588565b9392505050565b6000602082840312156105dd576105dc61029c565b5b60006105eb8482850161040d565b91505092915050565b7f4e487b7100000000000000000000000000000000000000000000000000000000600052602260045260246000fd5b6000600282049050600182168061063b57607f821691505b60208210810361064e5761064d6105f4565b5b50919050565b60008190508160005260206000209050919050565b60006020601f8301049050919050565b600082821b905092915050565b6000600883026106b67fffffffffffffffffffffffffffffffffffffffffffffffffffffffffffffffff82610679565b6106c08683610679565b95508019841693508086168417925050509392505050565b6000819050919050565b60006106fd6106f86106f3846103ec565b6106d8565b6103ec565b9050919050565b6000819050919050565b610717836106e2565b61072b61072382610704565b848454610686565b825550505050565b600090565b610740610733565b61074b81848461070e565b505050565b5b8181101561076f57610764600082610738565b600181019050610751565b5050565b601f8211156107b45761078581610654565b61078e84610669565b8101602085101561079d578190505b6107b16107a985610669565b830182610750565b50505b505050565b600082821c905092915050565b60006107d7600019846008026107b9565b1980831691505092915050565b60006107f083836107c6565b9150826002028217905092915050565b61080982610509565b67ffffffffffffffff811115610822576108216102c1565b5b61082c8254610623565b610837828285610773565b600060209050601f83116001811461086a5760008415610858578287015190505b61086285826107e4565b8655506108ca565b601f19841661087886610654565b60005b828110156108a05784890151825560018201915060208501945060208101905061087b565b868310156108bd57848901516108b9601f8916826107c6565b8355505b6001600288020188555050505b50505050505056fea2646970667358221220f46c3dc7dcdd35facb379487e1ec9bb75f597af2a71d9d6855ac344c7947ad1064736f6c63430008110033",
					"opcodes": "PUSH1 0x80 PUSH1 0x40 MSTORE CALLVALUE DUP1 ISZERO PUSH2 0x10 JUMPI PUSH1 0x0 DUP1 REVERT JUMPDEST POP PUSH2 0x908 DUP1 PUSH2 0x20 PUSH1 0x0 CODECOPY PUSH1 0x0 RETURN INVALID PUSH1 0x80 PUSH1 0x40 MSTORE CALLVALUE DUP1 ISZERO PUSH2 0x10 JUMPI PUSH1 0x0 DUP1 REVERT JUMPDEST POP PUSH1 0x4 CALLDATASIZE LT PUSH2 0x41 JUMPI PUSH1 0x0 CALLDATALOAD PUSH1 0xE0 SHR DUP1 PUSH4 0xD3DE88D EQ PUSH2 0x46 JUMPI DUP1 PUSH4 0xA857BF32 EQ PUSH2 0x62 JUMPI DUP1 PUSH4 0xB9D6DEDB EQ PUSH2 0x93 JUMPI JUMPDEST PUSH1 0x0 DUP1 REVERT JUMPDEST PUSH2 0x60 PUSH1 0x4 DUP1 CALLDATASIZE SUB DUP2 ADD SWAP1 PUSH2 0x5B SWAP2 SWAP1 PUSH2 0x422 JUMP JUMPDEST PUSH2 0xC4 JUMP JUMPDEST STOP JUMPDEST PUSH2 0x7C PUSH1 0x4 DUP1 CALLDATASIZE SUB DUP2 ADD SWAP1 PUSH2 0x77 SWAP2 SWAP1 PUSH2 0x4DC JUMP JUMPDEST PUSH2 0x12A JUMP JUMPDEST PUSH1 0x40 MLOAD PUSH2 0x8A SWAP3 SWAP2 SWAP1 PUSH2 0x597 JUMP JUMPDEST PUSH1 0x40 MLOAD DUP1 SWAP2 SUB SWAP1 RETURN JUMPDEST PUSH2 0xAD PUSH1 0x4 DUP1 CALLDATASIZE SUB DUP2 ADD SWAP1 PUSH2 0xA8 SWAP2 SWAP1 PUSH2 0x5C7 JUMP JUMPDEST PUSH2 0x1D6 JUMP JUMPDEST PUSH1 0x40 MLOAD PUSH2 0xBB SWAP3 SWAP2 SWAP1 PUSH2 0x597 JUMP JUMPDEST PUSH1 0x40 MLOAD DUP1 SWAP2 SUB SWAP1 RETURN JUMPDEST PUSH1 0x0 PUSH1 0x40 MLOAD DUP1 PUSH1 0x40 ADD PUSH1 0x40 MSTORE DUP1 DUP5 DUP2 MSTORE PUSH1 0x20 ADD DUP4 DUP2 MSTORE POP SWAP1 DUP1 PUSH1 0x1 DUP2 SLOAD ADD DUP1 DUP3 SSTORE DUP1 SWAP2 POP POP PUSH1 0x1 SWAP1 SUB SWAP1 PUSH1 0x0 MSTORE PUSH1 0x20 PUSH1 0x0 KECCAK256 SWAP1 PUSH1 0x2 MUL ADD PUSH1 0x0 SWAP1 SWAP2 SWAP1 SWAP2 SWAP1 SWAP2 POP PUSH1 0x0 DUP3 ADD MLOAD DUP2 PUSH1 0x0 ADD SWAP1 DUP2 PUSH2 0x119 SWAP2 SWAP1 PUSH2 0x800 JUMP JUMPDEST POP PUSH1 0x20 DUP3 ADD MLOAD DUP2 PUSH1 0x1 ADD SSTORE POP POP POP POP JUMP JUMPDEST PUSH1 0x1 PUSH1 0x20 MSTORE DUP1 PUSH1 0x0 MSTORE PUSH1 0x40 PUSH1 0x0 KECCAK256 PUSH1 0x0 SWAP2 POP SWAP1 POP DUP1 PUSH1 0x0 ADD DUP1 SLOAD PUSH2 0x14D SWAP1 PUSH2 0x623 JUMP JUMPDEST DUP1 PUSH1 0x1F ADD PUSH1 0x20 DUP1 SWAP2 DIV MUL PUSH1 0x20 ADD PUSH1 0x40 MLOAD SWAP1 DUP2 ADD PUSH1 0x40 MSTORE DUP1 SWAP3 SWAP2 SWAP1 DUP2 DUP2 MSTORE PUSH1 0x20 ADD DUP3 DUP1 SLOAD PUSH2 0x179 SWAP1 PUSH2 0x623 JUMP JUMPDEST DUP1 ISZERO PUSH2 0x1C6 JUMPI DUP1 PUSH1 0x1F LT PUSH2 0x19B JUMPI PUSH2 0x100 DUP1 DUP4 SLOAD DIV MUL DUP4 MSTORE SWAP2 PUSH1 0x20 ADD SWAP2 PUSH2 0x1C6 JUMP JUMPDEST DUP3 ADD SWAP2 SWAP1 PUSH1 0x0 MSTORE PUSH1 0x20 PUSH1 0x0 KECCAK256 SWAP1 JUMPDEST DUP2 SLOAD DUP2 MSTORE SWAP1 PUSH1 0x1 ADD SWAP1 PUSH1 0x20 ADD DUP1 DUP4 GT PUSH2 0x1A9 JUMPI DUP3 SWAP1 SUB PUSH1 0x1F AND DUP3 ADD SWAP2 JUMPDEST POP POP POP POP POP SWAP1 DUP1 PUSH1 0x1 ADD SLOAD SWAP1 POP DUP3 JUMP JUMPDEST PUSH1 0x0 DUP2 DUP2 SLOAD DUP2 LT PUSH2 0x1E6 JUMPI PUSH1 0x0 DUP1 REVERT JUMPDEST SWAP1 PUSH1 0x0 MSTORE PUSH1 0x20 PUSH1 0x0 KECCAK256 SWAP1 PUSH1 0x2 MUL ADD PUSH1 0x0 SWAP2 POP SWAP1 POP DUP1 PUSH1 0x0 ADD DUP1 SLOAD PUSH2 0x209 SWAP1 PUSH2 0x623 JUMP JUMPDEST DUP1 PUSH1 0x1F ADD PUSH1 0x20 DUP1 SWAP2 DIV MUL PUSH1 0x20 ADD PUSH1 0x40 MLOAD SWAP1 DUP2 ADD PUSH1 0x40 MSTORE DUP1 SWAP3 SWAP2 SWAP1 DUP2 DUP2 MSTORE PUSH1 0x20 ADD DUP3 DUP1 SLOAD PUSH2 0x235 SWAP1 PUSH2 0x623 JUMP JUMPDEST DUP1 ISZERO PUSH2 0x282 JUMPI DUP1 PUSH1 0x1F LT PUSH2 0x257 JUMPI PUSH2 0x100 DUP1 DUP4 SLOAD DIV MUL DUP4 MSTORE SWAP2 PUSH1 0x20 ADD SWAP2 PUSH2 0x282 JUMP JUMPDEST DUP3 ADD SWAP2 SWAP1 PUSH1 0x0 MSTORE PUSH1 0x20 PUSH1 0x0 KECCAK256 SWAP1 JUMPDEST DUP2 SLOAD DUP2 MSTORE SWAP1 PUSH1 0x1 ADD SWAP1 PUSH1 0x20 ADD DUP1 DUP4 GT PUSH2 0x265 JUMPI DUP3 SWAP1 SUB PUSH1 0x1F AND DUP3 ADD SWAP2 JUMPDEST POP POP POP POP POP SWAP1 DUP1 PUSH1 0x1 ADD SLOAD SWAP1 POP DUP3 JUMP JUMPDEST PUSH1 0x0 PUSH1 0x40 MLOAD SWAP1 POP SWAP1 JUMP JUMPDEST PUSH1 0x0 DUP1 REVERT JUMPDEST PUSH1 0x0 DUP1 REVERT JUMPDEST PUSH1 0x0 DUP1 REVERT JUMPDEST PUSH1 0x0 DUP1 REVERT JUMPDEST PUSH1 0x0 PUSH1 0x1F NOT PUSH1 0x1F DUP4 ADD AND SWAP1 POP SWAP2 SWAP1 POP JUMP JUMPDEST PUSH32 0x4E487B7100000000000000000000000000000000000000000000000000000000 PUSH1 0x0 MSTORE PUSH1 0x41 PUSH1 0x4 MSTORE PUSH1 0x24 PUSH1 0x0 REVERT JUMPDEST PUSH2 0x2F9 DUP3 PUSH2 0x2B0 JUMP JUMPDEST DUP2 ADD DUP2 DUP2 LT PUSH8 0xFFFFFFFFFFFFFFFF DUP3 GT OR ISZERO PUSH2 0x318 JUMPI PUSH2 0x317 PUSH2 0x2C1 JUMP JUMPDEST JUMPDEST DUP1 PUSH1 0x40 MSTORE POP POP POP JUMP JUMPDEST PUSH1 0x0 PUSH2 0x32B PUSH2 0x292 JUMP JUMPDEST SWAP1 POP PUSH2 0x337 DUP3 DUP3 PUSH2 0x2F0 JUMP JUMPDEST SWAP2 SWAP1 POP JUMP JUMPDEST PUSH1 0x0 PUSH8 0xFFFFFFFFFFFFFFFF DUP3 GT ISZERO PUSH2 0x357 JUMPI PUSH2 0x356 PUSH2 0x2C1 JUMP JUMPDEST JUMPDEST PUSH2 0x360 DUP3 PUSH2 0x2B0 JUMP JUMPDEST SWAP1 POP PUSH1 0x20 DUP2 ADD SWAP1 POP SWAP2 SWAP1 POP JUMP JUMPDEST DUP3 DUP2 DUP4 CALLDATACOPY PUSH1 0x0 DUP4 DUP4 ADD MSTORE POP POP POP JUMP JUMPDEST PUSH1 0x0 PUSH2 0x38F PUSH2 0x38A DUP5 PUSH2 0x33C JUMP JUMPDEST PUSH2 0x321 JUMP JUMPDEST SWAP1 POP DUP3 DUP2 MSTORE PUSH1 0x20 DUP2 ADD DUP5 DUP5 DUP5 ADD GT ISZERO PUSH2 0x3AB JUMPI PUSH2 0x3AA PUSH2 0x2AB JUMP JUMPDEST JUMPDEST PUSH2 0x3B6 DUP5 DUP3 DUP6 PUSH2 0x36D JUMP JUMPDEST POP SWAP4 SWAP3 POP POP POP JUMP JUMPDEST PUSH1 0x0 DUP3 PUSH1 0x1F DUP4 ADD SLT PUSH2 0x3D3 JUMPI PUSH2 0x3D2 PUSH2 0x2A6 JUMP JUMPDEST JUMPDEST DUP2 CALLDATALOAD PUSH2 0x3E3 DUP5 DUP3 PUSH1 0x20 DUP7 ADD PUSH2 0x37C JUMP JUMPDEST SWAP2 POP POP SWAP3 SWAP2 POP POP JUMP JUMPDEST PUSH1 0x0 DUP2 SWAP1 POP SWAP2 SWAP1 POP JUMP JUMPDEST PUSH2 0x3FF DUP2 PUSH2 0x3EC JUMP JUMPDEST DUP2 EQ PUSH2 0x40A JUMPI PUSH1 0x0 DUP1 REVERT JUMPDEST POP JUMP JUMPDEST PUSH1 0x0 DUP2 CALLDATALOAD SWAP1 POP PUSH2 0x41C DUP2 PUSH2 0x3F6 JUMP JUMPDEST SWAP3 SWAP2 POP POP JUMP JUMPDEST PUSH1 0x0 DUP1 PUSH1 0x40 DUP4 DUP6 SUB SLT ISZERO PUSH2 0x439 JUMPI PUSH2 0x438 PUSH2 0x29C JUMP JUMPDEST JUMPDEST PUSH1 0x0 DUP4 ADD CALLDATALOAD PUSH8 0xFFFFFFFFFFFFFFFF DUP2 GT ISZERO PUSH2 0x457 JUMPI PUSH2 0x456 PUSH2 0x2A1 JUMP JUMPDEST JUMPDEST PUSH2 0x463 DUP6 DUP3 DUP7 ADD PUSH2 0x3BE JUMP JUMPDEST SWAP3 POP POP PUSH1 0x20 PUSH2 0x474 DUP6 DUP3 DUP7 ADD PUSH2 0x40D JUMP JUMPDEST SWAP2 POP POP SWAP3 POP SWAP3 SWAP1 POP JUMP JUMPDEST PUSH1 0x0 PUSH20 0xFFFFFFFFFFFFFFFFFFFFFFFFFFFFFFFFFFFFFFFF DUP3 AND SWAP1 POP SWAP2 SWAP1 POP JUMP JUMPDEST PUSH1 0x0 PUSH2 0x4A9 DUP3 PUSH2 0x47E JUMP JUMPDEST SWAP1 POP SWAP2 SWAP1 POP JUMP JUMPDEST PUSH2 0x4B9 DUP2 PUSH2 0x49E JUMP JUMPDEST DUP2 EQ PUSH2 0x4C4 JUMPI PUSH1 0x0 DUP1 REVERT JUMPDEST POP JUMP JUMPDEST PUSH1 0x0 DUP2 CALLDATALOAD SWAP1 POP PUSH2 0x4D6 DUP2 PUSH2 0x4B0 JUMP JUMPDEST SWAP3 SWAP2 POP POP JUMP JUMPDEST PUSH1 0x0 PUSH1 0x20 DUP3 DUP5 SUB SLT ISZERO PUSH2 0x4F2 JUMPI PUSH2 0x4F1 PUSH2 0x29C JUMP JUMPDEST JUMPDEST PUSH1 0x0 PUSH2 0x500 DUP5 DUP3 DUP6 ADD PUSH2 0x4C7 JUMP JUMPDEST SWAP2 POP POP SWAP3 SWAP2 POP POP JUMP JUMPDEST PUSH1 0x0 DUP2 MLOAD SWAP1 POP SWAP2 SWAP1 POP JUMP JUMPDEST PUSH1 0x0 DUP3 DUP3 MSTORE PUSH1 0x20 DUP3 ADD SWAP1 POP SWAP3 SWAP2 POP POP JUMP JUMPDEST PUSH1 0x0 JUMPDEST DUP4 DUP2 LT ISZERO PUSH2 0x543 JUMPI DUP1 DUP3 ADD MLOAD DUP2 DUP5 ADD MSTORE PUSH1 0x20 DUP2 ADD SWAP1 POP PUSH2 0x528 JUMP JUMPDEST PUSH1 0x0 DUP5 DUP5 ADD MSTORE POP POP POP POP JUMP JUMPDEST PUSH1 0x0 PUSH2 0x55A DUP3 PUSH2 0x509 JUMP JUMPDEST PUSH2 0x564 DUP2 DUP6 PUSH2 0x514 JUMP JUMPDEST SWAP4 POP PUSH2 0x574 DUP2 DUP6 PUSH1 0x20 DUP7 ADD PUSH2 0x525 JUMP JUMPDEST PUSH2 0x57D DUP2 PUSH2 0x2B0 JUMP JUMPDEST DUP5 ADD SWAP2 POP POP SWAP3 SWAP2 POP POP JUMP JUMPDEST PUSH2 0x591 DUP2 PUSH2 0x3EC JUMP JUMPDEST DUP3 MSTORE POP POP JUMP JUMPDEST PUSH1 0x0 PUSH1 0x40 DUP3 ADD SWAP1 POP DUP2 DUP2 SUB PUSH1 0x0 DUP4 ADD MSTORE PUSH2 0x5B1 DUP2 DUP6 PUSH2 0x54F JUMP JUMPDEST SWAP1 POP PUSH2 0x5C0 PUSH1 0x20 DUP4 ADD DUP5 PUSH2 0x588 JUMP JUMPDEST SWAP4 SWAP3 POP POP POP JUMP JUMPDEST PUSH1 0x0 PUSH1 0x20 DUP3 DUP5 SUB SLT ISZERO PUSH2 0x5DD JUMPI PUSH2 0x5DC PUSH2 0x29C JUMP JUMPDEST JUMPDEST PUSH1 0x0 PUSH2 0x5EB DUP5 DUP3 DUP6 ADD PUSH2 0x40D JUMP JUMPDEST SWAP2 POP POP SWAP3 SWAP2 POP POP JUMP JUMPDEST PUSH32 0x4E487B7100000000000000000000000000000000000000000000000000000000 PUSH1 0x0 MSTORE PUSH1 0x22 PUSH1 0x4 MSTORE PUSH1 0x24 PUSH1 0x0 REVERT JUMPDEST PUSH1 0x0 PUSH1 0x2 DUP3 DIV SWAP1 POP PUSH1 0x1 DUP3 AND DUP1 PUSH2 0x63B JUMPI PUSH1 0x7F DUP3 AND SWAP2 POP JUMPDEST PUSH1 0x20 DUP3 LT DUP2 SUB PUSH2 0x64E JUMPI PUSH2 0x64D PUSH2 0x5F4 JUMP JUMPDEST JUMPDEST POP SWAP2 SWAP1 POP JUMP JUMPDEST PUSH1 0x0 DUP2 SWAP1 POP DUP2 PUSH1 0x0 MSTORE PUSH1 0x20 PUSH1 0x0 KECCAK256 SWAP1 POP SWAP2 SWAP1 POP JUMP JUMPDEST PUSH1 0x0 PUSH1 0x20 PUSH1 0x1F DUP4 ADD DIV SWAP1 POP SWAP2 SWAP1 POP JUMP JUMPDEST PUSH1 0x0 DUP3 DUP3 SHL SWAP1 POP SWAP3 SWAP2 POP POP JUMP JUMPDEST PUSH1 0x0 PUSH1 0x8 DUP4 MUL PUSH2 0x6B6 PUSH32 0xFFFFFFFFFFFFFFFFFFFFFFFFFFFFFFFFFFFFFFFFFFFFFFFFFFFFFFFFFFFFFFFF DUP3 PUSH2 0x679 JUMP JUMPDEST PUSH2 0x6C0 DUP7 DUP4 PUSH2 0x679 JUMP JUMPDEST SWAP6 POP DUP1 NOT DUP5 AND SWAP4 POP DUP1 DUP7 AND DUP5 OR SWAP3 POP POP POP SWAP4 SWAP3 POP POP POP JUMP JUMPDEST PUSH1 0x0 DUP2 SWAP1 POP SWAP2 SWAP1 POP JUMP JUMPDEST PUSH1 0x0 PUSH2 0x6FD PUSH2 0x6F8 PUSH2 0x6F3 DUP5 PUSH2 0x3EC JUMP JUMPDEST PUSH2 0x6D8 JUMP JUMPDEST PUSH2 0x3EC JUMP JUMPDEST SWAP1 POP SWAP2 SWAP1 POP JUMP JUMPDEST PUSH1 0x0 DUP2 SWAP1 POP SWAP2 SWAP1 POP JUMP JUMPDEST PUSH2 0x717 DUP4 PUSH2 0x6E2 JUMP JUMPDEST PUSH2 0x72B PUSH2 0x723 DUP3 PUSH2 0x704 JUMP JUMPDEST DUP5 DUP5 SLOAD PUSH2 0x686 JUMP JUMPDEST DUP3 SSTORE POP POP POP POP JUMP JUMPDEST PUSH1 0x0 SWAP1 JUMP JUMPDEST PUSH2 0x740 PUSH2 0x733 JUMP JUMPDEST PUSH2 0x74B DUP2 DUP5 DUP5 PUSH2 0x70E JUMP JUMPDEST POP POP POP JUMP JUMPDEST JUMPDEST DUP2 DUP2 LT ISZERO PUSH2 0x76F JUMPI PUSH2 0x764 PUSH1 0x0 DUP3 PUSH2 0x738 JUMP JUMPDEST PUSH1 0x1 DUP2 ADD SWAP1 POP PUSH2 0x751 JUMP JUMPDEST POP POP JUMP JUMPDEST PUSH1 0x1F DUP3 GT ISZERO PUSH2 0x7B4 JUMPI PUSH2 0x785 DUP2 PUSH2 0x654 JUMP JUMPDEST PUSH2 0x78E DUP5 PUSH2 0x669 JUMP JUMPDEST DUP2 ADD PUSH1 0x20 DUP6 LT ISZERO PUSH2 0x79D JUMPI DUP2 SWAP1 POP JUMPDEST PUSH2 0x7B1 PUSH2 0x7A9 DUP6 PUSH2 0x669 JUMP JUMPDEST DUP4 ADD DUP3 PUSH2 0x750 JUMP JUMPDEST POP POP JUMPDEST POP POP POP JUMP JUMPDEST PUSH1 0x0 DUP3 DUP3 SHR SWAP1 POP SWAP3 SWAP2 POP POP JUMP JUMPDEST PUSH1 0x0 PUSH2 0x7D7 PUSH1 0x0 NOT DUP5 PUSH1 0x8 MUL PUSH2 0x7B9 JUMP JUMPDEST NOT DUP1 DUP4 AND SWAP2 POP POP SWAP3 SWAP2 POP POP JUMP JUMPDEST PUSH1 0x0 PUSH2 0x7F0 DUP4 DUP4 PUSH2 0x7C6 JUMP JUMPDEST SWAP2 POP DUP3 PUSH1 0x2 MUL DUP3 OR SWAP1 POP SWAP3 SWAP2 POP POP JUMP JUMPDEST PUSH2 0x809 DUP3 PUSH2 0x509 JUMP JUMPDEST PUSH8 0xFFFFFFFFFFFFFFFF DUP2 GT ISZERO PUSH2 0x822 JUMPI PUSH2 0x821 PUSH2 0x2C1 JUMP JUMPDEST JUMPDEST PUSH2 0x82C DUP3 SLOAD PUSH2 0x623 JUMP JUMPDEST PUSH2 0x837 DUP3 DUP3 DUP6 PUSH2 0x773 JUMP JUMPDEST PUSH1 0x0 PUSH1 0x20 SWAP1 POP PUSH1 0x1F DUP4 GT PUSH1 0x1 DUP2 EQ PUSH2 0x86A JUMPI PUSH1 0x0 DUP5 ISZERO PUSH2 0x858 JUMPI DUP3 DUP8 ADD MLOAD SWAP1 POP JUMPDEST PUSH2 0x862 DUP6 DUP3 PUSH2 0x7E4 JUMP JUMPDEST DUP7 SSTORE POP PUSH2 0x8CA JUMP JUMPDEST PUSH1 0x1F NOT DUP5 AND PUSH2 0x878 DUP7 PUSH2 0x654 JUMP JUMPDEST PUSH1 0x0 JUMPDEST DUP3 DUP2 LT ISZERO PUSH2 0x8A0 JUMPI DUP5 DUP10 ADD MLOAD DUP3 SSTORE PUSH1 0x1 DUP3 ADD SWAP2 POP PUSH1 0x20 DUP6 ADD SWAP5 POP PUSH1 0x20 DUP2 ADD SWAP1 POP PUSH2 0x87B JUMP JUMPDEST DUP7 DUP4 LT ISZERO PUSH2 0x8BD JUMPI DUP5 DUP10 ADD MLOAD PUSH2 0x8B9 PUSH1 0x1F DUP10 AND DUP3 PUSH2 0x7C6 JUMP JUMPDEST DUP4 SSTORE POP JUMPDEST PUSH1 0x1 PUSH1 0x2 DUP9 MUL ADD DUP9 SSTORE POP POP POP JUMPDEST POP POP POP POP POP POP JUMP INVALID LOG2 PUSH5 0x6970667358 0x22 SLT KECCAK256 DELEGATECALL PUSH13 0x3DC7DCDD35FACB379487E1EC9B 0xB7 0x5F MSIZE PUSH27 0xF2A71D9D6855AC344C7947AD1064736F6C63430008110033000000 "
				},
				"gasEstimates": {
					"creation": {
						"codeDepositCost": "462400",
						"executionCost": "499",
						"totalCost": "462899"
					},
					"external": {
						"addArray(string,uint256)": "infinite",
						"humanArray(uint256)": "infinite",
						"humanMapping(address)": "infinite"
					}
				},
				"methodIdentifiers": {
					"addArray(string,uint256)": "0d3de88d",
					"humanArray(uint256)": "b9d6dedb",
					"humanMapping(address)": "a857bf32"
				}
			},
			"storageLayout": {
				"storage": [
					{
						"astId": 10,
						"contract": "chapter2/Ex2_10.sol:Ex2_10",
						"label": "humanArray",
						"offset": 0,
						"slot": "0",
						"type": "t_array(t_struct(Human)6_storage)dyn_storage"
					},
					{
						"astId": 15,
						"contract": "chapter2/Ex2_10.sol:Ex2_10",
						"label": "humanMapping",
						"offset": 0,
						"slot": "1",
						"type": "t_mapping(t_address,t_struct(Human)6_storage)"
					}
				],
				"types": {
					"t_address": {
						"encoding": "inplace",
						"label": "address",
						"numberOfBytes": "20"
					},
					"t_array(t_struct(Human)6_storage)dyn_storage": {
						"base": "t_struct(Human)6_storage",
						"encoding": "dynamic_array",
						"label": "struct Ex2_10.Human[]",
						"numberOfBytes": "32"
					},
					"t_mapping(t_address,t_struct(Human)6_storage)": {
						"encoding": "mapping",
						"key": "t_address",
						"label": "mapping(address => struct Ex2_10.Human)",
						"numberOfBytes": "32",
						"value": "t_struct(Human)6_storage"
					},
					"t_string_storage": {
						"encoding": "bytes",
						"label": "string",
						"numberOfBytes": "32"
					},
					"t_struct(Human)6_storage": {
						"encoding": "inplace",
						"label": "struct Ex2_10.Human",
						"members": [
							{
								"astId": 3,
								"contract": "chapter2/Ex2_10.sol:Ex2_10",
								"label": "name",
								"offset": 0,
								"slot": "0",
								"type": "t_string_storage"
							},
							{
								"astId": 5,
								"contract": "chapter2/Ex2_10.sol:Ex2_10",
								"label": "age",
								"offset": 0,
								"slot": "1",
								"type": "t_uint256"
							}
						],
						"numberOfBytes": "64"
					},
					"t_uint256": {
						"encoding": "inplace",
						"label": "uint256",
						"numberOfBytes": "32"
					}
				}
			},
			"userdoc": {
				"kind": "user",
				"methods": {},
				"version": 1
			}
		}
	}
}