{
	"chapter2/Ex2_10.sol": {
		"Caller": {
			"abi": [
				{
					"inputs": [],
					"name": "changeNumber",
					"outputs": [],
					"stateMutability": "nonpayable",
					"type": "function"
				}
			],
			"devdoc": {
				"kind": "dev",
				"methods": {},
				"version": 1
			},
			"evm": {
				"assembly": "    /* \"chapter2/Ex2_10.sol\":250:387  contract Caller {... */\n  mstore(0x40, 0x80)\n    /* \"chapter2/Ex2_10.sol\":299:311  new Number() */\n  mload(0x40)\n  tag_1\n  swap1\n  tag_2\n  jump\t// in\ntag_1:\n  mload(0x40)\n  dup1\n  swap2\n  sub\n  swap1\n  0x00\n  create\n  dup1\n  iszero\n  dup1\n  iszero\n  tag_3\n  jumpi\n  returndatasize\n  0x00\n  dup1\n  returndatacopy\n  revert(0x00, returndatasize)\ntag_3:\n  pop\n    /* \"chapter2/Ex2_10.sol\":272:311  Number internal instance = new Number() */\n  0x00\n  dup1\n  0x0100\n  exp\n  dup2\n  sload\n  dup2\n  0xffffffffffffffffffffffffffffffffffffffff\n  mul\n  not\n  and\n  swap1\n  dup4\n  0xffffffffffffffffffffffffffffffffffffffff\n  and\n  mul\n  or\n  swap1\n  sstore\n  pop\n    /* \"chapter2/Ex2_10.sol\":250:387  contract Caller {... */\n  callvalue\n  dup1\n  iszero\n  tag_4\n  jumpi\n  0x00\n  dup1\n  revert\ntag_4:\n  pop\n  jump(tag_5)\ntag_2:\n  dataSize(sub_1)\n  dup1\n  dataOffset(sub_1)\n  dup4\n  codecopy\n  add\n  swap1\n  jump\t// out\ntag_5:\n  dataSize(sub_0)\n  dup1\n  dataOffset(sub_0)\n  0x00\n  codecopy\n  0x00\n  return\nstop\n\nsub_0: assembly {\n        /* \"chapter2/Ex2_10.sol\":250:387  contract Caller {... */\n      mstore(0x40, 0x80)\n      callvalue\n      dup1\n      iszero\n      tag_1\n      jumpi\n      0x00\n      dup1\n      revert\n    tag_1:\n      pop\n      jumpi(tag_2, lt(calldatasize, 0x04))\n      shr(0xe0, calldataload(0x00))\n      dup1\n      0xc967aa5e\n      eq\n      tag_3\n      jumpi\n    tag_2:\n      0x00\n      dup1\n      revert\n        /* \"chapter2/Ex2_10.sol\":317:385  function changeNumber() public {... */\n    tag_3:\n      tag_4\n      tag_5\n      jump\t// in\n    tag_4:\n      stop\n    tag_5:\n        /* \"chapter2/Ex2_10.sol\":358:366  instance */\n      0x00\n      dup1\n      sload\n      swap1\n      0x0100\n      exp\n      swap1\n      div\n      0xffffffffffffffffffffffffffffffffffffffff\n      and\n        /* \"chapter2/Ex2_10.sol\":358:376  instance.changeNum */\n      0xffffffffffffffffffffffffffffffffffffffff\n      and\n      0x2966c024\n        /* \"chapter2/Ex2_10.sol\":358:378  instance.changeNum() */\n      mload(0x40)\n      dup2\n      0xffffffff\n      and\n      0xe0\n      shl\n      dup2\n      mstore\n      0x04\n      add\n      0x00\n      mload(0x40)\n      dup1\n      dup4\n      sub\n      dup2\n      0x00\n      dup8\n      dup1\n      extcodesize\n      iszero\n      dup1\n      iszero\n      tag_7\n      jumpi\n      0x00\n      dup1\n      revert\n    tag_7:\n      pop\n      gas\n      call\n      iszero\n      dup1\n      iszero\n      tag_9\n      jumpi\n      returndatasize\n      0x00\n      dup1\n      returndatacopy\n      revert(0x00, returndatasize)\n    tag_9:\n      pop\n      pop\n      pop\n      pop\n        /* \"chapter2/Ex2_10.sol\":317:385  function changeNumber() public {... */\n      jump\t// out\n\n    auxdata: 0xa264697066735822122001d7de5d4cb3b0b602deabc824bdaef2d55a6360ce5771ecb6ea90ba4c6f732064736f6c63430008110033\n}\n\nsub_1: assembly {\n        /* \"chapter2/Ex2_10.sol\":70:248  contract Number {... */\n      mstore(0x40, 0x80)\n        /* \"chapter2/Ex2_10.sol\":111:112  4 */\n      0x04\n        /* \"chapter2/Ex2_10.sol\":92:112  uint private num = 4 */\n      0x00\n      sstore\n        /* \"chapter2/Ex2_10.sol\":70:248  contract Number {... */\n      callvalue\n      dup1\n      iszero\n      tag_1\n      jumpi\n      0x00\n      dup1\n      revert\n    tag_1:\n      pop\n      dataSize(sub_0)\n      dup1\n      dataOffset(sub_0)\n      0x00\n      codecopy\n      0x00\n      return\n    stop\n\n    sub_0: assembly {\n            /* \"chapter2/Ex2_10.sol\":70:248  contract Number {... */\n          mstore(0x40, 0x80)\n          callvalue\n          dup1\n          iszero\n          tag_1\n          jumpi\n          0x00\n          dup1\n          revert\n        tag_1:\n          pop\n          jumpi(tag_2, lt(calldatasize, 0x04))\n          shr(0xe0, calldataload(0x00))\n          dup1\n          0x2966c024\n          eq\n          tag_3\n          jumpi\n          dup1\n          0x67e0badb\n          eq\n          tag_4\n          jumpi\n        tag_2:\n          0x00\n          dup1\n          revert\n            /* \"chapter2/Ex2_10.sol\":118:170  function changeNum() public {... */\n        tag_3:\n          tag_5\n          tag_6\n          jump\t// in\n        tag_5:\n          stop\n            /* \"chapter2/Ex2_10.sol\":175:246  function getNum() public view returns(uint) {... */\n        tag_4:\n          tag_7\n          tag_8\n          jump\t// in\n        tag_7:\n          mload(0x40)\n          tag_9\n          swap2\n          swap1\n          tag_10\n          jump\t// in\n        tag_9:\n          mload(0x40)\n          dup1\n          swap2\n          sub\n          swap1\n          return\n            /* \"chapter2/Ex2_10.sol\":118:170  function changeNum() public {... */\n        tag_6:\n            /* \"chapter2/Ex2_10.sol\":162:163  5 */\n          0x05\n            /* \"chapter2/Ex2_10.sol\":156:159  num */\n          0x00\n            /* \"chapter2/Ex2_10.sol\":156:163  num = 5 */\n          dup2\n          swap1\n          sstore\n          pop\n            /* \"chapter2/Ex2_10.sol\":118:170  function changeNum() public {... */\n          jump\t// out\n            /* \"chapter2/Ex2_10.sol\":175:246  function getNum() public view returns(uint) {... */\n        tag_8:\n            /* \"chapter2/Ex2_10.sol\":213:217  uint */\n          0x00\n            /* \"chapter2/Ex2_10.sol\":236:239  num */\n          dup1\n          sload\n            /* \"chapter2/Ex2_10.sol\":229:239  return num */\n          swap1\n          pop\n            /* \"chapter2/Ex2_10.sol\":175:246  function getNum() public view returns(uint) {... */\n          swap1\n          jump\t// out\n            /* \"#utility.yul\":7:84   */\n        tag_13:\n            /* \"#utility.yul\":44:51   */\n          0x00\n            /* \"#utility.yul\":73:78   */\n          dup2\n            /* \"#utility.yul\":62:78   */\n          swap1\n          pop\n            /* \"#utility.yul\":7:84   */\n          swap2\n          swap1\n          pop\n          jump\t// out\n            /* \"#utility.yul\":90:208   */\n        tag_14:\n            /* \"#utility.yul\":177:201   */\n          tag_18\n            /* \"#utility.yul\":195:200   */\n          dup2\n            /* \"#utility.yul\":177:201   */\n          tag_13\n          jump\t// in\n        tag_18:\n            /* \"#utility.yul\":172:175   */\n          dup3\n            /* \"#utility.yul\":165:202   */\n          mstore\n            /* \"#utility.yul\":90:208   */\n          pop\n          pop\n          jump\t// out\n            /* \"#utility.yul\":214:436   */\n        tag_10:\n            /* \"#utility.yul\":307:311   */\n          0x00\n            /* \"#utility.yul\":345:347   */\n          0x20\n            /* \"#utility.yul\":334:343   */\n          dup3\n            /* \"#utility.yul\":330:348   */\n          add\n            /* \"#utility.yul\":322:348   */\n          swap1\n          pop\n            /* \"#utility.yul\":358:429   */\n          tag_20\n            /* \"#utility.yul\":426:427   */\n          0x00\n            /* \"#utility.yul\":415:424   */\n          dup4\n            /* \"#utility.yul\":411:428   */\n          add\n            /* \"#utility.yul\":402:408   */\n          dup5\n            /* \"#utility.yul\":358:429   */\n          tag_14\n          jump\t// in\n        tag_20:\n            /* \"#utility.yul\":214:436   */\n          swap3\n          swap2\n          pop\n          pop\n          jump\t// out\n\n        auxdata: 0xa26469706673582212202d901fcc5018beb1d8620857db0b3310d64dbd39321fc5da7f9a3bf70971fe9164736f6c63430008110033\n    }\n}\n",
				"bytecode": {
					"linkReferences": {},
					"object": "60806040526040516100109061007e565b604051809103906000f08015801561002c573d6000803e3d6000fd5b506000806101000a81548173ffffffffffffffffffffffffffffffffffffffff021916908373ffffffffffffffffffffffffffffffffffffffff16021790555034801561007857600080fd5b5061008a565b60f68061018383390190565b60eb806100986000396000f3fe6080604052348015600f57600080fd5b506004361060285760003560e01c8063c967aa5e14602d575b600080fd5b60336035565b005b60008054906101000a900473ffffffffffffffffffffffffffffffffffffffff1673ffffffffffffffffffffffffffffffffffffffff16632966c0246040518163ffffffff1660e01b8152600401600060405180830381600087803b158015609c57600080fd5b505af115801560af573d6000803e3d6000fd5b5050505056fea264697066735822122001d7de5d4cb3b0b602deabc824bdaef2d55a6360ce5771ecb6ea90ba4c6f732064736f6c634300081100336080604052600460005534801561001557600080fd5b5060d2806100246000396000f3fe6080604052348015600f57600080fd5b506004361060325760003560e01c80632966c02414603757806367e0badb14603f575b600080fd5b603d6059565b005b60456063565b604051605091906083565b60405180910390f35b6005600081905550565b60008054905090565b6000819050919050565b607d81606c565b82525050565b6000602082019050609660008301846076565b9291505056fea26469706673582212202d901fcc5018beb1d8620857db0b3310d64dbd39321fc5da7f9a3bf70971fe9164736f6c63430008110033",
					"opcodes": "PUSH1 0x80 PUSH1 0x40 MSTORE PUSH1 0x40 MLOAD PUSH2 0x10 SWAP1 PUSH2 0x7E JUMP JUMPDEST PUSH1 0x40 MLOAD DUP1 SWAP2 SUB SWAP1 PUSH1 0x0 CREATE DUP1 ISZERO DUP1 ISZERO PUSH2 0x2C JUMPI RETURNDATASIZE PUSH1 0x0 DUP1 RETURNDATACOPY RETURNDATASIZE PUSH1 0x0 REVERT JUMPDEST POP PUSH1 0x0 DUP1 PUSH2 0x100 EXP DUP2 SLOAD DUP2 PUSH20 0xFFFFFFFFFFFFFFFFFFFFFFFFFFFFFFFFFFFFFFFF MUL NOT AND SWAP1 DUP4 PUSH20 0xFFFFFFFFFFFFFFFFFFFFFFFFFFFFFFFFFFFFFFFF AND MUL OR SWAP1 SSTORE POP CALLVALUE DUP1 ISZERO PUSH2 0x78 JUMPI PUSH1 0x0 DUP1 REVERT JUMPDEST POP PUSH2 0x8A JUMP JUMPDEST PUSH1 0xF6 DUP1 PUSH2 0x183 DUP4 CODECOPY ADD SWAP1 JUMP JUMPDEST PUSH1 0xEB DUP1 PUSH2 0x98 PUSH1 0x0 CODECOPY PUSH1 0x0 RETURN INVALID PUSH1 0x80 PUSH1 0x40 MSTORE CALLVALUE DUP1 ISZERO PUSH1 0xF JUMPI PUSH1 0x0 DUP1 REVERT JUMPDEST POP PUSH1 0x4 CALLDATASIZE LT PUSH1 0x28 JUMPI PUSH1 0x0 CALLDATALOAD PUSH1 0xE0 SHR DUP1 PUSH4 0xC967AA5E EQ PUSH1 0x2D JUMPI JUMPDEST PUSH1 0x0 DUP1 REVERT JUMPDEST PUSH1 0x33 PUSH1 0x35 JUMP JUMPDEST STOP JUMPDEST PUSH1 0x0 DUP1 SLOAD SWAP1 PUSH2 0x100 EXP SWAP1 DIV PUSH20 0xFFFFFFFFFFFFFFFFFFFFFFFFFFFFFFFFFFFFFFFF AND PUSH20 0xFFFFFFFFFFFFFFFFFFFFFFFFFFFFFFFFFFFFFFFF AND PUSH4 0x2966C024 PUSH1 0x40 MLOAD DUP2 PUSH4 0xFFFFFFFF AND PUSH1 0xE0 SHL DUP2 MSTORE PUSH1 0x4 ADD PUSH1 0x0 PUSH1 0x40 MLOAD DUP1 DUP4 SUB DUP2 PUSH1 0x0 DUP8 DUP1 EXTCODESIZE ISZERO DUP1 ISZERO PUSH1 0x9C JUMPI PUSH1 0x0 DUP1 REVERT JUMPDEST POP GAS CALL ISZERO DUP1 ISZERO PUSH1 0xAF JUMPI RETURNDATASIZE PUSH1 0x0 DUP1 RETURNDATACOPY RETURNDATASIZE PUSH1 0x0 REVERT JUMPDEST POP POP POP POP JUMP INVALID LOG2 PUSH5 0x6970667358 0x22 SLT KECCAK256 ADD 0xD7 0xDE 0x5D 0x4C 0xB3 0xB0 0xB6 MUL 0xDE 0xAB 0xC8 0x24 0xBD 0xAE CALLCODE 0xD5 GAS PUSH4 0x60CE5771 0xEC 0xB6 0xEA SWAP1 0xBA 0x4C PUSH16 0x732064736F6C63430008110033608060 BLOCKHASH MSTORE PUSH1 0x4 PUSH1 0x0 SSTORE CALLVALUE DUP1 ISZERO PUSH2 0x15 JUMPI PUSH1 0x0 DUP1 REVERT JUMPDEST POP PUSH1 0xD2 DUP1 PUSH2 0x24 PUSH1 0x0 CODECOPY PUSH1 0x0 RETURN INVALID PUSH1 0x80 PUSH1 0x40 MSTORE CALLVALUE DUP1 ISZERO PUSH1 0xF JUMPI PUSH1 0x0 DUP1 REVERT JUMPDEST POP PUSH1 0x4 CALLDATASIZE LT PUSH1 0x32 JUMPI PUSH1 0x0 CALLDATALOAD PUSH1 0xE0 SHR DUP1 PUSH4 0x2966C024 EQ PUSH1 0x37 JUMPI DUP1 PUSH4 0x67E0BADB EQ PUSH1 0x3F JUMPI JUMPDEST PUSH1 0x0 DUP1 REVERT JUMPDEST PUSH1 0x3D PUSH1 0x59 JUMP JUMPDEST STOP JUMPDEST PUSH1 0x45 PUSH1 0x63 JUMP JUMPDEST PUSH1 0x40 MLOAD PUSH1 0x50 SWAP2 SWAP1 PUSH1 0x83 JUMP JUMPDEST PUSH1 0x40 MLOAD DUP1 SWAP2 SUB SWAP1 RETURN JUMPDEST PUSH1 0x5 PUSH1 0x0 DUP2 SWAP1 SSTORE POP JUMP JUMPDEST PUSH1 0x0 DUP1 SLOAD SWAP1 POP SWAP1 JUMP JUMPDEST PUSH1 0x0 DUP2 SWAP1 POP SWAP2 SWAP1 POP JUMP JUMPDEST PUSH1 0x7D DUP2 PUSH1 0x6C JUMP JUMPDEST DUP3 MSTORE POP POP JUMP JUMPDEST PUSH1 0x0 PUSH1 0x20 DUP3 ADD SWAP1 POP PUSH1 0x96 PUSH1 0x0 DUP4 ADD DUP5 PUSH1 0x76 JUMP JUMPDEST SWAP3 SWAP2 POP POP JUMP INVALID LOG2 PUSH5 0x6970667358 0x22 SLT KECCAK256 0x2D SWAP1 0x1F 0xCC POP XOR 0xBE 0xB1 0xD8 PUSH3 0x857DB SIGNEXTEND CALLER LT 0xD6 0x4D 0xBD CODECOPY ORIGIN 0x1F 0xC5 0xDA PUSH32 0x9A3BF70971FE9164736F6C634300081100330000000000000000000000000000 "
				},
				"gasEstimates": {
					"creation": {
						"codeDepositCost": "47000",
						"executionCost": "infinite",
						"totalCost": "infinite"
					},
					"external": {
						"changeNumber()": "infinite"
					}
				},
				"methodIdentifiers": {
					"changeNumber()": "c967aa5e"
				}
			},
			"storageLayout": {
				"storage": [
					{
						"astId": 28,
						"contract": "chapter2/Ex2_10.sol:Caller",
						"label": "instance",
						"offset": 0,
						"slot": "0",
						"type": "t_contract(Number)21"
					}
				],
				"types": {
					"t_contract(Number)21": {
						"encoding": "inplace",
						"label": "contract Number",
						"numberOfBytes": "20"
					}
				}
			},
			"userdoc": {
				"kind": "user",
				"methods": {},
				"version": 1
			}
		}
	}
}