{
	"chapter2/Random.sol": {
		"Random": {
			"abi": [
				{
					"inputs": [
						{
							"internalType": "string",
							"name": "_key1",
							"type": "string"
						},
						{
							"internalType": "uint256",
							"name": "_key2",
							"type": "uint256"
						}
					],
					"stateMutability": "nonpayable",
					"type": "constructor"
				},
				{
					"anonymous": false,
					"inputs": [
						{
							"indexed": true,
							"internalType": "address",
							"name": "sender",
							"type": "address"
						},
						{
							"indexed": false,
							"internalType": "uint256",
							"name": "payment",
							"type": "uint256"
						}
					],
					"name": "PaidAddress",
					"type": "event"
				},
				{
					"anonymous": false,
					"inputs": [
						{
							"indexed": true,
							"internalType": "address",
							"name": "winner",
							"type": "address"
						}
					],
					"name": "WinnerAddress",
					"type": "event"
				},
				{
					"inputs": [],
					"name": "owner",
					"outputs": [
						{
							"internalType": "address",
							"name": "",
							"type": "address"
						}
					],
					"stateMutability": "view",
					"type": "function"
				},
				{
					"inputs": [
						{
							"internalType": "uint256",
							"name": "",
							"type": "uint256"
						},
						{
							"internalType": "address",
							"name": "",
							"type": "address"
						}
					],
					"name": "paidAddressList",
					"outputs": [
						{
							"internalType": "bool",
							"name": "",
							"type": "bool"
						}
					],
					"stateMutability": "view",
					"type": "function"
				},
				{
					"inputs": [],
					"name": "playNumber",
					"outputs": [
						{
							"internalType": "uint256",
							"name": "",
							"type": "uint256"
						}
					],
					"stateMutability": "view",
					"type": "function"
				},
				{
					"inputs": [],
					"name": "round",
					"outputs": [
						{
							"internalType": "uint256",
							"name": "",
							"type": "uint256"
						}
					],
					"stateMutability": "view",
					"type": "function"
				},
				{
					"stateMutability": "payable",
					"type": "receive"
				}
			],
			"devdoc": {
				"kind": "dev",
				"methods": {},
				"version": 1
			},
			"evm": {
				"assembly": "    /* \"chapter2/Random.sol\":70:1500  contract Random {... */\n  mstore(0x40, 0x80)\n    /* \"chapter2/Random.sol\":452:453  0 */\n  0x00\n    /* \"chapter2/Random.sol\":424:453  uint private winnerNumber = 0 */\n  0x02\n  sstore\n    /* \"chapter2/Random.sol\":528:529  1 */\n  0x01\n    /* \"chapter2/Random.sol\":508:529  uint public round = 1 */\n  0x05\n  sstore\n    /* \"chapter2/Random.sol\":560:561  0 */\n  0x00\n    /* \"chapter2/Random.sol\":535:561  uint public playNumber = 0 */\n  0x06\n  sstore\n    /* \"chapter2/Random.sol\":568:731  constructor(string memory _key1, uint _key2) {... */\n  callvalue\n  dup1\n  iszero\n  tag_1\n  jumpi\n  0x00\n  dup1\n  revert\ntag_1:\n  pop\n  mload(0x40)\n  sub(codesize, bytecodeSize)\n  dup1\n  bytecodeSize\n  dup4\n  codecopy\n  dup2\n  dup2\n  add\n  0x40\n  mstore\n  dup2\n  add\n  swap1\n  tag_2\n  swap2\n  swap1\n  tag_3\n  jump\t// in\ntag_2:\n    /* \"chapter2/Random.sol\":631:641  msg.sender */\n  caller\n    /* \"chapter2/Random.sol\":623:628  owner */\n  0x01\n  0x00\n    /* \"chapter2/Random.sol\":623:641  owner = msg.sender */\n  0x0100\n  exp\n  dup2\n  sload\n  dup2\n  0xffffffffffffffffffffffffffffffffffffffff\n  mul\n  not\n  and\n  swap1\n  dup4\n  0xffffffffffffffffffffffffffffffffffffffff\n  and\n  mul\n  or\n  swap1\n  sstore\n  pop\n    /* \"chapter2/Random.sol\":658:663  _key1 */\n  dup2\n    /* \"chapter2/Random.sol\":651:655  key1 */\n  0x03\n    /* \"chapter2/Random.sol\":651:663  key1 = _key1 */\n  swap1\n  dup2\n  tag_6\n  swap2\n  swap1\n  tag_7\n  jump\t// in\ntag_6:\n  pop\n    /* \"chapter2/Random.sol\":680:685  _key2 */\n  dup1\n    /* \"chapter2/Random.sol\":673:677  key2 */\n  0x04\n    /* \"chapter2/Random.sol\":673:685  key2 = _key2 */\n  dup2\n  swap1\n  sstore\n  pop\n    /* \"chapter2/Random.sol\":710:724  randomNumber() */\n  tag_8\n    /* \"chapter2/Random.sol\":710:722  randomNumber */\n  shl(0x20, tag_9)\n    /* \"chapter2/Random.sol\":710:724  randomNumber() */\n  0x20\n  shr\n  jump\t// in\ntag_8:\n    /* \"chapter2/Random.sol\":695:707  winnerNumber */\n  0x02\n    /* \"chapter2/Random.sol\":695:724  winnerNumber = randomNumber() */\n  dup2\n  swap1\n  sstore\n  pop\n    /* \"chapter2/Random.sol\":568:731  constructor(string memory _key1, uint _key2) {... */\n  pop\n  pop\n    /* \"chapter2/Random.sol\":70:1500  contract Random {... */\n  jump(tag_10)\n    /* \"chapter2/Random.sol\":1289:1492  function randomNumber() private view returns(uint) {... */\ntag_9:\n    /* \"chapter2/Random.sol\":1334:1338  uint */\n  0x00\n    /* \"chapter2/Random.sol\":1350:1358  uint num */\n  dup1\n    /* \"chapter2/Random.sol\":1425:1437  block.number */\n  number\n    /* \"chapter2/Random.sol\":1405:1420  block.timestamp */\n  timestamp\n    /* \"chapter2/Random.sol\":1397:1401  key2 */\n  sload(0x04)\n    /* \"chapter2/Random.sol\":1387:1391  key1 */\n  0x03\n    /* \"chapter2/Random.sol\":1376:1392  abi.encode(key1) */\n  add(0x20, mload(0x40))\n  tag_12\n  swap2\n  swap1\n  tag_13\n  jump\t// in\ntag_12:\n  mload(0x40)\n  0x20\n  dup2\n  dup4\n  sub\n  sub\n  dup2\n  mstore\n  swap1\n  0x40\n  mstore\n    /* \"chapter2/Random.sol\":1366:1393  keccak256(abi.encode(key1)) */\n  dup1\n  mload\n  swap1\n  0x20\n  add\n  keccak256\n    /* \"chapter2/Random.sol\":1361:1394  uint(keccak256(abi.encode(key1))) */\n  0x00\n  shr\n    /* \"chapter2/Random.sol\":1361:1401  uint(keccak256(abi.encode(key1))) + key2 */\n  tag_14\n  swap2\n  swap1\n  tag_15\n  jump\t// in\ntag_14:\n    /* \"chapter2/Random.sol\":1361:1421  uint(keccak256(abi.encode(key1))) + key2 + (block.timestamp) */\n  tag_16\n  swap2\n  swap1\n  tag_15\n  jump\t// in\ntag_16:\n    /* \"chapter2/Random.sol\":1361:1438  uint(keccak256(abi.encode(key1))) + key2 + (block.timestamp) + (block.number) */\n  tag_17\n  swap2\n  swap1\n  tag_15\n  jump\t// in\ntag_17:\n    /* \"chapter2/Random.sol\":1350:1438  uint num = uint(keccak256(abi.encode(key1))) + key2 + (block.timestamp) + (block.number) */\n  swap1\n  pop\n    /* \"chapter2/Random.sol\":1484:1485  1 */\n  0x01\n    /* \"chapter2/Random.sol\":1477:1479  10 */\n  0x0a\n    /* \"chapter2/Random.sol\":1471:1473  10 */\n  dup1\n    /* \"chapter2/Random.sol\":1465:1468  num */\n  dup4\n    /* \"chapter2/Random.sol\":1465:1473  num / 10 */\n  tag_18\n  swap2\n  swap1\n  tag_19\n  jump\t// in\ntag_18:\n    /* \"chapter2/Random.sol\":1464:1479  (num / 10) * 10 */\n  tag_20\n  swap2\n  swap1\n  tag_21\n  jump\t// in\ntag_20:\n    /* \"chapter2/Random.sol\":1457:1460  num */\n  dup3\n    /* \"chapter2/Random.sol\":1457:1480  num - ((num / 10) * 10) */\n  tag_22\n  swap2\n  swap1\n  tag_23\n  jump\t// in\ntag_22:\n    /* \"chapter2/Random.sol\":1456:1485  (num - ((num / 10) * 10)) + 1 */\n  tag_24\n  swap2\n  swap1\n  tag_15\n  jump\t// in\ntag_24:\n    /* \"chapter2/Random.sol\":1449:1485  return (num - ((num / 10) * 10)) + 1 */\n  swap2\n  pop\n  pop\n    /* \"chapter2/Random.sol\":1289:1492  function randomNumber() private view returns(uint) {... */\n  swap1\n  jump\t// out\n    /* \"#utility.yul\":7:82   */\ntag_25:\n    /* \"#utility.yul\":40:46   */\n  0x00\n    /* \"#utility.yul\":73:75   */\n  0x40\n    /* \"#utility.yul\":67:76   */\n  mload\n    /* \"#utility.yul\":57:76   */\n  swap1\n  pop\n    /* \"#utility.yul\":7:82   */\n  swap1\n  jump\t// out\n    /* \"#utility.yul\":88:205   */\ntag_26:\n    /* \"#utility.yul\":197:198   */\n  0x00\n    /* \"#utility.yul\":194:195   */\n  dup1\n    /* \"#utility.yul\":187:199   */\n  revert\n    /* \"#utility.yul\":211:328   */\ntag_27:\n    /* \"#utility.yul\":320:321   */\n  0x00\n    /* \"#utility.yul\":317:318   */\n  dup1\n    /* \"#utility.yul\":310:322   */\n  revert\n    /* \"#utility.yul\":334:451   */\ntag_28:\n    /* \"#utility.yul\":443:444   */\n  0x00\n    /* \"#utility.yul\":440:441   */\n  dup1\n    /* \"#utility.yul\":433:445   */\n  revert\n    /* \"#utility.yul\":457:574   */\ntag_29:\n    /* \"#utility.yul\":566:567   */\n  0x00\n    /* \"#utility.yul\":563:564   */\n  dup1\n    /* \"#utility.yul\":556:568   */\n  revert\n    /* \"#utility.yul\":580:682   */\ntag_30:\n    /* \"#utility.yul\":621:627   */\n  0x00\n    /* \"#utility.yul\":672:674   */\n  0x1f\n    /* \"#utility.yul\":668:675   */\n  not\n    /* \"#utility.yul\":663:665   */\n  0x1f\n    /* \"#utility.yul\":656:661   */\n  dup4\n    /* \"#utility.yul\":652:666   */\n  add\n    /* \"#utility.yul\":648:676   */\n  and\n    /* \"#utility.yul\":638:676   */\n  swap1\n  pop\n    /* \"#utility.yul\":580:682   */\n  swap2\n  swap1\n  pop\n  jump\t// out\n    /* \"#utility.yul\":688:868   */\ntag_31:\n    /* \"#utility.yul\":736:813   */\n  0x4e487b7100000000000000000000000000000000000000000000000000000000\n    /* \"#utility.yul\":733:734   */\n  0x00\n    /* \"#utility.yul\":726:814   */\n  mstore\n    /* \"#utility.yul\":833:837   */\n  0x41\n    /* \"#utility.yul\":830:831   */\n  0x04\n    /* \"#utility.yul\":823:838   */\n  mstore\n    /* \"#utility.yul\":857:861   */\n  0x24\n    /* \"#utility.yul\":854:855   */\n  0x00\n    /* \"#utility.yul\":847:862   */\n  revert\n    /* \"#utility.yul\":874:1155   */\ntag_32:\n    /* \"#utility.yul\":957:984   */\n  tag_72\n    /* \"#utility.yul\":979:983   */\n  dup3\n    /* \"#utility.yul\":957:984   */\n  tag_30\n  jump\t// in\ntag_72:\n    /* \"#utility.yul\":949:955   */\n  dup2\n    /* \"#utility.yul\":945:985   */\n  add\n    /* \"#utility.yul\":1087:1093   */\n  dup2\n    /* \"#utility.yul\":1075:1085   */\n  dup2\n    /* \"#utility.yul\":1072:1094   */\n  lt\n    /* \"#utility.yul\":1051:1069   */\n  0xffffffffffffffff\n    /* \"#utility.yul\":1039:1049   */\n  dup3\n    /* \"#utility.yul\":1036:1070   */\n  gt\n    /* \"#utility.yul\":1033:1095   */\n  or\n    /* \"#utility.yul\":1030:1118   */\n  iszero\n  tag_73\n  jumpi\n    /* \"#utility.yul\":1098:1116   */\n  tag_74\n  tag_31\n  jump\t// in\ntag_74:\n    /* \"#utility.yul\":1030:1118   */\ntag_73:\n    /* \"#utility.yul\":1138:1148   */\n  dup1\n    /* \"#utility.yul\":1134:1136   */\n  0x40\n    /* \"#utility.yul\":1127:1149   */\n  mstore\n    /* \"#utility.yul\":917:1155   */\n  pop\n    /* \"#utility.yul\":874:1155   */\n  pop\n  pop\n  jump\t// out\n    /* \"#utility.yul\":1161:1290   */\ntag_33:\n    /* \"#utility.yul\":1195:1201   */\n  0x00\n    /* \"#utility.yul\":1222:1242   */\n  tag_76\n  tag_25\n  jump\t// in\ntag_76:\n    /* \"#utility.yul\":1212:1242   */\n  swap1\n  pop\n    /* \"#utility.yul\":1251:1284   */\n  tag_77\n    /* \"#utility.yul\":1279:1283   */\n  dup3\n    /* \"#utility.yul\":1271:1277   */\n  dup3\n    /* \"#utility.yul\":1251:1284   */\n  tag_32\n  jump\t// in\ntag_77:\n    /* \"#utility.yul\":1161:1290   */\n  swap2\n  swap1\n  pop\n  jump\t// out\n    /* \"#utility.yul\":1296:1604   */\ntag_34:\n    /* \"#utility.yul\":1358:1362   */\n  0x00\n    /* \"#utility.yul\":1448:1466   */\n  0xffffffffffffffff\n    /* \"#utility.yul\":1440:1446   */\n  dup3\n    /* \"#utility.yul\":1437:1467   */\n  gt\n    /* \"#utility.yul\":1434:1490   */\n  iszero\n  tag_79\n  jumpi\n    /* \"#utility.yul\":1470:1488   */\n  tag_80\n  tag_31\n  jump\t// in\ntag_80:\n    /* \"#utility.yul\":1434:1490   */\ntag_79:\n    /* \"#utility.yul\":1508:1537   */\n  tag_81\n    /* \"#utility.yul\":1530:1536   */\n  dup3\n    /* \"#utility.yul\":1508:1537   */\n  tag_30\n  jump\t// in\ntag_81:\n    /* \"#utility.yul\":1500:1537   */\n  swap1\n  pop\n    /* \"#utility.yul\":1592:1596   */\n  0x20\n    /* \"#utility.yul\":1586:1590   */\n  dup2\n    /* \"#utility.yul\":1582:1597   */\n  add\n    /* \"#utility.yul\":1574:1597   */\n  swap1\n  pop\n    /* \"#utility.yul\":1296:1604   */\n  swap2\n  swap1\n  pop\n  jump\t// out\n    /* \"#utility.yul\":1610:1856   */\ntag_35:\n    /* \"#utility.yul\":1691:1692   */\n  0x00\n    /* \"#utility.yul\":1701:1814   */\ntag_83:\n    /* \"#utility.yul\":1715:1721   */\n  dup4\n    /* \"#utility.yul\":1712:1713   */\n  dup2\n    /* \"#utility.yul\":1709:1722   */\n  lt\n    /* \"#utility.yul\":1701:1814   */\n  iszero\n  tag_85\n  jumpi\n    /* \"#utility.yul\":1800:1801   */\n  dup1\n    /* \"#utility.yul\":1795:1798   */\n  dup3\n    /* \"#utility.yul\":1791:1802   */\n  add\n    /* \"#utility.yul\":1785:1803   */\n  mload\n    /* \"#utility.yul\":1781:1782   */\n  dup2\n    /* \"#utility.yul\":1776:1779   */\n  dup5\n    /* \"#utility.yul\":1772:1783   */\n  add\n    /* \"#utility.yul\":1765:1804   */\n  mstore\n    /* \"#utility.yul\":1737:1739   */\n  0x20\n    /* \"#utility.yul\":1734:1735   */\n  dup2\n    /* \"#utility.yul\":1730:1740   */\n  add\n    /* \"#utility.yul\":1725:1740   */\n  swap1\n  pop\n    /* \"#utility.yul\":1701:1814   */\n  jump(tag_83)\ntag_85:\n    /* \"#utility.yul\":1848:1849   */\n  0x00\n    /* \"#utility.yul\":1839:1845   */\n  dup5\n    /* \"#utility.yul\":1834:1837   */\n  dup5\n    /* \"#utility.yul\":1830:1846   */\n  add\n    /* \"#utility.yul\":1823:1850   */\n  mstore\n    /* \"#utility.yul\":1672:1856   */\n  pop\n    /* \"#utility.yul\":1610:1856   */\n  pop\n  pop\n  pop\n  jump\t// out\n    /* \"#utility.yul\":1862:2296   */\ntag_36:\n    /* \"#utility.yul\":1951:1956   */\n  0x00\n    /* \"#utility.yul\":1976:2042   */\n  tag_87\n    /* \"#utility.yul\":1992:2041   */\n  tag_88\n    /* \"#utility.yul\":2034:2040   */\n  dup5\n    /* \"#utility.yul\":1992:2041   */\n  tag_34\n  jump\t// in\ntag_88:\n    /* \"#utility.yul\":1976:2042   */\n  tag_33\n  jump\t// in\ntag_87:\n    /* \"#utility.yul\":1967:2042   */\n  swap1\n  pop\n    /* \"#utility.yul\":2065:2071   */\n  dup3\n    /* \"#utility.yul\":2058:2063   */\n  dup2\n    /* \"#utility.yul\":2051:2072   */\n  mstore\n    /* \"#utility.yul\":2103:2107   */\n  0x20\n    /* \"#utility.yul\":2096:2101   */\n  dup2\n    /* \"#utility.yul\":2092:2108   */\n  add\n    /* \"#utility.yul\":2141:2144   */\n  dup5\n    /* \"#utility.yul\":2132:2138   */\n  dup5\n    /* \"#utility.yul\":2127:2130   */\n  dup5\n    /* \"#utility.yul\":2123:2139   */\n  add\n    /* \"#utility.yul\":2120:2145   */\n  gt\n    /* \"#utility.yul\":2117:2229   */\n  iszero\n  tag_89\n  jumpi\n    /* \"#utility.yul\":2148:2227   */\n  tag_90\n  tag_29\n  jump\t// in\ntag_90:\n    /* \"#utility.yul\":2117:2229   */\ntag_89:\n    /* \"#utility.yul\":2238:2290   */\n  tag_91\n    /* \"#utility.yul\":2283:2289   */\n  dup5\n    /* \"#utility.yul\":2278:2281   */\n  dup3\n    /* \"#utility.yul\":2273:2276   */\n  dup6\n    /* \"#utility.yul\":2238:2290   */\n  tag_35\n  jump\t// in\ntag_91:\n    /* \"#utility.yul\":1957:2296   */\n  pop\n    /* \"#utility.yul\":1862:2296   */\n  swap4\n  swap3\n  pop\n  pop\n  pop\n  jump\t// out\n    /* \"#utility.yul\":2316:2671   */\ntag_37:\n    /* \"#utility.yul\":2383:2388   */\n  0x00\n    /* \"#utility.yul\":2432:2435   */\n  dup3\n    /* \"#utility.yul\":2425:2429   */\n  0x1f\n    /* \"#utility.yul\":2417:2423   */\n  dup4\n    /* \"#utility.yul\":2413:2430   */\n  add\n    /* \"#utility.yul\":2409:2436   */\n  slt\n    /* \"#utility.yul\":2399:2521   */\n  tag_93\n  jumpi\n    /* \"#utility.yul\":2440:2519   */\n  tag_94\n  tag_28\n  jump\t// in\ntag_94:\n    /* \"#utility.yul\":2399:2521   */\ntag_93:\n    /* \"#utility.yul\":2550:2556   */\n  dup2\n    /* \"#utility.yul\":2544:2557   */\n  mload\n    /* \"#utility.yul\":2575:2665   */\n  tag_95\n    /* \"#utility.yul\":2661:2664   */\n  dup5\n    /* \"#utility.yul\":2653:2659   */\n  dup3\n    /* \"#utility.yul\":2646:2650   */\n  0x20\n    /* \"#utility.yul\":2638:2644   */\n  dup7\n    /* \"#utility.yul\":2634:2651   */\n  add\n    /* \"#utility.yul\":2575:2665   */\n  tag_36\n  jump\t// in\ntag_95:\n    /* \"#utility.yul\":2566:2665   */\n  swap2\n  pop\n    /* \"#utility.yul\":2389:2671   */\n  pop\n    /* \"#utility.yul\":2316:2671   */\n  swap3\n  swap2\n  pop\n  pop\n  jump\t// out\n    /* \"#utility.yul\":2677:2754   */\ntag_38:\n    /* \"#utility.yul\":2714:2721   */\n  0x00\n    /* \"#utility.yul\":2743:2748   */\n  dup2\n    /* \"#utility.yul\":2732:2748   */\n  swap1\n  pop\n    /* \"#utility.yul\":2677:2754   */\n  swap2\n  swap1\n  pop\n  jump\t// out\n    /* \"#utility.yul\":2760:2882   */\ntag_39:\n    /* \"#utility.yul\":2833:2857   */\n  tag_98\n    /* \"#utility.yul\":2851:2856   */\n  dup2\n    /* \"#utility.yul\":2833:2857   */\n  tag_38\n  jump\t// in\ntag_98:\n    /* \"#utility.yul\":2826:2831   */\n  dup2\n    /* \"#utility.yul\":2823:2858   */\n  eq\n    /* \"#utility.yul\":2813:2876   */\n  tag_99\n  jumpi\n    /* \"#utility.yul\":2872:2873   */\n  0x00\n    /* \"#utility.yul\":2869:2870   */\n  dup1\n    /* \"#utility.yul\":2862:2874   */\n  revert\n    /* \"#utility.yul\":2813:2876   */\ntag_99:\n    /* \"#utility.yul\":2760:2882   */\n  pop\n  jump\t// out\n    /* \"#utility.yul\":2888:3031   */\ntag_40:\n    /* \"#utility.yul\":2945:2950   */\n  0x00\n    /* \"#utility.yul\":2976:2982   */\n  dup2\n    /* \"#utility.yul\":2970:2983   */\n  mload\n    /* \"#utility.yul\":2961:2983   */\n  swap1\n  pop\n    /* \"#utility.yul\":2992:3025   */\n  tag_101\n    /* \"#utility.yul\":3019:3024   */\n  dup2\n    /* \"#utility.yul\":2992:3025   */\n  tag_39\n  jump\t// in\ntag_101:\n    /* \"#utility.yul\":2888:3031   */\n  swap3\n  swap2\n  pop\n  pop\n  jump\t// out\n    /* \"#utility.yul\":3037:3717   */\ntag_3:\n    /* \"#utility.yul\":3126:3132   */\n  0x00\n    /* \"#utility.yul\":3134:3140   */\n  dup1\n    /* \"#utility.yul\":3183:3185   */\n  0x40\n    /* \"#utility.yul\":3171:3180   */\n  dup4\n    /* \"#utility.yul\":3162:3169   */\n  dup6\n    /* \"#utility.yul\":3158:3181   */\n  sub\n    /* \"#utility.yul\":3154:3186   */\n  slt\n    /* \"#utility.yul\":3151:3270   */\n  iszero\n  tag_103\n  jumpi\n    /* \"#utility.yul\":3189:3268   */\n  tag_104\n  tag_26\n  jump\t// in\ntag_104:\n    /* \"#utility.yul\":3151:3270   */\ntag_103:\n    /* \"#utility.yul\":3330:3331   */\n  0x00\n    /* \"#utility.yul\":3319:3328   */\n  dup4\n    /* \"#utility.yul\":3315:3332   */\n  add\n    /* \"#utility.yul\":3309:3333   */\n  mload\n    /* \"#utility.yul\":3360:3378   */\n  0xffffffffffffffff\n    /* \"#utility.yul\":3352:3358   */\n  dup2\n    /* \"#utility.yul\":3349:3379   */\n  gt\n    /* \"#utility.yul\":3346:3463   */\n  iszero\n  tag_105\n  jumpi\n    /* \"#utility.yul\":3382:3461   */\n  tag_106\n  tag_27\n  jump\t// in\ntag_106:\n    /* \"#utility.yul\":3346:3463   */\ntag_105:\n    /* \"#utility.yul\":3487:3561   */\n  tag_107\n    /* \"#utility.yul\":3553:3560   */\n  dup6\n    /* \"#utility.yul\":3544:3550   */\n  dup3\n    /* \"#utility.yul\":3533:3542   */\n  dup7\n    /* \"#utility.yul\":3529:3551   */\n  add\n    /* \"#utility.yul\":3487:3561   */\n  tag_37\n  jump\t// in\ntag_107:\n    /* \"#utility.yul\":3477:3561   */\n  swap3\n  pop\n    /* \"#utility.yul\":3280:3571   */\n  pop\n    /* \"#utility.yul\":3610:3612   */\n  0x20\n    /* \"#utility.yul\":3636:3700   */\n  tag_108\n    /* \"#utility.yul\":3692:3699   */\n  dup6\n    /* \"#utility.yul\":3683:3689   */\n  dup3\n    /* \"#utility.yul\":3672:3681   */\n  dup7\n    /* \"#utility.yul\":3668:3690   */\n  add\n    /* \"#utility.yul\":3636:3700   */\n  tag_40\n  jump\t// in\ntag_108:\n    /* \"#utility.yul\":3626:3700   */\n  swap2\n  pop\n    /* \"#utility.yul\":3581:3710   */\n  pop\n    /* \"#utility.yul\":3037:3717   */\n  swap3\n  pop\n  swap3\n  swap1\n  pop\n  jump\t// out\n    /* \"#utility.yul\":3723:3822   */\ntag_41:\n    /* \"#utility.yul\":3775:3781   */\n  0x00\n    /* \"#utility.yul\":3809:3814   */\n  dup2\n    /* \"#utility.yul\":3803:3815   */\n  mload\n    /* \"#utility.yul\":3793:3815   */\n  swap1\n  pop\n    /* \"#utility.yul\":3723:3822   */\n  swap2\n  swap1\n  pop\n  jump\t// out\n    /* \"#utility.yul\":3828:4008   */\ntag_42:\n    /* \"#utility.yul\":3876:3953   */\n  0x4e487b7100000000000000000000000000000000000000000000000000000000\n    /* \"#utility.yul\":3873:3874   */\n  0x00\n    /* \"#utility.yul\":3866:3954   */\n  mstore\n    /* \"#utility.yul\":3973:3977   */\n  0x22\n    /* \"#utility.yul\":3970:3971   */\n  0x04\n    /* \"#utility.yul\":3963:3978   */\n  mstore\n    /* \"#utility.yul\":3997:4001   */\n  0x24\n    /* \"#utility.yul\":3994:3995   */\n  0x00\n    /* \"#utility.yul\":3987:4002   */\n  revert\n    /* \"#utility.yul\":4014:4334   */\ntag_43:\n    /* \"#utility.yul\":4058:4064   */\n  0x00\n    /* \"#utility.yul\":4095:4096   */\n  0x02\n    /* \"#utility.yul\":4089:4093   */\n  dup3\n    /* \"#utility.yul\":4085:4097   */\n  div\n    /* \"#utility.yul\":4075:4097   */\n  swap1\n  pop\n    /* \"#utility.yul\":4142:4143   */\n  0x01\n    /* \"#utility.yul\":4136:4140   */\n  dup3\n    /* \"#utility.yul\":4132:4144   */\n  and\n    /* \"#utility.yul\":4163:4181   */\n  dup1\n    /* \"#utility.yul\":4153:4234   */\n  tag_112\n  jumpi\n    /* \"#utility.yul\":4219:4223   */\n  0x7f\n    /* \"#utility.yul\":4211:4217   */\n  dup3\n    /* \"#utility.yul\":4207:4224   */\n  and\n    /* \"#utility.yul\":4197:4224   */\n  swap2\n  pop\n    /* \"#utility.yul\":4153:4234   */\ntag_112:\n    /* \"#utility.yul\":4281:4283   */\n  0x20\n    /* \"#utility.yul\":4273:4279   */\n  dup3\n    /* \"#utility.yul\":4270:4284   */\n  lt\n    /* \"#utility.yul\":4250:4268   */\n  dup2\n    /* \"#utility.yul\":4247:4285   */\n  sub\n    /* \"#utility.yul\":4244:4328   */\n  tag_113\n  jumpi\n    /* \"#utility.yul\":4300:4318   */\n  tag_114\n  tag_42\n  jump\t// in\ntag_114:\n    /* \"#utility.yul\":4244:4328   */\ntag_113:\n    /* \"#utility.yul\":4065:4334   */\n  pop\n    /* \"#utility.yul\":4014:4334   */\n  swap2\n  swap1\n  pop\n  jump\t// out\n    /* \"#utility.yul\":4340:4481   */\ntag_44:\n    /* \"#utility.yul\":4389:4393   */\n  0x00\n    /* \"#utility.yul\":4412:4415   */\n  dup2\n    /* \"#utility.yul\":4404:4415   */\n  swap1\n  pop\n    /* \"#utility.yul\":4435:4438   */\n  dup2\n    /* \"#utility.yul\":4432:4433   */\n  0x00\n    /* \"#utility.yul\":4425:4439   */\n  mstore\n    /* \"#utility.yul\":4469:4473   */\n  0x20\n    /* \"#utility.yul\":4466:4467   */\n  0x00\n    /* \"#utility.yul\":4456:4474   */\n  keccak256\n    /* \"#utility.yul\":4448:4474   */\n  swap1\n  pop\n    /* \"#utility.yul\":4340:4481   */\n  swap2\n  swap1\n  pop\n  jump\t// out\n    /* \"#utility.yul\":4487:4580   */\ntag_45:\n    /* \"#utility.yul\":4524:4530   */\n  0x00\n    /* \"#utility.yul\":4571:4573   */\n  0x20\n    /* \"#utility.yul\":4566:4568   */\n  0x1f\n    /* \"#utility.yul\":4559:4564   */\n  dup4\n    /* \"#utility.yul\":4555:4569   */\n  add\n    /* \"#utility.yul\":4551:4574   */\n  div\n    /* \"#utility.yul\":4541:4574   */\n  swap1\n  pop\n    /* \"#utility.yul\":4487:4580   */\n  swap2\n  swap1\n  pop\n  jump\t// out\n    /* \"#utility.yul\":4586:4693   */\ntag_46:\n    /* \"#utility.yul\":4630:4638   */\n  0x00\n    /* \"#utility.yul\":4680:4685   */\n  dup3\n    /* \"#utility.yul\":4674:4678   */\n  dup3\n    /* \"#utility.yul\":4670:4686   */\n  shl\n    /* \"#utility.yul\":4649:4686   */\n  swap1\n  pop\n    /* \"#utility.yul\":4586:4693   */\n  swap3\n  swap2\n  pop\n  pop\n  jump\t// out\n    /* \"#utility.yul\":4699:5092   */\ntag_47:\n    /* \"#utility.yul\":4768:4774   */\n  0x00\n    /* \"#utility.yul\":4818:4819   */\n  0x08\n    /* \"#utility.yul\":4806:4816   */\n  dup4\n    /* \"#utility.yul\":4802:4820   */\n  mul\n    /* \"#utility.yul\":4841:4938   */\n  tag_119\n    /* \"#utility.yul\":4871:4937   */\n  0xffffffffffffffffffffffffffffffffffffffffffffffffffffffffffffffff\n    /* \"#utility.yul\":4860:4869   */\n  dup3\n    /* \"#utility.yul\":4841:4938   */\n  tag_46\n  jump\t// in\ntag_119:\n    /* \"#utility.yul\":4959:4998   */\n  tag_120\n    /* \"#utility.yul\":4989:4997   */\n  dup7\n    /* \"#utility.yul\":4978:4987   */\n  dup4\n    /* \"#utility.yul\":4959:4998   */\n  tag_46\n  jump\t// in\ntag_120:\n    /* \"#utility.yul\":4947:4998   */\n  swap6\n  pop\n    /* \"#utility.yul\":5031:5035   */\n  dup1\n    /* \"#utility.yul\":5027:5036   */\n  not\n    /* \"#utility.yul\":5020:5025   */\n  dup5\n    /* \"#utility.yul\":5016:5037   */\n  and\n    /* \"#utility.yul\":5007:5037   */\n  swap4\n  pop\n    /* \"#utility.yul\":5080:5084   */\n  dup1\n    /* \"#utility.yul\":5070:5078   */\n  dup7\n    /* \"#utility.yul\":5066:5085   */\n  and\n    /* \"#utility.yul\":5059:5064   */\n  dup5\n    /* \"#utility.yul\":5056:5086   */\n  or\n    /* \"#utility.yul\":5046:5086   */\n  swap3\n  pop\n    /* \"#utility.yul\":4775:5092   */\n  pop\n  pop\n    /* \"#utility.yul\":4699:5092   */\n  swap4\n  swap3\n  pop\n  pop\n  pop\n  jump\t// out\n    /* \"#utility.yul\":5098:5158   */\ntag_48:\n    /* \"#utility.yul\":5126:5129   */\n  0x00\n    /* \"#utility.yul\":5147:5152   */\n  dup2\n    /* \"#utility.yul\":5140:5152   */\n  swap1\n  pop\n    /* \"#utility.yul\":5098:5158   */\n  swap2\n  swap1\n  pop\n  jump\t// out\n    /* \"#utility.yul\":5164:5306   */\ntag_49:\n    /* \"#utility.yul\":5214:5223   */\n  0x00\n    /* \"#utility.yul\":5247:5300   */\n  tag_123\n    /* \"#utility.yul\":5265:5299   */\n  tag_124\n    /* \"#utility.yul\":5274:5298   */\n  tag_125\n    /* \"#utility.yul\":5292:5297   */\n  dup5\n    /* \"#utility.yul\":5274:5298   */\n  tag_38\n  jump\t// in\ntag_125:\n    /* \"#utility.yul\":5265:5299   */\n  tag_48\n  jump\t// in\ntag_124:\n    /* \"#utility.yul\":5247:5300   */\n  tag_38\n  jump\t// in\ntag_123:\n    /* \"#utility.yul\":5234:5300   */\n  swap1\n  pop\n    /* \"#utility.yul\":5164:5306   */\n  swap2\n  swap1\n  pop\n  jump\t// out\n    /* \"#utility.yul\":5312:5387   */\ntag_50:\n    /* \"#utility.yul\":5355:5358   */\n  0x00\n    /* \"#utility.yul\":5376:5381   */\n  dup2\n    /* \"#utility.yul\":5369:5381   */\n  swap1\n  pop\n    /* \"#utility.yul\":5312:5387   */\n  swap2\n  swap1\n  pop\n  jump\t// out\n    /* \"#utility.yul\":5393:5662   */\ntag_51:\n    /* \"#utility.yul\":5503:5542   */\n  tag_128\n    /* \"#utility.yul\":5534:5541   */\n  dup4\n    /* \"#utility.yul\":5503:5542   */\n  tag_49\n  jump\t// in\ntag_128:\n    /* \"#utility.yul\":5564:5655   */\n  tag_129\n    /* \"#utility.yul\":5613:5654   */\n  tag_130\n    /* \"#utility.yul\":5637:5653   */\n  dup3\n    /* \"#utility.yul\":5613:5654   */\n  tag_50\n  jump\t// in\ntag_130:\n    /* \"#utility.yul\":5605:5611   */\n  dup5\n    /* \"#utility.yul\":5598:5602   */\n  dup5\n    /* \"#utility.yul\":5592:5603   */\n  sload\n    /* \"#utility.yul\":5564:5655   */\n  tag_47\n  jump\t// in\ntag_129:\n    /* \"#utility.yul\":5558:5562   */\n  dup3\n    /* \"#utility.yul\":5551:5656   */\n  sstore\n    /* \"#utility.yul\":5469:5662   */\n  pop\n    /* \"#utility.yul\":5393:5662   */\n  pop\n  pop\n  pop\n  jump\t// out\n    /* \"#utility.yul\":5668:5741   */\ntag_52:\n    /* \"#utility.yul\":5713:5716   */\n  0x00\n    /* \"#utility.yul\":5668:5741   */\n  swap1\n  jump\t// out\n    /* \"#utility.yul\":5747:5936   */\ntag_53:\n    /* \"#utility.yul\":5824:5856   */\n  tag_133\n  tag_52\n  jump\t// in\ntag_133:\n    /* \"#utility.yul\":5865:5930   */\n  tag_134\n    /* \"#utility.yul\":5923:5929   */\n  dup2\n    /* \"#utility.yul\":5915:5921   */\n  dup5\n    /* \"#utility.yul\":5909:5913   */\n  dup5\n    /* \"#utility.yul\":5865:5930   */\n  tag_51\n  jump\t// in\ntag_134:\n    /* \"#utility.yul\":5800:5936   */\n  pop\n    /* \"#utility.yul\":5747:5936   */\n  pop\n  pop\n  jump\t// out\n    /* \"#utility.yul\":5942:6128   */\ntag_54:\n    /* \"#utility.yul\":6002:6122   */\ntag_136:\n    /* \"#utility.yul\":6019:6022   */\n  dup2\n    /* \"#utility.yul\":6012:6017   */\n  dup2\n    /* \"#utility.yul\":6009:6023   */\n  lt\n    /* \"#utility.yul\":6002:6122   */\n  iszero\n  tag_138\n  jumpi\n    /* \"#utility.yul\":6073:6112   */\n  tag_139\n    /* \"#utility.yul\":6110:6111   */\n  0x00\n    /* \"#utility.yul\":6103:6108   */\n  dup3\n    /* \"#utility.yul\":6073:6112   */\n  tag_53\n  jump\t// in\ntag_139:\n    /* \"#utility.yul\":6046:6047   */\n  0x01\n    /* \"#utility.yul\":6039:6044   */\n  dup2\n    /* \"#utility.yul\":6035:6048   */\n  add\n    /* \"#utility.yul\":6026:6048   */\n  swap1\n  pop\n    /* \"#utility.yul\":6002:6122   */\n  jump(tag_136)\ntag_138:\n    /* \"#utility.yul\":5942:6128   */\n  pop\n  pop\n  jump\t// out\n    /* \"#utility.yul\":6134:6677   */\ntag_55:\n    /* \"#utility.yul\":6235:6237   */\n  0x1f\n    /* \"#utility.yul\":6230:6233   */\n  dup3\n    /* \"#utility.yul\":6227:6238   */\n  gt\n    /* \"#utility.yul\":6224:6670   */\n  iszero\n  tag_141\n  jumpi\n    /* \"#utility.yul\":6269:6307   */\n  tag_142\n    /* \"#utility.yul\":6301:6306   */\n  dup2\n    /* \"#utility.yul\":6269:6307   */\n  tag_44\n  jump\t// in\ntag_142:\n    /* \"#utility.yul\":6353:6382   */\n  tag_143\n    /* \"#utility.yul\":6371:6381   */\n  dup5\n    /* \"#utility.yul\":6353:6382   */\n  tag_45\n  jump\t// in\ntag_143:\n    /* \"#utility.yul\":6343:6351   */\n  dup2\n    /* \"#utility.yul\":6339:6383   */\n  add\n    /* \"#utility.yul\":6536:6538   */\n  0x20\n    /* \"#utility.yul\":6524:6534   */\n  dup6\n    /* \"#utility.yul\":6521:6539   */\n  lt\n    /* \"#utility.yul\":6518:6567   */\n  iszero\n  tag_144\n  jumpi\n    /* \"#utility.yul\":6557:6565   */\n  dup2\n    /* \"#utility.yul\":6542:6565   */\n  swap1\n  pop\n    /* \"#utility.yul\":6518:6567   */\ntag_144:\n    /* \"#utility.yul\":6580:6660   */\n  tag_145\n    /* \"#utility.yul\":6636:6658   */\n  tag_146\n    /* \"#utility.yul\":6654:6657   */\n  dup6\n    /* \"#utility.yul\":6636:6658   */\n  tag_45\n  jump\t// in\ntag_146:\n    /* \"#utility.yul\":6626:6634   */\n  dup4\n    /* \"#utility.yul\":6622:6659   */\n  add\n    /* \"#utility.yul\":6609:6620   */\n  dup3\n    /* \"#utility.yul\":6580:6660   */\n  tag_54\n  jump\t// in\ntag_145:\n    /* \"#utility.yul\":6239:6670   */\n  pop\n  pop\n    /* \"#utility.yul\":6224:6670   */\ntag_141:\n    /* \"#utility.yul\":6134:6677   */\n  pop\n  pop\n  pop\n  jump\t// out\n    /* \"#utility.yul\":6683:6800   */\ntag_56:\n    /* \"#utility.yul\":6737:6745   */\n  0x00\n    /* \"#utility.yul\":6787:6792   */\n  dup3\n    /* \"#utility.yul\":6781:6785   */\n  dup3\n    /* \"#utility.yul\":6777:6793   */\n  shr\n    /* \"#utility.yul\":6756:6793   */\n  swap1\n  pop\n    /* \"#utility.yul\":6683:6800   */\n  swap3\n  swap2\n  pop\n  pop\n  jump\t// out\n    /* \"#utility.yul\":6806:6975   */\ntag_57:\n    /* \"#utility.yul\":6850:6856   */\n  0x00\n    /* \"#utility.yul\":6883:6934   */\n  tag_149\n    /* \"#utility.yul\":6931:6932   */\n  0x00\n    /* \"#utility.yul\":6927:6933   */\n  not\n    /* \"#utility.yul\":6919:6924   */\n  dup5\n    /* \"#utility.yul\":6916:6917   */\n  0x08\n    /* \"#utility.yul\":6912:6925   */\n  mul\n    /* \"#utility.yul\":6883:6934   */\n  tag_56\n  jump\t// in\ntag_149:\n    /* \"#utility.yul\":6879:6935   */\n  not\n    /* \"#utility.yul\":6964:6968   */\n  dup1\n    /* \"#utility.yul\":6958:6962   */\n  dup4\n    /* \"#utility.yul\":6954:6969   */\n  and\n    /* \"#utility.yul\":6944:6969   */\n  swap2\n  pop\n    /* \"#utility.yul\":6857:6975   */\n  pop\n    /* \"#utility.yul\":6806:6975   */\n  swap3\n  swap2\n  pop\n  pop\n  jump\t// out\n    /* \"#utility.yul\":6980:7275   */\ntag_58:\n    /* \"#utility.yul\":7056:7060   */\n  0x00\n    /* \"#utility.yul\":7202:7231   */\n  tag_151\n    /* \"#utility.yul\":7227:7230   */\n  dup4\n    /* \"#utility.yul\":7221:7225   */\n  dup4\n    /* \"#utility.yul\":7202:7231   */\n  tag_57\n  jump\t// in\ntag_151:\n    /* \"#utility.yul\":7194:7231   */\n  swap2\n  pop\n    /* \"#utility.yul\":7264:7267   */\n  dup3\n    /* \"#utility.yul\":7261:7262   */\n  0x02\n    /* \"#utility.yul\":7257:7268   */\n  mul\n    /* \"#utility.yul\":7251:7255   */\n  dup3\n    /* \"#utility.yul\":7248:7269   */\n  or\n    /* \"#utility.yul\":7240:7269   */\n  swap1\n  pop\n    /* \"#utility.yul\":6980:7275   */\n  swap3\n  swap2\n  pop\n  pop\n  jump\t// out\n    /* \"#utility.yul\":7280:8675   */\ntag_7:\n    /* \"#utility.yul\":7397:7434   */\n  tag_153\n    /* \"#utility.yul\":7430:7433   */\n  dup3\n    /* \"#utility.yul\":7397:7434   */\n  tag_41\n  jump\t// in\ntag_153:\n    /* \"#utility.yul\":7499:7517   */\n  0xffffffffffffffff\n    /* \"#utility.yul\":7491:7497   */\n  dup2\n    /* \"#utility.yul\":7488:7518   */\n  gt\n    /* \"#utility.yul\":7485:7541   */\n  iszero\n  tag_154\n  jumpi\n    /* \"#utility.yul\":7521:7539   */\n  tag_155\n  tag_31\n  jump\t// in\ntag_155:\n    /* \"#utility.yul\":7485:7541   */\ntag_154:\n    /* \"#utility.yul\":7565:7603   */\n  tag_156\n    /* \"#utility.yul\":7597:7601   */\n  dup3\n    /* \"#utility.yul\":7591:7602   */\n  sload\n    /* \"#utility.yul\":7565:7603   */\n  tag_43\n  jump\t// in\ntag_156:\n    /* \"#utility.yul\":7650:7717   */\n  tag_157\n    /* \"#utility.yul\":7710:7716   */\n  dup3\n    /* \"#utility.yul\":7702:7708   */\n  dup3\n    /* \"#utility.yul\":7696:7700   */\n  dup6\n    /* \"#utility.yul\":7650:7717   */\n  tag_55\n  jump\t// in\ntag_157:\n    /* \"#utility.yul\":7744:7745   */\n  0x00\n    /* \"#utility.yul\":7768:7772   */\n  0x20\n    /* \"#utility.yul\":7755:7772   */\n  swap1\n  pop\n    /* \"#utility.yul\":7800:7802   */\n  0x1f\n    /* \"#utility.yul\":7792:7798   */\n  dup4\n    /* \"#utility.yul\":7789:7803   */\n  gt\n    /* \"#utility.yul\":7817:7818   */\n  0x01\n    /* \"#utility.yul\":7812:8430   */\n  dup2\n  eq\n  tag_159\n  jumpi\n    /* \"#utility.yul\":8474:8475   */\n  0x00\n    /* \"#utility.yul\":8491:8497   */\n  dup5\n    /* \"#utility.yul\":8488:8565   */\n  iszero\n  tag_160\n  jumpi\n    /* \"#utility.yul\":8540:8549   */\n  dup3\n    /* \"#utility.yul\":8535:8538   */\n  dup8\n    /* \"#utility.yul\":8531:8550   */\n  add\n    /* \"#utility.yul\":8525:8551   */\n  mload\n    /* \"#utility.yul\":8516:8551   */\n  swap1\n  pop\n    /* \"#utility.yul\":8488:8565   */\ntag_160:\n    /* \"#utility.yul\":8591:8658   */\n  tag_161\n    /* \"#utility.yul\":8651:8657   */\n  dup6\n    /* \"#utility.yul\":8644:8649   */\n  dup3\n    /* \"#utility.yul\":8591:8658   */\n  tag_58\n  jump\t// in\ntag_161:\n    /* \"#utility.yul\":8585:8589   */\n  dup7\n    /* \"#utility.yul\":8578:8659   */\n  sstore\n    /* \"#utility.yul\":8447:8669   */\n  pop\n    /* \"#utility.yul\":7782:8669   */\n  jump(tag_158)\n    /* \"#utility.yul\":7812:8430   */\ntag_159:\n    /* \"#utility.yul\":7864:7868   */\n  0x1f\n    /* \"#utility.yul\":7860:7869   */\n  not\n    /* \"#utility.yul\":7852:7858   */\n  dup5\n    /* \"#utility.yul\":7848:7870   */\n  and\n    /* \"#utility.yul\":7898:7935   */\n  tag_162\n    /* \"#utility.yul\":7930:7934   */\n  dup7\n    /* \"#utility.yul\":7898:7935   */\n  tag_44\n  jump\t// in\ntag_162:\n    /* \"#utility.yul\":7957:7958   */\n  0x00\n    /* \"#utility.yul\":7971:8179   */\ntag_163:\n    /* \"#utility.yul\":7985:7992   */\n  dup3\n    /* \"#utility.yul\":7982:7983   */\n  dup2\n    /* \"#utility.yul\":7979:7993   */\n  lt\n    /* \"#utility.yul\":7971:8179   */\n  iszero\n  tag_165\n  jumpi\n    /* \"#utility.yul\":8064:8073   */\n  dup5\n    /* \"#utility.yul\":8059:8062   */\n  dup10\n    /* \"#utility.yul\":8055:8074   */\n  add\n    /* \"#utility.yul\":8049:8075   */\n  mload\n    /* \"#utility.yul\":8041:8047   */\n  dup3\n    /* \"#utility.yul\":8034:8076   */\n  sstore\n    /* \"#utility.yul\":8115:8116   */\n  0x01\n    /* \"#utility.yul\":8107:8113   */\n  dup3\n    /* \"#utility.yul\":8103:8117   */\n  add\n    /* \"#utility.yul\":8093:8117   */\n  swap2\n  pop\n    /* \"#utility.yul\":8162:8164   */\n  0x20\n    /* \"#utility.yul\":8151:8160   */\n  dup6\n    /* \"#utility.yul\":8147:8165   */\n  add\n    /* \"#utility.yul\":8134:8165   */\n  swap5\n  pop\n    /* \"#utility.yul\":8008:8012   */\n  0x20\n    /* \"#utility.yul\":8005:8006   */\n  dup2\n    /* \"#utility.yul\":8001:8013   */\n  add\n    /* \"#utility.yul\":7996:8013   */\n  swap1\n  pop\n    /* \"#utility.yul\":7971:8179   */\n  jump(tag_163)\ntag_165:\n    /* \"#utility.yul\":8207:8213   */\n  dup7\n    /* \"#utility.yul\":8198:8205   */\n  dup4\n    /* \"#utility.yul\":8195:8214   */\n  lt\n    /* \"#utility.yul\":8192:8371   */\n  iszero\n  tag_166\n  jumpi\n    /* \"#utility.yul\":8265:8274   */\n  dup5\n    /* \"#utility.yul\":8260:8263   */\n  dup10\n    /* \"#utility.yul\":8256:8275   */\n  add\n    /* \"#utility.yul\":8250:8276   */\n  mload\n    /* \"#utility.yul\":8308:8356   */\n  tag_167\n    /* \"#utility.yul\":8350:8354   */\n  0x1f\n    /* \"#utility.yul\":8342:8348   */\n  dup10\n    /* \"#utility.yul\":8338:8355   */\n  and\n    /* \"#utility.yul\":8327:8336   */\n  dup3\n    /* \"#utility.yul\":8308:8356   */\n  tag_57\n  jump\t// in\ntag_167:\n    /* \"#utility.yul\":8300:8306   */\n  dup4\n    /* \"#utility.yul\":8293:8357   */\n  sstore\n    /* \"#utility.yul\":8215:8371   */\n  pop\n    /* \"#utility.yul\":8192:8371   */\ntag_166:\n    /* \"#utility.yul\":8417:8418   */\n  0x01\n    /* \"#utility.yul\":8413:8414   */\n  0x02\n    /* \"#utility.yul\":8405:8411   */\n  dup9\n    /* \"#utility.yul\":8401:8415   */\n  mul\n    /* \"#utility.yul\":8397:8419   */\n  add\n    /* \"#utility.yul\":8391:8395   */\n  dup9\n    /* \"#utility.yul\":8384:8420   */\n  sstore\n    /* \"#utility.yul\":7819:8430   */\n  pop\n  pop\n  pop\n    /* \"#utility.yul\":7782:8669   */\ntag_158:\n  pop\n    /* \"#utility.yul\":7372:8675   */\n  pop\n  pop\n  pop\n    /* \"#utility.yul\":7280:8675   */\n  pop\n  pop\n  jump\t// out\n    /* \"#utility.yul\":8681:8850   */\ntag_59:\n    /* \"#utility.yul\":8765:8776   */\n  0x00\n    /* \"#utility.yul\":8799:8805   */\n  dup3\n    /* \"#utility.yul\":8794:8797   */\n  dup3\n    /* \"#utility.yul\":8787:8806   */\n  mstore\n    /* \"#utility.yul\":8839:8843   */\n  0x20\n    /* \"#utility.yul\":8834:8837   */\n  dup3\n    /* \"#utility.yul\":8830:8844   */\n  add\n    /* \"#utility.yul\":8815:8844   */\n  swap1\n  pop\n    /* \"#utility.yul\":8681:8850   */\n  swap3\n  swap2\n  pop\n  pop\n  jump\t// out\n    /* \"#utility.yul\":8880:9711   */\ntag_60:\n    /* \"#utility.yul\":8965:8968   */\n  0x00\n    /* \"#utility.yul\":9002:9007   */\n  dup2\n    /* \"#utility.yul\":8996:9008   */\n  sload\n    /* \"#utility.yul\":9031:9067   */\n  tag_170\n    /* \"#utility.yul\":9057:9066   */\n  dup2\n    /* \"#utility.yul\":9031:9067   */\n  tag_43\n  jump\t// in\ntag_170:\n    /* \"#utility.yul\":9083:9154   */\n  tag_171\n    /* \"#utility.yul\":9147:9153   */\n  dup2\n    /* \"#utility.yul\":9142:9145   */\n  dup7\n    /* \"#utility.yul\":9083:9154   */\n  tag_59\n  jump\t// in\ntag_171:\n    /* \"#utility.yul\":9076:9154   */\n  swap5\n  pop\n    /* \"#utility.yul\":9185:9186   */\n  0x01\n    /* \"#utility.yul\":9174:9183   */\n  dup3\n    /* \"#utility.yul\":9170:9187   */\n  and\n    /* \"#utility.yul\":9201:9202   */\n  0x00\n    /* \"#utility.yul\":9196:9360   */\n  dup2\n  eq\n  tag_173\n  jumpi\n    /* \"#utility.yul\":9374:9375   */\n  0x01\n    /* \"#utility.yul\":9369:9705   */\n  dup2\n  eq\n  tag_174\n  jumpi\n    /* \"#utility.yul\":9163:9705   */\n  jump(tag_172)\n    /* \"#utility.yul\":9196:9360   */\ntag_173:\n    /* \"#utility.yul\":9280:9284   */\n  0xff\n    /* \"#utility.yul\":9276:9285   */\n  not\n    /* \"#utility.yul\":9265:9274   */\n  dup4\n    /* \"#utility.yul\":9261:9286   */\n  and\n    /* \"#utility.yul\":9256:9259   */\n  dup7\n    /* \"#utility.yul\":9249:9287   */\n  mstore\n    /* \"#utility.yul\":9340:9346   */\n  dup2\n    /* \"#utility.yul\":9333:9347   */\n  iszero\n    /* \"#utility.yul\":9326:9348   */\n  iszero\n    /* \"#utility.yul\":9320:9324   */\n  0x20\n    /* \"#utility.yul\":9316:9349   */\n  mul\n    /* \"#utility.yul\":9311:9314   */\n  dup7\n    /* \"#utility.yul\":9307:9350   */\n  add\n    /* \"#utility.yul\":9300:9350   */\n  swap4\n  pop\n    /* \"#utility.yul\":9196:9360   */\n  jump(tag_172)\n    /* \"#utility.yul\":9369:9705   */\ntag_174:\n    /* \"#utility.yul\":9436:9474   */\n  tag_175\n    /* \"#utility.yul\":9468:9473   */\n  dup6\n    /* \"#utility.yul\":9436:9474   */\n  tag_44\n  jump\t// in\ntag_175:\n    /* \"#utility.yul\":9496:9497   */\n  0x00\n    /* \"#utility.yul\":9510:9664   */\ntag_176:\n    /* \"#utility.yul\":9524:9530   */\n  dup4\n    /* \"#utility.yul\":9521:9522   */\n  dup2\n    /* \"#utility.yul\":9518:9531   */\n  lt\n    /* \"#utility.yul\":9510:9664   */\n  iszero\n  tag_178\n  jumpi\n    /* \"#utility.yul\":9598:9605   */\n  dup2\n    /* \"#utility.yul\":9592:9606   */\n  sload\n    /* \"#utility.yul\":9588:9589   */\n  dup2\n    /* \"#utility.yul\":9583:9586   */\n  dup10\n    /* \"#utility.yul\":9579:9590   */\n  add\n    /* \"#utility.yul\":9572:9607   */\n  mstore\n    /* \"#utility.yul\":9648:9649   */\n  0x01\n    /* \"#utility.yul\":9639:9646   */\n  dup3\n    /* \"#utility.yul\":9635:9650   */\n  add\n    /* \"#utility.yul\":9624:9650   */\n  swap2\n  pop\n    /* \"#utility.yul\":9546:9550   */\n  0x20\n    /* \"#utility.yul\":9543:9544   */\n  dup2\n    /* \"#utility.yul\":9539:9551   */\n  add\n    /* \"#utility.yul\":9534:9551   */\n  swap1\n  pop\n    /* \"#utility.yul\":9510:9664   */\n  jump(tag_176)\ntag_178:\n    /* \"#utility.yul\":9693:9694   */\n  dup1\n    /* \"#utility.yul\":9688:9691   */\n  dup9\n    /* \"#utility.yul\":9684:9695   */\n  add\n    /* \"#utility.yul\":9677:9695   */\n  swap6\n  pop\n    /* \"#utility.yul\":9376:9705   */\n  pop\n  pop\n    /* \"#utility.yul\":9163:9705   */\ntag_172:\n  pop\n    /* \"#utility.yul\":8969:9711   */\n  pop\n  pop\n    /* \"#utility.yul\":8880:9711   */\n  swap3\n  swap2\n  pop\n  pop\n  jump\t// out\n    /* \"#utility.yul\":9717:10024   */\ntag_13:\n    /* \"#utility.yul\":9827:9831   */\n  0x00\n    /* \"#utility.yul\":9865:9867   */\n  0x20\n    /* \"#utility.yul\":9854:9863   */\n  dup3\n    /* \"#utility.yul\":9850:9868   */\n  add\n    /* \"#utility.yul\":9842:9868   */\n  swap1\n  pop\n    /* \"#utility.yul\":9914:9923   */\n  dup2\n    /* \"#utility.yul\":9908:9912   */\n  dup2\n    /* \"#utility.yul\":9904:9924   */\n  sub\n    /* \"#utility.yul\":9900:9901   */\n  0x00\n    /* \"#utility.yul\":9889:9898   */\n  dup4\n    /* \"#utility.yul\":9885:9902   */\n  add\n    /* \"#utility.yul\":9878:9925   */\n  mstore\n    /* \"#utility.yul\":9942:10017   */\n  tag_180\n    /* \"#utility.yul\":10012:10016   */\n  dup2\n    /* \"#utility.yul\":10003:10009   */\n  dup5\n    /* \"#utility.yul\":9942:10017   */\n  tag_60\n  jump\t// in\ntag_180:\n    /* \"#utility.yul\":9934:10017   */\n  swap1\n  pop\n    /* \"#utility.yul\":9717:10024   */\n  swap3\n  swap2\n  pop\n  pop\n  jump\t// out\n    /* \"#utility.yul\":10030:10210   */\ntag_61:\n    /* \"#utility.yul\":10078:10155   */\n  0x4e487b7100000000000000000000000000000000000000000000000000000000\n    /* \"#utility.yul\":10075:10076   */\n  0x00\n    /* \"#utility.yul\":10068:10156   */\n  mstore\n    /* \"#utility.yul\":10175:10179   */\n  0x11\n    /* \"#utility.yul\":10172:10173   */\n  0x04\n    /* \"#utility.yul\":10165:10180   */\n  mstore\n    /* \"#utility.yul\":10199:10203   */\n  0x24\n    /* \"#utility.yul\":10196:10197   */\n  0x00\n    /* \"#utility.yul\":10189:10204   */\n  revert\n    /* \"#utility.yul\":10216:10407   */\ntag_15:\n    /* \"#utility.yul\":10256:10259   */\n  0x00\n    /* \"#utility.yul\":10275:10295   */\n  tag_183\n    /* \"#utility.yul\":10293:10294   */\n  dup3\n    /* \"#utility.yul\":10275:10295   */\n  tag_38\n  jump\t// in\ntag_183:\n    /* \"#utility.yul\":10270:10295   */\n  swap2\n  pop\n    /* \"#utility.yul\":10309:10329   */\n  tag_184\n    /* \"#utility.yul\":10327:10328   */\n  dup4\n    /* \"#utility.yul\":10309:10329   */\n  tag_38\n  jump\t// in\ntag_184:\n    /* \"#utility.yul\":10304:10329   */\n  swap3\n  pop\n    /* \"#utility.yul\":10352:10353   */\n  dup3\n    /* \"#utility.yul\":10349:10350   */\n  dup3\n    /* \"#utility.yul\":10345:10354   */\n  add\n    /* \"#utility.yul\":10338:10354   */\n  swap1\n  pop\n    /* \"#utility.yul\":10373:10376   */\n  dup1\n    /* \"#utility.yul\":10370:10371   */\n  dup3\n    /* \"#utility.yul\":10367:10377   */\n  gt\n    /* \"#utility.yul\":10364:10400   */\n  iszero\n  tag_185\n  jumpi\n    /* \"#utility.yul\":10380:10398   */\n  tag_186\n  tag_61\n  jump\t// in\ntag_186:\n    /* \"#utility.yul\":10364:10400   */\ntag_185:\n    /* \"#utility.yul\":10216:10407   */\n  swap3\n  swap2\n  pop\n  pop\n  jump\t// out\n    /* \"#utility.yul\":10413:10593   */\ntag_62:\n    /* \"#utility.yul\":10461:10538   */\n  0x4e487b7100000000000000000000000000000000000000000000000000000000\n    /* \"#utility.yul\":10458:10459   */\n  0x00\n    /* \"#utility.yul\":10451:10539   */\n  mstore\n    /* \"#utility.yul\":10558:10562   */\n  0x12\n    /* \"#utility.yul\":10555:10556   */\n  0x04\n    /* \"#utility.yul\":10548:10563   */\n  mstore\n    /* \"#utility.yul\":10582:10586   */\n  0x24\n    /* \"#utility.yul\":10579:10580   */\n  0x00\n    /* \"#utility.yul\":10572:10587   */\n  revert\n    /* \"#utility.yul\":10599:10784   */\ntag_19:\n    /* \"#utility.yul\":10639:10640   */\n  0x00\n    /* \"#utility.yul\":10656:10676   */\n  tag_189\n    /* \"#utility.yul\":10674:10675   */\n  dup3\n    /* \"#utility.yul\":10656:10676   */\n  tag_38\n  jump\t// in\ntag_189:\n    /* \"#utility.yul\":10651:10676   */\n  swap2\n  pop\n    /* \"#utility.yul\":10690:10710   */\n  tag_190\n    /* \"#utility.yul\":10708:10709   */\n  dup4\n    /* \"#utility.yul\":10690:10710   */\n  tag_38\n  jump\t// in\ntag_190:\n    /* \"#utility.yul\":10685:10710   */\n  swap3\n  pop\n    /* \"#utility.yul\":10729:10730   */\n  dup3\n    /* \"#utility.yul\":10719:10754   */\n  tag_191\n  jumpi\n    /* \"#utility.yul\":10734:10752   */\n  tag_192\n  tag_62\n  jump\t// in\ntag_192:\n    /* \"#utility.yul\":10719:10754   */\ntag_191:\n    /* \"#utility.yul\":10776:10777   */\n  dup3\n    /* \"#utility.yul\":10773:10774   */\n  dup3\n    /* \"#utility.yul\":10769:10778   */\n  div\n    /* \"#utility.yul\":10764:10778   */\n  swap1\n  pop\n    /* \"#utility.yul\":10599:10784   */\n  swap3\n  swap2\n  pop\n  pop\n  jump\t// out\n    /* \"#utility.yul\":10790:11200   */\ntag_21:\n    /* \"#utility.yul\":10830:10837   */\n  0x00\n    /* \"#utility.yul\":10853:10873   */\n  tag_194\n    /* \"#utility.yul\":10871:10872   */\n  dup3\n    /* \"#utility.yul\":10853:10873   */\n  tag_38\n  jump\t// in\ntag_194:\n    /* \"#utility.yul\":10848:10873   */\n  swap2\n  pop\n    /* \"#utility.yul\":10887:10907   */\n  tag_195\n    /* \"#utility.yul\":10905:10906   */\n  dup4\n    /* \"#utility.yul\":10887:10907   */\n  tag_38\n  jump\t// in\ntag_195:\n    /* \"#utility.yul\":10882:10907   */\n  swap3\n  pop\n    /* \"#utility.yul\":10942:10943   */\n  dup3\n    /* \"#utility.yul\":10939:10940   */\n  dup3\n    /* \"#utility.yul\":10935:10944   */\n  mul\n    /* \"#utility.yul\":10964:10994   */\n  tag_196\n    /* \"#utility.yul\":10982:10993   */\n  dup2\n    /* \"#utility.yul\":10964:10994   */\n  tag_38\n  jump\t// in\ntag_196:\n    /* \"#utility.yul\":10953:10994   */\n  swap2\n  pop\n    /* \"#utility.yul\":11143:11144   */\n  dup3\n    /* \"#utility.yul\":11134:11141   */\n  dup3\n    /* \"#utility.yul\":11130:11145   */\n  div\n    /* \"#utility.yul\":11127:11128   */\n  dup5\n    /* \"#utility.yul\":11124:11146   */\n  eq\n    /* \"#utility.yul\":11104:11105   */\n  dup4\n    /* \"#utility.yul\":11097:11106   */\n  iszero\n    /* \"#utility.yul\":11077:11160   */\n  or\n    /* \"#utility.yul\":11054:11193   */\n  tag_197\n  jumpi\n    /* \"#utility.yul\":11173:11191   */\n  tag_198\n  tag_61\n  jump\t// in\ntag_198:\n    /* \"#utility.yul\":11054:11193   */\ntag_197:\n    /* \"#utility.yul\":10838:11200   */\n  pop\n    /* \"#utility.yul\":10790:11200   */\n  swap3\n  swap2\n  pop\n  pop\n  jump\t// out\n    /* \"#utility.yul\":11206:11400   */\ntag_23:\n    /* \"#utility.yul\":11246:11250   */\n  0x00\n    /* \"#utility.yul\":11266:11286   */\n  tag_200\n    /* \"#utility.yul\":11284:11285   */\n  dup3\n    /* \"#utility.yul\":11266:11286   */\n  tag_38\n  jump\t// in\ntag_200:\n    /* \"#utility.yul\":11261:11286   */\n  swap2\n  pop\n    /* \"#utility.yul\":11300:11320   */\n  tag_201\n    /* \"#utility.yul\":11318:11319   */\n  dup4\n    /* \"#utility.yul\":11300:11320   */\n  tag_38\n  jump\t// in\ntag_201:\n    /* \"#utility.yul\":11295:11320   */\n  swap3\n  pop\n    /* \"#utility.yul\":11344:11345   */\n  dup3\n    /* \"#utility.yul\":11341:11342   */\n  dup3\n    /* \"#utility.yul\":11337:11346   */\n  sub\n    /* \"#utility.yul\":11329:11346   */\n  swap1\n  pop\n    /* \"#utility.yul\":11368:11369   */\n  dup2\n    /* \"#utility.yul\":11362:11366   */\n  dup2\n    /* \"#utility.yul\":11359:11370   */\n  gt\n    /* \"#utility.yul\":11356:11393   */\n  iszero\n  tag_202\n  jumpi\n    /* \"#utility.yul\":11373:11391   */\n  tag_203\n  tag_61\n  jump\t// in\ntag_203:\n    /* \"#utility.yul\":11356:11393   */\ntag_202:\n    /* \"#utility.yul\":11206:11400   */\n  swap3\n  swap2\n  pop\n  pop\n  jump\t// out\n    /* \"chapter2/Random.sol\":70:1500  contract Random {... */\ntag_10:\n  dataSize(sub_0)\n  dup1\n  dataOffset(sub_0)\n  0x00\n  codecopy\n  0x00\n  return\nstop\n\nsub_0: assembly {\n        /* \"chapter2/Random.sol\":70:1500  contract Random {... */\n      mstore(0x40, 0x80)\n      jumpi(tag_1, lt(calldatasize, 0x04))\n      shr(0xe0, calldataload(0x00))\n      dup1\n      0x0df516d8\n      eq\n      tag_3\n      jumpi\n      dup1\n      0x146ca531\n      eq\n      tag_4\n      jumpi\n      dup1\n      0x8da5cb5b\n      eq\n      tag_5\n      jumpi\n      dup1\n      0xcf66b989\n      eq\n      tag_6\n      jumpi\n      jump(tag_2)\n    tag_1:\n      jumpi(tag_2, calldatasize)\n        /* \"chapter2/Random.sol\":795:801  10**15 */\n      0x038d7ea4c68000\n        /* \"chapter2/Random.sol\":782:791  msg.value */\n      callvalue\n        /* \"chapter2/Random.sol\":782:801  msg.value == 10**15 */\n      eq\n        /* \"chapter2/Random.sol\":774:824  require(msg.value == 10**15, \"Mustbe 0.001 ether\") */\n      tag_9\n      jumpi\n      mload(0x40)\n      0x08c379a000000000000000000000000000000000000000000000000000000000\n      dup2\n      mstore\n      0x04\n      add\n      tag_10\n      swap1\n      tag_11\n      jump\t// in\n    tag_10:\n      mload(0x40)\n      dup1\n      swap2\n      sub\n      swap1\n      revert\n    tag_9:\n        /* \"chapter2/Random.sol\":871:875  true */\n      0x01\n        /* \"chapter2/Random.sol\":834:849  paidAddressList */\n      0x00\n        /* \"chapter2/Random.sol\":834:856  paidAddressList[round] */\n      dup1\n        /* \"chapter2/Random.sol\":850:855  round */\n      sload(0x05)\n        /* \"chapter2/Random.sol\":834:856  paidAddressList[round] */\n      dup2\n      mstore\n      0x20\n      add\n      swap1\n      dup2\n      mstore\n      0x20\n      add\n      0x00\n      keccak256\n        /* \"chapter2/Random.sol\":834:868  paidAddressList[round][msg.sender] */\n      0x00\n        /* \"chapter2/Random.sol\":857:867  msg.sender */\n      caller\n        /* \"chapter2/Random.sol\":834:868  paidAddressList[round][msg.sender] */\n      0xffffffffffffffffffffffffffffffffffffffff\n      and\n      0xffffffffffffffffffffffffffffffffffffffff\n      and\n      dup2\n      mstore\n      0x20\n      add\n      swap1\n      dup2\n      mstore\n      0x20\n      add\n      0x00\n      keccak256\n      0x00\n        /* \"chapter2/Random.sol\":834:875  paidAddressList[round][msg.sender] = true */\n      0x0100\n      exp\n      dup2\n      sload\n      dup2\n      0xff\n      mul\n      not\n      and\n      swap1\n      dup4\n      iszero\n      iszero\n      mul\n      or\n      swap1\n      sstore\n      pop\n        /* \"chapter2/Random.sol\":887:897  playNumber */\n      0x06\n      0x00\n        /* \"chapter2/Random.sol\":885:897  ++playNumber */\n      dup2\n      sload\n      tag_12\n      swap1\n      tag_13\n      jump\t// in\n    tag_12:\n      swap2\n      swap1\n      pop\n      dup2\n      swap1\n      sstore\n      pop\n        /* \"chapter2/Random.sol\":925:937  winnerNumber */\n      sload(0x02)\n        /* \"chapter2/Random.sol\":911:921  playNumber */\n      sload(0x06)\n        /* \"chapter2/Random.sol\":911:937  playNumber == winnerNumber */\n      sub\n        /* \"chapter2/Random.sol\":908:1276  if(playNumber == winnerNumber) {... */\n      tag_14\n      jumpi\n        /* \"chapter2/Random.sol\":954:966  bool success */\n      0x00\n        /* \"chapter2/Random.sol\":971:981  msg.sender */\n      caller\n        /* \"chapter2/Random.sol\":971:986  msg.sender.call */\n      0xffffffffffffffffffffffffffffffffffffffff\n      and\n        /* \"chapter2/Random.sol\":993:1014  address(this).balance */\n      selfbalance\n        /* \"chapter2/Random.sol\":971:1019  msg.sender.call{value:address(this).balance}(\"\") */\n      mload(0x40)\n      tag_15\n      swap1\n      tag_16\n      jump\t// in\n    tag_15:\n      0x00\n      mload(0x40)\n      dup1\n      dup4\n      sub\n      dup2\n      dup6\n      dup8\n      gas\n      call\n      swap3\n      pop\n      pop\n      pop\n      returndatasize\n      dup1\n      0x00\n      dup2\n      eq\n      tag_19\n      jumpi\n      mload(0x40)\n      swap2\n      pop\n      and(add(returndatasize, 0x3f), not(0x1f))\n      dup3\n      add\n      0x40\n      mstore\n      returndatasize\n      dup3\n      mstore\n      returndatasize\n      0x00\n      0x20\n      dup5\n      add\n      returndatacopy\n      jump(tag_18)\n    tag_19:\n      0x60\n      swap2\n      pop\n    tag_18:\n      pop\n        /* \"chapter2/Random.sol\":953:1019  (bool success,) = msg.sender.call{value:address(this).balance}(\"\") */\n      pop\n      swap1\n      pop\n        /* \"chapter2/Random.sol\":1041:1048  success */\n      dup1\n        /* \"chapter2/Random.sol\":1033:1059  require(success, \"Failed\") */\n      tag_20\n      jumpi\n      mload(0x40)\n      0x08c379a000000000000000000000000000000000000000000000000000000000\n      dup2\n      mstore\n      0x04\n      add\n      tag_21\n      swap1\n      tag_22\n      jump\t// in\n    tag_21:\n      mload(0x40)\n      dup1\n      swap2\n      sub\n      swap1\n      revert\n    tag_20:\n        /* \"chapter2/Random.sol\":1086:1087  0 */\n      0x00\n        /* \"chapter2/Random.sol\":1073:1083  playNumber */\n      0x06\n        /* \"chapter2/Random.sol\":1073:1087  playNumber = 0 */\n      dup2\n      swap1\n      sstore\n      pop\n        /* \"chapter2/Random.sol\":1103:1108  round */\n      0x05\n      0x00\n        /* \"chapter2/Random.sol\":1101:1108  ++round */\n      dup2\n      sload\n      tag_23\n      swap1\n      tag_13\n      jump\t// in\n    tag_23:\n      swap2\n      swap1\n      pop\n      dup2\n      swap1\n      sstore\n      pop\n        /* \"chapter2/Random.sol\":1137:1151  randomNumber() */\n      tag_24\n        /* \"chapter2/Random.sol\":1137:1149  randomNumber */\n      tag_25\n        /* \"chapter2/Random.sol\":1137:1151  randomNumber() */\n      jump\t// in\n    tag_24:\n        /* \"chapter2/Random.sol\":1122:1134  winnerNumber */\n      0x02\n        /* \"chapter2/Random.sol\":1122:1151  winnerNumber = randomNumber() */\n      dup2\n      swap1\n      sstore\n      pop\n        /* \"chapter2/Random.sol\":1184:1194  msg.sender */\n      caller\n        /* \"chapter2/Random.sol\":1170:1195  WinnerAddress(msg.sender) */\n      0xffffffffffffffffffffffffffffffffffffffff\n      and\n      0xd7b5435fa0dd93954c7955210a67950d9385f8cd60631432712709e265ec99ca\n      mload(0x40)\n      mload(0x40)\n      dup1\n      swap2\n      sub\n      swap1\n      log2\n        /* \"chapter2/Random.sol\":939:1206  {... */\n      pop\n        /* \"chapter2/Random.sol\":908:1276  if(playNumber == winnerNumber) {... */\n      jump(tag_26)\n    tag_14:\n        /* \"chapter2/Random.sol\":1243:1253  msg.sender */\n      caller\n        /* \"chapter2/Random.sol\":1231:1265  PaidAddress(msg.sender, msg.value) */\n      0xffffffffffffffffffffffffffffffffffffffff\n      and\n      0x20384c35af44ae3e0536c765e1cee107339d7ca70b092472c816a3a62e4ba659\n        /* \"chapter2/Random.sol\":1255:1264  msg.value */\n      callvalue\n        /* \"chapter2/Random.sol\":1231:1265  PaidAddress(msg.sender, msg.value) */\n      mload(0x40)\n      tag_27\n      swap2\n      swap1\n      tag_28\n      jump\t// in\n    tag_27:\n      mload(0x40)\n      dup1\n      swap2\n      sub\n      swap1\n      log2\n        /* \"chapter2/Random.sol\":908:1276  if(playNumber == winnerNumber) {... */\n    tag_26:\n        /* \"chapter2/Random.sol\":70:1500  contract Random {... */\n      stop\n    tag_2:\n      0x00\n      dup1\n      revert\n        /* \"chapter2/Random.sol\":535:561  uint public playNumber = 0 */\n    tag_3:\n      callvalue\n      dup1\n      iszero\n      tag_29\n      jumpi\n      0x00\n      dup1\n      revert\n    tag_29:\n      pop\n      tag_30\n      tag_31\n      jump\t// in\n    tag_30:\n      mload(0x40)\n      tag_32\n      swap2\n      swap1\n      tag_28\n      jump\t// in\n    tag_32:\n      mload(0x40)\n      dup1\n      swap2\n      sub\n      swap1\n      return\n        /* \"chapter2/Random.sol\":508:529  uint public round = 1 */\n    tag_4:\n      callvalue\n      dup1\n      iszero\n      tag_33\n      jumpi\n      0x00\n      dup1\n      revert\n    tag_33:\n      pop\n      tag_34\n      tag_35\n      jump\t// in\n    tag_34:\n      mload(0x40)\n      tag_36\n      swap2\n      swap1\n      tag_28\n      jump\t// in\n    tag_36:\n      mload(0x40)\n      dup1\n      swap2\n      sub\n      swap1\n      return\n        /* \"chapter2/Random.sol\":398:418  address public owner */\n    tag_5:\n      callvalue\n      dup1\n      iszero\n      tag_37\n      jumpi\n      0x00\n      dup1\n      revert\n    tag_37:\n      pop\n      tag_38\n      tag_39\n      jump\t// in\n    tag_38:\n      mload(0x40)\n      tag_40\n      swap2\n      swap1\n      tag_41\n      jump\t// in\n    tag_40:\n      mload(0x40)\n      dup1\n      swap2\n      sub\n      swap1\n      return\n        /* \"chapter2/Random.sol\":325:391  mapping(uint256=> mapping(address => bool)) public paidAddressList */\n    tag_6:\n      callvalue\n      dup1\n      iszero\n      tag_42\n      jumpi\n      0x00\n      dup1\n      revert\n    tag_42:\n      pop\n      tag_43\n      0x04\n      dup1\n      calldatasize\n      sub\n      dup2\n      add\n      swap1\n      tag_44\n      swap2\n      swap1\n      tag_45\n      jump\t// in\n    tag_44:\n      tag_46\n      jump\t// in\n    tag_43:\n      mload(0x40)\n      tag_47\n      swap2\n      swap1\n      tag_48\n      jump\t// in\n    tag_47:\n      mload(0x40)\n      dup1\n      swap2\n      sub\n      swap1\n      return\n        /* \"chapter2/Random.sol\":1289:1492  function randomNumber() private view returns(uint) {... */\n    tag_25:\n        /* \"chapter2/Random.sol\":1334:1338  uint */\n      0x00\n        /* \"chapter2/Random.sol\":1350:1358  uint num */\n      dup1\n        /* \"chapter2/Random.sol\":1425:1437  block.number */\n      number\n        /* \"chapter2/Random.sol\":1405:1420  block.timestamp */\n      timestamp\n        /* \"chapter2/Random.sol\":1397:1401  key2 */\n      sload(0x04)\n        /* \"chapter2/Random.sol\":1387:1391  key1 */\n      0x03\n        /* \"chapter2/Random.sol\":1376:1392  abi.encode(key1) */\n      add(0x20, mload(0x40))\n      tag_50\n      swap2\n      swap1\n      tag_51\n      jump\t// in\n    tag_50:\n      mload(0x40)\n      0x20\n      dup2\n      dup4\n      sub\n      sub\n      dup2\n      mstore\n      swap1\n      0x40\n      mstore\n        /* \"chapter2/Random.sol\":1366:1393  keccak256(abi.encode(key1)) */\n      dup1\n      mload\n      swap1\n      0x20\n      add\n      keccak256\n        /* \"chapter2/Random.sol\":1361:1394  uint(keccak256(abi.encode(key1))) */\n      0x00\n      shr\n        /* \"chapter2/Random.sol\":1361:1401  uint(keccak256(abi.encode(key1))) + key2 */\n      tag_52\n      swap2\n      swap1\n      tag_53\n      jump\t// in\n    tag_52:\n        /* \"chapter2/Random.sol\":1361:1421  uint(keccak256(abi.encode(key1))) + key2 + (block.timestamp) */\n      tag_54\n      swap2\n      swap1\n      tag_53\n      jump\t// in\n    tag_54:\n        /* \"chapter2/Random.sol\":1361:1438  uint(keccak256(abi.encode(key1))) + key2 + (block.timestamp) + (block.number) */\n      tag_55\n      swap2\n      swap1\n      tag_53\n      jump\t// in\n    tag_55:\n        /* \"chapter2/Random.sol\":1350:1438  uint num = uint(keccak256(abi.encode(key1))) + key2 + (block.timestamp) + (block.number) */\n      swap1\n      pop\n        /* \"chapter2/Random.sol\":1484:1485  1 */\n      0x01\n        /* \"chapter2/Random.sol\":1477:1479  10 */\n      0x0a\n        /* \"chapter2/Random.sol\":1471:1473  10 */\n      dup1\n        /* \"chapter2/Random.sol\":1465:1468  num */\n      dup4\n        /* \"chapter2/Random.sol\":1465:1473  num / 10 */\n      tag_56\n      swap2\n      swap1\n      tag_57\n      jump\t// in\n    tag_56:\n        /* \"chapter2/Random.sol\":1464:1479  (num / 10) * 10 */\n      tag_58\n      swap2\n      swap1\n      tag_59\n      jump\t// in\n    tag_58:\n        /* \"chapter2/Random.sol\":1457:1460  num */\n      dup3\n        /* \"chapter2/Random.sol\":1457:1480  num - ((num / 10) * 10) */\n      tag_60\n      swap2\n      swap1\n      tag_61\n      jump\t// in\n    tag_60:\n        /* \"chapter2/Random.sol\":1456:1485  (num - ((num / 10) * 10)) + 1 */\n      tag_62\n      swap2\n      swap1\n      tag_53\n      jump\t// in\n    tag_62:\n        /* \"chapter2/Random.sol\":1449:1485  return (num - ((num / 10) * 10)) + 1 */\n      swap2\n      pop\n      pop\n        /* \"chapter2/Random.sol\":1289:1492  function randomNumber() private view returns(uint) {... */\n      swap1\n      jump\t// out\n        /* \"chapter2/Random.sol\":535:561  uint public playNumber = 0 */\n    tag_31:\n      sload(0x06)\n      dup2\n      jump\t// out\n        /* \"chapter2/Random.sol\":508:529  uint public round = 1 */\n    tag_35:\n      sload(0x05)\n      dup2\n      jump\t// out\n        /* \"chapter2/Random.sol\":398:418  address public owner */\n    tag_39:\n      0x01\n      0x00\n      swap1\n      sload\n      swap1\n      0x0100\n      exp\n      swap1\n      div\n      0xffffffffffffffffffffffffffffffffffffffff\n      and\n      dup2\n      jump\t// out\n        /* \"chapter2/Random.sol\":325:391  mapping(uint256=> mapping(address => bool)) public paidAddressList */\n    tag_46:\n      mstore(0x20, 0x00)\n      dup2\n      0x00\n      mstore\n      mstore(0x20, keccak256(0x00, 0x40))\n      dup1\n      0x00\n      mstore\n      keccak256(0x00, 0x40)\n      0x00\n      swap2\n      pop\n      swap2\n      pop\n      swap1\n      sload\n      swap1\n      0x0100\n      exp\n      swap1\n      div\n      0xff\n      and\n      dup2\n      jump\t// out\n        /* \"#utility.yul\":7:176   */\n    tag_63:\n        /* \"#utility.yul\":91:102   */\n      0x00\n        /* \"#utility.yul\":125:131   */\n      dup3\n        /* \"#utility.yul\":120:123   */\n      dup3\n        /* \"#utility.yul\":113:132   */\n      mstore\n        /* \"#utility.yul\":165:169   */\n      0x20\n        /* \"#utility.yul\":160:163   */\n      dup3\n        /* \"#utility.yul\":156:170   */\n      add\n        /* \"#utility.yul\":141:170   */\n      swap1\n      pop\n        /* \"#utility.yul\":7:176   */\n      swap3\n      swap2\n      pop\n      pop\n      jump\t// out\n        /* \"#utility.yul\":182:350   */\n    tag_64:\n        /* \"#utility.yul\":322:342   */\n      0x4d757374626520302e3030312065746865720000000000000000000000000000\n        /* \"#utility.yul\":318:319   */\n      0x00\n        /* \"#utility.yul\":310:316   */\n      dup3\n        /* \"#utility.yul\":306:320   */\n      add\n        /* \"#utility.yul\":299:343   */\n      mstore\n        /* \"#utility.yul\":182:350   */\n      pop\n      jump\t// out\n        /* \"#utility.yul\":356:722   */\n    tag_65:\n        /* \"#utility.yul\":498:501   */\n      0x00\n        /* \"#utility.yul\":519:586   */\n      tag_95\n        /* \"#utility.yul\":583:585   */\n      0x12\n        /* \"#utility.yul\":578:581   */\n      dup4\n        /* \"#utility.yul\":519:586   */\n      tag_63\n      jump\t// in\n    tag_95:\n        /* \"#utility.yul\":512:586   */\n      swap2\n      pop\n        /* \"#utility.yul\":595:688   */\n      tag_96\n        /* \"#utility.yul\":684:687   */\n      dup3\n        /* \"#utility.yul\":595:688   */\n      tag_64\n      jump\t// in\n    tag_96:\n        /* \"#utility.yul\":713:715   */\n      0x20\n        /* \"#utility.yul\":708:711   */\n      dup3\n        /* \"#utility.yul\":704:716   */\n      add\n        /* \"#utility.yul\":697:716   */\n      swap1\n      pop\n        /* \"#utility.yul\":356:722   */\n      swap2\n      swap1\n      pop\n      jump\t// out\n        /* \"#utility.yul\":728:1147   */\n    tag_11:\n        /* \"#utility.yul\":894:898   */\n      0x00\n        /* \"#utility.yul\":932:934   */\n      0x20\n        /* \"#utility.yul\":921:930   */\n      dup3\n        /* \"#utility.yul\":917:935   */\n      add\n        /* \"#utility.yul\":909:935   */\n      swap1\n      pop\n        /* \"#utility.yul\":981:990   */\n      dup2\n        /* \"#utility.yul\":975:979   */\n      dup2\n        /* \"#utility.yul\":971:991   */\n      sub\n        /* \"#utility.yul\":967:968   */\n      0x00\n        /* \"#utility.yul\":956:965   */\n      dup4\n        /* \"#utility.yul\":952:969   */\n      add\n        /* \"#utility.yul\":945:992   */\n      mstore\n        /* \"#utility.yul\":1009:1140   */\n      tag_98\n        /* \"#utility.yul\":1135:1139   */\n      dup2\n        /* \"#utility.yul\":1009:1140   */\n      tag_65\n      jump\t// in\n    tag_98:\n        /* \"#utility.yul\":1001:1140   */\n      swap1\n      pop\n        /* \"#utility.yul\":728:1147   */\n      swap2\n      swap1\n      pop\n      jump\t// out\n        /* \"#utility.yul\":1153:1333   */\n    tag_66:\n        /* \"#utility.yul\":1201:1278   */\n      0x4e487b7100000000000000000000000000000000000000000000000000000000\n        /* \"#utility.yul\":1198:1199   */\n      0x00\n        /* \"#utility.yul\":1191:1279   */\n      mstore\n        /* \"#utility.yul\":1298:1302   */\n      0x11\n        /* \"#utility.yul\":1295:1296   */\n      0x04\n        /* \"#utility.yul\":1288:1303   */\n      mstore\n        /* \"#utility.yul\":1322:1326   */\n      0x24\n        /* \"#utility.yul\":1319:1320   */\n      0x00\n        /* \"#utility.yul\":1312:1327   */\n      revert\n        /* \"#utility.yul\":1339:1416   */\n    tag_67:\n        /* \"#utility.yul\":1376:1383   */\n      0x00\n        /* \"#utility.yul\":1405:1410   */\n      dup2\n        /* \"#utility.yul\":1394:1410   */\n      swap1\n      pop\n        /* \"#utility.yul\":1339:1416   */\n      swap2\n      swap1\n      pop\n      jump\t// out\n        /* \"#utility.yul\":1422:1655   */\n    tag_13:\n        /* \"#utility.yul\":1461:1464   */\n      0x00\n        /* \"#utility.yul\":1484:1508   */\n      tag_102\n        /* \"#utility.yul\":1502:1507   */\n      dup3\n        /* \"#utility.yul\":1484:1508   */\n      tag_67\n      jump\t// in\n    tag_102:\n        /* \"#utility.yul\":1475:1508   */\n      swap2\n      pop\n        /* \"#utility.yul\":1530:1596   */\n      0xffffffffffffffffffffffffffffffffffffffffffffffffffffffffffffffff\n        /* \"#utility.yul\":1523:1528   */\n      dup3\n        /* \"#utility.yul\":1520:1597   */\n      sub\n        /* \"#utility.yul\":1517:1620   */\n      tag_103\n      jumpi\n        /* \"#utility.yul\":1600:1618   */\n      tag_104\n      tag_66\n      jump\t// in\n    tag_104:\n        /* \"#utility.yul\":1517:1620   */\n    tag_103:\n        /* \"#utility.yul\":1647:1648   */\n      0x01\n        /* \"#utility.yul\":1640:1645   */\n      dup3\n        /* \"#utility.yul\":1636:1649   */\n      add\n        /* \"#utility.yul\":1629:1649   */\n      swap1\n      pop\n        /* \"#utility.yul\":1422:1655   */\n      swap2\n      swap1\n      pop\n      jump\t// out\n        /* \"#utility.yul\":1661:1808   */\n    tag_68:\n        /* \"#utility.yul\":1762:1773   */\n      0x00\n        /* \"#utility.yul\":1799:1802   */\n      dup2\n        /* \"#utility.yul\":1784:1802   */\n      swap1\n      pop\n        /* \"#utility.yul\":1661:1808   */\n      swap3\n      swap2\n      pop\n      pop\n      jump\t// out\n        /* \"#utility.yul\":1814:1928   */\n    tag_69:\n      pop\n      jump\t// out\n        /* \"#utility.yul\":1934:2332   */\n    tag_70:\n        /* \"#utility.yul\":2093:2096   */\n      0x00\n        /* \"#utility.yul\":2114:2197   */\n      tag_108\n        /* \"#utility.yul\":2195:2196   */\n      0x00\n        /* \"#utility.yul\":2190:2193   */\n      dup4\n        /* \"#utility.yul\":2114:2197   */\n      tag_68\n      jump\t// in\n    tag_108:\n        /* \"#utility.yul\":2107:2197   */\n      swap2\n      pop\n        /* \"#utility.yul\":2206:2299   */\n      tag_109\n        /* \"#utility.yul\":2295:2298   */\n      dup3\n        /* \"#utility.yul\":2206:2299   */\n      tag_69\n      jump\t// in\n    tag_109:\n        /* \"#utility.yul\":2324:2325   */\n      0x00\n        /* \"#utility.yul\":2319:2322   */\n      dup3\n        /* \"#utility.yul\":2315:2326   */\n      add\n        /* \"#utility.yul\":2308:2326   */\n      swap1\n      pop\n        /* \"#utility.yul\":1934:2332   */\n      swap2\n      swap1\n      pop\n      jump\t// out\n        /* \"#utility.yul\":2338:2717   */\n    tag_16:\n        /* \"#utility.yul\":2522:2525   */\n      0x00\n        /* \"#utility.yul\":2544:2691   */\n      tag_111\n        /* \"#utility.yul\":2687:2690   */\n      dup3\n        /* \"#utility.yul\":2544:2691   */\n      tag_70\n      jump\t// in\n    tag_111:\n        /* \"#utility.yul\":2537:2691   */\n      swap2\n      pop\n        /* \"#utility.yul\":2708:2711   */\n      dup2\n        /* \"#utility.yul\":2701:2711   */\n      swap1\n      pop\n        /* \"#utility.yul\":2338:2717   */\n      swap2\n      swap1\n      pop\n      jump\t// out\n        /* \"#utility.yul\":2723:2879   */\n    tag_71:\n        /* \"#utility.yul\":2863:2871   */\n      0x4661696c65640000000000000000000000000000000000000000000000000000\n        /* \"#utility.yul\":2859:2860   */\n      0x00\n        /* \"#utility.yul\":2851:2857   */\n      dup3\n        /* \"#utility.yul\":2847:2861   */\n      add\n        /* \"#utility.yul\":2840:2872   */\n      mstore\n        /* \"#utility.yul\":2723:2879   */\n      pop\n      jump\t// out\n        /* \"#utility.yul\":2885:3250   */\n    tag_72:\n        /* \"#utility.yul\":3027:3030   */\n      0x00\n        /* \"#utility.yul\":3048:3114   */\n      tag_114\n        /* \"#utility.yul\":3112:3113   */\n      0x06\n        /* \"#utility.yul\":3107:3110   */\n      dup4\n        /* \"#utility.yul\":3048:3114   */\n      tag_63\n      jump\t// in\n    tag_114:\n        /* \"#utility.yul\":3041:3114   */\n      swap2\n      pop\n        /* \"#utility.yul\":3123:3216   */\n      tag_115\n        /* \"#utility.yul\":3212:3215   */\n      dup3\n        /* \"#utility.yul\":3123:3216   */\n      tag_71\n      jump\t// in\n    tag_115:\n        /* \"#utility.yul\":3241:3243   */\n      0x20\n        /* \"#utility.yul\":3236:3239   */\n      dup3\n        /* \"#utility.yul\":3232:3244   */\n      add\n        /* \"#utility.yul\":3225:3244   */\n      swap1\n      pop\n        /* \"#utility.yul\":2885:3250   */\n      swap2\n      swap1\n      pop\n      jump\t// out\n        /* \"#utility.yul\":3256:3675   */\n    tag_22:\n        /* \"#utility.yul\":3422:3426   */\n      0x00\n        /* \"#utility.yul\":3460:3462   */\n      0x20\n        /* \"#utility.yul\":3449:3458   */\n      dup3\n        /* \"#utility.yul\":3445:3463   */\n      add\n        /* \"#utility.yul\":3437:3463   */\n      swap1\n      pop\n        /* \"#utility.yul\":3509:3518   */\n      dup2\n        /* \"#utility.yul\":3503:3507   */\n      dup2\n        /* \"#utility.yul\":3499:3519   */\n      sub\n        /* \"#utility.yul\":3495:3496   */\n      0x00\n        /* \"#utility.yul\":3484:3493   */\n      dup4\n        /* \"#utility.yul\":3480:3497   */\n      add\n        /* \"#utility.yul\":3473:3520   */\n      mstore\n        /* \"#utility.yul\":3537:3668   */\n      tag_117\n        /* \"#utility.yul\":3663:3667   */\n      dup2\n        /* \"#utility.yul\":3537:3668   */\n      tag_72\n      jump\t// in\n    tag_117:\n        /* \"#utility.yul\":3529:3668   */\n      swap1\n      pop\n        /* \"#utility.yul\":3256:3675   */\n      swap2\n      swap1\n      pop\n      jump\t// out\n        /* \"#utility.yul\":3681:3799   */\n    tag_73:\n        /* \"#utility.yul\":3768:3792   */\n      tag_119\n        /* \"#utility.yul\":3786:3791   */\n      dup2\n        /* \"#utility.yul\":3768:3792   */\n      tag_67\n      jump\t// in\n    tag_119:\n        /* \"#utility.yul\":3763:3766   */\n      dup3\n        /* \"#utility.yul\":3756:3793   */\n      mstore\n        /* \"#utility.yul\":3681:3799   */\n      pop\n      pop\n      jump\t// out\n        /* \"#utility.yul\":3805:4027   */\n    tag_28:\n        /* \"#utility.yul\":3898:3902   */\n      0x00\n        /* \"#utility.yul\":3936:3938   */\n      0x20\n        /* \"#utility.yul\":3925:3934   */\n      dup3\n        /* \"#utility.yul\":3921:3939   */\n      add\n        /* \"#utility.yul\":3913:3939   */\n      swap1\n      pop\n        /* \"#utility.yul\":3949:4020   */\n      tag_121\n        /* \"#utility.yul\":4017:4018   */\n      0x00\n        /* \"#utility.yul\":4006:4015   */\n      dup4\n        /* \"#utility.yul\":4002:4019   */\n      add\n        /* \"#utility.yul\":3993:3999   */\n      dup5\n        /* \"#utility.yul\":3949:4020   */\n      tag_73\n      jump\t// in\n    tag_121:\n        /* \"#utility.yul\":3805:4027   */\n      swap3\n      swap2\n      pop\n      pop\n      jump\t// out\n        /* \"#utility.yul\":4033:4159   */\n    tag_74:\n        /* \"#utility.yul\":4070:4077   */\n      0x00\n        /* \"#utility.yul\":4110:4152   */\n      0xffffffffffffffffffffffffffffffffffffffff\n        /* \"#utility.yul\":4103:4108   */\n      dup3\n        /* \"#utility.yul\":4099:4153   */\n      and\n        /* \"#utility.yul\":4088:4153   */\n      swap1\n      pop\n        /* \"#utility.yul\":4033:4159   */\n      swap2\n      swap1\n      pop\n      jump\t// out\n        /* \"#utility.yul\":4165:4261   */\n    tag_75:\n        /* \"#utility.yul\":4202:4209   */\n      0x00\n        /* \"#utility.yul\":4231:4255   */\n      tag_124\n        /* \"#utility.yul\":4249:4254   */\n      dup3\n        /* \"#utility.yul\":4231:4255   */\n      tag_74\n      jump\t// in\n    tag_124:\n        /* \"#utility.yul\":4220:4255   */\n      swap1\n      pop\n        /* \"#utility.yul\":4165:4261   */\n      swap2\n      swap1\n      pop\n      jump\t// out\n        /* \"#utility.yul\":4267:4385   */\n    tag_76:\n        /* \"#utility.yul\":4354:4378   */\n      tag_126\n        /* \"#utility.yul\":4372:4377   */\n      dup2\n        /* \"#utility.yul\":4354:4378   */\n      tag_75\n      jump\t// in\n    tag_126:\n        /* \"#utility.yul\":4349:4352   */\n      dup3\n        /* \"#utility.yul\":4342:4379   */\n      mstore\n        /* \"#utility.yul\":4267:4385   */\n      pop\n      pop\n      jump\t// out\n        /* \"#utility.yul\":4391:4613   */\n    tag_41:\n        /* \"#utility.yul\":4484:4488   */\n      0x00\n        /* \"#utility.yul\":4522:4524   */\n      0x20\n        /* \"#utility.yul\":4511:4520   */\n      dup3\n        /* \"#utility.yul\":4507:4525   */\n      add\n        /* \"#utility.yul\":4499:4525   */\n      swap1\n      pop\n        /* \"#utility.yul\":4535:4606   */\n      tag_128\n        /* \"#utility.yul\":4603:4604   */\n      0x00\n        /* \"#utility.yul\":4592:4601   */\n      dup4\n        /* \"#utility.yul\":4588:4605   */\n      add\n        /* \"#utility.yul\":4579:4585   */\n      dup5\n        /* \"#utility.yul\":4535:4606   */\n      tag_76\n      jump\t// in\n    tag_128:\n        /* \"#utility.yul\":4391:4613   */\n      swap3\n      swap2\n      pop\n      pop\n      jump\t// out\n        /* \"#utility.yul\":4700:4817   */\n    tag_78:\n        /* \"#utility.yul\":4809:4810   */\n      0x00\n        /* \"#utility.yul\":4806:4807   */\n      dup1\n        /* \"#utility.yul\":4799:4811   */\n      revert\n        /* \"#utility.yul\":4946:5068   */\n    tag_80:\n        /* \"#utility.yul\":5019:5043   */\n      tag_133\n        /* \"#utility.yul\":5037:5042   */\n      dup2\n        /* \"#utility.yul\":5019:5043   */\n      tag_67\n      jump\t// in\n    tag_133:\n        /* \"#utility.yul\":5012:5017   */\n      dup2\n        /* \"#utility.yul\":5009:5044   */\n      eq\n        /* \"#utility.yul\":4999:5062   */\n      tag_134\n      jumpi\n        /* \"#utility.yul\":5058:5059   */\n      0x00\n        /* \"#utility.yul\":5055:5056   */\n      dup1\n        /* \"#utility.yul\":5048:5060   */\n      revert\n        /* \"#utility.yul\":4999:5062   */\n    tag_134:\n        /* \"#utility.yul\":4946:5068   */\n      pop\n      jump\t// out\n        /* \"#utility.yul\":5074:5213   */\n    tag_81:\n        /* \"#utility.yul\":5120:5125   */\n      0x00\n        /* \"#utility.yul\":5158:5164   */\n      dup2\n        /* \"#utility.yul\":5145:5165   */\n      calldataload\n        /* \"#utility.yul\":5136:5165   */\n      swap1\n      pop\n        /* \"#utility.yul\":5174:5207   */\n      tag_136\n        /* \"#utility.yul\":5201:5206   */\n      dup2\n        /* \"#utility.yul\":5174:5207   */\n      tag_80\n      jump\t// in\n    tag_136:\n        /* \"#utility.yul\":5074:5213   */\n      swap3\n      swap2\n      pop\n      pop\n      jump\t// out\n        /* \"#utility.yul\":5219:5341   */\n    tag_82:\n        /* \"#utility.yul\":5292:5316   */\n      tag_138\n        /* \"#utility.yul\":5310:5315   */\n      dup2\n        /* \"#utility.yul\":5292:5316   */\n      tag_75\n      jump\t// in\n    tag_138:\n        /* \"#utility.yul\":5285:5290   */\n      dup2\n        /* \"#utility.yul\":5282:5317   */\n      eq\n        /* \"#utility.yul\":5272:5335   */\n      tag_139\n      jumpi\n        /* \"#utility.yul\":5331:5332   */\n      0x00\n        /* \"#utility.yul\":5328:5329   */\n      dup1\n        /* \"#utility.yul\":5321:5333   */\n      revert\n        /* \"#utility.yul\":5272:5335   */\n    tag_139:\n        /* \"#utility.yul\":5219:5341   */\n      pop\n      jump\t// out\n        /* \"#utility.yul\":5347:5486   */\n    tag_83:\n        /* \"#utility.yul\":5393:5398   */\n      0x00\n        /* \"#utility.yul\":5431:5437   */\n      dup2\n        /* \"#utility.yul\":5418:5438   */\n      calldataload\n        /* \"#utility.yul\":5409:5438   */\n      swap1\n      pop\n        /* \"#utility.yul\":5447:5480   */\n      tag_141\n        /* \"#utility.yul\":5474:5479   */\n      dup2\n        /* \"#utility.yul\":5447:5480   */\n      tag_82\n      jump\t// in\n    tag_141:\n        /* \"#utility.yul\":5347:5486   */\n      swap3\n      swap2\n      pop\n      pop\n      jump\t// out\n        /* \"#utility.yul\":5492:5966   */\n    tag_45:\n        /* \"#utility.yul\":5560:5566   */\n      0x00\n        /* \"#utility.yul\":5568:5574   */\n      dup1\n        /* \"#utility.yul\":5617:5619   */\n      0x40\n        /* \"#utility.yul\":5605:5614   */\n      dup4\n        /* \"#utility.yul\":5596:5603   */\n      dup6\n        /* \"#utility.yul\":5592:5615   */\n      sub\n        /* \"#utility.yul\":5588:5620   */\n      slt\n        /* \"#utility.yul\":5585:5704   */\n      iszero\n      tag_143\n      jumpi\n        /* \"#utility.yul\":5623:5702   */\n      tag_144\n      tag_78\n      jump\t// in\n    tag_144:\n        /* \"#utility.yul\":5585:5704   */\n    tag_143:\n        /* \"#utility.yul\":5743:5744   */\n      0x00\n        /* \"#utility.yul\":5768:5821   */\n      tag_145\n        /* \"#utility.yul\":5813:5820   */\n      dup6\n        /* \"#utility.yul\":5804:5810   */\n      dup3\n        /* \"#utility.yul\":5793:5802   */\n      dup7\n        /* \"#utility.yul\":5789:5811   */\n      add\n        /* \"#utility.yul\":5768:5821   */\n      tag_81\n      jump\t// in\n    tag_145:\n        /* \"#utility.yul\":5758:5821   */\n      swap3\n      pop\n        /* \"#utility.yul\":5714:5831   */\n      pop\n        /* \"#utility.yul\":5870:5872   */\n      0x20\n        /* \"#utility.yul\":5896:5949   */\n      tag_146\n        /* \"#utility.yul\":5941:5948   */\n      dup6\n        /* \"#utility.yul\":5932:5938   */\n      dup3\n        /* \"#utility.yul\":5921:5930   */\n      dup7\n        /* \"#utility.yul\":5917:5939   */\n      add\n        /* \"#utility.yul\":5896:5949   */\n      tag_83\n      jump\t// in\n    tag_146:\n        /* \"#utility.yul\":5886:5949   */\n      swap2\n      pop\n        /* \"#utility.yul\":5841:5959   */\n      pop\n        /* \"#utility.yul\":5492:5966   */\n      swap3\n      pop\n      swap3\n      swap1\n      pop\n      jump\t// out\n        /* \"#utility.yul\":5972:6062   */\n    tag_84:\n        /* \"#utility.yul\":6006:6013   */\n      0x00\n        /* \"#utility.yul\":6049:6054   */\n      dup2\n        /* \"#utility.yul\":6042:6055   */\n      iszero\n        /* \"#utility.yul\":6035:6056   */\n      iszero\n        /* \"#utility.yul\":6024:6056   */\n      swap1\n      pop\n        /* \"#utility.yul\":5972:6062   */\n      swap2\n      swap1\n      pop\n      jump\t// out\n        /* \"#utility.yul\":6068:6177   */\n    tag_85:\n        /* \"#utility.yul\":6149:6170   */\n      tag_149\n        /* \"#utility.yul\":6164:6169   */\n      dup2\n        /* \"#utility.yul\":6149:6170   */\n      tag_84\n      jump\t// in\n    tag_149:\n        /* \"#utility.yul\":6144:6147   */\n      dup3\n        /* \"#utility.yul\":6137:6171   */\n      mstore\n        /* \"#utility.yul\":6068:6177   */\n      pop\n      pop\n      jump\t// out\n        /* \"#utility.yul\":6183:6393   */\n    tag_48:\n        /* \"#utility.yul\":6270:6274   */\n      0x00\n        /* \"#utility.yul\":6308:6310   */\n      0x20\n        /* \"#utility.yul\":6297:6306   */\n      dup3\n        /* \"#utility.yul\":6293:6311   */\n      add\n        /* \"#utility.yul\":6285:6311   */\n      swap1\n      pop\n        /* \"#utility.yul\":6321:6386   */\n      tag_151\n        /* \"#utility.yul\":6383:6384   */\n      0x00\n        /* \"#utility.yul\":6372:6381   */\n      dup4\n        /* \"#utility.yul\":6368:6385   */\n      add\n        /* \"#utility.yul\":6359:6365   */\n      dup5\n        /* \"#utility.yul\":6321:6386   */\n      tag_85\n      jump\t// in\n    tag_151:\n        /* \"#utility.yul\":6183:6393   */\n      swap3\n      swap2\n      pop\n      pop\n      jump\t// out\n        /* \"#utility.yul\":6399:6579   */\n    tag_86:\n        /* \"#utility.yul\":6447:6524   */\n      0x4e487b7100000000000000000000000000000000000000000000000000000000\n        /* \"#utility.yul\":6444:6445   */\n      0x00\n        /* \"#utility.yul\":6437:6525   */\n      mstore\n        /* \"#utility.yul\":6544:6548   */\n      0x22\n        /* \"#utility.yul\":6541:6542   */\n      0x04\n        /* \"#utility.yul\":6534:6549   */\n      mstore\n        /* \"#utility.yul\":6568:6572   */\n      0x24\n        /* \"#utility.yul\":6565:6566   */\n      0x00\n        /* \"#utility.yul\":6558:6573   */\n      revert\n        /* \"#utility.yul\":6585:6905   */\n    tag_87:\n        /* \"#utility.yul\":6629:6635   */\n      0x00\n        /* \"#utility.yul\":6666:6667   */\n      0x02\n        /* \"#utility.yul\":6660:6664   */\n      dup3\n        /* \"#utility.yul\":6656:6668   */\n      div\n        /* \"#utility.yul\":6646:6668   */\n      swap1\n      pop\n        /* \"#utility.yul\":6713:6714   */\n      0x01\n        /* \"#utility.yul\":6707:6711   */\n      dup3\n        /* \"#utility.yul\":6703:6715   */\n      and\n        /* \"#utility.yul\":6734:6752   */\n      dup1\n        /* \"#utility.yul\":6724:6805   */\n      tag_154\n      jumpi\n        /* \"#utility.yul\":6790:6794   */\n      0x7f\n        /* \"#utility.yul\":6782:6788   */\n      dup3\n        /* \"#utility.yul\":6778:6795   */\n      and\n        /* \"#utility.yul\":6768:6795   */\n      swap2\n      pop\n        /* \"#utility.yul\":6724:6805   */\n    tag_154:\n        /* \"#utility.yul\":6852:6854   */\n      0x20\n        /* \"#utility.yul\":6844:6850   */\n      dup3\n        /* \"#utility.yul\":6841:6855   */\n      lt\n        /* \"#utility.yul\":6821:6839   */\n      dup2\n        /* \"#utility.yul\":6818:6856   */\n      sub\n        /* \"#utility.yul\":6815:6899   */\n      tag_155\n      jumpi\n        /* \"#utility.yul\":6871:6889   */\n      tag_156\n      tag_86\n      jump\t// in\n    tag_156:\n        /* \"#utility.yul\":6815:6899   */\n    tag_155:\n        /* \"#utility.yul\":6636:6905   */\n      pop\n        /* \"#utility.yul\":6585:6905   */\n      swap2\n      swap1\n      pop\n      jump\t// out\n        /* \"#utility.yul\":6911:7052   */\n    tag_88:\n        /* \"#utility.yul\":6960:6964   */\n      0x00\n        /* \"#utility.yul\":6983:6986   */\n      dup2\n        /* \"#utility.yul\":6975:6986   */\n      swap1\n      pop\n        /* \"#utility.yul\":7006:7009   */\n      dup2\n        /* \"#utility.yul\":7003:7004   */\n      0x00\n        /* \"#utility.yul\":6996:7010   */\n      mstore\n        /* \"#utility.yul\":7040:7044   */\n      0x20\n        /* \"#utility.yul\":7037:7038   */\n      0x00\n        /* \"#utility.yul\":7027:7045   */\n      keccak256\n        /* \"#utility.yul\":7019:7045   */\n      swap1\n      pop\n        /* \"#utility.yul\":6911:7052   */\n      swap2\n      swap1\n      pop\n      jump\t// out\n        /* \"#utility.yul\":7082:7913   */\n    tag_89:\n        /* \"#utility.yul\":7167:7170   */\n      0x00\n        /* \"#utility.yul\":7204:7209   */\n      dup2\n        /* \"#utility.yul\":7198:7210   */\n      sload\n        /* \"#utility.yul\":7233:7269   */\n      tag_159\n        /* \"#utility.yul\":7259:7268   */\n      dup2\n        /* \"#utility.yul\":7233:7269   */\n      tag_87\n      jump\t// in\n    tag_159:\n        /* \"#utility.yul\":7285:7356   */\n      tag_160\n        /* \"#utility.yul\":7349:7355   */\n      dup2\n        /* \"#utility.yul\":7344:7347   */\n      dup7\n        /* \"#utility.yul\":7285:7356   */\n      tag_63\n      jump\t// in\n    tag_160:\n        /* \"#utility.yul\":7278:7356   */\n      swap5\n      pop\n        /* \"#utility.yul\":7387:7388   */\n      0x01\n        /* \"#utility.yul\":7376:7385   */\n      dup3\n        /* \"#utility.yul\":7372:7389   */\n      and\n        /* \"#utility.yul\":7403:7404   */\n      0x00\n        /* \"#utility.yul\":7398:7562   */\n      dup2\n      eq\n      tag_162\n      jumpi\n        /* \"#utility.yul\":7576:7577   */\n      0x01\n        /* \"#utility.yul\":7571:7907   */\n      dup2\n      eq\n      tag_163\n      jumpi\n        /* \"#utility.yul\":7365:7907   */\n      jump(tag_161)\n        /* \"#utility.yul\":7398:7562   */\n    tag_162:\n        /* \"#utility.yul\":7482:7486   */\n      0xff\n        /* \"#utility.yul\":7478:7487   */\n      not\n        /* \"#utility.yul\":7467:7476   */\n      dup4\n        /* \"#utility.yul\":7463:7488   */\n      and\n        /* \"#utility.yul\":7458:7461   */\n      dup7\n        /* \"#utility.yul\":7451:7489   */\n      mstore\n        /* \"#utility.yul\":7542:7548   */\n      dup2\n        /* \"#utility.yul\":7535:7549   */\n      iszero\n        /* \"#utility.yul\":7528:7550   */\n      iszero\n        /* \"#utility.yul\":7522:7526   */\n      0x20\n        /* \"#utility.yul\":7518:7551   */\n      mul\n        /* \"#utility.yul\":7513:7516   */\n      dup7\n        /* \"#utility.yul\":7509:7552   */\n      add\n        /* \"#utility.yul\":7502:7552   */\n      swap4\n      pop\n        /* \"#utility.yul\":7398:7562   */\n      jump(tag_161)\n        /* \"#utility.yul\":7571:7907   */\n    tag_163:\n        /* \"#utility.yul\":7638:7676   */\n      tag_164\n        /* \"#utility.yul\":7670:7675   */\n      dup6\n        /* \"#utility.yul\":7638:7676   */\n      tag_88\n      jump\t// in\n    tag_164:\n        /* \"#utility.yul\":7698:7699   */\n      0x00\n        /* \"#utility.yul\":7712:7866   */\n    tag_165:\n        /* \"#utility.yul\":7726:7732   */\n      dup4\n        /* \"#utility.yul\":7723:7724   */\n      dup2\n        /* \"#utility.yul\":7720:7733   */\n      lt\n        /* \"#utility.yul\":7712:7866   */\n      iszero\n      tag_167\n      jumpi\n        /* \"#utility.yul\":7800:7807   */\n      dup2\n        /* \"#utility.yul\":7794:7808   */\n      sload\n        /* \"#utility.yul\":7790:7791   */\n      dup2\n        /* \"#utility.yul\":7785:7788   */\n      dup10\n        /* \"#utility.yul\":7781:7792   */\n      add\n        /* \"#utility.yul\":7774:7809   */\n      mstore\n        /* \"#utility.yul\":7850:7851   */\n      0x01\n        /* \"#utility.yul\":7841:7848   */\n      dup3\n        /* \"#utility.yul\":7837:7852   */\n      add\n        /* \"#utility.yul\":7826:7852   */\n      swap2\n      pop\n        /* \"#utility.yul\":7748:7752   */\n      0x20\n        /* \"#utility.yul\":7745:7746   */\n      dup2\n        /* \"#utility.yul\":7741:7753   */\n      add\n        /* \"#utility.yul\":7736:7753   */\n      swap1\n      pop\n        /* \"#utility.yul\":7712:7866   */\n      jump(tag_165)\n    tag_167:\n        /* \"#utility.yul\":7895:7896   */\n      dup1\n        /* \"#utility.yul\":7890:7893   */\n      dup9\n        /* \"#utility.yul\":7886:7897   */\n      add\n        /* \"#utility.yul\":7879:7897   */\n      swap6\n      pop\n        /* \"#utility.yul\":7578:7907   */\n      pop\n      pop\n        /* \"#utility.yul\":7365:7907   */\n    tag_161:\n      pop\n        /* \"#utility.yul\":7171:7913   */\n      pop\n      pop\n        /* \"#utility.yul\":7082:7913   */\n      swap3\n      swap2\n      pop\n      pop\n      jump\t// out\n        /* \"#utility.yul\":7919:8226   */\n    tag_51:\n        /* \"#utility.yul\":8029:8033   */\n      0x00\n        /* \"#utility.yul\":8067:8069   */\n      0x20\n        /* \"#utility.yul\":8056:8065   */\n      dup3\n        /* \"#utility.yul\":8052:8070   */\n      add\n        /* \"#utility.yul\":8044:8070   */\n      swap1\n      pop\n        /* \"#utility.yul\":8116:8125   */\n      dup2\n        /* \"#utility.yul\":8110:8114   */\n      dup2\n        /* \"#utility.yul\":8106:8126   */\n      sub\n        /* \"#utility.yul\":8102:8103   */\n      0x00\n        /* \"#utility.yul\":8091:8100   */\n      dup4\n        /* \"#utility.yul\":8087:8104   */\n      add\n        /* \"#utility.yul\":8080:8127   */\n      mstore\n        /* \"#utility.yul\":8144:8219   */\n      tag_169\n        /* \"#utility.yul\":8214:8218   */\n      dup2\n        /* \"#utility.yul\":8205:8211   */\n      dup5\n        /* \"#utility.yul\":8144:8219   */\n      tag_89\n      jump\t// in\n    tag_169:\n        /* \"#utility.yul\":8136:8219   */\n      swap1\n      pop\n        /* \"#utility.yul\":7919:8226   */\n      swap3\n      swap2\n      pop\n      pop\n      jump\t// out\n        /* \"#utility.yul\":8232:8423   */\n    tag_53:\n        /* \"#utility.yul\":8272:8275   */\n      0x00\n        /* \"#utility.yul\":8291:8311   */\n      tag_171\n        /* \"#utility.yul\":8309:8310   */\n      dup3\n        /* \"#utility.yul\":8291:8311   */\n      tag_67\n      jump\t// in\n    tag_171:\n        /* \"#utility.yul\":8286:8311   */\n      swap2\n      pop\n        /* \"#utility.yul\":8325:8345   */\n      tag_172\n        /* \"#utility.yul\":8343:8344   */\n      dup4\n        /* \"#utility.yul\":8325:8345   */\n      tag_67\n      jump\t// in\n    tag_172:\n        /* \"#utility.yul\":8320:8345   */\n      swap3\n      pop\n        /* \"#utility.yul\":8368:8369   */\n      dup3\n        /* \"#utility.yul\":8365:8366   */\n      dup3\n        /* \"#utility.yul\":8361:8370   */\n      add\n        /* \"#utility.yul\":8354:8370   */\n      swap1\n      pop\n        /* \"#utility.yul\":8389:8392   */\n      dup1\n        /* \"#utility.yul\":8386:8387   */\n      dup3\n        /* \"#utility.yul\":8383:8393   */\n      gt\n        /* \"#utility.yul\":8380:8416   */\n      iszero\n      tag_173\n      jumpi\n        /* \"#utility.yul\":8396:8414   */\n      tag_174\n      tag_66\n      jump\t// in\n    tag_174:\n        /* \"#utility.yul\":8380:8416   */\n    tag_173:\n        /* \"#utility.yul\":8232:8423   */\n      swap3\n      swap2\n      pop\n      pop\n      jump\t// out\n        /* \"#utility.yul\":8429:8609   */\n    tag_90:\n        /* \"#utility.yul\":8477:8554   */\n      0x4e487b7100000000000000000000000000000000000000000000000000000000\n        /* \"#utility.yul\":8474:8475   */\n      0x00\n        /* \"#utility.yul\":8467:8555   */\n      mstore\n        /* \"#utility.yul\":8574:8578   */\n      0x12\n        /* \"#utility.yul\":8571:8572   */\n      0x04\n        /* \"#utility.yul\":8564:8579   */\n      mstore\n        /* \"#utility.yul\":8598:8602   */\n      0x24\n        /* \"#utility.yul\":8595:8596   */\n      0x00\n        /* \"#utility.yul\":8588:8603   */\n      revert\n        /* \"#utility.yul\":8615:8800   */\n    tag_57:\n        /* \"#utility.yul\":8655:8656   */\n      0x00\n        /* \"#utility.yul\":8672:8692   */\n      tag_177\n        /* \"#utility.yul\":8690:8691   */\n      dup3\n        /* \"#utility.yul\":8672:8692   */\n      tag_67\n      jump\t// in\n    tag_177:\n        /* \"#utility.yul\":8667:8692   */\n      swap2\n      pop\n        /* \"#utility.yul\":8706:8726   */\n      tag_178\n        /* \"#utility.yul\":8724:8725   */\n      dup4\n        /* \"#utility.yul\":8706:8726   */\n      tag_67\n      jump\t// in\n    tag_178:\n        /* \"#utility.yul\":8701:8726   */\n      swap3\n      pop\n        /* \"#utility.yul\":8745:8746   */\n      dup3\n        /* \"#utility.yul\":8735:8770   */\n      tag_179\n      jumpi\n        /* \"#utility.yul\":8750:8768   */\n      tag_180\n      tag_90\n      jump\t// in\n    tag_180:\n        /* \"#utility.yul\":8735:8770   */\n    tag_179:\n        /* \"#utility.yul\":8792:8793   */\n      dup3\n        /* \"#utility.yul\":8789:8790   */\n      dup3\n        /* \"#utility.yul\":8785:8794   */\n      div\n        /* \"#utility.yul\":8780:8794   */\n      swap1\n      pop\n        /* \"#utility.yul\":8615:8800   */\n      swap3\n      swap2\n      pop\n      pop\n      jump\t// out\n        /* \"#utility.yul\":8806:9216   */\n    tag_59:\n        /* \"#utility.yul\":8846:8853   */\n      0x00\n        /* \"#utility.yul\":8869:8889   */\n      tag_182\n        /* \"#utility.yul\":8887:8888   */\n      dup3\n        /* \"#utility.yul\":8869:8889   */\n      tag_67\n      jump\t// in\n    tag_182:\n        /* \"#utility.yul\":8864:8889   */\n      swap2\n      pop\n        /* \"#utility.yul\":8903:8923   */\n      tag_183\n        /* \"#utility.yul\":8921:8922   */\n      dup4\n        /* \"#utility.yul\":8903:8923   */\n      tag_67\n      jump\t// in\n    tag_183:\n        /* \"#utility.yul\":8898:8923   */\n      swap3\n      pop\n        /* \"#utility.yul\":8958:8959   */\n      dup3\n        /* \"#utility.yul\":8955:8956   */\n      dup3\n        /* \"#utility.yul\":8951:8960   */\n      mul\n        /* \"#utility.yul\":8980:9010   */\n      tag_184\n        /* \"#utility.yul\":8998:9009   */\n      dup2\n        /* \"#utility.yul\":8980:9010   */\n      tag_67\n      jump\t// in\n    tag_184:\n        /* \"#utility.yul\":8969:9010   */\n      swap2\n      pop\n        /* \"#utility.yul\":9159:9160   */\n      dup3\n        /* \"#utility.yul\":9150:9157   */\n      dup3\n        /* \"#utility.yul\":9146:9161   */\n      div\n        /* \"#utility.yul\":9143:9144   */\n      dup5\n        /* \"#utility.yul\":9140:9162   */\n      eq\n        /* \"#utility.yul\":9120:9121   */\n      dup4\n        /* \"#utility.yul\":9113:9122   */\n      iszero\n        /* \"#utility.yul\":9093:9176   */\n      or\n        /* \"#utility.yul\":9070:9209   */\n      tag_185\n      jumpi\n        /* \"#utility.yul\":9189:9207   */\n      tag_186\n      tag_66\n      jump\t// in\n    tag_186:\n        /* \"#utility.yul\":9070:9209   */\n    tag_185:\n        /* \"#utility.yul\":8854:9216   */\n      pop\n        /* \"#utility.yul\":8806:9216   */\n      swap3\n      swap2\n      pop\n      pop\n      jump\t// out\n        /* \"#utility.yul\":9222:9416   */\n    tag_61:\n        /* \"#utility.yul\":9262:9266   */\n      0x00\n        /* \"#utility.yul\":9282:9302   */\n      tag_188\n        /* \"#utility.yul\":9300:9301   */\n      dup3\n        /* \"#utility.yul\":9282:9302   */\n      tag_67\n      jump\t// in\n    tag_188:\n        /* \"#utility.yul\":9277:9302   */\n      swap2\n      pop\n        /* \"#utility.yul\":9316:9336   */\n      tag_189\n        /* \"#utility.yul\":9334:9335   */\n      dup4\n        /* \"#utility.yul\":9316:9336   */\n      tag_67\n      jump\t// in\n    tag_189:\n        /* \"#utility.yul\":9311:9336   */\n      swap3\n      pop\n        /* \"#utility.yul\":9360:9361   */\n      dup3\n        /* \"#utility.yul\":9357:9358   */\n      dup3\n        /* \"#utility.yul\":9353:9362   */\n      sub\n        /* \"#utility.yul\":9345:9362   */\n      swap1\n      pop\n        /* \"#utility.yul\":9384:9385   */\n      dup2\n        /* \"#utility.yul\":9378:9382   */\n      dup2\n        /* \"#utility.yul\":9375:9386   */\n      gt\n        /* \"#utility.yul\":9372:9409   */\n      iszero\n      tag_190\n      jumpi\n        /* \"#utility.yul\":9389:9407   */\n      tag_191\n      tag_66\n      jump\t// in\n    tag_191:\n        /* \"#utility.yul\":9372:9409   */\n    tag_190:\n        /* \"#utility.yul\":9222:9416   */\n      swap3\n      swap2\n      pop\n      pop\n      jump\t// out\n\n    auxdata: 0xa26469706673582212200b98c9a367d79406d63e78b1350ae7480008d79b4182c3caab59b5acf6f7259d64736f6c63430008110033\n}\n",
				"bytecode": {
					"linkReferences": {},
					"object": "60806040526000600255600160055560006006553480156200002057600080fd5b506040516200127c3803806200127c833981810160405281019062000046919062000324565b33600160006101000a81548173ffffffffffffffffffffffffffffffffffffffff021916908373ffffffffffffffffffffffffffffffffffffffff1602179055508160039081620000989190620005cb565b5080600481905550620000b0620000be60201b60201c565b6002819055505050620008ce565b60008043426004546003604051602001620000da919062000753565b6040516020818303038152906040528051906020012060001c620000ff9190620007a6565b6200010b9190620007a6565b620001179190620007a6565b90506001600a80836200012b919062000810565b62000137919062000848565b8262000144919062000893565b620001509190620007a6565b91505090565b6000604051905090565b600080fd5b600080fd5b600080fd5b600080fd5b6000601f19601f8301169050919050565b7f4e487b7100000000000000000000000000000000000000000000000000000000600052604160045260246000fd5b620001bf8262000174565b810181811067ffffffffffffffff82111715620001e157620001e062000185565b5b80604052505050565b6000620001f662000156565b9050620002048282620001b4565b919050565b600067ffffffffffffffff82111562000227576200022662000185565b5b620002328262000174565b9050602081019050919050565b60005b838110156200025f57808201518184015260208101905062000242565b60008484015250505050565b6000620002826200027c8462000209565b620001ea565b905082815260208101848484011115620002a157620002a06200016f565b5b620002ae8482856200023f565b509392505050565b600082601f830112620002ce57620002cd6200016a565b5b8151620002e08482602086016200026b565b91505092915050565b6000819050919050565b620002fe81620002e9565b81146200030a57600080fd5b50565b6000815190506200031e81620002f3565b92915050565b600080604083850312156200033e576200033d62000160565b5b600083015167ffffffffffffffff8111156200035f576200035e62000165565b5b6200036d85828601620002b6565b925050602062000380858286016200030d565b9150509250929050565b600081519050919050565b7f4e487b7100000000000000000000000000000000000000000000000000000000600052602260045260246000fd5b60006002820490506001821680620003dd57607f821691505b602082108103620003f357620003f262000395565b5b50919050565b60008190508160005260206000209050919050565b60006020601f8301049050919050565b600082821b905092915050565b6000600883026200045d7fffffffffffffffffffffffffffffffffffffffffffffffffffffffffffffffff826200041e565b6200046986836200041e565b95508019841693508086168417925050509392505050565b6000819050919050565b6000620004ac620004a6620004a084620002e9565b62000481565b620002e9565b9050919050565b6000819050919050565b620004c8836200048b565b620004e0620004d782620004b3565b8484546200042b565b825550505050565b600090565b620004f7620004e8565b62000504818484620004bd565b505050565b5b818110156200052c5762000520600082620004ed565b6001810190506200050a565b5050565b601f8211156200057b576200054581620003f9565b62000550846200040e565b8101602085101562000560578190505b620005786200056f856200040e565b83018262000509565b50505b505050565b600082821c905092915050565b6000620005a06000198460080262000580565b1980831691505092915050565b6000620005bb83836200058d565b9150826002028217905092915050565b620005d6826200038a565b67ffffffffffffffff811115620005f257620005f162000185565b5b620005fe8254620003c4565b6200060b82828562000530565b600060209050601f8311600181146200064357600084156200062e578287015190505b6200063a8582620005ad565b865550620006aa565b601f1984166200065386620003f9565b60005b828110156200067d5784890151825560018201915060208501945060208101905062000656565b868310156200069d578489015162000699601f8916826200058d565b8355505b6001600288020188555050505b505050505050565b600082825260208201905092915050565b60008154620006d281620003c4565b620006de8186620006b2565b94506001821660008114620006fc576001811462000713576200074a565b60ff1983168652811515602002860193506200074a565b6200071e85620003f9565b60005b83811015620007425781548189015260018201915060208101905062000721565b808801955050505b50505092915050565b600060208201905081810360008301526200076f8184620006c3565b905092915050565b7f4e487b7100000000000000000000000000000000000000000000000000000000600052601160045260246000fd5b6000620007b382620002e9565b9150620007c083620002e9565b9250828201905080821115620007db57620007da62000777565b5b92915050565b7f4e487b7100000000000000000000000000000000000000000000000000000000600052601260045260246000fd5b60006200081d82620002e9565b91506200082a83620002e9565b9250826200083d576200083c620007e1565b5b828204905092915050565b60006200085582620002e9565b91506200086283620002e9565b92508282026200087281620002e9565b915082820484148315176200088c576200088b62000777565b5b5092915050565b6000620008a082620002e9565b9150620008ad83620002e9565b9250828203905081811115620008c857620008c762000777565b5b92915050565b61099e80620008de6000396000f3fe6080604052600436106100435760003560e01c80630df516d814610293578063146ca531146102be5780638da5cb5b146102e9578063cf66b989146103145761028e565b3661028e5766038d7ea4c680003414610091576040517f08c379a000000000000000000000000000000000000000000000000000000000815260040161008890610497565b60405180910390fd5b6001600080600554815260200190815260200160002060003373ffffffffffffffffffffffffffffffffffffffff1673ffffffffffffffffffffffffffffffffffffffff16815260200190815260200160002060006101000a81548160ff02191690831515021790555060066000815461010a906104f0565b919050819055506002546006540361023d5760003373ffffffffffffffffffffffffffffffffffffffff164760405161014290610569565b60006040518083038185875af1925050503d806000811461017f576040519150601f19603f3d011682016040523d82523d6000602084013e610184565b606091505b50509050806101c8576040517f08c379a00000000000000000000000000000000000000000000000000000000081526004016101bf906105ca565b60405180910390fd5b60006006819055506005600081546101df906104f0565b919050819055506101ee610351565b6002819055503373ffffffffffffffffffffffffffffffffffffffff167fd7b5435fa0dd93954c7955210a67950d9385f8cd60631432712709e265ec99ca60405160405180910390a25061028c565b3373ffffffffffffffffffffffffffffffffffffffff167f20384c35af44ae3e0536c765e1cee107339d7ca70b092472c816a3a62e4ba6593460405161028391906105f9565b60405180910390a25b005b600080fd5b34801561029f57600080fd5b506102a86103d9565b6040516102b591906105f9565b60405180910390f35b3480156102ca57600080fd5b506102d36103df565b6040516102e091906105f9565b60405180910390f35b3480156102f557600080fd5b506102fe6103e5565b60405161030b9190610655565b60405180910390f35b34801561032057600080fd5b5061033b600480360381019061033691906106cd565b61040b565b6040516103489190610728565b60405180910390f35b6000804342600454600360405160200161036b919061083c565b6040516020818303038152906040528051906020012060001c61038e919061085e565b610398919061085e565b6103a2919061085e565b90506001600a80836103b491906108c1565b6103be91906108f2565b826103c99190610934565b6103d3919061085e565b91505090565b60065481565b60055481565b600160009054906101000a900473ffffffffffffffffffffffffffffffffffffffff1681565b60006020528160005260406000206020528060005260406000206000915091509054906101000a900460ff1681565b600082825260208201905092915050565b7f4d757374626520302e3030312065746865720000000000000000000000000000600082015250565b600061048160128361043a565b915061048c8261044b565b602082019050919050565b600060208201905081810360008301526104b081610474565b9050919050565b7f4e487b7100000000000000000000000000000000000000000000000000000000600052601160045260246000fd5b6000819050919050565b60006104fb826104e6565b91507fffffffffffffffffffffffffffffffffffffffffffffffffffffffffffffffff820361052d5761052c6104b7565b5b600182019050919050565b600081905092915050565b50565b6000610553600083610538565b915061055e82610543565b600082019050919050565b600061057482610546565b9150819050919050565b7f4661696c65640000000000000000000000000000000000000000000000000000600082015250565b60006105b460068361043a565b91506105bf8261057e565b602082019050919050565b600060208201905081810360008301526105e3816105a7565b9050919050565b6105f3816104e6565b82525050565b600060208201905061060e60008301846105ea565b92915050565b600073ffffffffffffffffffffffffffffffffffffffff82169050919050565b600061063f82610614565b9050919050565b61064f81610634565b82525050565b600060208201905061066a6000830184610646565b92915050565b600080fd5b61067e816104e6565b811461068957600080fd5b50565b60008135905061069b81610675565b92915050565b6106aa81610634565b81146106b557600080fd5b50565b6000813590506106c7816106a1565b92915050565b600080604083850312156106e4576106e3610670565b5b60006106f28582860161068c565b9250506020610703858286016106b8565b9150509250929050565b60008115159050919050565b6107228161070d565b82525050565b600060208201905061073d6000830184610719565b92915050565b7f4e487b7100000000000000000000000000000000000000000000000000000000600052602260045260246000fd5b6000600282049050600182168061078a57607f821691505b60208210810361079d5761079c610743565b5b50919050565b60008190508160005260206000209050919050565b600081546107c581610772565b6107cf818661043a565b945060018216600081146107ea576001811461080057610833565b60ff198316865281151560200286019350610833565b610809856107a3565b60005b8381101561082b5781548189015260018201915060208101905061080c565b808801955050505b50505092915050565b6000602082019050818103600083015261085681846107b8565b905092915050565b6000610869826104e6565b9150610874836104e6565b925082820190508082111561088c5761088b6104b7565b5b92915050565b7f4e487b7100000000000000000000000000000000000000000000000000000000600052601260045260246000fd5b60006108cc826104e6565b91506108d7836104e6565b9250826108e7576108e6610892565b5b828204905092915050565b60006108fd826104e6565b9150610908836104e6565b9250828202610916816104e6565b9150828204841483151761092d5761092c6104b7565b5b5092915050565b600061093f826104e6565b915061094a836104e6565b9250828203905081811115610962576109616104b7565b5b9291505056fea26469706673582212200b98c9a367d79406d63e78b1350ae7480008d79b4182c3caab59b5acf6f7259d64736f6c63430008110033",
					"opcodes": "PUSH1 0x80 PUSH1 0x40 MSTORE PUSH1 0x0 PUSH1 0x2 SSTORE PUSH1 0x1 PUSH1 0x5 SSTORE PUSH1 0x0 PUSH1 0x6 SSTORE CALLVALUE DUP1 ISZERO PUSH3 0x20 JUMPI PUSH1 0x0 DUP1 REVERT JUMPDEST POP PUSH1 0x40 MLOAD PUSH3 0x127C CODESIZE SUB DUP1 PUSH3 0x127C DUP4 CODECOPY DUP2 DUP2 ADD PUSH1 0x40 MSTORE DUP2 ADD SWAP1 PUSH3 0x46 SWAP2 SWAP1 PUSH3 0x324 JUMP JUMPDEST CALLER PUSH1 0x1 PUSH1 0x0 PUSH2 0x100 EXP DUP2 SLOAD DUP2 PUSH20 0xFFFFFFFFFFFFFFFFFFFFFFFFFFFFFFFFFFFFFFFF MUL NOT AND SWAP1 DUP4 PUSH20 0xFFFFFFFFFFFFFFFFFFFFFFFFFFFFFFFFFFFFFFFF AND MUL OR SWAP1 SSTORE POP DUP2 PUSH1 0x3 SWAP1 DUP2 PUSH3 0x98 SWAP2 SWAP1 PUSH3 0x5CB JUMP JUMPDEST POP DUP1 PUSH1 0x4 DUP2 SWAP1 SSTORE POP PUSH3 0xB0 PUSH3 0xBE PUSH1 0x20 SHL PUSH1 0x20 SHR JUMP JUMPDEST PUSH1 0x2 DUP2 SWAP1 SSTORE POP POP POP PUSH3 0x8CE JUMP JUMPDEST PUSH1 0x0 DUP1 NUMBER TIMESTAMP PUSH1 0x4 SLOAD PUSH1 0x3 PUSH1 0x40 MLOAD PUSH1 0x20 ADD PUSH3 0xDA SWAP2 SWAP1 PUSH3 0x753 JUMP JUMPDEST PUSH1 0x40 MLOAD PUSH1 0x20 DUP2 DUP4 SUB SUB DUP2 MSTORE SWAP1 PUSH1 0x40 MSTORE DUP1 MLOAD SWAP1 PUSH1 0x20 ADD KECCAK256 PUSH1 0x0 SHR PUSH3 0xFF SWAP2 SWAP1 PUSH3 0x7A6 JUMP JUMPDEST PUSH3 0x10B SWAP2 SWAP1 PUSH3 0x7A6 JUMP JUMPDEST PUSH3 0x117 SWAP2 SWAP1 PUSH3 0x7A6 JUMP JUMPDEST SWAP1 POP PUSH1 0x1 PUSH1 0xA DUP1 DUP4 PUSH3 0x12B SWAP2 SWAP1 PUSH3 0x810 JUMP JUMPDEST PUSH3 0x137 SWAP2 SWAP1 PUSH3 0x848 JUMP JUMPDEST DUP3 PUSH3 0x144 SWAP2 SWAP1 PUSH3 0x893 JUMP JUMPDEST PUSH3 0x150 SWAP2 SWAP1 PUSH3 0x7A6 JUMP JUMPDEST SWAP2 POP POP SWAP1 JUMP JUMPDEST PUSH1 0x0 PUSH1 0x40 MLOAD SWAP1 POP SWAP1 JUMP JUMPDEST PUSH1 0x0 DUP1 REVERT JUMPDEST PUSH1 0x0 DUP1 REVERT JUMPDEST PUSH1 0x0 DUP1 REVERT JUMPDEST PUSH1 0x0 DUP1 REVERT JUMPDEST PUSH1 0x0 PUSH1 0x1F NOT PUSH1 0x1F DUP4 ADD AND SWAP1 POP SWAP2 SWAP1 POP JUMP JUMPDEST PUSH32 0x4E487B7100000000000000000000000000000000000000000000000000000000 PUSH1 0x0 MSTORE PUSH1 0x41 PUSH1 0x4 MSTORE PUSH1 0x24 PUSH1 0x0 REVERT JUMPDEST PUSH3 0x1BF DUP3 PUSH3 0x174 JUMP JUMPDEST DUP2 ADD DUP2 DUP2 LT PUSH8 0xFFFFFFFFFFFFFFFF DUP3 GT OR ISZERO PUSH3 0x1E1 JUMPI PUSH3 0x1E0 PUSH3 0x185 JUMP JUMPDEST JUMPDEST DUP1 PUSH1 0x40 MSTORE POP POP POP JUMP JUMPDEST PUSH1 0x0 PUSH3 0x1F6 PUSH3 0x156 JUMP JUMPDEST SWAP1 POP PUSH3 0x204 DUP3 DUP3 PUSH3 0x1B4 JUMP JUMPDEST SWAP2 SWAP1 POP JUMP JUMPDEST PUSH1 0x0 PUSH8 0xFFFFFFFFFFFFFFFF DUP3 GT ISZERO PUSH3 0x227 JUMPI PUSH3 0x226 PUSH3 0x185 JUMP JUMPDEST JUMPDEST PUSH3 0x232 DUP3 PUSH3 0x174 JUMP JUMPDEST SWAP1 POP PUSH1 0x20 DUP2 ADD SWAP1 POP SWAP2 SWAP1 POP JUMP JUMPDEST PUSH1 0x0 JUMPDEST DUP4 DUP2 LT ISZERO PUSH3 0x25F JUMPI DUP1 DUP3 ADD MLOAD DUP2 DUP5 ADD MSTORE PUSH1 0x20 DUP2 ADD SWAP1 POP PUSH3 0x242 JUMP JUMPDEST PUSH1 0x0 DUP5 DUP5 ADD MSTORE POP POP POP POP JUMP JUMPDEST PUSH1 0x0 PUSH3 0x282 PUSH3 0x27C DUP5 PUSH3 0x209 JUMP JUMPDEST PUSH3 0x1EA JUMP JUMPDEST SWAP1 POP DUP3 DUP2 MSTORE PUSH1 0x20 DUP2 ADD DUP5 DUP5 DUP5 ADD GT ISZERO PUSH3 0x2A1 JUMPI PUSH3 0x2A0 PUSH3 0x16F JUMP JUMPDEST JUMPDEST PUSH3 0x2AE DUP5 DUP3 DUP6 PUSH3 0x23F JUMP JUMPDEST POP SWAP4 SWAP3 POP POP POP JUMP JUMPDEST PUSH1 0x0 DUP3 PUSH1 0x1F DUP4 ADD SLT PUSH3 0x2CE JUMPI PUSH3 0x2CD PUSH3 0x16A JUMP JUMPDEST JUMPDEST DUP2 MLOAD PUSH3 0x2E0 DUP5 DUP3 PUSH1 0x20 DUP7 ADD PUSH3 0x26B JUMP JUMPDEST SWAP2 POP POP SWAP3 SWAP2 POP POP JUMP JUMPDEST PUSH1 0x0 DUP2 SWAP1 POP SWAP2 SWAP1 POP JUMP JUMPDEST PUSH3 0x2FE DUP2 PUSH3 0x2E9 JUMP JUMPDEST DUP2 EQ PUSH3 0x30A JUMPI PUSH1 0x0 DUP1 REVERT JUMPDEST POP JUMP JUMPDEST PUSH1 0x0 DUP2 MLOAD SWAP1 POP PUSH3 0x31E DUP2 PUSH3 0x2F3 JUMP JUMPDEST SWAP3 SWAP2 POP POP JUMP JUMPDEST PUSH1 0x0 DUP1 PUSH1 0x40 DUP4 DUP6 SUB SLT ISZERO PUSH3 0x33E JUMPI PUSH3 0x33D PUSH3 0x160 JUMP JUMPDEST JUMPDEST PUSH1 0x0 DUP4 ADD MLOAD PUSH8 0xFFFFFFFFFFFFFFFF DUP2 GT ISZERO PUSH3 0x35F JUMPI PUSH3 0x35E PUSH3 0x165 JUMP JUMPDEST JUMPDEST PUSH3 0x36D DUP6 DUP3 DUP7 ADD PUSH3 0x2B6 JUMP JUMPDEST SWAP3 POP POP PUSH1 0x20 PUSH3 0x380 DUP6 DUP3 DUP7 ADD PUSH3 0x30D JUMP JUMPDEST SWAP2 POP POP SWAP3 POP SWAP3 SWAP1 POP JUMP JUMPDEST PUSH1 0x0 DUP2 MLOAD SWAP1 POP SWAP2 SWAP1 POP JUMP JUMPDEST PUSH32 0x4E487B7100000000000000000000000000000000000000000000000000000000 PUSH1 0x0 MSTORE PUSH1 0x22 PUSH1 0x4 MSTORE PUSH1 0x24 PUSH1 0x0 REVERT JUMPDEST PUSH1 0x0 PUSH1 0x2 DUP3 DIV SWAP1 POP PUSH1 0x1 DUP3 AND DUP1 PUSH3 0x3DD JUMPI PUSH1 0x7F DUP3 AND SWAP2 POP JUMPDEST PUSH1 0x20 DUP3 LT DUP2 SUB PUSH3 0x3F3 JUMPI PUSH3 0x3F2 PUSH3 0x395 JUMP JUMPDEST JUMPDEST POP SWAP2 SWAP1 POP JUMP JUMPDEST PUSH1 0x0 DUP2 SWAP1 POP DUP2 PUSH1 0x0 MSTORE PUSH1 0x20 PUSH1 0x0 KECCAK256 SWAP1 POP SWAP2 SWAP1 POP JUMP JUMPDEST PUSH1 0x0 PUSH1 0x20 PUSH1 0x1F DUP4 ADD DIV SWAP1 POP SWAP2 SWAP1 POP JUMP JUMPDEST PUSH1 0x0 DUP3 DUP3 SHL SWAP1 POP SWAP3 SWAP2 POP POP JUMP JUMPDEST PUSH1 0x0 PUSH1 0x8 DUP4 MUL PUSH3 0x45D PUSH32 0xFFFFFFFFFFFFFFFFFFFFFFFFFFFFFFFFFFFFFFFFFFFFFFFFFFFFFFFFFFFFFFFF DUP3 PUSH3 0x41E JUMP JUMPDEST PUSH3 0x469 DUP7 DUP4 PUSH3 0x41E JUMP JUMPDEST SWAP6 POP DUP1 NOT DUP5 AND SWAP4 POP DUP1 DUP7 AND DUP5 OR SWAP3 POP POP POP SWAP4 SWAP3 POP POP POP JUMP JUMPDEST PUSH1 0x0 DUP2 SWAP1 POP SWAP2 SWAP1 POP JUMP JUMPDEST PUSH1 0x0 PUSH3 0x4AC PUSH3 0x4A6 PUSH3 0x4A0 DUP5 PUSH3 0x2E9 JUMP JUMPDEST PUSH3 0x481 JUMP JUMPDEST PUSH3 0x2E9 JUMP JUMPDEST SWAP1 POP SWAP2 SWAP1 POP JUMP JUMPDEST PUSH1 0x0 DUP2 SWAP1 POP SWAP2 SWAP1 POP JUMP JUMPDEST PUSH3 0x4C8 DUP4 PUSH3 0x48B JUMP JUMPDEST PUSH3 0x4E0 PUSH3 0x4D7 DUP3 PUSH3 0x4B3 JUMP JUMPDEST DUP5 DUP5 SLOAD PUSH3 0x42B JUMP JUMPDEST DUP3 SSTORE POP POP POP POP JUMP JUMPDEST PUSH1 0x0 SWAP1 JUMP JUMPDEST PUSH3 0x4F7 PUSH3 0x4E8 JUMP JUMPDEST PUSH3 0x504 DUP2 DUP5 DUP5 PUSH3 0x4BD JUMP JUMPDEST POP POP POP JUMP JUMPDEST JUMPDEST DUP2 DUP2 LT ISZERO PUSH3 0x52C JUMPI PUSH3 0x520 PUSH1 0x0 DUP3 PUSH3 0x4ED JUMP JUMPDEST PUSH1 0x1 DUP2 ADD SWAP1 POP PUSH3 0x50A JUMP JUMPDEST POP POP JUMP JUMPDEST PUSH1 0x1F DUP3 GT ISZERO PUSH3 0x57B JUMPI PUSH3 0x545 DUP2 PUSH3 0x3F9 JUMP JUMPDEST PUSH3 0x550 DUP5 PUSH3 0x40E JUMP JUMPDEST DUP2 ADD PUSH1 0x20 DUP6 LT ISZERO PUSH3 0x560 JUMPI DUP2 SWAP1 POP JUMPDEST PUSH3 0x578 PUSH3 0x56F DUP6 PUSH3 0x40E JUMP JUMPDEST DUP4 ADD DUP3 PUSH3 0x509 JUMP JUMPDEST POP POP JUMPDEST POP POP POP JUMP JUMPDEST PUSH1 0x0 DUP3 DUP3 SHR SWAP1 POP SWAP3 SWAP2 POP POP JUMP JUMPDEST PUSH1 0x0 PUSH3 0x5A0 PUSH1 0x0 NOT DUP5 PUSH1 0x8 MUL PUSH3 0x580 JUMP JUMPDEST NOT DUP1 DUP4 AND SWAP2 POP POP SWAP3 SWAP2 POP POP JUMP JUMPDEST PUSH1 0x0 PUSH3 0x5BB DUP4 DUP4 PUSH3 0x58D JUMP JUMPDEST SWAP2 POP DUP3 PUSH1 0x2 MUL DUP3 OR SWAP1 POP SWAP3 SWAP2 POP POP JUMP JUMPDEST PUSH3 0x5D6 DUP3 PUSH3 0x38A JUMP JUMPDEST PUSH8 0xFFFFFFFFFFFFFFFF DUP2 GT ISZERO PUSH3 0x5F2 JUMPI PUSH3 0x5F1 PUSH3 0x185 JUMP JUMPDEST JUMPDEST PUSH3 0x5FE DUP3 SLOAD PUSH3 0x3C4 JUMP JUMPDEST PUSH3 0x60B DUP3 DUP3 DUP6 PUSH3 0x530 JUMP JUMPDEST PUSH1 0x0 PUSH1 0x20 SWAP1 POP PUSH1 0x1F DUP4 GT PUSH1 0x1 DUP2 EQ PUSH3 0x643 JUMPI PUSH1 0x0 DUP5 ISZERO PUSH3 0x62E JUMPI DUP3 DUP8 ADD MLOAD SWAP1 POP JUMPDEST PUSH3 0x63A DUP6 DUP3 PUSH3 0x5AD JUMP JUMPDEST DUP7 SSTORE POP PUSH3 0x6AA JUMP JUMPDEST PUSH1 0x1F NOT DUP5 AND PUSH3 0x653 DUP7 PUSH3 0x3F9 JUMP JUMPDEST PUSH1 0x0 JUMPDEST DUP3 DUP2 LT ISZERO PUSH3 0x67D JUMPI DUP5 DUP10 ADD MLOAD DUP3 SSTORE PUSH1 0x1 DUP3 ADD SWAP2 POP PUSH1 0x20 DUP6 ADD SWAP5 POP PUSH1 0x20 DUP2 ADD SWAP1 POP PUSH3 0x656 JUMP JUMPDEST DUP7 DUP4 LT ISZERO PUSH3 0x69D JUMPI DUP5 DUP10 ADD MLOAD PUSH3 0x699 PUSH1 0x1F DUP10 AND DUP3 PUSH3 0x58D JUMP JUMPDEST DUP4 SSTORE POP JUMPDEST PUSH1 0x1 PUSH1 0x2 DUP9 MUL ADD DUP9 SSTORE POP POP POP JUMPDEST POP POP POP POP POP POP JUMP JUMPDEST PUSH1 0x0 DUP3 DUP3 MSTORE PUSH1 0x20 DUP3 ADD SWAP1 POP SWAP3 SWAP2 POP POP JUMP JUMPDEST PUSH1 0x0 DUP2 SLOAD PUSH3 0x6D2 DUP2 PUSH3 0x3C4 JUMP JUMPDEST PUSH3 0x6DE DUP2 DUP7 PUSH3 0x6B2 JUMP JUMPDEST SWAP5 POP PUSH1 0x1 DUP3 AND PUSH1 0x0 DUP2 EQ PUSH3 0x6FC JUMPI PUSH1 0x1 DUP2 EQ PUSH3 0x713 JUMPI PUSH3 0x74A JUMP JUMPDEST PUSH1 0xFF NOT DUP4 AND DUP7 MSTORE DUP2 ISZERO ISZERO PUSH1 0x20 MUL DUP7 ADD SWAP4 POP PUSH3 0x74A JUMP JUMPDEST PUSH3 0x71E DUP6 PUSH3 0x3F9 JUMP JUMPDEST PUSH1 0x0 JUMPDEST DUP4 DUP2 LT ISZERO PUSH3 0x742 JUMPI DUP2 SLOAD DUP2 DUP10 ADD MSTORE PUSH1 0x1 DUP3 ADD SWAP2 POP PUSH1 0x20 DUP2 ADD SWAP1 POP PUSH3 0x721 JUMP JUMPDEST DUP1 DUP9 ADD SWAP6 POP POP POP JUMPDEST POP POP POP SWAP3 SWAP2 POP POP JUMP JUMPDEST PUSH1 0x0 PUSH1 0x20 DUP3 ADD SWAP1 POP DUP2 DUP2 SUB PUSH1 0x0 DUP4 ADD MSTORE PUSH3 0x76F DUP2 DUP5 PUSH3 0x6C3 JUMP JUMPDEST SWAP1 POP SWAP3 SWAP2 POP POP JUMP JUMPDEST PUSH32 0x4E487B7100000000000000000000000000000000000000000000000000000000 PUSH1 0x0 MSTORE PUSH1 0x11 PUSH1 0x4 MSTORE PUSH1 0x24 PUSH1 0x0 REVERT JUMPDEST PUSH1 0x0 PUSH3 0x7B3 DUP3 PUSH3 0x2E9 JUMP JUMPDEST SWAP2 POP PUSH3 0x7C0 DUP4 PUSH3 0x2E9 JUMP JUMPDEST SWAP3 POP DUP3 DUP3 ADD SWAP1 POP DUP1 DUP3 GT ISZERO PUSH3 0x7DB JUMPI PUSH3 0x7DA PUSH3 0x777 JUMP JUMPDEST JUMPDEST SWAP3 SWAP2 POP POP JUMP JUMPDEST PUSH32 0x4E487B7100000000000000000000000000000000000000000000000000000000 PUSH1 0x0 MSTORE PUSH1 0x12 PUSH1 0x4 MSTORE PUSH1 0x24 PUSH1 0x0 REVERT JUMPDEST PUSH1 0x0 PUSH3 0x81D DUP3 PUSH3 0x2E9 JUMP JUMPDEST SWAP2 POP PUSH3 0x82A DUP4 PUSH3 0x2E9 JUMP JUMPDEST SWAP3 POP DUP3 PUSH3 0x83D JUMPI PUSH3 0x83C PUSH3 0x7E1 JUMP JUMPDEST JUMPDEST DUP3 DUP3 DIV SWAP1 POP SWAP3 SWAP2 POP POP JUMP JUMPDEST PUSH1 0x0 PUSH3 0x855 DUP3 PUSH3 0x2E9 JUMP JUMPDEST SWAP2 POP PUSH3 0x862 DUP4 PUSH3 0x2E9 JUMP JUMPDEST SWAP3 POP DUP3 DUP3 MUL PUSH3 0x872 DUP2 PUSH3 0x2E9 JUMP JUMPDEST SWAP2 POP DUP3 DUP3 DIV DUP5 EQ DUP4 ISZERO OR PUSH3 0x88C JUMPI PUSH3 0x88B PUSH3 0x777 JUMP JUMPDEST JUMPDEST POP SWAP3 SWAP2 POP POP JUMP JUMPDEST PUSH1 0x0 PUSH3 0x8A0 DUP3 PUSH3 0x2E9 JUMP JUMPDEST SWAP2 POP PUSH3 0x8AD DUP4 PUSH3 0x2E9 JUMP JUMPDEST SWAP3 POP DUP3 DUP3 SUB SWAP1 POP DUP2 DUP2 GT ISZERO PUSH3 0x8C8 JUMPI PUSH3 0x8C7 PUSH3 0x777 JUMP JUMPDEST JUMPDEST SWAP3 SWAP2 POP POP JUMP JUMPDEST PUSH2 0x99E DUP1 PUSH3 0x8DE PUSH1 0x0 CODECOPY PUSH1 0x0 RETURN INVALID PUSH1 0x80 PUSH1 0x40 MSTORE PUSH1 0x4 CALLDATASIZE LT PUSH2 0x43 JUMPI PUSH1 0x0 CALLDATALOAD PUSH1 0xE0 SHR DUP1 PUSH4 0xDF516D8 EQ PUSH2 0x293 JUMPI DUP1 PUSH4 0x146CA531 EQ PUSH2 0x2BE JUMPI DUP1 PUSH4 0x8DA5CB5B EQ PUSH2 0x2E9 JUMPI DUP1 PUSH4 0xCF66B989 EQ PUSH2 0x314 JUMPI PUSH2 0x28E JUMP JUMPDEST CALLDATASIZE PUSH2 0x28E JUMPI PUSH7 0x38D7EA4C68000 CALLVALUE EQ PUSH2 0x91 JUMPI PUSH1 0x40 MLOAD PUSH32 0x8C379A000000000000000000000000000000000000000000000000000000000 DUP2 MSTORE PUSH1 0x4 ADD PUSH2 0x88 SWAP1 PUSH2 0x497 JUMP JUMPDEST PUSH1 0x40 MLOAD DUP1 SWAP2 SUB SWAP1 REVERT JUMPDEST PUSH1 0x1 PUSH1 0x0 DUP1 PUSH1 0x5 SLOAD DUP2 MSTORE PUSH1 0x20 ADD SWAP1 DUP2 MSTORE PUSH1 0x20 ADD PUSH1 0x0 KECCAK256 PUSH1 0x0 CALLER PUSH20 0xFFFFFFFFFFFFFFFFFFFFFFFFFFFFFFFFFFFFFFFF AND PUSH20 0xFFFFFFFFFFFFFFFFFFFFFFFFFFFFFFFFFFFFFFFF AND DUP2 MSTORE PUSH1 0x20 ADD SWAP1 DUP2 MSTORE PUSH1 0x20 ADD PUSH1 0x0 KECCAK256 PUSH1 0x0 PUSH2 0x100 EXP DUP2 SLOAD DUP2 PUSH1 0xFF MUL NOT AND SWAP1 DUP4 ISZERO ISZERO MUL OR SWAP1 SSTORE POP PUSH1 0x6 PUSH1 0x0 DUP2 SLOAD PUSH2 0x10A SWAP1 PUSH2 0x4F0 JUMP JUMPDEST SWAP2 SWAP1 POP DUP2 SWAP1 SSTORE POP PUSH1 0x2 SLOAD PUSH1 0x6 SLOAD SUB PUSH2 0x23D JUMPI PUSH1 0x0 CALLER PUSH20 0xFFFFFFFFFFFFFFFFFFFFFFFFFFFFFFFFFFFFFFFF AND SELFBALANCE PUSH1 0x40 MLOAD PUSH2 0x142 SWAP1 PUSH2 0x569 JUMP JUMPDEST PUSH1 0x0 PUSH1 0x40 MLOAD DUP1 DUP4 SUB DUP2 DUP6 DUP8 GAS CALL SWAP3 POP POP POP RETURNDATASIZE DUP1 PUSH1 0x0 DUP2 EQ PUSH2 0x17F JUMPI PUSH1 0x40 MLOAD SWAP2 POP PUSH1 0x1F NOT PUSH1 0x3F RETURNDATASIZE ADD AND DUP3 ADD PUSH1 0x40 MSTORE RETURNDATASIZE DUP3 MSTORE RETURNDATASIZE PUSH1 0x0 PUSH1 0x20 DUP5 ADD RETURNDATACOPY PUSH2 0x184 JUMP JUMPDEST PUSH1 0x60 SWAP2 POP JUMPDEST POP POP SWAP1 POP DUP1 PUSH2 0x1C8 JUMPI PUSH1 0x40 MLOAD PUSH32 0x8C379A000000000000000000000000000000000000000000000000000000000 DUP2 MSTORE PUSH1 0x4 ADD PUSH2 0x1BF SWAP1 PUSH2 0x5CA JUMP JUMPDEST PUSH1 0x40 MLOAD DUP1 SWAP2 SUB SWAP1 REVERT JUMPDEST PUSH1 0x0 PUSH1 0x6 DUP2 SWAP1 SSTORE POP PUSH1 0x5 PUSH1 0x0 DUP2 SLOAD PUSH2 0x1DF SWAP1 PUSH2 0x4F0 JUMP JUMPDEST SWAP2 SWAP1 POP DUP2 SWAP1 SSTORE POP PUSH2 0x1EE PUSH2 0x351 JUMP JUMPDEST PUSH1 0x2 DUP2 SWAP1 SSTORE POP CALLER PUSH20 0xFFFFFFFFFFFFFFFFFFFFFFFFFFFFFFFFFFFFFFFF AND PUSH32 0xD7B5435FA0DD93954C7955210A67950D9385F8CD60631432712709E265EC99CA PUSH1 0x40 MLOAD PUSH1 0x40 MLOAD DUP1 SWAP2 SUB SWAP1 LOG2 POP PUSH2 0x28C JUMP JUMPDEST CALLER PUSH20 0xFFFFFFFFFFFFFFFFFFFFFFFFFFFFFFFFFFFFFFFF AND PUSH32 0x20384C35AF44AE3E0536C765E1CEE107339D7CA70B092472C816A3A62E4BA659 CALLVALUE PUSH1 0x40 MLOAD PUSH2 0x283 SWAP2 SWAP1 PUSH2 0x5F9 JUMP JUMPDEST PUSH1 0x40 MLOAD DUP1 SWAP2 SUB SWAP1 LOG2 JUMPDEST STOP JUMPDEST PUSH1 0x0 DUP1 REVERT JUMPDEST CALLVALUE DUP1 ISZERO PUSH2 0x29F JUMPI PUSH1 0x0 DUP1 REVERT JUMPDEST POP PUSH2 0x2A8 PUSH2 0x3D9 JUMP JUMPDEST PUSH1 0x40 MLOAD PUSH2 0x2B5 SWAP2 SWAP1 PUSH2 0x5F9 JUMP JUMPDEST PUSH1 0x40 MLOAD DUP1 SWAP2 SUB SWAP1 RETURN JUMPDEST CALLVALUE DUP1 ISZERO PUSH2 0x2CA JUMPI PUSH1 0x0 DUP1 REVERT JUMPDEST POP PUSH2 0x2D3 PUSH2 0x3DF JUMP JUMPDEST PUSH1 0x40 MLOAD PUSH2 0x2E0 SWAP2 SWAP1 PUSH2 0x5F9 JUMP JUMPDEST PUSH1 0x40 MLOAD DUP1 SWAP2 SUB SWAP1 RETURN JUMPDEST CALLVALUE DUP1 ISZERO PUSH2 0x2F5 JUMPI PUSH1 0x0 DUP1 REVERT JUMPDEST POP PUSH2 0x2FE PUSH2 0x3E5 JUMP JUMPDEST PUSH1 0x40 MLOAD PUSH2 0x30B SWAP2 SWAP1 PUSH2 0x655 JUMP JUMPDEST PUSH1 0x40 MLOAD DUP1 SWAP2 SUB SWAP1 RETURN JUMPDEST CALLVALUE DUP1 ISZERO PUSH2 0x320 JUMPI PUSH1 0x0 DUP1 REVERT JUMPDEST POP PUSH2 0x33B PUSH1 0x4 DUP1 CALLDATASIZE SUB DUP2 ADD SWAP1 PUSH2 0x336 SWAP2 SWAP1 PUSH2 0x6CD JUMP JUMPDEST PUSH2 0x40B JUMP JUMPDEST PUSH1 0x40 MLOAD PUSH2 0x348 SWAP2 SWAP1 PUSH2 0x728 JUMP JUMPDEST PUSH1 0x40 MLOAD DUP1 SWAP2 SUB SWAP1 RETURN JUMPDEST PUSH1 0x0 DUP1 NUMBER TIMESTAMP PUSH1 0x4 SLOAD PUSH1 0x3 PUSH1 0x40 MLOAD PUSH1 0x20 ADD PUSH2 0x36B SWAP2 SWAP1 PUSH2 0x83C JUMP JUMPDEST PUSH1 0x40 MLOAD PUSH1 0x20 DUP2 DUP4 SUB SUB DUP2 MSTORE SWAP1 PUSH1 0x40 MSTORE DUP1 MLOAD SWAP1 PUSH1 0x20 ADD KECCAK256 PUSH1 0x0 SHR PUSH2 0x38E SWAP2 SWAP1 PUSH2 0x85E JUMP JUMPDEST PUSH2 0x398 SWAP2 SWAP1 PUSH2 0x85E JUMP JUMPDEST PUSH2 0x3A2 SWAP2 SWAP1 PUSH2 0x85E JUMP JUMPDEST SWAP1 POP PUSH1 0x1 PUSH1 0xA DUP1 DUP4 PUSH2 0x3B4 SWAP2 SWAP1 PUSH2 0x8C1 JUMP JUMPDEST PUSH2 0x3BE SWAP2 SWAP1 PUSH2 0x8F2 JUMP JUMPDEST DUP3 PUSH2 0x3C9 SWAP2 SWAP1 PUSH2 0x934 JUMP JUMPDEST PUSH2 0x3D3 SWAP2 SWAP1 PUSH2 0x85E JUMP JUMPDEST SWAP2 POP POP SWAP1 JUMP JUMPDEST PUSH1 0x6 SLOAD DUP2 JUMP JUMPDEST PUSH1 0x5 SLOAD DUP2 JUMP JUMPDEST PUSH1 0x1 PUSH1 0x0 SWAP1 SLOAD SWAP1 PUSH2 0x100 EXP SWAP1 DIV PUSH20 0xFFFFFFFFFFFFFFFFFFFFFFFFFFFFFFFFFFFFFFFF AND DUP2 JUMP JUMPDEST PUSH1 0x0 PUSH1 0x20 MSTORE DUP2 PUSH1 0x0 MSTORE PUSH1 0x40 PUSH1 0x0 KECCAK256 PUSH1 0x20 MSTORE DUP1 PUSH1 0x0 MSTORE PUSH1 0x40 PUSH1 0x0 KECCAK256 PUSH1 0x0 SWAP2 POP SWAP2 POP SWAP1 SLOAD SWAP1 PUSH2 0x100 EXP SWAP1 DIV PUSH1 0xFF AND DUP2 JUMP JUMPDEST PUSH1 0x0 DUP3 DUP3 MSTORE PUSH1 0x20 DUP3 ADD SWAP1 POP SWAP3 SWAP2 POP POP JUMP JUMPDEST PUSH32 0x4D757374626520302E3030312065746865720000000000000000000000000000 PUSH1 0x0 DUP3 ADD MSTORE POP JUMP JUMPDEST PUSH1 0x0 PUSH2 0x481 PUSH1 0x12 DUP4 PUSH2 0x43A JUMP JUMPDEST SWAP2 POP PUSH2 0x48C DUP3 PUSH2 0x44B JUMP JUMPDEST PUSH1 0x20 DUP3 ADD SWAP1 POP SWAP2 SWAP1 POP JUMP JUMPDEST PUSH1 0x0 PUSH1 0x20 DUP3 ADD SWAP1 POP DUP2 DUP2 SUB PUSH1 0x0 DUP4 ADD MSTORE PUSH2 0x4B0 DUP2 PUSH2 0x474 JUMP JUMPDEST SWAP1 POP SWAP2 SWAP1 POP JUMP JUMPDEST PUSH32 0x4E487B7100000000000000000000000000000000000000000000000000000000 PUSH1 0x0 MSTORE PUSH1 0x11 PUSH1 0x4 MSTORE PUSH1 0x24 PUSH1 0x0 REVERT JUMPDEST PUSH1 0x0 DUP2 SWAP1 POP SWAP2 SWAP1 POP JUMP JUMPDEST PUSH1 0x0 PUSH2 0x4FB DUP3 PUSH2 0x4E6 JUMP JUMPDEST SWAP2 POP PUSH32 0xFFFFFFFFFFFFFFFFFFFFFFFFFFFFFFFFFFFFFFFFFFFFFFFFFFFFFFFFFFFFFFFF DUP3 SUB PUSH2 0x52D JUMPI PUSH2 0x52C PUSH2 0x4B7 JUMP JUMPDEST JUMPDEST PUSH1 0x1 DUP3 ADD SWAP1 POP SWAP2 SWAP1 POP JUMP JUMPDEST PUSH1 0x0 DUP2 SWAP1 POP SWAP3 SWAP2 POP POP JUMP JUMPDEST POP JUMP JUMPDEST PUSH1 0x0 PUSH2 0x553 PUSH1 0x0 DUP4 PUSH2 0x538 JUMP JUMPDEST SWAP2 POP PUSH2 0x55E DUP3 PUSH2 0x543 JUMP JUMPDEST PUSH1 0x0 DUP3 ADD SWAP1 POP SWAP2 SWAP1 POP JUMP JUMPDEST PUSH1 0x0 PUSH2 0x574 DUP3 PUSH2 0x546 JUMP JUMPDEST SWAP2 POP DUP2 SWAP1 POP SWAP2 SWAP1 POP JUMP JUMPDEST PUSH32 0x4661696C65640000000000000000000000000000000000000000000000000000 PUSH1 0x0 DUP3 ADD MSTORE POP JUMP JUMPDEST PUSH1 0x0 PUSH2 0x5B4 PUSH1 0x6 DUP4 PUSH2 0x43A JUMP JUMPDEST SWAP2 POP PUSH2 0x5BF DUP3 PUSH2 0x57E JUMP JUMPDEST PUSH1 0x20 DUP3 ADD SWAP1 POP SWAP2 SWAP1 POP JUMP JUMPDEST PUSH1 0x0 PUSH1 0x20 DUP3 ADD SWAP1 POP DUP2 DUP2 SUB PUSH1 0x0 DUP4 ADD MSTORE PUSH2 0x5E3 DUP2 PUSH2 0x5A7 JUMP JUMPDEST SWAP1 POP SWAP2 SWAP1 POP JUMP JUMPDEST PUSH2 0x5F3 DUP2 PUSH2 0x4E6 JUMP JUMPDEST DUP3 MSTORE POP POP JUMP JUMPDEST PUSH1 0x0 PUSH1 0x20 DUP3 ADD SWAP1 POP PUSH2 0x60E PUSH1 0x0 DUP4 ADD DUP5 PUSH2 0x5EA JUMP JUMPDEST SWAP3 SWAP2 POP POP JUMP JUMPDEST PUSH1 0x0 PUSH20 0xFFFFFFFFFFFFFFFFFFFFFFFFFFFFFFFFFFFFFFFF DUP3 AND SWAP1 POP SWAP2 SWAP1 POP JUMP JUMPDEST PUSH1 0x0 PUSH2 0x63F DUP3 PUSH2 0x614 JUMP JUMPDEST SWAP1 POP SWAP2 SWAP1 POP JUMP JUMPDEST PUSH2 0x64F DUP2 PUSH2 0x634 JUMP JUMPDEST DUP3 MSTORE POP POP JUMP JUMPDEST PUSH1 0x0 PUSH1 0x20 DUP3 ADD SWAP1 POP PUSH2 0x66A PUSH1 0x0 DUP4 ADD DUP5 PUSH2 0x646 JUMP JUMPDEST SWAP3 SWAP2 POP POP JUMP JUMPDEST PUSH1 0x0 DUP1 REVERT JUMPDEST PUSH2 0x67E DUP2 PUSH2 0x4E6 JUMP JUMPDEST DUP2 EQ PUSH2 0x689 JUMPI PUSH1 0x0 DUP1 REVERT JUMPDEST POP JUMP JUMPDEST PUSH1 0x0 DUP2 CALLDATALOAD SWAP1 POP PUSH2 0x69B DUP2 PUSH2 0x675 JUMP JUMPDEST SWAP3 SWAP2 POP POP JUMP JUMPDEST PUSH2 0x6AA DUP2 PUSH2 0x634 JUMP JUMPDEST DUP2 EQ PUSH2 0x6B5 JUMPI PUSH1 0x0 DUP1 REVERT JUMPDEST POP JUMP JUMPDEST PUSH1 0x0 DUP2 CALLDATALOAD SWAP1 POP PUSH2 0x6C7 DUP2 PUSH2 0x6A1 JUMP JUMPDEST SWAP3 SWAP2 POP POP JUMP JUMPDEST PUSH1 0x0 DUP1 PUSH1 0x40 DUP4 DUP6 SUB SLT ISZERO PUSH2 0x6E4 JUMPI PUSH2 0x6E3 PUSH2 0x670 JUMP JUMPDEST JUMPDEST PUSH1 0x0 PUSH2 0x6F2 DUP6 DUP3 DUP7 ADD PUSH2 0x68C JUMP JUMPDEST SWAP3 POP POP PUSH1 0x20 PUSH2 0x703 DUP6 DUP3 DUP7 ADD PUSH2 0x6B8 JUMP JUMPDEST SWAP2 POP POP SWAP3 POP SWAP3 SWAP1 POP JUMP JUMPDEST PUSH1 0x0 DUP2 ISZERO ISZERO SWAP1 POP SWAP2 SWAP1 POP JUMP JUMPDEST PUSH2 0x722 DUP2 PUSH2 0x70D JUMP JUMPDEST DUP3 MSTORE POP POP JUMP JUMPDEST PUSH1 0x0 PUSH1 0x20 DUP3 ADD SWAP1 POP PUSH2 0x73D PUSH1 0x0 DUP4 ADD DUP5 PUSH2 0x719 JUMP JUMPDEST SWAP3 SWAP2 POP POP JUMP JUMPDEST PUSH32 0x4E487B7100000000000000000000000000000000000000000000000000000000 PUSH1 0x0 MSTORE PUSH1 0x22 PUSH1 0x4 MSTORE PUSH1 0x24 PUSH1 0x0 REVERT JUMPDEST PUSH1 0x0 PUSH1 0x2 DUP3 DIV SWAP1 POP PUSH1 0x1 DUP3 AND DUP1 PUSH2 0x78A JUMPI PUSH1 0x7F DUP3 AND SWAP2 POP JUMPDEST PUSH1 0x20 DUP3 LT DUP2 SUB PUSH2 0x79D JUMPI PUSH2 0x79C PUSH2 0x743 JUMP JUMPDEST JUMPDEST POP SWAP2 SWAP1 POP JUMP JUMPDEST PUSH1 0x0 DUP2 SWAP1 POP DUP2 PUSH1 0x0 MSTORE PUSH1 0x20 PUSH1 0x0 KECCAK256 SWAP1 POP SWAP2 SWAP1 POP JUMP JUMPDEST PUSH1 0x0 DUP2 SLOAD PUSH2 0x7C5 DUP2 PUSH2 0x772 JUMP JUMPDEST PUSH2 0x7CF DUP2 DUP7 PUSH2 0x43A JUMP JUMPDEST SWAP5 POP PUSH1 0x1 DUP3 AND PUSH1 0x0 DUP2 EQ PUSH2 0x7EA JUMPI PUSH1 0x1 DUP2 EQ PUSH2 0x800 JUMPI PUSH2 0x833 JUMP JUMPDEST PUSH1 0xFF NOT DUP4 AND DUP7 MSTORE DUP2 ISZERO ISZERO PUSH1 0x20 MUL DUP7 ADD SWAP4 POP PUSH2 0x833 JUMP JUMPDEST PUSH2 0x809 DUP6 PUSH2 0x7A3 JUMP JUMPDEST PUSH1 0x0 JUMPDEST DUP4 DUP2 LT ISZERO PUSH2 0x82B JUMPI DUP2 SLOAD DUP2 DUP10 ADD MSTORE PUSH1 0x1 DUP3 ADD SWAP2 POP PUSH1 0x20 DUP2 ADD SWAP1 POP PUSH2 0x80C JUMP JUMPDEST DUP1 DUP9 ADD SWAP6 POP POP POP JUMPDEST POP POP POP SWAP3 SWAP2 POP POP JUMP JUMPDEST PUSH1 0x0 PUSH1 0x20 DUP3 ADD SWAP1 POP DUP2 DUP2 SUB PUSH1 0x0 DUP4 ADD MSTORE PUSH2 0x856 DUP2 DUP5 PUSH2 0x7B8 JUMP JUMPDEST SWAP1 POP SWAP3 SWAP2 POP POP JUMP JUMPDEST PUSH1 0x0 PUSH2 0x869 DUP3 PUSH2 0x4E6 JUMP JUMPDEST SWAP2 POP PUSH2 0x874 DUP4 PUSH2 0x4E6 JUMP JUMPDEST SWAP3 POP DUP3 DUP3 ADD SWAP1 POP DUP1 DUP3 GT ISZERO PUSH2 0x88C JUMPI PUSH2 0x88B PUSH2 0x4B7 JUMP JUMPDEST JUMPDEST SWAP3 SWAP2 POP POP JUMP JUMPDEST PUSH32 0x4E487B7100000000000000000000000000000000000000000000000000000000 PUSH1 0x0 MSTORE PUSH1 0x12 PUSH1 0x4 MSTORE PUSH1 0x24 PUSH1 0x0 REVERT JUMPDEST PUSH1 0x0 PUSH2 0x8CC DUP3 PUSH2 0x4E6 JUMP JUMPDEST SWAP2 POP PUSH2 0x8D7 DUP4 PUSH2 0x4E6 JUMP JUMPDEST SWAP3 POP DUP3 PUSH2 0x8E7 JUMPI PUSH2 0x8E6 PUSH2 0x892 JUMP JUMPDEST JUMPDEST DUP3 DUP3 DIV SWAP1 POP SWAP3 SWAP2 POP POP JUMP JUMPDEST PUSH1 0x0 PUSH2 0x8FD DUP3 PUSH2 0x4E6 JUMP JUMPDEST SWAP2 POP PUSH2 0x908 DUP4 PUSH2 0x4E6 JUMP JUMPDEST SWAP3 POP DUP3 DUP3 MUL PUSH2 0x916 DUP2 PUSH2 0x4E6 JUMP JUMPDEST SWAP2 POP DUP3 DUP3 DIV DUP5 EQ DUP4 ISZERO OR PUSH2 0x92D JUMPI PUSH2 0x92C PUSH2 0x4B7 JUMP JUMPDEST JUMPDEST POP SWAP3 SWAP2 POP POP JUMP JUMPDEST PUSH1 0x0 PUSH2 0x93F DUP3 PUSH2 0x4E6 JUMP JUMPDEST SWAP2 POP PUSH2 0x94A DUP4 PUSH2 0x4E6 JUMP JUMPDEST SWAP3 POP DUP3 DUP3 SUB SWAP1 POP DUP2 DUP2 GT ISZERO PUSH2 0x962 JUMPI PUSH2 0x961 PUSH2 0x4B7 JUMP JUMPDEST JUMPDEST SWAP3 SWAP2 POP POP JUMP INVALID LOG2 PUSH5 0x6970667358 0x22 SLT KECCAK256 SIGNEXTEND SWAP9 0xC9 LOG3 PUSH8 0xD79406D63E78B135 EXP 0xE7 BASEFEE STOP ADDMOD 0xD7 SWAP12 COINBASE DUP3 0xC3 0xCA 0xAB MSIZE 0xB5 0xAC 0xF6 0xF7 0x25 SWAP14 PUSH5 0x736F6C6343 STOP ADDMOD GT STOP CALLER "
				},
				"gasEstimates": {
					"creation": {
						"codeDepositCost": "492400",
						"executionCost": "infinite",
						"totalCost": "infinite"
					},
					"external": {
						"owner()": "2536",
						"paidAddressList(uint256,address)": "3131",
						"playNumber()": "2407",
						"round()": "2429"
					},
					"internal": {
						"randomNumber()": "infinite"
					}
				},
				"methodIdentifiers": {
					"owner()": "8da5cb5b",
					"paidAddressList(uint256,address)": "cf66b989",
					"playNumber()": "0df516d8",
					"round()": "146ca531"
				}
			},
			"storageLayout": {
				"storage": [
					{
						"astId": 29,
						"contract": "chapter2/Random.sol:Random",
						"label": "paidAddressList",
						"offset": 0,
						"slot": "0",
						"type": "t_mapping(t_uint256,t_mapping(t_address,t_bool))"
					},
					{
						"astId": 31,
						"contract": "chapter2/Random.sol:Random",
						"label": "owner",
						"offset": 0,
						"slot": "1",
						"type": "t_address"
					},
					{
						"astId": 34,
						"contract": "chapter2/Random.sol:Random",
						"label": "winnerNumber",
						"offset": 0,
						"slot": "2",
						"type": "t_uint256"
					},
					{
						"astId": 36,
						"contract": "chapter2/Random.sol:Random",
						"label": "key1",
						"offset": 0,
						"slot": "3",
						"type": "t_string_storage"
					},
					{
						"astId": 38,
						"contract": "chapter2/Random.sol:Random",
						"label": "key2",
						"offset": 0,
						"slot": "4",
						"type": "t_uint256"
					},
					{
						"astId": 41,
						"contract": "chapter2/Random.sol:Random",
						"label": "round",
						"offset": 0,
						"slot": "5",
						"type": "t_uint256"
					},
					{
						"astId": 44,
						"contract": "chapter2/Random.sol:Random",
						"label": "playNumber",
						"offset": 0,
						"slot": "6",
						"type": "t_uint256"
					}
				],
				"types": {
					"t_address": {
						"encoding": "inplace",
						"label": "address",
						"numberOfBytes": "20"
					},
					"t_bool": {
						"encoding": "inplace",
						"label": "bool",
						"numberOfBytes": "1"
					},
					"t_mapping(t_address,t_bool)": {
						"encoding": "mapping",
						"key": "t_address",
						"label": "mapping(address => bool)",
						"numberOfBytes": "32",
						"value": "t_bool"
					},
					"t_mapping(t_uint256,t_mapping(t_address,t_bool))": {
						"encoding": "mapping",
						"key": "t_uint256",
						"label": "mapping(uint256 => mapping(address => bool))",
						"numberOfBytes": "32",
						"value": "t_mapping(t_address,t_bool)"
					},
					"t_string_storage": {
						"encoding": "bytes",
						"label": "string",
						"numberOfBytes": "32"
					},
					"t_uint256": {
						"encoding": "inplace",
						"label": "uint256",
						"numberOfBytes": "32"
					}
				}
			},
			"userdoc": {
				"kind": "user",
				"methods": {},
				"version": 1
			}
		}
	}
}