{
	"chapter2/Ex2_6.sol": {
		"quiz2": {
			"abi": [
				{
					"inputs": [],
					"name": "instance",
					"outputs": [
						{
							"internalType": "contract Math",
							"name": "",
							"type": "address"
						}
					],
					"stateMutability": "view",
					"type": "function"
				}
			],
			"devdoc": {
				"kind": "dev",
				"methods": {},
				"version": 1
			},
			"evm": {
				"assembly": "    /* \"chapter2/Ex2_6.sol\":194:257  contract quiz2 {... */\n  mstore(0x40, 0x80)\n    /* \"chapter2/Ex2_6.sol\":238:248  new Math() */\n  mload(0x40)\n  tag_1\n  swap1\n  tag_2\n  jump\t// in\ntag_1:\n  mload(0x40)\n  dup1\n  swap2\n  sub\n  swap1\n  0x00\n  create\n  dup1\n  iszero\n  dup1\n  iszero\n  tag_3\n  jumpi\n  returndatasize\n  0x00\n  dup1\n  returndatacopy\n  revert(0x00, returndatasize)\ntag_3:\n  pop\n    /* \"chapter2/Ex2_6.sol\":215:248  Math public instance = new Math() */\n  0x00\n  dup1\n  0x0100\n  exp\n  dup2\n  sload\n  dup2\n  0xffffffffffffffffffffffffffffffffffffffff\n  mul\n  not\n  and\n  swap1\n  dup4\n  0xffffffffffffffffffffffffffffffffffffffff\n  and\n  mul\n  or\n  swap1\n  sstore\n  pop\n    /* \"chapter2/Ex2_6.sol\":194:257  contract quiz2 {... */\n  callvalue\n  dup1\n  iszero\n  tag_4\n  jumpi\n  0x00\n  dup1\n  revert\ntag_4:\n  pop\n  jump(tag_5)\ntag_2:\n  dataSize(sub_1)\n  dup1\n  dataOffset(sub_1)\n  dup4\n  codecopy\n  add\n  swap1\n  jump\t// out\ntag_5:\n  dataSize(sub_0)\n  dup1\n  dataOffset(sub_0)\n  0x00\n  codecopy\n  0x00\n  return\nstop\n\nsub_0: assembly {\n        /* \"chapter2/Ex2_6.sol\":194:257  contract quiz2 {... */\n      mstore(0x40, 0x80)\n      callvalue\n      dup1\n      iszero\n      tag_1\n      jumpi\n      0x00\n      dup1\n      revert\n    tag_1:\n      pop\n      jumpi(tag_2, lt(calldatasize, 0x04))\n      shr(0xe0, calldataload(0x00))\n      dup1\n      0x022ec095\n      eq\n      tag_3\n      jumpi\n    tag_2:\n      0x00\n      dup1\n      revert\n        /* \"chapter2/Ex2_6.sol\":215:248  Math public instance = new Math() */\n    tag_3:\n      tag_4\n      tag_5\n      jump\t// in\n    tag_4:\n      mload(0x40)\n      tag_6\n      swap2\n      swap1\n      tag_7\n      jump\t// in\n    tag_6:\n      mload(0x40)\n      dup1\n      swap2\n      sub\n      swap1\n      return\n    tag_5:\n      0x00\n      dup1\n      sload\n      swap1\n      0x0100\n      exp\n      swap1\n      div\n      0xffffffffffffffffffffffffffffffffffffffff\n      and\n      dup2\n      jump\t// out\n        /* \"#utility.yul\":7:133   */\n    tag_8:\n        /* \"#utility.yul\":44:51   */\n      0x00\n        /* \"#utility.yul\":84:126   */\n      0xffffffffffffffffffffffffffffffffffffffff\n        /* \"#utility.yul\":77:82   */\n      dup3\n        /* \"#utility.yul\":73:127   */\n      and\n        /* \"#utility.yul\":62:127   */\n      swap1\n      pop\n        /* \"#utility.yul\":7:133   */\n      swap2\n      swap1\n      pop\n      jump\t// out\n        /* \"#utility.yul\":139:199   */\n    tag_9:\n        /* \"#utility.yul\":167:170   */\n      0x00\n        /* \"#utility.yul\":188:193   */\n      dup2\n        /* \"#utility.yul\":181:193   */\n      swap1\n      pop\n        /* \"#utility.yul\":139:199   */\n      swap2\n      swap1\n      pop\n      jump\t// out\n        /* \"#utility.yul\":205:347   */\n    tag_10:\n        /* \"#utility.yul\":255:264   */\n      0x00\n        /* \"#utility.yul\":288:341   */\n      tag_18\n        /* \"#utility.yul\":306:340   */\n      tag_19\n        /* \"#utility.yul\":315:339   */\n      tag_20\n        /* \"#utility.yul\":333:338   */\n      dup5\n        /* \"#utility.yul\":315:339   */\n      tag_8\n      jump\t// in\n    tag_20:\n        /* \"#utility.yul\":306:340   */\n      tag_9\n      jump\t// in\n    tag_19:\n        /* \"#utility.yul\":288:341   */\n      tag_8\n      jump\t// in\n    tag_18:\n        /* \"#utility.yul\":275:341   */\n      swap1\n      pop\n        /* \"#utility.yul\":205:347   */\n      swap2\n      swap1\n      pop\n      jump\t// out\n        /* \"#utility.yul\":353:479   */\n    tag_11:\n        /* \"#utility.yul\":403:412   */\n      0x00\n        /* \"#utility.yul\":436:473   */\n      tag_22\n        /* \"#utility.yul\":467:472   */\n      dup3\n        /* \"#utility.yul\":436:473   */\n      tag_10\n      jump\t// in\n    tag_22:\n        /* \"#utility.yul\":423:473   */\n      swap1\n      pop\n        /* \"#utility.yul\":353:479   */\n      swap2\n      swap1\n      pop\n      jump\t// out\n        /* \"#utility.yul\":485:622   */\n    tag_12:\n        /* \"#utility.yul\":546:555   */\n      0x00\n        /* \"#utility.yul\":579:616   */\n      tag_24\n        /* \"#utility.yul\":610:615   */\n      dup3\n        /* \"#utility.yul\":579:616   */\n      tag_11\n      jump\t// in\n    tag_24:\n        /* \"#utility.yul\":566:616   */\n      swap1\n      pop\n        /* \"#utility.yul\":485:622   */\n      swap2\n      swap1\n      pop\n      jump\t// out\n        /* \"#utility.yul\":628:781   */\n    tag_13:\n        /* \"#utility.yul\":726:774   */\n      tag_26\n        /* \"#utility.yul\":768:773   */\n      dup2\n        /* \"#utility.yul\":726:774   */\n      tag_12\n      jump\t// in\n    tag_26:\n        /* \"#utility.yul\":721:724   */\n      dup3\n        /* \"#utility.yul\":714:775   */\n      mstore\n        /* \"#utility.yul\":628:781   */\n      pop\n      pop\n      jump\t// out\n        /* \"#utility.yul\":787:1031   */\n    tag_7:\n        /* \"#utility.yul\":891:895   */\n      0x00\n        /* \"#utility.yul\":929:931   */\n      0x20\n        /* \"#utility.yul\":918:927   */\n      dup3\n        /* \"#utility.yul\":914:932   */\n      add\n        /* \"#utility.yul\":906:932   */\n      swap1\n      pop\n        /* \"#utility.yul\":942:1024   */\n      tag_28\n        /* \"#utility.yul\":1021:1022   */\n      0x00\n        /* \"#utility.yul\":1010:1019   */\n      dup4\n        /* \"#utility.yul\":1006:1023   */\n      add\n        /* \"#utility.yul\":997:1003   */\n      dup5\n        /* \"#utility.yul\":942:1024   */\n      tag_13\n      jump\t// in\n    tag_28:\n        /* \"#utility.yul\":787:1031   */\n      swap3\n      swap2\n      pop\n      pop\n      jump\t// out\n\n    auxdata: 0xa26469706673582212207dc715a7c214ae033da2192c524013b4451153ed73d3b6c484499a9b6e6bbf6664736f6c63430008110033\n}\n\nsub_1: assembly {\n        /* \"chapter2/Ex2_6.sol\":70:192  contract Math {... */\n      mstore(0x40, 0x80)\n      callvalue\n      dup1\n      iszero\n      tag_1\n      jumpi\n      0x00\n      dup1\n      revert\n    tag_1:\n      pop\n      dataSize(sub_0)\n      dup1\n      dataOffset(sub_0)\n      0x00\n      codecopy\n      0x00\n      return\n    stop\n\n    sub_0: assembly {\n            /* \"chapter2/Ex2_6.sol\":70:192  contract Math {... */\n          mstore(0x40, 0x80)\n          callvalue\n          dup1\n          iszero\n          tag_1\n          jumpi\n          0x00\n          dup1\n          revert\n        tag_1:\n          pop\n          jumpi(tag_2, lt(calldatasize, 0x04))\n          shr(0xe0, calldataload(0x00))\n          dup1\n          0x771602f7\n          eq\n          tag_3\n          jumpi\n        tag_2:\n          0x00\n          dup1\n          revert\n            /* \"chapter2/Ex2_6.sol\":90:190  function add(uint _num1, uint _num2) public pure returns(uint) {... */\n        tag_3:\n          tag_4\n          0x04\n          dup1\n          calldatasize\n          sub\n          dup2\n          add\n          swap1\n          tag_5\n          swap2\n          swap1\n          tag_6\n          jump\t// in\n        tag_5:\n          tag_7\n          jump\t// in\n        tag_4:\n          mload(0x40)\n          tag_8\n          swap2\n          swap1\n          tag_9\n          jump\t// in\n        tag_8:\n          mload(0x40)\n          dup1\n          swap2\n          sub\n          swap1\n          return\n        tag_7:\n            /* \"chapter2/Ex2_6.sol\":147:151  uint */\n          0x00\n            /* \"chapter2/Ex2_6.sol\":178:183  _num2 */\n          dup2\n            /* \"chapter2/Ex2_6.sol\":170:175  _num1 */\n          dup4\n            /* \"chapter2/Ex2_6.sol\":170:183  _num1 + _num2 */\n          tag_11\n          swap2\n          swap1\n          tag_12\n          jump\t// in\n        tag_11:\n            /* \"chapter2/Ex2_6.sol\":163:183  return _num1 + _num2 */\n          swap1\n          pop\n            /* \"chapter2/Ex2_6.sol\":90:190  function add(uint _num1, uint _num2) public pure returns(uint) {... */\n          swap3\n          swap2\n          pop\n          pop\n          jump\t// out\n            /* \"#utility.yul\":88:205   */\n        tag_14:\n            /* \"#utility.yul\":197:198   */\n          0x00\n            /* \"#utility.yul\":194:195   */\n          dup1\n            /* \"#utility.yul\":187:199   */\n          revert\n            /* \"#utility.yul\":334:411   */\n        tag_16:\n            /* \"#utility.yul\":371:378   */\n          0x00\n            /* \"#utility.yul\":400:405   */\n          dup2\n            /* \"#utility.yul\":389:405   */\n          swap1\n          pop\n            /* \"#utility.yul\":334:411   */\n          swap2\n          swap1\n          pop\n          jump\t// out\n            /* \"#utility.yul\":417:539   */\n        tag_17:\n            /* \"#utility.yul\":490:514   */\n          tag_27\n            /* \"#utility.yul\":508:513   */\n          dup2\n            /* \"#utility.yul\":490:514   */\n          tag_16\n          jump\t// in\n        tag_27:\n            /* \"#utility.yul\":483:488   */\n          dup2\n            /* \"#utility.yul\":480:515   */\n          eq\n            /* \"#utility.yul\":470:533   */\n          tag_28\n          jumpi\n            /* \"#utility.yul\":529:530   */\n          0x00\n            /* \"#utility.yul\":526:527   */\n          dup1\n            /* \"#utility.yul\":519:531   */\n          revert\n            /* \"#utility.yul\":470:533   */\n        tag_28:\n            /* \"#utility.yul\":417:539   */\n          pop\n          jump\t// out\n            /* \"#utility.yul\":545:684   */\n        tag_18:\n            /* \"#utility.yul\":591:596   */\n          0x00\n            /* \"#utility.yul\":629:635   */\n          dup2\n            /* \"#utility.yul\":616:636   */\n          calldataload\n            /* \"#utility.yul\":607:636   */\n          swap1\n          pop\n            /* \"#utility.yul\":645:678   */\n          tag_30\n            /* \"#utility.yul\":672:677   */\n          dup2\n            /* \"#utility.yul\":645:678   */\n          tag_17\n          jump\t// in\n        tag_30:\n            /* \"#utility.yul\":545:684   */\n          swap3\n          swap2\n          pop\n          pop\n          jump\t// out\n            /* \"#utility.yul\":690:1164   */\n        tag_6:\n            /* \"#utility.yul\":758:764   */\n          0x00\n            /* \"#utility.yul\":766:772   */\n          dup1\n            /* \"#utility.yul\":815:817   */\n          0x40\n            /* \"#utility.yul\":803:812   */\n          dup4\n            /* \"#utility.yul\":794:801   */\n          dup6\n            /* \"#utility.yul\":790:813   */\n          sub\n            /* \"#utility.yul\":786:818   */\n          slt\n            /* \"#utility.yul\":783:902   */\n          iszero\n          tag_32\n          jumpi\n            /* \"#utility.yul\":821:900   */\n          tag_33\n          tag_14\n          jump\t// in\n        tag_33:\n            /* \"#utility.yul\":783:902   */\n        tag_32:\n            /* \"#utility.yul\":941:942   */\n          0x00\n            /* \"#utility.yul\":966:1019   */\n          tag_34\n            /* \"#utility.yul\":1011:1018   */\n          dup6\n            /* \"#utility.yul\":1002:1008   */\n          dup3\n            /* \"#utility.yul\":991:1000   */\n          dup7\n            /* \"#utility.yul\":987:1009   */\n          add\n            /* \"#utility.yul\":966:1019   */\n          tag_18\n          jump\t// in\n        tag_34:\n            /* \"#utility.yul\":956:1019   */\n          swap3\n          pop\n            /* \"#utility.yul\":912:1029   */\n          pop\n            /* \"#utility.yul\":1068:1070   */\n          0x20\n            /* \"#utility.yul\":1094:1147   */\n          tag_35\n            /* \"#utility.yul\":1139:1146   */\n          dup6\n            /* \"#utility.yul\":1130:1136   */\n          dup3\n            /* \"#utility.yul\":1119:1128   */\n          dup7\n            /* \"#utility.yul\":1115:1137   */\n          add\n            /* \"#utility.yul\":1094:1147   */\n          tag_18\n          jump\t// in\n        tag_35:\n            /* \"#utility.yul\":1084:1147   */\n          swap2\n          pop\n            /* \"#utility.yul\":1039:1157   */\n          pop\n            /* \"#utility.yul\":690:1164   */\n          swap3\n          pop\n          swap3\n          swap1\n          pop\n          jump\t// out\n            /* \"#utility.yul\":1170:1288   */\n        tag_19:\n            /* \"#utility.yul\":1257:1281   */\n          tag_37\n            /* \"#utility.yul\":1275:1280   */\n          dup2\n            /* \"#utility.yul\":1257:1281   */\n          tag_16\n          jump\t// in\n        tag_37:\n            /* \"#utility.yul\":1252:1255   */\n          dup3\n            /* \"#utility.yul\":1245:1282   */\n          mstore\n            /* \"#utility.yul\":1170:1288   */\n          pop\n          pop\n          jump\t// out\n            /* \"#utility.yul\":1294:1516   */\n        tag_9:\n            /* \"#utility.yul\":1387:1391   */\n          0x00\n            /* \"#utility.yul\":1425:1427   */\n          0x20\n            /* \"#utility.yul\":1414:1423   */\n          dup3\n            /* \"#utility.yul\":1410:1428   */\n          add\n            /* \"#utility.yul\":1402:1428   */\n          swap1\n          pop\n            /* \"#utility.yul\":1438:1509   */\n          tag_39\n            /* \"#utility.yul\":1506:1507   */\n          0x00\n            /* \"#utility.yul\":1495:1504   */\n          dup4\n            /* \"#utility.yul\":1491:1508   */\n          add\n            /* \"#utility.yul\":1482:1488   */\n          dup5\n            /* \"#utility.yul\":1438:1509   */\n          tag_19\n          jump\t// in\n        tag_39:\n            /* \"#utility.yul\":1294:1516   */\n          swap3\n          swap2\n          pop\n          pop\n          jump\t// out\n            /* \"#utility.yul\":1522:1702   */\n        tag_20:\n            /* \"#utility.yul\":1570:1647   */\n          0x4e487b7100000000000000000000000000000000000000000000000000000000\n            /* \"#utility.yul\":1567:1568   */\n          0x00\n            /* \"#utility.yul\":1560:1648   */\n          mstore\n            /* \"#utility.yul\":1667:1671   */\n          0x11\n            /* \"#utility.yul\":1664:1665   */\n          0x04\n            /* \"#utility.yul\":1657:1672   */\n          mstore\n            /* \"#utility.yul\":1691:1695   */\n          0x24\n            /* \"#utility.yul\":1688:1689   */\n          0x00\n            /* \"#utility.yul\":1681:1696   */\n          revert\n            /* \"#utility.yul\":1708:1899   */\n        tag_12:\n            /* \"#utility.yul\":1748:1751   */\n          0x00\n            /* \"#utility.yul\":1767:1787   */\n          tag_42\n            /* \"#utility.yul\":1785:1786   */\n          dup3\n            /* \"#utility.yul\":1767:1787   */\n          tag_16\n          jump\t// in\n        tag_42:\n            /* \"#utility.yul\":1762:1787   */\n          swap2\n          pop\n            /* \"#utility.yul\":1801:1821   */\n          tag_43\n            /* \"#utility.yul\":1819:1820   */\n          dup4\n            /* \"#utility.yul\":1801:1821   */\n          tag_16\n          jump\t// in\n        tag_43:\n            /* \"#utility.yul\":1796:1821   */\n          swap3\n          pop\n            /* \"#utility.yul\":1844:1845   */\n          dup3\n            /* \"#utility.yul\":1841:1842   */\n          dup3\n            /* \"#utility.yul\":1837:1846   */\n          add\n            /* \"#utility.yul\":1830:1846   */\n          swap1\n          pop\n            /* \"#utility.yul\":1865:1868   */\n          dup1\n            /* \"#utility.yul\":1862:1863   */\n          dup3\n            /* \"#utility.yul\":1859:1869   */\n          gt\n            /* \"#utility.yul\":1856:1892   */\n          iszero\n          tag_44\n          jumpi\n            /* \"#utility.yul\":1872:1890   */\n          tag_45\n          tag_20\n          jump\t// in\n        tag_45:\n            /* \"#utility.yul\":1856:1892   */\n        tag_44:\n            /* \"#utility.yul\":1708:1899   */\n          swap3\n          swap2\n          pop\n          pop\n          jump\t// out\n\n        auxdata: 0xa2646970667358221220f5a15cd208b031df5b0934baa86e2e9ce6bfc8dbab8fa729feb81100c14a312564736f6c63430008110033\n    }\n}\n",
				"bytecode": {
					"linkReferences": {},
					"object": "60806040526040516100109061007e565b604051809103906000f08015801561002c573d6000803e3d6000fd5b506000806101000a81548173ffffffffffffffffffffffffffffffffffffffff021916908373ffffffffffffffffffffffffffffffffffffffff16021790555034801561007857600080fd5b5061008b565b6101d4806101c783390190565b61012d8061009a6000396000f3fe6080604052348015600f57600080fd5b506004361060285760003560e01c8063022ec09514602d575b600080fd5b60336047565b604051603e919060de565b60405180910390f35b60008054906101000a900473ffffffffffffffffffffffffffffffffffffffff1681565b600073ffffffffffffffffffffffffffffffffffffffff82169050919050565b6000819050919050565b600060aa60a660a284606b565b608b565b606b565b9050919050565b600060ba826095565b9050919050565b600060ca8260b1565b9050919050565b60d88160c1565b82525050565b600060208201905060f1600083018460d1565b9291505056fea26469706673582212207dc715a7c214ae033da2192c524013b4451153ed73d3b6c484499a9b6e6bbf6664736f6c63430008110033608060405234801561001057600080fd5b506101b4806100206000396000f3fe608060405234801561001057600080fd5b506004361061002b5760003560e01c8063771602f714610030575b600080fd5b61004a600480360381019061004591906100b1565b610060565b6040516100579190610100565b60405180910390f35b6000818361006e919061014a565b905092915050565b600080fd5b6000819050919050565b61008e8161007b565b811461009957600080fd5b50565b6000813590506100ab81610085565b92915050565b600080604083850312156100c8576100c7610076565b5b60006100d68582860161009c565b92505060206100e78582860161009c565b9150509250929050565b6100fa8161007b565b82525050565b600060208201905061011560008301846100f1565b92915050565b7f4e487b7100000000000000000000000000000000000000000000000000000000600052601160045260246000fd5b60006101558261007b565b91506101608361007b565b92508282019050808211156101785761017761011b565b5b9291505056fea2646970667358221220f5a15cd208b031df5b0934baa86e2e9ce6bfc8dbab8fa729feb81100c14a312564736f6c63430008110033",
					"opcodes": "PUSH1 0x80 PUSH1 0x40 MSTORE PUSH1 0x40 MLOAD PUSH2 0x10 SWAP1 PUSH2 0x7E JUMP JUMPDEST PUSH1 0x40 MLOAD DUP1 SWAP2 SUB SWAP1 PUSH1 0x0 CREATE DUP1 ISZERO DUP1 ISZERO PUSH2 0x2C JUMPI RETURNDATASIZE PUSH1 0x0 DUP1 RETURNDATACOPY RETURNDATASIZE PUSH1 0x0 REVERT JUMPDEST POP PUSH1 0x0 DUP1 PUSH2 0x100 EXP DUP2 SLOAD DUP2 PUSH20 0xFFFFFFFFFFFFFFFFFFFFFFFFFFFFFFFFFFFFFFFF MUL NOT AND SWAP1 DUP4 PUSH20 0xFFFFFFFFFFFFFFFFFFFFFFFFFFFFFFFFFFFFFFFF AND MUL OR SWAP1 SSTORE POP CALLVALUE DUP1 ISZERO PUSH2 0x78 JUMPI PUSH1 0x0 DUP1 REVERT JUMPDEST POP PUSH2 0x8B JUMP JUMPDEST PUSH2 0x1D4 DUP1 PUSH2 0x1C7 DUP4 CODECOPY ADD SWAP1 JUMP JUMPDEST PUSH2 0x12D DUP1 PUSH2 0x9A PUSH1 0x0 CODECOPY PUSH1 0x0 RETURN INVALID PUSH1 0x80 PUSH1 0x40 MSTORE CALLVALUE DUP1 ISZERO PUSH1 0xF JUMPI PUSH1 0x0 DUP1 REVERT JUMPDEST POP PUSH1 0x4 CALLDATASIZE LT PUSH1 0x28 JUMPI PUSH1 0x0 CALLDATALOAD PUSH1 0xE0 SHR DUP1 PUSH4 0x22EC095 EQ PUSH1 0x2D JUMPI JUMPDEST PUSH1 0x0 DUP1 REVERT JUMPDEST PUSH1 0x33 PUSH1 0x47 JUMP JUMPDEST PUSH1 0x40 MLOAD PUSH1 0x3E SWAP2 SWAP1 PUSH1 0xDE JUMP JUMPDEST PUSH1 0x40 MLOAD DUP1 SWAP2 SUB SWAP1 RETURN JUMPDEST PUSH1 0x0 DUP1 SLOAD SWAP1 PUSH2 0x100 EXP SWAP1 DIV PUSH20 0xFFFFFFFFFFFFFFFFFFFFFFFFFFFFFFFFFFFFFFFF AND DUP2 JUMP JUMPDEST PUSH1 0x0 PUSH20 0xFFFFFFFFFFFFFFFFFFFFFFFFFFFFFFFFFFFFFFFF DUP3 AND SWAP1 POP SWAP2 SWAP1 POP JUMP JUMPDEST PUSH1 0x0 DUP2 SWAP1 POP SWAP2 SWAP1 POP JUMP JUMPDEST PUSH1 0x0 PUSH1 0xAA PUSH1 0xA6 PUSH1 0xA2 DUP5 PUSH1 0x6B JUMP JUMPDEST PUSH1 0x8B JUMP JUMPDEST PUSH1 0x6B JUMP JUMPDEST SWAP1 POP SWAP2 SWAP1 POP JUMP JUMPDEST PUSH1 0x0 PUSH1 0xBA DUP3 PUSH1 0x95 JUMP JUMPDEST SWAP1 POP SWAP2 SWAP1 POP JUMP JUMPDEST PUSH1 0x0 PUSH1 0xCA DUP3 PUSH1 0xB1 JUMP JUMPDEST SWAP1 POP SWAP2 SWAP1 POP JUMP JUMPDEST PUSH1 0xD8 DUP2 PUSH1 0xC1 JUMP JUMPDEST DUP3 MSTORE POP POP JUMP JUMPDEST PUSH1 0x0 PUSH1 0x20 DUP3 ADD SWAP1 POP PUSH1 0xF1 PUSH1 0x0 DUP4 ADD DUP5 PUSH1 0xD1 JUMP JUMPDEST SWAP3 SWAP2 POP POP JUMP INVALID LOG2 PUSH5 0x6970667358 0x22 SLT KECCAK256 PUSH30 0xC715A7C214AE033DA2192C524013B4451153ED73D3B6C484499A9B6E6BBF PUSH7 0x64736F6C634300 ADDMOD GT STOP CALLER PUSH1 0x80 PUSH1 0x40 MSTORE CALLVALUE DUP1 ISZERO PUSH2 0x10 JUMPI PUSH1 0x0 DUP1 REVERT JUMPDEST POP PUSH2 0x1B4 DUP1 PUSH2 0x20 PUSH1 0x0 CODECOPY PUSH1 0x0 RETURN INVALID PUSH1 0x80 PUSH1 0x40 MSTORE CALLVALUE DUP1 ISZERO PUSH2 0x10 JUMPI PUSH1 0x0 DUP1 REVERT JUMPDEST POP PUSH1 0x4 CALLDATASIZE LT PUSH2 0x2B JUMPI PUSH1 0x0 CALLDATALOAD PUSH1 0xE0 SHR DUP1 PUSH4 0x771602F7 EQ PUSH2 0x30 JUMPI JUMPDEST PUSH1 0x0 DUP1 REVERT JUMPDEST PUSH2 0x4A PUSH1 0x4 DUP1 CALLDATASIZE SUB DUP2 ADD SWAP1 PUSH2 0x45 SWAP2 SWAP1 PUSH2 0xB1 JUMP JUMPDEST PUSH2 0x60 JUMP JUMPDEST PUSH1 0x40 MLOAD PUSH2 0x57 SWAP2 SWAP1 PUSH2 0x100 JUMP JUMPDEST PUSH1 0x40 MLOAD DUP1 SWAP2 SUB SWAP1 RETURN JUMPDEST PUSH1 0x0 DUP2 DUP4 PUSH2 0x6E SWAP2 SWAP1 PUSH2 0x14A JUMP JUMPDEST SWAP1 POP SWAP3 SWAP2 POP POP JUMP JUMPDEST PUSH1 0x0 DUP1 REVERT JUMPDEST PUSH1 0x0 DUP2 SWAP1 POP SWAP2 SWAP1 POP JUMP JUMPDEST PUSH2 0x8E DUP2 PUSH2 0x7B JUMP JUMPDEST DUP2 EQ PUSH2 0x99 JUMPI PUSH1 0x0 DUP1 REVERT JUMPDEST POP JUMP JUMPDEST PUSH1 0x0 DUP2 CALLDATALOAD SWAP1 POP PUSH2 0xAB DUP2 PUSH2 0x85 JUMP JUMPDEST SWAP3 SWAP2 POP POP JUMP JUMPDEST PUSH1 0x0 DUP1 PUSH1 0x40 DUP4 DUP6 SUB SLT ISZERO PUSH2 0xC8 JUMPI PUSH2 0xC7 PUSH2 0x76 JUMP JUMPDEST JUMPDEST PUSH1 0x0 PUSH2 0xD6 DUP6 DUP3 DUP7 ADD PUSH2 0x9C JUMP JUMPDEST SWAP3 POP POP PUSH1 0x20 PUSH2 0xE7 DUP6 DUP3 DUP7 ADD PUSH2 0x9C JUMP JUMPDEST SWAP2 POP POP SWAP3 POP SWAP3 SWAP1 POP JUMP JUMPDEST PUSH2 0xFA DUP2 PUSH2 0x7B JUMP JUMPDEST DUP3 MSTORE POP POP JUMP JUMPDEST PUSH1 0x0 PUSH1 0x20 DUP3 ADD SWAP1 POP PUSH2 0x115 PUSH1 0x0 DUP4 ADD DUP5 PUSH2 0xF1 JUMP JUMPDEST SWAP3 SWAP2 POP POP JUMP JUMPDEST PUSH32 0x4E487B7100000000000000000000000000000000000000000000000000000000 PUSH1 0x0 MSTORE PUSH1 0x11 PUSH1 0x4 MSTORE PUSH1 0x24 PUSH1 0x0 REVERT JUMPDEST PUSH1 0x0 PUSH2 0x155 DUP3 PUSH2 0x7B JUMP JUMPDEST SWAP2 POP PUSH2 0x160 DUP4 PUSH2 0x7B JUMP JUMPDEST SWAP3 POP DUP3 DUP3 ADD SWAP1 POP DUP1 DUP3 GT ISZERO PUSH2 0x178 JUMPI PUSH2 0x177 PUSH2 0x11B JUMP JUMPDEST JUMPDEST SWAP3 SWAP2 POP POP JUMP INVALID LOG2 PUSH5 0x6970667358 0x22 SLT KECCAK256 CREATE2 LOG1 0x5C 0xD2 ADDMOD 0xB0 BALANCE 0xDF JUMPDEST MULMOD CALLVALUE 0xBA 0xA8 PUSH15 0x2E9CE6BFC8DBAB8FA729FEB81100C1 0x4A BALANCE 0x25 PUSH5 0x736F6C6343 STOP ADDMOD GT STOP CALLER "
				},
				"gasEstimates": {
					"creation": {
						"codeDepositCost": "60200",
						"executionCost": "infinite",
						"totalCost": "infinite"
					},
					"external": {
						"instance()": "infinite"
					}
				},
				"methodIdentifiers": {
					"instance()": "022ec095"
				}
			},
			"storageLayout": {
				"storage": [
					{
						"astId": 23,
						"contract": "chapter2/Ex2_6.sol:quiz2",
						"label": "instance",
						"offset": 0,
						"slot": "0",
						"type": "t_contract(Math)16"
					}
				],
				"types": {
					"t_contract(Math)16": {
						"encoding": "inplace",
						"label": "contract Math",
						"numberOfBytes": "20"
					}
				}
			},
			"userdoc": {
				"kind": "user",
				"methods": {},
				"version": 1
			}
		}
	}
}