{
	"chapter2/Ex2_10.sol": {
		"Ex2_10": {
			"abi": [
				{
					"inputs": [],
					"name": "bitwise",
					"outputs": [
						{
							"internalType": "bytes1",
							"name": "",
							"type": "bytes1"
						},
						{
							"internalType": "bytes1",
							"name": "",
							"type": "bytes1"
						},
						{
							"internalType": "bytes1",
							"name": "",
							"type": "bytes1"
						},
						{
							"internalType": "bytes1",
							"name": "",
							"type": "bytes1"
						}
					],
					"stateMutability": "view",
					"type": "function"
				}
			],
			"devdoc": {
				"kind": "dev",
				"methods": {},
				"version": 1
			},
			"evm": {
				"assembly": "    /* \"chapter2/Ex2_10.sol\":70:225  contract Ex2_10 {... */\n  mstore(0x40, 0x80)\n    /* \"chapter2/Ex2_10.sol\":103:107  0x01 */\n  0x01\n    /* \"chapter2/Ex2_10.sol\":92:107  bytes1 a = 0x01 */\n  0xf8\n  shl\n  0x00\n  dup1\n  0x0100\n  exp\n  dup2\n  sload\n  dup2\n  0xff\n  mul\n  not\n  and\n  swap1\n  dup4\n  0xf8\n  shr\n  mul\n  or\n  swap1\n  sstore\n  pop\n    /* \"chapter2/Ex2_10.sol\":124:128  0x03 */\n  0x03\n    /* \"chapter2/Ex2_10.sol\":113:128  bytes1 b = 0x03 */\n  0xf8\n  shl\n  0x00\n  exp(0x0100, 0x01)\n  dup2\n  sload\n  dup2\n  0xff\n  mul\n  not\n  and\n  swap1\n  dup4\n  0xf8\n  shr\n  mul\n  or\n  swap1\n  sstore\n  pop\n    /* \"chapter2/Ex2_10.sol\":70:225  contract Ex2_10 {... */\n  callvalue\n  dup1\n  iszero\n  tag_1\n  jumpi\n  0x00\n  dup1\n  revert\ntag_1:\n  pop\n  dataSize(sub_0)\n  dup1\n  dataOffset(sub_0)\n  0x00\n  codecopy\n  0x00\n  return\nstop\n\nsub_0: assembly {\n        /* \"chapter2/Ex2_10.sol\":70:225  contract Ex2_10 {... */\n      mstore(0x40, 0x80)\n      callvalue\n      dup1\n      iszero\n      tag_1\n      jumpi\n      0x00\n      dup1\n      revert\n    tag_1:\n      pop\n      jumpi(tag_2, lt(calldatasize, 0x04))\n      shr(0xe0, calldataload(0x00))\n      dup1\n      0x856b16a4\n      eq\n      tag_3\n      jumpi\n    tag_2:\n      0x00\n      dup1\n      revert\n        /* \"chapter2/Ex2_10.sol\":135:223  function bitwise() public view returns (bytes1, bytes1, bytes1, bytes1) {... */\n    tag_3:\n      tag_4\n      tag_5\n      jump\t// in\n    tag_4:\n      mload(0x40)\n      tag_6\n      swap5\n      swap4\n      swap3\n      swap2\n      swap1\n      tag_7\n      jump\t// in\n    tag_6:\n      mload(0x40)\n      dup1\n      swap2\n      sub\n      swap1\n      return\n    tag_5:\n        /* \"chapter2/Ex2_10.sol\":175:181  bytes1 */\n      0x00\n        /* \"chapter2/Ex2_10.sol\":183:189  bytes1 */\n      dup1\n        /* \"chapter2/Ex2_10.sol\":191:197  bytes1 */\n      0x00\n        /* \"chapter2/Ex2_10.sol\":199:205  bytes1 */\n      dup1\n        /* \"chapter2/Ex2_10.sol\":135:223  function bitwise() public view returns (bytes1, bytes1, bytes1, bytes1) {... */\n      swap2\n      swap3\n      swap4\n      jump\t// out\n        /* \"#utility.yul\":7:122   */\n    tag_10:\n        /* \"#utility.yul\":92:115   */\n      tag_12\n        /* \"#utility.yul\":109:114   */\n      dup2\n        /* \"#utility.yul\":92:115   */\n      tag_13\n      jump\t// in\n    tag_12:\n        /* \"#utility.yul\":87:90   */\n      dup3\n        /* \"#utility.yul\":80:116   */\n      mstore\n        /* \"#utility.yul\":7:122   */\n      pop\n      pop\n      jump\t// out\n        /* \"#utility.yul\":128:665   */\n    tag_7:\n        /* \"#utility.yul\":297:301   */\n      0x00\n        /* \"#utility.yul\":335:338   */\n      0x80\n        /* \"#utility.yul\":324:333   */\n      dup3\n        /* \"#utility.yul\":320:339   */\n      add\n        /* \"#utility.yul\":312:339   */\n      swap1\n      pop\n        /* \"#utility.yul\":349:418   */\n      tag_15\n        /* \"#utility.yul\":415:416   */\n      0x00\n        /* \"#utility.yul\":404:413   */\n      dup4\n        /* \"#utility.yul\":400:417   */\n      add\n        /* \"#utility.yul\":391:397   */\n      dup8\n        /* \"#utility.yul\":349:418   */\n      tag_10\n      jump\t// in\n    tag_15:\n        /* \"#utility.yul\":428:498   */\n      tag_16\n        /* \"#utility.yul\":494:496   */\n      0x20\n        /* \"#utility.yul\":483:492   */\n      dup4\n        /* \"#utility.yul\":479:497   */\n      add\n        /* \"#utility.yul\":470:476   */\n      dup7\n        /* \"#utility.yul\":428:498   */\n      tag_10\n      jump\t// in\n    tag_16:\n        /* \"#utility.yul\":508:578   */\n      tag_17\n        /* \"#utility.yul\":574:576   */\n      0x40\n        /* \"#utility.yul\":563:572   */\n      dup4\n        /* \"#utility.yul\":559:577   */\n      add\n        /* \"#utility.yul\":550:556   */\n      dup6\n        /* \"#utility.yul\":508:578   */\n      tag_10\n      jump\t// in\n    tag_17:\n        /* \"#utility.yul\":588:658   */\n      tag_18\n        /* \"#utility.yul\":654:656   */\n      0x60\n        /* \"#utility.yul\":643:652   */\n      dup4\n        /* \"#utility.yul\":639:657   */\n      add\n        /* \"#utility.yul\":630:636   */\n      dup5\n        /* \"#utility.yul\":588:658   */\n      tag_10\n      jump\t// in\n    tag_18:\n        /* \"#utility.yul\":128:665   */\n      swap6\n      swap5\n      pop\n      pop\n      pop\n      pop\n      pop\n      jump\t// out\n        /* \"#utility.yul\":671:820   */\n    tag_13:\n        /* \"#utility.yul\":707:714   */\n      0x00\n        /* \"#utility.yul\":747:813   */\n      0xff00000000000000000000000000000000000000000000000000000000000000\n        /* \"#utility.yul\":740:745   */\n      dup3\n        /* \"#utility.yul\":736:814   */\n      and\n        /* \"#utility.yul\":725:814   */\n      swap1\n      pop\n        /* \"#utility.yul\":671:820   */\n      swap2\n      swap1\n      pop\n      jump\t// out\n\n    auxdata: 0xa2646970667358221220f83c8616c12d315d5ba2852610ec94a6475c3772ca3deab4f3698ea72641332464736f6c63430008070033\n}\n",
				"bytecode": {
					"linkReferences": {},
					"object": "6080604052600160f81b6000806101000a81548160ff021916908360f81c0217905550600360f81b600060016101000a81548160ff021916908360f81c021790555034801561004d57600080fd5b506101018061005d6000396000f3fe6080604052348015600f57600080fd5b506004361060285760003560e01c8063856b16a414602d575b600080fd5b6033604a565b604051604194939291906062565b60405180910390f35b600080600080919293565b605c81609f565b82525050565b6000608082019050607560008301876055565b608060208301866055565b608b60408301856055565b609660608301846055565b95945050505050565b60007fff000000000000000000000000000000000000000000000000000000000000008216905091905056fea2646970667358221220f83c8616c12d315d5ba2852610ec94a6475c3772ca3deab4f3698ea72641332464736f6c63430008070033",
					"opcodes": "PUSH1 0x80 PUSH1 0x40 MSTORE PUSH1 0x1 PUSH1 0xF8 SHL PUSH1 0x0 DUP1 PUSH2 0x100 EXP DUP2 SLOAD DUP2 PUSH1 0xFF MUL NOT AND SWAP1 DUP4 PUSH1 0xF8 SHR MUL OR SWAP1 SSTORE POP PUSH1 0x3 PUSH1 0xF8 SHL PUSH1 0x0 PUSH1 0x1 PUSH2 0x100 EXP DUP2 SLOAD DUP2 PUSH1 0xFF MUL NOT AND SWAP1 DUP4 PUSH1 0xF8 SHR MUL OR SWAP1 SSTORE POP CALLVALUE DUP1 ISZERO PUSH2 0x4D JUMPI PUSH1 0x0 DUP1 REVERT JUMPDEST POP PUSH2 0x101 DUP1 PUSH2 0x5D PUSH1 0x0 CODECOPY PUSH1 0x0 RETURN INVALID PUSH1 0x80 PUSH1 0x40 MSTORE CALLVALUE DUP1 ISZERO PUSH1 0xF JUMPI PUSH1 0x0 DUP1 REVERT JUMPDEST POP PUSH1 0x4 CALLDATASIZE LT PUSH1 0x28 JUMPI PUSH1 0x0 CALLDATALOAD PUSH1 0xE0 SHR DUP1 PUSH4 0x856B16A4 EQ PUSH1 0x2D JUMPI JUMPDEST PUSH1 0x0 DUP1 REVERT JUMPDEST PUSH1 0x33 PUSH1 0x4A JUMP JUMPDEST PUSH1 0x40 MLOAD PUSH1 0x41 SWAP5 SWAP4 SWAP3 SWAP2 SWAP1 PUSH1 0x62 JUMP JUMPDEST PUSH1 0x40 MLOAD DUP1 SWAP2 SUB SWAP1 RETURN JUMPDEST PUSH1 0x0 DUP1 PUSH1 0x0 DUP1 SWAP2 SWAP3 SWAP4 JUMP JUMPDEST PUSH1 0x5C DUP2 PUSH1 0x9F JUMP JUMPDEST DUP3 MSTORE POP POP JUMP JUMPDEST PUSH1 0x0 PUSH1 0x80 DUP3 ADD SWAP1 POP PUSH1 0x75 PUSH1 0x0 DUP4 ADD DUP8 PUSH1 0x55 JUMP JUMPDEST PUSH1 0x80 PUSH1 0x20 DUP4 ADD DUP7 PUSH1 0x55 JUMP JUMPDEST PUSH1 0x8B PUSH1 0x40 DUP4 ADD DUP6 PUSH1 0x55 JUMP JUMPDEST PUSH1 0x96 PUSH1 0x60 DUP4 ADD DUP5 PUSH1 0x55 JUMP JUMPDEST SWAP6 SWAP5 POP POP POP POP POP JUMP JUMPDEST PUSH1 0x0 PUSH32 0xFF00000000000000000000000000000000000000000000000000000000000000 DUP3 AND SWAP1 POP SWAP2 SWAP1 POP JUMP INVALID LOG2 PUSH5 0x6970667358 0x22 SLT KECCAK256 0xF8 EXTCODECOPY DUP7 AND 0xC1 0x2D BALANCE 0x5D JUMPDEST LOG2 DUP6 0x26 LT 0xEC SWAP5 0xA6 SELFBALANCE 0x5C CALLDATACOPY PUSH19 0xCA3DEAB4F3698EA72641332464736F6C634300 ADDMOD SMOD STOP CALLER "
				},
				"gasEstimates": {
					"creation": {
						"codeDepositCost": "51400",
						"executionCost": "48701",
						"totalCost": "100101"
					},
					"external": {
						"bitwise()": "infinite"
					}
				},
				"methodIdentifiers": {
					"bitwise()": "856b16a4"
				}
			},
			"storageLayout": {
				"storage": [
					{
						"astId": 4,
						"contract": "chapter2/Ex2_10.sol:Ex2_10",
						"label": "a",
						"offset": 0,
						"slot": "0",
						"type": "t_bytes1"
					},
					{
						"astId": 7,
						"contract": "chapter2/Ex2_10.sol:Ex2_10",
						"label": "b",
						"offset": 1,
						"slot": "0",
						"type": "t_bytes1"
					}
				],
				"types": {
					"t_bytes1": {
						"encoding": "inplace",
						"label": "bytes1",
						"numberOfBytes": "1"
					}
				}
			},
			"userdoc": {
				"kind": "user",
				"methods": {},
				"version": 1
			}
		}
	}
}