{
	"chapter2/Ex2_10.sol": {
		"Ex2_10": {
			"abi": [
				{
					"inputs": [],
					"name": "myFun",
					"outputs": [
						{
							"internalType": "uint256",
							"name": "age",
							"type": "uint256"
						},
						{
							"internalType": "uint256",
							"name": "weight",
							"type": "uint256"
						}
					],
					"stateMutability": "pure",
					"type": "function"
				}
			],
			"devdoc": {
				"kind": "dev",
				"methods": {},
				"version": 1
			},
			"evm": {
				"assembly": "    /* \"chapter2/Ex2_10.sol\":70:206  contract Ex2_10 {... */\n  mstore(0x40, 0x80)\n  callvalue\n  dup1\n  iszero\n  tag_1\n  jumpi\n  0x00\n  dup1\n  revert\ntag_1:\n  pop\n  dataSize(sub_0)\n  dup1\n  dataOffset(sub_0)\n  0x00\n  codecopy\n  0x00\n  return\nstop\n\nsub_0: assembly {\n        /* \"chapter2/Ex2_10.sol\":70:206  contract Ex2_10 {... */\n      mstore(0x40, 0x80)\n      callvalue\n      dup1\n      iszero\n      tag_1\n      jumpi\n      0x00\n      dup1\n      revert\n    tag_1:\n      pop\n      jumpi(tag_2, lt(calldatasize, 0x04))\n      shr(0xe0, calldataload(0x00))\n      dup1\n      0x75bbb4e7\n      eq\n      tag_3\n      jumpi\n    tag_2:\n      0x00\n      dup1\n      revert\n        /* \"chapter2/Ex2_10.sol\":99:204  function myFun() public pure returns(uint age, uint weight){... */\n    tag_3:\n      tag_4\n      tag_5\n      jump\t// in\n    tag_4:\n      mload(0x40)\n      tag_6\n      swap3\n      swap2\n      swap1\n      tag_7\n      jump\t// in\n    tag_6:\n      mload(0x40)\n      dup1\n      swap2\n      sub\n      swap1\n      return\n    tag_5:\n        /* \"chapter2/Ex2_10.sol\":136:144  uint age */\n      0x00\n        /* \"chapter2/Ex2_10.sol\":146:157  uint weight */\n      dup1\n        /* \"chapter2/Ex2_10.sol\":174:176  31 */\n      0x1f\n        /* \"chapter2/Ex2_10.sol\":168:176  age = 31 */\n      swap2\n      pop\n        /* \"chapter2/Ex2_10.sol\":195:197  60 */\n      0x3c\n        /* \"chapter2/Ex2_10.sol\":186:197  weight = 60 */\n      swap1\n      pop\n        /* \"chapter2/Ex2_10.sol\":99:204  function myFun() public pure returns(uint age, uint weight){... */\n      swap1\n      swap2\n      jump\t// out\n        /* \"#utility.yul\":7:125   */\n    tag_10:\n        /* \"#utility.yul\":94:118   */\n      tag_12\n        /* \"#utility.yul\":112:117   */\n      dup2\n        /* \"#utility.yul\":94:118   */\n      tag_13\n      jump\t// in\n    tag_12:\n        /* \"#utility.yul\":89:92   */\n      dup3\n        /* \"#utility.yul\":82:119   */\n      mstore\n        /* \"#utility.yul\":7:125   */\n      pop\n      pop\n      jump\t// out\n        /* \"#utility.yul\":131:463   */\n    tag_7:\n        /* \"#utility.yul\":252:256   */\n      0x00\n        /* \"#utility.yul\":290:292   */\n      0x40\n        /* \"#utility.yul\":279:288   */\n      dup3\n        /* \"#utility.yul\":275:293   */\n      add\n        /* \"#utility.yul\":267:293   */\n      swap1\n      pop\n        /* \"#utility.yul\":303:374   */\n      tag_15\n        /* \"#utility.yul\":371:372   */\n      0x00\n        /* \"#utility.yul\":360:369   */\n      dup4\n        /* \"#utility.yul\":356:373   */\n      add\n        /* \"#utility.yul\":347:353   */\n      dup6\n        /* \"#utility.yul\":303:374   */\n      tag_10\n      jump\t// in\n    tag_15:\n        /* \"#utility.yul\":384:456   */\n      tag_16\n        /* \"#utility.yul\":452:454   */\n      0x20\n        /* \"#utility.yul\":441:450   */\n      dup4\n        /* \"#utility.yul\":437:455   */\n      add\n        /* \"#utility.yul\":428:434   */\n      dup5\n        /* \"#utility.yul\":384:456   */\n      tag_10\n      jump\t// in\n    tag_16:\n        /* \"#utility.yul\":131:463   */\n      swap4\n      swap3\n      pop\n      pop\n      pop\n      jump\t// out\n        /* \"#utility.yul\":469:546   */\n    tag_13:\n        /* \"#utility.yul\":506:513   */\n      0x00\n        /* \"#utility.yul\":535:540   */\n      dup2\n        /* \"#utility.yul\":524:540   */\n      swap1\n      pop\n        /* \"#utility.yul\":469:546   */\n      swap2\n      swap1\n      pop\n      jump\t// out\n\n    auxdata: 0xa264697066735822122038469184cf0ec2560063a7db6f52cb08017bb7c588eff723a5c1431dc0d6c47464736f6c63430008070033\n}\n",
				"bytecode": {
					"linkReferences": {},
					"object": "608060405234801561001057600080fd5b5060c98061001f6000396000f3fe6080604052348015600f57600080fd5b506004361060285760003560e01c806375bbb4e714602d575b600080fd5b60336048565b604051603f9291906064565b60405180910390f35b600080601f9150603c90509091565b605e816089565b82525050565b6000604082019050607760008301856057565b608260208301846057565b9392505050565b600081905091905056fea264697066735822122038469184cf0ec2560063a7db6f52cb08017bb7c588eff723a5c1431dc0d6c47464736f6c63430008070033",
					"opcodes": "PUSH1 0x80 PUSH1 0x40 MSTORE CALLVALUE DUP1 ISZERO PUSH2 0x10 JUMPI PUSH1 0x0 DUP1 REVERT JUMPDEST POP PUSH1 0xC9 DUP1 PUSH2 0x1F PUSH1 0x0 CODECOPY PUSH1 0x0 RETURN INVALID PUSH1 0x80 PUSH1 0x40 MSTORE CALLVALUE DUP1 ISZERO PUSH1 0xF JUMPI PUSH1 0x0 DUP1 REVERT JUMPDEST POP PUSH1 0x4 CALLDATASIZE LT PUSH1 0x28 JUMPI PUSH1 0x0 CALLDATALOAD PUSH1 0xE0 SHR DUP1 PUSH4 0x75BBB4E7 EQ PUSH1 0x2D JUMPI JUMPDEST PUSH1 0x0 DUP1 REVERT JUMPDEST PUSH1 0x33 PUSH1 0x48 JUMP JUMPDEST PUSH1 0x40 MLOAD PUSH1 0x3F SWAP3 SWAP2 SWAP1 PUSH1 0x64 JUMP JUMPDEST PUSH1 0x40 MLOAD DUP1 SWAP2 SUB SWAP1 RETURN JUMPDEST PUSH1 0x0 DUP1 PUSH1 0x1F SWAP2 POP PUSH1 0x3C SWAP1 POP SWAP1 SWAP2 JUMP JUMPDEST PUSH1 0x5E DUP2 PUSH1 0x89 JUMP JUMPDEST DUP3 MSTORE POP POP JUMP JUMPDEST PUSH1 0x0 PUSH1 0x40 DUP3 ADD SWAP1 POP PUSH1 0x77 PUSH1 0x0 DUP4 ADD DUP6 PUSH1 0x57 JUMP JUMPDEST PUSH1 0x82 PUSH1 0x20 DUP4 ADD DUP5 PUSH1 0x57 JUMP JUMPDEST SWAP4 SWAP3 POP POP POP JUMP JUMPDEST PUSH1 0x0 DUP2 SWAP1 POP SWAP2 SWAP1 POP JUMP INVALID LOG2 PUSH5 0x6970667358 0x22 SLT KECCAK256 CODESIZE CHAINID SWAP2 DUP5 0xCF 0xE 0xC2 JUMP STOP PUSH4 0xA7DB6F52 0xCB ADDMOD ADD PUSH28 0xB7C588EFF723A5C1431DC0D6C47464736F6C63430008070033000000 "
				},
				"gasEstimates": {
					"creation": {
						"codeDepositCost": "40200",
						"executionCost": "93",
						"totalCost": "40293"
					},
					"external": {
						"myFun()": "infinite"
					}
				},
				"methodIdentifiers": {
					"myFun()": "75bbb4e7"
				}
			},
			"storageLayout": {
				"storage": [],
				"types": null
			},
			"userdoc": {
				"kind": "user",
				"methods": {},
				"version": 1
			}
		}
	}
}