{
	"chapter2/Ex2_6.sol": {
		"Math": {
			"abi": [
				{
					"inputs": [
						{
							"internalType": "uint256",
							"name": "_num1",
							"type": "uint256"
						},
						{
							"internalType": "uint256",
							"name": "_num2",
							"type": "uint256"
						}
					],
					"name": "mul",
					"outputs": [
						{
							"internalType": "uint256",
							"name": "",
							"type": "uint256"
						}
					],
					"stateMutability": "pure",
					"type": "function"
				}
			],
			"devdoc": {
				"kind": "dev",
				"methods": {},
				"version": 1
			},
			"evm": {
				"assembly": "    /* \"chapter2/Ex2_6.sol\":514:636  contract Math {... */\n  mstore(0x40, 0x80)\n  callvalue\n  dup1\n  iszero\n  tag_1\n  jumpi\n  0x00\n  dup1\n  revert\ntag_1:\n  pop\n  dataSize(sub_0)\n  dup1\n  dataOffset(sub_0)\n  0x00\n  codecopy\n  0x00\n  return\nstop\n\nsub_0: assembly {\n        /* \"chapter2/Ex2_6.sol\":514:636  contract Math {... */\n      mstore(0x40, 0x80)\n      callvalue\n      dup1\n      iszero\n      tag_1\n      jumpi\n      0x00\n      dup1\n      revert\n    tag_1:\n      pop\n      jumpi(tag_2, lt(calldatasize, 0x04))\n      shr(0xe0, calldataload(0x00))\n      dup1\n      0xc8a4ac9c\n      eq\n      tag_3\n      jumpi\n    tag_2:\n      0x00\n      dup1\n      revert\n        /* \"chapter2/Ex2_6.sol\":534:634  function mul(uint _num1, uint _num2) public pure returns(uint) {... */\n    tag_3:\n      tag_4\n      0x04\n      dup1\n      calldatasize\n      sub\n      dup2\n      add\n      swap1\n      tag_5\n      swap2\n      swap1\n      tag_6\n      jump\t// in\n    tag_5:\n      tag_7\n      jump\t// in\n    tag_4:\n      mload(0x40)\n      tag_8\n      swap2\n      swap1\n      tag_9\n      jump\t// in\n    tag_8:\n      mload(0x40)\n      dup1\n      swap2\n      sub\n      swap1\n      return\n    tag_7:\n        /* \"chapter2/Ex2_6.sol\":591:595  uint */\n      0x00\n        /* \"chapter2/Ex2_6.sol\":622:627  _num2 */\n      dup2\n        /* \"chapter2/Ex2_6.sol\":614:619  _num1 */\n      dup4\n        /* \"chapter2/Ex2_6.sol\":614:627  _num1 * _num2 */\n      tag_11\n      swap2\n      swap1\n      tag_12\n      jump\t// in\n    tag_11:\n        /* \"chapter2/Ex2_6.sol\":607:627  return _num1 * _num2 */\n      swap1\n      pop\n        /* \"chapter2/Ex2_6.sol\":534:634  function mul(uint _num1, uint _num2) public pure returns(uint) {... */\n      swap3\n      swap2\n      pop\n      pop\n      jump\t// out\n        /* \"#utility.yul\":88:205   */\n    tag_14:\n        /* \"#utility.yul\":197:198   */\n      0x00\n        /* \"#utility.yul\":194:195   */\n      dup1\n        /* \"#utility.yul\":187:199   */\n      revert\n        /* \"#utility.yul\":334:411   */\n    tag_16:\n        /* \"#utility.yul\":371:378   */\n      0x00\n        /* \"#utility.yul\":400:405   */\n      dup2\n        /* \"#utility.yul\":389:405   */\n      swap1\n      pop\n        /* \"#utility.yul\":334:411   */\n      swap2\n      swap1\n      pop\n      jump\t// out\n        /* \"#utility.yul\":417:539   */\n    tag_17:\n        /* \"#utility.yul\":490:514   */\n      tag_27\n        /* \"#utility.yul\":508:513   */\n      dup2\n        /* \"#utility.yul\":490:514   */\n      tag_16\n      jump\t// in\n    tag_27:\n        /* \"#utility.yul\":483:488   */\n      dup2\n        /* \"#utility.yul\":480:515   */\n      eq\n        /* \"#utility.yul\":470:533   */\n      tag_28\n      jumpi\n        /* \"#utility.yul\":529:530   */\n      0x00\n        /* \"#utility.yul\":526:527   */\n      dup1\n        /* \"#utility.yul\":519:531   */\n      revert\n        /* \"#utility.yul\":470:533   */\n    tag_28:\n        /* \"#utility.yul\":417:539   */\n      pop\n      jump\t// out\n        /* \"#utility.yul\":545:684   */\n    tag_18:\n        /* \"#utility.yul\":591:596   */\n      0x00\n        /* \"#utility.yul\":629:635   */\n      dup2\n        /* \"#utility.yul\":616:636   */\n      calldataload\n        /* \"#utility.yul\":607:636   */\n      swap1\n      pop\n        /* \"#utility.yul\":645:678   */\n      tag_30\n        /* \"#utility.yul\":672:677   */\n      dup2\n        /* \"#utility.yul\":645:678   */\n      tag_17\n      jump\t// in\n    tag_30:\n        /* \"#utility.yul\":545:684   */\n      swap3\n      swap2\n      pop\n      pop\n      jump\t// out\n        /* \"#utility.yul\":690:1164   */\n    tag_6:\n        /* \"#utility.yul\":758:764   */\n      0x00\n        /* \"#utility.yul\":766:772   */\n      dup1\n        /* \"#utility.yul\":815:817   */\n      0x40\n        /* \"#utility.yul\":803:812   */\n      dup4\n        /* \"#utility.yul\":794:801   */\n      dup6\n        /* \"#utility.yul\":790:813   */\n      sub\n        /* \"#utility.yul\":786:818   */\n      slt\n        /* \"#utility.yul\":783:902   */\n      iszero\n      tag_32\n      jumpi\n        /* \"#utility.yul\":821:900   */\n      tag_33\n      tag_14\n      jump\t// in\n    tag_33:\n        /* \"#utility.yul\":783:902   */\n    tag_32:\n        /* \"#utility.yul\":941:942   */\n      0x00\n        /* \"#utility.yul\":966:1019   */\n      tag_34\n        /* \"#utility.yul\":1011:1018   */\n      dup6\n        /* \"#utility.yul\":1002:1008   */\n      dup3\n        /* \"#utility.yul\":991:1000   */\n      dup7\n        /* \"#utility.yul\":987:1009   */\n      add\n        /* \"#utility.yul\":966:1019   */\n      tag_18\n      jump\t// in\n    tag_34:\n        /* \"#utility.yul\":956:1019   */\n      swap3\n      pop\n        /* \"#utility.yul\":912:1029   */\n      pop\n        /* \"#utility.yul\":1068:1070   */\n      0x20\n        /* \"#utility.yul\":1094:1147   */\n      tag_35\n        /* \"#utility.yul\":1139:1146   */\n      dup6\n        /* \"#utility.yul\":1130:1136   */\n      dup3\n        /* \"#utility.yul\":1119:1128   */\n      dup7\n        /* \"#utility.yul\":1115:1137   */\n      add\n        /* \"#utility.yul\":1094:1147   */\n      tag_18\n      jump\t// in\n    tag_35:\n        /* \"#utility.yul\":1084:1147   */\n      swap2\n      pop\n        /* \"#utility.yul\":1039:1157   */\n      pop\n        /* \"#utility.yul\":690:1164   */\n      swap3\n      pop\n      swap3\n      swap1\n      pop\n      jump\t// out\n        /* \"#utility.yul\":1170:1288   */\n    tag_19:\n        /* \"#utility.yul\":1257:1281   */\n      tag_37\n        /* \"#utility.yul\":1275:1280   */\n      dup2\n        /* \"#utility.yul\":1257:1281   */\n      tag_16\n      jump\t// in\n    tag_37:\n        /* \"#utility.yul\":1252:1255   */\n      dup3\n        /* \"#utility.yul\":1245:1282   */\n      mstore\n        /* \"#utility.yul\":1170:1288   */\n      pop\n      pop\n      jump\t// out\n        /* \"#utility.yul\":1294:1516   */\n    tag_9:\n        /* \"#utility.yul\":1387:1391   */\n      0x00\n        /* \"#utility.yul\":1425:1427   */\n      0x20\n        /* \"#utility.yul\":1414:1423   */\n      dup3\n        /* \"#utility.yul\":1410:1428   */\n      add\n        /* \"#utility.yul\":1402:1428   */\n      swap1\n      pop\n        /* \"#utility.yul\":1438:1509   */\n      tag_39\n        /* \"#utility.yul\":1506:1507   */\n      0x00\n        /* \"#utility.yul\":1495:1504   */\n      dup4\n        /* \"#utility.yul\":1491:1508   */\n      add\n        /* \"#utility.yul\":1482:1488   */\n      dup5\n        /* \"#utility.yul\":1438:1509   */\n      tag_19\n      jump\t// in\n    tag_39:\n        /* \"#utility.yul\":1294:1516   */\n      swap3\n      swap2\n      pop\n      pop\n      jump\t// out\n        /* \"#utility.yul\":1522:1702   */\n    tag_20:\n        /* \"#utility.yul\":1570:1647   */\n      0x4e487b7100000000000000000000000000000000000000000000000000000000\n        /* \"#utility.yul\":1567:1568   */\n      0x00\n        /* \"#utility.yul\":1560:1648   */\n      mstore\n        /* \"#utility.yul\":1667:1671   */\n      0x11\n        /* \"#utility.yul\":1664:1665   */\n      0x04\n        /* \"#utility.yul\":1657:1672   */\n      mstore\n        /* \"#utility.yul\":1691:1695   */\n      0x24\n        /* \"#utility.yul\":1688:1689   */\n      0x00\n        /* \"#utility.yul\":1681:1696   */\n      revert\n        /* \"#utility.yul\":1708:2118   */\n    tag_12:\n        /* \"#utility.yul\":1748:1755   */\n      0x00\n        /* \"#utility.yul\":1771:1791   */\n      tag_42\n        /* \"#utility.yul\":1789:1790   */\n      dup3\n        /* \"#utility.yul\":1771:1791   */\n      tag_16\n      jump\t// in\n    tag_42:\n        /* \"#utility.yul\":1766:1791   */\n      swap2\n      pop\n        /* \"#utility.yul\":1805:1825   */\n      tag_43\n        /* \"#utility.yul\":1823:1824   */\n      dup4\n        /* \"#utility.yul\":1805:1825   */\n      tag_16\n      jump\t// in\n    tag_43:\n        /* \"#utility.yul\":1800:1825   */\n      swap3\n      pop\n        /* \"#utility.yul\":1860:1861   */\n      dup3\n        /* \"#utility.yul\":1857:1858   */\n      dup3\n        /* \"#utility.yul\":1853:1862   */\n      mul\n        /* \"#utility.yul\":1882:1912   */\n      tag_44\n        /* \"#utility.yul\":1900:1911   */\n      dup2\n        /* \"#utility.yul\":1882:1912   */\n      tag_16\n      jump\t// in\n    tag_44:\n        /* \"#utility.yul\":1871:1912   */\n      swap2\n      pop\n        /* \"#utility.yul\":2061:2062   */\n      dup3\n        /* \"#utility.yul\":2052:2059   */\n      dup3\n        /* \"#utility.yul\":2048:2063   */\n      div\n        /* \"#utility.yul\":2045:2046   */\n      dup5\n        /* \"#utility.yul\":2042:2064   */\n      eq\n        /* \"#utility.yul\":2022:2023   */\n      dup4\n        /* \"#utility.yul\":2015:2024   */\n      iszero\n        /* \"#utility.yul\":1995:2078   */\n      or\n        /* \"#utility.yul\":1972:2111   */\n      tag_45\n      jumpi\n        /* \"#utility.yul\":2091:2109   */\n      tag_46\n      tag_20\n      jump\t// in\n    tag_46:\n        /* \"#utility.yul\":1972:2111   */\n    tag_45:\n        /* \"#utility.yul\":1756:2118   */\n      pop\n        /* \"#utility.yul\":1708:2118   */\n      swap3\n      swap2\n      pop\n      pop\n      jump\t// out\n\n    auxdata: 0xa2646970667358221220c1e4e5ba32df7d225232e65b093e12480cec15b1007e21ea13745326d348f6a064736f6c63430008110033\n}\n",
				"bytecode": {
					"linkReferences": {},
					"object": "608060405234801561001057600080fd5b506101c2806100206000396000f3fe608060405234801561001057600080fd5b506004361061002b5760003560e01c8063c8a4ac9c14610030575b600080fd5b61004a600480360381019061004591906100b1565b610060565b6040516100579190610100565b60405180910390f35b6000818361006e919061014a565b905092915050565b600080fd5b6000819050919050565b61008e8161007b565b811461009957600080fd5b50565b6000813590506100ab81610085565b92915050565b600080604083850312156100c8576100c7610076565b5b60006100d68582860161009c565b92505060206100e78582860161009c565b9150509250929050565b6100fa8161007b565b82525050565b600060208201905061011560008301846100f1565b92915050565b7f4e487b7100000000000000000000000000000000000000000000000000000000600052601160045260246000fd5b60006101558261007b565b91506101608361007b565b925082820261016e8161007b565b915082820484148315176101855761018461011b565b5b509291505056fea2646970667358221220c1e4e5ba32df7d225232e65b093e12480cec15b1007e21ea13745326d348f6a064736f6c63430008110033",
					"opcodes": "PUSH1 0x80 PUSH1 0x40 MSTORE CALLVALUE DUP1 ISZERO PUSH2 0x10 JUMPI PUSH1 0x0 DUP1 REVERT JUMPDEST POP PUSH2 0x1C2 DUP1 PUSH2 0x20 PUSH1 0x0 CODECOPY PUSH1 0x0 RETURN INVALID PUSH1 0x80 PUSH1 0x40 MSTORE CALLVALUE DUP1 ISZERO PUSH2 0x10 JUMPI PUSH1 0x0 DUP1 REVERT JUMPDEST POP PUSH1 0x4 CALLDATASIZE LT PUSH2 0x2B JUMPI PUSH1 0x0 CALLDATALOAD PUSH1 0xE0 SHR DUP1 PUSH4 0xC8A4AC9C EQ PUSH2 0x30 JUMPI JUMPDEST PUSH1 0x0 DUP1 REVERT JUMPDEST PUSH2 0x4A PUSH1 0x4 DUP1 CALLDATASIZE SUB DUP2 ADD SWAP1 PUSH2 0x45 SWAP2 SWAP1 PUSH2 0xB1 JUMP JUMPDEST PUSH2 0x60 JUMP JUMPDEST PUSH1 0x40 MLOAD PUSH2 0x57 SWAP2 SWAP1 PUSH2 0x100 JUMP JUMPDEST PUSH1 0x40 MLOAD DUP1 SWAP2 SUB SWAP1 RETURN JUMPDEST PUSH1 0x0 DUP2 DUP4 PUSH2 0x6E SWAP2 SWAP1 PUSH2 0x14A JUMP JUMPDEST SWAP1 POP SWAP3 SWAP2 POP POP JUMP JUMPDEST PUSH1 0x0 DUP1 REVERT JUMPDEST PUSH1 0x0 DUP2 SWAP1 POP SWAP2 SWAP1 POP JUMP JUMPDEST PUSH2 0x8E DUP2 PUSH2 0x7B JUMP JUMPDEST DUP2 EQ PUSH2 0x99 JUMPI PUSH1 0x0 DUP1 REVERT JUMPDEST POP JUMP JUMPDEST PUSH1 0x0 DUP2 CALLDATALOAD SWAP1 POP PUSH2 0xAB DUP2 PUSH2 0x85 JUMP JUMPDEST SWAP3 SWAP2 POP POP JUMP JUMPDEST PUSH1 0x0 DUP1 PUSH1 0x40 DUP4 DUP6 SUB SLT ISZERO PUSH2 0xC8 JUMPI PUSH2 0xC7 PUSH2 0x76 JUMP JUMPDEST JUMPDEST PUSH1 0x0 PUSH2 0xD6 DUP6 DUP3 DUP7 ADD PUSH2 0x9C JUMP JUMPDEST SWAP3 POP POP PUSH1 0x20 PUSH2 0xE7 DUP6 DUP3 DUP7 ADD PUSH2 0x9C JUMP JUMPDEST SWAP2 POP POP SWAP3 POP SWAP3 SWAP1 POP JUMP JUMPDEST PUSH2 0xFA DUP2 PUSH2 0x7B JUMP JUMPDEST DUP3 MSTORE POP POP JUMP JUMPDEST PUSH1 0x0 PUSH1 0x20 DUP3 ADD SWAP1 POP PUSH2 0x115 PUSH1 0x0 DUP4 ADD DUP5 PUSH2 0xF1 JUMP JUMPDEST SWAP3 SWAP2 POP POP JUMP JUMPDEST PUSH32 0x4E487B7100000000000000000000000000000000000000000000000000000000 PUSH1 0x0 MSTORE PUSH1 0x11 PUSH1 0x4 MSTORE PUSH1 0x24 PUSH1 0x0 REVERT JUMPDEST PUSH1 0x0 PUSH2 0x155 DUP3 PUSH2 0x7B JUMP JUMPDEST SWAP2 POP PUSH2 0x160 DUP4 PUSH2 0x7B JUMP JUMPDEST SWAP3 POP DUP3 DUP3 MUL PUSH2 0x16E DUP2 PUSH2 0x7B JUMP JUMPDEST SWAP2 POP DUP3 DUP3 DIV DUP5 EQ DUP4 ISZERO OR PUSH2 0x185 JUMPI PUSH2 0x184 PUSH2 0x11B JUMP JUMPDEST JUMPDEST POP SWAP3 SWAP2 POP POP JUMP INVALID LOG2 PUSH5 0x6970667358 0x22 SLT KECCAK256 0xC1 0xE4 0xE5 0xBA ORIGIN 0xDF PUSH30 0x225232E65B093E12480CEC15B1007E21EA13745326D348F6A064736F6C63 NUMBER STOP ADDMOD GT STOP CALLER "
				},
				"gasEstimates": {
					"creation": {
						"codeDepositCost": "90000",
						"executionCost": "141",
						"totalCost": "90141"
					},
					"external": {
						"mul(uint256,uint256)": "infinite"
					}
				},
				"methodIdentifiers": {
					"mul(uint256,uint256)": "c8a4ac9c"
				}
			},
			"storageLayout": {
				"storage": [],
				"types": null
			},
			"userdoc": {
				"kind": "user",
				"methods": {},
				"version": 1
			}
		}
	}
}