{
	"chapter2/Ex2_6.sol": {
		"Buttons": {
			"abi": [
				{
					"inputs": [
						{
							"internalType": "address",
							"name": "_address",
							"type": "address"
						},
						{
							"internalType": "uint256",
							"name": "_num1",
							"type": "uint256"
						},
						{
							"internalType": "uint256",
							"name": "_num2",
							"type": "uint256"
						}
					],
					"name": "addButton",
					"outputs": [],
					"stateMutability": "nonpayable",
					"type": "function"
				}
			],
			"devdoc": {
				"kind": "dev",
				"methods": {},
				"version": 1
			},
			"evm": {
				"assembly": "    /* \"chapter2/Ex2_6.sol\":290:552  contract Buttons {... */\n  mstore(0x40, 0x80)\n  callvalue\n  dup1\n  iszero\n  tag_1\n  jumpi\n  0x00\n  dup1\n  revert\ntag_1:\n  pop\n  dataSize(sub_0)\n  dup1\n  dataOffset(sub_0)\n  0x00\n  codecopy\n  0x00\n  return\nstop\n\nsub_0: assembly {\n        /* \"chapter2/Ex2_6.sol\":290:552  contract Buttons {... */\n      mstore(0x40, 0x80)\n      callvalue\n      dup1\n      iszero\n      tag_1\n      jumpi\n      0x00\n      dup1\n      revert\n    tag_1:\n      pop\n      jumpi(tag_2, lt(calldatasize, 0x04))\n      shr(0xe0, calldataload(0x00))\n      dup1\n      0x06a909cc\n      eq\n      tag_3\n      jumpi\n    tag_2:\n      0x00\n      dup1\n      revert\n        /* \"chapter2/Ex2_6.sol\":313:550  function addButton(address _address, uint _num1, uint _num2) public {... */\n    tag_3:\n      tag_4\n      0x04\n      dup1\n      calldatasize\n      sub\n      dup2\n      add\n      swap1\n      tag_5\n      swap2\n      swap1\n      tag_6\n      jump\t// in\n    tag_5:\n      tag_7\n      jump\t// in\n    tag_4:\n      stop\n    tag_7:\n        /* \"chapter2/Ex2_6.sol\":392:404  bool success */\n      0x00\n        /* \"chapter2/Ex2_6.sol\":409:417  _address */\n      dup4\n        /* \"chapter2/Ex2_6.sol\":409:422  _address.call */\n      0xffffffffffffffffffffffffffffffffffffffff\n      and\n        /* \"chapter2/Ex2_6.sol\":484:489  _num1 */\n      dup4\n        /* \"chapter2/Ex2_6.sol\":491:496  _num2 */\n      dup4\n        /* \"chapter2/Ex2_6.sol\":436:497  abi.encodeWithSignature(\"add(uint256,uint256)\", _num1, _num2) */\n      add(0x24, mload(0x40))\n      tag_9\n      swap3\n      swap2\n      swap1\n      tag_10\n      jump\t// in\n    tag_9:\n      mload(0x40)\n      0x20\n      dup2\n      dup4\n      sub\n      sub\n      dup2\n      mstore\n      swap1\n      0x40\n      mstore\n      and(not(0xffffffffffffffffffffffffffffffffffffffffffffffffffffffff), 0x771602f700000000000000000000000000000000000000000000000000000000)\n      0x20\n      dup3\n      add\n      dup1\n      mload\n      0xffffffffffffffffffffffffffffffffffffffffffffffffffffffff\n      dup4\n      dup2\n      dup4\n      and\n      or\n      dup4\n      mstore\n      pop\n      pop\n      pop\n      pop\n        /* \"chapter2/Ex2_6.sol\":409:507  _address.call(... */\n      mload(0x40)\n      tag_11\n      swap2\n      swap1\n      tag_12\n      jump\t// in\n    tag_11:\n      0x00\n      mload(0x40)\n      dup1\n      dup4\n      sub\n      dup2\n      0x00\n      dup7\n      gas\n      call\n      swap2\n      pop\n      pop\n      returndatasize\n      dup1\n      0x00\n      dup2\n      eq\n      tag_15\n      jumpi\n      mload(0x40)\n      swap2\n      pop\n      and(add(returndatasize, 0x3f), not(0x1f))\n      dup3\n      add\n      0x40\n      mstore\n      returndatasize\n      dup3\n      mstore\n      returndatasize\n      0x00\n      0x20\n      dup5\n      add\n      returndatacopy\n      jump(tag_14)\n    tag_15:\n      0x60\n      swap2\n      pop\n    tag_14:\n      pop\n        /* \"chapter2/Ex2_6.sol\":391:507  (bool success,) = _address.call(... */\n      pop\n      swap1\n      pop\n        /* \"chapter2/Ex2_6.sol\":525:532  success */\n      dup1\n        /* \"chapter2/Ex2_6.sol\":517:543  require(success, \"Failed\") */\n      tag_16\n      jumpi\n      mload(0x40)\n      0x08c379a000000000000000000000000000000000000000000000000000000000\n      dup2\n      mstore\n      0x04\n      add\n      tag_17\n      swap1\n      tag_18\n      jump\t// in\n    tag_17:\n      mload(0x40)\n      dup1\n      swap2\n      sub\n      swap1\n      revert\n    tag_16:\n        /* \"chapter2/Ex2_6.sol\":381:550  {... */\n      pop\n        /* \"chapter2/Ex2_6.sol\":313:550  function addButton(address _address, uint _num1, uint _num2) public {... */\n      pop\n      pop\n      pop\n      jump\t// out\n        /* \"#utility.yul\":88:205   */\n    tag_20:\n        /* \"#utility.yul\":197:198   */\n      0x00\n        /* \"#utility.yul\":194:195   */\n      dup1\n        /* \"#utility.yul\":187:199   */\n      revert\n        /* \"#utility.yul\":334:460   */\n    tag_22:\n        /* \"#utility.yul\":371:378   */\n      0x00\n        /* \"#utility.yul\":411:453   */\n      0xffffffffffffffffffffffffffffffffffffffff\n        /* \"#utility.yul\":404:409   */\n      dup3\n        /* \"#utility.yul\":400:454   */\n      and\n        /* \"#utility.yul\":389:454   */\n      swap1\n      pop\n        /* \"#utility.yul\":334:460   */\n      swap2\n      swap1\n      pop\n      jump\t// out\n        /* \"#utility.yul\":466:562   */\n    tag_23:\n        /* \"#utility.yul\":503:510   */\n      0x00\n        /* \"#utility.yul\":532:556   */\n      tag_43\n        /* \"#utility.yul\":550:555   */\n      dup3\n        /* \"#utility.yul\":532:556   */\n      tag_22\n      jump\t// in\n    tag_43:\n        /* \"#utility.yul\":521:556   */\n      swap1\n      pop\n        /* \"#utility.yul\":466:562   */\n      swap2\n      swap1\n      pop\n      jump\t// out\n        /* \"#utility.yul\":568:690   */\n    tag_24:\n        /* \"#utility.yul\":641:665   */\n      tag_45\n        /* \"#utility.yul\":659:664   */\n      dup2\n        /* \"#utility.yul\":641:665   */\n      tag_23\n      jump\t// in\n    tag_45:\n        /* \"#utility.yul\":634:639   */\n      dup2\n        /* \"#utility.yul\":631:666   */\n      eq\n        /* \"#utility.yul\":621:684   */\n      tag_46\n      jumpi\n        /* \"#utility.yul\":680:681   */\n      0x00\n        /* \"#utility.yul\":677:678   */\n      dup1\n        /* \"#utility.yul\":670:682   */\n      revert\n        /* \"#utility.yul\":621:684   */\n    tag_46:\n        /* \"#utility.yul\":568:690   */\n      pop\n      jump\t// out\n        /* \"#utility.yul\":696:835   */\n    tag_25:\n        /* \"#utility.yul\":742:747   */\n      0x00\n        /* \"#utility.yul\":780:786   */\n      dup2\n        /* \"#utility.yul\":767:787   */\n      calldataload\n        /* \"#utility.yul\":758:787   */\n      swap1\n      pop\n        /* \"#utility.yul\":796:829   */\n      tag_48\n        /* \"#utility.yul\":823:828   */\n      dup2\n        /* \"#utility.yul\":796:829   */\n      tag_24\n      jump\t// in\n    tag_48:\n        /* \"#utility.yul\":696:835   */\n      swap3\n      swap2\n      pop\n      pop\n      jump\t// out\n        /* \"#utility.yul\":841:918   */\n    tag_26:\n        /* \"#utility.yul\":878:885   */\n      0x00\n        /* \"#utility.yul\":907:912   */\n      dup2\n        /* \"#utility.yul\":896:912   */\n      swap1\n      pop\n        /* \"#utility.yul\":841:918   */\n      swap2\n      swap1\n      pop\n      jump\t// out\n        /* \"#utility.yul\":924:1046   */\n    tag_27:\n        /* \"#utility.yul\":997:1021   */\n      tag_51\n        /* \"#utility.yul\":1015:1020   */\n      dup2\n        /* \"#utility.yul\":997:1021   */\n      tag_26\n      jump\t// in\n    tag_51:\n        /* \"#utility.yul\":990:995   */\n      dup2\n        /* \"#utility.yul\":987:1022   */\n      eq\n        /* \"#utility.yul\":977:1040   */\n      tag_52\n      jumpi\n        /* \"#utility.yul\":1036:1037   */\n      0x00\n        /* \"#utility.yul\":1033:1034   */\n      dup1\n        /* \"#utility.yul\":1026:1038   */\n      revert\n        /* \"#utility.yul\":977:1040   */\n    tag_52:\n        /* \"#utility.yul\":924:1046   */\n      pop\n      jump\t// out\n        /* \"#utility.yul\":1052:1191   */\n    tag_28:\n        /* \"#utility.yul\":1098:1103   */\n      0x00\n        /* \"#utility.yul\":1136:1142   */\n      dup2\n        /* \"#utility.yul\":1123:1143   */\n      calldataload\n        /* \"#utility.yul\":1114:1143   */\n      swap1\n      pop\n        /* \"#utility.yul\":1152:1185   */\n      tag_54\n        /* \"#utility.yul\":1179:1184   */\n      dup2\n        /* \"#utility.yul\":1152:1185   */\n      tag_27\n      jump\t// in\n    tag_54:\n        /* \"#utility.yul\":1052:1191   */\n      swap3\n      swap2\n      pop\n      pop\n      jump\t// out\n        /* \"#utility.yul\":1197:1816   */\n    tag_6:\n        /* \"#utility.yul\":1274:1280   */\n      0x00\n        /* \"#utility.yul\":1282:1288   */\n      dup1\n        /* \"#utility.yul\":1290:1296   */\n      0x00\n        /* \"#utility.yul\":1339:1341   */\n      0x60\n        /* \"#utility.yul\":1327:1336   */\n      dup5\n        /* \"#utility.yul\":1318:1325   */\n      dup7\n        /* \"#utility.yul\":1314:1337   */\n      sub\n        /* \"#utility.yul\":1310:1342   */\n      slt\n        /* \"#utility.yul\":1307:1426   */\n      iszero\n      tag_56\n      jumpi\n        /* \"#utility.yul\":1345:1424   */\n      tag_57\n      tag_20\n      jump\t// in\n    tag_57:\n        /* \"#utility.yul\":1307:1426   */\n    tag_56:\n        /* \"#utility.yul\":1465:1466   */\n      0x00\n        /* \"#utility.yul\":1490:1543   */\n      tag_58\n        /* \"#utility.yul\":1535:1542   */\n      dup7\n        /* \"#utility.yul\":1526:1532   */\n      dup3\n        /* \"#utility.yul\":1515:1524   */\n      dup8\n        /* \"#utility.yul\":1511:1533   */\n      add\n        /* \"#utility.yul\":1490:1543   */\n      tag_25\n      jump\t// in\n    tag_58:\n        /* \"#utility.yul\":1480:1543   */\n      swap4\n      pop\n        /* \"#utility.yul\":1436:1553   */\n      pop\n        /* \"#utility.yul\":1592:1594   */\n      0x20\n        /* \"#utility.yul\":1618:1671   */\n      tag_59\n        /* \"#utility.yul\":1663:1670   */\n      dup7\n        /* \"#utility.yul\":1654:1660   */\n      dup3\n        /* \"#utility.yul\":1643:1652   */\n      dup8\n        /* \"#utility.yul\":1639:1661   */\n      add\n        /* \"#utility.yul\":1618:1671   */\n      tag_28\n      jump\t// in\n    tag_59:\n        /* \"#utility.yul\":1608:1671   */\n      swap3\n      pop\n        /* \"#utility.yul\":1563:1681   */\n      pop\n        /* \"#utility.yul\":1720:1722   */\n      0x40\n        /* \"#utility.yul\":1746:1799   */\n      tag_60\n        /* \"#utility.yul\":1791:1798   */\n      dup7\n        /* \"#utility.yul\":1782:1788   */\n      dup3\n        /* \"#utility.yul\":1771:1780   */\n      dup8\n        /* \"#utility.yul\":1767:1789   */\n      add\n        /* \"#utility.yul\":1746:1799   */\n      tag_28\n      jump\t// in\n    tag_60:\n        /* \"#utility.yul\":1736:1799   */\n      swap2\n      pop\n        /* \"#utility.yul\":1691:1809   */\n      pop\n        /* \"#utility.yul\":1197:1816   */\n      swap3\n      pop\n      swap3\n      pop\n      swap3\n      jump\t// out\n        /* \"#utility.yul\":1822:1940   */\n    tag_29:\n        /* \"#utility.yul\":1909:1933   */\n      tag_62\n        /* \"#utility.yul\":1927:1932   */\n      dup2\n        /* \"#utility.yul\":1909:1933   */\n      tag_26\n      jump\t// in\n    tag_62:\n        /* \"#utility.yul\":1904:1907   */\n      dup3\n        /* \"#utility.yul\":1897:1934   */\n      mstore\n        /* \"#utility.yul\":1822:1940   */\n      pop\n      pop\n      jump\t// out\n        /* \"#utility.yul\":1946:2278   */\n    tag_10:\n        /* \"#utility.yul\":2067:2071   */\n      0x00\n        /* \"#utility.yul\":2105:2107   */\n      0x40\n        /* \"#utility.yul\":2094:2103   */\n      dup3\n        /* \"#utility.yul\":2090:2108   */\n      add\n        /* \"#utility.yul\":2082:2108   */\n      swap1\n      pop\n        /* \"#utility.yul\":2118:2189   */\n      tag_64\n        /* \"#utility.yul\":2186:2187   */\n      0x00\n        /* \"#utility.yul\":2175:2184   */\n      dup4\n        /* \"#utility.yul\":2171:2188   */\n      add\n        /* \"#utility.yul\":2162:2168   */\n      dup6\n        /* \"#utility.yul\":2118:2189   */\n      tag_29\n      jump\t// in\n    tag_64:\n        /* \"#utility.yul\":2199:2271   */\n      tag_65\n        /* \"#utility.yul\":2267:2269   */\n      0x20\n        /* \"#utility.yul\":2256:2265   */\n      dup4\n        /* \"#utility.yul\":2252:2270   */\n      add\n        /* \"#utility.yul\":2243:2249   */\n      dup5\n        /* \"#utility.yul\":2199:2271   */\n      tag_29\n      jump\t// in\n    tag_65:\n        /* \"#utility.yul\":1946:2278   */\n      swap4\n      swap3\n      pop\n      pop\n      pop\n      jump\t// out\n        /* \"#utility.yul\":2284:2382   */\n    tag_30:\n        /* \"#utility.yul\":2335:2341   */\n      0x00\n        /* \"#utility.yul\":2369:2374   */\n      dup2\n        /* \"#utility.yul\":2363:2375   */\n      mload\n        /* \"#utility.yul\":2353:2375   */\n      swap1\n      pop\n        /* \"#utility.yul\":2284:2382   */\n      swap2\n      swap1\n      pop\n      jump\t// out\n        /* \"#utility.yul\":2388:2535   */\n    tag_31:\n        /* \"#utility.yul\":2489:2500   */\n      0x00\n        /* \"#utility.yul\":2526:2529   */\n      dup2\n        /* \"#utility.yul\":2511:2529   */\n      swap1\n      pop\n        /* \"#utility.yul\":2388:2535   */\n      swap3\n      swap2\n      pop\n      pop\n      jump\t// out\n        /* \"#utility.yul\":2541:2787   */\n    tag_32:\n        /* \"#utility.yul\":2622:2623   */\n      0x00\n        /* \"#utility.yul\":2632:2745   */\n    tag_69:\n        /* \"#utility.yul\":2646:2652   */\n      dup4\n        /* \"#utility.yul\":2643:2644   */\n      dup2\n        /* \"#utility.yul\":2640:2653   */\n      lt\n        /* \"#utility.yul\":2632:2745   */\n      iszero\n      tag_71\n      jumpi\n        /* \"#utility.yul\":2731:2732   */\n      dup1\n        /* \"#utility.yul\":2726:2729   */\n      dup3\n        /* \"#utility.yul\":2722:2733   */\n      add\n        /* \"#utility.yul\":2716:2734   */\n      mload\n        /* \"#utility.yul\":2712:2713   */\n      dup2\n        /* \"#utility.yul\":2707:2710   */\n      dup5\n        /* \"#utility.yul\":2703:2714   */\n      add\n        /* \"#utility.yul\":2696:2735   */\n      mstore\n        /* \"#utility.yul\":2668:2670   */\n      0x20\n        /* \"#utility.yul\":2665:2666   */\n      dup2\n        /* \"#utility.yul\":2661:2671   */\n      add\n        /* \"#utility.yul\":2656:2671   */\n      swap1\n      pop\n        /* \"#utility.yul\":2632:2745   */\n      jump(tag_69)\n    tag_71:\n        /* \"#utility.yul\":2779:2780   */\n      0x00\n        /* \"#utility.yul\":2770:2776   */\n      dup5\n        /* \"#utility.yul\":2765:2768   */\n      dup5\n        /* \"#utility.yul\":2761:2777   */\n      add\n        /* \"#utility.yul\":2754:2781   */\n      mstore\n        /* \"#utility.yul\":2603:2787   */\n      pop\n        /* \"#utility.yul\":2541:2787   */\n      pop\n      pop\n      pop\n      jump\t// out\n        /* \"#utility.yul\":2793:3179   */\n    tag_33:\n        /* \"#utility.yul\":2897:2900   */\n      0x00\n        /* \"#utility.yul\":2925:2963   */\n      tag_73\n        /* \"#utility.yul\":2957:2962   */\n      dup3\n        /* \"#utility.yul\":2925:2963   */\n      tag_30\n      jump\t// in\n    tag_73:\n        /* \"#utility.yul\":2979:3067   */\n      tag_74\n        /* \"#utility.yul\":3060:3066   */\n      dup2\n        /* \"#utility.yul\":3055:3058   */\n      dup6\n        /* \"#utility.yul\":2979:3067   */\n      tag_31\n      jump\t// in\n    tag_74:\n        /* \"#utility.yul\":2972:3067   */\n      swap4\n      pop\n        /* \"#utility.yul\":3076:3141   */\n      tag_75\n        /* \"#utility.yul\":3134:3140   */\n      dup2\n        /* \"#utility.yul\":3129:3132   */\n      dup6\n        /* \"#utility.yul\":3122:3126   */\n      0x20\n        /* \"#utility.yul\":3115:3120   */\n      dup7\n        /* \"#utility.yul\":3111:3127   */\n      add\n        /* \"#utility.yul\":3076:3141   */\n      tag_32\n      jump\t// in\n    tag_75:\n        /* \"#utility.yul\":3166:3172   */\n      dup1\n        /* \"#utility.yul\":3161:3164   */\n      dup5\n        /* \"#utility.yul\":3157:3173   */\n      add\n        /* \"#utility.yul\":3150:3173   */\n      swap2\n      pop\n        /* \"#utility.yul\":2901:3179   */\n      pop\n        /* \"#utility.yul\":2793:3179   */\n      swap3\n      swap2\n      pop\n      pop\n      jump\t// out\n        /* \"#utility.yul\":3185:3456   */\n    tag_12:\n        /* \"#utility.yul\":3315:3318   */\n      0x00\n        /* \"#utility.yul\":3337:3430   */\n      tag_77\n        /* \"#utility.yul\":3426:3429   */\n      dup3\n        /* \"#utility.yul\":3417:3423   */\n      dup5\n        /* \"#utility.yul\":3337:3430   */\n      tag_33\n      jump\t// in\n    tag_77:\n        /* \"#utility.yul\":3330:3430   */\n      swap2\n      pop\n        /* \"#utility.yul\":3447:3450   */\n      dup2\n        /* \"#utility.yul\":3440:3450   */\n      swap1\n      pop\n        /* \"#utility.yul\":3185:3456   */\n      swap3\n      swap2\n      pop\n      pop\n      jump\t// out\n        /* \"#utility.yul\":3462:3631   */\n    tag_34:\n        /* \"#utility.yul\":3546:3557   */\n      0x00\n        /* \"#utility.yul\":3580:3586   */\n      dup3\n        /* \"#utility.yul\":3575:3578   */\n      dup3\n        /* \"#utility.yul\":3568:3587   */\n      mstore\n        /* \"#utility.yul\":3620:3624   */\n      0x20\n        /* \"#utility.yul\":3615:3618   */\n      dup3\n        /* \"#utility.yul\":3611:3625   */\n      add\n        /* \"#utility.yul\":3596:3625   */\n      swap1\n      pop\n        /* \"#utility.yul\":3462:3631   */\n      swap3\n      swap2\n      pop\n      pop\n      jump\t// out\n        /* \"#utility.yul\":3637:3793   */\n    tag_35:\n        /* \"#utility.yul\":3777:3785   */\n      0x4661696c65640000000000000000000000000000000000000000000000000000\n        /* \"#utility.yul\":3773:3774   */\n      0x00\n        /* \"#utility.yul\":3765:3771   */\n      dup3\n        /* \"#utility.yul\":3761:3775   */\n      add\n        /* \"#utility.yul\":3754:3786   */\n      mstore\n        /* \"#utility.yul\":3637:3793   */\n      pop\n      jump\t// out\n        /* \"#utility.yul\":3799:4164   */\n    tag_36:\n        /* \"#utility.yul\":3941:3944   */\n      0x00\n        /* \"#utility.yul\":3962:4028   */\n      tag_81\n        /* \"#utility.yul\":4026:4027   */\n      0x06\n        /* \"#utility.yul\":4021:4024   */\n      dup4\n        /* \"#utility.yul\":3962:4028   */\n      tag_34\n      jump\t// in\n    tag_81:\n        /* \"#utility.yul\":3955:4028   */\n      swap2\n      pop\n        /* \"#utility.yul\":4037:4130   */\n      tag_82\n        /* \"#utility.yul\":4126:4129   */\n      dup3\n        /* \"#utility.yul\":4037:4130   */\n      tag_35\n      jump\t// in\n    tag_82:\n        /* \"#utility.yul\":4155:4157   */\n      0x20\n        /* \"#utility.yul\":4150:4153   */\n      dup3\n        /* \"#utility.yul\":4146:4158   */\n      add\n        /* \"#utility.yul\":4139:4158   */\n      swap1\n      pop\n        /* \"#utility.yul\":3799:4164   */\n      swap2\n      swap1\n      pop\n      jump\t// out\n        /* \"#utility.yul\":4170:4589   */\n    tag_18:\n        /* \"#utility.yul\":4336:4340   */\n      0x00\n        /* \"#utility.yul\":4374:4376   */\n      0x20\n        /* \"#utility.yul\":4363:4372   */\n      dup3\n        /* \"#utility.yul\":4359:4377   */\n      add\n        /* \"#utility.yul\":4351:4377   */\n      swap1\n      pop\n        /* \"#utility.yul\":4423:4432   */\n      dup2\n        /* \"#utility.yul\":4417:4421   */\n      dup2\n        /* \"#utility.yul\":4413:4433   */\n      sub\n        /* \"#utility.yul\":4409:4410   */\n      0x00\n        /* \"#utility.yul\":4398:4407   */\n      dup4\n        /* \"#utility.yul\":4394:4411   */\n      add\n        /* \"#utility.yul\":4387:4434   */\n      mstore\n        /* \"#utility.yul\":4451:4582   */\n      tag_84\n        /* \"#utility.yul\":4577:4581   */\n      dup2\n        /* \"#utility.yul\":4451:4582   */\n      tag_36\n      jump\t// in\n    tag_84:\n        /* \"#utility.yul\":4443:4582   */\n      swap1\n      pop\n        /* \"#utility.yul\":4170:4589   */\n      swap2\n      swap1\n      pop\n      jump\t// out\n\n    auxdata: 0xa264697066735822122041ab84571ef754948ec3d9ac0766a82a200f929594cf05aaa265ad2be97fda0764736f6c63430008110033\n}\n",
				"bytecode": {
					"linkReferences": {},
					"object": "608060405234801561001057600080fd5b506103ed806100206000396000f3fe608060405234801561001057600080fd5b506004361061002b5760003560e01c806306a909cc14610030575b600080fd5b61004a60048036038101906100459190610227565b61004c565b005b60008373ffffffffffffffffffffffffffffffffffffffff168383604051602401610078929190610289565b6040516020818303038152906040527f771602f7000000000000000000000000000000000000000000000000000000007bffffffffffffffffffffffffffffffffffffffffffffffffffffffff19166020820180517bffffffffffffffffffffffffffffffffffffffffffffffffffffffff83818316178352505050506040516101029190610323565b6000604051808303816000865af19150503d806000811461013f576040519150601f19603f3d011682016040523d82523d6000602084013e610144565b606091505b5050905080610188576040517f08c379a000000000000000000000000000000000000000000000000000000000815260040161017f90610397565b60405180910390fd5b50505050565b600080fd5b600073ffffffffffffffffffffffffffffffffffffffff82169050919050565b60006101be82610193565b9050919050565b6101ce816101b3565b81146101d957600080fd5b50565b6000813590506101eb816101c5565b92915050565b6000819050919050565b610204816101f1565b811461020f57600080fd5b50565b600081359050610221816101fb565b92915050565b6000806000606084860312156102405761023f61018e565b5b600061024e868287016101dc565b935050602061025f86828701610212565b925050604061027086828701610212565b9150509250925092565b610283816101f1565b82525050565b600060408201905061029e600083018561027a565b6102ab602083018461027a565b9392505050565b600081519050919050565b600081905092915050565b60005b838110156102e65780820151818401526020810190506102cb565b60008484015250505050565b60006102fd826102b2565b61030781856102bd565b93506103178185602086016102c8565b80840191505092915050565b600061032f82846102f2565b915081905092915050565b600082825260208201905092915050565b7f4661696c65640000000000000000000000000000000000000000000000000000600082015250565b600061038160068361033a565b915061038c8261034b565b602082019050919050565b600060208201905081810360008301526103b081610374565b905091905056fea264697066735822122041ab84571ef754948ec3d9ac0766a82a200f929594cf05aaa265ad2be97fda0764736f6c63430008110033",
					"opcodes": "PUSH1 0x80 PUSH1 0x40 MSTORE CALLVALUE DUP1 ISZERO PUSH2 0x10 JUMPI PUSH1 0x0 DUP1 REVERT JUMPDEST POP PUSH2 0x3ED DUP1 PUSH2 0x20 PUSH1 0x0 CODECOPY PUSH1 0x0 RETURN INVALID PUSH1 0x80 PUSH1 0x40 MSTORE CALLVALUE DUP1 ISZERO PUSH2 0x10 JUMPI PUSH1 0x0 DUP1 REVERT JUMPDEST POP PUSH1 0x4 CALLDATASIZE LT PUSH2 0x2B JUMPI PUSH1 0x0 CALLDATALOAD PUSH1 0xE0 SHR DUP1 PUSH4 0x6A909CC EQ PUSH2 0x30 JUMPI JUMPDEST PUSH1 0x0 DUP1 REVERT JUMPDEST PUSH2 0x4A PUSH1 0x4 DUP1 CALLDATASIZE SUB DUP2 ADD SWAP1 PUSH2 0x45 SWAP2 SWAP1 PUSH2 0x227 JUMP JUMPDEST PUSH2 0x4C JUMP JUMPDEST STOP JUMPDEST PUSH1 0x0 DUP4 PUSH20 0xFFFFFFFFFFFFFFFFFFFFFFFFFFFFFFFFFFFFFFFF AND DUP4 DUP4 PUSH1 0x40 MLOAD PUSH1 0x24 ADD PUSH2 0x78 SWAP3 SWAP2 SWAP1 PUSH2 0x289 JUMP JUMPDEST PUSH1 0x40 MLOAD PUSH1 0x20 DUP2 DUP4 SUB SUB DUP2 MSTORE SWAP1 PUSH1 0x40 MSTORE PUSH32 0x771602F700000000000000000000000000000000000000000000000000000000 PUSH28 0xFFFFFFFFFFFFFFFFFFFFFFFFFFFFFFFFFFFFFFFFFFFFFFFFFFFFFFFF NOT AND PUSH1 0x20 DUP3 ADD DUP1 MLOAD PUSH28 0xFFFFFFFFFFFFFFFFFFFFFFFFFFFFFFFFFFFFFFFFFFFFFFFFFFFFFFFF DUP4 DUP2 DUP4 AND OR DUP4 MSTORE POP POP POP POP PUSH1 0x40 MLOAD PUSH2 0x102 SWAP2 SWAP1 PUSH2 0x323 JUMP JUMPDEST PUSH1 0x0 PUSH1 0x40 MLOAD DUP1 DUP4 SUB DUP2 PUSH1 0x0 DUP7 GAS CALL SWAP2 POP POP RETURNDATASIZE DUP1 PUSH1 0x0 DUP2 EQ PUSH2 0x13F JUMPI PUSH1 0x40 MLOAD SWAP2 POP PUSH1 0x1F NOT PUSH1 0x3F RETURNDATASIZE ADD AND DUP3 ADD PUSH1 0x40 MSTORE RETURNDATASIZE DUP3 MSTORE RETURNDATASIZE PUSH1 0x0 PUSH1 0x20 DUP5 ADD RETURNDATACOPY PUSH2 0x144 JUMP JUMPDEST PUSH1 0x60 SWAP2 POP JUMPDEST POP POP SWAP1 POP DUP1 PUSH2 0x188 JUMPI PUSH1 0x40 MLOAD PUSH32 0x8C379A000000000000000000000000000000000000000000000000000000000 DUP2 MSTORE PUSH1 0x4 ADD PUSH2 0x17F SWAP1 PUSH2 0x397 JUMP JUMPDEST PUSH1 0x40 MLOAD DUP1 SWAP2 SUB SWAP1 REVERT JUMPDEST POP POP POP POP JUMP JUMPDEST PUSH1 0x0 DUP1 REVERT JUMPDEST PUSH1 0x0 PUSH20 0xFFFFFFFFFFFFFFFFFFFFFFFFFFFFFFFFFFFFFFFF DUP3 AND SWAP1 POP SWAP2 SWAP1 POP JUMP JUMPDEST PUSH1 0x0 PUSH2 0x1BE DUP3 PUSH2 0x193 JUMP JUMPDEST SWAP1 POP SWAP2 SWAP1 POP JUMP JUMPDEST PUSH2 0x1CE DUP2 PUSH2 0x1B3 JUMP JUMPDEST DUP2 EQ PUSH2 0x1D9 JUMPI PUSH1 0x0 DUP1 REVERT JUMPDEST POP JUMP JUMPDEST PUSH1 0x0 DUP2 CALLDATALOAD SWAP1 POP PUSH2 0x1EB DUP2 PUSH2 0x1C5 JUMP JUMPDEST SWAP3 SWAP2 POP POP JUMP JUMPDEST PUSH1 0x0 DUP2 SWAP1 POP SWAP2 SWAP1 POP JUMP JUMPDEST PUSH2 0x204 DUP2 PUSH2 0x1F1 JUMP JUMPDEST DUP2 EQ PUSH2 0x20F JUMPI PUSH1 0x0 DUP1 REVERT JUMPDEST POP JUMP JUMPDEST PUSH1 0x0 DUP2 CALLDATALOAD SWAP1 POP PUSH2 0x221 DUP2 PUSH2 0x1FB JUMP JUMPDEST SWAP3 SWAP2 POP POP JUMP JUMPDEST PUSH1 0x0 DUP1 PUSH1 0x0 PUSH1 0x60 DUP5 DUP7 SUB SLT ISZERO PUSH2 0x240 JUMPI PUSH2 0x23F PUSH2 0x18E JUMP JUMPDEST JUMPDEST PUSH1 0x0 PUSH2 0x24E DUP7 DUP3 DUP8 ADD PUSH2 0x1DC JUMP JUMPDEST SWAP4 POP POP PUSH1 0x20 PUSH2 0x25F DUP7 DUP3 DUP8 ADD PUSH2 0x212 JUMP JUMPDEST SWAP3 POP POP PUSH1 0x40 PUSH2 0x270 DUP7 DUP3 DUP8 ADD PUSH2 0x212 JUMP JUMPDEST SWAP2 POP POP SWAP3 POP SWAP3 POP SWAP3 JUMP JUMPDEST PUSH2 0x283 DUP2 PUSH2 0x1F1 JUMP JUMPDEST DUP3 MSTORE POP POP JUMP JUMPDEST PUSH1 0x0 PUSH1 0x40 DUP3 ADD SWAP1 POP PUSH2 0x29E PUSH1 0x0 DUP4 ADD DUP6 PUSH2 0x27A JUMP JUMPDEST PUSH2 0x2AB PUSH1 0x20 DUP4 ADD DUP5 PUSH2 0x27A JUMP JUMPDEST SWAP4 SWAP3 POP POP POP JUMP JUMPDEST PUSH1 0x0 DUP2 MLOAD SWAP1 POP SWAP2 SWAP1 POP JUMP JUMPDEST PUSH1 0x0 DUP2 SWAP1 POP SWAP3 SWAP2 POP POP JUMP JUMPDEST PUSH1 0x0 JUMPDEST DUP4 DUP2 LT ISZERO PUSH2 0x2E6 JUMPI DUP1 DUP3 ADD MLOAD DUP2 DUP5 ADD MSTORE PUSH1 0x20 DUP2 ADD SWAP1 POP PUSH2 0x2CB JUMP JUMPDEST PUSH1 0x0 DUP5 DUP5 ADD MSTORE POP POP POP POP JUMP JUMPDEST PUSH1 0x0 PUSH2 0x2FD DUP3 PUSH2 0x2B2 JUMP JUMPDEST PUSH2 0x307 DUP2 DUP6 PUSH2 0x2BD JUMP JUMPDEST SWAP4 POP PUSH2 0x317 DUP2 DUP6 PUSH1 0x20 DUP7 ADD PUSH2 0x2C8 JUMP JUMPDEST DUP1 DUP5 ADD SWAP2 POP POP SWAP3 SWAP2 POP POP JUMP JUMPDEST PUSH1 0x0 PUSH2 0x32F DUP3 DUP5 PUSH2 0x2F2 JUMP JUMPDEST SWAP2 POP DUP2 SWAP1 POP SWAP3 SWAP2 POP POP JUMP JUMPDEST PUSH1 0x0 DUP3 DUP3 MSTORE PUSH1 0x20 DUP3 ADD SWAP1 POP SWAP3 SWAP2 POP POP JUMP JUMPDEST PUSH32 0x4661696C65640000000000000000000000000000000000000000000000000000 PUSH1 0x0 DUP3 ADD MSTORE POP JUMP JUMPDEST PUSH1 0x0 PUSH2 0x381 PUSH1 0x6 DUP4 PUSH2 0x33A JUMP JUMPDEST SWAP2 POP PUSH2 0x38C DUP3 PUSH2 0x34B JUMP JUMPDEST PUSH1 0x20 DUP3 ADD SWAP1 POP SWAP2 SWAP1 POP JUMP JUMPDEST PUSH1 0x0 PUSH1 0x20 DUP3 ADD SWAP1 POP DUP2 DUP2 SUB PUSH1 0x0 DUP4 ADD MSTORE PUSH2 0x3B0 DUP2 PUSH2 0x374 JUMP JUMPDEST SWAP1 POP SWAP2 SWAP1 POP JUMP INVALID LOG2 PUSH5 0x6970667358 0x22 SLT KECCAK256 COINBASE 0xAB DUP5 JUMPI 0x1E 0xF7 SLOAD SWAP5 DUP15 0xC3 0xD9 0xAC SMOD PUSH7 0xA82A200F929594 0xCF SDIV 0xAA LOG2 PUSH6 0xAD2BE97FDA07 PUSH5 0x736F6C6343 STOP ADDMOD GT STOP CALLER "
				},
				"gasEstimates": {
					"creation": {
						"codeDepositCost": "201000",
						"executionCost": "245",
						"totalCost": "201245"
					},
					"external": {
						"addButton(address,uint256,uint256)": "infinite"
					}
				},
				"methodIdentifiers": {
					"addButton(address,uint256,uint256)": "06a909cc"
				}
			},
			"storageLayout": {
				"storage": [],
				"types": null
			},
			"userdoc": {
				"kind": "user",
				"methods": {},
				"version": 1
			}
		}
	}
}