{
	"chapter2/Ex2_6.sol": {
		"Receiver": {
			"abi": [
				{
					"anonymous": false,
					"inputs": [
						{
							"indexed": false,
							"internalType": "string",
							"name": "info",
							"type": "string"
						},
						{
							"indexed": false,
							"internalType": "address",
							"name": "from",
							"type": "address"
						}
					],
					"name": "From",
					"type": "event"
				},
				{
					"stateMutability": "nonpayable",
					"type": "fallback"
				},
				{
					"inputs": [],
					"name": "outPut",
					"outputs": [],
					"stateMutability": "payable",
					"type": "function"
				}
			],
			"devdoc": {
				"kind": "dev",
				"methods": {},
				"version": 1
			},
			"evm": {
				"assembly": "    /* \"chapter2/Ex2_6.sol\":70:300  contract Receiver {... */\n  mstore(0x40, 0x80)\n  callvalue\n  dup1\n  iszero\n  tag_1\n  jumpi\n  0x00\n  dup1\n  revert\ntag_1:\n  pop\n  dataSize(sub_0)\n  dup1\n  dataOffset(sub_0)\n  0x00\n  codecopy\n  0x00\n  return\nstop\n\nsub_0: assembly {\n        /* \"chapter2/Ex2_6.sol\":70:300  contract Receiver {... */\n      mstore(0x40, 0x80)\n      jumpi(tag_1, lt(calldatasize, 0x04))\n      shr(0xe0, calldataload(0x00))\n      dup1\n      0xc0e493f8\n      eq\n      tag_3\n      jumpi\n      jump(tag_2)\n    tag_1:\n    tag_2:\n      callvalue\n      dup1\n      iszero\n      tag_4\n      jumpi\n      0x00\n      dup1\n      revert\n    tag_4:\n      pop\n        /* \"chapter2/Ex2_6.sol\":172:202  From(\"fallback()\", msg.sender) */\n      0x1ef5a7e9d1f6af1f9295257ddd3fda24207b9ad75063992adc5ef8ebb7a5f36b\n        /* \"chapter2/Ex2_6.sol\":191:201  msg.sender */\n      caller\n        /* \"chapter2/Ex2_6.sol\":172:202  From(\"fallback()\", msg.sender) */\n      mload(0x40)\n      tag_7\n      swap2\n      swap1\n      tag_8\n      jump\t// in\n    tag_7:\n      mload(0x40)\n      dup1\n      swap2\n      sub\n      swap1\n      log1\n        /* \"chapter2/Ex2_6.sol\":70:300  contract Receiver {... */\n      stop\n        /* \"chapter2/Ex2_6.sol\":215:298  function outPut() public payable {... */\n    tag_3:\n      tag_9\n      tag_10\n      jump\t// in\n    tag_9:\n      stop\n    tag_10:\n        /* \"chapter2/Ex2_6.sol\":263:291  From(\"outPut()\", msg.sender) */\n      0x1ef5a7e9d1f6af1f9295257ddd3fda24207b9ad75063992adc5ef8ebb7a5f36b\n        /* \"chapter2/Ex2_6.sol\":280:290  msg.sender */\n      caller\n        /* \"chapter2/Ex2_6.sol\":263:291  From(\"outPut()\", msg.sender) */\n      mload(0x40)\n      tag_12\n      swap2\n      swap1\n      tag_13\n      jump\t// in\n    tag_12:\n      mload(0x40)\n      dup1\n      swap2\n      sub\n      swap1\n      log1\n        /* \"chapter2/Ex2_6.sol\":215:298  function outPut() public payable {... */\n      jump\t// out\n        /* \"#utility.yul\":7:176   */\n    tag_14:\n        /* \"#utility.yul\":91:102   */\n      0x00\n        /* \"#utility.yul\":125:131   */\n      dup3\n        /* \"#utility.yul\":120:123   */\n      dup3\n        /* \"#utility.yul\":113:132   */\n      mstore\n        /* \"#utility.yul\":165:169   */\n      0x20\n        /* \"#utility.yul\":160:163   */\n      dup3\n        /* \"#utility.yul\":156:170   */\n      add\n        /* \"#utility.yul\":141:170   */\n      swap1\n      pop\n        /* \"#utility.yul\":7:176   */\n      swap3\n      swap2\n      pop\n      pop\n      jump\t// out\n        /* \"#utility.yul\":182:342   */\n    tag_15:\n        /* \"#utility.yul\":322:334   */\n      0x66616c6c6261636b282900000000000000000000000000000000000000000000\n        /* \"#utility.yul\":318:319   */\n      0x00\n        /* \"#utility.yul\":310:316   */\n      dup3\n        /* \"#utility.yul\":306:320   */\n      add\n        /* \"#utility.yul\":299:335   */\n      mstore\n        /* \"#utility.yul\":182:342   */\n      pop\n      jump\t// out\n        /* \"#utility.yul\":348:714   */\n    tag_16:\n        /* \"#utility.yul\":490:493   */\n      0x00\n        /* \"#utility.yul\":511:578   */\n      tag_26\n        /* \"#utility.yul\":575:577   */\n      0x0a\n        /* \"#utility.yul\":570:573   */\n      dup4\n        /* \"#utility.yul\":511:578   */\n      tag_14\n      jump\t// in\n    tag_26:\n        /* \"#utility.yul\":504:578   */\n      swap2\n      pop\n        /* \"#utility.yul\":587:680   */\n      tag_27\n        /* \"#utility.yul\":676:679   */\n      dup3\n        /* \"#utility.yul\":587:680   */\n      tag_15\n      jump\t// in\n    tag_27:\n        /* \"#utility.yul\":705:707   */\n      0x20\n        /* \"#utility.yul\":700:703   */\n      dup3\n        /* \"#utility.yul\":696:708   */\n      add\n        /* \"#utility.yul\":689:708   */\n      swap1\n      pop\n        /* \"#utility.yul\":348:714   */\n      swap2\n      swap1\n      pop\n      jump\t// out\n        /* \"#utility.yul\":720:846   */\n    tag_17:\n        /* \"#utility.yul\":757:764   */\n      0x00\n        /* \"#utility.yul\":797:839   */\n      0xffffffffffffffffffffffffffffffffffffffff\n        /* \"#utility.yul\":790:795   */\n      dup3\n        /* \"#utility.yul\":786:840   */\n      and\n        /* \"#utility.yul\":775:840   */\n      swap1\n      pop\n        /* \"#utility.yul\":720:846   */\n      swap2\n      swap1\n      pop\n      jump\t// out\n        /* \"#utility.yul\":852:948   */\n    tag_18:\n        /* \"#utility.yul\":889:896   */\n      0x00\n        /* \"#utility.yul\":918:942   */\n      tag_30\n        /* \"#utility.yul\":936:941   */\n      dup3\n        /* \"#utility.yul\":918:942   */\n      tag_17\n      jump\t// in\n    tag_30:\n        /* \"#utility.yul\":907:942   */\n      swap1\n      pop\n        /* \"#utility.yul\":852:948   */\n      swap2\n      swap1\n      pop\n      jump\t// out\n        /* \"#utility.yul\":954:1072   */\n    tag_19:\n        /* \"#utility.yul\":1041:1065   */\n      tag_32\n        /* \"#utility.yul\":1059:1064   */\n      dup2\n        /* \"#utility.yul\":1041:1065   */\n      tag_18\n      jump\t// in\n    tag_32:\n        /* \"#utility.yul\":1036:1039   */\n      dup3\n        /* \"#utility.yul\":1029:1066   */\n      mstore\n        /* \"#utility.yul\":954:1072   */\n      pop\n      pop\n      jump\t// out\n        /* \"#utility.yul\":1078:1607   */\n    tag_8:\n        /* \"#utility.yul\":1272:1276   */\n      0x00\n        /* \"#utility.yul\":1310:1312   */\n      0x40\n        /* \"#utility.yul\":1299:1308   */\n      dup3\n        /* \"#utility.yul\":1295:1313   */\n      add\n        /* \"#utility.yul\":1287:1313   */\n      swap1\n      pop\n        /* \"#utility.yul\":1359:1368   */\n      dup2\n        /* \"#utility.yul\":1353:1357   */\n      dup2\n        /* \"#utility.yul\":1349:1369   */\n      sub\n        /* \"#utility.yul\":1345:1346   */\n      0x00\n        /* \"#utility.yul\":1334:1343   */\n      dup4\n        /* \"#utility.yul\":1330:1347   */\n      add\n        /* \"#utility.yul\":1323:1370   */\n      mstore\n        /* \"#utility.yul\":1387:1518   */\n      tag_34\n        /* \"#utility.yul\":1513:1517   */\n      dup2\n        /* \"#utility.yul\":1387:1518   */\n      tag_16\n      jump\t// in\n    tag_34:\n        /* \"#utility.yul\":1379:1518   */\n      swap1\n      pop\n        /* \"#utility.yul\":1528:1600   */\n      tag_35\n        /* \"#utility.yul\":1596:1598   */\n      0x20\n        /* \"#utility.yul\":1585:1594   */\n      dup4\n        /* \"#utility.yul\":1581:1599   */\n      add\n        /* \"#utility.yul\":1572:1578   */\n      dup5\n        /* \"#utility.yul\":1528:1600   */\n      tag_19\n      jump\t// in\n    tag_35:\n        /* \"#utility.yul\":1078:1607   */\n      swap3\n      swap2\n      pop\n      pop\n      jump\t// out\n        /* \"#utility.yul\":1613:1771   */\n    tag_20:\n        /* \"#utility.yul\":1753:1763   */\n      0x6f75745075742829000000000000000000000000000000000000000000000000\n        /* \"#utility.yul\":1749:1750   */\n      0x00\n        /* \"#utility.yul\":1741:1747   */\n      dup3\n        /* \"#utility.yul\":1737:1751   */\n      add\n        /* \"#utility.yul\":1730:1764   */\n      mstore\n        /* \"#utility.yul\":1613:1771   */\n      pop\n      jump\t// out\n        /* \"#utility.yul\":1777:2142   */\n    tag_21:\n        /* \"#utility.yul\":1919:1922   */\n      0x00\n        /* \"#utility.yul\":1940:2006   */\n      tag_38\n        /* \"#utility.yul\":2004:2005   */\n      0x08\n        /* \"#utility.yul\":1999:2002   */\n      dup4\n        /* \"#utility.yul\":1940:2006   */\n      tag_14\n      jump\t// in\n    tag_38:\n        /* \"#utility.yul\":1933:2006   */\n      swap2\n      pop\n        /* \"#utility.yul\":2015:2108   */\n      tag_39\n        /* \"#utility.yul\":2104:2107   */\n      dup3\n        /* \"#utility.yul\":2015:2108   */\n      tag_20\n      jump\t// in\n    tag_39:\n        /* \"#utility.yul\":2133:2135   */\n      0x20\n        /* \"#utility.yul\":2128:2131   */\n      dup3\n        /* \"#utility.yul\":2124:2136   */\n      add\n        /* \"#utility.yul\":2117:2136   */\n      swap1\n      pop\n        /* \"#utility.yul\":1777:2142   */\n      swap2\n      swap1\n      pop\n      jump\t// out\n        /* \"#utility.yul\":2148:2677   */\n    tag_13:\n        /* \"#utility.yul\":2342:2346   */\n      0x00\n        /* \"#utility.yul\":2380:2382   */\n      0x40\n        /* \"#utility.yul\":2369:2378   */\n      dup3\n        /* \"#utility.yul\":2365:2383   */\n      add\n        /* \"#utility.yul\":2357:2383   */\n      swap1\n      pop\n        /* \"#utility.yul\":2429:2438   */\n      dup2\n        /* \"#utility.yul\":2423:2427   */\n      dup2\n        /* \"#utility.yul\":2419:2439   */\n      sub\n        /* \"#utility.yul\":2415:2416   */\n      0x00\n        /* \"#utility.yul\":2404:2413   */\n      dup4\n        /* \"#utility.yul\":2400:2417   */\n      add\n        /* \"#utility.yul\":2393:2440   */\n      mstore\n        /* \"#utility.yul\":2457:2588   */\n      tag_41\n        /* \"#utility.yul\":2583:2587   */\n      dup2\n        /* \"#utility.yul\":2457:2588   */\n      tag_21\n      jump\t// in\n    tag_41:\n        /* \"#utility.yul\":2449:2588   */\n      swap1\n      pop\n        /* \"#utility.yul\":2598:2670   */\n      tag_42\n        /* \"#utility.yul\":2666:2668   */\n      0x20\n        /* \"#utility.yul\":2655:2664   */\n      dup4\n        /* \"#utility.yul\":2651:2669   */\n      add\n        /* \"#utility.yul\":2642:2648   */\n      dup5\n        /* \"#utility.yul\":2598:2670   */\n      tag_19\n      jump\t// in\n    tag_42:\n        /* \"#utility.yul\":2148:2677   */\n      swap3\n      swap2\n      pop\n      pop\n      jump\t// out\n\n    auxdata: 0xa2646970667358221220cb9f473d999b79a6c2bfd569c5d70213255f4f5d3a1b1c9cc34af452bbceeb8764736f6c63430008110033\n}\n",
				"bytecode": {
					"linkReferences": {},
					"object": "608060405234801561001057600080fd5b50610228806100206000396000f3fe6080604052600436106100225760003560e01c8063c0e493f81461006957610023565b5b34801561002f57600080fd5b507f1ef5a7e9d1f6af1f9295257ddd3fda24207b9ad75063992adc5ef8ebb7a5f36b3360405161005f919061014a565b60405180910390a1005b610071610073565b005b7f1ef5a7e9d1f6af1f9295257ddd3fda24207b9ad75063992adc5ef8ebb7a5f36b336040516100a291906101c4565b60405180910390a1565b600082825260208201905092915050565b7f66616c6c6261636b282900000000000000000000000000000000000000000000600082015250565b60006100f3600a836100ac565b91506100fe826100bd565b602082019050919050565b600073ffffffffffffffffffffffffffffffffffffffff82169050919050565b600061013482610109565b9050919050565b61014481610129565b82525050565b60006040820190508181036000830152610163816100e6565b9050610172602083018461013b565b92915050565b7f6f75745075742829000000000000000000000000000000000000000000000000600082015250565b60006101ae6008836100ac565b91506101b982610178565b602082019050919050565b600060408201905081810360008301526101dd816101a1565b90506101ec602083018461013b565b9291505056fea2646970667358221220cb9f473d999b79a6c2bfd569c5d70213255f4f5d3a1b1c9cc34af452bbceeb8764736f6c63430008110033",
					"opcodes": "PUSH1 0x80 PUSH1 0x40 MSTORE CALLVALUE DUP1 ISZERO PUSH2 0x10 JUMPI PUSH1 0x0 DUP1 REVERT JUMPDEST POP PUSH2 0x228 DUP1 PUSH2 0x20 PUSH1 0x0 CODECOPY PUSH1 0x0 RETURN INVALID PUSH1 0x80 PUSH1 0x40 MSTORE PUSH1 0x4 CALLDATASIZE LT PUSH2 0x22 JUMPI PUSH1 0x0 CALLDATALOAD PUSH1 0xE0 SHR DUP1 PUSH4 0xC0E493F8 EQ PUSH2 0x69 JUMPI PUSH2 0x23 JUMP JUMPDEST JUMPDEST CALLVALUE DUP1 ISZERO PUSH2 0x2F JUMPI PUSH1 0x0 DUP1 REVERT JUMPDEST POP PUSH32 0x1EF5A7E9D1F6AF1F9295257DDD3FDA24207B9AD75063992ADC5EF8EBB7A5F36B CALLER PUSH1 0x40 MLOAD PUSH2 0x5F SWAP2 SWAP1 PUSH2 0x14A JUMP JUMPDEST PUSH1 0x40 MLOAD DUP1 SWAP2 SUB SWAP1 LOG1 STOP JUMPDEST PUSH2 0x71 PUSH2 0x73 JUMP JUMPDEST STOP JUMPDEST PUSH32 0x1EF5A7E9D1F6AF1F9295257DDD3FDA24207B9AD75063992ADC5EF8EBB7A5F36B CALLER PUSH1 0x40 MLOAD PUSH2 0xA2 SWAP2 SWAP1 PUSH2 0x1C4 JUMP JUMPDEST PUSH1 0x40 MLOAD DUP1 SWAP2 SUB SWAP1 LOG1 JUMP JUMPDEST PUSH1 0x0 DUP3 DUP3 MSTORE PUSH1 0x20 DUP3 ADD SWAP1 POP SWAP3 SWAP2 POP POP JUMP JUMPDEST PUSH32 0x66616C6C6261636B282900000000000000000000000000000000000000000000 PUSH1 0x0 DUP3 ADD MSTORE POP JUMP JUMPDEST PUSH1 0x0 PUSH2 0xF3 PUSH1 0xA DUP4 PUSH2 0xAC JUMP JUMPDEST SWAP2 POP PUSH2 0xFE DUP3 PUSH2 0xBD JUMP JUMPDEST PUSH1 0x20 DUP3 ADD SWAP1 POP SWAP2 SWAP1 POP JUMP JUMPDEST PUSH1 0x0 PUSH20 0xFFFFFFFFFFFFFFFFFFFFFFFFFFFFFFFFFFFFFFFF DUP3 AND SWAP1 POP SWAP2 SWAP1 POP JUMP JUMPDEST PUSH1 0x0 PUSH2 0x134 DUP3 PUSH2 0x109 JUMP JUMPDEST SWAP1 POP SWAP2 SWAP1 POP JUMP JUMPDEST PUSH2 0x144 DUP2 PUSH2 0x129 JUMP JUMPDEST DUP3 MSTORE POP POP JUMP JUMPDEST PUSH1 0x0 PUSH1 0x40 DUP3 ADD SWAP1 POP DUP2 DUP2 SUB PUSH1 0x0 DUP4 ADD MSTORE PUSH2 0x163 DUP2 PUSH2 0xE6 JUMP JUMPDEST SWAP1 POP PUSH2 0x172 PUSH1 0x20 DUP4 ADD DUP5 PUSH2 0x13B JUMP JUMPDEST SWAP3 SWAP2 POP POP JUMP JUMPDEST PUSH32 0x6F75745075742829000000000000000000000000000000000000000000000000 PUSH1 0x0 DUP3 ADD MSTORE POP JUMP JUMPDEST PUSH1 0x0 PUSH2 0x1AE PUSH1 0x8 DUP4 PUSH2 0xAC JUMP JUMPDEST SWAP2 POP PUSH2 0x1B9 DUP3 PUSH2 0x178 JUMP JUMPDEST PUSH1 0x20 DUP3 ADD SWAP1 POP SWAP2 SWAP1 POP JUMP JUMPDEST PUSH1 0x0 PUSH1 0x40 DUP3 ADD SWAP1 POP DUP2 DUP2 SUB PUSH1 0x0 DUP4 ADD MSTORE PUSH2 0x1DD DUP2 PUSH2 0x1A1 JUMP JUMPDEST SWAP1 POP PUSH2 0x1EC PUSH1 0x20 DUP4 ADD DUP5 PUSH2 0x13B JUMP JUMPDEST SWAP3 SWAP2 POP POP JUMP INVALID LOG2 PUSH5 0x6970667358 0x22 SLT KECCAK256 0xCB SWAP16 SELFBALANCE RETURNDATASIZE SWAP10 SWAP12 PUSH26 0xA6C2BFD569C5D70213255F4F5D3A1B1C9CC34AF452BBCEEB8764 PUSH20 0x6F6C634300081100330000000000000000000000 "
				},
				"gasEstimates": {
					"creation": {
						"codeDepositCost": "110400",
						"executionCost": "159",
						"totalCost": "110559"
					},
					"external": {
						"": "2318",
						"outPut()": "2307"
					}
				},
				"methodIdentifiers": {
					"outPut()": "c0e493f8"
				}
			},
			"storageLayout": {
				"storage": [],
				"types": null
			},
			"userdoc": {
				"kind": "user",
				"methods": {},
				"version": 1
			}
		}
	}
}