{
	"data": {
		"bytecode": {
			"linkReferences": {},
			"object": "60806040526000600255600160055560006006553480156200002057600080fd5b5060405162001c2038038062001c20833981810160405281019062000046919062000324565b33600160006101000a81548173ffffffffffffffffffffffffffffffffffffffff021916908373ffffffffffffffffffffffffffffffffffffffff1602179055508160039081620000989190620005cb565b5080600481905550620000b0620000be60201b60201c565b6002819055505050620008ce565b60008043426004546003604051602001620000da919062000753565b6040516020818303038152906040528051906020012060001c620000ff9190620007a6565b6200010b9190620007a6565b620001179190620007a6565b90506001600a80836200012b919062000810565b62000137919062000848565b8262000144919062000893565b620001509190620007a6565b91505090565b6000604051905090565b600080fd5b600080fd5b600080fd5b600080fd5b6000601f19601f8301169050919050565b7f4e487b7100000000000000000000000000000000000000000000000000000000600052604160045260246000fd5b620001bf8262000174565b810181811067ffffffffffffffff82111715620001e157620001e062000185565b5b80604052505050565b6000620001f662000156565b9050620002048282620001b4565b919050565b600067ffffffffffffffff82111562000227576200022662000185565b5b620002328262000174565b9050602081019050919050565b60005b838110156200025f57808201518184015260208101905062000242565b60008484015250505050565b6000620002826200027c8462000209565b620001ea565b905082815260208101848484011115620002a157620002a06200016f565b5b620002ae8482856200023f565b509392505050565b600082601f830112620002ce57620002cd6200016a565b5b8151620002e08482602086016200026b565b91505092915050565b6000819050919050565b620002fe81620002e9565b81146200030a57600080fd5b50565b6000815190506200031e81620002f3565b92915050565b600080604083850312156200033e576200033d62000160565b5b600083015167ffffffffffffffff8111156200035f576200035e62000165565b5b6200036d85828601620002b6565b925050602062000380858286016200030d565b9150509250929050565b600081519050919050565b7f4e487b7100000000000000000000000000000000000000000000000000000000600052602260045260246000fd5b60006002820490506001821680620003dd57607f821691505b602082108103620003f357620003f262000395565b5b50919050565b60008190508160005260206000209050919050565b60006020601f8301049050919050565b600082821b905092915050565b6000600883026200045d7fffffffffffffffffffffffffffffffffffffffffffffffffffffffffffffffff826200041e565b6200046986836200041e565b95508019841693508086168417925050509392505050565b6000819050919050565b6000620004ac620004a6620004a084620002e9565b62000481565b620002e9565b9050919050565b6000819050919050565b620004c8836200048b565b620004e0620004d782620004b3565b8484546200042b565b825550505050565b600090565b620004f7620004e8565b62000504818484620004bd565b505050565b5b818110156200052c5762000520600082620004ed565b6001810190506200050a565b5050565b601f8211156200057b576200054581620003f9565b62000550846200040e565b8101602085101562000560578190505b620005786200056f856200040e565b83018262000509565b50505b505050565b600082821c905092915050565b6000620005a06000198460080262000580565b1980831691505092915050565b6000620005bb83836200058d565b9150826002028217905092915050565b620005d6826200038a565b67ffffffffffffffff811115620005f257620005f162000185565b5b620005fe8254620003c4565b6200060b82828562000530565b600060209050601f8311600181146200064357600084156200062e578287015190505b6200063a8582620005ad565b865550620006aa565b601f1984166200065386620003f9565b60005b828110156200067d5784890151825560018201915060208501945060208101905062000656565b868310156200069d578489015162000699601f8916826200058d565b8355505b6001600288020188555050505b505050505050565b600082825260208201905092915050565b60008154620006d281620003c4565b620006de8186620006b2565b94506001821660008114620006fc576001811462000713576200074a565b60ff1983168652811515602002860193506200074a565b6200071e85620003f9565b60005b83811015620007425781548189015260018201915060208101905062000721565b808801955050505b50505092915050565b600060208201905081810360008301526200076f8184620006c3565b905092915050565b7f4e487b7100000000000000000000000000000000000000000000000000000000600052601160045260246000fd5b6000620007b382620002e9565b9150620007c083620002e9565b9250828201905080821115620007db57620007da62000777565b5b92915050565b7f4e487b7100000000000000000000000000000000000000000000000000000000600052601260045260246000fd5b60006200081d82620002e9565b91506200082a83620002e9565b9250826200083d576200083c620007e1565b5b828204905092915050565b60006200085582620002e9565b91506200086283620002e9565b92508282026200087281620002e9565b915082820484148315176200088c576200088b62000777565b5b5092915050565b6000620008a082620002e9565b9150620008ad83620002e9565b9250828203905081811115620008c857620008c762000777565b5b92915050565b61134280620008de6000396000f3fe6080604052600436106100955760003560e01c806379ed40bc1161005957806379ed40bc146103b85780638da5cb5b146103e45780639f8743f71461040f578063a86d2e191461043a578063cf66b98914610465576102e0565b80630df516d8146102e557806312065fe014610310578063146ca5311461033b57806319e2eb86146103665780635ef5cc891461038f576102e0565b366102e05766038d7ea4c6800034146100e3576040517f08c379a00000000000000000000000000000000000000000000000000000000081526004016100da90610917565b60405180910390fd5b6001600080600554815260200190815260200160002060003373ffffffffffffffffffffffffffffffffffffffff1673ffffffffffffffffffffffffffffffffffffffff16815260200190815260200160002060006101000a81548160ff02191690831515021790555060066000815461015c90610970565b919050819055506002546006540361028f5760003373ffffffffffffffffffffffffffffffffffffffff1647604051610194906109e9565b60006040518083038185875af1925050503d80600081146101d1576040519150601f19603f3d011682016040523d82523d6000602084013e6101d6565b606091505b505090508061021a576040517f08c379a000000000000000000000000000000000000000000000000000000000815260040161021190610a4a565b60405180910390fd5b600060068190555060056000815461023190610970565b919050819055506102406104a2565b6002819055503373ffffffffffffffffffffffffffffffffffffffff167fd7b5435fa0dd93954c7955210a67950d9385f8cd60631432712709e265ec99ca60405160405180910390a2506102de565b3373ffffffffffffffffffffffffffffffffffffffff167f20384c35af44ae3e0536c765e1cee107339d7ca70b092472c816a3a62e4ba659346040516102d59190610a79565b60405180910390a25b005b600080fd5b3480156102f157600080fd5b506102fa61052a565b6040516103079190610a79565b60405180910390f35b34801561031c57600080fd5b50610325610530565b6040516103329190610a79565b60405180910390f35b34801561034757600080fd5b50610350610538565b60405161035d9190610a79565b60405180910390f35b34801561037257600080fd5b5061038d60048036038101906103889190610c1a565b61053e565b005b34801561039b57600080fd5b506103b660048036038101906103b19190610c1a565b6105e9565b005b3480156103c457600080fd5b506103cd610694565b6040516103db929190610ce4565b60405180910390f35b3480156103f057600080fd5b506103f96107c1565b6040516104069190610d55565b60405180910390f35b34801561041b57600080fd5b506104246107e7565b6040516104319190610a79565b60405180910390f35b34801561044657600080fd5b5061044f6107f1565b60405161045c9190610a79565b60405180910390f35b34801561047157600080fd5b5061048c60048036038101906104879190610d9c565b61088b565b6040516104999190610df7565b60405180910390f35b600080434260045460036040516020016104bc9190610f0b565b6040516020818303038152906040528051906020012060001c6104df9190610f2d565b6104e99190610f2d565b6104f39190610f2d565b90506001600a80836105059190610f90565b61050f9190610fc1565b8261051a9190611003565b6105249190610f2d565b91505090565b60065481565b600047905090565b60055481565b600160009054906101000a900473ffffffffffffffffffffffffffffffffffffffff1673ffffffffffffffffffffffffffffffffffffffff163373ffffffffffffffffffffffffffffffffffffffff16146105ce576040517f08c379a00000000000000000000000000000000000000000000000000000000081526004016105c590611083565b60405180910390fd5b81600390816105dd919061123a565b50806004819055505050565b600160009054906101000a900473ffffffffffffffffffffffffffffffffffffffff1673ffffffffffffffffffffffffffffffffffffffff163373ffffffffffffffffffffffffffffffffffffffff1614610679576040517f08c379a000000000000000000000000000000000000000000000000000000000815260040161067090611083565b60405180910390fd5b8160039081610688919061123a565b50806004819055505050565b60606000600160009054906101000a900473ffffffffffffffffffffffffffffffffffffffff1673ffffffffffffffffffffffffffffffffffffffff163373ffffffffffffffffffffffffffffffffffffffff1614610728576040517f08c379a000000000000000000000000000000000000000000000000000000000815260040161071f90611083565b60405180910390fd5b600360045481805461073990610e41565b80601f016020809104026020016040519081016040528092919081815260200182805461076590610e41565b80156107b25780601f10610787576101008083540402835291602001916107b2565b820191906000526020600020905b81548152906001019060200180831161079557829003601f168201915b50505050509150915091509091565b600160009054906101000a900473ffffffffffffffffffffffffffffffffffffffff1681565b6000600554905090565b6000600160009054906101000a900473ffffffffffffffffffffffffffffffffffffffff1673ffffffffffffffffffffffffffffffffffffffff163373ffffffffffffffffffffffffffffffffffffffff1614610883576040517f08c379a000000000000000000000000000000000000000000000000000000000815260040161087a90611083565b60405180910390fd5b600254905090565b60006020528160005260406000206020528060005260406000206000915091509054906101000a900460ff1681565b600082825260208201905092915050565b7f4d757374626520302e3030312065746865720000000000000000000000000000600082015250565b60006109016012836108ba565b915061090c826108cb565b602082019050919050565b60006020820190508181036000830152610930816108f4565b9050919050565b7f4e487b7100000000000000000000000000000000000000000000000000000000600052601160045260246000fd5b6000819050919050565b600061097b82610966565b91507fffffffffffffffffffffffffffffffffffffffffffffffffffffffffffffffff82036109ad576109ac610937565b5b600182019050919050565b600081905092915050565b50565b60006109d36000836109b8565b91506109de826109c3565b600082019050919050565b60006109f4826109c6565b9150819050919050565b7f4661696c65640000000000000000000000000000000000000000000000000000600082015250565b6000610a346006836108ba565b9150610a3f826109fe565b602082019050919050565b60006020820190508181036000830152610a6381610a27565b9050919050565b610a7381610966565b82525050565b6000602082019050610a8e6000830184610a6a565b92915050565b6000604051905090565b600080fd5b600080fd5b600080fd5b600080fd5b6000601f19601f8301169050919050565b7f4e487b7100000000000000000000000000000000000000000000000000000000600052604160045260246000fd5b610afb82610ab2565b810181811067ffffffffffffffff82111715610b1a57610b19610ac3565b5b80604052505050565b6000610b2d610a94565b9050610b398282610af2565b919050565b600067ffffffffffffffff821115610b5957610b58610ac3565b5b610b6282610ab2565b9050602081019050919050565b82818337600083830152505050565b6000610b91610b8c84610b3e565b610b23565b905082815260208101848484011115610bad57610bac610aad565b5b610bb8848285610b6f565b509392505050565b600082601f830112610bd557610bd4610aa8565b5b8135610be5848260208601610b7e565b91505092915050565b610bf781610966565b8114610c0257600080fd5b50565b600081359050610c1481610bee565b92915050565b60008060408385031215610c3157610c30610a9e565b5b600083013567ffffffffffffffff811115610c4f57610c4e610aa3565b5b610c5b85828601610bc0565b9250506020610c6c85828601610c05565b9150509250929050565b600081519050919050565b60005b83811015610c9f578082015181840152602081019050610c84565b60008484015250505050565b6000610cb682610c76565b610cc081856108ba565b9350610cd0818560208601610c81565b610cd981610ab2565b840191505092915050565b60006040820190508181036000830152610cfe8185610cab565b9050610d0d6020830184610a6a565b9392505050565b600073ffffffffffffffffffffffffffffffffffffffff82169050919050565b6000610d3f82610d14565b9050919050565b610d4f81610d34565b82525050565b6000602082019050610d6a6000830184610d46565b92915050565b610d7981610d34565b8114610d8457600080fd5b50565b600081359050610d9681610d70565b92915050565b60008060408385031215610db357610db2610a9e565b5b6000610dc185828601610c05565b9250506020610dd285828601610d87565b9150509250929050565b60008115159050919050565b610df181610ddc565b82525050565b6000602082019050610e0c6000830184610de8565b92915050565b7f4e487b7100000000000000000000000000000000000000000000000000000000600052602260045260246000fd5b60006002820490506001821680610e5957607f821691505b602082108103610e6c57610e6b610e12565b5b50919050565b60008190508160005260206000209050919050565b60008154610e9481610e41565b610e9e81866108ba565b94506001821660008114610eb95760018114610ecf57610f02565b60ff198316865281151560200286019350610f02565b610ed885610e72565b60005b83811015610efa57815481890152600182019150602081019050610edb565b808801955050505b50505092915050565b60006020820190508181036000830152610f258184610e87565b905092915050565b6000610f3882610966565b9150610f4383610966565b9250828201905080821115610f5b57610f5a610937565b5b92915050565b7f4e487b7100000000000000000000000000000000000000000000000000000000600052601260045260246000fd5b6000610f9b82610966565b9150610fa683610966565b925082610fb657610fb5610f61565b5b828204905092915050565b6000610fcc82610966565b9150610fd783610966565b9250828202610fe581610966565b91508282048414831517610ffc57610ffb610937565b5b5092915050565b600061100e82610966565b915061101983610966565b925082820390508181111561103157611030610937565b5b92915050565b7f4f776e61626c653a2063616c6c6572206973206e6f7420746865206f776e6572600082015250565b600061106d6020836108ba565b915061107882611037565b602082019050919050565b6000602082019050818103600083015261109c81611060565b9050919050565b60006020601f8301049050919050565b600082821b905092915050565b6000600883026110f07fffffffffffffffffffffffffffffffffffffffffffffffffffffffffffffffff826110b3565b6110fa86836110b3565b95508019841693508086168417925050509392505050565b6000819050919050565b600061113761113261112d84610966565b611112565b610966565b9050919050565b6000819050919050565b6111518361111c565b61116561115d8261113e565b8484546110c0565b825550505050565b600090565b61117a61116d565b611185818484611148565b505050565b5b818110156111a95761119e600082611172565b60018101905061118b565b5050565b601f8211156111ee576111bf81610e72565b6111c8846110a3565b810160208510156111d7578190505b6111eb6111e3856110a3565b83018261118a565b50505b505050565b600082821c905092915050565b6000611211600019846008026111f3565b1980831691505092915050565b600061122a8383611200565b9150826002028217905092915050565b61124382610c76565b67ffffffffffffffff81111561125c5761125b610ac3565b5b6112668254610e41565b6112718282856111ad565b600060209050601f8311600181146112a45760008415611292578287015190505b61129c858261121e565b865550611304565b601f1984166112b286610e72565b60005b828110156112da578489015182556001820191506020850194506020810190506112b5565b868310156112f757848901516112f3601f891682611200565b8355505b6001600288020188555050505b50505050505056fea264697066735822122010ba37715ae63aa5ff962e1569152c9af3a5827b5713573ed8c3a34045f2e29b64736f6c63430008110033",
			"opcodes": "PUSH1 0x80 PUSH1 0x40 MSTORE PUSH1 0x0 PUSH1 0x2 SSTORE PUSH1 0x1 PUSH1 0x5 SSTORE PUSH1 0x0 PUSH1 0x6 SSTORE CALLVALUE DUP1 ISZERO PUSH3 0x20 JUMPI PUSH1 0x0 DUP1 REVERT JUMPDEST POP PUSH1 0x40 MLOAD PUSH3 0x1C20 CODESIZE SUB DUP1 PUSH3 0x1C20 DUP4 CODECOPY DUP2 DUP2 ADD PUSH1 0x40 MSTORE DUP2 ADD SWAP1 PUSH3 0x46 SWAP2 SWAP1 PUSH3 0x324 JUMP JUMPDEST CALLER PUSH1 0x1 PUSH1 0x0 PUSH2 0x100 EXP DUP2 SLOAD DUP2 PUSH20 0xFFFFFFFFFFFFFFFFFFFFFFFFFFFFFFFFFFFFFFFF MUL NOT AND SWAP1 DUP4 PUSH20 0xFFFFFFFFFFFFFFFFFFFFFFFFFFFFFFFFFFFFFFFF AND MUL OR SWAP1 SSTORE POP DUP2 PUSH1 0x3 SWAP1 DUP2 PUSH3 0x98 SWAP2 SWAP1 PUSH3 0x5CB JUMP JUMPDEST POP DUP1 PUSH1 0x4 DUP2 SWAP1 SSTORE POP PUSH3 0xB0 PUSH3 0xBE PUSH1 0x20 SHL PUSH1 0x20 SHR JUMP JUMPDEST PUSH1 0x2 DUP2 SWAP1 SSTORE POP POP POP PUSH3 0x8CE JUMP JUMPDEST PUSH1 0x0 DUP1 NUMBER TIMESTAMP PUSH1 0x4 SLOAD PUSH1 0x3 PUSH1 0x40 MLOAD PUSH1 0x20 ADD PUSH3 0xDA SWAP2 SWAP1 PUSH3 0x753 JUMP JUMPDEST PUSH1 0x40 MLOAD PUSH1 0x20 DUP2 DUP4 SUB SUB DUP2 MSTORE SWAP1 PUSH1 0x40 MSTORE DUP1 MLOAD SWAP1 PUSH1 0x20 ADD KECCAK256 PUSH1 0x0 SHR PUSH3 0xFF SWAP2 SWAP1 PUSH3 0x7A6 JUMP JUMPDEST PUSH3 0x10B SWAP2 SWAP1 PUSH3 0x7A6 JUMP JUMPDEST PUSH3 0x117 SWAP2 SWAP1 PUSH3 0x7A6 JUMP JUMPDEST SWAP1 POP PUSH1 0x1 PUSH1 0xA DUP1 DUP4 PUSH3 0x12B SWAP2 SWAP1 PUSH3 0x810 JUMP JUMPDEST PUSH3 0x137 SWAP2 SWAP1 PUSH3 0x848 JUMP JUMPDEST DUP3 PUSH3 0x144 SWAP2 SWAP1 PUSH3 0x893 JUMP JUMPDEST PUSH3 0x150 SWAP2 SWAP1 PUSH3 0x7A6 JUMP JUMPDEST SWAP2 POP POP SWAP1 JUMP JUMPDEST PUSH1 0x0 PUSH1 0x40 MLOAD SWAP1 POP SWAP1 JUMP JUMPDEST PUSH1 0x0 DUP1 REVERT JUMPDEST PUSH1 0x0 DUP1 REVERT JUMPDEST PUSH1 0x0 DUP1 REVERT JUMPDEST PUSH1 0x0 DUP1 REVERT JUMPDEST PUSH1 0x0 PUSH1 0x1F NOT PUSH1 0x1F DUP4 ADD AND SWAP1 POP SWAP2 SWAP1 POP JUMP JUMPDEST PUSH32 0x4E487B7100000000000000000000000000000000000000000000000000000000 PUSH1 0x0 MSTORE PUSH1 0x41 PUSH1 0x4 MSTORE PUSH1 0x24 PUSH1 0x0 REVERT JUMPDEST PUSH3 0x1BF DUP3 PUSH3 0x174 JUMP JUMPDEST DUP2 ADD DUP2 DUP2 LT PUSH8 0xFFFFFFFFFFFFFFFF DUP3 GT OR ISZERO PUSH3 0x1E1 JUMPI PUSH3 0x1E0 PUSH3 0x185 JUMP JUMPDEST JUMPDEST DUP1 PUSH1 0x40 MSTORE POP POP POP JUMP JUMPDEST PUSH1 0x0 PUSH3 0x1F6 PUSH3 0x156 JUMP JUMPDEST SWAP1 POP PUSH3 0x204 DUP3 DUP3 PUSH3 0x1B4 JUMP JUMPDEST SWAP2 SWAP1 POP JUMP JUMPDEST PUSH1 0x0 PUSH8 0xFFFFFFFFFFFFFFFF DUP3 GT ISZERO PUSH3 0x227 JUMPI PUSH3 0x226 PUSH3 0x185 JUMP JUMPDEST JUMPDEST PUSH3 0x232 DUP3 PUSH3 0x174 JUMP JUMPDEST SWAP1 POP PUSH1 0x20 DUP2 ADD SWAP1 POP SWAP2 SWAP1 POP JUMP JUMPDEST PUSH1 0x0 JUMPDEST DUP4 DUP2 LT ISZERO PUSH3 0x25F JUMPI DUP1 DUP3 ADD MLOAD DUP2 DUP5 ADD MSTORE PUSH1 0x20 DUP2 ADD SWAP1 POP PUSH3 0x242 JUMP JUMPDEST PUSH1 0x0 DUP5 DUP5 ADD MSTORE POP POP POP POP JUMP JUMPDEST PUSH1 0x0 PUSH3 0x282 PUSH3 0x27C DUP5 PUSH3 0x209 JUMP JUMPDEST PUSH3 0x1EA JUMP JUMPDEST SWAP1 POP DUP3 DUP2 MSTORE PUSH1 0x20 DUP2 ADD DUP5 DUP5 DUP5 ADD GT ISZERO PUSH3 0x2A1 JUMPI PUSH3 0x2A0 PUSH3 0x16F JUMP JUMPDEST JUMPDEST PUSH3 0x2AE DUP5 DUP3 DUP6 PUSH3 0x23F JUMP JUMPDEST POP SWAP4 SWAP3 POP POP POP JUMP JUMPDEST PUSH1 0x0 DUP3 PUSH1 0x1F DUP4 ADD SLT PUSH3 0x2CE JUMPI PUSH3 0x2CD PUSH3 0x16A JUMP JUMPDEST JUMPDEST DUP2 MLOAD PUSH3 0x2E0 DUP5 DUP3 PUSH1 0x20 DUP7 ADD PUSH3 0x26B JUMP JUMPDEST SWAP2 POP POP SWAP3 SWAP2 POP POP JUMP JUMPDEST PUSH1 0x0 DUP2 SWAP1 POP SWAP2 SWAP1 POP JUMP JUMPDEST PUSH3 0x2FE DUP2 PUSH3 0x2E9 JUMP JUMPDEST DUP2 EQ PUSH3 0x30A JUMPI PUSH1 0x0 DUP1 REVERT JUMPDEST POP JUMP JUMPDEST PUSH1 0x0 DUP2 MLOAD SWAP1 POP PUSH3 0x31E DUP2 PUSH3 0x2F3 JUMP JUMPDEST SWAP3 SWAP2 POP POP JUMP JUMPDEST PUSH1 0x0 DUP1 PUSH1 0x40 DUP4 DUP6 SUB SLT ISZERO PUSH3 0x33E JUMPI PUSH3 0x33D PUSH3 0x160 JUMP JUMPDEST JUMPDEST PUSH1 0x0 DUP4 ADD MLOAD PUSH8 0xFFFFFFFFFFFFFFFF DUP2 GT ISZERO PUSH3 0x35F JUMPI PUSH3 0x35E PUSH3 0x165 JUMP JUMPDEST JUMPDEST PUSH3 0x36D DUP6 DUP3 DUP7 ADD PUSH3 0x2B6 JUMP JUMPDEST SWAP3 POP POP PUSH1 0x20 PUSH3 0x380 DUP6 DUP3 DUP7 ADD PUSH3 0x30D JUMP JUMPDEST SWAP2 POP POP SWAP3 POP SWAP3 SWAP1 POP JUMP JUMPDEST PUSH1 0x0 DUP2 MLOAD SWAP1 POP SWAP2 SWAP1 POP JUMP JUMPDEST PUSH32 0x4E487B7100000000000000000000000000000000000000000000000000000000 PUSH1 0x0 MSTORE PUSH1 0x22 PUSH1 0x4 MSTORE PUSH1 0x24 PUSH1 0x0 REVERT JUMPDEST PUSH1 0x0 PUSH1 0x2 DUP3 DIV SWAP1 POP PUSH1 0x1 DUP3 AND DUP1 PUSH3 0x3DD JUMPI PUSH1 0x7F DUP3 AND SWAP2 POP JUMPDEST PUSH1 0x20 DUP3 LT DUP2 SUB PUSH3 0x3F3 JUMPI PUSH3 0x3F2 PUSH3 0x395 JUMP JUMPDEST JUMPDEST POP SWAP2 SWAP1 POP JUMP JUMPDEST PUSH1 0x0 DUP2 SWAP1 POP DUP2 PUSH1 0x0 MSTORE PUSH1 0x20 PUSH1 0x0 KECCAK256 SWAP1 POP SWAP2 SWAP1 POP JUMP JUMPDEST PUSH1 0x0 PUSH1 0x20 PUSH1 0x1F DUP4 ADD DIV SWAP1 POP SWAP2 SWAP1 POP JUMP JUMPDEST PUSH1 0x0 DUP3 DUP3 SHL SWAP1 POP SWAP3 SWAP2 POP POP JUMP JUMPDEST PUSH1 0x0 PUSH1 0x8 DUP4 MUL PUSH3 0x45D PUSH32 0xFFFFFFFFFFFFFFFFFFFFFFFFFFFFFFFFFFFFFFFFFFFFFFFFFFFFFFFFFFFFFFFF DUP3 PUSH3 0x41E JUMP JUMPDEST PUSH3 0x469 DUP7 DUP4 PUSH3 0x41E JUMP JUMPDEST SWAP6 POP DUP1 NOT DUP5 AND SWAP4 POP DUP1 DUP7 AND DUP5 OR SWAP3 POP POP POP SWAP4 SWAP3 POP POP POP JUMP JUMPDEST PUSH1 0x0 DUP2 SWAP1 POP SWAP2 SWAP1 POP JUMP JUMPDEST PUSH1 0x0 PUSH3 0x4AC PUSH3 0x4A6 PUSH3 0x4A0 DUP5 PUSH3 0x2E9 JUMP JUMPDEST PUSH3 0x481 JUMP JUMPDEST PUSH3 0x2E9 JUMP JUMPDEST SWAP1 POP SWAP2 SWAP1 POP JUMP JUMPDEST PUSH1 0x0 DUP2 SWAP1 POP SWAP2 SWAP1 POP JUMP JUMPDEST PUSH3 0x4C8 DUP4 PUSH3 0x48B JUMP JUMPDEST PUSH3 0x4E0 PUSH3 0x4D7 DUP3 PUSH3 0x4B3 JUMP JUMPDEST DUP5 DUP5 SLOAD PUSH3 0x42B JUMP JUMPDEST DUP3 SSTORE POP POP POP POP JUMP JUMPDEST PUSH1 0x0 SWAP1 JUMP JUMPDEST PUSH3 0x4F7 PUSH3 0x4E8 JUMP JUMPDEST PUSH3 0x504 DUP2 DUP5 DUP5 PUSH3 0x4BD JUMP JUMPDEST POP POP POP JUMP JUMPDEST JUMPDEST DUP2 DUP2 LT ISZERO PUSH3 0x52C JUMPI PUSH3 0x520 PUSH1 0x0 DUP3 PUSH3 0x4ED JUMP JUMPDEST PUSH1 0x1 DUP2 ADD SWAP1 POP PUSH3 0x50A JUMP JUMPDEST POP POP JUMP JUMPDEST PUSH1 0x1F DUP3 GT ISZERO PUSH3 0x57B JUMPI PUSH3 0x545 DUP2 PUSH3 0x3F9 JUMP JUMPDEST PUSH3 0x550 DUP5 PUSH3 0x40E JUMP JUMPDEST DUP2 ADD PUSH1 0x20 DUP6 LT ISZERO PUSH3 0x560 JUMPI DUP2 SWAP1 POP JUMPDEST PUSH3 0x578 PUSH3 0x56F DUP6 PUSH3 0x40E JUMP JUMPDEST DUP4 ADD DUP3 PUSH3 0x509 JUMP JUMPDEST POP POP JUMPDEST POP POP POP JUMP JUMPDEST PUSH1 0x0 DUP3 DUP3 SHR SWAP1 POP SWAP3 SWAP2 POP POP JUMP JUMPDEST PUSH1 0x0 PUSH3 0x5A0 PUSH1 0x0 NOT DUP5 PUSH1 0x8 MUL PUSH3 0x580 JUMP JUMPDEST NOT DUP1 DUP4 AND SWAP2 POP POP SWAP3 SWAP2 POP POP JUMP JUMPDEST PUSH1 0x0 PUSH3 0x5BB DUP4 DUP4 PUSH3 0x58D JUMP JUMPDEST SWAP2 POP DUP3 PUSH1 0x2 MUL DUP3 OR SWAP1 POP SWAP3 SWAP2 POP POP JUMP JUMPDEST PUSH3 0x5D6 DUP3 PUSH3 0x38A JUMP JUMPDEST PUSH8 0xFFFFFFFFFFFFFFFF DUP2 GT ISZERO PUSH3 0x5F2 JUMPI PUSH3 0x5F1 PUSH3 0x185 JUMP JUMPDEST JUMPDEST PUSH3 0x5FE DUP3 SLOAD PUSH3 0x3C4 JUMP JUMPDEST PUSH3 0x60B DUP3 DUP3 DUP6 PUSH3 0x530 JUMP JUMPDEST PUSH1 0x0 PUSH1 0x20 SWAP1 POP PUSH1 0x1F DUP4 GT PUSH1 0x1 DUP2 EQ PUSH3 0x643 JUMPI PUSH1 0x0 DUP5 ISZERO PUSH3 0x62E JUMPI DUP3 DUP8 ADD MLOAD SWAP1 POP JUMPDEST PUSH3 0x63A DUP6 DUP3 PUSH3 0x5AD JUMP JUMPDEST DUP7 SSTORE POP PUSH3 0x6AA JUMP JUMPDEST PUSH1 0x1F NOT DUP5 AND PUSH3 0x653 DUP7 PUSH3 0x3F9 JUMP JUMPDEST PUSH1 0x0 JUMPDEST DUP3 DUP2 LT ISZERO PUSH3 0x67D JUMPI DUP5 DUP10 ADD MLOAD DUP3 SSTORE PUSH1 0x1 DUP3 ADD SWAP2 POP PUSH1 0x20 DUP6 ADD SWAP5 POP PUSH1 0x20 DUP2 ADD SWAP1 POP PUSH3 0x656 JUMP JUMPDEST DUP7 DUP4 LT ISZERO PUSH3 0x69D JUMPI DUP5 DUP10 ADD MLOAD PUSH3 0x699 PUSH1 0x1F DUP10 AND DUP3 PUSH3 0x58D JUMP JUMPDEST DUP4 SSTORE POP JUMPDEST PUSH1 0x1 PUSH1 0x2 DUP9 MUL ADD DUP9 SSTORE POP POP POP JUMPDEST POP POP POP POP POP POP JUMP JUMPDEST PUSH1 0x0 DUP3 DUP3 MSTORE PUSH1 0x20 DUP3 ADD SWAP1 POP SWAP3 SWAP2 POP POP JUMP JUMPDEST PUSH1 0x0 DUP2 SLOAD PUSH3 0x6D2 DUP2 PUSH3 0x3C4 JUMP JUMPDEST PUSH3 0x6DE DUP2 DUP7 PUSH3 0x6B2 JUMP JUMPDEST SWAP5 POP PUSH1 0x1 DUP3 AND PUSH1 0x0 DUP2 EQ PUSH3 0x6FC JUMPI PUSH1 0x1 DUP2 EQ PUSH3 0x713 JUMPI PUSH3 0x74A JUMP JUMPDEST PUSH1 0xFF NOT DUP4 AND DUP7 MSTORE DUP2 ISZERO ISZERO PUSH1 0x20 MUL DUP7 ADD SWAP4 POP PUSH3 0x74A JUMP JUMPDEST PUSH3 0x71E DUP6 PUSH3 0x3F9 JUMP JUMPDEST PUSH1 0x0 JUMPDEST DUP4 DUP2 LT ISZERO PUSH3 0x742 JUMPI DUP2 SLOAD DUP2 DUP10 ADD MSTORE PUSH1 0x1 DUP3 ADD SWAP2 POP PUSH1 0x20 DUP2 ADD SWAP1 POP PUSH3 0x721 JUMP JUMPDEST DUP1 DUP9 ADD SWAP6 POP POP POP JUMPDEST POP POP POP SWAP3 SWAP2 POP POP JUMP JUMPDEST PUSH1 0x0 PUSH1 0x20 DUP3 ADD SWAP1 POP DUP2 DUP2 SUB PUSH1 0x0 DUP4 ADD MSTORE PUSH3 0x76F DUP2 DUP5 PUSH3 0x6C3 JUMP JUMPDEST SWAP1 POP SWAP3 SWAP2 POP POP JUMP JUMPDEST PUSH32 0x4E487B7100000000000000000000000000000000000000000000000000000000 PUSH1 0x0 MSTORE PUSH1 0x11 PUSH1 0x4 MSTORE PUSH1 0x24 PUSH1 0x0 REVERT JUMPDEST PUSH1 0x0 PUSH3 0x7B3 DUP3 PUSH3 0x2E9 JUMP JUMPDEST SWAP2 POP PUSH3 0x7C0 DUP4 PUSH3 0x2E9 JUMP JUMPDEST SWAP3 POP DUP3 DUP3 ADD SWAP1 POP DUP1 DUP3 GT ISZERO PUSH3 0x7DB JUMPI PUSH3 0x7DA PUSH3 0x777 JUMP JUMPDEST JUMPDEST SWAP3 SWAP2 POP POP JUMP JUMPDEST PUSH32 0x4E487B7100000000000000000000000000000000000000000000000000000000 PUSH1 0x0 MSTORE PUSH1 0x12 PUSH1 0x4 MSTORE PUSH1 0x24 PUSH1 0x0 REVERT JUMPDEST PUSH1 0x0 PUSH3 0x81D DUP3 PUSH3 0x2E9 JUMP JUMPDEST SWAP2 POP PUSH3 0x82A DUP4 PUSH3 0x2E9 JUMP JUMPDEST SWAP3 POP DUP3 PUSH3 0x83D JUMPI PUSH3 0x83C PUSH3 0x7E1 JUMP JUMPDEST JUMPDEST DUP3 DUP3 DIV SWAP1 POP SWAP3 SWAP2 POP POP JUMP JUMPDEST PUSH1 0x0 PUSH3 0x855 DUP3 PUSH3 0x2E9 JUMP JUMPDEST SWAP2 POP PUSH3 0x862 DUP4 PUSH3 0x2E9 JUMP JUMPDEST SWAP3 POP DUP3 DUP3 MUL PUSH3 0x872 DUP2 PUSH3 0x2E9 JUMP JUMPDEST SWAP2 POP DUP3 DUP3 DIV DUP5 EQ DUP4 ISZERO OR PUSH3 0x88C JUMPI PUSH3 0x88B PUSH3 0x777 JUMP JUMPDEST JUMPDEST POP SWAP3 SWAP2 POP POP JUMP JUMPDEST PUSH1 0x0 PUSH3 0x8A0 DUP3 PUSH3 0x2E9 JUMP JUMPDEST SWAP2 POP PUSH3 0x8AD DUP4 PUSH3 0x2E9 JUMP JUMPDEST SWAP3 POP DUP3 DUP3 SUB SWAP1 POP DUP2 DUP2 GT ISZERO PUSH3 0x8C8 JUMPI PUSH3 0x8C7 PUSH3 0x777 JUMP JUMPDEST JUMPDEST SWAP3 SWAP2 POP POP JUMP JUMPDEST PUSH2 0x1342 DUP1 PUSH3 0x8DE PUSH1 0x0 CODECOPY PUSH1 0x0 RETURN INVALID PUSH1 0x80 PUSH1 0x40 MSTORE PUSH1 0x4 CALLDATASIZE LT PUSH2 0x95 JUMPI PUSH1 0x0 CALLDATALOAD PUSH1 0xE0 SHR DUP1 PUSH4 0x79ED40BC GT PUSH2 0x59 JUMPI DUP1 PUSH4 0x79ED40BC EQ PUSH2 0x3B8 JUMPI DUP1 PUSH4 0x8DA5CB5B EQ PUSH2 0x3E4 JUMPI DUP1 PUSH4 0x9F8743F7 EQ PUSH2 0x40F JUMPI DUP1 PUSH4 0xA86D2E19 EQ PUSH2 0x43A JUMPI DUP1 PUSH4 0xCF66B989 EQ PUSH2 0x465 JUMPI PUSH2 0x2E0 JUMP JUMPDEST DUP1 PUSH4 0xDF516D8 EQ PUSH2 0x2E5 JUMPI DUP1 PUSH4 0x12065FE0 EQ PUSH2 0x310 JUMPI DUP1 PUSH4 0x146CA531 EQ PUSH2 0x33B JUMPI DUP1 PUSH4 0x19E2EB86 EQ PUSH2 0x366 JUMPI DUP1 PUSH4 0x5EF5CC89 EQ PUSH2 0x38F JUMPI PUSH2 0x2E0 JUMP JUMPDEST CALLDATASIZE PUSH2 0x2E0 JUMPI PUSH7 0x38D7EA4C68000 CALLVALUE EQ PUSH2 0xE3 JUMPI PUSH1 0x40 MLOAD PUSH32 0x8C379A000000000000000000000000000000000000000000000000000000000 DUP2 MSTORE PUSH1 0x4 ADD PUSH2 0xDA SWAP1 PUSH2 0x917 JUMP JUMPDEST PUSH1 0x40 MLOAD DUP1 SWAP2 SUB SWAP1 REVERT JUMPDEST PUSH1 0x1 PUSH1 0x0 DUP1 PUSH1 0x5 SLOAD DUP2 MSTORE PUSH1 0x20 ADD SWAP1 DUP2 MSTORE PUSH1 0x20 ADD PUSH1 0x0 KECCAK256 PUSH1 0x0 CALLER PUSH20 0xFFFFFFFFFFFFFFFFFFFFFFFFFFFFFFFFFFFFFFFF AND PUSH20 0xFFFFFFFFFFFFFFFFFFFFFFFFFFFFFFFFFFFFFFFF AND DUP2 MSTORE PUSH1 0x20 ADD SWAP1 DUP2 MSTORE PUSH1 0x20 ADD PUSH1 0x0 KECCAK256 PUSH1 0x0 PUSH2 0x100 EXP DUP2 SLOAD DUP2 PUSH1 0xFF MUL NOT AND SWAP1 DUP4 ISZERO ISZERO MUL OR SWAP1 SSTORE POP PUSH1 0x6 PUSH1 0x0 DUP2 SLOAD PUSH2 0x15C SWAP1 PUSH2 0x970 JUMP JUMPDEST SWAP2 SWAP1 POP DUP2 SWAP1 SSTORE POP PUSH1 0x2 SLOAD PUSH1 0x6 SLOAD SUB PUSH2 0x28F JUMPI PUSH1 0x0 CALLER PUSH20 0xFFFFFFFFFFFFFFFFFFFFFFFFFFFFFFFFFFFFFFFF AND SELFBALANCE PUSH1 0x40 MLOAD PUSH2 0x194 SWAP1 PUSH2 0x9E9 JUMP JUMPDEST PUSH1 0x0 PUSH1 0x40 MLOAD DUP1 DUP4 SUB DUP2 DUP6 DUP8 GAS CALL SWAP3 POP POP POP RETURNDATASIZE DUP1 PUSH1 0x0 DUP2 EQ PUSH2 0x1D1 JUMPI PUSH1 0x40 MLOAD SWAP2 POP PUSH1 0x1F NOT PUSH1 0x3F RETURNDATASIZE ADD AND DUP3 ADD PUSH1 0x40 MSTORE RETURNDATASIZE DUP3 MSTORE RETURNDATASIZE PUSH1 0x0 PUSH1 0x20 DUP5 ADD RETURNDATACOPY PUSH2 0x1D6 JUMP JUMPDEST PUSH1 0x60 SWAP2 POP JUMPDEST POP POP SWAP1 POP DUP1 PUSH2 0x21A JUMPI PUSH1 0x40 MLOAD PUSH32 0x8C379A000000000000000000000000000000000000000000000000000000000 DUP2 MSTORE PUSH1 0x4 ADD PUSH2 0x211 SWAP1 PUSH2 0xA4A JUMP JUMPDEST PUSH1 0x40 MLOAD DUP1 SWAP2 SUB SWAP1 REVERT JUMPDEST PUSH1 0x0 PUSH1 0x6 DUP2 SWAP1 SSTORE POP PUSH1 0x5 PUSH1 0x0 DUP2 SLOAD PUSH2 0x231 SWAP1 PUSH2 0x970 JUMP JUMPDEST SWAP2 SWAP1 POP DUP2 SWAP1 SSTORE POP PUSH2 0x240 PUSH2 0x4A2 JUMP JUMPDEST PUSH1 0x2 DUP2 SWAP1 SSTORE POP CALLER PUSH20 0xFFFFFFFFFFFFFFFFFFFFFFFFFFFFFFFFFFFFFFFF AND PUSH32 0xD7B5435FA0DD93954C7955210A67950D9385F8CD60631432712709E265EC99CA PUSH1 0x40 MLOAD PUSH1 0x40 MLOAD DUP1 SWAP2 SUB SWAP1 LOG2 POP PUSH2 0x2DE JUMP JUMPDEST CALLER PUSH20 0xFFFFFFFFFFFFFFFFFFFFFFFFFFFFFFFFFFFFFFFF AND PUSH32 0x20384C35AF44AE3E0536C765E1CEE107339D7CA70B092472C816A3A62E4BA659 CALLVALUE PUSH1 0x40 MLOAD PUSH2 0x2D5 SWAP2 SWAP1 PUSH2 0xA79 JUMP JUMPDEST PUSH1 0x40 MLOAD DUP1 SWAP2 SUB SWAP1 LOG2 JUMPDEST STOP JUMPDEST PUSH1 0x0 DUP1 REVERT JUMPDEST CALLVALUE DUP1 ISZERO PUSH2 0x2F1 JUMPI PUSH1 0x0 DUP1 REVERT JUMPDEST POP PUSH2 0x2FA PUSH2 0x52A JUMP JUMPDEST PUSH1 0x40 MLOAD PUSH2 0x307 SWAP2 SWAP1 PUSH2 0xA79 JUMP JUMPDEST PUSH1 0x40 MLOAD DUP1 SWAP2 SUB SWAP1 RETURN JUMPDEST CALLVALUE DUP1 ISZERO PUSH2 0x31C JUMPI PUSH1 0x0 DUP1 REVERT JUMPDEST POP PUSH2 0x325 PUSH2 0x530 JUMP JUMPDEST PUSH1 0x40 MLOAD PUSH2 0x332 SWAP2 SWAP1 PUSH2 0xA79 JUMP JUMPDEST PUSH1 0x40 MLOAD DUP1 SWAP2 SUB SWAP1 RETURN JUMPDEST CALLVALUE DUP1 ISZERO PUSH2 0x347 JUMPI PUSH1 0x0 DUP1 REVERT JUMPDEST POP PUSH2 0x350 PUSH2 0x538 JUMP JUMPDEST PUSH1 0x40 MLOAD PUSH2 0x35D SWAP2 SWAP1 PUSH2 0xA79 JUMP JUMPDEST PUSH1 0x40 MLOAD DUP1 SWAP2 SUB SWAP1 RETURN JUMPDEST CALLVALUE DUP1 ISZERO PUSH2 0x372 JUMPI PUSH1 0x0 DUP1 REVERT JUMPDEST POP PUSH2 0x38D PUSH1 0x4 DUP1 CALLDATASIZE SUB DUP2 ADD SWAP1 PUSH2 0x388 SWAP2 SWAP1 PUSH2 0xC1A JUMP JUMPDEST PUSH2 0x53E JUMP JUMPDEST STOP JUMPDEST CALLVALUE DUP1 ISZERO PUSH2 0x39B JUMPI PUSH1 0x0 DUP1 REVERT JUMPDEST POP PUSH2 0x3B6 PUSH1 0x4 DUP1 CALLDATASIZE SUB DUP2 ADD SWAP1 PUSH2 0x3B1 SWAP2 SWAP1 PUSH2 0xC1A JUMP JUMPDEST PUSH2 0x5E9 JUMP JUMPDEST STOP JUMPDEST CALLVALUE DUP1 ISZERO PUSH2 0x3C4 JUMPI PUSH1 0x0 DUP1 REVERT JUMPDEST POP PUSH2 0x3CD PUSH2 0x694 JUMP JUMPDEST PUSH1 0x40 MLOAD PUSH2 0x3DB SWAP3 SWAP2 SWAP1 PUSH2 0xCE4 JUMP JUMPDEST PUSH1 0x40 MLOAD DUP1 SWAP2 SUB SWAP1 RETURN JUMPDEST CALLVALUE DUP1 ISZERO PUSH2 0x3F0 JUMPI PUSH1 0x0 DUP1 REVERT JUMPDEST POP PUSH2 0x3F9 PUSH2 0x7C1 JUMP JUMPDEST PUSH1 0x40 MLOAD PUSH2 0x406 SWAP2 SWAP1 PUSH2 0xD55 JUMP JUMPDEST PUSH1 0x40 MLOAD DUP1 SWAP2 SUB SWAP1 RETURN JUMPDEST CALLVALUE DUP1 ISZERO PUSH2 0x41B JUMPI PUSH1 0x0 DUP1 REVERT JUMPDEST POP PUSH2 0x424 PUSH2 0x7E7 JUMP JUMPDEST PUSH1 0x40 MLOAD PUSH2 0x431 SWAP2 SWAP1 PUSH2 0xA79 JUMP JUMPDEST PUSH1 0x40 MLOAD DUP1 SWAP2 SUB SWAP1 RETURN JUMPDEST CALLVALUE DUP1 ISZERO PUSH2 0x446 JUMPI PUSH1 0x0 DUP1 REVERT JUMPDEST POP PUSH2 0x44F PUSH2 0x7F1 JUMP JUMPDEST PUSH1 0x40 MLOAD PUSH2 0x45C SWAP2 SWAP1 PUSH2 0xA79 JUMP JUMPDEST PUSH1 0x40 MLOAD DUP1 SWAP2 SUB SWAP1 RETURN JUMPDEST CALLVALUE DUP1 ISZERO PUSH2 0x471 JUMPI PUSH1 0x0 DUP1 REVERT JUMPDEST POP PUSH2 0x48C PUSH1 0x4 DUP1 CALLDATASIZE SUB DUP2 ADD SWAP1 PUSH2 0x487 SWAP2 SWAP1 PUSH2 0xD9C JUMP JUMPDEST PUSH2 0x88B JUMP JUMPDEST PUSH1 0x40 MLOAD PUSH2 0x499 SWAP2 SWAP1 PUSH2 0xDF7 JUMP JUMPDEST PUSH1 0x40 MLOAD DUP1 SWAP2 SUB SWAP1 RETURN JUMPDEST PUSH1 0x0 DUP1 NUMBER TIMESTAMP PUSH1 0x4 SLOAD PUSH1 0x3 PUSH1 0x40 MLOAD PUSH1 0x20 ADD PUSH2 0x4BC SWAP2 SWAP1 PUSH2 0xF0B JUMP JUMPDEST PUSH1 0x40 MLOAD PUSH1 0x20 DUP2 DUP4 SUB SUB DUP2 MSTORE SWAP1 PUSH1 0x40 MSTORE DUP1 MLOAD SWAP1 PUSH1 0x20 ADD KECCAK256 PUSH1 0x0 SHR PUSH2 0x4DF SWAP2 SWAP1 PUSH2 0xF2D JUMP JUMPDEST PUSH2 0x4E9 SWAP2 SWAP1 PUSH2 0xF2D JUMP JUMPDEST PUSH2 0x4F3 SWAP2 SWAP1 PUSH2 0xF2D JUMP JUMPDEST SWAP1 POP PUSH1 0x1 PUSH1 0xA DUP1 DUP4 PUSH2 0x505 SWAP2 SWAP1 PUSH2 0xF90 JUMP JUMPDEST PUSH2 0x50F SWAP2 SWAP1 PUSH2 0xFC1 JUMP JUMPDEST DUP3 PUSH2 0x51A SWAP2 SWAP1 PUSH2 0x1003 JUMP JUMPDEST PUSH2 0x524 SWAP2 SWAP1 PUSH2 0xF2D JUMP JUMPDEST SWAP2 POP POP SWAP1 JUMP JUMPDEST PUSH1 0x6 SLOAD DUP2 JUMP JUMPDEST PUSH1 0x0 SELFBALANCE SWAP1 POP SWAP1 JUMP JUMPDEST PUSH1 0x5 SLOAD DUP2 JUMP JUMPDEST PUSH1 0x1 PUSH1 0x0 SWAP1 SLOAD SWAP1 PUSH2 0x100 EXP SWAP1 DIV PUSH20 0xFFFFFFFFFFFFFFFFFFFFFFFFFFFFFFFFFFFFFFFF AND PUSH20 0xFFFFFFFFFFFFFFFFFFFFFFFFFFFFFFFFFFFFFFFF AND CALLER PUSH20 0xFFFFFFFFFFFFFFFFFFFFFFFFFFFFFFFFFFFFFFFF AND EQ PUSH2 0x5CE JUMPI PUSH1 0x40 MLOAD PUSH32 0x8C379A000000000000000000000000000000000000000000000000000000000 DUP2 MSTORE PUSH1 0x4 ADD PUSH2 0x5C5 SWAP1 PUSH2 0x1083 JUMP JUMPDEST PUSH1 0x40 MLOAD DUP1 SWAP2 SUB SWAP1 REVERT JUMPDEST DUP2 PUSH1 0x3 SWAP1 DUP2 PUSH2 0x5DD SWAP2 SWAP1 PUSH2 0x123A JUMP JUMPDEST POP DUP1 PUSH1 0x4 DUP2 SWAP1 SSTORE POP POP POP JUMP JUMPDEST PUSH1 0x1 PUSH1 0x0 SWAP1 SLOAD SWAP1 PUSH2 0x100 EXP SWAP1 DIV PUSH20 0xFFFFFFFFFFFFFFFFFFFFFFFFFFFFFFFFFFFFFFFF AND PUSH20 0xFFFFFFFFFFFFFFFFFFFFFFFFFFFFFFFFFFFFFFFF AND CALLER PUSH20 0xFFFFFFFFFFFFFFFFFFFFFFFFFFFFFFFFFFFFFFFF AND EQ PUSH2 0x679 JUMPI PUSH1 0x40 MLOAD PUSH32 0x8C379A000000000000000000000000000000000000000000000000000000000 DUP2 MSTORE PUSH1 0x4 ADD PUSH2 0x670 SWAP1 PUSH2 0x1083 JUMP JUMPDEST PUSH1 0x40 MLOAD DUP1 SWAP2 SUB SWAP1 REVERT JUMPDEST DUP2 PUSH1 0x3 SWAP1 DUP2 PUSH2 0x688 SWAP2 SWAP1 PUSH2 0x123A JUMP JUMPDEST POP DUP1 PUSH1 0x4 DUP2 SWAP1 SSTORE POP POP POP JUMP JUMPDEST PUSH1 0x60 PUSH1 0x0 PUSH1 0x1 PUSH1 0x0 SWAP1 SLOAD SWAP1 PUSH2 0x100 EXP SWAP1 DIV PUSH20 0xFFFFFFFFFFFFFFFFFFFFFFFFFFFFFFFFFFFFFFFF AND PUSH20 0xFFFFFFFFFFFFFFFFFFFFFFFFFFFFFFFFFFFFFFFF AND CALLER PUSH20 0xFFFFFFFFFFFFFFFFFFFFFFFFFFFFFFFFFFFFFFFF AND EQ PUSH2 0x728 JUMPI PUSH1 0x40 MLOAD PUSH32 0x8C379A000000000000000000000000000000000000000000000000000000000 DUP2 MSTORE PUSH1 0x4 ADD PUSH2 0x71F SWAP1 PUSH2 0x1083 JUMP JUMPDEST PUSH1 0x40 MLOAD DUP1 SWAP2 SUB SWAP1 REVERT JUMPDEST PUSH1 0x3 PUSH1 0x4 SLOAD DUP2 DUP1 SLOAD PUSH2 0x739 SWAP1 PUSH2 0xE41 JUMP JUMPDEST DUP1 PUSH1 0x1F ADD PUSH1 0x20 DUP1 SWAP2 DIV MUL PUSH1 0x20 ADD PUSH1 0x40 MLOAD SWAP1 DUP2 ADD PUSH1 0x40 MSTORE DUP1 SWAP3 SWAP2 SWAP1 DUP2 DUP2 MSTORE PUSH1 0x20 ADD DUP3 DUP1 SLOAD PUSH2 0x765 SWAP1 PUSH2 0xE41 JUMP JUMPDEST DUP1 ISZERO PUSH2 0x7B2 JUMPI DUP1 PUSH1 0x1F LT PUSH2 0x787 JUMPI PUSH2 0x100 DUP1 DUP4 SLOAD DIV MUL DUP4 MSTORE SWAP2 PUSH1 0x20 ADD SWAP2 PUSH2 0x7B2 JUMP JUMPDEST DUP3 ADD SWAP2 SWAP1 PUSH1 0x0 MSTORE PUSH1 0x20 PUSH1 0x0 KECCAK256 SWAP1 JUMPDEST DUP2 SLOAD DUP2 MSTORE SWAP1 PUSH1 0x1 ADD SWAP1 PUSH1 0x20 ADD DUP1 DUP4 GT PUSH2 0x795 JUMPI DUP3 SWAP1 SUB PUSH1 0x1F AND DUP3 ADD SWAP2 JUMPDEST POP POP POP POP POP SWAP2 POP SWAP2 POP SWAP2 POP SWAP1 SWAP2 JUMP JUMPDEST PUSH1 0x1 PUSH1 0x0 SWAP1 SLOAD SWAP1 PUSH2 0x100 EXP SWAP1 DIV PUSH20 0xFFFFFFFFFFFFFFFFFFFFFFFFFFFFFFFFFFFFFFFF AND DUP2 JUMP JUMPDEST PUSH1 0x0 PUSH1 0x5 SLOAD SWAP1 POP SWAP1 JUMP JUMPDEST PUSH1 0x0 PUSH1 0x1 PUSH1 0x0 SWAP1 SLOAD SWAP1 PUSH2 0x100 EXP SWAP1 DIV PUSH20 0xFFFFFFFFFFFFFFFFFFFFFFFFFFFFFFFFFFFFFFFF AND PUSH20 0xFFFFFFFFFFFFFFFFFFFFFFFFFFFFFFFFFFFFFFFF AND CALLER PUSH20 0xFFFFFFFFFFFFFFFFFFFFFFFFFFFFFFFFFFFFFFFF AND EQ PUSH2 0x883 JUMPI PUSH1 0x40 MLOAD PUSH32 0x8C379A000000000000000000000000000000000000000000000000000000000 DUP2 MSTORE PUSH1 0x4 ADD PUSH2 0x87A SWAP1 PUSH2 0x1083 JUMP JUMPDEST PUSH1 0x40 MLOAD DUP1 SWAP2 SUB SWAP1 REVERT JUMPDEST PUSH1 0x2 SLOAD SWAP1 POP SWAP1 JUMP JUMPDEST PUSH1 0x0 PUSH1 0x20 MSTORE DUP2 PUSH1 0x0 MSTORE PUSH1 0x40 PUSH1 0x0 KECCAK256 PUSH1 0x20 MSTORE DUP1 PUSH1 0x0 MSTORE PUSH1 0x40 PUSH1 0x0 KECCAK256 PUSH1 0x0 SWAP2 POP SWAP2 POP SWAP1 SLOAD SWAP1 PUSH2 0x100 EXP SWAP1 DIV PUSH1 0xFF AND DUP2 JUMP JUMPDEST PUSH1 0x0 DUP3 DUP3 MSTORE PUSH1 0x20 DUP3 ADD SWAP1 POP SWAP3 SWAP2 POP POP JUMP JUMPDEST PUSH32 0x4D757374626520302E3030312065746865720000000000000000000000000000 PUSH1 0x0 DUP3 ADD MSTORE POP JUMP JUMPDEST PUSH1 0x0 PUSH2 0x901 PUSH1 0x12 DUP4 PUSH2 0x8BA JUMP JUMPDEST SWAP2 POP PUSH2 0x90C DUP3 PUSH2 0x8CB JUMP JUMPDEST PUSH1 0x20 DUP3 ADD SWAP1 POP SWAP2 SWAP1 POP JUMP JUMPDEST PUSH1 0x0 PUSH1 0x20 DUP3 ADD SWAP1 POP DUP2 DUP2 SUB PUSH1 0x0 DUP4 ADD MSTORE PUSH2 0x930 DUP2 PUSH2 0x8F4 JUMP JUMPDEST SWAP1 POP SWAP2 SWAP1 POP JUMP JUMPDEST PUSH32 0x4E487B7100000000000000000000000000000000000000000000000000000000 PUSH1 0x0 MSTORE PUSH1 0x11 PUSH1 0x4 MSTORE PUSH1 0x24 PUSH1 0x0 REVERT JUMPDEST PUSH1 0x0 DUP2 SWAP1 POP SWAP2 SWAP1 POP JUMP JUMPDEST PUSH1 0x0 PUSH2 0x97B DUP3 PUSH2 0x966 JUMP JUMPDEST SWAP2 POP PUSH32 0xFFFFFFFFFFFFFFFFFFFFFFFFFFFFFFFFFFFFFFFFFFFFFFFFFFFFFFFFFFFFFFFF DUP3 SUB PUSH2 0x9AD JUMPI PUSH2 0x9AC PUSH2 0x937 JUMP JUMPDEST JUMPDEST PUSH1 0x1 DUP3 ADD SWAP1 POP SWAP2 SWAP1 POP JUMP JUMPDEST PUSH1 0x0 DUP2 SWAP1 POP SWAP3 SWAP2 POP POP JUMP JUMPDEST POP JUMP JUMPDEST PUSH1 0x0 PUSH2 0x9D3 PUSH1 0x0 DUP4 PUSH2 0x9B8 JUMP JUMPDEST SWAP2 POP PUSH2 0x9DE DUP3 PUSH2 0x9C3 JUMP JUMPDEST PUSH1 0x0 DUP3 ADD SWAP1 POP SWAP2 SWAP1 POP JUMP JUMPDEST PUSH1 0x0 PUSH2 0x9F4 DUP3 PUSH2 0x9C6 JUMP JUMPDEST SWAP2 POP DUP2 SWAP1 POP SWAP2 SWAP1 POP JUMP JUMPDEST PUSH32 0x4661696C65640000000000000000000000000000000000000000000000000000 PUSH1 0x0 DUP3 ADD MSTORE POP JUMP JUMPDEST PUSH1 0x0 PUSH2 0xA34 PUSH1 0x6 DUP4 PUSH2 0x8BA JUMP JUMPDEST SWAP2 POP PUSH2 0xA3F DUP3 PUSH2 0x9FE JUMP JUMPDEST PUSH1 0x20 DUP3 ADD SWAP1 POP SWAP2 SWAP1 POP JUMP JUMPDEST PUSH1 0x0 PUSH1 0x20 DUP3 ADD SWAP1 POP DUP2 DUP2 SUB PUSH1 0x0 DUP4 ADD MSTORE PUSH2 0xA63 DUP2 PUSH2 0xA27 JUMP JUMPDEST SWAP1 POP SWAP2 SWAP1 POP JUMP JUMPDEST PUSH2 0xA73 DUP2 PUSH2 0x966 JUMP JUMPDEST DUP3 MSTORE POP POP JUMP JUMPDEST PUSH1 0x0 PUSH1 0x20 DUP3 ADD SWAP1 POP PUSH2 0xA8E PUSH1 0x0 DUP4 ADD DUP5 PUSH2 0xA6A JUMP JUMPDEST SWAP3 SWAP2 POP POP JUMP JUMPDEST PUSH1 0x0 PUSH1 0x40 MLOAD SWAP1 POP SWAP1 JUMP JUMPDEST PUSH1 0x0 DUP1 REVERT JUMPDEST PUSH1 0x0 DUP1 REVERT JUMPDEST PUSH1 0x0 DUP1 REVERT JUMPDEST PUSH1 0x0 DUP1 REVERT JUMPDEST PUSH1 0x0 PUSH1 0x1F NOT PUSH1 0x1F DUP4 ADD AND SWAP1 POP SWAP2 SWAP1 POP JUMP JUMPDEST PUSH32 0x4E487B7100000000000000000000000000000000000000000000000000000000 PUSH1 0x0 MSTORE PUSH1 0x41 PUSH1 0x4 MSTORE PUSH1 0x24 PUSH1 0x0 REVERT JUMPDEST PUSH2 0xAFB DUP3 PUSH2 0xAB2 JUMP JUMPDEST DUP2 ADD DUP2 DUP2 LT PUSH8 0xFFFFFFFFFFFFFFFF DUP3 GT OR ISZERO PUSH2 0xB1A JUMPI PUSH2 0xB19 PUSH2 0xAC3 JUMP JUMPDEST JUMPDEST DUP1 PUSH1 0x40 MSTORE POP POP POP JUMP JUMPDEST PUSH1 0x0 PUSH2 0xB2D PUSH2 0xA94 JUMP JUMPDEST SWAP1 POP PUSH2 0xB39 DUP3 DUP3 PUSH2 0xAF2 JUMP JUMPDEST SWAP2 SWAP1 POP JUMP JUMPDEST PUSH1 0x0 PUSH8 0xFFFFFFFFFFFFFFFF DUP3 GT ISZERO PUSH2 0xB59 JUMPI PUSH2 0xB58 PUSH2 0xAC3 JUMP JUMPDEST JUMPDEST PUSH2 0xB62 DUP3 PUSH2 0xAB2 JUMP JUMPDEST SWAP1 POP PUSH1 0x20 DUP2 ADD SWAP1 POP SWAP2 SWAP1 POP JUMP JUMPDEST DUP3 DUP2 DUP4 CALLDATACOPY PUSH1 0x0 DUP4 DUP4 ADD MSTORE POP POP POP JUMP JUMPDEST PUSH1 0x0 PUSH2 0xB91 PUSH2 0xB8C DUP5 PUSH2 0xB3E JUMP JUMPDEST PUSH2 0xB23 JUMP JUMPDEST SWAP1 POP DUP3 DUP2 MSTORE PUSH1 0x20 DUP2 ADD DUP5 DUP5 DUP5 ADD GT ISZERO PUSH2 0xBAD JUMPI PUSH2 0xBAC PUSH2 0xAAD JUMP JUMPDEST JUMPDEST PUSH2 0xBB8 DUP5 DUP3 DUP6 PUSH2 0xB6F JUMP JUMPDEST POP SWAP4 SWAP3 POP POP POP JUMP JUMPDEST PUSH1 0x0 DUP3 PUSH1 0x1F DUP4 ADD SLT PUSH2 0xBD5 JUMPI PUSH2 0xBD4 PUSH2 0xAA8 JUMP JUMPDEST JUMPDEST DUP2 CALLDATALOAD PUSH2 0xBE5 DUP5 DUP3 PUSH1 0x20 DUP7 ADD PUSH2 0xB7E JUMP JUMPDEST SWAP2 POP POP SWAP3 SWAP2 POP POP JUMP JUMPDEST PUSH2 0xBF7 DUP2 PUSH2 0x966 JUMP JUMPDEST DUP2 EQ PUSH2 0xC02 JUMPI PUSH1 0x0 DUP1 REVERT JUMPDEST POP JUMP JUMPDEST PUSH1 0x0 DUP2 CALLDATALOAD SWAP1 POP PUSH2 0xC14 DUP2 PUSH2 0xBEE JUMP JUMPDEST SWAP3 SWAP2 POP POP JUMP JUMPDEST PUSH1 0x0 DUP1 PUSH1 0x40 DUP4 DUP6 SUB SLT ISZERO PUSH2 0xC31 JUMPI PUSH2 0xC30 PUSH2 0xA9E JUMP JUMPDEST JUMPDEST PUSH1 0x0 DUP4 ADD CALLDATALOAD PUSH8 0xFFFFFFFFFFFFFFFF DUP2 GT ISZERO PUSH2 0xC4F JUMPI PUSH2 0xC4E PUSH2 0xAA3 JUMP JUMPDEST JUMPDEST PUSH2 0xC5B DUP6 DUP3 DUP7 ADD PUSH2 0xBC0 JUMP JUMPDEST SWAP3 POP POP PUSH1 0x20 PUSH2 0xC6C DUP6 DUP3 DUP7 ADD PUSH2 0xC05 JUMP JUMPDEST SWAP2 POP POP SWAP3 POP SWAP3 SWAP1 POP JUMP JUMPDEST PUSH1 0x0 DUP2 MLOAD SWAP1 POP SWAP2 SWAP1 POP JUMP JUMPDEST PUSH1 0x0 JUMPDEST DUP4 DUP2 LT ISZERO PUSH2 0xC9F JUMPI DUP1 DUP3 ADD MLOAD DUP2 DUP5 ADD MSTORE PUSH1 0x20 DUP2 ADD SWAP1 POP PUSH2 0xC84 JUMP JUMPDEST PUSH1 0x0 DUP5 DUP5 ADD MSTORE POP POP POP POP JUMP JUMPDEST PUSH1 0x0 PUSH2 0xCB6 DUP3 PUSH2 0xC76 JUMP JUMPDEST PUSH2 0xCC0 DUP2 DUP6 PUSH2 0x8BA JUMP JUMPDEST SWAP4 POP PUSH2 0xCD0 DUP2 DUP6 PUSH1 0x20 DUP7 ADD PUSH2 0xC81 JUMP JUMPDEST PUSH2 0xCD9 DUP2 PUSH2 0xAB2 JUMP JUMPDEST DUP5 ADD SWAP2 POP POP SWAP3 SWAP2 POP POP JUMP JUMPDEST PUSH1 0x0 PUSH1 0x40 DUP3 ADD SWAP1 POP DUP2 DUP2 SUB PUSH1 0x0 DUP4 ADD MSTORE PUSH2 0xCFE DUP2 DUP6 PUSH2 0xCAB JUMP JUMPDEST SWAP1 POP PUSH2 0xD0D PUSH1 0x20 DUP4 ADD DUP5 PUSH2 0xA6A JUMP JUMPDEST SWAP4 SWAP3 POP POP POP JUMP JUMPDEST PUSH1 0x0 PUSH20 0xFFFFFFFFFFFFFFFFFFFFFFFFFFFFFFFFFFFFFFFF DUP3 AND SWAP1 POP SWAP2 SWAP1 POP JUMP JUMPDEST PUSH1 0x0 PUSH2 0xD3F DUP3 PUSH2 0xD14 JUMP JUMPDEST SWAP1 POP SWAP2 SWAP1 POP JUMP JUMPDEST PUSH2 0xD4F DUP2 PUSH2 0xD34 JUMP JUMPDEST DUP3 MSTORE POP POP JUMP JUMPDEST PUSH1 0x0 PUSH1 0x20 DUP3 ADD SWAP1 POP PUSH2 0xD6A PUSH1 0x0 DUP4 ADD DUP5 PUSH2 0xD46 JUMP JUMPDEST SWAP3 SWAP2 POP POP JUMP JUMPDEST PUSH2 0xD79 DUP2 PUSH2 0xD34 JUMP JUMPDEST DUP2 EQ PUSH2 0xD84 JUMPI PUSH1 0x0 DUP1 REVERT JUMPDEST POP JUMP JUMPDEST PUSH1 0x0 DUP2 CALLDATALOAD SWAP1 POP PUSH2 0xD96 DUP2 PUSH2 0xD70 JUMP JUMPDEST SWAP3 SWAP2 POP POP JUMP JUMPDEST PUSH1 0x0 DUP1 PUSH1 0x40 DUP4 DUP6 SUB SLT ISZERO PUSH2 0xDB3 JUMPI PUSH2 0xDB2 PUSH2 0xA9E JUMP JUMPDEST JUMPDEST PUSH1 0x0 PUSH2 0xDC1 DUP6 DUP3 DUP7 ADD PUSH2 0xC05 JUMP JUMPDEST SWAP3 POP POP PUSH1 0x20 PUSH2 0xDD2 DUP6 DUP3 DUP7 ADD PUSH2 0xD87 JUMP JUMPDEST SWAP2 POP POP SWAP3 POP SWAP3 SWAP1 POP JUMP JUMPDEST PUSH1 0x0 DUP2 ISZERO ISZERO SWAP1 POP SWAP2 SWAP1 POP JUMP JUMPDEST PUSH2 0xDF1 DUP2 PUSH2 0xDDC JUMP JUMPDEST DUP3 MSTORE POP POP JUMP JUMPDEST PUSH1 0x0 PUSH1 0x20 DUP3 ADD SWAP1 POP PUSH2 0xE0C PUSH1 0x0 DUP4 ADD DUP5 PUSH2 0xDE8 JUMP JUMPDEST SWAP3 SWAP2 POP POP JUMP JUMPDEST PUSH32 0x4E487B7100000000000000000000000000000000000000000000000000000000 PUSH1 0x0 MSTORE PUSH1 0x22 PUSH1 0x4 MSTORE PUSH1 0x24 PUSH1 0x0 REVERT JUMPDEST PUSH1 0x0 PUSH1 0x2 DUP3 DIV SWAP1 POP PUSH1 0x1 DUP3 AND DUP1 PUSH2 0xE59 JUMPI PUSH1 0x7F DUP3 AND SWAP2 POP JUMPDEST PUSH1 0x20 DUP3 LT DUP2 SUB PUSH2 0xE6C JUMPI PUSH2 0xE6B PUSH2 0xE12 JUMP JUMPDEST JUMPDEST POP SWAP2 SWAP1 POP JUMP JUMPDEST PUSH1 0x0 DUP2 SWAP1 POP DUP2 PUSH1 0x0 MSTORE PUSH1 0x20 PUSH1 0x0 KECCAK256 SWAP1 POP SWAP2 SWAP1 POP JUMP JUMPDEST PUSH1 0x0 DUP2 SLOAD PUSH2 0xE94 DUP2 PUSH2 0xE41 JUMP JUMPDEST PUSH2 0xE9E DUP2 DUP7 PUSH2 0x8BA JUMP JUMPDEST SWAP5 POP PUSH1 0x1 DUP3 AND PUSH1 0x0 DUP2 EQ PUSH2 0xEB9 JUMPI PUSH1 0x1 DUP2 EQ PUSH2 0xECF JUMPI PUSH2 0xF02 JUMP JUMPDEST PUSH1 0xFF NOT DUP4 AND DUP7 MSTORE DUP2 ISZERO ISZERO PUSH1 0x20 MUL DUP7 ADD SWAP4 POP PUSH2 0xF02 JUMP JUMPDEST PUSH2 0xED8 DUP6 PUSH2 0xE72 JUMP JUMPDEST PUSH1 0x0 JUMPDEST DUP4 DUP2 LT ISZERO PUSH2 0xEFA JUMPI DUP2 SLOAD DUP2 DUP10 ADD MSTORE PUSH1 0x1 DUP3 ADD SWAP2 POP PUSH1 0x20 DUP2 ADD SWAP1 POP PUSH2 0xEDB JUMP JUMPDEST DUP1 DUP9 ADD SWAP6 POP POP POP JUMPDEST POP POP POP SWAP3 SWAP2 POP POP JUMP JUMPDEST PUSH1 0x0 PUSH1 0x20 DUP3 ADD SWAP1 POP DUP2 DUP2 SUB PUSH1 0x0 DUP4 ADD MSTORE PUSH2 0xF25 DUP2 DUP5 PUSH2 0xE87 JUMP JUMPDEST SWAP1 POP SWAP3 SWAP2 POP POP JUMP JUMPDEST PUSH1 0x0 PUSH2 0xF38 DUP3 PUSH2 0x966 JUMP JUMPDEST SWAP2 POP PUSH2 0xF43 DUP4 PUSH2 0x966 JUMP JUMPDEST SWAP3 POP DUP3 DUP3 ADD SWAP1 POP DUP1 DUP3 GT ISZERO PUSH2 0xF5B JUMPI PUSH2 0xF5A PUSH2 0x937 JUMP JUMPDEST JUMPDEST SWAP3 SWAP2 POP POP JUMP JUMPDEST PUSH32 0x4E487B7100000000000000000000000000000000000000000000000000000000 PUSH1 0x0 MSTORE PUSH1 0x12 PUSH1 0x4 MSTORE PUSH1 0x24 PUSH1 0x0 REVERT JUMPDEST PUSH1 0x0 PUSH2 0xF9B DUP3 PUSH2 0x966 JUMP JUMPDEST SWAP2 POP PUSH2 0xFA6 DUP4 PUSH2 0x966 JUMP JUMPDEST SWAP3 POP DUP3 PUSH2 0xFB6 JUMPI PUSH2 0xFB5 PUSH2 0xF61 JUMP JUMPDEST JUMPDEST DUP3 DUP3 DIV SWAP1 POP SWAP3 SWAP2 POP POP JUMP JUMPDEST PUSH1 0x0 PUSH2 0xFCC DUP3 PUSH2 0x966 JUMP JUMPDEST SWAP2 POP PUSH2 0xFD7 DUP4 PUSH2 0x966 JUMP JUMPDEST SWAP3 POP DUP3 DUP3 MUL PUSH2 0xFE5 DUP2 PUSH2 0x966 JUMP JUMPDEST SWAP2 POP DUP3 DUP3 DIV DUP5 EQ DUP4 ISZERO OR PUSH2 0xFFC JUMPI PUSH2 0xFFB PUSH2 0x937 JUMP JUMPDEST JUMPDEST POP SWAP3 SWAP2 POP POP JUMP JUMPDEST PUSH1 0x0 PUSH2 0x100E DUP3 PUSH2 0x966 JUMP JUMPDEST SWAP2 POP PUSH2 0x1019 DUP4 PUSH2 0x966 JUMP JUMPDEST SWAP3 POP DUP3 DUP3 SUB SWAP1 POP DUP2 DUP2 GT ISZERO PUSH2 0x1031 JUMPI PUSH2 0x1030 PUSH2 0x937 JUMP JUMPDEST JUMPDEST SWAP3 SWAP2 POP POP JUMP JUMPDEST PUSH32 0x4F776E61626C653A2063616C6C6572206973206E6F7420746865206F776E6572 PUSH1 0x0 DUP3 ADD MSTORE POP JUMP JUMPDEST PUSH1 0x0 PUSH2 0x106D PUSH1 0x20 DUP4 PUSH2 0x8BA JUMP JUMPDEST SWAP2 POP PUSH2 0x1078 DUP3 PUSH2 0x1037 JUMP JUMPDEST PUSH1 0x20 DUP3 ADD SWAP1 POP SWAP2 SWAP1 POP JUMP JUMPDEST PUSH1 0x0 PUSH1 0x20 DUP3 ADD SWAP1 POP DUP2 DUP2 SUB PUSH1 0x0 DUP4 ADD MSTORE PUSH2 0x109C DUP2 PUSH2 0x1060 JUMP JUMPDEST SWAP1 POP SWAP2 SWAP1 POP JUMP JUMPDEST PUSH1 0x0 PUSH1 0x20 PUSH1 0x1F DUP4 ADD DIV SWAP1 POP SWAP2 SWAP1 POP JUMP JUMPDEST PUSH1 0x0 DUP3 DUP3 SHL SWAP1 POP SWAP3 SWAP2 POP POP JUMP JUMPDEST PUSH1 0x0 PUSH1 0x8 DUP4 MUL PUSH2 0x10F0 PUSH32 0xFFFFFFFFFFFFFFFFFFFFFFFFFFFFFFFFFFFFFFFFFFFFFFFFFFFFFFFFFFFFFFFF DUP3 PUSH2 0x10B3 JUMP JUMPDEST PUSH2 0x10FA DUP7 DUP4 PUSH2 0x10B3 JUMP JUMPDEST SWAP6 POP DUP1 NOT DUP5 AND SWAP4 POP DUP1 DUP7 AND DUP5 OR SWAP3 POP POP POP SWAP4 SWAP3 POP POP POP JUMP JUMPDEST PUSH1 0x0 DUP2 SWAP1 POP SWAP2 SWAP1 POP JUMP JUMPDEST PUSH1 0x0 PUSH2 0x1137 PUSH2 0x1132 PUSH2 0x112D DUP5 PUSH2 0x966 JUMP JUMPDEST PUSH2 0x1112 JUMP JUMPDEST PUSH2 0x966 JUMP JUMPDEST SWAP1 POP SWAP2 SWAP1 POP JUMP JUMPDEST PUSH1 0x0 DUP2 SWAP1 POP SWAP2 SWAP1 POP JUMP JUMPDEST PUSH2 0x1151 DUP4 PUSH2 0x111C JUMP JUMPDEST PUSH2 0x1165 PUSH2 0x115D DUP3 PUSH2 0x113E JUMP JUMPDEST DUP5 DUP5 SLOAD PUSH2 0x10C0 JUMP JUMPDEST DUP3 SSTORE POP POP POP POP JUMP JUMPDEST PUSH1 0x0 SWAP1 JUMP JUMPDEST PUSH2 0x117A PUSH2 0x116D JUMP JUMPDEST PUSH2 0x1185 DUP2 DUP5 DUP5 PUSH2 0x1148 JUMP JUMPDEST POP POP POP JUMP JUMPDEST JUMPDEST DUP2 DUP2 LT ISZERO PUSH2 0x11A9 JUMPI PUSH2 0x119E PUSH1 0x0 DUP3 PUSH2 0x1172 JUMP JUMPDEST PUSH1 0x1 DUP2 ADD SWAP1 POP PUSH2 0x118B JUMP JUMPDEST POP POP JUMP JUMPDEST PUSH1 0x1F DUP3 GT ISZERO PUSH2 0x11EE JUMPI PUSH2 0x11BF DUP2 PUSH2 0xE72 JUMP JUMPDEST PUSH2 0x11C8 DUP5 PUSH2 0x10A3 JUMP JUMPDEST DUP2 ADD PUSH1 0x20 DUP6 LT ISZERO PUSH2 0x11D7 JUMPI DUP2 SWAP1 POP JUMPDEST PUSH2 0x11EB PUSH2 0x11E3 DUP6 PUSH2 0x10A3 JUMP JUMPDEST DUP4 ADD DUP3 PUSH2 0x118A JUMP JUMPDEST POP POP JUMPDEST POP POP POP JUMP JUMPDEST PUSH1 0x0 DUP3 DUP3 SHR SWAP1 POP SWAP3 SWAP2 POP POP JUMP JUMPDEST PUSH1 0x0 PUSH2 0x1211 PUSH1 0x0 NOT DUP5 PUSH1 0x8 MUL PUSH2 0x11F3 JUMP JUMPDEST NOT DUP1 DUP4 AND SWAP2 POP POP SWAP3 SWAP2 POP POP JUMP JUMPDEST PUSH1 0x0 PUSH2 0x122A DUP4 DUP4 PUSH2 0x1200 JUMP JUMPDEST SWAP2 POP DUP3 PUSH1 0x2 MUL DUP3 OR SWAP1 POP SWAP3 SWAP2 POP POP JUMP JUMPDEST PUSH2 0x1243 DUP3 PUSH2 0xC76 JUMP JUMPDEST PUSH8 0xFFFFFFFFFFFFFFFF DUP2 GT ISZERO PUSH2 0x125C JUMPI PUSH2 0x125B PUSH2 0xAC3 JUMP JUMPDEST JUMPDEST PUSH2 0x1266 DUP3 SLOAD PUSH2 0xE41 JUMP JUMPDEST PUSH2 0x1271 DUP3 DUP3 DUP6 PUSH2 0x11AD JUMP JUMPDEST PUSH1 0x0 PUSH1 0x20 SWAP1 POP PUSH1 0x1F DUP4 GT PUSH1 0x1 DUP2 EQ PUSH2 0x12A4 JUMPI PUSH1 0x0 DUP5 ISZERO PUSH2 0x1292 JUMPI DUP3 DUP8 ADD MLOAD SWAP1 POP JUMPDEST PUSH2 0x129C DUP6 DUP3 PUSH2 0x121E JUMP JUMPDEST DUP7 SSTORE POP PUSH2 0x1304 JUMP JUMPDEST PUSH1 0x1F NOT DUP5 AND PUSH2 0x12B2 DUP7 PUSH2 0xE72 JUMP JUMPDEST PUSH1 0x0 JUMPDEST DUP3 DUP2 LT ISZERO PUSH2 0x12DA JUMPI DUP5 DUP10 ADD MLOAD DUP3 SSTORE PUSH1 0x1 DUP3 ADD SWAP2 POP PUSH1 0x20 DUP6 ADD SWAP5 POP PUSH1 0x20 DUP2 ADD SWAP1 POP PUSH2 0x12B5 JUMP JUMPDEST DUP7 DUP4 LT ISZERO PUSH2 0x12F7 JUMPI DUP5 DUP10 ADD MLOAD PUSH2 0x12F3 PUSH1 0x1F DUP10 AND DUP3 PUSH2 0x1200 JUMP JUMPDEST DUP4 SSTORE POP JUMPDEST PUSH1 0x1 PUSH1 0x2 DUP9 MUL ADD DUP9 SSTORE POP POP POP JUMPDEST POP POP POP POP POP POP JUMP INVALID LOG2 PUSH5 0x6970667358 0x22 SLT KECCAK256 LT 0xBA CALLDATACOPY PUSH18 0x5AE63AA5FF962E1569152C9AF3A5827B5713 JUMPI RETURNDATACOPY 0xD8 0xC3 LOG3 BLOCKHASH GASLIMIT CALLCODE 0xE2 SWAP12 PUSH5 0x736F6C6343 STOP ADDMOD GT STOP CALLER "
		},
		"gasEstimates": {
			"creation": {
				"codeDepositCost": "986000",
				"executionCost": "infinite",
				"totalCost": "infinite"
			},
			"external": {
				"getBalance()": "362",
				"getRound()": "2481",
				"getSecretKey()": "infinite",
				"getSecretKey(string,uint256)": "infinite",
				"getWinnerNumber()": "4673",
				"owner()": "2536",
				"paidAddressList(uint256,address)": "3175",
				"playNumber()": "2430",
				"round()": "2474",
				"setSecretKey(string,uint256)": "infinite"
			},
			"internal": {
				"randomNumber()": "infinite"
			}
		},
		"methodIdentifiers": {
			"getBalance()": "12065fe0",
			"getRound()": "9f8743f7",
			"getSecretKey()": "79ed40bc",
			"getSecretKey(string,uint256)": "19e2eb86",
			"getWinnerNumber()": "a86d2e19",
			"owner()": "8da5cb5b",
			"paidAddressList(uint256,address)": "cf66b989",
			"playNumber()": "0df516d8",
			"round()": "146ca531",
			"setSecretKey(string,uint256)": "5ef5cc89"
		}
	},
	"abi": [
		{
			"inputs": [
				{
					"internalType": "string",
					"name": "_key1",
					"type": "string"
				},
				{
					"internalType": "uint256",
					"name": "_key2",
					"type": "uint256"
				}
			],
			"stateMutability": "nonpayable",
			"type": "constructor"
		},
		{
			"anonymous": false,
			"inputs": [
				{
					"indexed": true,
					"internalType": "address",
					"name": "sender",
					"type": "address"
				},
				{
					"indexed": false,
					"internalType": "uint256",
					"name": "payment",
					"type": "uint256"
				}
			],
			"name": "PaidAddress",
			"type": "event"
		},
		{
			"anonymous": false,
			"inputs": [
				{
					"indexed": true,
					"internalType": "address",
					"name": "winner",
					"type": "address"
				}
			],
			"name": "WinnerAddress",
			"type": "event"
		},
		{
			"inputs": [],
			"name": "getBalance",
			"outputs": [
				{
					"internalType": "uint256",
					"name": "",
					"type": "uint256"
				}
			],
			"stateMutability": "view",
			"type": "function"
		},
		{
			"inputs": [],
			"name": "getRound",
			"outputs": [
				{
					"internalType": "uint256",
					"name": "",
					"type": "uint256"
				}
			],
			"stateMutability": "view",
			"type": "function"
		},
		{
			"inputs": [
				{
					"internalType": "string",
					"name": "_key1",
					"type": "string"
				},
				{
					"internalType": "uint256",
					"name": "_key2",
					"type": "uint256"
				}
			],
			"name": "getSecretKey",
			"outputs": [],
			"stateMutability": "nonpayable",
			"type": "function"
		},
		{
			"inputs": [],
			"name": "getSecretKey",
			"outputs": [
				{
					"internalType": "string",
					"name": "",
					"type": "string"
				},
				{
					"internalType": "uint256",
					"name": "",
					"type": "uint256"
				}
			],
			"stateMutability": "view",
			"type": "function"
		},
		{
			"inputs": [],
			"name": "getWinnerNumber",
			"outputs": [
				{
					"internalType": "uint256",
					"name": "",
					"type": "uint256"
				}
			],
			"stateMutability": "view",
			"type": "function"
		},
		{
			"inputs": [],
			"name": "owner",
			"outputs": [
				{
					"internalType": "address",
					"name": "",
					"type": "address"
				}
			],
			"stateMutability": "view",
			"type": "function"
		},
		{
			"inputs": [
				{
					"internalType": "uint256",
					"name": "",
					"type": "uint256"
				},
				{
					"internalType": "address",
					"name": "",
					"type": "address"
				}
			],
			"name": "paidAddressList",
			"outputs": [
				{
					"internalType": "bool",
					"name": "",
					"type": "bool"
				}
			],
			"stateMutability": "view",
			"type": "function"
		},
		{
			"inputs": [],
			"name": "playNumber",
			"outputs": [
				{
					"internalType": "uint256",
					"name": "",
					"type": "uint256"
				}
			],
			"stateMutability": "view",
			"type": "function"
		},
		{
			"inputs": [],
			"name": "round",
			"outputs": [
				{
					"internalType": "uint256",
					"name": "",
					"type": "uint256"
				}
			],
			"stateMutability": "view",
			"type": "function"
		},
		{
			"inputs": [
				{
					"internalType": "string",
					"name": "_key1",
					"type": "string"
				},
				{
					"internalType": "uint256",
					"name": "_key2",
					"type": "uint256"
				}
			],
			"name": "setSecretKey",
			"outputs": [],
			"stateMutability": "nonpayable",
			"type": "function"
		},
		{
			"stateMutability": "payable",
			"type": "receive"
		}
	]
}